{
  "_format": "hh-sol-artifact-1",
  "contractName": "Bookkeeper",
  "sourceName": "src/Bookkeeper.sol",
  "abi": [
    {
      "inputs": [],
      "stateMutability": "nonpayable",
      "type": "constructor"
    },
    {
      "anonymous": false,
      "inputs": [
        {
          "indexed": false,
          "internalType": "bytes32",
          "name": "blueprintHash",
          "type": "bytes32"
        }
      ],
      "name": "DestroyedBlueprint",
      "type": "event"
    },
    {
      "anonymous": false,
      "inputs": [
        {
          "components": [
            {
              "components": [
                {
                  "internalType": "address",
                  "name": "publisher",
                  "type": "address"
                },
                {
                  "internalType": "bytes",
                  "name": "data",
                  "type": "bytes"
                },
                {
                  "internalType": "uint256",
                  "name": "maxNonce",
                  "type": "uint256"
                },
                {
                  "internalType": "uint256",
                  "name": "startTime",
                  "type": "uint256"
                },
                {
                  "internalType": "uint256",
                  "name": "endTime",
                  "type": "uint256"
                }
              ],
              "internalType": "struct Blueprint",
              "name": "blueprint",
              "type": "tuple"
            },
            {
              "internalType": "bytes32",
              "name": "blueprintHash",
              "type": "bytes32"
            },
            {
              "internalType": "bytes",
              "name": "signature",
              "type": "bytes"
            }
          ],
          "indexed": false,
          "internalType": "struct SignedBlueprint",
          "name": "agreement",
          "type": "tuple"
        },
        {
          "indexed": false,
          "internalType": "bytes32",
          "name": "orderBlueprintHash",
          "type": "bytes32"
        },
        {
          "indexed": false,
          "internalType": "address",
          "name": "taker",
          "type": "address"
        }
      ],
      "name": "OrderFilled",
      "type": "event"
    },
    {
      "anonymous": false,
      "inputs": [
        {
          "components": [
            {
              "components": [
                {
                  "internalType": "address",
                  "name": "publisher",
                  "type": "address"
                },
                {
                  "internalType": "bytes",
                  "name": "data",
                  "type": "bytes"
                },
                {
                  "internalType": "uint256",
                  "name": "maxNonce",
                  "type": "uint256"
                },
                {
                  "internalType": "uint256",
                  "name": "startTime",
                  "type": "uint256"
                },
                {
                  "internalType": "uint256",
                  "name": "endTime",
                  "type": "uint256"
                }
              ],
              "internalType": "struct Blueprint",
              "name": "blueprint",
              "type": "tuple"
            },
            {
              "internalType": "bytes32",
              "name": "blueprintHash",
              "type": "bytes32"
            },
            {
              "internalType": "bytes",
              "name": "signature",
              "type": "bytes"
            }
          ],
          "indexed": false,
          "internalType": "struct SignedBlueprint",
          "name": "agreement",
          "type": "tuple"
        },
        {
          "indexed": false,
          "internalType": "address",
          "name": "position",
          "type": "address"
        },
        {
          "indexed": false,
          "internalType": "address",
          "name": "closer",
          "type": "address"
        },
        {
          "indexed": false,
          "internalType": "uint256",
          "name": "closeValue",
          "type": "uint256"
        },
        {
          "indexed": false,
          "internalType": "uint256",
          "name": "loanOrcale",
          "type": "uint256"
        },
        {
          "indexed": false,
          "internalType": "uint256",
          "name": "assessorCost",
          "type": "uint256"
        }
      ],
      "name": "PositionClosed",
      "type": "event"
    },
    {
      "anonymous": false,
      "inputs": [
        {
          "components": [
            {
              "components": [
                {
                  "internalType": "address",
                  "name": "publisher",
                  "type": "address"
                },
                {
                  "internalType": "bytes",
                  "name": "data",
                  "type": "bytes"
                },
                {
                  "internalType": "uint256",
                  "name": "maxNonce",
                  "type": "uint256"
                },
                {
                  "internalType": "uint256",
                  "name": "startTime",
                  "type": "uint256"
                },
                {
                  "internalType": "uint256",
                  "name": "endTime",
                  "type": "uint256"
                }
              ],
              "internalType": "struct Blueprint",
              "name": "blueprint",
              "type": "tuple"
            },
            {
              "internalType": "bytes32",
              "name": "blueprintHash",
              "type": "bytes32"
            },
            {
              "internalType": "bytes",
              "name": "signature",
              "type": "bytes"
            }
          ],
          "indexed": false,
          "internalType": "struct SignedBlueprint",
          "name": "agreement",
          "type": "tuple"
        },
        {
          "indexed": false,
          "internalType": "address",
          "name": "position",
          "type": "address"
        },
        {
          "indexed": false,
          "internalType": "address",
          "name": "liquidator",
          "type": "address"
        }
      ],
      "name": "PositionLiquidated",
      "type": "event"
    },
    {
      "anonymous": false,
      "inputs": [
        {
          "components": [
            {
              "components": [
                {
                  "internalType": "address",
                  "name": "publisher",
                  "type": "address"
                },
                {
                  "internalType": "bytes",
                  "name": "data",
                  "type": "bytes"
                },
                {
                  "internalType": "uint256",
                  "name": "maxNonce",
                  "type": "uint256"
                },
                {
                  "internalType": "uint256",
                  "name": "startTime",
                  "type": "uint256"
                },
                {
                  "internalType": "uint256",
                  "name": "endTime",
                  "type": "uint256"
                }
              ],
              "internalType": "struct Blueprint",
              "name": "blueprint",
              "type": "tuple"
            },
            {
              "internalType": "bytes32",
              "name": "blueprintHash",
              "type": "bytes32"
            },
            {
              "internalType": "bytes",
              "name": "signature",
              "type": "bytes"
            }
          ],
          "indexed": false,
          "internalType": "struct SignedBlueprint",
          "name": "signedBlueprint",
          "type": "tuple"
        }
      ],
      "name": "PublishedBlueprint",
      "type": "event"
    },
    {
      "anonymous": false,
      "inputs": [
        {
          "indexed": true,
          "internalType": "address",
          "name": "operator",
          "type": "address"
        },
        {
          "indexed": false,
          "internalType": "bytes32",
          "name": "blueprintHash",
          "type": "bytes32"
        }
      ],
      "name": "UsedBlueprint",
      "type": "event"
    },
    {
      "inputs": [],
      "name": "BLUEPRINT_TYPEHASH",
      "outputs": [
        {
          "internalType": "bytes32",
          "name": "",
          "type": "bytes32"
        }
      ],
      "stateMutability": "view",
      "type": "function"
    },
    {
      "inputs": [],
      "name": "PROTOCOL_NAME",
      "outputs": [
        {
          "internalType": "string",
          "name": "",
          "type": "string"
        }
      ],
      "stateMutability": "view",
      "type": "function"
    },
    {
      "inputs": [],
      "name": "PROTOCOL_VERSION",
      "outputs": [
        {
          "internalType": "string",
          "name": "",
          "type": "string"
        }
      ],
      "stateMutability": "view",
      "type": "function"
    },
    {
      "inputs": [
        {
          "internalType": "bytes32",
          "name": "",
          "type": "bytes32"
        }
      ],
      "name": "agreementClosed",
      "outputs": [
        {
          "internalType": "bool",
          "name": "",
          "type": "bool"
        }
      ],
      "stateMutability": "view",
      "type": "function"
    },
    {
      "inputs": [
        {
          "components": [
            {
              "components": [
                {
                  "internalType": "address",
                  "name": "publisher",
                  "type": "address"
                },
                {
                  "internalType": "bytes",
                  "name": "data",
                  "type": "bytes"
                },
                {
                  "internalType": "uint256",
                  "name": "maxNonce",
                  "type": "uint256"
                },
                {
                  "internalType": "uint256",
                  "name": "startTime",
                  "type": "uint256"
                },
                {
                  "internalType": "uint256",
                  "name": "endTime",
                  "type": "uint256"
                }
              ],
              "internalType": "struct Blueprint",
              "name": "blueprint",
              "type": "tuple"
            },
            {
              "internalType": "bytes32",
              "name": "blueprintHash",
              "type": "bytes32"
            },
            {
              "internalType": "bytes",
              "name": "signature",
              "type": "bytes"
            }
          ],
          "internalType": "struct SignedBlueprint",
          "name": "agreementBlueprint",
          "type": "tuple"
        }
      ],
      "name": "closePosition",
      "outputs": [],
      "stateMutability": "nonpayable",
      "type": "function"
    },
    {
      "inputs": [
        {
          "components": [
            {
              "components": [
                {
                  "internalType": "address",
                  "name": "publisher",
                  "type": "address"
                },
                {
                  "internalType": "bytes",
                  "name": "data",
                  "type": "bytes"
                },
                {
                  "internalType": "uint256",
                  "name": "maxNonce",
                  "type": "uint256"
                },
                {
                  "internalType": "uint256",
                  "name": "startTime",
                  "type": "uint256"
                },
                {
                  "internalType": "uint256",
                  "name": "endTime",
                  "type": "uint256"
                }
              ],
              "internalType": "struct Blueprint",
              "name": "blueprint",
              "type": "tuple"
            },
            {
              "internalType": "bytes32",
              "name": "blueprintHash",
              "type": "bytes32"
            },
            {
              "internalType": "bytes",
              "name": "signature",
              "type": "bytes"
            }
          ],
          "internalType": "struct SignedBlueprint",
          "name": "signedBlueprint",
          "type": "tuple"
        }
      ],
      "name": "destroyBlueprint",
      "outputs": [],
      "stateMutability": "nonpayable",
      "type": "function"
    },
    {
      "inputs": [],
      "name": "domainSeparator",
      "outputs": [
        {
          "internalType": "bytes32",
          "name": "",
          "type": "bytes32"
        }
      ],
      "stateMutability": "view",
      "type": "function"
    },
    {
      "inputs": [
        {
          "components": [
            {
              "components": [
                {
                  "internalType": "address",
                  "name": "addr",
                  "type": "address"
                },
                {
                  "internalType": "bytes",
                  "name": "parameters",
                  "type": "bytes"
                }
              ],
              "internalType": "struct PluginReference",
              "name": "account",
              "type": "tuple"
            },
            {
              "internalType": "uint256",
              "name": "loanAmount",
              "type": "uint256"
            },
            {
              "internalType": "uint256",
              "name": "takerIdx",
              "type": "uint256"
            },
            {
              "internalType": "uint256",
              "name": "loanAssetIdx",
              "type": "uint256"
            },
            {
              "internalType": "uint256",
              "name": "collAssetIdx",
              "type": "uint256"
            },
            {
              "internalType": "uint256",
              "name": "factoryIdx",
              "type": "uint256"
            },
            {
              "internalType": "bool",
              "name": "isOfferFill",
              "type": "bool"
            },
            {
              "components": [
                {
                  "internalType": "uint256",
                  "name": "initCollateralRatio",
                  "type": "uint256"
                },
                {
                  "internalType": "bytes",
                  "name": "positionParameters",
                  "type": "bytes"
                }
              ],
              "internalType": "struct BorrowerConfig",
              "name": "borrowerConfig",
              "type": "tuple"
            }
          ],
          "internalType": "struct Fill",
          "name": "fill",
          "type": "tuple"
        },
        {
          "components": [
            {
              "components": [
                {
                  "internalType": "address",
                  "name": "publisher",
                  "type": "address"
                },
                {
                  "internalType": "bytes",
                  "name": "data",
                  "type": "bytes"
                },
                {
                  "internalType": "uint256",
                  "name": "maxNonce",
                  "type": "uint256"
                },
                {
                  "internalType": "uint256",
                  "name": "startTime",
                  "type": "uint256"
                },
                {
                  "internalType": "uint256",
                  "name": "endTime",
                  "type": "uint256"
                }
              ],
              "internalType": "struct Blueprint",
              "name": "blueprint",
              "type": "tuple"
            },
            {
              "internalType": "bytes32",
              "name": "blueprintHash",
              "type": "bytes32"
            },
            {
              "internalType": "bytes",
              "name": "signature",
              "type": "bytes"
            }
          ],
          "internalType": "struct SignedBlueprint",
          "name": "orderBlueprint",
          "type": "tuple"
        }
      ],
      "name": "fillOrder",
      "outputs": [],
      "stateMutability": "nonpayable",
      "type": "function"
    },
    {
      "inputs": [
        {
          "components": [
            {
              "internalType": "address",
              "name": "publisher",
              "type": "address"
            },
            {
              "internalType": "bytes",
              "name": "data",
              "type": "bytes"
            },
            {
              "internalType": "uint256",
              "name": "maxNonce",
              "type": "uint256"
            },
            {
              "internalType": "uint256",
              "name": "startTime",
              "type": "uint256"
            },
            {
              "internalType": "uint256",
              "name": "endTime",
              "type": "uint256"
            }
          ],
          "internalType": "struct Blueprint",
          "name": "blueprint",
          "type": "tuple"
        }
      ],
      "name": "getBlueprintHash",
      "outputs": [
        {
          "internalType": "bytes32",
          "name": "",
          "type": "bytes32"
        }
      ],
      "stateMutability": "view",
      "type": "function"
    },
    {
      "inputs": [],
      "name": "getChainId",
      "outputs": [
        {
          "internalType": "uint256",
          "name": "",
          "type": "uint256"
        }
      ],
      "stateMutability": "view",
      "type": "function"
    },
    {
      "inputs": [
        {
          "internalType": "bytes32",
          "name": "blueprintHash",
          "type": "bytes32"
        },
        {
          "internalType": "bytes",
          "name": "",
          "type": "bytes"
        }
      ],
      "name": "isValidSignature",
      "outputs": [
        {
          "internalType": "bytes4",
          "name": "magicValue",
          "type": "bytes4"
        }
      ],
      "stateMutability": "view",
      "type": "function"
    },
    {
      "inputs": [
        {
          "internalType": "address",
          "name": "signer",
          "type": "address"
        },
        {
          "internalType": "bytes32",
          "name": "hash",
          "type": "bytes32"
        },
        {
          "internalType": "bytes",
          "name": "signature",
          "type": "bytes"
        }
      ],
      "name": "isValidSignatureNow",
      "outputs": [
        {
          "internalType": "bool",
          "name": "",
          "type": "bool"
        }
      ],
      "stateMutability": "view",
      "type": "function"
    },
    {
      "inputs": [
        {
          "internalType": "bytes32",
          "name": "",
          "type": "bytes32"
        }
      ],
      "name": "liquidationLock",
      "outputs": [
        {
          "internalType": "bool",
          "name": "",
          "type": "bool"
        }
      ],
      "stateMutability": "view",
      "type": "function"
    },
    {
      "inputs": [
        {
          "internalType": "bytes1",
          "name": "dataType",
          "type": "bytes1"
        },
        {
          "internalType": "bytes",
          "name": "data",
          "type": "bytes"
        }
      ],
      "name": "packDataField",
      "outputs": [
        {
          "internalType": "bytes",
          "name": "",
          "type": "bytes"
        }
      ],
      "stateMutability": "pure",
      "type": "function"
    },
    {
      "inputs": [
        {
          "components": [
            {
              "components": [
                {
                  "internalType": "address",
                  "name": "publisher",
                  "type": "address"
                },
                {
                  "internalType": "bytes",
                  "name": "data",
                  "type": "bytes"
                },
                {
                  "internalType": "uint256",
                  "name": "maxNonce",
                  "type": "uint256"
                },
                {
                  "internalType": "uint256",
                  "name": "startTime",
                  "type": "uint256"
                },
                {
                  "internalType": "uint256",
                  "name": "endTime",
                  "type": "uint256"
                }
              ],
              "internalType": "struct Blueprint",
              "name": "blueprint",
              "type": "tuple"
            },
            {
              "internalType": "bytes32",
              "name": "blueprintHash",
              "type": "bytes32"
            },
            {
              "internalType": "bytes",
              "name": "signature",
              "type": "bytes"
            }
          ],
          "internalType": "struct SignedBlueprint",
          "name": "signedBlueprint",
          "type": "tuple"
        }
      ],
      "name": "publishBlueprint",
      "outputs": [],
      "stateMutability": "nonpayable",
      "type": "function"
    },
    {
      "inputs": [
        {
          "components": [
            {
              "components": [
                {
                  "internalType": "address",
                  "name": "publisher",
                  "type": "address"
                },
                {
                  "internalType": "bytes",
                  "name": "data",
                  "type": "bytes"
                },
                {
                  "internalType": "uint256",
                  "name": "maxNonce",
                  "type": "uint256"
                },
                {
                  "internalType": "uint256",
                  "name": "startTime",
                  "type": "uint256"
                },
                {
                  "internalType": "uint256",
                  "name": "endTime",
                  "type": "uint256"
                }
              ],
              "internalType": "struct Blueprint",
              "name": "blueprint",
              "type": "tuple"
            },
            {
              "internalType": "bytes32",
              "name": "blueprintHash",
              "type": "bytes32"
            },
            {
              "internalType": "bytes",
              "name": "signature",
              "type": "bytes"
            }
          ],
          "internalType": "struct SignedBlueprint",
          "name": "agreementBlueprint",
          "type": "tuple"
        }
      ],
      "name": "triggerLiquidation",
      "outputs": [],
      "stateMutability": "nonpayable",
      "type": "function"
    },
    {
      "inputs": [
        {
          "internalType": "bytes",
          "name": "data",
          "type": "bytes"
        }
      ],
      "name": "unpackDataField",
      "outputs": [
        {
          "internalType": "bytes1",
          "name": "",
          "type": "bytes1"
        },
        {
          "internalType": "bytes",
          "name": "",
          "type": "bytes"
        }
      ],
      "stateMutability": "pure",
      "type": "function"
    },
    {
      "inputs": [
        {
          "components": [
            {
              "components": [
                {
                  "internalType": "address",
                  "name": "publisher",
                  "type": "address"
                },
                {
                  "internalType": "bytes",
                  "name": "data",
                  "type": "bytes"
                },
                {
                  "internalType": "uint256",
                  "name": "maxNonce",
                  "type": "uint256"
                },
                {
                  "internalType": "uint256",
                  "name": "startTime",
                  "type": "uint256"
                },
                {
                  "internalType": "uint256",
                  "name": "endTime",
                  "type": "uint256"
                }
              ],
              "internalType": "struct Blueprint",
              "name": "blueprint",
              "type": "tuple"
            },
            {
              "internalType": "bytes32",
              "name": "blueprintHash",
              "type": "bytes32"
            },
            {
              "internalType": "bytes",
              "name": "signature",
              "type": "bytes"
            }
          ],
          "internalType": "struct SignedBlueprint",
          "name": "agreementBlueprint",
          "type": "tuple"
        }
      ],
      "name": "unwindPosition",
      "outputs": [],
      "stateMutability": "nonpayable",
      "type": "function"
    }
  ],
  "bytecode": "0x6101406040523480156200001257600080fd5b506040518060400160405280600681526020017f706861726f7300000000000000000000000000000000000000000000000000008152506040518060400160405280600581526020017f302e322e300000000000000000000000000000000000000000000000000000008152508181818160008280519060200120905060008280519060200120905060007f8b73c3c69bb8fe3d512ecc4cf759cc79239f7b179b0ffacaa9a75d522b39400f90508260e081815250508161010081815250504660a08181525050620000ec8184846200014760201b60201c565b608081815250503073ffffffffffffffffffffffffffffffffffffffff1660c08173ffffffffffffffffffffffffffffffffffffffff168152505080610120818152505050505050505050505060016002819055506200025b565b6000838383463060405160200162000164959493929190620001fe565b6040516020818303038152906040528051906020012090509392505050565b6000819050919050565b620001988162000183565b82525050565b6000819050919050565b620001b3816200019e565b82525050565b600073ffffffffffffffffffffffffffffffffffffffff82169050919050565b6000620001e682620001b9565b9050919050565b620001f881620001d9565b82525050565b600060a0820190506200021560008301886200018d565b6200022460208301876200018d565b6200023360408301866200018d565b620002426060830185620001a8565b620002516080830184620001ed565b9695505050505050565b60805160a05160c05160e051610100516101205161626c620002ab60003960006130d301526000613115015260006130f4015260006130290152600061307f015260006130a8015261626c6000f3fe608060405234801561001057600080fd5b50600436106101165760003560e01c806372735806116100a2578063beaede8811610071578063beaede881461031b578063c8dbcd5514610339578063cd514e1814610355578063e7dca7d214610371578063f698da251461038d57610116565b806372735806146102955780639d983027146102b1578063a513069d146102e1578063aa3aa460146102fd57610116565b80632860ff75116100e95780632860ff75146101c95780633408e470146101e75780636853de03146102055780636a445ba9146102355780636ccea6521461026557610116565b80630dec6bed1461011b5780631626ba7e1461013757806319affdf6146101675780631ed6455214610199575b600080fd5b610135600480360381019061013091906134bd565b6103ab565b005b610151600480360381019061014c9190613682565b610715565b60405161015e9190613719565b60405180910390f35b610181600480360381019061017c9190613794565b61075c565b6040516101909392919061385a565b60405180910390f35b6101b360048036038101906101ae91906139d2565b61079f565b6040516101c09190613a2a565b60405180910390f35b6101d161081c565b6040516101de9190613ac4565b60405180910390f35b6101ef610855565b6040516101fc9190613af5565b60405180910390f35b61021f600480360381019061021a9190613b10565b61085d565b60405161022c9190613b58565b60405180910390f35b61024f600480360381019061024a9190613b9f565b61087d565b60405161025c9190613c3f565b60405180910390f35b61027f600480360381019061027a9190613c61565b6108a9565b60405161028c9190613b58565b60405180910390f35b6102af60048036038101906102aa9190613d6c565b6108bf565b005b6102cb60048036038101906102c69190613b10565b6109a7565b6040516102d89190613b58565b60405180910390f35b6102fb60048036038101906102f691906134bd565b6109c7565b005b61030561117c565b6040516103129190613ac4565b60405180910390f35b6103236111b5565b6040516103309190613a2a565b60405180910390f35b610353600480360381019061034e9190613dd5565b6111d9565b005b61036f600480360381019061036a91906134bd565b611a79565b005b61038b600480360381019061038691906134bd565b612236565b005b6103956123f8565b6040516103a29190613a2a565b60405180910390f35b6103b3612407565b806103bd90613e4d565b80602001516103cf826000015161079f565b1461040f576040517f08c379a000000000000000000000000000000000000000000000000000000000815260040161040690613eac565b60405180910390fd5b61042a81600001516000015182602001518360400151612454565b610469576040517f08c379a000000000000000000000000000000000000000000000000000000000815260040161046090613f18565b60405180910390fd5b60008061049384806000019061047f9190613f47565b806020019061048e9190613f6f565b61075c565b8080601f016020809104026020016040519081016040528093929190818152602001838380828437600081840152601f19601f82011690508083019250505050505050915091506002808111156104ed576104ec613fd2565b5b60f81b7effffffffffffffffffffffffffffffffffffffffffffffffffffffffffffff1916827effffffffffffffffffffffffffffffffffffffffffffffffffffffffffffff191614610575576040517f08c379a000000000000000000000000000000000000000000000000000000000815260040161056c90614073565b60405180910390fd5b60008180602001905181019061058b919061443b565b905060008161010001516000015173ffffffffffffffffffffffffffffffffffffffff1663b102bfbe836101000151602001516040518263ffffffff1660e01b81526004016105da9190613c3f565b602060405180830381865afa1580156105f7573d6000803e3d6000fd5b505050506040513d601f19601f8201168201806040525081019061061b9190614484565b73ffffffffffffffffffffffffffffffffffffffff163373ffffffffffffffffffffffffffffffffffffffff161490508061068b576040517f08c379a000000000000000000000000000000000000000000000000000000000815260040161068290614523565b60405180910390fd5b6000826101c001516000015190508073ffffffffffffffffffffffffffffffffffffffff166382be32c7846040518263ffffffff1660e01b81526004016106d29190614787565b600060405180830381600087803b1580156106ec57600080fd5b505af1158015610700573d6000803e3d6000fd5b5050505050505050505061071261261a565b50565b600080600084815260200190815260200160002060009054906101000a900460ff161561074b57631626ba7e60e01b9050610756565b63ffffffff60e01b90505b92915050565b600036600084846000818110610775576107746147a9565b5b9050013560f81c60f81b85856001908092610792939291906147e2565b9250925092509250925092565b60006108157fabb38f99128910356202f56a25bd1c0cbc076ddee0387a6ff4671f05fabedcd183600001518460200151805190602001208560400151866060015187608001516040516020016107fa9695949392919061482c565b60405160208183030381529060405280519060200120612624565b9050919050565b6040518060400160405280600681526020017f706861726f73000000000000000000000000000000000000000000000000000081525081565b600046905090565b60036020528060005260406000206000915054906101000a900460ff1681565b606082826040516020016108929291906148ea565b604051602081830303815290604052905092915050565b60006108b6848484612454565b90509392505050565b8080602001516108d2826000015161079f565b14610912576040517f08c379a000000000000000000000000000000000000000000000000000000000815260040161090990613eac565b60405180910390fd5b61092d81600001516000015182602001518360400151612454565b61096c576040517f08c379a000000000000000000000000000000000000000000000000000000000815260040161096390613f18565b60405180910390fd5b7fe88b49ce78855e321e33f58c41af6039301a3ff5454da2b09ddb1be1d9a525d48260405161099b91906149ee565b60405180910390a15050565b60046020528060005260406000206000915054906101000a900460ff1681565b6109cf612407565b806109d990613e4d565b80602001516109eb826000015161079f565b14610a2b576040517f08c379a0000000000000000000000000000000000000000000000000000000008152600401610a2290613eac565b60405180910390fd5b610a4681600001516000015182602001518360400151612454565b610a85576040517f08c379a0000000000000000000000000000000000000000000000000000000008152600401610a7c90613f18565b60405180910390fd5b6000610aae838060000190610a9a9190613f47565b8060200190610aa99190613f6f565b61075c565b8080601f016020809104026020016040519081016040528093929190818152602001838380828437600081840152601f19601f82011690508083019250505050505050915050600081806020019051810190610b0a919061443b565b9050600081604051602001610b1f9190614787565b6040516020818303038152906040528051906020012090506000826101c001516000015190506003600083815260200190815260200160002060009054906101000a900460ff1615610ba6576040517f08c379a0000000000000000000000000000000000000000000000000000000008152600401610b9d90614a5c565b60405180910390fd5b610baf8361263e565b610bee576040517f08c379a0000000000000000000000000000000000000000000000000000000008152600401610be590614aee565b60405180910390fd5b60008361012001516000015173ffffffffffffffffffffffffffffffffffffffff1663a6d79fe8856040518263ffffffff1660e01b8152600401610c329190614787565b602060405180830381865afa158015610c4f573d6000803e3d6000fd5b505050506040513d601f19601f82011682018060405250810190610c739190614b0e565b905060008461016001516000015173ffffffffffffffffffffffffffffffffffffffff1663f667ef9a866101600151602001516040518263ffffffff1660e01b8152600401610cc29190613c3f565b602060405180830381865afa158015610cdf573d6000803e3d6000fd5b505050506040513d601f19601f82011682018060405250810190610d039190614b0e565b905060008561018001516000015173ffffffffffffffffffffffffffffffffffffffff1663f667ef9a876101800151602001516040518263ffffffff1660e01b8152600401610d529190613c3f565b602060405180830381865afa158015610d6f573d6000803e3d6000fd5b505050506040513d601f19601f82011682018060405250810190610d939190614b0e565b9050600082670de0b6b3a764000085610dac9190614b6a565b610db69190614bdb565b8760000151610dc59190614c0c565b905060008573ffffffffffffffffffffffffffffffffffffffff16634db379d2896040518263ffffffff1660e01b8152600401610e029190614787565b602060405180830381865afa158015610e1f573d6000803e3d6000fd5b505050506040513d601f19601f82011682018060405250810190610e439190614b0e565b905060008861014001516000015173ffffffffffffffffffffffffffffffffffffffff1663734ca36d8a6040518263ffffffff1660e01b8152600401610e899190614787565b602060405180830381865afa158015610ea6573d6000803e3d6000fd5b505050506040513d601f19601f82011682018060405250810190610eca9190614b0e565b9050600084670de0b6b3a7640000838686610ee59190614c40565b610eef9190614c40565b610ef99190614b6a565b610f039190614bdb565b90508960e001516000015173ffffffffffffffffffffffffffffffffffffffff1663f5b093df338c60400151878e60e00151602001516040518563ffffffff1660e01b8152600401610f589493929190614c74565b600060405180830381600087803b158015610f7257600080fd5b505af1158015610f86573d6000803e3d6000fd5b505050508961010001516000015173ffffffffffffffffffffffffffffffffffffffff1663f5b093df338c60600151848e6101000151602001516040518563ffffffff1660e01b8152600401610fdf9493929190614c74565b600060405180830381600087803b158015610ff957600080fd5b505af115801561100d573d6000803e3d6000fd5b505050507f904c358bc985322bfcccbbb99273cfee6c2cd56dc2d328bbd37b458efa2d9ff18d8b6101c00151600001513360405161104d93929190614ee4565b60405180910390a16001600360008c6101c00151600001516040516020016110759190614f6a565b60405160208183030381529060405280519060200120815260200190815260200160002060006101000a81548160ff0219169083151502179055507f40246ab0a03d0d296b9e8cee5ae45cd5f94640ea0834ea9a8f0cd50e445e77e58d8b6101c001516000015133868a8c6040516110f296959493929190614f85565b60405180910390a18773ffffffffffffffffffffffffffffffffffffffff166347635dac336040518263ffffffff1660e01b81526004016111339190614fed565b600060405180830381600087803b15801561114d57600080fd5b505af1158015611161573d6000803e3d6000fd5b5050505050505050505050505050505061117961261a565b50565b6040518060400160405280600581526020017f302e322e3000000000000000000000000000000000000000000000000000000081525081565b7fabb38f99128910356202f56a25bd1c0cbc076ddee0387a6ff4671f05fabedcd181565b6111e1612407565b806111eb90613e4d565b80602001516111fd826000015161079f565b1461123d576040517f08c379a000000000000000000000000000000000000000000000000000000000815260040161123490613eac565b60405180910390fd5b61125881600001516000015182602001518360400151612454565b611297576040517f08c379a000000000000000000000000000000000000000000000000000000000815260040161128e90613f18565b60405180910390fd5b6000806112c18480600001906112ad9190613f47565b80602001906112bc9190613f6f565b61075c565b8080601f016020809104026020016040519081016040528093929190818152602001838380828437600081840152601f19601f82011690508083019250505050505050915091506001600281111561131c5761131b613fd2565b5b60ff168260f81c60ff1614611366576040517f08c379a000000000000000000000000000000000000000000000000000000000815260040161135d90615054565b60405180910390fd5b8480600001906113769190615074565b6000016020810190611388919061509c565b73ffffffffffffffffffffffffffffffffffffffff1663b102bfbe8680600001906113b39190615074565b80602001906113c29190613f6f565b6040518363ffffffff1660e01b81526004016113df9291906150c9565b602060405180830381865afa1580156113fc573d6000803e3d6000fd5b505050506040513d601f19601f820116820180604052508101906114209190614484565b73ffffffffffffffffffffffffffffffffffffffff163373ffffffffffffffffffffffffffffffffffffffff161461148d576040517f08c379a000000000000000000000000000000000000000000000000000000000815260040161148490615139565b60405180910390fd5b6000818060200190518101906114a391906157c1565b90508060e001516000015173ffffffffffffffffffffffffffffffffffffffff1663b102bfbe8260e00151602001516040518263ffffffff1660e01b81526004016114ee9190613c3f565b602060405180830381865afa15801561150b573d6000803e3d6000fd5b505050506040513d601f19601f8201168201806040525081019061152f9190614484565b73ffffffffffffffffffffffffffffffffffffffff168580600001906115559190613f47565b6000016020810190611567919061509c565b73ffffffffffffffffffffffffffffffffffffffff16146115bd576040517f08c379a00000000000000000000000000000000000000000000000000000000081526004016115b490615856565b60405180910390fd5b6000816080015151111561165c573373ffffffffffffffffffffffffffffffffffffffff1681608001518760400135815181106115fd576115fc6147a9565b5b602002602001015173ffffffffffffffffffffffffffffffffffffffff161461165b576040517f08c379a0000000000000000000000000000000000000000000000000000000008152600401611652906158c2565b60405180910390fd5b5b6116668682612888565b60006116728783612a3f565b90506000670de0b6b3a76400008261016001516000015173ffffffffffffffffffffffffffffffffffffffff16639569eb8f846101600151602001516040518263ffffffff1660e01b81526004016116ca9190613c3f565b602060405180830381865afa1580156116e7573d6000803e3d6000fd5b505050506040513d601f19601f8201168201806040525081019061170b9190614b0e565b836000015161171a9190614b6a565b6117249190614bdb565b905060008260c0015115611805576000846101a0015161174d57846101c0015160000151611762565b898060e0019061175d91906158e2565b600001355b9050846101a00151156117a3578460e001518460e0018190525089806000019061178c9190615074565b61179590615976565b8461010001819052506117d3565b8980600001906117b39190615074565b6117bc90615976565b8460e001819052508460e001518461010001819052505b670de0b6b3a764000080826117e89190614c40565b846117f39190614b6a565b6117fd9190614bdb565b9150506118c9565b6000846101a0015161182057846101c0015160000151611835565b898060e0019061183091906158e2565b600001355b9050846101a0015115611876578460e001518460e0018190525089806000019061185f9190615074565b61186890615976565b8461010001819052506118a6565b8980600001906118869190615074565b61188f90615976565b8460e001819052508460e001518461010001819052505b670de0b6b3a764000081846118bb9190614b6a565b6118c59190614bdb565b9150505b836101a001516118e257836101c0015160200151611945565b888060e001906118f291906158e2565b80602001906119019190613f6f565b8080601f016020809104026020016040519081016040528093929190818152602001838380828437600081840152601f19601f820116905080830192505050505050505b836101c00151602001819052508261018001516000015173ffffffffffffffffffffffffffffffffffffffff16639569eb8f846101800151602001516040518263ffffffff1660e01b815260040161199d9190613c3f565b602060405180830381865afa1580156119ba573d6000803e3d6000fd5b505050506040513d601f19601f820116820180604052508101906119de9190614b0e565b670de0b6b3a7640000826119f29190614b6a565b6119fc9190614bdb565b83602001818152505042836101e0018181525050611a1983612bd3565b6000611a2484612f41565b90507f21a6001862375a91bbf0eff278ae1eaee77323f67273ed674a16f9607888696f818a6020013533604051611a5d93929190615989565b60405180910390a15050505050505050611a7561261a565b5050565b611a81612407565b80611a8b90613e4d565b8060200151611a9d826000015161079f565b14611add576040517f08c379a0000000000000000000000000000000000000000000000000000000008152600401611ad490613eac565b60405180910390fd5b611af881600001516000015182602001518360400151612454565b611b37576040517f08c379a0000000000000000000000000000000000000000000000000000000008152600401611b2e90613f18565b60405180910390fd5b600080611b61848060000190611b4d9190613f47565b8060200190611b5c9190613f6f565b61075c565b8080601f016020809104026020016040519081016040528093929190818152602001838380828437600081840152601f19601f8201169050808301925050505050505091509150600280811115611bbb57611bba613fd2565b5b60f81b7effffffffffffffffffffffffffffffffffffffffffffffffffffffffffffff1916827effffffffffffffffffffffffffffffffffffffffffffffffffffffffffffff191614611c43576040517f08c379a0000000000000000000000000000000000000000000000000000000008152600401611c3a90615a13565b60405180910390fd5b600081806020019051810190611c59919061443b565b905060008161010001516000015173ffffffffffffffffffffffffffffffffffffffff1663b102bfbe836101000151602001516040518263ffffffff1660e01b8152600401611ca89190613c3f565b602060405180830381865afa158015611cc5573d6000803e3d6000fd5b505050506040513d601f19601f82011682018060405250810190611ce99190614484565b73ffffffffffffffffffffffffffffffffffffffff163373ffffffffffffffffffffffffffffffffffffffff1614905080611d59576040517f08c379a0000000000000000000000000000000000000000000000000000000008152600401611d5090615aa5565b60405180910390fd5b6000826101c0015160000151905060008360e0015160000151905060008273ffffffffffffffffffffffffffffffffffffffff16634db379d2866040518263ffffffff1660e01b8152600401611daf9190614787565b602060405180830381865afa158015611dcc573d6000803e3d6000fd5b505050506040513d601f19601f82011682018060405250810190611df09190614b0e565b905060008561012001516000015173ffffffffffffffffffffffffffffffffffffffff1663a6d79fe8876040518263ffffffff1660e01b8152600401611e369190614787565b602060405180830381865afa158015611e53573d6000803e3d6000fd5b505050506040513d601f19601f82011682018060405250810190611e779190614b0e565b905060008661016001516000015173ffffffffffffffffffffffffffffffffffffffff1663f667ef9a886101600151602001516040518263ffffffff1660e01b8152600401611ec69190613c3f565b602060405180830381865afa158015611ee3573d6000803e3d6000fd5b505050506040513d601f19601f82011682018060405250810190611f079190614b0e565b905060008473ffffffffffffffffffffffffffffffffffffffff1663890811ae89604001518a60e00151602001516040518363ffffffff1660e01b8152600401611f52929190615ac5565b602060405180830381865afa158015611f6f573d6000803e3d6000fd5b505050506040513d601f19601f82011682018060405250810190611f939190614b0e565b9050600082670de0b6b3a764000085611fac9190614b6a565b611fb69190614bdb565b8960000151611fc59190614c0c565b90508673ffffffffffffffffffffffffffffffffffffffff166338f92f6e8a836040518363ffffffff1660e01b8152600401612002929190615afc565b600060405180830381600087803b15801561201c57600080fd5b505af1158015612030573d6000803e3d6000fd5b5050505060008673ffffffffffffffffffffffffffffffffffffffff1663890811ae8b604001518c60e00151602001516040518363ffffffff1660e01b815260040161207d929190615ac5565b602060405180830381865afa15801561209a573d6000803e3d6000fd5b505050506040513d601f19601f820116820180604052508101906120be9190614b0e565b90508183826120cd9190614c40565b101561210e576040517f08c379a000000000000000000000000000000000000000000000000000000000815260040161210590615b78565b60405180910390fd5b6001600360008c6101c001516000015160405160200161212e9190614f6a565b60405160208183030381529060405280519060200120815260200190815260200160002060006101000a81548160ff0219169083151502179055507f40246ab0a03d0d296b9e8cee5ae45cd5f94640ea0834ea9a8f0cd50e445e77e58e8b6101c00151600001513389888a6040516121ab96959493929190614f85565b60405180910390a18773ffffffffffffffffffffffffffffffffffffffff166347635dac336040518263ffffffff1660e01b81526004016121ec9190614fed565b600060405180830381600087803b15801561220657600080fd5b505af115801561221a573d6000803e3d6000fd5b505050505050505050505050505050505061223361261a565b50565b8061224090613e4d565b8060200151612252826000015161079f565b14612292576040517f08c379a000000000000000000000000000000000000000000000000000000000815260040161228990613eac565b60405180910390fd5b6122ad81600001516000015182602001518360400151612454565b6122ec576040517f08c379a00000000000000000000000000000000000000000000000000000000081526004016122e390613f18565b60405180910390fd5b818080600001906122fd9190613f47565b600001602081019061230f919061509c565b73ffffffffffffffffffffffffffffffffffffffff163373ffffffffffffffffffffffffffffffffffffffff161461237c576040517f08c379a000000000000000000000000000000000000000000000000000000000815260040161237390615be4565b60405180910390fd5b7fffffffffffffffffffffffffffffffffffffffffffffffffffffffffffffffff6001600085602001358152602001908152602001600020819055507fc954dbcaf38dbaf01d8ac7f2d37afc45123081ade8ccf1efd7f23db2cfb62cb583602001356040516123eb9190613a2a565b60405180910390a1505050565b6000612402613025565b905090565b600280540361244b576040517f08c379a000000000000000000000000000000000000000000000000000000000815260040161244290615c50565b60405180910390fd5b60028081905550565b6000806000612463858561313f565b915091506000600481111561247b5761247a613fd2565b5b81600481111561248e5761248d613fd2565b5b1480156124c657508573ffffffffffffffffffffffffffffffffffffffff168273ffffffffffffffffffffffffffffffffffffffff16145b156124d657600192505050612613565b6000808773ffffffffffffffffffffffffffffffffffffffff16631626ba7e60e01b888860405160240161250b929190615c70565b604051602081830303815290604052907bffffffffffffffffffffffffffffffffffffffffffffffffffffffff19166020820180517bffffffffffffffffffffffffffffffffffffffffffffffffffffffff83818316178352505050506040516125759190615ca0565b600060405180830381855afa9150503d80600081146125b0576040519150601f19603f3d011682016040523d82523d6000602084013e6125b5565b606091505b50915091508180156125c8575060208151145b801561260c5750631626ba7e60e01b7bffffffffffffffffffffffffffffffffffffffffffffffffffffffff19168180602001905181019061260a9190615ccc565b145b9450505050505b9392505050565b6001600281905550565b6000612637612631613025565b83613190565b9050919050565b600080826101c001516000015190508260a00151836101e001516126629190614c0c565b421115612673576001915050612883565b60008173ffffffffffffffffffffffffffffffffffffffff16634db379d2856040518263ffffffff1660e01b81526004016126ae9190614787565b602060405180830381865afa1580156126cb573d6000803e3d6000fd5b505050506040513d601f19601f820116820180604052508101906126ef9190614b0e565b905060008461012001516000015173ffffffffffffffffffffffffffffffffffffffff1663a6d79fe8866040518263ffffffff1660e01b81526004016127359190614787565b602060405180830381865afa158015612752573d6000803e3d6000fd5b505050506040513d601f19601f820116820180604052508101906127769190614b0e565b905060008561016001516000015173ffffffffffffffffffffffffffffffffffffffff1663f667ef9a876101600151602001516040518263ffffffff1660e01b81526004016127c59190613c3f565b602060405180830381865afa1580156127e2573d6000803e3d6000fd5b505050506040513d601f19601f820116820180604052508101906128069190614b0e565b9050600082670de0b6b3a76400008389600001516128249190614b6a565b61282e9190614bdb565b6128389190614c0c565b9050600081670de0b6b3a7640000866128519190614b6a565b61285b9190614bdb565b905087608001518110156128785760019650505050505050612883565b600096505050505050505b919050565b61289061330d565b816101a001516128fa578260c00160208101906128ad9190615d0e565b156128ed576040517f08c379a00000000000000000000000000000000000000000000000000000000081526004016128e490615d87565b60405180910390fd5b816101c001519050612968565b8260c001602081019061290d9190615d0e565b61294c576040517f08c379a000000000000000000000000000000000000000000000000000000000815260040161294390615df3565b60405180910390fd5b828060e0019061295c91906158e2565b61296590615e7f565b90505b8160000151836060013581518110612983576129826147a9565b5b6020026020010151836020013510156129d1576040517f08c379a00000000000000000000000000000000000000000000000000000000081526004016129c890615ede565b60405180910390fd5b81606001518360800135815181106129ec576129eb6147a9565b5b602002602001015181600001511015612a3a576040517f08c379a0000000000000000000000000000000000000000000000000000000008152600401612a3190615f4a565b60405180910390fd5b505050565b612a47613327565b8160c001518160a00181815250508161010001518161012001819052508161012001518161014001819052508160a001518160c00190151590811515815250508160200151836060013581518110612aa257612aa16147a9565b5b60200260200101518160400181905250816101400151836060013581518110612ace57612acd6147a9565b5b60200260200101518161016001819052508160400151836080013581518110612afa57612af96147a9565b5b60200260200101518160600181905250816101600151836080013581518110612b2657612b256147a9565b5b60200260200101518161018001819052508160600151836080013581518110612b5257612b516147a9565b5b60200260200101518160800181815250508161018001518360a0013581518110612b7f57612b7e6147a9565b5b6020026020010151816101a0019073ffffffffffffffffffffffffffffffffffffffff16908173ffffffffffffffffffffffffffffffffffffffff1681525050826020013581600001818152505092915050565b600080826101a0015173ffffffffffffffffffffffffffffffffffffffff166040516024016040516020818303038152906040527f64f2d4b9000000000000000000000000000000000000000000000000000000007bffffffffffffffffffffffffffffffffffffffffffffffffffffffff19166020820180517bffffffffffffffffffffffffffffffffffffffffffffffffffffffff8381831617835250505050604051612c829190615ca0565b6000604051808303816000865af19150503d8060008114612cbf576040519150601f19603f3d011682016040523d82523d6000602084013e612cc4565b606091505b509150915081612d09576040517f08c379a0000000000000000000000000000000000000000000000000000000008152600401612d0090615fdc565b60405180910390fd5b80806020019051810190612d1d919061603a565b836101c001516000019073ffffffffffffffffffffffffffffffffffffffff16908173ffffffffffffffffffffffffffffffffffffffff16815250508260e001516000015173ffffffffffffffffffffffffffffffffffffffff16634e7f0304846101c0015160000151856040015186600001518760e00151602001516040518563ffffffff1660e01b8152600401612db99493929190614c74565b600060405180830381600087803b158015612dd357600080fd5b505af1158015612de7573d6000803e3d6000fd5b505050508261010001516000015173ffffffffffffffffffffffffffffffffffffffff16634e7f0304846101c001516000015185606001518660200151876101000151602001516040518563ffffffff1660e01b8152600401612e4d9493929190614c74565b600060405180830381600087803b158015612e6757600080fd5b505af1158015612e7b573d6000803e3d6000fd5b50505050826101c001516000015173ffffffffffffffffffffffffffffffffffffffff1663a1d9bb24846040518263ffffffff1660e01b8152600401612ec19190614787565b600060405180830381600087803b158015612edb57600080fd5b505af1158015612eef573d6000803e3d6000fd5b50505050612efc8361263e565b15612f3c576040517f08c379a0000000000000000000000000000000000000000000000000000000008152600401612f33906160b3565b60405180910390fd5b505050565b612f496133e6565b3081600001516000019073ffffffffffffffffffffffffffffffffffffffff16908173ffffffffffffffffffffffffffffffffffffffff1681525050612fc3600280811115612f9b57612f9a613fd2565b5b60f81b83604051602001612faf9190614787565b60405160208183030381529060405261087d565b8160000151602001819052507fffffffffffffffffffffffffffffffffffffffffffffffffffffffffffffffff8160000151608001818152505061300a816000015161079f565b81602001818152505061302081602001516131c3565b919050565b60007f000000000000000000000000000000000000000000000000000000000000000073ffffffffffffffffffffffffffffffffffffffff163073ffffffffffffffffffffffffffffffffffffffff161480156130a157507f000000000000000000000000000000000000000000000000000000000000000046145b156130ce577f0000000000000000000000000000000000000000000000000000000000000000905061313c565b6131397f00000000000000000000000000000000000000000000000000000000000000007f00000000000000000000000000000000000000000000000000000000000000007f00000000000000000000000000000000000000000000000000000000000000006131f1565b90505b90565b60008060418351036131805760008060006020860151925060408601519150606086015160001a90506131748782858561322b565b94509450505050613189565b60006002915091505b9250929050565b600082826040516020016131a592919061614b565b60405160208183030381529060405280519060200120905092915050565b600160008083815260200190815260200160002060006101000a81548160ff02191690831515021790555050565b6000838383463060405160200161320c959493929190616182565b6040516020818303038152906040528051906020012090509392505050565b6000807f7fffffffffffffffffffffffffffffff5d576e7357a4501ddfe92f46681b20a08360001c1115613266576000600391509150613304565b60006001878787876040516000815260200160405260405161328b94939291906161f1565b6020604051602081039080840390855afa1580156132ad573d6000803e3d6000fd5b505050602060405103519050600073ffffffffffffffffffffffffffffffffffffffff168173ffffffffffffffffffffffffffffffffffffffff16036132fb57600060019250925050613304565b80600092509250505b94509492505050565b604051806040016040528060008152602001606081525090565b60405180610200016040528060008152602001600081526020016060815260200160608152602001600081526020016000815260200160001515815260200161336e613410565b815260200161337b613410565b8152602001613388613410565b8152602001613395613410565b81526020016133a2613410565b81526020016133af613410565b8152602001600073ffffffffffffffffffffffffffffffffffffffff1681526020016133d9613410565b8152602001600081525090565b60405180606001604052806133f9613440565b815260200160008019168152602001606081525090565b6040518060400160405280600073ffffffffffffffffffffffffffffffffffffffff168152602001606081525090565b6040518060a00160405280600073ffffffffffffffffffffffffffffffffffffffff168152602001606081526020016000815260200160008152602001600081525090565b6000604051905090565b600080fd5b600080fd5b600080fd5b6000606082840312156134b4576134b3613499565b5b81905092915050565b6000602082840312156134d3576134d261348f565b5b600082013567ffffffffffffffff8111156134f1576134f0613494565b5b6134fd8482850161349e565b91505092915050565b6000819050919050565b61351981613506565b811461352457600080fd5b50565b60008135905061353681613510565b92915050565b600080fd5b600080fd5b6000601f19601f8301169050919050565b7f4e487b7100000000000000000000000000000000000000000000000000000000600052604160045260246000fd5b61358f82613546565b810181811067ffffffffffffffff821117156135ae576135ad613557565b5b80604052505050565b60006135c1613485565b90506135cd8282613586565b919050565b600067ffffffffffffffff8211156135ed576135ec613557565b5b6135f682613546565b9050602081019050919050565b82818337600083830152505050565b6000613625613620846135d2565b6135b7565b90508281526020810184848401111561364157613640613541565b5b61364c848285613603565b509392505050565b600082601f8301126136695761366861353c565b5b8135613679848260208601613612565b91505092915050565b600080604083850312156136995761369861348f565b5b60006136a785828601613527565b925050602083013567ffffffffffffffff8111156136c8576136c7613494565b5b6136d485828601613654565b9150509250929050565b60007fffffffff0000000000000000000000000000000000000000000000000000000082169050919050565b613713816136de565b82525050565b600060208201905061372e600083018461370a565b92915050565b600080fd5b600080fd5b60008083601f8401126137545761375361353c565b5b8235905067ffffffffffffffff81111561377157613770613734565b5b60208301915083600182028301111561378d5761378c613739565b5b9250929050565b600080602083850312156137ab576137aa61348f565b5b600083013567ffffffffffffffff8111156137c9576137c8613494565b5b6137d58582860161373e565b92509250509250929050565b60007fff0000000000000000000000000000000000000000000000000000000000000082169050919050565b613816816137e1565b82525050565b600082825260208201905092915050565b6000613839838561381c565b9350613846838584613603565b61384f83613546565b840190509392505050565b600060408201905061386f600083018661380d565b818103602083015261388281848661382d565b9050949350505050565b600080fd5b600080fd5b600073ffffffffffffffffffffffffffffffffffffffff82169050919050565b60006138c182613896565b9050919050565b6138d1816138b6565b81146138dc57600080fd5b50565b6000813590506138ee816138c8565b92915050565b6000819050919050565b613907816138f4565b811461391257600080fd5b50565b600081359050613924816138fe565b92915050565b600060a082840312156139405761393f61388c565b5b61394a60a06135b7565b9050600061395a848285016138df565b600083015250602082013567ffffffffffffffff81111561397e5761397d613891565b5b61398a84828501613654565b602083015250604061399e84828501613915565b60408301525060606139b284828501613915565b60608301525060806139c684828501613915565b60808301525092915050565b6000602082840312156139e8576139e761348f565b5b600082013567ffffffffffffffff811115613a0657613a05613494565b5b613a128482850161392a565b91505092915050565b613a2481613506565b82525050565b6000602082019050613a3f6000830184613a1b565b92915050565b600081519050919050565b600082825260208201905092915050565b60005b83811015613a7f578082015181840152602081019050613a64565b60008484015250505050565b6000613a9682613a45565b613aa08185613a50565b9350613ab0818560208601613a61565b613ab981613546565b840191505092915050565b60006020820190508181036000830152613ade8184613a8b565b905092915050565b613aef816138f4565b82525050565b6000602082019050613b0a6000830184613ae6565b92915050565b600060208284031215613b2657613b2561348f565b5b6000613b3484828501613527565b91505092915050565b60008115159050919050565b613b5281613b3d565b82525050565b6000602082019050613b6d6000830184613b49565b92915050565b613b7c816137e1565b8114613b8757600080fd5b50565b600081359050613b9981613b73565b92915050565b60008060408385031215613bb657613bb561348f565b5b6000613bc485828601613b8a565b925050602083013567ffffffffffffffff811115613be557613be4613494565b5b613bf185828601613654565b9150509250929050565b600081519050919050565b6000613c1182613bfb565b613c1b818561381c565b9350613c2b818560208601613a61565b613c3481613546565b840191505092915050565b60006020820190508181036000830152613c598184613c06565b905092915050565b600080600060608486031215613c7a57613c7961348f565b5b6000613c88868287016138df565b9350506020613c9986828701613527565b925050604084013567ffffffffffffffff811115613cba57613cb9613494565b5b613cc686828701613654565b9150509250925092565b600060608284031215613ce657613ce561388c565b5b613cf060606135b7565b9050600082013567ffffffffffffffff811115613d1057613d0f613891565b5b613d1c8482850161392a565b6000830152506020613d3084828501613527565b602083015250604082013567ffffffffffffffff811115613d5457613d53613891565b5b613d6084828501613654565b60408301525092915050565b600060208284031215613d8257613d8161348f565b5b600082013567ffffffffffffffff811115613da057613d9f613494565b5b613dac84828501613cd0565b91505092915050565b60006101008284031215613dcc57613dcb613499565b5b81905092915050565b60008060408385031215613dec57613deb61348f565b5b600083013567ffffffffffffffff811115613e0a57613e09613494565b5b613e1685828601613db5565b925050602083013567ffffffffffffffff811115613e3757613e36613494565b5b613e438582860161349e565b9150509250929050565b6000613e593683613cd0565b9050919050565b7f54726163746f723a20696e76616c696420686173680000000000000000000000600082015250565b6000613e96601583613a50565b9150613ea182613e60565b602082019050919050565b60006020820190508181036000830152613ec581613e89565b9050919050565b7f54726163746f723a20696e76616c6964207369676e6174757265000000000000600082015250565b6000613f02601a83613a50565b9150613f0d82613ecc565b602082019050919050565b60006020820190508181036000830152613f3181613ef5565b9050919050565b600080fd5b600080fd5b600080fd5b60008235600160a003833603038112613f6357613f62613f38565b5b80830191505092915050565b60008083356001602003843603038112613f8c57613f8b613f38565b5b80840192508235915067ffffffffffffffff821115613fae57613fad613f3d565b5b602083019250600182023603831315613fca57613fc9613f42565b5b509250929050565b7f4e487b7100000000000000000000000000000000000000000000000000000000600052602160045260246000fd5b7f756e77696e64506f736974696f6e3a20696e76616c696420646174612074797060008201527f6500000000000000000000000000000000000000000000000000000000000000602082015250565b600061405d602183613a50565b915061406882614001565b604082019050919050565b6000602082019050818103600083015261408c81614050565b9050919050565b6000815190506140a2816138fe565b92915050565b60006140bb6140b6846135d2565b6135b7565b9050828152602081018484840111156140d7576140d6613541565b5b6140e2848285613a61565b509392505050565b600082601f8301126140ff576140fe61353c565b5b815161410f8482602086016140a8565b91505092915050565b61412181613b3d565b811461412c57600080fd5b50565b60008151905061413e81614118565b92915050565b600081519050614153816138c8565b92915050565b60006040828403121561416f5761416e61388c565b5b61417960406135b7565b9050600061418984828501614144565b600083015250602082015167ffffffffffffffff8111156141ad576141ac613891565b5b6141b9848285016140ea565b60208301525092915050565b600061020082840312156141dc576141db61388c565b5b6141e76102006135b7565b905060006141f784828501614093565b600083015250602061420b84828501614093565b602083015250604082015167ffffffffffffffff81111561422f5761422e613891565b5b61423b848285016140ea565b604083015250606082015167ffffffffffffffff81111561425f5761425e613891565b5b61426b848285016140ea565b606083015250608061427f84828501614093565b60808301525060a061429384828501614093565b60a08301525060c06142a78482850161412f565b60c08301525060e082015167ffffffffffffffff8111156142cb576142ca613891565b5b6142d784828501614159565b60e08301525061010082015167ffffffffffffffff8111156142fc576142fb613891565b5b61430884828501614159565b6101008301525061012082015167ffffffffffffffff81111561432e5761432d613891565b5b61433a84828501614159565b6101208301525061014082015167ffffffffffffffff8111156143605761435f613891565b5b61436c84828501614159565b6101408301525061016082015167ffffffffffffffff81111561439257614391613891565b5b61439e84828501614159565b6101608301525061018082015167ffffffffffffffff8111156143c4576143c3613891565b5b6143d084828501614159565b610180830152506101a06143e684828501614144565b6101a0830152506101c082015167ffffffffffffffff81111561440c5761440b613891565b5b61441884828501614159565b6101c0830152506101e061442e84828501614093565b6101e08301525092915050565b6000602082840312156144515761445061348f565b5b600082015167ffffffffffffffff81111561446f5761446e613494565b5b61447b848285016141c5565b91505092915050565b60006020828403121561449a5761449961348f565b5b60006144a884828501614144565b91505092915050565b7f6572726f723a2063616c6c6572206973206e6f742074686520626f72726f776560008201527f7200000000000000000000000000000000000000000000000000000000000000602082015250565b600061450d602183613a50565b9150614518826144b1565b604082019050919050565b6000602082019050818103600083015261453c81614500565b9050919050565b61454c816138f4565b82525050565b600082825260208201905092915050565b600061456e82613bfb565b6145788185614552565b9350614588818560208601613a61565b61459181613546565b840191505092915050565b6145a581613b3d565b82525050565b6145b4816138b6565b82525050565b60006040830160008301516145d260008601826145ab565b50602083015184820360208601526145ea8282614563565b9150508091505092915050565b6000610200830160008301516146106000860182614543565b5060208301516146236020860182614543565b506040830151848203604086015261463b8282614563565b915050606083015184820360608601526146558282614563565b915050608083015161466a6080860182614543565b5060a083015161467d60a0860182614543565b5060c083015161469060c086018261459c565b5060e083015184820360e08601526146a882826145ba565b9150506101008301518482036101008601526146c482826145ba565b9150506101208301518482036101208601526146e082826145ba565b9150506101408301518482036101408601526146fc82826145ba565b91505061016083015184820361016086015261471882826145ba565b91505061018083015184820361018086015261473482826145ba565b9150506101a083015161474b6101a08601826145ab565b506101c08301518482036101c086015261476582826145ba565b9150506101e083015161477c6101e0860182614543565b508091505092915050565b600060208201905081810360008301526147a181846145f7565b905092915050565b7f4e487b7100000000000000000000000000000000000000000000000000000000600052603260045260246000fd5b600080fd5b600080fd5b600080858511156147f6576147f56147d8565b5b83861115614807576148066147dd565b5b6001850283019150848603905094509492505050565b614826816138b6565b82525050565b600060c0820190506148416000830189613a1b565b61484e602083018861481d565b61485b6040830187613a1b565b6148686060830186613ae6565b6148756080830185613ae6565b61488260a0830184613ae6565b979650505050505050565b6000819050919050565b6148a86148a3826137e1565b61488d565b82525050565b600081905092915050565b60006148c482613bfb565b6148ce81856148ae565b93506148de818560208601613a61565b80840191505092915050565b60006148f68285614897565b60018201915061490682846148b9565b91508190509392505050565b600060a08301600083015161492a60008601826145ab565b50602083015184820360208601526149428282614563565b91505060408301516149576040860182614543565b50606083015161496a6060860182614543565b50608083015161497d6080860182614543565b508091505092915050565b61499181613506565b82525050565b600060608301600083015184820360008601526149b48282614912565b91505060208301516149c96020860182614988565b50604083015184820360408601526149e18282614563565b9150508091505092915050565b60006020820190508181036000830152614a088184614997565b905092915050565b7f4c6f616e20616c726561647920636c6f7365642e000000000000000000000000600082015250565b6000614a46601483613a50565b9150614a5182614a10565b602082019050919050565b60006020820190508181036000830152614a7581614a39565b9050919050565b7f4c6f616e206973206e6f7420656c696769626c6520666f72206c69717569646160008201527f74696f6e00000000000000000000000000000000000000000000000000000000602082015250565b6000614ad8602483613a50565b9150614ae382614a7c565b604082019050919050565b60006020820190508181036000830152614b0781614acb565b9050919050565b600060208284031215614b2457614b2361348f565b5b6000614b3284828501614093565b91505092915050565b7f4e487b7100000000000000000000000000000000000000000000000000000000600052601160045260246000fd5b6000614b75826138f4565b9150614b80836138f4565b9250828202614b8e816138f4565b91508282048414831517614ba557614ba4614b3b565b5b5092915050565b7f4e487b7100000000000000000000000000000000000000000000000000000000600052601260045260246000fd5b6000614be6826138f4565b9150614bf1836138f4565b925082614c0157614c00614bac565b5b828204905092915050565b6000614c17826138f4565b9150614c22836138f4565b9250828201905080821115614c3a57614c39614b3b565b5b92915050565b6000614c4b826138f4565b9150614c56836138f4565b9250828203905081811115614c6e57614c6d614b3b565b5b92915050565b6000608082019050614c89600083018761481d565b8181036020830152614c9b8186613c06565b9050614caa6040830185613ae6565b8181036060830152614cbc8184613c06565b905095945050505050565b600080fd5b60008235600160a003833603038112614ce857614ce7614cc7565b5b82810191505092915050565b6000614d0360208401846138df565b905092915050565b600080fd5b600080fd5b60008083356001602003843603038112614d3257614d31614cc7565b5b83810192508235915060208301925067ffffffffffffffff821115614d5a57614d59614d0b565b5b600182023603831315614d7057614d6f614d10565b5b509250929050565b6000614d848385614552565b9350614d91838584613603565b614d9a83613546565b840190509392505050565b6000614db46020840184613915565b905092915050565b600060a08301614dcf6000840184614cf4565b614ddc60008601826145ab565b50614dea6020840184614d15565b8583036020870152614dfd838284614d78565b92505050614e0e6040840184614da5565b614e1b6040860182614543565b50614e296060840184614da5565b614e366060860182614543565b50614e446080840184614da5565b614e516080860182614543565b508091505092915050565b6000614e6b6020840184613527565b905092915050565b600060608301614e866000840184614ccc565b8482036000860152614e988282614dbc565b915050614ea86020840184614e5c565b614eb56020860182614988565b50614ec36040840184614d15565b8583036040870152614ed6838284614d78565b925050508091505092915050565b60006060820190508181036000830152614efe8186614e73565b9050614f0d602083018561481d565b614f1a604083018461481d565b949350505050565b60008160601b9050919050565b6000614f3a82614f22565b9050919050565b6000614f4c82614f2f565b9050919050565b614f64614f5f826138b6565b614f41565b82525050565b6000614f768284614f53565b60148201915081905092915050565b600060c0820190508181036000830152614f9f8189614e73565b9050614fae602083018861481d565b614fbb604083018761481d565b614fc86060830186613ae6565b614fd56080830185613ae6565b614fe260a0830184613ae6565b979650505050505050565b6000602082019050615002600083018461481d565b92915050565b7f424b44544d4d0000000000000000000000000000000000000000000000000000600082015250565b600061503e600683613a50565b915061504982615008565b602082019050919050565b6000602082019050818103600083015261506d81615031565b9050919050565b6000823560016040038336030381126150905761508f613f38565b5b80830191505092915050565b6000602082840312156150b2576150b161348f565b5b60006150c0848285016138df565b91505092915050565b600060208201905081810360008301526150e481848661382d565b90509392505050565b7f66696c6c4f726465723a2054616b657220213d206d73672e73656e6465720000600082015250565b6000615123601e83613a50565b915061512e826150ed565b602082019050919050565b6000602082019050818103600083015261515281615116565b9050919050565b600067ffffffffffffffff82111561517457615173613557565b5b602082029050602081019050919050565b600061519861519384615159565b6135b7565b905080838252602082019050602084028301858111156151bb576151ba613739565b5b835b818110156151e457806151d08882614093565b8452602084019350506020810190506151bd565b5050509392505050565b600082601f8301126152035761520261353c565b5b8151615213848260208601615185565b91505092915050565b600067ffffffffffffffff82111561523757615236613557565b5b602082029050602081019050919050565b600061525b6152568461521c565b6135b7565b9050808382526020820190506020840283018581111561527e5761527d613739565b5b835b818110156152c557805167ffffffffffffffff8111156152a3576152a261353c565b5b8086016152b089826140ea565b85526020850194505050602081019050615280565b5050509392505050565b600082601f8301126152e4576152e361353c565b5b81516152f4848260208601615248565b91505092915050565b600067ffffffffffffffff82111561531857615317613557565b5b602082029050602081019050919050565b600061533c615337846152fd565b6135b7565b9050808382526020820190506020840283018581111561535f5761535e613739565b5b835b8181101561538857806153748882614144565b845260208401935050602081019050615361565b5050509392505050565b600082601f8301126153a7576153a661353c565b5b81516153b7848260208601615329565b91505092915050565b600067ffffffffffffffff8211156153db576153da613557565b5b602082029050602081019050919050565b60006153ff6153fa846153c0565b6135b7565b9050808382526020820190506020840283018581111561542257615421613739565b5b835b8181101561546957805167ffffffffffffffff8111156154475761544661353c565b5b8086016154548982614159565b85526020850194505050602081019050615424565b5050509392505050565b600082601f8301126154885761548761353c565b5b81516154988482602086016153ec565b91505092915050565b6000604082840312156154b7576154b661388c565b5b6154c160406135b7565b905060006154d184828501614093565b600083015250602082015167ffffffffffffffff8111156154f5576154f4613891565b5b615501848285016140ea565b60208301525092915050565b60006101e082840312156155245761552361388c565b5b61552f6101e06135b7565b9050600082015167ffffffffffffffff81111561554f5761554e613891565b5b61555b848285016151ee565b600083015250602082015167ffffffffffffffff81111561557f5761557e613891565b5b61558b848285016152cf565b602083015250604082015167ffffffffffffffff8111156155af576155ae613891565b5b6155bb848285016152cf565b604083015250606082015167ffffffffffffffff8111156155df576155de613891565b5b6155eb848285016151ee565b606083015250608082015167ffffffffffffffff81111561560f5761560e613891565b5b61561b84828501615392565b60808301525060a061562f8482850161412f565b60a08301525060c061564384828501614093565b60c08301525060e082015167ffffffffffffffff81111561566757615666613891565b5b61567384828501614159565b60e08301525061010082015167ffffffffffffffff81111561569857615697613891565b5b6156a484828501614159565b6101008301525061012082015167ffffffffffffffff8111156156ca576156c9613891565b5b6156d684828501614159565b6101208301525061014082015167ffffffffffffffff8111156156fc576156fb613891565b5b61570884828501615473565b6101408301525061016082015167ffffffffffffffff81111561572e5761572d613891565b5b61573a84828501615473565b6101608301525061018082015167ffffffffffffffff8111156157605761575f613891565b5b61576c84828501615392565b610180830152506101a06157828482850161412f565b6101a0830152506101c082015167ffffffffffffffff8111156157a8576157a7613891565b5b6157b4848285016154a1565b6101c08301525092915050565b6000602082840312156157d7576157d661348f565b5b600082015167ffffffffffffffff8111156157f5576157f4613494565b5b6158018482850161550d565b91505092915050565b7f424b504f4d4d0000000000000000000000000000000000000000000000000000600082015250565b6000615840600683613a50565b915061584b8261580a565b602082019050919050565b6000602082019050818103600083015261586f81615833565b9050919050565b7f426f6f6b6b65657065723a20496e76616c69642074616b657200000000000000600082015250565b60006158ac601983613a50565b91506158b782615876565b602082019050919050565b600060208201905081810360008301526158db8161589f565b9050919050565b6000823560016040038336030381126158fe576158fd613f38565b5b80830191505092915050565b6000604082840312156159205761591f61388c565b5b61592a60406135b7565b9050600061593a848285016138df565b600083015250602082013567ffffffffffffffff81111561595e5761595d613891565b5b61596a84828501613654565b60208301525092915050565b6000615982368361590a565b9050919050565b600060608201905081810360008301526159a38186614997565b90506159b26020830185613a1b565b6159bf604083018461481d565b949350505050565b7f636c6f7365506f736974696f6e3a20496e76616c696420646174612074797065600082015250565b60006159fd602083613a50565b9150615a08826159c7565b602082019050919050565b60006020820190508181036000830152615a2c816159f0565b9050919050565b7f6572726f723a2043616c6c6572206973206e6f742074686520626f72726f776560008201527f7200000000000000000000000000000000000000000000000000000000000000602082015250565b6000615a8f602183613a50565b9150615a9a82615a33565b604082019050919050565b60006020820190508181036000830152615abe81615a82565b9050919050565b60006040820190508181036000830152615adf8185613c06565b90508181036020830152615af38184613c06565b90509392505050565b60006040820190508181036000830152615b1681856145f7565b9050615b256020830184613ae6565b9392505050565b7f4e6f7420656e6f75676820746f20636c6f736520746865206c6f616e00000000600082015250565b6000615b62601c83613a50565b9150615b6d82615b2c565b602082019050919050565b60006020820190508181036000830152615b9181615b55565b9050919050565b7f54726163746f723a20696e76616c69642073656e646572000000000000000000600082015250565b6000615bce601783613a50565b9150615bd982615b98565b602082019050919050565b60006020820190508181036000830152615bfd81615bc1565b9050919050565b7f5265656e7472616e637947756172643a207265656e7472616e742063616c6c00600082015250565b6000615c3a601f83613a50565b9150615c4582615c04565b602082019050919050565b60006020820190508181036000830152615c6981615c2d565b9050919050565b6000604082019050615c856000830185613a1b565b8181036020830152615c978184613c06565b90509392505050565b6000615cac82846148b9565b915081905092915050565b600081519050615cc681613510565b92915050565b600060208284031215615ce257615ce161348f565b5b6000615cf084828501615cb7565b91505092915050565b600081359050615d0881614118565b92915050565b600060208284031215615d2457615d2361348f565b5b6000615d3284828501615cf9565b91505092915050565b7f6f666665722066696c6c206f66206f6666657200000000000000000000000000600082015250565b6000615d71601383613a50565b9150615d7c82615d3b565b602082019050919050565b60006020820190508181036000830152615da081615d64565b9050919050565b7f726571756573742066696c6c206f662072657175657374000000000000000000600082015250565b6000615ddd601783613a50565b9150615de882615da7565b602082019050919050565b60006020820190508181036000830152615e0c81615dd0565b9050919050565b600060408284031215615e2957615e2861388c565b5b615e3360406135b7565b90506000615e4384828501613915565b600083015250602082013567ffffffffffffffff811115615e6757615e66613891565b5b615e7384828501613654565b60208301525092915050565b6000615e8b3683615e13565b9050919050565b7f6c6f616e416d6f756e7420746f6f20736d616c6c000000000000000000000000600082015250565b6000615ec8601483613a50565b9150615ed382615e92565b602082019050919050565b60006020820190508181036000830152615ef781615ebb565b9050919050565b7f696e6974436f6c6c61746572616c526174696f20746f6f20736d616c6c000000600082015250565b6000615f34601d83613a50565b9150615f3f82615efe565b602082019050919050565b60006020820190508181036000830152615f6381615f27565b9050919050565b7f666163746f7279206572726f723a2063726561746520636c6f6e65206661696c60008201527f6564000000000000000000000000000000000000000000000000000000000000602082015250565b6000615fc6602283613a50565b9150615fd182615f6a565b604082019050919050565b60006020820190508181036000830152615ff581615fb9565b9050919050565b600061600782613896565b9050919050565b61601781615ffc565b811461602257600080fd5b50565b6000815190506160348161600e565b92915050565b6000602082840312156160505761604f61348f565b5b600061605e84828501616025565b91505092915050565b7f756e6865616c746879206465706c6f796d656e74000000000000000000000000600082015250565b600061609d601483613a50565b91506160a882616067565b602082019050919050565b600060208201905081810360008301526160cc81616090565b9050919050565b600081905092915050565b7f1901000000000000000000000000000000000000000000000000000000000000600082015250565b60006161146002836160d3565b915061611f826160de565b600282019050919050565b6000819050919050565b61614561614082613506565b61612a565b82525050565b600061615682616107565b91506161628285616134565b6020820191506161728284616134565b6020820191508190509392505050565b600060a0820190506161976000830188613a1b565b6161a46020830187613a1b565b6161b16040830186613a1b565b6161be6060830185613ae6565b6161cb608083018461481d565b9695505050505050565b600060ff82169050919050565b6161eb816161d5565b82525050565b60006080820190506162066000830187613a1b565b61621360208301866161e2565b6162206040830185613a1b565b61622d6060830184613a1b565b9594505050505056fea2646970667358221220dddfb942557d962bfa7ea8bcc805bf285c043c11ae3a210f721a78175faa993164736f6c63430008130033",
  "linkReferences": {},
  "deployedLinkReferences": {}
}