{
  "_format": "hh-sol-artifact-1",
  "contractName": "Bookkeeper",
  "sourceName": "src/Bookkeeper.sol",
  "abi": [
    {
      "inputs": [],
      "stateMutability": "nonpayable",
      "type": "constructor"
    },
    {
      "anonymous": false,
      "inputs": [
        {
          "indexed": false,
          "internalType": "bytes32",
          "name": "blueprintHash",
          "type": "bytes32"
        }
      ],
      "name": "DestroyedBlueprint",
      "type": "event"
    },
    {
      "anonymous": false,
      "inputs": [
        {
          "components": [
            {
              "components": [
                {
                  "internalType": "address",
                  "name": "publisher",
                  "type": "address"
                },
                {
                  "internalType": "bytes",
                  "name": "data",
                  "type": "bytes"
                },
                {
                  "internalType": "uint256",
                  "name": "maxNonce",
                  "type": "uint256"
                },
                {
                  "internalType": "uint256",
                  "name": "startTime",
                  "type": "uint256"
                },
                {
                  "internalType": "uint256",
                  "name": "endTime",
                  "type": "uint256"
                }
              ],
              "internalType": "struct Blueprint",
              "name": "blueprint",
              "type": "tuple"
            },
            {
              "internalType": "bytes32",
              "name": "blueprintHash",
              "type": "bytes32"
            },
            {
              "internalType": "bytes",
              "name": "signature",
              "type": "bytes"
            }
          ],
          "indexed": false,
          "internalType": "struct SignedBlueprint",
          "name": "agreement",
          "type": "tuple"
        },
        {
          "indexed": false,
          "internalType": "bytes32",
          "name": "orderBlueprintHash",
          "type": "bytes32"
        },
        {
          "indexed": false,
          "internalType": "address",
          "name": "taker",
          "type": "address"
        }
      ],
      "name": "OrderFilled",
      "type": "event"
    },
    {
      "anonymous": false,
      "inputs": [
        {
          "components": [
            {
              "components": [
                {
                  "internalType": "address",
                  "name": "publisher",
                  "type": "address"
                },
                {
                  "internalType": "bytes",
                  "name": "data",
                  "type": "bytes"
                },
                {
                  "internalType": "uint256",
                  "name": "maxNonce",
                  "type": "uint256"
                },
                {
                  "internalType": "uint256",
                  "name": "startTime",
                  "type": "uint256"
                },
                {
                  "internalType": "uint256",
                  "name": "endTime",
                  "type": "uint256"
                }
              ],
              "internalType": "struct Blueprint",
              "name": "blueprint",
              "type": "tuple"
            },
            {
              "internalType": "bytes32",
              "name": "blueprintHash",
              "type": "bytes32"
            },
            {
              "internalType": "bytes",
              "name": "signature",
              "type": "bytes"
            }
          ],
          "indexed": false,
          "internalType": "struct SignedBlueprint",
          "name": "agreement",
          "type": "tuple"
        },
        {
          "indexed": false,
          "internalType": "address",
          "name": "position",
          "type": "address"
        },
        {
          "indexed": false,
          "internalType": "address",
          "name": "closer",
          "type": "address"
        },
        {
          "indexed": false,
          "internalType": "uint256",
          "name": "closeValue",
          "type": "uint256"
        },
        {
          "indexed": false,
          "internalType": "uint256",
          "name": "loanOrcale",
          "type": "uint256"
        },
        {
          "indexed": false,
          "internalType": "uint256",
          "name": "assessorCost",
          "type": "uint256"
        }
      ],
      "name": "PositionClosed",
      "type": "event"
    },
    {
      "anonymous": false,
      "inputs": [
        {
          "components": [
            {
              "components": [
                {
                  "internalType": "address",
                  "name": "publisher",
                  "type": "address"
                },
                {
                  "internalType": "bytes",
                  "name": "data",
                  "type": "bytes"
                },
                {
                  "internalType": "uint256",
                  "name": "maxNonce",
                  "type": "uint256"
                },
                {
                  "internalType": "uint256",
                  "name": "startTime",
                  "type": "uint256"
                },
                {
                  "internalType": "uint256",
                  "name": "endTime",
                  "type": "uint256"
                }
              ],
              "internalType": "struct Blueprint",
              "name": "blueprint",
              "type": "tuple"
            },
            {
              "internalType": "bytes32",
              "name": "blueprintHash",
              "type": "bytes32"
            },
            {
              "internalType": "bytes",
              "name": "signature",
              "type": "bytes"
            }
          ],
          "indexed": false,
          "internalType": "struct SignedBlueprint",
          "name": "agreement",
          "type": "tuple"
        },
        {
          "indexed": false,
          "internalType": "address",
          "name": "position",
          "type": "address"
        },
        {
          "indexed": false,
          "internalType": "address",
          "name": "liquidator",
          "type": "address"
        }
      ],
      "name": "PositionLiquidated",
      "type": "event"
    },
    {
      "anonymous": false,
      "inputs": [
        {
          "components": [
            {
              "components": [
                {
                  "internalType": "address",
                  "name": "publisher",
                  "type": "address"
                },
                {
                  "internalType": "bytes",
                  "name": "data",
                  "type": "bytes"
                },
                {
                  "internalType": "uint256",
                  "name": "maxNonce",
                  "type": "uint256"
                },
                {
                  "internalType": "uint256",
                  "name": "startTime",
                  "type": "uint256"
                },
                {
                  "internalType": "uint256",
                  "name": "endTime",
                  "type": "uint256"
                }
              ],
              "internalType": "struct Blueprint",
              "name": "blueprint",
              "type": "tuple"
            },
            {
              "internalType": "bytes32",
              "name": "blueprintHash",
              "type": "bytes32"
            },
            {
              "internalType": "bytes",
              "name": "signature",
              "type": "bytes"
            }
          ],
          "indexed": false,
          "internalType": "struct SignedBlueprint",
          "name": "signedBlueprint",
          "type": "tuple"
        }
      ],
      "name": "PublishedBlueprint",
      "type": "event"
    },
    {
      "anonymous": false,
      "inputs": [
        {
          "indexed": true,
          "internalType": "address",
          "name": "operator",
          "type": "address"
        },
        {
          "indexed": false,
          "internalType": "bytes32",
          "name": "blueprintHash",
          "type": "bytes32"
        }
      ],
      "name": "UsedBlueprint",
      "type": "event"
    },
    {
      "inputs": [],
      "name": "BLUEPRINT_TYPEHASH",
      "outputs": [
        {
          "internalType": "bytes32",
          "name": "",
          "type": "bytes32"
        }
      ],
      "stateMutability": "view",
      "type": "function"
    },
    {
      "inputs": [],
      "name": "PROTOCOL_NAME",
      "outputs": [
        {
          "internalType": "string",
          "name": "",
          "type": "string"
        }
      ],
      "stateMutability": "view",
      "type": "function"
    },
    {
      "inputs": [],
      "name": "PROTOCOL_VERSION",
      "outputs": [
        {
          "internalType": "string",
          "name": "",
          "type": "string"
        }
      ],
      "stateMutability": "view",
      "type": "function"
    },
    {
      "inputs": [
        {
          "internalType": "bytes32",
          "name": "",
          "type": "bytes32"
        }
      ],
      "name": "agreementClosed",
      "outputs": [
        {
          "internalType": "bool",
          "name": "",
          "type": "bool"
        }
      ],
      "stateMutability": "view",
      "type": "function"
    },
    {
      "inputs": [
        {
          "components": [
            {
              "components": [
                {
                  "internalType": "address",
                  "name": "publisher",
                  "type": "address"
                },
                {
                  "internalType": "bytes",
                  "name": "data",
                  "type": "bytes"
                },
                {
                  "internalType": "uint256",
                  "name": "maxNonce",
                  "type": "uint256"
                },
                {
                  "internalType": "uint256",
                  "name": "startTime",
                  "type": "uint256"
                },
                {
                  "internalType": "uint256",
                  "name": "endTime",
                  "type": "uint256"
                }
              ],
              "internalType": "struct Blueprint",
              "name": "blueprint",
              "type": "tuple"
            },
            {
              "internalType": "bytes32",
              "name": "blueprintHash",
              "type": "bytes32"
            },
            {
              "internalType": "bytes",
              "name": "signature",
              "type": "bytes"
            }
          ],
          "internalType": "struct SignedBlueprint",
          "name": "agreementBlueprint",
          "type": "tuple"
        }
      ],
      "name": "closePosition",
      "outputs": [],
      "stateMutability": "nonpayable",
      "type": "function"
    },
    {
      "inputs": [
        {
          "components": [
            {
              "components": [
                {
                  "internalType": "address",
                  "name": "publisher",
                  "type": "address"
                },
                {
                  "internalType": "bytes",
                  "name": "data",
                  "type": "bytes"
                },
                {
                  "internalType": "uint256",
                  "name": "maxNonce",
                  "type": "uint256"
                },
                {
                  "internalType": "uint256",
                  "name": "startTime",
                  "type": "uint256"
                },
                {
                  "internalType": "uint256",
                  "name": "endTime",
                  "type": "uint256"
                }
              ],
              "internalType": "struct Blueprint",
              "name": "blueprint",
              "type": "tuple"
            },
            {
              "internalType": "bytes32",
              "name": "blueprintHash",
              "type": "bytes32"
            },
            {
              "internalType": "bytes",
              "name": "signature",
              "type": "bytes"
            }
          ],
          "internalType": "struct SignedBlueprint",
          "name": "signedBlueprint",
          "type": "tuple"
        }
      ],
      "name": "destroyBlueprint",
      "outputs": [],
      "stateMutability": "nonpayable",
      "type": "function"
    },
    {
      "inputs": [],
      "name": "domainSeparator",
      "outputs": [
        {
          "internalType": "bytes32",
          "name": "",
          "type": "bytes32"
        }
      ],
      "stateMutability": "view",
      "type": "function"
    },
    {
      "inputs": [
        {
          "components": [
            {
              "components": [
                {
                  "internalType": "address",
                  "name": "addr",
                  "type": "address"
                },
                {
                  "internalType": "bytes",
                  "name": "parameters",
                  "type": "bytes"
                }
              ],
              "internalType": "struct PluginReference",
              "name": "account",
              "type": "tuple"
            },
            {
              "internalType": "uint256",
              "name": "loanAmount",
              "type": "uint256"
            },
            {
              "internalType": "uint256",
              "name": "takerIdx",
              "type": "uint256"
            },
            {
              "internalType": "uint256",
              "name": "loanAssetIdx",
              "type": "uint256"
            },
            {
              "internalType": "uint256",
              "name": "collAssetIdx",
              "type": "uint256"
            },
            {
              "internalType": "uint256",
              "name": "factoryIdx",
              "type": "uint256"
            },
            {
              "internalType": "bytes",
              "name": "fillerData",
              "type": "bytes"
            },
            {
              "internalType": "bool",
              "name": "isOfferFill",
              "type": "bool"
            },
            {
              "components": [
                {
                  "internalType": "uint256",
                  "name": "collAmount",
                  "type": "uint256"
                },
                {
                  "internalType": "bytes",
                  "name": "positionParameters",
                  "type": "bytes"
                }
              ],
              "internalType": "struct BorrowerConfig",
              "name": "borrowerConfig",
              "type": "tuple"
            }
          ],
          "internalType": "struct Fill",
          "name": "fill",
          "type": "tuple"
        },
        {
          "components": [
            {
              "components": [
                {
                  "internalType": "address",
                  "name": "publisher",
                  "type": "address"
                },
                {
                  "internalType": "bytes",
                  "name": "data",
                  "type": "bytes"
                },
                {
                  "internalType": "uint256",
                  "name": "maxNonce",
                  "type": "uint256"
                },
                {
                  "internalType": "uint256",
                  "name": "startTime",
                  "type": "uint256"
                },
                {
                  "internalType": "uint256",
                  "name": "endTime",
                  "type": "uint256"
                }
              ],
              "internalType": "struct Blueprint",
              "name": "blueprint",
              "type": "tuple"
            },
            {
              "internalType": "bytes32",
              "name": "blueprintHash",
              "type": "bytes32"
            },
            {
              "internalType": "bytes",
              "name": "signature",
              "type": "bytes"
            }
          ],
          "internalType": "struct SignedBlueprint",
          "name": "orderBlueprint",
          "type": "tuple"
        }
      ],
      "name": "fillOrder",
      "outputs": [],
      "stateMutability": "nonpayable",
      "type": "function"
    },
    {
      "inputs": [
        {
          "components": [
            {
              "internalType": "address",
              "name": "publisher",
              "type": "address"
            },
            {
              "internalType": "bytes",
              "name": "data",
              "type": "bytes"
            },
            {
              "internalType": "uint256",
              "name": "maxNonce",
              "type": "uint256"
            },
            {
              "internalType": "uint256",
              "name": "startTime",
              "type": "uint256"
            },
            {
              "internalType": "uint256",
              "name": "endTime",
              "type": "uint256"
            }
          ],
          "internalType": "struct Blueprint",
          "name": "blueprint",
          "type": "tuple"
        }
      ],
      "name": "getBlueprintHash",
      "outputs": [
        {
          "internalType": "bytes32",
          "name": "",
          "type": "bytes32"
        }
      ],
      "stateMutability": "view",
      "type": "function"
    },
    {
      "inputs": [],
      "name": "getChainId",
      "outputs": [
        {
          "internalType": "uint256",
          "name": "",
          "type": "uint256"
        }
      ],
      "stateMutability": "view",
      "type": "function"
    },
    {
      "inputs": [
        {
          "internalType": "bytes32",
          "name": "blueprintHash",
          "type": "bytes32"
        },
        {
          "internalType": "bytes",
          "name": "",
          "type": "bytes"
        }
      ],
      "name": "isValidSignature",
      "outputs": [
        {
          "internalType": "bytes4",
          "name": "magicValue",
          "type": "bytes4"
        }
      ],
      "stateMutability": "view",
      "type": "function"
    },
    {
      "inputs": [
        {
          "internalType": "address",
          "name": "signer",
          "type": "address"
        },
        {
          "internalType": "bytes32",
          "name": "hash",
          "type": "bytes32"
        },
        {
          "internalType": "bytes",
          "name": "signature",
          "type": "bytes"
        }
      ],
      "name": "isValidSignatureNow",
      "outputs": [
        {
          "internalType": "bool",
          "name": "",
          "type": "bool"
        }
      ],
      "stateMutability": "view",
      "type": "function"
    },
    {
      "inputs": [
        {
          "internalType": "bytes1",
          "name": "dataType",
          "type": "bytes1"
        },
        {
          "internalType": "bytes",
          "name": "data",
          "type": "bytes"
        }
      ],
      "name": "packDataField",
      "outputs": [
        {
          "internalType": "bytes",
          "name": "",
          "type": "bytes"
        }
      ],
      "stateMutability": "pure",
      "type": "function"
    },
    {
      "inputs": [
        {
          "components": [
            {
              "components": [
                {
                  "internalType": "address",
                  "name": "publisher",
                  "type": "address"
                },
                {
                  "internalType": "bytes",
                  "name": "data",
                  "type": "bytes"
                },
                {
                  "internalType": "uint256",
                  "name": "maxNonce",
                  "type": "uint256"
                },
                {
                  "internalType": "uint256",
                  "name": "startTime",
                  "type": "uint256"
                },
                {
                  "internalType": "uint256",
                  "name": "endTime",
                  "type": "uint256"
                }
              ],
              "internalType": "struct Blueprint",
              "name": "blueprint",
              "type": "tuple"
            },
            {
              "internalType": "bytes32",
              "name": "blueprintHash",
              "type": "bytes32"
            },
            {
              "internalType": "bytes",
              "name": "signature",
              "type": "bytes"
            }
          ],
          "internalType": "struct SignedBlueprint",
          "name": "signedBlueprint",
          "type": "tuple"
        }
      ],
      "name": "publishBlueprint",
      "outputs": [],
      "stateMutability": "nonpayable",
      "type": "function"
    },
    {
      "inputs": [
        {
          "components": [
            {
              "components": [
                {
                  "internalType": "address",
                  "name": "publisher",
                  "type": "address"
                },
                {
                  "internalType": "bytes",
                  "name": "data",
                  "type": "bytes"
                },
                {
                  "internalType": "uint256",
                  "name": "maxNonce",
                  "type": "uint256"
                },
                {
                  "internalType": "uint256",
                  "name": "startTime",
                  "type": "uint256"
                },
                {
                  "internalType": "uint256",
                  "name": "endTime",
                  "type": "uint256"
                }
              ],
              "internalType": "struct Blueprint",
              "name": "blueprint",
              "type": "tuple"
            },
            {
              "internalType": "bytes32",
              "name": "blueprintHash",
              "type": "bytes32"
            },
            {
              "internalType": "bytes",
              "name": "signature",
              "type": "bytes"
            }
          ],
          "internalType": "struct SignedBlueprint",
          "name": "agreementBlueprint",
          "type": "tuple"
        }
      ],
      "name": "triggerLiquidation",
      "outputs": [],
      "stateMutability": "nonpayable",
      "type": "function"
    },
    {
      "inputs": [
        {
          "internalType": "bytes",
          "name": "data",
          "type": "bytes"
        }
      ],
      "name": "unpackDataField",
      "outputs": [
        {
          "internalType": "bytes1",
          "name": "",
          "type": "bytes1"
        },
        {
          "internalType": "bytes",
          "name": "",
          "type": "bytes"
        }
      ],
      "stateMutability": "pure",
      "type": "function"
    },
    {
      "inputs": [
        {
          "components": [
            {
              "components": [
                {
                  "internalType": "address",
                  "name": "publisher",
                  "type": "address"
                },
                {
                  "internalType": "bytes",
                  "name": "data",
                  "type": "bytes"
                },
                {
                  "internalType": "uint256",
                  "name": "maxNonce",
                  "type": "uint256"
                },
                {
                  "internalType": "uint256",
                  "name": "startTime",
                  "type": "uint256"
                },
                {
                  "internalType": "uint256",
                  "name": "endTime",
                  "type": "uint256"
                }
              ],
              "internalType": "struct Blueprint",
              "name": "blueprint",
              "type": "tuple"
            },
            {
              "internalType": "bytes32",
              "name": "blueprintHash",
              "type": "bytes32"
            },
            {
              "internalType": "bytes",
              "name": "signature",
              "type": "bytes"
            }
          ],
          "internalType": "struct SignedBlueprint",
          "name": "agreementBlueprint",
          "type": "tuple"
        }
      ],
      "name": "unwindPosition",
      "outputs": [],
      "stateMutability": "nonpayable",
      "type": "function"
    }
  ],
  "bytecode": "0x6101406040523480156200001257600080fd5b506040518060400160405280600681526020017f706861726f7300000000000000000000000000000000000000000000000000008152506040518060400160405280600581526020017f302e322e300000000000000000000000000000000000000000000000000000008152508181818160008280519060200120905060008280519060200120905060007f8b73c3c69bb8fe3d512ecc4cf759cc79239f7b179b0ffacaa9a75d522b39400f90508260e081815250508161010081815250504660a08181525050620000ec8184846200014760201b60201c565b608081815250503073ffffffffffffffffffffffffffffffffffffffff1660c08173ffffffffffffffffffffffffffffffffffffffff168152505080610120818152505050505050505050505060016002819055506200025b565b6000838383463060405160200162000164959493929190620001fe565b6040516020818303038152906040528051906020012090509392505050565b6000819050919050565b620001988162000183565b82525050565b6000819050919050565b620001b3816200019e565b82525050565b600073ffffffffffffffffffffffffffffffffffffffff82169050919050565b6000620001e682620001b9565b9050919050565b620001f881620001d9565b82525050565b600060a0820190506200021560008301886200018d565b6200022460208301876200018d565b6200023360408301866200018d565b620002426060830185620001a8565b620002516080830184620001ed565b9695505050505050565b60805160a05160c05160e05161010051610120516161e8620002ab6000396000613005015260006130470152600061302601526000612f5b01526000612fb101526000612fda01526161e86000f3fe608060405234801561001057600080fd5b506004361061010b5760003560e01c80636ccea652116100a2578063beaede8811610071578063beaede88146102e0578063cd514e18146102fe578063e7dca7d21461031a578063ee47838814610336578063f698da25146103525761010b565b80636ccea6521461025a578063727358061461028a578063a513069d146102a6578063aa3aa460146102c25761010b565b80632860ff75116100de5780632860ff75146101be5780633408e470146101dc5780636853de03146101fa5780636a445ba91461022a5761010b565b80630dec6bed146101105780631626ba7e1461012c57806319affdf61461015c5780631ed645521461018e575b600080fd5b61012a600480360381019061012591906133dc565b610370565b005b610146600480360381019061014191906135a1565b6106d4565b6040516101539190613638565b60405180910390f35b610176600480360381019061017191906136b3565b61071b565b60405161018593929190613779565b60405180910390f35b6101a860048036038101906101a391906138f1565b61075e565b6040516101b59190613949565b60405180910390f35b6101c66107db565b6040516101d391906139e3565b60405180910390f35b6101e4610814565b6040516101f19190613a14565b60405180910390f35b610214600480360381019061020f9190613a2f565b61081c565b6040516102219190613a77565b60405180910390f35b610244600480360381019061023f9190613abe565b61083c565b6040516102519190613b5e565b60405180910390f35b610274600480360381019061026f9190613b80565b610868565b6040516102819190613a77565b60405180910390f35b6102a4600480360381019061029f9190613c8b565b61087e565b005b6102c060048036038101906102bb91906133dc565b610966565b005b6102ca611133565b6040516102d791906139e3565b60405180910390f35b6102e861116c565b6040516102f59190613949565b60405180910390f35b610318600480360381019061031391906133dc565b611190565b005b610334600480360381019061032f91906133dc565b61195a565b005b610350600480360381019061034b9190613cf4565b611b1c565b005b61035a612248565b6040516103679190613949565b60405180910390f35b610378612257565b8061038290613d6c565b8060200151610394826000015161075e565b146103d4576040517f08c379a00000000000000000000000000000000000000000000000000000000081526004016103cb90613dcb565b60405180910390fd5b6103ef816000015160000151826020015183604001516122a4565b61042e576040517f08c379a000000000000000000000000000000000000000000000000000000000815260040161042590613e37565b60405180910390fd5b6000806104588480600001906104449190613e66565b80602001906104539190613e8e565b61071b565b8080601f016020809104026020016040519081016040528093929190818152602001838380828437600081840152601f19601f82011690508083019250505050505050915091506002808111156104b2576104b1613ef1565b5b60f81b7effffffffffffffffffffffffffffffffffffffffffffffffffffffffffffff1916827effffffffffffffffffffffffffffffffffffffffffffffffffffffffffffff19161461053a576040517f08c379a000000000000000000000000000000000000000000000000000000000815260040161053190613f92565b60405180910390fd5b600081806020019051810190610550919061438c565b905060008161010001516000015173ffffffffffffffffffffffffffffffffffffffff1663b102bfbe836101000151602001516040518263ffffffff1660e01b815260040161059f9190613b5e565b602060405180830381865afa1580156105bc573d6000803e3d6000fd5b505050506040513d601f19601f820116820180604052508101906105e091906143d5565b73ffffffffffffffffffffffffffffffffffffffff163373ffffffffffffffffffffffffffffffffffffffff1614905080610650576040517f08c379a000000000000000000000000000000000000000000000000000000000815260040161064790614474565b60405180910390fd5b816101c001516000015173ffffffffffffffffffffffffffffffffffffffff16638f9acff3836040518263ffffffff1660e01b815260040161069291906146f4565b600060405180830381600087803b1580156106ac57600080fd5b505af11580156106c0573d6000803e3d6000fd5b5050505050505050506106d161246a565b50565b600080600084815260200190815260200160002060009054906101000a900460ff161561070a57631626ba7e60e01b9050610715565b63ffffffff60e01b90505b92915050565b60003660008484600081811061073457610733614716565b5b9050013560f81c60f81b858560019080926107519392919061474f565b9250925092509250925092565b60006107d47fabb38f99128910356202f56a25bd1c0cbc076ddee0387a6ff4671f05fabedcd183600001518460200151805190602001208560400151866060015187608001516040516020016107b996959493929190614799565b60405160208183030381529060405280519060200120612474565b9050919050565b6040518060400160405280600681526020017f706861726f73000000000000000000000000000000000000000000000000000081525081565b600046905090565b60036020528060005260406000206000915054906101000a900460ff1681565b60608282604051602001610851929190614857565b604051602081830303815290604052905092915050565b60006108758484846122a4565b90509392505050565b808060200151610891826000015161075e565b146108d1576040517f08c379a00000000000000000000000000000000000000000000000000000000081526004016108c890613dcb565b60405180910390fd5b6108ec816000015160000151826020015183604001516122a4565b61092b576040517f08c379a000000000000000000000000000000000000000000000000000000000815260040161092290613e37565b60405180910390fd5b7fe88b49ce78855e321e33f58c41af6039301a3ff5454da2b09ddb1be1d9a525d48260405161095a919061495b565b60405180910390a15050565b61096e612257565b8061097890613d6c565b806020015161098a826000015161075e565b146109ca576040517f08c379a00000000000000000000000000000000000000000000000000000000081526004016109c190613dcb565b60405180910390fd5b6109e5816000015160000151826020015183604001516122a4565b610a24576040517f08c379a0000000000000000000000000000000000000000000000000000000008152600401610a1b90613e37565b60405180910390fd5b6000610a4d838060000190610a399190613e66565b8060200190610a489190613e8e565b61071b565b8080601f016020809104026020016040519081016040528093929190818152602001838380828437600081840152601f19601f82011690508083019250505050505050915050600081806020019051810190610aa9919061438c565b9050600081604051602001610abe91906146f4565b6040516020818303038152906040528051906020012090506000826101c001516000015190506003600083815260200190815260200160002060009054906101000a900460ff1615610b45576040517f08c379a0000000000000000000000000000000000000000000000000000000008152600401610b3c906149c9565b60405180910390fd5b610b4e8361248e565b610b8d576040517f08c379a0000000000000000000000000000000000000000000000000000000008152600401610b8490614a5b565b60405180910390fd5b60008361012001516000015173ffffffffffffffffffffffffffffffffffffffff1663458a83c3856040518263ffffffff1660e01b8152600401610bd191906146f4565b6020604051808303816000875af1158015610bf0573d6000803e3d6000fd5b505050506040513d601f19601f82011682018060405250810190610c149190614a7b565b905060008461016001516000015173ffffffffffffffffffffffffffffffffffffffff16632e820849866101600151602001518761020001516040518363ffffffff1660e01b8152600401610c6a929190614aa8565b6020604051808303816000875af1158015610c89573d6000803e3d6000fd5b505050506040513d601f19601f82011682018060405250810190610cad9190614a7b565b905060008561018001516000015173ffffffffffffffffffffffffffffffffffffffff16632e820849876101800151602001518861020001516040518363ffffffff1660e01b8152600401610d03929190614aa8565b6020604051808303816000875af1158015610d22573d6000803e3d6000fd5b505050506040513d601f19601f82011682018060405250810190610d469190614a7b565b9050600082670de0b6b3a764000085610d5f9190614b0e565b610d699190614b7f565b8760000151610d789190614bb0565b905060008573ffffffffffffffffffffffffffffffffffffffff1663edd9e4b5896040518263ffffffff1660e01b8152600401610db591906146f4565b6020604051808303816000875af1158015610dd4573d6000803e3d6000fd5b505050506040513d601f19601f82011682018060405250810190610df89190614a7b565b905060008861014001516000015173ffffffffffffffffffffffffffffffffffffffff1663020bd2798a6040518263ffffffff1660e01b8152600401610e3e91906146f4565b6020604051808303816000875af1158015610e5d573d6000803e3d6000fd5b505050506040513d601f19601f82011682018060405250810190610e819190614a7b565b9050600084670de0b6b3a7640000838686610e9c9190614be4565b610ea69190614be4565b610eb09190614b0e565b610eba9190614b7f565b90508960e001516000015173ffffffffffffffffffffffffffffffffffffffff1663f5b093df338c60400151878e60e00151602001516040518563ffffffff1660e01b8152600401610f0f9493929190614c18565b600060405180830381600087803b158015610f2957600080fd5b505af1158015610f3d573d6000803e3d6000fd5b505050508961010001516000015173ffffffffffffffffffffffffffffffffffffffff1663f5b093df338c60600151848e6101000151602001516040518563ffffffff1660e01b8152600401610f969493929190614c18565b600060405180830381600087803b158015610fb057600080fd5b505af1158015610fc4573d6000803e3d6000fd5b505050507f904c358bc985322bfcccbbb99273cfee6c2cd56dc2d328bbd37b458efa2d9ff18d8b6101c00151600001513360405161100493929190614e88565b60405180910390a16001600360008c6101c001516000015160405160200161102c9190614f0e565b60405160208183030381529060405280519060200120815260200190815260200160002060006101000a81548160ff0219169083151502179055507f40246ab0a03d0d296b9e8cee5ae45cd5f94640ea0834ea9a8f0cd50e445e77e58d8b6101c001516000015133868a8c6040516110a996959493929190614f29565b60405180910390a18773ffffffffffffffffffffffffffffffffffffffff166347635dac336040518263ffffffff1660e01b81526004016110ea9190614f91565b600060405180830381600087803b15801561110457600080fd5b505af1158015611118573d6000803e3d6000fd5b5050505050505050505050505050505061113061246a565b50565b6040518060400160405280600581526020017f302e322e3000000000000000000000000000000000000000000000000000000081525081565b7fabb38f99128910356202f56a25bd1c0cbc076ddee0387a6ff4671f05fabedcd181565b611198612257565b806111a290613d6c565b80602001516111b4826000015161075e565b146111f4576040517f08c379a00000000000000000000000000000000000000000000000000000000081526004016111eb90613dcb565b60405180910390fd5b61120f816000015160000151826020015183604001516122a4565b61124e576040517f08c379a000000000000000000000000000000000000000000000000000000000815260040161124590613e37565b60405180910390fd5b6000806112788480600001906112649190613e66565b80602001906112739190613e8e565b61071b565b8080601f016020809104026020016040519081016040528093929190818152602001838380828437600081840152601f19601f82011690508083019250505050505050915091506002808111156112d2576112d1613ef1565b5b60f81b7effffffffffffffffffffffffffffffffffffffffffffffffffffffffffffff1916827effffffffffffffffffffffffffffffffffffffffffffffffffffffffffffff19161461135a576040517f08c379a000000000000000000000000000000000000000000000000000000000815260040161135190614ff8565b60405180910390fd5b600081806020019051810190611370919061438c565b905060008161010001516000015173ffffffffffffffffffffffffffffffffffffffff1663b102bfbe836101000151602001516040518263ffffffff1660e01b81526004016113bf9190613b5e565b602060405180830381865afa1580156113dc573d6000803e3d6000fd5b505050506040513d601f19601f8201168201806040525081019061140091906143d5565b73ffffffffffffffffffffffffffffffffffffffff163373ffffffffffffffffffffffffffffffffffffffff1614905080611470576040517f08c379a00000000000000000000000000000000000000000000000000000000081526004016114679061508a565b60405180910390fd5b6000826101c0015160000151905060008360e0015160000151905060008273ffffffffffffffffffffffffffffffffffffffff1663edd9e4b5866040518263ffffffff1660e01b81526004016114c691906146f4565b6020604051808303816000875af11580156114e5573d6000803e3d6000fd5b505050506040513d601f19601f820116820180604052508101906115099190614a7b565b905060008561012001516000015173ffffffffffffffffffffffffffffffffffffffff1663458a83c3876040518263ffffffff1660e01b815260040161154f91906146f4565b6020604051808303816000875af115801561156e573d6000803e3d6000fd5b505050506040513d601f19601f820116820180604052508101906115929190614a7b565b905060008661016001516000015173ffffffffffffffffffffffffffffffffffffffff16632e820849886101600151602001518961020001516040518363ffffffff1660e01b81526004016115e8929190614aa8565b6020604051808303816000875af1158015611607573d6000803e3d6000fd5b505050506040513d601f19601f8201168201806040525081019061162b9190614a7b565b905060008473ffffffffffffffffffffffffffffffffffffffff1663890811ae89604001518a60e00151602001516040518363ffffffff1660e01b8152600401611676929190614aa8565b602060405180830381865afa158015611693573d6000803e3d6000fd5b505050506040513d601f19601f820116820180604052508101906116b79190614a7b565b9050600082670de0b6b3a7640000856116d09190614b0e565b6116da9190614b7f565b89600001516116e99190614bb0565b90508673ffffffffffffffffffffffffffffffffffffffff16636c3fc8318a836040518363ffffffff1660e01b81526004016117269291906150aa565b600060405180830381600087803b15801561174057600080fd5b505af1158015611754573d6000803e3d6000fd5b5050505060008673ffffffffffffffffffffffffffffffffffffffff1663890811ae8b604001518c60e00151602001516040518363ffffffff1660e01b81526004016117a1929190614aa8565b602060405180830381865afa1580156117be573d6000803e3d6000fd5b505050506040513d601f19601f820116820180604052508101906117e29190614a7b565b90508183826117f19190614be4565b1015611832576040517f08c379a000000000000000000000000000000000000000000000000000000000815260040161182990615126565b60405180910390fd5b6001600360008c6101c00151600001516040516020016118529190614f0e565b60405160208183030381529060405280519060200120815260200190815260200160002060006101000a81548160ff0219169083151502179055507f40246ab0a03d0d296b9e8cee5ae45cd5f94640ea0834ea9a8f0cd50e445e77e58e8b6101c00151600001513389888a6040516118cf96959493929190614f29565b60405180910390a18773ffffffffffffffffffffffffffffffffffffffff166347635dac336040518263ffffffff1660e01b81526004016119109190614f91565b600060405180830381600087803b15801561192a57600080fd5b505af115801561193e573d6000803e3d6000fd5b505050505050505050505050505050505061195761246a565b50565b8061196490613d6c565b8060200151611976826000015161075e565b146119b6576040517f08c379a00000000000000000000000000000000000000000000000000000000081526004016119ad90613dcb565b60405180910390fd5b6119d1816000015160000151826020015183604001516122a4565b611a10576040517f08c379a0000000000000000000000000000000000000000000000000000000008152600401611a0790613e37565b60405180910390fd5b81808060000190611a219190613e66565b6000016020810190611a339190615146565b73ffffffffffffffffffffffffffffffffffffffff163373ffffffffffffffffffffffffffffffffffffffff1614611aa0576040517f08c379a0000000000000000000000000000000000000000000000000000000008152600401611a97906151bf565b60405180910390fd5b7fffffffffffffffffffffffffffffffffffffffffffffffffffffffffffffffff6001600085602001358152602001908152602001600020819055507fc954dbcaf38dbaf01d8ac7f2d37afc45123081ade8ccf1efd7f23db2cfb62cb58360200135604051611b0f9190613949565b60405180910390a1505050565b611b24612257565b80611b2e90613d6c565b8060200151611b40826000015161075e565b14611b80576040517f08c379a0000000000000000000000000000000000000000000000000000000008152600401611b7790613dcb565b60405180910390fd5b611b9b816000015160000151826020015183604001516122a4565b611bda576040517f08c379a0000000000000000000000000000000000000000000000000000000008152600401611bd190613e37565b60405180910390fd5b600080611c04848060000190611bf09190613e66565b8060200190611bff9190613e8e565b61071b565b8080601f016020809104026020016040519081016040528093929190818152602001838380828437600081840152601f19601f820116905080830192505050505050509150915060016002811115611c5f57611c5e613ef1565b5b60ff168260f81c60ff1614611ca9576040517f08c379a0000000000000000000000000000000000000000000000000000000008152600401611ca09061522b565b60405180910390fd5b848060000190611cb9919061524b565b6000016020810190611ccb9190615146565b73ffffffffffffffffffffffffffffffffffffffff1663b102bfbe868060000190611cf6919061524b565b8060200190611d059190613e8e565b6040518363ffffffff1660e01b8152600401611d22929190615273565b602060405180830381865afa158015611d3f573d6000803e3d6000fd5b505050506040513d601f19601f82011682018060405250810190611d6391906143d5565b73ffffffffffffffffffffffffffffffffffffffff163373ffffffffffffffffffffffffffffffffffffffff1614611dd0576040517f08c379a0000000000000000000000000000000000000000000000000000000008152600401611dc7906152e3565b60405180910390fd5b600081806020019051810190611de6919061596b565b90508060e001516000015173ffffffffffffffffffffffffffffffffffffffff1663b102bfbe8260e00151602001516040518263ffffffff1660e01b8152600401611e319190613b5e565b602060405180830381865afa158015611e4e573d6000803e3d6000fd5b505050506040513d601f19601f82011682018060405250810190611e7291906143d5565b73ffffffffffffffffffffffffffffffffffffffff16858060000190611e989190613e66565b6000016020810190611eaa9190615146565b73ffffffffffffffffffffffffffffffffffffffff1614611f00576040517f08c379a0000000000000000000000000000000000000000000000000000000008152600401611ef790615a26565b60405180910390fd5b60008160800151511115611f9f573373ffffffffffffffffffffffffffffffffffffffff168160800151876040013581518110611f4057611f3f614716565b5b602002602001015173ffffffffffffffffffffffffffffffffffffffff1614611f9e576040517f08c379a0000000000000000000000000000000000000000000000000000000008152600401611f9590615a92565b60405180910390fd5b5b611fa986826126e5565b6000611fb58783612807565b90506000670de0b6b3a76400008261016001516000015173ffffffffffffffffffffffffffffffffffffffff1663f09f4079846101600151602001518561020001516040518363ffffffff1660e01b8152600401612014929190614aa8565b6020604051808303816000875af1158015612033573d6000803e3d6000fd5b505050506040513d601f19601f820116820180604052508101906120579190614a7b565b83600001516120669190614b0e565b6120709190614b7f565b90506000670de0b6b3a76400008361018001516000015173ffffffffffffffffffffffffffffffffffffffff1663f09f4079856101800151602001518661020001516040518363ffffffff1660e01b81526004016120cf929190614aa8565b6020604051808303816000875af11580156120ee573d6000803e3d6000fd5b505050506040513d601f19601f820116820180604052508101906121129190614a7b565b84602001516121219190614b0e565b61212b9190614b7f565b905060008460a001511561216a5782670de0b6b3a7640000838561214f9190614bb0565b6121599190614b0e565b6121639190614b7f565b905061218c565b82670de0b6b3a76400008361217f9190614b0e565b6121899190614b7f565b90505b83608001518110156121d3576040517f08c379a00000000000000000000000000000000000000000000000000000000081526004016121ca90615afe565b60405180910390fd5b42846101e00181815250506121e784612af7565b60006121f285612e73565b90507f21a6001862375a91bbf0eff278ae1eaee77323f67273ed674a16f9607888696f818b602001353360405161222b93929190615b1e565b60405180910390a150505050505050505061224461246a565b5050565b6000612252612f57565b905090565b600280540361229b576040517f08c379a000000000000000000000000000000000000000000000000000000000815260040161229290615ba8565b60405180910390fd5b60028081905550565b60008060006122b38585613071565b91509150600060048111156122cb576122ca613ef1565b5b8160048111156122de576122dd613ef1565b5b14801561231657508573ffffffffffffffffffffffffffffffffffffffff168273ffffffffffffffffffffffffffffffffffffffff16145b1561232657600192505050612463565b6000808773ffffffffffffffffffffffffffffffffffffffff16631626ba7e60e01b888860405160240161235b929190615bc8565b604051602081830303815290604052907bffffffffffffffffffffffffffffffffffffffffffffffffffffffff19166020820180517bffffffffffffffffffffffffffffffffffffffffffffffffffffffff83818316178352505050506040516123c59190615bf8565b600060405180830381855afa9150503d8060008114612400576040519150601f19603f3d011682016040523d82523d6000602084013e612405565b606091505b5091509150818015612418575060208151145b801561245c5750631626ba7e60e01b7bffffffffffffffffffffffffffffffffffffffffffffffffffffffff19168180602001905181019061245a9190615c24565b145b9450505050505b9392505050565b6001600281905550565b6000612487612481612f57565b836130c2565b9050919050565b600080826101c001516000015190508260a00151836101e001516124b29190614bb0565b4211156124c35760019150506126e0565b60008173ffffffffffffffffffffffffffffffffffffffff1663edd9e4b5856040518263ffffffff1660e01b81526004016124fe91906146f4565b6020604051808303816000875af115801561251d573d6000803e3d6000fd5b505050506040513d601f19601f820116820180604052508101906125419190614a7b565b905060008461012001516000015173ffffffffffffffffffffffffffffffffffffffff1663458a83c3866040518263ffffffff1660e01b815260040161258791906146f4565b6020604051808303816000875af11580156125a6573d6000803e3d6000fd5b505050506040513d601f19601f820116820180604052508101906125ca9190614a7b565b905060008561016001516000015173ffffffffffffffffffffffffffffffffffffffff16632e820849876101600151602001518861020001516040518363ffffffff1660e01b8152600401612620929190614aa8565b6020604051808303816000875af115801561263f573d6000803e3d6000fd5b505050506040513d601f19601f820116820180604052508101906126639190614a7b565b9050600082670de0b6b3a76400008389600001516126819190614b0e565b61268b9190614b7f565b6126959190614bb0565b9050600081670de0b6b3a7640000866126ae9190614b0e565b6126b89190614b7f565b905087608001518110156126d557600196505050505050506126e0565b600096505050505050505b919050565b806101a00151612747578160e00160208101906127029190615c66565b15612742576040517f08c379a000000000000000000000000000000000000000000000000000000000815260040161273990615cdf565b60405180910390fd5b61279a565b8160e001602081019061275a9190615c66565b612799576040517f08c379a000000000000000000000000000000000000000000000000000000000815260040161279090615d4b565b60405180910390fd5b5b80600001518260600135815181106127b5576127b4614716565b5b602002602001015182602001351015612803576040517f08c379a00000000000000000000000000000000000000000000000000000000081526004016127fa90615db7565b60405180910390fd5b5050565b61280f61323f565b8160c001518160a0018181525050816101000151816101200181905250816101200151816101400181905250816020015183606001358151811061285657612855614716565b5b6020026020010151816040018190525081610140015183606001358151811061288257612881614716565b5b602002602001015181610160018190525081604001518360800135815181106128ae576128ad614716565b5b602002602001015181606001819052508161016001518360800135815181106128da576128d9614716565b5b6020026020010151816101800181905250816060015183608001358151811061290657612905614716565b5b60200260200101518160800181815250508161018001518360a001358151811061293357612932614716565b5b6020026020010151816101a0019073ffffffffffffffffffffffffffffffffffffffff16908173ffffffffffffffffffffffffffffffffffffffff16815250508260200135816000018181525050828061010001906129929190615dd7565b60000135816020018181525050828060c001906129af9190613e8e565b8080601f016020809104026020016040519081016040528093929190818152602001838380828437600081840152601f19601f82011690508083019250505050505050816102000181905250816101a0015115612aaa578160e001518160e00181905250828060000190612a23919061524b565b612a2c90615e6b565b81610100018190525082806101000190612a469190615dd7565b8060200190612a559190613e8e565b8080601f016020809104026020016040519081016040528093929190818152602001838380828437600081840152601f19601f82011690508083019250505050505050816101c0015160200181905250612af1565b828060000190612aba919061524b565b612ac390615e6b565b8160e001819052508160e00151816101000181905250816101c0015160200151816101c00151602001819052505b92915050565b600080826101a0015173ffffffffffffffffffffffffffffffffffffffff166040516024016040516020818303038152906040527f64f2d4b9000000000000000000000000000000000000000000000000000000007bffffffffffffffffffffffffffffffffffffffffffffffffffffffff19166020820180517bffffffffffffffffffffffffffffffffffffffffffffffffffffffff8381831617835250505050604051612ba69190615bf8565b6000604051808303816000865af19150503d8060008114612be3576040519150601f19603f3d011682016040523d82523d6000602084013e612be8565b606091505b509150915081612c2d576040517f08c379a0000000000000000000000000000000000000000000000000000000008152600401612c2490615ef0565b60405180910390fd5b80806020019051810190612c419190615f4e565b836101c001516000019073ffffffffffffffffffffffffffffffffffffffff16908173ffffffffffffffffffffffffffffffffffffffff16815250508260e001516000015173ffffffffffffffffffffffffffffffffffffffff1663a9d7d6c8846101c0015160000151856040015186600001518760e00151602001518861020001516040518663ffffffff1660e01b8152600401612ce4959493929190615f7b565b600060405180830381600087803b158015612cfe57600080fd5b505af1158015612d12573d6000803e3d6000fd5b505050508261010001516000015173ffffffffffffffffffffffffffffffffffffffff1663a9d7d6c8846101c001516000015185606001518660200151876101000151602001518861020001516040518663ffffffff1660e01b8152600401612d7f959493929190615f7b565b600060405180830381600087803b158015612d9957600080fd5b505af1158015612dad573d6000803e3d6000fd5b50505050826101c001516000015173ffffffffffffffffffffffffffffffffffffffff16635aa56409846040518263ffffffff1660e01b8152600401612df391906146f4565b600060405180830381600087803b158015612e0d57600080fd5b505af1158015612e21573d6000803e3d6000fd5b50505050612e2e8361248e565b15612e6e576040517f08c379a0000000000000000000000000000000000000000000000000000000008152600401612e659061602f565b60405180910390fd5b505050565b612e7b613305565b3081600001516000019073ffffffffffffffffffffffffffffffffffffffff16908173ffffffffffffffffffffffffffffffffffffffff1681525050612ef5600280811115612ecd57612ecc613ef1565b5b60f81b83604051602001612ee191906146f4565b60405160208183030381529060405261083c565b8160000151602001819052507fffffffffffffffffffffffffffffffffffffffffffffffffffffffffffffffff81600001516080018181525050612f3c816000015161075e565b816020018181525050612f5281602001516130f5565b919050565b60007f000000000000000000000000000000000000000000000000000000000000000073ffffffffffffffffffffffffffffffffffffffff163073ffffffffffffffffffffffffffffffffffffffff16148015612fd357507f000000000000000000000000000000000000000000000000000000000000000046145b15613000577f0000000000000000000000000000000000000000000000000000000000000000905061306e565b61306b7f00000000000000000000000000000000000000000000000000000000000000007f00000000000000000000000000000000000000000000000000000000000000007f0000000000000000000000000000000000000000000000000000000000000000613123565b90505b90565b60008060418351036130b25760008060006020860151925060408601519150606086015160001a90506130a68782858561315d565b945094505050506130bb565b60006002915091505b9250929050565b600082826040516020016130d79291906160c7565b60405160208183030381529060405280519060200120905092915050565b600160008083815260200190815260200160002060006101000a81548160ff02191690831515021790555050565b6000838383463060405160200161313e9594939291906160fe565b6040516020818303038152906040528051906020012090509392505050565b6000807f7fffffffffffffffffffffffffffffff5d576e7357a4501ddfe92f46681b20a08360001c1115613198576000600391509150613236565b6000600187878787604051600081526020016040526040516131bd949392919061616d565b6020604051602081039080840390855afa1580156131df573d6000803e3d6000fd5b505050602060405103519050600073ffffffffffffffffffffffffffffffffffffffff168173ffffffffffffffffffffffffffffffffffffffff160361322d57600060019250925050613236565b80600092509250505b94509492505050565b60405180610220016040528060008152602001600081526020016060815260200160608152602001600081526020016000815260200160001515815260200161328661332f565b815260200161329361332f565b81526020016132a061332f565b81526020016132ad61332f565b81526020016132ba61332f565b81526020016132c761332f565b8152602001600073ffffffffffffffffffffffffffffffffffffffff1681526020016132f161332f565b815260200160008152602001606081525090565b604051806060016040528061331861335f565b815260200160008019168152602001606081525090565b6040518060400160405280600073ffffffffffffffffffffffffffffffffffffffff168152602001606081525090565b6040518060a00160405280600073ffffffffffffffffffffffffffffffffffffffff168152602001606081526020016000815260200160008152602001600081525090565b6000604051905090565b600080fd5b600080fd5b600080fd5b6000606082840312156133d3576133d26133b8565b5b81905092915050565b6000602082840312156133f2576133f16133ae565b5b600082013567ffffffffffffffff8111156134105761340f6133b3565b5b61341c848285016133bd565b91505092915050565b6000819050919050565b61343881613425565b811461344357600080fd5b50565b6000813590506134558161342f565b92915050565b600080fd5b600080fd5b6000601f19601f8301169050919050565b7f4e487b7100000000000000000000000000000000000000000000000000000000600052604160045260246000fd5b6134ae82613465565b810181811067ffffffffffffffff821117156134cd576134cc613476565b5b80604052505050565b60006134e06133a4565b90506134ec82826134a5565b919050565b600067ffffffffffffffff82111561350c5761350b613476565b5b61351582613465565b9050602081019050919050565b82818337600083830152505050565b600061354461353f846134f1565b6134d6565b9050828152602081018484840111156135605761355f613460565b5b61356b848285613522565b509392505050565b600082601f8301126135885761358761345b565b5b8135613598848260208601613531565b91505092915050565b600080604083850312156135b8576135b76133ae565b5b60006135c685828601613446565b925050602083013567ffffffffffffffff8111156135e7576135e66133b3565b5b6135f385828601613573565b9150509250929050565b60007fffffffff0000000000000000000000000000000000000000000000000000000082169050919050565b613632816135fd565b82525050565b600060208201905061364d6000830184613629565b92915050565b600080fd5b600080fd5b60008083601f8401126136735761367261345b565b5b8235905067ffffffffffffffff8111156136905761368f613653565b5b6020830191508360018202830111156136ac576136ab613658565b5b9250929050565b600080602083850312156136ca576136c96133ae565b5b600083013567ffffffffffffffff8111156136e8576136e76133b3565b5b6136f48582860161365d565b92509250509250929050565b60007fff0000000000000000000000000000000000000000000000000000000000000082169050919050565b61373581613700565b82525050565b600082825260208201905092915050565b6000613758838561373b565b9350613765838584613522565b61376e83613465565b840190509392505050565b600060408201905061378e600083018661372c565b81810360208301526137a181848661374c565b9050949350505050565b600080fd5b600080fd5b600073ffffffffffffffffffffffffffffffffffffffff82169050919050565b60006137e0826137b5565b9050919050565b6137f0816137d5565b81146137fb57600080fd5b50565b60008135905061380d816137e7565b92915050565b6000819050919050565b61382681613813565b811461383157600080fd5b50565b6000813590506138438161381d565b92915050565b600060a0828403121561385f5761385e6137ab565b5b61386960a06134d6565b90506000613879848285016137fe565b600083015250602082013567ffffffffffffffff81111561389d5761389c6137b0565b5b6138a984828501613573565b60208301525060406138bd84828501613834565b60408301525060606138d184828501613834565b60608301525060806138e584828501613834565b60808301525092915050565b600060208284031215613907576139066133ae565b5b600082013567ffffffffffffffff811115613925576139246133b3565b5b61393184828501613849565b91505092915050565b61394381613425565b82525050565b600060208201905061395e600083018461393a565b92915050565b600081519050919050565b600082825260208201905092915050565b60005b8381101561399e578082015181840152602081019050613983565b60008484015250505050565b60006139b582613964565b6139bf818561396f565b93506139cf818560208601613980565b6139d881613465565b840191505092915050565b600060208201905081810360008301526139fd81846139aa565b905092915050565b613a0e81613813565b82525050565b6000602082019050613a296000830184613a05565b92915050565b600060208284031215613a4557613a446133ae565b5b6000613a5384828501613446565b91505092915050565b60008115159050919050565b613a7181613a5c565b82525050565b6000602082019050613a8c6000830184613a68565b92915050565b613a9b81613700565b8114613aa657600080fd5b50565b600081359050613ab881613a92565b92915050565b60008060408385031215613ad557613ad46133ae565b5b6000613ae385828601613aa9565b925050602083013567ffffffffffffffff811115613b0457613b036133b3565b5b613b1085828601613573565b9150509250929050565b600081519050919050565b6000613b3082613b1a565b613b3a818561373b565b9350613b4a818560208601613980565b613b5381613465565b840191505092915050565b60006020820190508181036000830152613b788184613b25565b905092915050565b600080600060608486031215613b9957613b986133ae565b5b6000613ba7868287016137fe565b9350506020613bb886828701613446565b925050604084013567ffffffffffffffff811115613bd957613bd86133b3565b5b613be586828701613573565b9150509250925092565b600060608284031215613c0557613c046137ab565b5b613c0f60606134d6565b9050600082013567ffffffffffffffff811115613c2f57613c2e6137b0565b5b613c3b84828501613849565b6000830152506020613c4f84828501613446565b602083015250604082013567ffffffffffffffff811115613c7357613c726137b0565b5b613c7f84828501613573565b60408301525092915050565b600060208284031215613ca157613ca06133ae565b5b600082013567ffffffffffffffff811115613cbf57613cbe6133b3565b5b613ccb84828501613bef565b91505092915050565b60006101208284031215613ceb57613cea6133b8565b5b81905092915050565b60008060408385031215613d0b57613d0a6133ae565b5b600083013567ffffffffffffffff811115613d2957613d286133b3565b5b613d3585828601613cd4565b925050602083013567ffffffffffffffff811115613d5657613d556133b3565b5b613d62858286016133bd565b9150509250929050565b6000613d783683613bef565b9050919050565b7f54726163746f723a20696e76616c696420686173680000000000000000000000600082015250565b6000613db560158361396f565b9150613dc082613d7f565b602082019050919050565b60006020820190508181036000830152613de481613da8565b9050919050565b7f54726163746f723a20696e76616c6964207369676e6174757265000000000000600082015250565b6000613e21601a8361396f565b9150613e2c82613deb565b602082019050919050565b60006020820190508181036000830152613e5081613e14565b9050919050565b600080fd5b600080fd5b600080fd5b60008235600160a003833603038112613e8257613e81613e57565b5b80830191505092915050565b60008083356001602003843603038112613eab57613eaa613e57565b5b80840192508235915067ffffffffffffffff821115613ecd57613ecc613e5c565b5b602083019250600182023603831315613ee957613ee8613e61565b5b509250929050565b7f4e487b7100000000000000000000000000000000000000000000000000000000600052602160045260246000fd5b7f756e77696e64506f736974696f6e3a20696e76616c696420646174612074797060008201527f6500000000000000000000000000000000000000000000000000000000000000602082015250565b6000613f7c60218361396f565b9150613f8782613f20565b604082019050919050565b60006020820190508181036000830152613fab81613f6f565b9050919050565b600081519050613fc18161381d565b92915050565b6000613fda613fd5846134f1565b6134d6565b905082815260208101848484011115613ff657613ff5613460565b5b614001848285613980565b509392505050565b600082601f83011261401e5761401d61345b565b5b815161402e848260208601613fc7565b91505092915050565b61404081613a5c565b811461404b57600080fd5b50565b60008151905061405d81614037565b92915050565b600081519050614072816137e7565b92915050565b60006040828403121561408e5761408d6137ab565b5b61409860406134d6565b905060006140a884828501614063565b600083015250602082015167ffffffffffffffff8111156140cc576140cb6137b0565b5b6140d884828501614009565b60208301525092915050565b600061022082840312156140fb576140fa6137ab565b5b6141066102206134d6565b9050600061411684828501613fb2565b600083015250602061412a84828501613fb2565b602083015250604082015167ffffffffffffffff81111561414e5761414d6137b0565b5b61415a84828501614009565b604083015250606082015167ffffffffffffffff81111561417e5761417d6137b0565b5b61418a84828501614009565b606083015250608061419e84828501613fb2565b60808301525060a06141b284828501613fb2565b60a08301525060c06141c68482850161404e565b60c08301525060e082015167ffffffffffffffff8111156141ea576141e96137b0565b5b6141f684828501614078565b60e08301525061010082015167ffffffffffffffff81111561421b5761421a6137b0565b5b61422784828501614078565b6101008301525061012082015167ffffffffffffffff81111561424d5761424c6137b0565b5b61425984828501614078565b6101208301525061014082015167ffffffffffffffff81111561427f5761427e6137b0565b5b61428b84828501614078565b6101408301525061016082015167ffffffffffffffff8111156142b1576142b06137b0565b5b6142bd84828501614078565b6101608301525061018082015167ffffffffffffffff8111156142e3576142e26137b0565b5b6142ef84828501614078565b610180830152506101a061430584828501614063565b6101a0830152506101c082015167ffffffffffffffff81111561432b5761432a6137b0565b5b61433784828501614078565b6101c0830152506101e061434d84828501613fb2565b6101e08301525061020082015167ffffffffffffffff811115614373576143726137b0565b5b61437f84828501614009565b6102008301525092915050565b6000602082840312156143a2576143a16133ae565b5b600082015167ffffffffffffffff8111156143c0576143bf6133b3565b5b6143cc848285016140e4565b91505092915050565b6000602082840312156143eb576143ea6133ae565b5b60006143f984828501614063565b91505092915050565b7f6572726f723a2063616c6c6572206973206e6f742074686520626f72726f776560008201527f7200000000000000000000000000000000000000000000000000000000000000602082015250565b600061445e60218361396f565b915061446982614402565b604082019050919050565b6000602082019050818103600083015261448d81614451565b9050919050565b61449d81613813565b82525050565b600082825260208201905092915050565b60006144bf82613b1a565b6144c981856144a3565b93506144d9818560208601613980565b6144e281613465565b840191505092915050565b6144f681613a5c565b82525050565b614505816137d5565b82525050565b600060408301600083015161452360008601826144fc565b506020830151848203602086015261453b82826144b4565b9150508091505092915050565b6000610220830160008301516145616000860182614494565b5060208301516145746020860182614494565b506040830151848203604086015261458c82826144b4565b915050606083015184820360608601526145a682826144b4565b91505060808301516145bb6080860182614494565b5060a08301516145ce60a0860182614494565b5060c08301516145e160c08601826144ed565b5060e083015184820360e08601526145f9828261450b565b915050610100830151848203610100860152614615828261450b565b915050610120830151848203610120860152614631828261450b565b91505061014083015184820361014086015261464d828261450b565b915050610160830151848203610160860152614669828261450b565b915050610180830151848203610180860152614685828261450b565b9150506101a083015161469c6101a08601826144fc565b506101c08301518482036101c08601526146b6828261450b565b9150506101e08301516146cd6101e0860182614494565b506102008301518482036102008601526146e782826144b4565b9150508091505092915050565b6000602082019050818103600083015261470e8184614548565b905092915050565b7f4e487b7100000000000000000000000000000000000000000000000000000000600052603260045260246000fd5b600080fd5b600080fd5b6000808585111561476357614762614745565b5b838611156147745761477361474a565b5b6001850283019150848603905094509492505050565b614793816137d5565b82525050565b600060c0820190506147ae600083018961393a565b6147bb602083018861478a565b6147c8604083018761393a565b6147d56060830186613a05565b6147e26080830185613a05565b6147ef60a0830184613a05565b979650505050505050565b6000819050919050565b61481561481082613700565b6147fa565b82525050565b600081905092915050565b600061483182613b1a565b61483b818561481b565b935061484b818560208601613980565b80840191505092915050565b60006148638285614804565b6001820191506148738284614826565b91508190509392505050565b600060a08301600083015161489760008601826144fc565b50602083015184820360208601526148af82826144b4565b91505060408301516148c46040860182614494565b5060608301516148d76060860182614494565b5060808301516148ea6080860182614494565b508091505092915050565b6148fe81613425565b82525050565b60006060830160008301518482036000860152614921828261487f565b915050602083015161493660208601826148f5565b506040830151848203604086015261494e82826144b4565b9150508091505092915050565b600060208201905081810360008301526149758184614904565b905092915050565b7f4c6f616e20616c726561647920636c6f7365642e000000000000000000000000600082015250565b60006149b360148361396f565b91506149be8261497d565b602082019050919050565b600060208201905081810360008301526149e2816149a6565b9050919050565b7f4c6f616e206973206e6f7420656c696769626c6520666f72206c69717569646160008201527f74696f6e00000000000000000000000000000000000000000000000000000000602082015250565b6000614a4560248361396f565b9150614a50826149e9565b604082019050919050565b60006020820190508181036000830152614a7481614a38565b9050919050565b600060208284031215614a9157614a906133ae565b5b6000614a9f84828501613fb2565b91505092915050565b60006040820190508181036000830152614ac28185613b25565b90508181036020830152614ad68184613b25565b90509392505050565b7f4e487b7100000000000000000000000000000000000000000000000000000000600052601160045260246000fd5b6000614b1982613813565b9150614b2483613813565b9250828202614b3281613813565b91508282048414831517614b4957614b48614adf565b5b5092915050565b7f4e487b7100000000000000000000000000000000000000000000000000000000600052601260045260246000fd5b6000614b8a82613813565b9150614b9583613813565b925082614ba557614ba4614b50565b5b828204905092915050565b6000614bbb82613813565b9150614bc683613813565b9250828201905080821115614bde57614bdd614adf565b5b92915050565b6000614bef82613813565b9150614bfa83613813565b9250828203905081811115614c1257614c11614adf565b5b92915050565b6000608082019050614c2d600083018761478a565b8181036020830152614c3f8186613b25565b9050614c4e6040830185613a05565b8181036060830152614c608184613b25565b905095945050505050565b600080fd5b60008235600160a003833603038112614c8c57614c8b614c6b565b5b82810191505092915050565b6000614ca760208401846137fe565b905092915050565b600080fd5b600080fd5b60008083356001602003843603038112614cd657614cd5614c6b565b5b83810192508235915060208301925067ffffffffffffffff821115614cfe57614cfd614caf565b5b600182023603831315614d1457614d13614cb4565b5b509250929050565b6000614d2883856144a3565b9350614d35838584613522565b614d3e83613465565b840190509392505050565b6000614d586020840184613834565b905092915050565b600060a08301614d736000840184614c98565b614d8060008601826144fc565b50614d8e6020840184614cb9565b8583036020870152614da1838284614d1c565b92505050614db26040840184614d49565b614dbf6040860182614494565b50614dcd6060840184614d49565b614dda6060860182614494565b50614de86080840184614d49565b614df56080860182614494565b508091505092915050565b6000614e0f6020840184613446565b905092915050565b600060608301614e2a6000840184614c70565b8482036000860152614e3c8282614d60565b915050614e4c6020840184614e00565b614e5960208601826148f5565b50614e676040840184614cb9565b8583036040870152614e7a838284614d1c565b925050508091505092915050565b60006060820190508181036000830152614ea28186614e17565b9050614eb1602083018561478a565b614ebe604083018461478a565b949350505050565b60008160601b9050919050565b6000614ede82614ec6565b9050919050565b6000614ef082614ed3565b9050919050565b614f08614f03826137d5565b614ee5565b82525050565b6000614f1a8284614ef7565b60148201915081905092915050565b600060c0820190508181036000830152614f438189614e17565b9050614f52602083018861478a565b614f5f604083018761478a565b614f6c6060830186613a05565b614f796080830185613a05565b614f8660a0830184613a05565b979650505050505050565b6000602082019050614fa6600083018461478a565b92915050565b7f636c6f7365506f736974696f6e3a20496e76616c696420646174612074797065600082015250565b6000614fe260208361396f565b9150614fed82614fac565b602082019050919050565b6000602082019050818103600083015261501181614fd5565b9050919050565b7f6572726f723a2043616c6c6572206973206e6f742074686520626f72726f776560008201527f7200000000000000000000000000000000000000000000000000000000000000602082015250565b600061507460218361396f565b915061507f82615018565b604082019050919050565b600060208201905081810360008301526150a381615067565b9050919050565b600060408201905081810360008301526150c48185614548565b90506150d36020830184613a05565b9392505050565b7f4e6f7420656e6f75676820746f20636c6f736520746865206c6f616e00000000600082015250565b6000615110601c8361396f565b915061511b826150da565b602082019050919050565b6000602082019050818103600083015261513f81615103565b9050919050565b60006020828403121561515c5761515b6133ae565b5b600061516a848285016137fe565b91505092915050565b7f54726163746f723a20696e76616c69642073656e646572000000000000000000600082015250565b60006151a960178361396f565b91506151b482615173565b602082019050919050565b600060208201905081810360008301526151d88161519c565b9050919050565b7f426c75657072696e74206e6f7420616e204f7264657220747970650000000000600082015250565b6000615215601b8361396f565b9150615220826151df565b602082019050919050565b6000602082019050818103600083015261524481615208565b9050919050565b60008235600160400383360303811261526757615266613e57565b5b80830191505092915050565b6000602082019050818103600083015261528e81848661374c565b90509392505050565b7f66696c6c4f726465723a2054616b657220213d206d73672e73656e6465720000600082015250565b60006152cd601e8361396f565b91506152d882615297565b602082019050919050565b600060208201905081810360008301526152fc816152c0565b9050919050565b600067ffffffffffffffff82111561531e5761531d613476565b5b602082029050602081019050919050565b600061534261533d84615303565b6134d6565b9050808382526020820190506020840283018581111561536557615364613658565b5b835b8181101561538e578061537a8882613fb2565b845260208401935050602081019050615367565b5050509392505050565b600082601f8301126153ad576153ac61345b565b5b81516153bd84826020860161532f565b91505092915050565b600067ffffffffffffffff8211156153e1576153e0613476565b5b602082029050602081019050919050565b6000615405615400846153c6565b6134d6565b9050808382526020820190506020840283018581111561542857615427613658565b5b835b8181101561546f57805167ffffffffffffffff81111561544d5761544c61345b565b5b80860161545a8982614009565b8552602085019450505060208101905061542a565b5050509392505050565b600082601f83011261548e5761548d61345b565b5b815161549e8482602086016153f2565b91505092915050565b600067ffffffffffffffff8211156154c2576154c1613476565b5b602082029050602081019050919050565b60006154e66154e1846154a7565b6134d6565b9050808382526020820190506020840283018581111561550957615508613658565b5b835b81811015615532578061551e8882614063565b84526020840193505060208101905061550b565b5050509392505050565b600082601f8301126155515761555061345b565b5b81516155618482602086016154d3565b91505092915050565b600067ffffffffffffffff82111561558557615584613476565b5b602082029050602081019050919050565b60006155a96155a48461556a565b6134d6565b905080838252602082019050602084028301858111156155cc576155cb613658565b5b835b8181101561561357805167ffffffffffffffff8111156155f1576155f061345b565b5b8086016155fe8982614078565b855260208501945050506020810190506155ce565b5050509392505050565b600082601f8301126156325761563161345b565b5b8151615642848260208601615596565b91505092915050565b600060408284031215615661576156606137ab565b5b61566b60406134d6565b9050600061567b84828501613fb2565b600083015250602082015167ffffffffffffffff81111561569f5761569e6137b0565b5b6156ab84828501614009565b60208301525092915050565b60006101e082840312156156ce576156cd6137ab565b5b6156d96101e06134d6565b9050600082015167ffffffffffffffff8111156156f9576156f86137b0565b5b61570584828501615398565b600083015250602082015167ffffffffffffffff811115615729576157286137b0565b5b61573584828501615479565b602083015250604082015167ffffffffffffffff811115615759576157586137b0565b5b61576584828501615479565b604083015250606082015167ffffffffffffffff811115615789576157886137b0565b5b61579584828501615398565b606083015250608082015167ffffffffffffffff8111156157b9576157b86137b0565b5b6157c58482850161553c565b60808301525060a06157d98482850161404e565b60a08301525060c06157ed84828501613fb2565b60c08301525060e082015167ffffffffffffffff811115615811576158106137b0565b5b61581d84828501614078565b60e08301525061010082015167ffffffffffffffff811115615842576158416137b0565b5b61584e84828501614078565b6101008301525061012082015167ffffffffffffffff811115615874576158736137b0565b5b61588084828501614078565b6101208301525061014082015167ffffffffffffffff8111156158a6576158a56137b0565b5b6158b28482850161561d565b6101408301525061016082015167ffffffffffffffff8111156158d8576158d76137b0565b5b6158e48482850161561d565b6101608301525061018082015167ffffffffffffffff81111561590a576159096137b0565b5b6159168482850161553c565b610180830152506101a061592c8482850161404e565b6101a0830152506101c082015167ffffffffffffffff811115615952576159516137b0565b5b61595e8482850161564b565b6101c08301525092915050565b600060208284031215615981576159806133ae565b5b600082015167ffffffffffffffff81111561599f5761599e6133b3565b5b6159ab848285016156b7565b91505092915050565b7f5075626c697368657220646f6573206e6f74206f776e206c656e64657220616360008201527f636f756e74200000000000000000000000000000000000000000000000000000602082015250565b6000615a1060268361396f565b9150615a1b826159b4565b604082019050919050565b60006020820190508181036000830152615a3f81615a03565b9050919050565b7f426f6f6b6b65657065723a20496e76616c69642074616b657200000000000000600082015250565b6000615a7c60198361396f565b9150615a8782615a46565b602082019050919050565b60006020820190508181036000830152615aab81615a6f565b9050919050565b7f6e6f7420656e6f75676820636f6c6c61746572616c0000000000000000000000600082015250565b6000615ae860158361396f565b9150615af382615ab2565b602082019050919050565b60006020820190508181036000830152615b1781615adb565b9050919050565b60006060820190508181036000830152615b388186614904565b9050615b47602083018561393a565b615b54604083018461478a565b949350505050565b7f5265656e7472616e637947756172643a207265656e7472616e742063616c6c00600082015250565b6000615b92601f8361396f565b9150615b9d82615b5c565b602082019050919050565b60006020820190508181036000830152615bc181615b85565b9050919050565b6000604082019050615bdd600083018561393a565b8181036020830152615bef8184613b25565b90509392505050565b6000615c048284614826565b915081905092915050565b600081519050615c1e8161342f565b92915050565b600060208284031215615c3a57615c396133ae565b5b6000615c4884828501615c0f565b91505092915050565b600081359050615c6081614037565b92915050565b600060208284031215615c7c57615c7b6133ae565b5b6000615c8a84828501615c51565b91505092915050565b7f6f666665722066696c6c206f66206f6666657200000000000000000000000000600082015250565b6000615cc960138361396f565b9150615cd482615c93565b602082019050919050565b60006020820190508181036000830152615cf881615cbc565b9050919050565b7f726571756573742066696c6c206f662072657175657374000000000000000000600082015250565b6000615d3560178361396f565b9150615d4082615cff565b602082019050919050565b60006020820190508181036000830152615d6481615d28565b9050919050565b7f6c6f616e416d6f756e7420746f6f20736d616c6c000000000000000000000000600082015250565b6000615da160148361396f565b9150615dac82615d6b565b602082019050919050565b60006020820190508181036000830152615dd081615d94565b9050919050565b600082356001604003833603038112615df357615df2613e57565b5b80830191505092915050565b600060408284031215615e1557615e146137ab565b5b615e1f60406134d6565b90506000615e2f848285016137fe565b600083015250602082013567ffffffffffffffff811115615e5357615e526137b0565b5b615e5f84828501613573565b60208301525092915050565b6000615e773683615dff565b9050919050565b7f666163746f7279206572726f723a2063726561746520636c6f6e65206661696c60008201527f6564000000000000000000000000000000000000000000000000000000000000602082015250565b6000615eda60228361396f565b9150615ee582615e7e565b604082019050919050565b60006020820190508181036000830152615f0981615ecd565b9050919050565b6000615f1b826137b5565b9050919050565b615f2b81615f10565b8114615f3657600080fd5b50565b600081519050615f4881615f22565b92915050565b600060208284031215615f6457615f636133ae565b5b6000615f7284828501615f39565b91505092915050565b600060a082019050615f90600083018861478a565b8181036020830152615fa28187613b25565b9050615fb16040830186613a05565b8181036060830152615fc38185613b25565b90508181036080830152615fd78184613b25565b90509695505050505050565b7f756e6865616c746879206465706c6f796d656e74000000000000000000000000600082015250565b600061601960148361396f565b915061602482615fe3565b602082019050919050565b600060208201905081810360008301526160488161600c565b9050919050565b600081905092915050565b7f1901000000000000000000000000000000000000000000000000000000000000600082015250565b600061609060028361604f565b915061609b8261605a565b600282019050919050565b6000819050919050565b6160c16160bc82613425565b6160a6565b82525050565b60006160d282616083565b91506160de82856160b0565b6020820191506160ee82846160b0565b6020820191508190509392505050565b600060a082019050616113600083018861393a565b616120602083018761393a565b61612d604083018661393a565b61613a6060830185613a05565b616147608083018461478a565b9695505050505050565b600060ff82169050919050565b61616781616151565b82525050565b6000608082019050616182600083018761393a565b61618f602083018661615e565b61619c604083018561393a565b6161a9606083018461393a565b9594505050505056fea2646970667358221220100662b70267b8c9972edaa9d5c463d61aa38ec7713705e3b4990cd38e42a94a64736f6c63430008130033",
  "linkReferences": {},
  "deployedLinkReferences": {}
}