{
  "_format": "hh-sol-artifact-1",
  "contractName": "Bookkeeper",
  "sourceName": "src/Bookkeeper.sol",
  "abi": [
    {
      "inputs": [],
      "stateMutability": "nonpayable",
      "type": "constructor"
    },
    {
      "anonymous": false,
      "inputs": [
        {
          "indexed": false,
          "internalType": "bytes32",
          "name": "blueprintHash",
          "type": "bytes32"
        }
      ],
      "name": "DestroyedBlueprint",
      "type": "event"
    },
    {
      "anonymous": false,
      "inputs": [
        {
          "components": [
            {
              "components": [
                {
                  "internalType": "address",
                  "name": "publisher",
                  "type": "address"
                },
                {
                  "internalType": "bytes",
                  "name": "data",
                  "type": "bytes"
                },
                {
                  "internalType": "uint256",
                  "name": "maxNonce",
                  "type": "uint256"
                },
                {
                  "internalType": "uint256",
                  "name": "startTime",
                  "type": "uint256"
                },
                {
                  "internalType": "uint256",
                  "name": "endTime",
                  "type": "uint256"
                }
              ],
              "internalType": "struct Blueprint",
              "name": "blueprint",
              "type": "tuple"
            },
            {
              "internalType": "bytes32",
              "name": "blueprintHash",
              "type": "bytes32"
            },
            {
              "internalType": "bytes",
              "name": "signature",
              "type": "bytes"
            }
          ],
          "indexed": false,
          "internalType": "struct SignedBlueprint",
          "name": "agreement",
          "type": "tuple"
        },
        {
          "indexed": false,
          "internalType": "bytes32",
          "name": "orderBlueprintHash",
          "type": "bytes32"
        },
        {
          "indexed": false,
          "internalType": "address",
          "name": "taker",
          "type": "address"
        }
      ],
      "name": "OrderFilled",
      "type": "event"
    },
    {
      "anonymous": false,
      "inputs": [
        {
          "components": [
            {
              "components": [
                {
                  "internalType": "address",
                  "name": "publisher",
                  "type": "address"
                },
                {
                  "internalType": "bytes",
                  "name": "data",
                  "type": "bytes"
                },
                {
                  "internalType": "uint256",
                  "name": "maxNonce",
                  "type": "uint256"
                },
                {
                  "internalType": "uint256",
                  "name": "startTime",
                  "type": "uint256"
                },
                {
                  "internalType": "uint256",
                  "name": "endTime",
                  "type": "uint256"
                }
              ],
              "internalType": "struct Blueprint",
              "name": "blueprint",
              "type": "tuple"
            },
            {
              "internalType": "bytes32",
              "name": "blueprintHash",
              "type": "bytes32"
            },
            {
              "internalType": "bytes",
              "name": "signature",
              "type": "bytes"
            }
          ],
          "indexed": false,
          "internalType": "struct SignedBlueprint",
          "name": "agreement",
          "type": "tuple"
        },
        {
          "indexed": false,
          "internalType": "address",
          "name": "position",
          "type": "address"
        },
        {
          "indexed": false,
          "internalType": "address",
          "name": "closer",
          "type": "address"
        },
        {
          "indexed": false,
          "internalType": "uint256",
          "name": "closeValue",
          "type": "uint256"
        },
        {
          "indexed": false,
          "internalType": "uint256",
          "name": "loanOrcale",
          "type": "uint256"
        },
        {
          "indexed": false,
          "internalType": "uint256",
          "name": "assessorCost",
          "type": "uint256"
        }
      ],
      "name": "PositionClosed",
      "type": "event"
    },
    {
      "anonymous": false,
      "inputs": [
        {
          "components": [
            {
              "components": [
                {
                  "internalType": "address",
                  "name": "publisher",
                  "type": "address"
                },
                {
                  "internalType": "bytes",
                  "name": "data",
                  "type": "bytes"
                },
                {
                  "internalType": "uint256",
                  "name": "maxNonce",
                  "type": "uint256"
                },
                {
                  "internalType": "uint256",
                  "name": "startTime",
                  "type": "uint256"
                },
                {
                  "internalType": "uint256",
                  "name": "endTime",
                  "type": "uint256"
                }
              ],
              "internalType": "struct Blueprint",
              "name": "blueprint",
              "type": "tuple"
            },
            {
              "internalType": "bytes32",
              "name": "blueprintHash",
              "type": "bytes32"
            },
            {
              "internalType": "bytes",
              "name": "signature",
              "type": "bytes"
            }
          ],
          "indexed": false,
          "internalType": "struct SignedBlueprint",
          "name": "agreement",
          "type": "tuple"
        },
        {
          "indexed": false,
          "internalType": "address",
          "name": "position",
          "type": "address"
        },
        {
          "indexed": false,
          "internalType": "address",
          "name": "liquidator",
          "type": "address"
        }
      ],
      "name": "PositionLiquidated",
      "type": "event"
    },
    {
      "anonymous": false,
      "inputs": [
        {
          "components": [
            {
              "components": [
                {
                  "internalType": "address",
                  "name": "publisher",
                  "type": "address"
                },
                {
                  "internalType": "bytes",
                  "name": "data",
                  "type": "bytes"
                },
                {
                  "internalType": "uint256",
                  "name": "maxNonce",
                  "type": "uint256"
                },
                {
                  "internalType": "uint256",
                  "name": "startTime",
                  "type": "uint256"
                },
                {
                  "internalType": "uint256",
                  "name": "endTime",
                  "type": "uint256"
                }
              ],
              "internalType": "struct Blueprint",
              "name": "blueprint",
              "type": "tuple"
            },
            {
              "internalType": "bytes32",
              "name": "blueprintHash",
              "type": "bytes32"
            },
            {
              "internalType": "bytes",
              "name": "signature",
              "type": "bytes"
            }
          ],
          "indexed": false,
          "internalType": "struct SignedBlueprint",
          "name": "signedBlueprint",
          "type": "tuple"
        }
      ],
      "name": "PublishedBlueprint",
      "type": "event"
    },
    {
      "anonymous": false,
      "inputs": [
        {
          "indexed": true,
          "internalType": "address",
          "name": "operator",
          "type": "address"
        },
        {
          "indexed": false,
          "internalType": "bytes32",
          "name": "blueprintHash",
          "type": "bytes32"
        }
      ],
      "name": "UsedBlueprint",
      "type": "event"
    },
    {
      "inputs": [],
      "name": "BLUEPRINT_TYPEHASH",
      "outputs": [
        {
          "internalType": "bytes32",
          "name": "",
          "type": "bytes32"
        }
      ],
      "stateMutability": "view",
      "type": "function"
    },
    {
      "inputs": [],
      "name": "PROTOCOL_NAME",
      "outputs": [
        {
          "internalType": "string",
          "name": "",
          "type": "string"
        }
      ],
      "stateMutability": "view",
      "type": "function"
    },
    {
      "inputs": [],
      "name": "PROTOCOL_VERSION",
      "outputs": [
        {
          "internalType": "string",
          "name": "",
          "type": "string"
        }
      ],
      "stateMutability": "view",
      "type": "function"
    },
    {
      "inputs": [
        {
          "internalType": "bytes32",
          "name": "",
          "type": "bytes32"
        }
      ],
      "name": "agreementClosed",
      "outputs": [
        {
          "internalType": "bool",
          "name": "",
          "type": "bool"
        }
      ],
      "stateMutability": "view",
      "type": "function"
    },
    {
      "inputs": [
        {
          "components": [
            {
              "components": [
                {
                  "internalType": "address",
                  "name": "publisher",
                  "type": "address"
                },
                {
                  "internalType": "bytes",
                  "name": "data",
                  "type": "bytes"
                },
                {
                  "internalType": "uint256",
                  "name": "maxNonce",
                  "type": "uint256"
                },
                {
                  "internalType": "uint256",
                  "name": "startTime",
                  "type": "uint256"
                },
                {
                  "internalType": "uint256",
                  "name": "endTime",
                  "type": "uint256"
                }
              ],
              "internalType": "struct Blueprint",
              "name": "blueprint",
              "type": "tuple"
            },
            {
              "internalType": "bytes32",
              "name": "blueprintHash",
              "type": "bytes32"
            },
            {
              "internalType": "bytes",
              "name": "signature",
              "type": "bytes"
            }
          ],
          "internalType": "struct SignedBlueprint",
          "name": "agreementBlueprint",
          "type": "tuple"
        }
      ],
      "name": "closePosition",
      "outputs": [],
      "stateMutability": "nonpayable",
      "type": "function"
    },
    {
      "inputs": [
        {
          "components": [
            {
              "components": [
                {
                  "internalType": "address",
                  "name": "publisher",
                  "type": "address"
                },
                {
                  "internalType": "bytes",
                  "name": "data",
                  "type": "bytes"
                },
                {
                  "internalType": "uint256",
                  "name": "maxNonce",
                  "type": "uint256"
                },
                {
                  "internalType": "uint256",
                  "name": "startTime",
                  "type": "uint256"
                },
                {
                  "internalType": "uint256",
                  "name": "endTime",
                  "type": "uint256"
                }
              ],
              "internalType": "struct Blueprint",
              "name": "blueprint",
              "type": "tuple"
            },
            {
              "internalType": "bytes32",
              "name": "blueprintHash",
              "type": "bytes32"
            },
            {
              "internalType": "bytes",
              "name": "signature",
              "type": "bytes"
            }
          ],
          "internalType": "struct SignedBlueprint",
          "name": "signedBlueprint",
          "type": "tuple"
        }
      ],
      "name": "destroyBlueprint",
      "outputs": [],
      "stateMutability": "nonpayable",
      "type": "function"
    },
    {
      "inputs": [],
      "name": "domainSeparator",
      "outputs": [
        {
          "internalType": "bytes32",
          "name": "",
          "type": "bytes32"
        }
      ],
      "stateMutability": "view",
      "type": "function"
    },
    {
      "inputs": [
        {
          "components": [
            {
              "components": [
                {
                  "internalType": "address",
                  "name": "addr",
                  "type": "address"
                },
                {
                  "internalType": "bytes",
                  "name": "parameters",
                  "type": "bytes"
                }
              ],
              "internalType": "struct PluginReference",
              "name": "account",
              "type": "tuple"
            },
            {
              "internalType": "uint256",
              "name": "loanAmount",
              "type": "uint256"
            },
            {
              "internalType": "uint256",
              "name": "takerIdx",
              "type": "uint256"
            },
            {
              "internalType": "uint256",
              "name": "loanAssetIdx",
              "type": "uint256"
            },
            {
              "internalType": "uint256",
              "name": "collAssetIdx",
              "type": "uint256"
            },
            {
              "internalType": "uint256",
              "name": "factoryIdx",
              "type": "uint256"
            },
            {
              "internalType": "bytes",
              "name": "fillerData",
              "type": "bytes"
            },
            {
              "internalType": "bool",
              "name": "isOfferFill",
              "type": "bool"
            },
            {
              "components": [
                {
                  "internalType": "uint256",
                  "name": "collAmount",
                  "type": "uint256"
                },
                {
                  "internalType": "bytes",
                  "name": "positionParameters",
                  "type": "bytes"
                }
              ],
              "internalType": "struct BorrowerConfig",
              "name": "borrowerConfig",
              "type": "tuple"
            }
          ],
          "internalType": "struct Fill",
          "name": "fill",
          "type": "tuple"
        },
        {
          "components": [
            {
              "components": [
                {
                  "internalType": "address",
                  "name": "publisher",
                  "type": "address"
                },
                {
                  "internalType": "bytes",
                  "name": "data",
                  "type": "bytes"
                },
                {
                  "internalType": "uint256",
                  "name": "maxNonce",
                  "type": "uint256"
                },
                {
                  "internalType": "uint256",
                  "name": "startTime",
                  "type": "uint256"
                },
                {
                  "internalType": "uint256",
                  "name": "endTime",
                  "type": "uint256"
                }
              ],
              "internalType": "struct Blueprint",
              "name": "blueprint",
              "type": "tuple"
            },
            {
              "internalType": "bytes32",
              "name": "blueprintHash",
              "type": "bytes32"
            },
            {
              "internalType": "bytes",
              "name": "signature",
              "type": "bytes"
            }
          ],
          "internalType": "struct SignedBlueprint",
          "name": "orderBlueprint",
          "type": "tuple"
        }
      ],
      "name": "fillOrder",
      "outputs": [],
      "stateMutability": "nonpayable",
      "type": "function"
    },
    {
      "inputs": [
        {
          "components": [
            {
              "internalType": "address",
              "name": "publisher",
              "type": "address"
            },
            {
              "internalType": "bytes",
              "name": "data",
              "type": "bytes"
            },
            {
              "internalType": "uint256",
              "name": "maxNonce",
              "type": "uint256"
            },
            {
              "internalType": "uint256",
              "name": "startTime",
              "type": "uint256"
            },
            {
              "internalType": "uint256",
              "name": "endTime",
              "type": "uint256"
            }
          ],
          "internalType": "struct Blueprint",
          "name": "blueprint",
          "type": "tuple"
        }
      ],
      "name": "getBlueprintHash",
      "outputs": [
        {
          "internalType": "bytes32",
          "name": "",
          "type": "bytes32"
        }
      ],
      "stateMutability": "view",
      "type": "function"
    },
    {
      "inputs": [],
      "name": "getChainId",
      "outputs": [
        {
          "internalType": "uint256",
          "name": "",
          "type": "uint256"
        }
      ],
      "stateMutability": "view",
      "type": "function"
    },
    {
      "inputs": [
        {
          "internalType": "bytes32",
          "name": "blueprintHash",
          "type": "bytes32"
        },
        {
          "internalType": "bytes",
          "name": "",
          "type": "bytes"
        }
      ],
      "name": "isValidSignature",
      "outputs": [
        {
          "internalType": "bytes4",
          "name": "magicValue",
          "type": "bytes4"
        }
      ],
      "stateMutability": "view",
      "type": "function"
    },
    {
      "inputs": [
        {
          "internalType": "address",
          "name": "signer",
          "type": "address"
        },
        {
          "internalType": "bytes32",
          "name": "hash",
          "type": "bytes32"
        },
        {
          "internalType": "bytes",
          "name": "signature",
          "type": "bytes"
        }
      ],
      "name": "isValidSignatureNow",
      "outputs": [
        {
          "internalType": "bool",
          "name": "",
          "type": "bool"
        }
      ],
      "stateMutability": "view",
      "type": "function"
    },
    {
      "inputs": [
        {
          "internalType": "bytes1",
          "name": "dataType",
          "type": "bytes1"
        },
        {
          "internalType": "bytes",
          "name": "data",
          "type": "bytes"
        }
      ],
      "name": "packDataField",
      "outputs": [
        {
          "internalType": "bytes",
          "name": "",
          "type": "bytes"
        }
      ],
      "stateMutability": "pure",
      "type": "function"
    },
    {
      "inputs": [
        {
          "components": [
            {
              "components": [
                {
                  "internalType": "address",
                  "name": "publisher",
                  "type": "address"
                },
                {
                  "internalType": "bytes",
                  "name": "data",
                  "type": "bytes"
                },
                {
                  "internalType": "uint256",
                  "name": "maxNonce",
                  "type": "uint256"
                },
                {
                  "internalType": "uint256",
                  "name": "startTime",
                  "type": "uint256"
                },
                {
                  "internalType": "uint256",
                  "name": "endTime",
                  "type": "uint256"
                }
              ],
              "internalType": "struct Blueprint",
              "name": "blueprint",
              "type": "tuple"
            },
            {
              "internalType": "bytes32",
              "name": "blueprintHash",
              "type": "bytes32"
            },
            {
              "internalType": "bytes",
              "name": "signature",
              "type": "bytes"
            }
          ],
          "internalType": "struct SignedBlueprint",
          "name": "signedBlueprint",
          "type": "tuple"
        }
      ],
      "name": "publishBlueprint",
      "outputs": [],
      "stateMutability": "nonpayable",
      "type": "function"
    },
    {
      "inputs": [
        {
          "components": [
            {
              "components": [
                {
                  "internalType": "address",
                  "name": "publisher",
                  "type": "address"
                },
                {
                  "internalType": "bytes",
                  "name": "data",
                  "type": "bytes"
                },
                {
                  "internalType": "uint256",
                  "name": "maxNonce",
                  "type": "uint256"
                },
                {
                  "internalType": "uint256",
                  "name": "startTime",
                  "type": "uint256"
                },
                {
                  "internalType": "uint256",
                  "name": "endTime",
                  "type": "uint256"
                }
              ],
              "internalType": "struct Blueprint",
              "name": "blueprint",
              "type": "tuple"
            },
            {
              "internalType": "bytes32",
              "name": "blueprintHash",
              "type": "bytes32"
            },
            {
              "internalType": "bytes",
              "name": "signature",
              "type": "bytes"
            }
          ],
          "internalType": "struct SignedBlueprint",
          "name": "agreementBlueprint",
          "type": "tuple"
        },
        {
          "internalType": "bytes",
          "name": "liquidatorLogic",
          "type": "bytes"
        }
      ],
      "name": "triggerLiquidation",
      "outputs": [],
      "stateMutability": "nonpayable",
      "type": "function"
    },
    {
      "inputs": [
        {
          "internalType": "bytes",
          "name": "data",
          "type": "bytes"
        }
      ],
      "name": "unpackDataField",
      "outputs": [
        {
          "internalType": "bytes1",
          "name": "",
          "type": "bytes1"
        },
        {
          "internalType": "bytes",
          "name": "",
          "type": "bytes"
        }
      ],
      "stateMutability": "pure",
      "type": "function"
    },
    {
      "inputs": [
        {
          "components": [
            {
              "components": [
                {
                  "internalType": "address",
                  "name": "publisher",
                  "type": "address"
                },
                {
                  "internalType": "bytes",
                  "name": "data",
                  "type": "bytes"
                },
                {
                  "internalType": "uint256",
                  "name": "maxNonce",
                  "type": "uint256"
                },
                {
                  "internalType": "uint256",
                  "name": "startTime",
                  "type": "uint256"
                },
                {
                  "internalType": "uint256",
                  "name": "endTime",
                  "type": "uint256"
                }
              ],
              "internalType": "struct Blueprint",
              "name": "blueprint",
              "type": "tuple"
            },
            {
              "internalType": "bytes32",
              "name": "blueprintHash",
              "type": "bytes32"
            },
            {
              "internalType": "bytes",
              "name": "signature",
              "type": "bytes"
            }
          ],
          "internalType": "struct SignedBlueprint",
          "name": "agreementBlueprint",
          "type": "tuple"
        }
      ],
      "name": "unwindPosition",
      "outputs": [],
      "stateMutability": "nonpayable",
      "type": "function"
    }
  ],
  "bytecode": "0x6101406040523480156200001257600080fd5b506040518060400160405280600681526020017f706861726f7300000000000000000000000000000000000000000000000000008152506040518060400160405280600581526020017f302e322e300000000000000000000000000000000000000000000000000000008152508181818160008280519060200120905060008280519060200120905060007f8b73c3c69bb8fe3d512ecc4cf759cc79239f7b179b0ffacaa9a75d522b39400f90508260e081815250508161010081815250504660a08181525050620000ec8184846200014760201b60201c565b608081815250503073ffffffffffffffffffffffffffffffffffffffff1660c08173ffffffffffffffffffffffffffffffffffffffff168152505080610120818152505050505050505050505060016002819055506200025b565b6000838383463060405160200162000164959493929190620001fe565b6040516020818303038152906040528051906020012090509392505050565b6000819050919050565b620001988162000183565b82525050565b6000819050919050565b620001b3816200019e565b82525050565b600073ffffffffffffffffffffffffffffffffffffffff82169050919050565b6000620001e682620001b9565b9050919050565b620001f881620001d9565b82525050565b600060a0820190506200021560008301886200018d565b6200022460208301876200018d565b6200023360408301866200018d565b620002426060830185620001a8565b620002516080830184620001ed565b9695505050505050565b60805160a05160c05160e0516101005161012051616719620002ab60003960006131550152600061319701526000613176015260006130ab015260006131010152600061312a01526167196000f3fe608060405234801561001057600080fd5b506004361061010b5760003560e01c80636a445ba9116100a2578063beaede8811610071578063beaede88146102e0578063cd514e18146102fe578063e7dca7d21461031a578063ee47838814610336578063f698da25146103525761010b565b80636a445ba9146102465780636ccea6521461027657806372735806146102a6578063aa3aa460146102c25761010b565b80631ed64552116100de5780631ed64552146101aa5780632860ff75146101da5780633408e470146101f85780636853de03146102165761010b565b80630a189403146101105780630dec6bed1461012c5780631626ba7e1461014857806319affdf614610178575b600080fd5b61012a60048036038101906101259190613825565b610370565b005b610146600480360381019061014191906138a1565b61069a565b005b610162600480360381019061015d9190613a61565b6109fe565b60405161016f9190613af8565b60405180910390f35b610192600480360381019061018d9190613b13565b610a45565b6040516101a193929190613bd9565b60405180910390f35b6101c460048036038101906101bf9190613d51565b610a88565b6040516101d19190613da9565b60405180910390f35b6101e2610b05565b6040516101ef9190613e43565b60405180910390f35b610200610b3e565b60405161020d9190613e74565b60405180910390f35b610230600480360381019061022b9190613e8f565b610b46565b60405161023d9190613ed7565b60405180910390f35b610260600480360381019061025b9190613f1e565b610b66565b60405161026d9190613fbe565b60405180910390f35b610290600480360381019061028b9190613fe0565b610b92565b60405161029d9190613ed7565b60405180910390f35b6102c060048036038101906102bb91906140eb565b610ba8565b005b6102ca610c90565b6040516102d79190613e43565b60405180910390f35b6102e8610cc9565b6040516102f59190613da9565b60405180910390f35b610318600480360381019061031391906138a1565b610ced565b005b610334600480360381019061032f91906138a1565b6114b7565b005b610350600480360381019061034b9190614154565b611679565b005b61035a611da5565b6040516103679190613da9565b60405180910390f35b610378611db4565b82610382906141cc565b80602001516103948260000151610a88565b146103d4576040517f08c379a00000000000000000000000000000000000000000000000000000000081526004016103cb9061422b565b60405180910390fd5b6103ef81600001516000015182602001518360400151611e01565b61042e576040517f08c379a000000000000000000000000000000000000000000000000000000000815260040161042590614297565b60405180910390fd5b600061045785806000019061044391906142c6565b806020019061045291906142ee565b610a45565b8080601f016020809104026020016040519081016040528093929190818152602001838380828437600081840152601f19601f820116905080830192505050505050509150506000818060200190518101906104b3919061472b565b90506000816101c0015160000151905060008260e00151600001519050600083610100015160000151905060036000856040516020016104f391906149d4565b60405160208183030381529060405280519060200120815260200190815260200160002060009054906101000a900460ff1615610565576040517f08c379a000000000000000000000000000000000000000000000000000000000815260040161055c90614a42565b60405180910390fd5b61056f8433611fc7565b61057d848484848c8c61215b565b7f904c358bc985322bfcccbbb99273cfee6c2cd56dc2d328bbd37b458efa2d9ff189856101c0015160000151336040516105b993929190614c9d565b60405180910390a1600160036000866101c00151600001516040516020016105e19190614d23565b60405160208183030381529060405280519060200120815260200190815260200160002060006101000a81548160ff0219169083151502179055508273ffffffffffffffffffffffffffffffffffffffff166347635dac336040518263ffffffff1660e01b81526004016106559190614d3e565b600060405180830381600087803b15801561066f57600080fd5b505af1158015610683573d6000803e3d6000fd5b50505050505050505050610695612811565b505050565b6106a2611db4565b806106ac906141cc565b80602001516106be8260000151610a88565b146106fe576040517f08c379a00000000000000000000000000000000000000000000000000000000081526004016106f59061422b565b60405180910390fd5b61071981600001516000015182602001518360400151611e01565b610758576040517f08c379a000000000000000000000000000000000000000000000000000000000815260040161074f90614297565b60405180910390fd5b60008061078284806000019061076e91906142c6565b806020019061077d91906142ee565b610a45565b8080601f016020809104026020016040519081016040528093929190818152602001838380828437600081840152601f19601f82011690508083019250505050505050915091506002808111156107dc576107db614d59565b5b60f81b7effffffffffffffffffffffffffffffffffffffffffffffffffffffffffffff1916827effffffffffffffffffffffffffffffffffffffffffffffffffffffffffffff191614610864576040517f08c379a000000000000000000000000000000000000000000000000000000000815260040161085b90614dfa565b60405180910390fd5b60008180602001905181019061087a919061472b565b905060008161010001516000015173ffffffffffffffffffffffffffffffffffffffff1663b102bfbe836101000151602001516040518263ffffffff1660e01b81526004016108c99190613fbe565b602060405180830381865afa1580156108e6573d6000803e3d6000fd5b505050506040513d601f19601f8201168201806040525081019061090a9190614e1a565b73ffffffffffffffffffffffffffffffffffffffff163373ffffffffffffffffffffffffffffffffffffffff161490508061097a576040517f08c379a000000000000000000000000000000000000000000000000000000000815260040161097190614eb9565b60405180910390fd5b816101c001516000015173ffffffffffffffffffffffffffffffffffffffff16638f9acff3836040518263ffffffff1660e01b81526004016109bc91906149d4565b600060405180830381600087803b1580156109d657600080fd5b505af11580156109ea573d6000803e3d6000fd5b5050505050505050506109fb612811565b50565b600080600084815260200190815260200160002060009054906101000a900460ff1615610a3457631626ba7e60e01b9050610a3f565b63ffffffff60e01b90505b92915050565b600036600084846000818110610a5e57610a5d614ed9565b5b9050013560f81c60f81b85856001908092610a7b93929190614f12565b9250925092509250925092565b6000610afe7fabb38f99128910356202f56a25bd1c0cbc076ddee0387a6ff4671f05fabedcd18360000151846020015180519060200120856040015186606001518760800151604051602001610ae396959493929190614f4d565b6040516020818303038152906040528051906020012061281b565b9050919050565b6040518060400160405280600681526020017f706861726f73000000000000000000000000000000000000000000000000000081525081565b600046905090565b60036020528060005260406000206000915054906101000a900460ff1681565b60608282604051602001610b7b92919061500b565b604051602081830303815290604052905092915050565b6000610b9f848484611e01565b90509392505050565b808060200151610bbb8260000151610a88565b14610bfb576040517f08c379a0000000000000000000000000000000000000000000000000000000008152600401610bf29061422b565b60405180910390fd5b610c1681600001516000015182602001518360400151611e01565b610c55576040517f08c379a0000000000000000000000000000000000000000000000000000000008152600401610c4c90614297565b60405180910390fd5b7fe88b49ce78855e321e33f58c41af6039301a3ff5454da2b09ddb1be1d9a525d482604051610c849190615100565b60405180910390a15050565b6040518060400160405280600581526020017f302e322e3000000000000000000000000000000000000000000000000000000081525081565b7fabb38f99128910356202f56a25bd1c0cbc076ddee0387a6ff4671f05fabedcd181565b610cf5611db4565b80610cff906141cc565b8060200151610d118260000151610a88565b14610d51576040517f08c379a0000000000000000000000000000000000000000000000000000000008152600401610d489061422b565b60405180910390fd5b610d6c81600001516000015182602001518360400151611e01565b610dab576040517f08c379a0000000000000000000000000000000000000000000000000000000008152600401610da290614297565b60405180910390fd5b600080610dd5848060000190610dc191906142c6565b8060200190610dd091906142ee565b610a45565b8080601f016020809104026020016040519081016040528093929190818152602001838380828437600081840152601f19601f8201169050808301925050505050505091509150600280811115610e2f57610e2e614d59565b5b60f81b7effffffffffffffffffffffffffffffffffffffffffffffffffffffffffffff1916827effffffffffffffffffffffffffffffffffffffffffffffffffffffffffffff191614610eb7576040517f08c379a0000000000000000000000000000000000000000000000000000000008152600401610eae9061516e565b60405180910390fd5b600081806020019051810190610ecd919061472b565b905060008161010001516000015173ffffffffffffffffffffffffffffffffffffffff1663b102bfbe836101000151602001516040518263ffffffff1660e01b8152600401610f1c9190613fbe565b602060405180830381865afa158015610f39573d6000803e3d6000fd5b505050506040513d601f19601f82011682018060405250810190610f5d9190614e1a565b73ffffffffffffffffffffffffffffffffffffffff163373ffffffffffffffffffffffffffffffffffffffff1614905080610fcd576040517f08c379a0000000000000000000000000000000000000000000000000000000008152600401610fc490615200565b60405180910390fd5b6000826101c0015160000151905060008360e0015160000151905060008273ffffffffffffffffffffffffffffffffffffffff1663edd9e4b5866040518263ffffffff1660e01b815260040161102391906149d4565b6020604051808303816000875af1158015611042573d6000803e3d6000fd5b505050506040513d601f19601f820116820180604052508101906110669190615220565b905060008561012001516000015173ffffffffffffffffffffffffffffffffffffffff1663458a83c3876040518263ffffffff1660e01b81526004016110ac91906149d4565b6020604051808303816000875af11580156110cb573d6000803e3d6000fd5b505050506040513d601f19601f820116820180604052508101906110ef9190615220565b905060008661016001516000015173ffffffffffffffffffffffffffffffffffffffff16632e820849886101600151602001518961020001516040518363ffffffff1660e01b815260040161114592919061524d565b6020604051808303816000875af1158015611164573d6000803e3d6000fd5b505050506040513d601f19601f820116820180604052508101906111889190615220565b905060008473ffffffffffffffffffffffffffffffffffffffff1663890811ae89604001518a60e00151602001516040518363ffffffff1660e01b81526004016111d392919061524d565b602060405180830381865afa1580156111f0573d6000803e3d6000fd5b505050506040513d601f19601f820116820180604052508101906112149190615220565b9050600082670de0b6b3a76400008561122d91906152b3565b6112379190615324565b89600001516112469190615355565b90508673ffffffffffffffffffffffffffffffffffffffff16636c3fc8318a836040518363ffffffff1660e01b8152600401611283929190615389565b600060405180830381600087803b15801561129d57600080fd5b505af11580156112b1573d6000803e3d6000fd5b5050505060008673ffffffffffffffffffffffffffffffffffffffff1663890811ae8b604001518c60e00151602001516040518363ffffffff1660e01b81526004016112fe92919061524d565b602060405180830381865afa15801561131b573d6000803e3d6000fd5b505050506040513d601f19601f8201168201806040525081019061133f9190615220565b905081838261134e91906153b9565b101561138f576040517f08c379a000000000000000000000000000000000000000000000000000000000815260040161138690615439565b60405180910390fd5b6001600360008c6101c00151600001516040516020016113af9190614d23565b60405160208183030381529060405280519060200120815260200190815260200160002060006101000a81548160ff0219169083151502179055507f40246ab0a03d0d296b9e8cee5ae45cd5f94640ea0834ea9a8f0cd50e445e77e58e8b6101c00151600001513389888a60405161142c96959493929190615459565b60405180910390a18773ffffffffffffffffffffffffffffffffffffffff166347635dac336040518263ffffffff1660e01b815260040161146d9190614d3e565b600060405180830381600087803b15801561148757600080fd5b505af115801561149b573d6000803e3d6000fd5b50505050505050505050505050505050506114b4612811565b50565b806114c1906141cc565b80602001516114d38260000151610a88565b14611513576040517f08c379a000000000000000000000000000000000000000000000000000000000815260040161150a9061422b565b60405180910390fd5b61152e81600001516000015182602001518360400151611e01565b61156d576040517f08c379a000000000000000000000000000000000000000000000000000000000815260040161156490614297565b60405180910390fd5b8180806000019061157e91906142c6565b600001602081019061159091906154c1565b73ffffffffffffffffffffffffffffffffffffffff163373ffffffffffffffffffffffffffffffffffffffff16146115fd576040517f08c379a00000000000000000000000000000000000000000000000000000000081526004016115f49061553a565b60405180910390fd5b7fffffffffffffffffffffffffffffffffffffffffffffffffffffffffffffffff6001600085602001358152602001908152602001600020819055507fc954dbcaf38dbaf01d8ac7f2d37afc45123081ade8ccf1efd7f23db2cfb62cb5836020013560405161166c9190613da9565b60405180910390a1505050565b611681611db4565b8061168b906141cc565b806020015161169d8260000151610a88565b146116dd576040517f08c379a00000000000000000000000000000000000000000000000000000000081526004016116d49061422b565b60405180910390fd5b6116f881600001516000015182602001518360400151611e01565b611737576040517f08c379a000000000000000000000000000000000000000000000000000000000815260040161172e90614297565b60405180910390fd5b60008061176184806000019061174d91906142c6565b806020019061175c91906142ee565b610a45565b8080601f016020809104026020016040519081016040528093929190818152602001838380828437600081840152601f19601f8201169050808301925050505050505091509150600160028111156117bc576117bb614d59565b5b60ff168260f81c60ff1614611806576040517f08c379a00000000000000000000000000000000000000000000000000000000081526004016117fd906155a6565b60405180910390fd5b84806000019061181691906155c6565b600001602081019061182891906154c1565b73ffffffffffffffffffffffffffffffffffffffff1663b102bfbe86806000019061185391906155c6565b806020019061186291906142ee565b6040518363ffffffff1660e01b815260040161187f9291906155ee565b602060405180830381865afa15801561189c573d6000803e3d6000fd5b505050506040513d601f19601f820116820180604052508101906118c09190614e1a565b73ffffffffffffffffffffffffffffffffffffffff163373ffffffffffffffffffffffffffffffffffffffff161461192d576040517f08c379a00000000000000000000000000000000000000000000000000000000081526004016119249061565e565b60405180910390fd5b6000818060200190518101906119439190615ce6565b90508060e001516000015173ffffffffffffffffffffffffffffffffffffffff1663b102bfbe8260e00151602001516040518263ffffffff1660e01b815260040161198e9190613fbe565b602060405180830381865afa1580156119ab573d6000803e3d6000fd5b505050506040513d601f19601f820116820180604052508101906119cf9190614e1a565b73ffffffffffffffffffffffffffffffffffffffff168580600001906119f591906142c6565b6000016020810190611a0791906154c1565b73ffffffffffffffffffffffffffffffffffffffff1614611a5d576040517f08c379a0000000000000000000000000000000000000000000000000000000008152600401611a5490615da1565b60405180910390fd5b60008160800151511115611afc573373ffffffffffffffffffffffffffffffffffffffff168160800151876040013581518110611a9d57611a9c614ed9565b5b602002602001015173ffffffffffffffffffffffffffffffffffffffff1614611afb576040517f08c379a0000000000000000000000000000000000000000000000000000000008152600401611af290615e0d565b60405180910390fd5b5b611b068682612835565b6000611b128783612957565b90506000670de0b6b3a76400008261016001516000015173ffffffffffffffffffffffffffffffffffffffff1663f09f4079846101600151602001518561020001516040518363ffffffff1660e01b8152600401611b7192919061524d565b6020604051808303816000875af1158015611b90573d6000803e3d6000fd5b505050506040513d601f19601f82011682018060405250810190611bb49190615220565b8360000151611bc391906152b3565b611bcd9190615324565b90506000670de0b6b3a76400008361018001516000015173ffffffffffffffffffffffffffffffffffffffff1663f09f4079856101800151602001518661020001516040518363ffffffff1660e01b8152600401611c2c92919061524d565b6020604051808303816000875af1158015611c4b573d6000803e3d6000fd5b505050506040513d601f19601f82011682018060405250810190611c6f9190615220565b8460200151611c7e91906152b3565b611c889190615324565b905060008460a0015115611cc75782670de0b6b3a76400008385611cac9190615355565b611cb691906152b3565b611cc09190615324565b9050611ce9565b82670de0b6b3a764000083611cdc91906152b3565b611ce69190615324565b90505b8360800151811015611d30576040517f08c379a0000000000000000000000000000000000000000000000000000000008152600401611d2790615e79565b60405180910390fd5b42846101e0018181525050611d4484612c47565b6000611d4f85612fc3565b90507f21a6001862375a91bbf0eff278ae1eaee77323f67273ed674a16f9607888696f818b6020013533604051611d8893929190615e99565b60405180910390a1505050505050505050611da1612811565b5050565b6000611daf6130a7565b905090565b6002805403611df8576040517f08c379a0000000000000000000000000000000000000000000000000000000008152600401611def90615f23565b60405180910390fd5b60028081905550565b6000806000611e1085856131c1565b9150915060006004811115611e2857611e27614d59565b5b816004811115611e3b57611e3a614d59565b5b148015611e7357508573ffffffffffffffffffffffffffffffffffffffff168273ffffffffffffffffffffffffffffffffffffffff16145b15611e8357600192505050611fc0565b6000808773ffffffffffffffffffffffffffffffffffffffff16631626ba7e60e01b8888604051602401611eb8929190615f43565b604051602081830303815290604052907bffffffffffffffffffffffffffffffffffffffffffffffffffffffff19166020820180517bffffffffffffffffffffffffffffffffffffffffffffffffffffffff8381831617835250505050604051611f229190615f73565b600060405180830381855afa9150503d8060008114611f5d576040519150601f19603f3d011682016040523d82523d6000602084013e611f62565b606091505b5091509150818015611f75575060208151145b8015611fb95750631626ba7e60e01b7bffffffffffffffffffffffffffffffffffffffffffffffffffffffff191681806020019051810190611fb79190615f9f565b145b9450505050505b9392505050565b6003600083604051602001611fdc91906149d4565b60405160208183030381529060405280519060200120815260200190815260200160002060009054906101000a900460ff161561204e576040517f08c379a000000000000000000000000000000000000000000000000000000000815260040161204590614a42565b60405180910390fd5b8161010001516000015173ffffffffffffffffffffffffffffffffffffffff1663b102bfbe836101000151602001516040518263ffffffff1660e01b81526004016120999190613fbe565b602060405180830381865afa1580156120b6573d6000803e3d6000fd5b505050506040513d601f19601f820116820180604052508101906120da9190614e1a565b73ffffffffffffffffffffffffffffffffffffffff168173ffffffffffffffffffffffffffffffffffffffff161480612118575061211782613212565b5b612157576040517f08c379a000000000000000000000000000000000000000000000000000000000815260040161214e9061603e565b60405180910390fd5b5050565b6121636135e6565b8661016001516000015173ffffffffffffffffffffffffffffffffffffffff16632e820849886101600151602001518961020001516040518363ffffffff1660e01b81526004016121b592919061524d565b6020604051808303816000875af11580156121d4573d6000803e3d6000fd5b505050506040513d601f19601f820116820180604052508101906121f89190615220565b8160000181815250508661018001516000015173ffffffffffffffffffffffffffffffffffffffff16632e820849886101800151602001518961020001516040518363ffffffff1660e01b815260040161225392919061524d565b6020604051808303816000875af1158015612272573d6000803e3d6000fd5b505050506040513d601f19601f820116820180604052508101906122969190615220565b8160200181815250508060000151670de0b6b3a76400008861012001516000015173ffffffffffffffffffffffffffffffffffffffff1663458a83c38a6040518263ffffffff1660e01b81526004016122ef91906149d4565b6020604051808303816000875af115801561230e573d6000803e3d6000fd5b505050506040513d601f19601f820116820180604052508101906123329190615220565b61233c91906152b3565b6123469190615324565b87600001516123559190615355565b8160400181815250508661014001516000015173ffffffffffffffffffffffffffffffffffffffff1663020bd279886040518263ffffffff1660e01b81526004016123a091906149d4565b6020604051808303816000875af11580156123bf573d6000803e3d6000fd5b505050506040513d601f19601f820116820180604052508101906123e39190615220565b8160600181815250508060200151670de0b6b3a7640000826060015183604001518973ffffffffffffffffffffffffffffffffffffffff1663edd9e4b58c6040518263ffffffff1660e01b815260040161243d91906149d4565b6020604051808303816000875af115801561245c573d6000803e3d6000fd5b505050506040513d601f19601f820116820180604052508101906124809190615220565b61248a91906153b9565b61249491906153b9565b61249e91906152b3565b6124a89190615324565b8160800181815250508473ffffffffffffffffffffffffffffffffffffffff1663890811ae88604001518960e00151602001516040518363ffffffff1660e01b81526004016124f892919061524d565b602060405180830381865afa158015612515573d6000803e3d6000fd5b505050506040513d601f19601f820116820180604052508101906125399190615220565b8160a00181815250508373ffffffffffffffffffffffffffffffffffffffff1663890811ae8860600151896101000151602001516040518363ffffffff1660e01b815260040161258a92919061524d565b602060405180830381865afa1580156125a7573d6000803e3d6000fd5b505050506040513d601f19601f820116820180604052508101906125cb9190615220565b8160c00181815250508573ffffffffffffffffffffffffffffffffffffffff1663be52bce784846040518363ffffffff1660e01b815260040161260f9291906155ee565b600060405180830381600087803b15801561262957600080fd5b505af115801561263d573d6000803e3d6000fd5b5050505060008573ffffffffffffffffffffffffffffffffffffffff1663890811ae89604001518a60e00151602001516040518363ffffffff1660e01b815260040161268a92919061524d565b602060405180830381865afa1580156126a7573d6000803e3d6000fd5b505050506040513d601f19601f820116820180604052508101906126cb9190615220565b905060008573ffffffffffffffffffffffffffffffffffffffff1663890811ae8a606001518b6101000151602001516040518363ffffffff1660e01b815260040161271792919061524d565b602060405180830381865afa158015612734573d6000803e3d6000fd5b505050506040513d601f19601f820116820180604052508101906127589190615220565b905082604001518360a001518361276f91906153b9565b10156127b0576040517f08c379a00000000000000000000000000000000000000000000000000000000081526004016127a7906160d0565b60405180910390fd5b82608001518360c00151826127c591906153b9565b1015612806576040517f08c379a00000000000000000000000000000000000000000000000000000000081526004016127fd90616162565b60405180910390fd5b505050505050505050565b6001600281905550565b600061282e6128286130a7565b83613469565b9050919050565b806101a00151612897578160e00160208101906128529190616197565b15612892576040517f08c379a000000000000000000000000000000000000000000000000000000000815260040161288990616210565b60405180910390fd5b6128ea565b8160e00160208101906128aa9190616197565b6128e9576040517f08c379a00000000000000000000000000000000000000000000000000000000081526004016128e09061627c565b60405180910390fd5b5b806000015182606001358151811061290557612904614ed9565b5b602002602001015182602001351015612953576040517f08c379a000000000000000000000000000000000000000000000000000000000815260040161294a906162e8565b60405180910390fd5b5050565b61295f613623565b8160c001518160a001818152505081610100015181610120018190525081610120015181610140018190525081602001518360600135815181106129a6576129a5614ed9565b5b602002602001015181604001819052508161014001518360600135815181106129d2576129d1614ed9565b5b602002602001015181610160018190525081604001518360800135815181106129fe576129fd614ed9565b5b60200260200101518160600181905250816101600151836080013581518110612a2a57612a29614ed9565b5b60200260200101518161018001819052508160600151836080013581518110612a5657612a55614ed9565b5b60200260200101518160800181815250508161018001518360a0013581518110612a8357612a82614ed9565b5b6020026020010151816101a0019073ffffffffffffffffffffffffffffffffffffffff16908173ffffffffffffffffffffffffffffffffffffffff1681525050826020013581600001818152505082806101000190612ae29190616308565b60000135816020018181525050828060c00190612aff91906142ee565b8080601f016020809104026020016040519081016040528093929190818152602001838380828437600081840152601f19601f82011690508083019250505050505050816102000181905250816101a0015115612bfa578160e001518160e00181905250828060000190612b7391906155c6565b612b7c9061639c565b81610100018190525082806101000190612b969190616308565b8060200190612ba591906142ee565b8080601f016020809104026020016040519081016040528093929190818152602001838380828437600081840152601f19601f82011690508083019250505050505050816101c0015160200181905250612c41565b828060000190612c0a91906155c6565b612c139061639c565b8160e001819052508160e00151816101000181905250816101c0015160200151816101c00151602001819052505b92915050565b600080826101a0015173ffffffffffffffffffffffffffffffffffffffff166040516024016040516020818303038152906040527f64f2d4b9000000000000000000000000000000000000000000000000000000007bffffffffffffffffffffffffffffffffffffffffffffffffffffffff19166020820180517bffffffffffffffffffffffffffffffffffffffffffffffffffffffff8381831617835250505050604051612cf69190615f73565b6000604051808303816000865af19150503d8060008114612d33576040519150601f19603f3d011682016040523d82523d6000602084013e612d38565b606091505b509150915081612d7d576040517f08c379a0000000000000000000000000000000000000000000000000000000008152600401612d7490616421565b60405180910390fd5b80806020019051810190612d91919061647f565b836101c001516000019073ffffffffffffffffffffffffffffffffffffffff16908173ffffffffffffffffffffffffffffffffffffffff16815250508260e001516000015173ffffffffffffffffffffffffffffffffffffffff1663a9d7d6c8846101c0015160000151856040015186600001518760e00151602001518861020001516040518663ffffffff1660e01b8152600401612e349594939291906164ac565b600060405180830381600087803b158015612e4e57600080fd5b505af1158015612e62573d6000803e3d6000fd5b505050508261010001516000015173ffffffffffffffffffffffffffffffffffffffff1663a9d7d6c8846101c001516000015185606001518660200151876101000151602001518861020001516040518663ffffffff1660e01b8152600401612ecf9594939291906164ac565b600060405180830381600087803b158015612ee957600080fd5b505af1158015612efd573d6000803e3d6000fd5b50505050826101c001516000015173ffffffffffffffffffffffffffffffffffffffff16635aa56409846040518263ffffffff1660e01b8152600401612f4391906149d4565b600060405180830381600087803b158015612f5d57600080fd5b505af1158015612f71573d6000803e3d6000fd5b50505050612f7e83613212565b15612fbe576040517f08c379a0000000000000000000000000000000000000000000000000000000008152600401612fb590616560565b60405180910390fd5b505050565b612fcb6136e9565b3081600001516000019073ffffffffffffffffffffffffffffffffffffffff16908173ffffffffffffffffffffffffffffffffffffffff168152505061304560028081111561301d5761301c614d59565b5b60f81b8360405160200161303191906149d4565b604051602081830303815290604052610b66565b8160000151602001819052507fffffffffffffffffffffffffffffffffffffffffffffffffffffffffffffffff8160000151608001818152505061308c8160000151610a88565b8160200181815250506130a2816020015161349c565b919050565b60007f000000000000000000000000000000000000000000000000000000000000000073ffffffffffffffffffffffffffffffffffffffff163073ffffffffffffffffffffffffffffffffffffffff1614801561312357507f000000000000000000000000000000000000000000000000000000000000000046145b15613150577f000000000000000000000000000000000000000000000000000000000000000090506131be565b6131bb7f00000000000000000000000000000000000000000000000000000000000000007f00000000000000000000000000000000000000000000000000000000000000007f00000000000000000000000000000000000000000000000000000000000000006134ca565b90505b90565b60008060418351036132025760008060006020860151925060408601519150606086015160001a90506131f687828585613504565b9450945050505061320b565b60006002915091505b9250929050565b600080826101c001516000015190508260a00151836101e001516132369190615355565b421115613247576001915050613464565b60008173ffffffffffffffffffffffffffffffffffffffff1663edd9e4b5856040518263ffffffff1660e01b815260040161328291906149d4565b6020604051808303816000875af11580156132a1573d6000803e3d6000fd5b505050506040513d601f19601f820116820180604052508101906132c59190615220565b905060008461012001516000015173ffffffffffffffffffffffffffffffffffffffff1663458a83c3866040518263ffffffff1660e01b815260040161330b91906149d4565b6020604051808303816000875af115801561332a573d6000803e3d6000fd5b505050506040513d601f19601f8201168201806040525081019061334e9190615220565b905060008561016001516000015173ffffffffffffffffffffffffffffffffffffffff16632e820849876101600151602001518861020001516040518363ffffffff1660e01b81526004016133a492919061524d565b6020604051808303816000875af11580156133c3573d6000803e3d6000fd5b505050506040513d601f19601f820116820180604052508101906133e79190615220565b9050600082670de0b6b3a764000083896000015161340591906152b3565b61340f9190615324565b6134199190615355565b9050600081670de0b6b3a76400008661343291906152b3565b61343c9190615324565b905087608001518110156134595760019650505050505050613464565b600096505050505050505b919050565b6000828260405160200161347e9291906165f8565b60405160208183030381529060405280519060200120905092915050565b600160008083815260200190815260200160002060006101000a81548160ff02191690831515021790555050565b600083838346306040516020016134e595949392919061662f565b6040516020818303038152906040528051906020012090509392505050565b6000807f7fffffffffffffffffffffffffffffff5d576e7357a4501ddfe92f46681b20a08360001c111561353f5760006003915091506135dd565b600060018787878760405160008152602001604052604051613564949392919061669e565b6020604051602081039080840390855afa158015613586573d6000803e3d6000fd5b505050602060405103519050600073ffffffffffffffffffffffffffffffffffffffff168173ffffffffffffffffffffffffffffffffffffffff16036135d4576000600192509250506135dd565b80600092509250505b94509492505050565b6040518060e00160405280600081526020016000815260200160008152602001600081526020016000815260200160008152602001600081525090565b60405180610220016040528060008152602001600081526020016060815260200160608152602001600081526020016000815260200160001515815260200161366a613713565b8152602001613677613713565b8152602001613684613713565b8152602001613691613713565b815260200161369e613713565b81526020016136ab613713565b8152602001600073ffffffffffffffffffffffffffffffffffffffff1681526020016136d5613713565b815260200160008152602001606081525090565b60405180606001604052806136fc613743565b815260200160008019168152602001606081525090565b6040518060400160405280600073ffffffffffffffffffffffffffffffffffffffff168152602001606081525090565b6040518060a00160405280600073ffffffffffffffffffffffffffffffffffffffff168152602001606081526020016000815260200160008152602001600081525090565b6000604051905090565b600080fd5b600080fd5b600080fd5b6000606082840312156137b7576137b661379c565b5b81905092915050565b600080fd5b600080fd5b600080fd5b60008083601f8401126137e5576137e46137c0565b5b8235905067ffffffffffffffff811115613802576138016137c5565b5b60208301915083600182028301111561381e5761381d6137ca565b5b9250929050565b60008060006040848603121561383e5761383d613792565b5b600084013567ffffffffffffffff81111561385c5761385b613797565b5b613868868287016137a1565b935050602084013567ffffffffffffffff81111561388957613888613797565b5b613895868287016137cf565b92509250509250925092565b6000602082840312156138b7576138b6613792565b5b600082013567ffffffffffffffff8111156138d5576138d4613797565b5b6138e1848285016137a1565b91505092915050565b6000819050919050565b6138fd816138ea565b811461390857600080fd5b50565b60008135905061391a816138f4565b92915050565b600080fd5b6000601f19601f8301169050919050565b7f4e487b7100000000000000000000000000000000000000000000000000000000600052604160045260246000fd5b61396e82613925565b810181811067ffffffffffffffff8211171561398d5761398c613936565b5b80604052505050565b60006139a0613788565b90506139ac8282613965565b919050565b600067ffffffffffffffff8211156139cc576139cb613936565b5b6139d582613925565b9050602081019050919050565b82818337600083830152505050565b6000613a046139ff846139b1565b613996565b905082815260208101848484011115613a2057613a1f613920565b5b613a2b8482856139e2565b509392505050565b600082601f830112613a4857613a476137c0565b5b8135613a588482602086016139f1565b91505092915050565b60008060408385031215613a7857613a77613792565b5b6000613a868582860161390b565b925050602083013567ffffffffffffffff811115613aa757613aa6613797565b5b613ab385828601613a33565b9150509250929050565b60007fffffffff0000000000000000000000000000000000000000000000000000000082169050919050565b613af281613abd565b82525050565b6000602082019050613b0d6000830184613ae9565b92915050565b60008060208385031215613b2a57613b29613792565b5b600083013567ffffffffffffffff811115613b4857613b47613797565b5b613b54858286016137cf565b92509250509250929050565b60007fff0000000000000000000000000000000000000000000000000000000000000082169050919050565b613b9581613b60565b82525050565b600082825260208201905092915050565b6000613bb88385613b9b565b9350613bc58385846139e2565b613bce83613925565b840190509392505050565b6000604082019050613bee6000830186613b8c565b8181036020830152613c01818486613bac565b9050949350505050565b600080fd5b600080fd5b600073ffffffffffffffffffffffffffffffffffffffff82169050919050565b6000613c4082613c15565b9050919050565b613c5081613c35565b8114613c5b57600080fd5b50565b600081359050613c6d81613c47565b92915050565b6000819050919050565b613c8681613c73565b8114613c9157600080fd5b50565b600081359050613ca381613c7d565b92915050565b600060a08284031215613cbf57613cbe613c0b565b5b613cc960a0613996565b90506000613cd984828501613c5e565b600083015250602082013567ffffffffffffffff811115613cfd57613cfc613c10565b5b613d0984828501613a33565b6020830152506040613d1d84828501613c94565b6040830152506060613d3184828501613c94565b6060830152506080613d4584828501613c94565b60808301525092915050565b600060208284031215613d6757613d66613792565b5b600082013567ffffffffffffffff811115613d8557613d84613797565b5b613d9184828501613ca9565b91505092915050565b613da3816138ea565b82525050565b6000602082019050613dbe6000830184613d9a565b92915050565b600081519050919050565b600082825260208201905092915050565b60005b83811015613dfe578082015181840152602081019050613de3565b60008484015250505050565b6000613e1582613dc4565b613e1f8185613dcf565b9350613e2f818560208601613de0565b613e3881613925565b840191505092915050565b60006020820190508181036000830152613e5d8184613e0a565b905092915050565b613e6e81613c73565b82525050565b6000602082019050613e896000830184613e65565b92915050565b600060208284031215613ea557613ea4613792565b5b6000613eb38482850161390b565b91505092915050565b60008115159050919050565b613ed181613ebc565b82525050565b6000602082019050613eec6000830184613ec8565b92915050565b613efb81613b60565b8114613f0657600080fd5b50565b600081359050613f1881613ef2565b92915050565b60008060408385031215613f3557613f34613792565b5b6000613f4385828601613f09565b925050602083013567ffffffffffffffff811115613f6457613f63613797565b5b613f7085828601613a33565b9150509250929050565b600081519050919050565b6000613f9082613f7a565b613f9a8185613b9b565b9350613faa818560208601613de0565b613fb381613925565b840191505092915050565b60006020820190508181036000830152613fd88184613f85565b905092915050565b600080600060608486031215613ff957613ff8613792565b5b600061400786828701613c5e565b93505060206140188682870161390b565b925050604084013567ffffffffffffffff81111561403957614038613797565b5b61404586828701613a33565b9150509250925092565b60006060828403121561406557614064613c0b565b5b61406f6060613996565b9050600082013567ffffffffffffffff81111561408f5761408e613c10565b5b61409b84828501613ca9565b60008301525060206140af8482850161390b565b602083015250604082013567ffffffffffffffff8111156140d3576140d2613c10565b5b6140df84828501613a33565b60408301525092915050565b60006020828403121561410157614100613792565b5b600082013567ffffffffffffffff81111561411f5761411e613797565b5b61412b8482850161404f565b91505092915050565b6000610120828403121561414b5761414a61379c565b5b81905092915050565b6000806040838503121561416b5761416a613792565b5b600083013567ffffffffffffffff81111561418957614188613797565b5b61419585828601614134565b925050602083013567ffffffffffffffff8111156141b6576141b5613797565b5b6141c2858286016137a1565b9150509250929050565b60006141d8368361404f565b9050919050565b7f54726163746f723a20696e76616c696420686173680000000000000000000000600082015250565b6000614215601583613dcf565b9150614220826141df565b602082019050919050565b6000602082019050818103600083015261424481614208565b9050919050565b7f54726163746f723a20696e76616c6964207369676e6174757265000000000000600082015250565b6000614281601a83613dcf565b915061428c8261424b565b602082019050919050565b600060208201905081810360008301526142b081614274565b9050919050565b600080fd5b600080fd5b600080fd5b60008235600160a0038336030381126142e2576142e16142b7565b5b80830191505092915050565b6000808335600160200384360303811261430b5761430a6142b7565b5b80840192508235915067ffffffffffffffff82111561432d5761432c6142bc565b5b602083019250600182023603831315614349576143486142c1565b5b509250929050565b60008151905061436081613c7d565b92915050565b6000614379614374846139b1565b613996565b90508281526020810184848401111561439557614394613920565b5b6143a0848285613de0565b509392505050565b600082601f8301126143bd576143bc6137c0565b5b81516143cd848260208601614366565b91505092915050565b6143df81613ebc565b81146143ea57600080fd5b50565b6000815190506143fc816143d6565b92915050565b60008151905061441181613c47565b92915050565b60006040828403121561442d5761442c613c0b565b5b6144376040613996565b9050600061444784828501614402565b600083015250602082015167ffffffffffffffff81111561446b5761446a613c10565b5b614477848285016143a8565b60208301525092915050565b6000610220828403121561449a57614499613c0b565b5b6144a5610220613996565b905060006144b584828501614351565b60008301525060206144c984828501614351565b602083015250604082015167ffffffffffffffff8111156144ed576144ec613c10565b5b6144f9848285016143a8565b604083015250606082015167ffffffffffffffff81111561451d5761451c613c10565b5b614529848285016143a8565b606083015250608061453d84828501614351565b60808301525060a061455184828501614351565b60a08301525060c0614565848285016143ed565b60c08301525060e082015167ffffffffffffffff81111561458957614588613c10565b5b61459584828501614417565b60e08301525061010082015167ffffffffffffffff8111156145ba576145b9613c10565b5b6145c684828501614417565b6101008301525061012082015167ffffffffffffffff8111156145ec576145eb613c10565b5b6145f884828501614417565b6101208301525061014082015167ffffffffffffffff81111561461e5761461d613c10565b5b61462a84828501614417565b6101408301525061016082015167ffffffffffffffff8111156146505761464f613c10565b5b61465c84828501614417565b6101608301525061018082015167ffffffffffffffff81111561468257614681613c10565b5b61468e84828501614417565b610180830152506101a06146a484828501614402565b6101a0830152506101c082015167ffffffffffffffff8111156146ca576146c9613c10565b5b6146d684828501614417565b6101c0830152506101e06146ec84828501614351565b6101e08301525061020082015167ffffffffffffffff81111561471257614711613c10565b5b61471e848285016143a8565b6102008301525092915050565b60006020828403121561474157614740613792565b5b600082015167ffffffffffffffff81111561475f5761475e613797565b5b61476b84828501614483565b91505092915050565b61477d81613c73565b82525050565b600082825260208201905092915050565b600061479f82613f7a565b6147a98185614783565b93506147b9818560208601613de0565b6147c281613925565b840191505092915050565b6147d681613ebc565b82525050565b6147e581613c35565b82525050565b600060408301600083015161480360008601826147dc565b506020830151848203602086015261481b8282614794565b9150508091505092915050565b6000610220830160008301516148416000860182614774565b5060208301516148546020860182614774565b506040830151848203604086015261486c8282614794565b915050606083015184820360608601526148868282614794565b915050608083015161489b6080860182614774565b5060a08301516148ae60a0860182614774565b5060c08301516148c160c08601826147cd565b5060e083015184820360e08601526148d982826147eb565b9150506101008301518482036101008601526148f582826147eb565b91505061012083015184820361012086015261491182826147eb565b91505061014083015184820361014086015261492d82826147eb565b91505061016083015184820361016086015261494982826147eb565b91505061018083015184820361018086015261496582826147eb565b9150506101a083015161497c6101a08601826147dc565b506101c08301518482036101c086015261499682826147eb565b9150506101e08301516149ad6101e0860182614774565b506102008301518482036102008601526149c78282614794565b9150508091505092915050565b600060208201905081810360008301526149ee8184614828565b905092915050565b7f4c6f616e20616c726561647920636c6f7365642e000000000000000000000000600082015250565b6000614a2c601483613dcf565b9150614a37826149f6565b602082019050919050565b60006020820190508181036000830152614a5b81614a1f565b9050919050565b600080fd5b60008235600160a003833603038112614a8357614a82614a62565b5b82810191505092915050565b6000614a9e6020840184613c5e565b905092915050565b600080fd5b600080fd5b60008083356001602003843603038112614acd57614acc614a62565b5b83810192508235915060208301925067ffffffffffffffff821115614af557614af4614aa6565b5b600182023603831315614b0b57614b0a614aab565b5b509250929050565b6000614b1f8385614783565b9350614b2c8385846139e2565b614b3583613925565b840190509392505050565b6000614b4f6020840184613c94565b905092915050565b600060a08301614b6a6000840184614a8f565b614b7760008601826147dc565b50614b856020840184614ab0565b8583036020870152614b98838284614b13565b92505050614ba96040840184614b40565b614bb66040860182614774565b50614bc46060840184614b40565b614bd16060860182614774565b50614bdf6080840184614b40565b614bec6080860182614774565b508091505092915050565b6000614c06602084018461390b565b905092915050565b614c17816138ea565b82525050565b600060608301614c306000840184614a67565b8482036000860152614c428282614b57565b915050614c526020840184614bf7565b614c5f6020860182614c0e565b50614c6d6040840184614ab0565b8583036040870152614c80838284614b13565b925050508091505092915050565b614c9781613c35565b82525050565b60006060820190508181036000830152614cb78186614c1d565b9050614cc66020830185614c8e565b614cd36040830184614c8e565b949350505050565b60008160601b9050919050565b6000614cf382614cdb565b9050919050565b6000614d0582614ce8565b9050919050565b614d1d614d1882613c35565b614cfa565b82525050565b6000614d2f8284614d0c565b60148201915081905092915050565b6000602082019050614d536000830184614c8e565b92915050565b7f4e487b7100000000000000000000000000000000000000000000000000000000600052602160045260246000fd5b7f756e77696e64506f736974696f6e3a20696e76616c696420646174612074797060008201527f6500000000000000000000000000000000000000000000000000000000000000602082015250565b6000614de4602183613dcf565b9150614def82614d88565b604082019050919050565b60006020820190508181036000830152614e1381614dd7565b9050919050565b600060208284031215614e3057614e2f613792565b5b6000614e3e84828501614402565b91505092915050565b7f6572726f723a2063616c6c6572206973206e6f742074686520626f72726f776560008201527f7200000000000000000000000000000000000000000000000000000000000000602082015250565b6000614ea3602183613dcf565b9150614eae82614e47565b604082019050919050565b60006020820190508181036000830152614ed281614e96565b9050919050565b7f4e487b7100000000000000000000000000000000000000000000000000000000600052603260045260246000fd5b600080fd5b600080fd5b60008085851115614f2657614f25614f08565b5b83861115614f3757614f36614f0d565b5b6001850283019150848603905094509492505050565b600060c082019050614f626000830189613d9a565b614f6f6020830188614c8e565b614f7c6040830187613d9a565b614f896060830186613e65565b614f966080830185613e65565b614fa360a0830184613e65565b979650505050505050565b6000819050919050565b614fc9614fc482613b60565b614fae565b82525050565b600081905092915050565b6000614fe582613f7a565b614fef8185614fcf565b9350614fff818560208601613de0565b80840191505092915050565b60006150178285614fb8565b6001820191506150278284614fda565b91508190509392505050565b600060a08301600083015161504b60008601826147dc565b50602083015184820360208601526150638282614794565b91505060408301516150786040860182614774565b50606083015161508b6060860182614774565b50608083015161509e6080860182614774565b508091505092915050565b600060608301600083015184820360008601526150c68282615033565b91505060208301516150db6020860182614c0e565b50604083015184820360408601526150f38282614794565b9150508091505092915050565b6000602082019050818103600083015261511a81846150a9565b905092915050565b7f636c6f7365506f736974696f6e3a20496e76616c696420646174612074797065600082015250565b6000615158602083613dcf565b915061516382615122565b602082019050919050565b600060208201905081810360008301526151878161514b565b9050919050565b7f6572726f723a2043616c6c6572206973206e6f742074686520626f72726f776560008201527f7200000000000000000000000000000000000000000000000000000000000000602082015250565b60006151ea602183613dcf565b91506151f58261518e565b604082019050919050565b60006020820190508181036000830152615219816151dd565b9050919050565b60006020828403121561523657615235613792565b5b600061524484828501614351565b91505092915050565b600060408201905081810360008301526152678185613f85565b9050818103602083015261527b8184613f85565b90509392505050565b7f4e487b7100000000000000000000000000000000000000000000000000000000600052601160045260246000fd5b60006152be82613c73565b91506152c983613c73565b92508282026152d781613c73565b915082820484148315176152ee576152ed615284565b5b5092915050565b7f4e487b7100000000000000000000000000000000000000000000000000000000600052601260045260246000fd5b600061532f82613c73565b915061533a83613c73565b92508261534a576153496152f5565b5b828204905092915050565b600061536082613c73565b915061536b83613c73565b925082820190508082111561538357615382615284565b5b92915050565b600060408201905081810360008301526153a38185614828565b90506153b26020830184613e65565b9392505050565b60006153c482613c73565b91506153cf83613c73565b92508282039050818111156153e7576153e6615284565b5b92915050565b7f4e6f7420656e6f75676820746f20636c6f736520746865206c6f616e00000000600082015250565b6000615423601c83613dcf565b915061542e826153ed565b602082019050919050565b6000602082019050818103600083015261545281615416565b9050919050565b600060c08201905081810360008301526154738189614c1d565b90506154826020830188614c8e565b61548f6040830187614c8e565b61549c6060830186613e65565b6154a96080830185613e65565b6154b660a0830184613e65565b979650505050505050565b6000602082840312156154d7576154d6613792565b5b60006154e584828501613c5e565b91505092915050565b7f54726163746f723a20696e76616c69642073656e646572000000000000000000600082015250565b6000615524601783613dcf565b915061552f826154ee565b602082019050919050565b6000602082019050818103600083015261555381615517565b9050919050565b7f426c75657072696e74206e6f7420616e204f7264657220747970650000000000600082015250565b6000615590601b83613dcf565b915061559b8261555a565b602082019050919050565b600060208201905081810360008301526155bf81615583565b9050919050565b6000823560016040038336030381126155e2576155e16142b7565b5b80830191505092915050565b60006020820190508181036000830152615609818486613bac565b90509392505050565b7f66696c6c4f726465723a2054616b657220213d206d73672e73656e6465720000600082015250565b6000615648601e83613dcf565b915061565382615612565b602082019050919050565b600060208201905081810360008301526156778161563b565b9050919050565b600067ffffffffffffffff82111561569957615698613936565b5b602082029050602081019050919050565b60006156bd6156b88461567e565b613996565b905080838252602082019050602084028301858111156156e0576156df6137ca565b5b835b8181101561570957806156f58882614351565b8452602084019350506020810190506156e2565b5050509392505050565b600082601f830112615728576157276137c0565b5b81516157388482602086016156aa565b91505092915050565b600067ffffffffffffffff82111561575c5761575b613936565b5b602082029050602081019050919050565b600061578061577b84615741565b613996565b905080838252602082019050602084028301858111156157a3576157a26137ca565b5b835b818110156157ea57805167ffffffffffffffff8111156157c8576157c76137c0565b5b8086016157d589826143a8565b855260208501945050506020810190506157a5565b5050509392505050565b600082601f830112615809576158086137c0565b5b815161581984826020860161576d565b91505092915050565b600067ffffffffffffffff82111561583d5761583c613936565b5b602082029050602081019050919050565b600061586161585c84615822565b613996565b90508083825260208201905060208402830185811115615884576158836137ca565b5b835b818110156158ad57806158998882614402565b845260208401935050602081019050615886565b5050509392505050565b600082601f8301126158cc576158cb6137c0565b5b81516158dc84826020860161584e565b91505092915050565b600067ffffffffffffffff821115615900576158ff613936565b5b602082029050602081019050919050565b600061592461591f846158e5565b613996565b90508083825260208201905060208402830185811115615947576159466137ca565b5b835b8181101561598e57805167ffffffffffffffff81111561596c5761596b6137c0565b5b8086016159798982614417565b85526020850194505050602081019050615949565b5050509392505050565b600082601f8301126159ad576159ac6137c0565b5b81516159bd848260208601615911565b91505092915050565b6000604082840312156159dc576159db613c0b565b5b6159e66040613996565b905060006159f684828501614351565b600083015250602082015167ffffffffffffffff811115615a1a57615a19613c10565b5b615a26848285016143a8565b60208301525092915050565b60006101e08284031215615a4957615a48613c0b565b5b615a546101e0613996565b9050600082015167ffffffffffffffff811115615a7457615a73613c10565b5b615a8084828501615713565b600083015250602082015167ffffffffffffffff811115615aa457615aa3613c10565b5b615ab0848285016157f4565b602083015250604082015167ffffffffffffffff811115615ad457615ad3613c10565b5b615ae0848285016157f4565b604083015250606082015167ffffffffffffffff811115615b0457615b03613c10565b5b615b1084828501615713565b606083015250608082015167ffffffffffffffff811115615b3457615b33613c10565b5b615b40848285016158b7565b60808301525060a0615b54848285016143ed565b60a08301525060c0615b6884828501614351565b60c08301525060e082015167ffffffffffffffff811115615b8c57615b8b613c10565b5b615b9884828501614417565b60e08301525061010082015167ffffffffffffffff811115615bbd57615bbc613c10565b5b615bc984828501614417565b6101008301525061012082015167ffffffffffffffff811115615bef57615bee613c10565b5b615bfb84828501614417565b6101208301525061014082015167ffffffffffffffff811115615c2157615c20613c10565b5b615c2d84828501615998565b6101408301525061016082015167ffffffffffffffff811115615c5357615c52613c10565b5b615c5f84828501615998565b6101608301525061018082015167ffffffffffffffff811115615c8557615c84613c10565b5b615c91848285016158b7565b610180830152506101a0615ca7848285016143ed565b6101a0830152506101c082015167ffffffffffffffff811115615ccd57615ccc613c10565b5b615cd9848285016159c6565b6101c08301525092915050565b600060208284031215615cfc57615cfb613792565b5b600082015167ffffffffffffffff811115615d1a57615d19613797565b5b615d2684828501615a32565b91505092915050565b7f5075626c697368657220646f6573206e6f74206f776e206c656e64657220616360008201527f636f756e74200000000000000000000000000000000000000000000000000000602082015250565b6000615d8b602683613dcf565b9150615d9682615d2f565b604082019050919050565b60006020820190508181036000830152615dba81615d7e565b9050919050565b7f426f6f6b6b65657065723a20496e76616c69642074616b657200000000000000600082015250565b6000615df7601983613dcf565b9150615e0282615dc1565b602082019050919050565b60006020820190508181036000830152615e2681615dea565b9050919050565b7f6e6f7420656e6f75676820636f6c6c61746572616c0000000000000000000000600082015250565b6000615e63601583613dcf565b9150615e6e82615e2d565b602082019050919050565b60006020820190508181036000830152615e9281615e56565b9050919050565b60006060820190508181036000830152615eb381866150a9565b9050615ec26020830185613d9a565b615ecf6040830184614c8e565b949350505050565b7f5265656e7472616e637947756172643a207265656e7472616e742063616c6c00600082015250565b6000615f0d601f83613dcf565b9150615f1882615ed7565b602082019050919050565b60006020820190508181036000830152615f3c81615f00565b9050919050565b6000604082019050615f586000830185613d9a565b8181036020830152615f6a8184613f85565b90509392505050565b6000615f7f8284614fda565b915081905092915050565b600081519050615f99816138f4565b92915050565b600060208284031215615fb557615fb4613792565b5b6000615fc384828501615f8a565b91505092915050565b7f4e6f7420626f72726f77657220616e64206c6f616e206973206e6f74206c697160008201527f756964617461626c650000000000000000000000000000000000000000000000602082015250565b6000616028602983613dcf565b915061603382615fcc565b604082019050919050565b600060208201905081810360008301526160578161601b565b9050919050565b7f4c656e646572206e6f74207061696420656e6f75676820746f20636c6f73652060008201527f6c6f616e00000000000000000000000000000000000000000000000000000000602082015250565b60006160ba602483613dcf565b91506160c58261605e565b604082019050919050565b600060208201905081810360008301526160e9816160ad565b9050919050565b7f426f72726f776572206e6f74207061696420656e6f75676820746f20636c6f7360008201527f65206c6f616e0000000000000000000000000000000000000000000000000000602082015250565b600061614c602683613dcf565b9150616157826160f0565b604082019050919050565b6000602082019050818103600083015261617b8161613f565b9050919050565b600081359050616191816143d6565b92915050565b6000602082840312156161ad576161ac613792565b5b60006161bb84828501616182565b91505092915050565b7f6f666665722066696c6c206f66206f6666657200000000000000000000000000600082015250565b60006161fa601383613dcf565b9150616205826161c4565b602082019050919050565b60006020820190508181036000830152616229816161ed565b9050919050565b7f726571756573742066696c6c206f662072657175657374000000000000000000600082015250565b6000616266601783613dcf565b915061627182616230565b602082019050919050565b6000602082019050818103600083015261629581616259565b9050919050565b7f6c6f616e416d6f756e7420746f6f20736d616c6c000000000000000000000000600082015250565b60006162d2601483613dcf565b91506162dd8261629c565b602082019050919050565b60006020820190508181036000830152616301816162c5565b9050919050565b600082356001604003833603038112616324576163236142b7565b5b80830191505092915050565b60006040828403121561634657616345613c0b565b5b6163506040613996565b9050600061636084828501613c5e565b600083015250602082013567ffffffffffffffff81111561638457616383613c10565b5b61639084828501613a33565b60208301525092915050565b60006163a83683616330565b9050919050565b7f666163746f7279206572726f723a2063726561746520636c6f6e65206661696c60008201527f6564000000000000000000000000000000000000000000000000000000000000602082015250565b600061640b602283613dcf565b9150616416826163af565b604082019050919050565b6000602082019050818103600083015261643a816163fe565b9050919050565b600061644c82613c15565b9050919050565b61645c81616441565b811461646757600080fd5b50565b60008151905061647981616453565b92915050565b60006020828403121561649557616494613792565b5b60006164a38482850161646a565b91505092915050565b600060a0820190506164c16000830188614c8e565b81810360208301526164d38187613f85565b90506164e26040830186613e65565b81810360608301526164f48185613f85565b905081810360808301526165088184613f85565b90509695505050505050565b7f756e6865616c746879206465706c6f796d656e74000000000000000000000000600082015250565b600061654a601483613dcf565b915061655582616514565b602082019050919050565b600060208201905081810360008301526165798161653d565b9050919050565b600081905092915050565b7f1901000000000000000000000000000000000000000000000000000000000000600082015250565b60006165c1600283616580565b91506165cc8261658b565b600282019050919050565b6000819050919050565b6165f26165ed826138ea565b6165d7565b82525050565b6000616603826165b4565b915061660f82856165e1565b60208201915061661f82846165e1565b6020820191508190509392505050565b600060a0820190506166446000830188613d9a565b6166516020830187613d9a565b61665e6040830186613d9a565b61666b6060830185613e65565b6166786080830184614c8e565b9695505050505050565b600060ff82169050919050565b61669881616682565b82525050565b60006080820190506166b36000830187613d9a565b6166c0602083018661668f565b6166cd6040830185613d9a565b6166da6060830184613d9a565b9594505050505056fea2646970667358221220f9ac195c153732ad2722a87ab9557d375abf55f7fe23740cbd1c9c442f61e68e64736f6c63430008130033",
  "linkReferences": {},
  "deployedLinkReferences": {}
}