{
  "_format": "hh-sol-artifact-1",
  "contractName": "Bookkeeper",
  "sourceName": "src/Bookkeeper.sol",
  "abi": [
    {
      "inputs": [],
      "stateMutability": "nonpayable",
      "type": "constructor"
    },
    {
      "anonymous": false,
      "inputs": [
        {
          "indexed": false,
          "internalType": "bytes32",
          "name": "blueprintHash",
          "type": "bytes32"
        }
      ],
      "name": "DestroyedBlueprint",
      "type": "event"
    },
    {
      "anonymous": false,
      "inputs": [
        {
          "components": [
            {
              "components": [
                {
                  "internalType": "address",
                  "name": "publisher",
                  "type": "address"
                },
                {
                  "internalType": "bytes",
                  "name": "data",
                  "type": "bytes"
                },
                {
                  "internalType": "uint256",
                  "name": "maxNonce",
                  "type": "uint256"
                },
                {
                  "internalType": "uint256",
                  "name": "startTime",
                  "type": "uint256"
                },
                {
                  "internalType": "uint256",
                  "name": "endTime",
                  "type": "uint256"
                }
              ],
              "internalType": "struct Blueprint",
              "name": "blueprint",
              "type": "tuple"
            },
            {
              "internalType": "bytes32",
              "name": "blueprintHash",
              "type": "bytes32"
            },
            {
              "internalType": "bytes",
              "name": "signature",
              "type": "bytes"
            }
          ],
          "indexed": false,
          "internalType": "struct SignedBlueprint",
          "name": "agreement",
          "type": "tuple"
        },
        {
          "indexed": false,
          "internalType": "bytes32",
          "name": "orderBlueprintHash",
          "type": "bytes32"
        },
        {
          "indexed": false,
          "internalType": "address",
          "name": "taker",
          "type": "address"
        }
      ],
      "name": "OrderFilled",
      "type": "event"
    },
    {
      "anonymous": false,
      "inputs": [
        {
          "components": [
            {
              "components": [
                {
                  "internalType": "address",
                  "name": "publisher",
                  "type": "address"
                },
                {
                  "internalType": "bytes",
                  "name": "data",
                  "type": "bytes"
                },
                {
                  "internalType": "uint256",
                  "name": "maxNonce",
                  "type": "uint256"
                },
                {
                  "internalType": "uint256",
                  "name": "startTime",
                  "type": "uint256"
                },
                {
                  "internalType": "uint256",
                  "name": "endTime",
                  "type": "uint256"
                }
              ],
              "internalType": "struct Blueprint",
              "name": "blueprint",
              "type": "tuple"
            },
            {
              "internalType": "bytes32",
              "name": "blueprintHash",
              "type": "bytes32"
            },
            {
              "internalType": "bytes",
              "name": "signature",
              "type": "bytes"
            }
          ],
          "indexed": false,
          "internalType": "struct SignedBlueprint",
          "name": "agreement",
          "type": "tuple"
        },
        {
          "indexed": false,
          "internalType": "address",
          "name": "position",
          "type": "address"
        },
        {
          "indexed": false,
          "internalType": "address",
          "name": "closer",
          "type": "address"
        },
        {
          "indexed": false,
          "internalType": "uint256",
          "name": "closeValue",
          "type": "uint256"
        },
        {
          "indexed": false,
          "internalType": "uint256",
          "name": "loanOrcale",
          "type": "uint256"
        },
        {
          "indexed": false,
          "internalType": "uint256",
          "name": "assessorCost",
          "type": "uint256"
        }
      ],
      "name": "PositionClosed",
      "type": "event"
    },
    {
      "anonymous": false,
      "inputs": [
        {
          "components": [
            {
              "components": [
                {
                  "internalType": "address",
                  "name": "publisher",
                  "type": "address"
                },
                {
                  "internalType": "bytes",
                  "name": "data",
                  "type": "bytes"
                },
                {
                  "internalType": "uint256",
                  "name": "maxNonce",
                  "type": "uint256"
                },
                {
                  "internalType": "uint256",
                  "name": "startTime",
                  "type": "uint256"
                },
                {
                  "internalType": "uint256",
                  "name": "endTime",
                  "type": "uint256"
                }
              ],
              "internalType": "struct Blueprint",
              "name": "blueprint",
              "type": "tuple"
            },
            {
              "internalType": "bytes32",
              "name": "blueprintHash",
              "type": "bytes32"
            },
            {
              "internalType": "bytes",
              "name": "signature",
              "type": "bytes"
            }
          ],
          "indexed": false,
          "internalType": "struct SignedBlueprint",
          "name": "agreement",
          "type": "tuple"
        },
        {
          "indexed": false,
          "internalType": "address",
          "name": "position",
          "type": "address"
        },
        {
          "indexed": false,
          "internalType": "address",
          "name": "liquidator",
          "type": "address"
        }
      ],
      "name": "PositionLiquidated",
      "type": "event"
    },
    {
      "anonymous": false,
      "inputs": [
        {
          "components": [
            {
              "components": [
                {
                  "internalType": "address",
                  "name": "publisher",
                  "type": "address"
                },
                {
                  "internalType": "bytes",
                  "name": "data",
                  "type": "bytes"
                },
                {
                  "internalType": "uint256",
                  "name": "maxNonce",
                  "type": "uint256"
                },
                {
                  "internalType": "uint256",
                  "name": "startTime",
                  "type": "uint256"
                },
                {
                  "internalType": "uint256",
                  "name": "endTime",
                  "type": "uint256"
                }
              ],
              "internalType": "struct Blueprint",
              "name": "blueprint",
              "type": "tuple"
            },
            {
              "internalType": "bytes32",
              "name": "blueprintHash",
              "type": "bytes32"
            },
            {
              "internalType": "bytes",
              "name": "signature",
              "type": "bytes"
            }
          ],
          "indexed": false,
          "internalType": "struct SignedBlueprint",
          "name": "signedBlueprint",
          "type": "tuple"
        }
      ],
      "name": "PublishedBlueprint",
      "type": "event"
    },
    {
      "anonymous": false,
      "inputs": [
        {
          "indexed": true,
          "internalType": "address",
          "name": "operator",
          "type": "address"
        },
        {
          "indexed": false,
          "internalType": "bytes32",
          "name": "blueprintHash",
          "type": "bytes32"
        }
      ],
      "name": "UsedBlueprint",
      "type": "event"
    },
    {
      "inputs": [],
      "name": "BLUEPRINT_TYPEHASH",
      "outputs": [
        {
          "internalType": "bytes32",
          "name": "",
          "type": "bytes32"
        }
      ],
      "stateMutability": "view",
      "type": "function"
    },
    {
      "inputs": [],
      "name": "PROTOCOL_NAME",
      "outputs": [
        {
          "internalType": "string",
          "name": "",
          "type": "string"
        }
      ],
      "stateMutability": "view",
      "type": "function"
    },
    {
      "inputs": [],
      "name": "PROTOCOL_VERSION",
      "outputs": [
        {
          "internalType": "string",
          "name": "",
          "type": "string"
        }
      ],
      "stateMutability": "view",
      "type": "function"
    },
    {
      "inputs": [
        {
          "internalType": "bytes32",
          "name": "",
          "type": "bytes32"
        }
      ],
      "name": "agreementClosed",
      "outputs": [
        {
          "internalType": "bool",
          "name": "",
          "type": "bool"
        }
      ],
      "stateMutability": "view",
      "type": "function"
    },
    {
      "inputs": [
        {
          "components": [
            {
              "components": [
                {
                  "internalType": "address",
                  "name": "publisher",
                  "type": "address"
                },
                {
                  "internalType": "bytes",
                  "name": "data",
                  "type": "bytes"
                },
                {
                  "internalType": "uint256",
                  "name": "maxNonce",
                  "type": "uint256"
                },
                {
                  "internalType": "uint256",
                  "name": "startTime",
                  "type": "uint256"
                },
                {
                  "internalType": "uint256",
                  "name": "endTime",
                  "type": "uint256"
                }
              ],
              "internalType": "struct Blueprint",
              "name": "blueprint",
              "type": "tuple"
            },
            {
              "internalType": "bytes32",
              "name": "blueprintHash",
              "type": "bytes32"
            },
            {
              "internalType": "bytes",
              "name": "signature",
              "type": "bytes"
            }
          ],
          "internalType": "struct SignedBlueprint",
          "name": "agreementBlueprint",
          "type": "tuple"
        }
      ],
      "name": "closePosition",
      "outputs": [],
      "stateMutability": "nonpayable",
      "type": "function"
    },
    {
      "inputs": [
        {
          "components": [
            {
              "components": [
                {
                  "internalType": "address",
                  "name": "publisher",
                  "type": "address"
                },
                {
                  "internalType": "bytes",
                  "name": "data",
                  "type": "bytes"
                },
                {
                  "internalType": "uint256",
                  "name": "maxNonce",
                  "type": "uint256"
                },
                {
                  "internalType": "uint256",
                  "name": "startTime",
                  "type": "uint256"
                },
                {
                  "internalType": "uint256",
                  "name": "endTime",
                  "type": "uint256"
                }
              ],
              "internalType": "struct Blueprint",
              "name": "blueprint",
              "type": "tuple"
            },
            {
              "internalType": "bytes32",
              "name": "blueprintHash",
              "type": "bytes32"
            },
            {
              "internalType": "bytes",
              "name": "signature",
              "type": "bytes"
            }
          ],
          "internalType": "struct SignedBlueprint",
          "name": "signedBlueprint",
          "type": "tuple"
        }
      ],
      "name": "destroyBlueprint",
      "outputs": [],
      "stateMutability": "nonpayable",
      "type": "function"
    },
    {
      "inputs": [],
      "name": "domainSeparator",
      "outputs": [
        {
          "internalType": "bytes32",
          "name": "",
          "type": "bytes32"
        }
      ],
      "stateMutability": "view",
      "type": "function"
    },
    {
      "inputs": [
        {
          "components": [
            {
              "components": [
                {
                  "internalType": "address",
                  "name": "addr",
                  "type": "address"
                },
                {
                  "internalType": "bytes",
                  "name": "parameters",
                  "type": "bytes"
                }
              ],
              "internalType": "struct PluginReference",
              "name": "account",
              "type": "tuple"
            },
            {
              "internalType": "uint256",
              "name": "loanAmount",
              "type": "uint256"
            },
            {
              "internalType": "uint256",
              "name": "takerIdx",
              "type": "uint256"
            },
            {
              "internalType": "uint256",
              "name": "loanAssetIdx",
              "type": "uint256"
            },
            {
              "internalType": "uint256",
              "name": "collAssetIdx",
              "type": "uint256"
            },
            {
              "internalType": "uint256",
              "name": "factoryIdx",
              "type": "uint256"
            },
            {
              "internalType": "bytes",
              "name": "fillerData",
              "type": "bytes"
            },
            {
              "internalType": "bool",
              "name": "isOfferFill",
              "type": "bool"
            },
            {
              "components": [
                {
                  "internalType": "uint256",
                  "name": "collAmount",
                  "type": "uint256"
                },
                {
                  "internalType": "bytes",
                  "name": "positionParameters",
                  "type": "bytes"
                }
              ],
              "internalType": "struct BorrowerConfig",
              "name": "borrowerConfig",
              "type": "tuple"
            }
          ],
          "internalType": "struct Fill",
          "name": "fill",
          "type": "tuple"
        },
        {
          "components": [
            {
              "components": [
                {
                  "internalType": "address",
                  "name": "publisher",
                  "type": "address"
                },
                {
                  "internalType": "bytes",
                  "name": "data",
                  "type": "bytes"
                },
                {
                  "internalType": "uint256",
                  "name": "maxNonce",
                  "type": "uint256"
                },
                {
                  "internalType": "uint256",
                  "name": "startTime",
                  "type": "uint256"
                },
                {
                  "internalType": "uint256",
                  "name": "endTime",
                  "type": "uint256"
                }
              ],
              "internalType": "struct Blueprint",
              "name": "blueprint",
              "type": "tuple"
            },
            {
              "internalType": "bytes32",
              "name": "blueprintHash",
              "type": "bytes32"
            },
            {
              "internalType": "bytes",
              "name": "signature",
              "type": "bytes"
            }
          ],
          "internalType": "struct SignedBlueprint",
          "name": "orderBlueprint",
          "type": "tuple"
        }
      ],
      "name": "fillOrder",
      "outputs": [],
      "stateMutability": "nonpayable",
      "type": "function"
    },
    {
      "inputs": [
        {
          "components": [
            {
              "internalType": "address",
              "name": "publisher",
              "type": "address"
            },
            {
              "internalType": "bytes",
              "name": "data",
              "type": "bytes"
            },
            {
              "internalType": "uint256",
              "name": "maxNonce",
              "type": "uint256"
            },
            {
              "internalType": "uint256",
              "name": "startTime",
              "type": "uint256"
            },
            {
              "internalType": "uint256",
              "name": "endTime",
              "type": "uint256"
            }
          ],
          "internalType": "struct Blueprint",
          "name": "blueprint",
          "type": "tuple"
        }
      ],
      "name": "getBlueprintHash",
      "outputs": [
        {
          "internalType": "bytes32",
          "name": "",
          "type": "bytes32"
        }
      ],
      "stateMutability": "view",
      "type": "function"
    },
    {
      "inputs": [],
      "name": "getChainId",
      "outputs": [
        {
          "internalType": "uint256",
          "name": "",
          "type": "uint256"
        }
      ],
      "stateMutability": "view",
      "type": "function"
    },
    {
      "inputs": [
        {
          "internalType": "bytes32",
          "name": "blueprintHash",
          "type": "bytes32"
        },
        {
          "internalType": "bytes",
          "name": "",
          "type": "bytes"
        }
      ],
      "name": "isValidSignature",
      "outputs": [
        {
          "internalType": "bytes4",
          "name": "magicValue",
          "type": "bytes4"
        }
      ],
      "stateMutability": "view",
      "type": "function"
    },
    {
      "inputs": [
        {
          "internalType": "address",
          "name": "signer",
          "type": "address"
        },
        {
          "internalType": "bytes32",
          "name": "hash",
          "type": "bytes32"
        },
        {
          "internalType": "bytes",
          "name": "signature",
          "type": "bytes"
        }
      ],
      "name": "isValidSignatureNow",
      "outputs": [
        {
          "internalType": "bool",
          "name": "",
          "type": "bool"
        }
      ],
      "stateMutability": "view",
      "type": "function"
    },
    {
      "inputs": [
        {
          "internalType": "bytes1",
          "name": "dataType",
          "type": "bytes1"
        },
        {
          "internalType": "bytes",
          "name": "data",
          "type": "bytes"
        }
      ],
      "name": "packDataField",
      "outputs": [
        {
          "internalType": "bytes",
          "name": "",
          "type": "bytes"
        }
      ],
      "stateMutability": "pure",
      "type": "function"
    },
    {
      "inputs": [
        {
          "components": [
            {
              "components": [
                {
                  "internalType": "address",
                  "name": "publisher",
                  "type": "address"
                },
                {
                  "internalType": "bytes",
                  "name": "data",
                  "type": "bytes"
                },
                {
                  "internalType": "uint256",
                  "name": "maxNonce",
                  "type": "uint256"
                },
                {
                  "internalType": "uint256",
                  "name": "startTime",
                  "type": "uint256"
                },
                {
                  "internalType": "uint256",
                  "name": "endTime",
                  "type": "uint256"
                }
              ],
              "internalType": "struct Blueprint",
              "name": "blueprint",
              "type": "tuple"
            },
            {
              "internalType": "bytes32",
              "name": "blueprintHash",
              "type": "bytes32"
            },
            {
              "internalType": "bytes",
              "name": "signature",
              "type": "bytes"
            }
          ],
          "internalType": "struct SignedBlueprint",
          "name": "signedBlueprint",
          "type": "tuple"
        }
      ],
      "name": "publishBlueprint",
      "outputs": [],
      "stateMutability": "nonpayable",
      "type": "function"
    },
    {
      "inputs": [
        {
          "components": [
            {
              "components": [
                {
                  "internalType": "address",
                  "name": "publisher",
                  "type": "address"
                },
                {
                  "internalType": "bytes",
                  "name": "data",
                  "type": "bytes"
                },
                {
                  "internalType": "uint256",
                  "name": "maxNonce",
                  "type": "uint256"
                },
                {
                  "internalType": "uint256",
                  "name": "startTime",
                  "type": "uint256"
                },
                {
                  "internalType": "uint256",
                  "name": "endTime",
                  "type": "uint256"
                }
              ],
              "internalType": "struct Blueprint",
              "name": "blueprint",
              "type": "tuple"
            },
            {
              "internalType": "bytes32",
              "name": "blueprintHash",
              "type": "bytes32"
            },
            {
              "internalType": "bytes",
              "name": "signature",
              "type": "bytes"
            }
          ],
          "internalType": "struct SignedBlueprint",
          "name": "agreementBlueprint",
          "type": "tuple"
        }
      ],
      "name": "triggerLiquidation",
      "outputs": [],
      "stateMutability": "nonpayable",
      "type": "function"
    },
    {
      "inputs": [
        {
          "internalType": "bytes",
          "name": "data",
          "type": "bytes"
        }
      ],
      "name": "unpackDataField",
      "outputs": [
        {
          "internalType": "bytes1",
          "name": "",
          "type": "bytes1"
        },
        {
          "internalType": "bytes",
          "name": "",
          "type": "bytes"
        }
      ],
      "stateMutability": "pure",
      "type": "function"
    },
    {
      "inputs": [
        {
          "components": [
            {
              "components": [
                {
                  "internalType": "address",
                  "name": "publisher",
                  "type": "address"
                },
                {
                  "internalType": "bytes",
                  "name": "data",
                  "type": "bytes"
                },
                {
                  "internalType": "uint256",
                  "name": "maxNonce",
                  "type": "uint256"
                },
                {
                  "internalType": "uint256",
                  "name": "startTime",
                  "type": "uint256"
                },
                {
                  "internalType": "uint256",
                  "name": "endTime",
                  "type": "uint256"
                }
              ],
              "internalType": "struct Blueprint",
              "name": "blueprint",
              "type": "tuple"
            },
            {
              "internalType": "bytes32",
              "name": "blueprintHash",
              "type": "bytes32"
            },
            {
              "internalType": "bytes",
              "name": "signature",
              "type": "bytes"
            }
          ],
          "internalType": "struct SignedBlueprint",
          "name": "agreementBlueprint",
          "type": "tuple"
        }
      ],
      "name": "unwindPosition",
      "outputs": [],
      "stateMutability": "nonpayable",
      "type": "function"
    }
  ],
  "bytecode": "0x6101406040523480156200001257600080fd5b506040518060400160405280600681526020017f706861726f7300000000000000000000000000000000000000000000000000008152506040518060400160405280600581526020017f302e322e300000000000000000000000000000000000000000000000000000008152508181818160008280519060200120905060008280519060200120905060007f8b73c3c69bb8fe3d512ecc4cf759cc79239f7b179b0ffacaa9a75d522b39400f90508260e081815250508161010081815250504660a08181525050620000ec8184846200014760201b60201c565b608081815250503073ffffffffffffffffffffffffffffffffffffffff1660c08173ffffffffffffffffffffffffffffffffffffffff168152505080610120818152505050505050505050505060016002819055506200025b565b6000838383463060405160200162000164959493929190620001fe565b6040516020818303038152906040528051906020012090509392505050565b6000819050919050565b620001988162000183565b82525050565b6000819050919050565b620001b3816200019e565b82525050565b600073ffffffffffffffffffffffffffffffffffffffff82169050919050565b6000620001e682620001b9565b9050919050565b620001f881620001d9565b82525050565b600060a0820190506200021560008301886200018d565b6200022460208301876200018d565b6200023360408301866200018d565b620002426060830185620001a8565b620002516080830184620001ed565b9695505050505050565b60805160a05160c05160e05161010051610120516161ee620002ab600039600061300b0152600061304d0152600061302c01526000612f6101526000612fb701526000612fe001526161ee6000f3fe608060405234801561001057600080fd5b506004361061010b5760003560e01c80636ccea652116100a2578063beaede8811610071578063beaede88146102e0578063cd514e18146102fe578063e7dca7d21461031a578063ee47838814610336578063f698da25146103525761010b565b80636ccea6521461025a578063727358061461028a578063a513069d146102a6578063aa3aa460146102c25761010b565b80632860ff75116100de5780632860ff75146101be5780633408e470146101dc5780636853de03146101fa5780636a445ba91461022a5761010b565b80630dec6bed146101105780631626ba7e1461012c57806319affdf61461015c5780631ed645521461018e575b600080fd5b61012a600480360381019061012591906133e2565b610370565b005b610146600480360381019061014191906135a7565b6106da565b604051610153919061363e565b60405180910390f35b610176600480360381019061017191906136b9565b610721565b6040516101859392919061377f565b60405180910390f35b6101a860048036038101906101a391906138f7565b610764565b6040516101b5919061394f565b60405180910390f35b6101c66107e1565b6040516101d391906139e9565b60405180910390f35b6101e461081a565b6040516101f19190613a1a565b60405180910390f35b610214600480360381019061020f9190613a35565b610822565b6040516102219190613a7d565b60405180910390f35b610244600480360381019061023f9190613ac4565b610842565b6040516102519190613b64565b60405180910390f35b610274600480360381019061026f9190613b86565b61086e565b6040516102819190613a7d565b60405180910390f35b6102a4600480360381019061029f9190613c91565b610884565b005b6102c060048036038101906102bb91906133e2565b61096c565b005b6102ca611139565b6040516102d791906139e9565b60405180910390f35b6102e8611172565b6040516102f5919061394f565b60405180910390f35b610318600480360381019061031391906133e2565b611196565b005b610334600480360381019061032f91906133e2565b611960565b005b610350600480360381019061034b9190613cfa565b611b22565b005b61035a61224e565b604051610367919061394f565b60405180910390f35b61037861225d565b8061038290613d72565b80602001516103948260000151610764565b146103d4576040517f08c379a00000000000000000000000000000000000000000000000000000000081526004016103cb90613dd1565b60405180910390fd5b6103ef816000015160000151826020015183604001516122aa565b61042e576040517f08c379a000000000000000000000000000000000000000000000000000000000815260040161042590613e3d565b60405180910390fd5b6000806104588480600001906104449190613e6c565b80602001906104539190613e94565b610721565b8080601f016020809104026020016040519081016040528093929190818152602001838380828437600081840152601f19601f82011690508083019250505050505050915091506002808111156104b2576104b1613ef7565b5b60f81b7effffffffffffffffffffffffffffffffffffffffffffffffffffffffffffff1916827effffffffffffffffffffffffffffffffffffffffffffffffffffffffffffff19161461053a576040517f08c379a000000000000000000000000000000000000000000000000000000000815260040161053190613f98565b60405180910390fd5b6000818060200190518101906105509190614392565b905060008161010001516000015173ffffffffffffffffffffffffffffffffffffffff1663b102bfbe836101000151602001516040518263ffffffff1660e01b815260040161059f9190613b64565b602060405180830381865afa1580156105bc573d6000803e3d6000fd5b505050506040513d601f19601f820116820180604052508101906105e091906143db565b73ffffffffffffffffffffffffffffffffffffffff163373ffffffffffffffffffffffffffffffffffffffff1614905080610650576040517f08c379a00000000000000000000000000000000000000000000000000000000081526004016106479061447a565b60405180910390fd5b6000826101c001516000015190508073ffffffffffffffffffffffffffffffffffffffff16638f9acff3846040518263ffffffff1660e01b815260040161069791906146fa565b600060405180830381600087803b1580156106b157600080fd5b505af11580156106c5573d6000803e3d6000fd5b505050505050505050506106d7612470565b50565b600080600084815260200190815260200160002060009054906101000a900460ff161561071057631626ba7e60e01b905061071b565b63ffffffff60e01b90505b92915050565b60003660008484600081811061073a5761073961471c565b5b9050013560f81c60f81b8585600190809261075793929190614755565b9250925092509250925092565b60006107da7fabb38f99128910356202f56a25bd1c0cbc076ddee0387a6ff4671f05fabedcd183600001518460200151805190602001208560400151866060015187608001516040516020016107bf9695949392919061479f565b6040516020818303038152906040528051906020012061247a565b9050919050565b6040518060400160405280600681526020017f706861726f73000000000000000000000000000000000000000000000000000081525081565b600046905090565b60036020528060005260406000206000915054906101000a900460ff1681565b6060828260405160200161085792919061485d565b604051602081830303815290604052905092915050565b600061087b8484846122aa565b90509392505050565b8080602001516108978260000151610764565b146108d7576040517f08c379a00000000000000000000000000000000000000000000000000000000081526004016108ce90613dd1565b60405180910390fd5b6108f2816000015160000151826020015183604001516122aa565b610931576040517f08c379a000000000000000000000000000000000000000000000000000000000815260040161092890613e3d565b60405180910390fd5b7fe88b49ce78855e321e33f58c41af6039301a3ff5454da2b09ddb1be1d9a525d4826040516109609190614961565b60405180910390a15050565b61097461225d565b8061097e90613d72565b80602001516109908260000151610764565b146109d0576040517f08c379a00000000000000000000000000000000000000000000000000000000081526004016109c790613dd1565b60405180910390fd5b6109eb816000015160000151826020015183604001516122aa565b610a2a576040517f08c379a0000000000000000000000000000000000000000000000000000000008152600401610a2190613e3d565b60405180910390fd5b6000610a53838060000190610a3f9190613e6c565b8060200190610a4e9190613e94565b610721565b8080601f016020809104026020016040519081016040528093929190818152602001838380828437600081840152601f19601f82011690508083019250505050505050915050600081806020019051810190610aaf9190614392565b9050600081604051602001610ac491906146fa565b6040516020818303038152906040528051906020012090506000826101c001516000015190506003600083815260200190815260200160002060009054906101000a900460ff1615610b4b576040517f08c379a0000000000000000000000000000000000000000000000000000000008152600401610b42906149cf565b60405180910390fd5b610b5483612494565b610b93576040517f08c379a0000000000000000000000000000000000000000000000000000000008152600401610b8a90614a61565b60405180910390fd5b60008361012001516000015173ffffffffffffffffffffffffffffffffffffffff1663458a83c3856040518263ffffffff1660e01b8152600401610bd791906146fa565b6020604051808303816000875af1158015610bf6573d6000803e3d6000fd5b505050506040513d601f19601f82011682018060405250810190610c1a9190614a81565b905060008461016001516000015173ffffffffffffffffffffffffffffffffffffffff16632e820849866101600151602001518761020001516040518363ffffffff1660e01b8152600401610c70929190614aae565b6020604051808303816000875af1158015610c8f573d6000803e3d6000fd5b505050506040513d601f19601f82011682018060405250810190610cb39190614a81565b905060008561018001516000015173ffffffffffffffffffffffffffffffffffffffff16632e820849876101800151602001518861020001516040518363ffffffff1660e01b8152600401610d09929190614aae565b6020604051808303816000875af1158015610d28573d6000803e3d6000fd5b505050506040513d601f19601f82011682018060405250810190610d4c9190614a81565b9050600082670de0b6b3a764000085610d659190614b14565b610d6f9190614b85565b8760000151610d7e9190614bb6565b905060008573ffffffffffffffffffffffffffffffffffffffff1663edd9e4b5896040518263ffffffff1660e01b8152600401610dbb91906146fa565b6020604051808303816000875af1158015610dda573d6000803e3d6000fd5b505050506040513d601f19601f82011682018060405250810190610dfe9190614a81565b905060008861014001516000015173ffffffffffffffffffffffffffffffffffffffff1663020bd2798a6040518263ffffffff1660e01b8152600401610e4491906146fa565b6020604051808303816000875af1158015610e63573d6000803e3d6000fd5b505050506040513d601f19601f82011682018060405250810190610e879190614a81565b9050600084670de0b6b3a7640000838686610ea29190614bea565b610eac9190614bea565b610eb69190614b14565b610ec09190614b85565b90508960e001516000015173ffffffffffffffffffffffffffffffffffffffff1663f5b093df338c60400151878e60e00151602001516040518563ffffffff1660e01b8152600401610f159493929190614c1e565b600060405180830381600087803b158015610f2f57600080fd5b505af1158015610f43573d6000803e3d6000fd5b505050508961010001516000015173ffffffffffffffffffffffffffffffffffffffff1663f5b093df338c60600151848e6101000151602001516040518563ffffffff1660e01b8152600401610f9c9493929190614c1e565b600060405180830381600087803b158015610fb657600080fd5b505af1158015610fca573d6000803e3d6000fd5b505050507f904c358bc985322bfcccbbb99273cfee6c2cd56dc2d328bbd37b458efa2d9ff18d8b6101c00151600001513360405161100a93929190614e8e565b60405180910390a16001600360008c6101c00151600001516040516020016110329190614f14565b60405160208183030381529060405280519060200120815260200190815260200160002060006101000a81548160ff0219169083151502179055507f40246ab0a03d0d296b9e8cee5ae45cd5f94640ea0834ea9a8f0cd50e445e77e58d8b6101c001516000015133868a8c6040516110af96959493929190614f2f565b60405180910390a18773ffffffffffffffffffffffffffffffffffffffff166347635dac336040518263ffffffff1660e01b81526004016110f09190614f97565b600060405180830381600087803b15801561110a57600080fd5b505af115801561111e573d6000803e3d6000fd5b50505050505050505050505050505050611136612470565b50565b6040518060400160405280600581526020017f302e322e3000000000000000000000000000000000000000000000000000000081525081565b7fabb38f99128910356202f56a25bd1c0cbc076ddee0387a6ff4671f05fabedcd181565b61119e61225d565b806111a890613d72565b80602001516111ba8260000151610764565b146111fa576040517f08c379a00000000000000000000000000000000000000000000000000000000081526004016111f190613dd1565b60405180910390fd5b611215816000015160000151826020015183604001516122aa565b611254576040517f08c379a000000000000000000000000000000000000000000000000000000000815260040161124b90613e3d565b60405180910390fd5b60008061127e84806000019061126a9190613e6c565b80602001906112799190613e94565b610721565b8080601f016020809104026020016040519081016040528093929190818152602001838380828437600081840152601f19601f82011690508083019250505050505050915091506002808111156112d8576112d7613ef7565b5b60f81b7effffffffffffffffffffffffffffffffffffffffffffffffffffffffffffff1916827effffffffffffffffffffffffffffffffffffffffffffffffffffffffffffff191614611360576040517f08c379a000000000000000000000000000000000000000000000000000000000815260040161135790614ffe565b60405180910390fd5b6000818060200190518101906113769190614392565b905060008161010001516000015173ffffffffffffffffffffffffffffffffffffffff1663b102bfbe836101000151602001516040518263ffffffff1660e01b81526004016113c59190613b64565b602060405180830381865afa1580156113e2573d6000803e3d6000fd5b505050506040513d601f19601f8201168201806040525081019061140691906143db565b73ffffffffffffffffffffffffffffffffffffffff163373ffffffffffffffffffffffffffffffffffffffff1614905080611476576040517f08c379a000000000000000000000000000000000000000000000000000000000815260040161146d90615090565b60405180910390fd5b6000826101c0015160000151905060008360e0015160000151905060008273ffffffffffffffffffffffffffffffffffffffff1663edd9e4b5866040518263ffffffff1660e01b81526004016114cc91906146fa565b6020604051808303816000875af11580156114eb573d6000803e3d6000fd5b505050506040513d601f19601f8201168201806040525081019061150f9190614a81565b905060008561012001516000015173ffffffffffffffffffffffffffffffffffffffff1663458a83c3876040518263ffffffff1660e01b815260040161155591906146fa565b6020604051808303816000875af1158015611574573d6000803e3d6000fd5b505050506040513d601f19601f820116820180604052508101906115989190614a81565b905060008661016001516000015173ffffffffffffffffffffffffffffffffffffffff16632e820849886101600151602001518961020001516040518363ffffffff1660e01b81526004016115ee929190614aae565b6020604051808303816000875af115801561160d573d6000803e3d6000fd5b505050506040513d601f19601f820116820180604052508101906116319190614a81565b905060008473ffffffffffffffffffffffffffffffffffffffff1663890811ae89604001518a60e00151602001516040518363ffffffff1660e01b815260040161167c929190614aae565b602060405180830381865afa158015611699573d6000803e3d6000fd5b505050506040513d601f19601f820116820180604052508101906116bd9190614a81565b9050600082670de0b6b3a7640000856116d69190614b14565b6116e09190614b85565b89600001516116ef9190614bb6565b90508673ffffffffffffffffffffffffffffffffffffffff16636c3fc8318a836040518363ffffffff1660e01b815260040161172c9291906150b0565b600060405180830381600087803b15801561174657600080fd5b505af115801561175a573d6000803e3d6000fd5b5050505060008673ffffffffffffffffffffffffffffffffffffffff1663890811ae8b604001518c60e00151602001516040518363ffffffff1660e01b81526004016117a7929190614aae565b602060405180830381865afa1580156117c4573d6000803e3d6000fd5b505050506040513d601f19601f820116820180604052508101906117e89190614a81565b90508183826117f79190614bea565b1015611838576040517f08c379a000000000000000000000000000000000000000000000000000000000815260040161182f9061512c565b60405180910390fd5b6001600360008c6101c00151600001516040516020016118589190614f14565b60405160208183030381529060405280519060200120815260200190815260200160002060006101000a81548160ff0219169083151502179055507f40246ab0a03d0d296b9e8cee5ae45cd5f94640ea0834ea9a8f0cd50e445e77e58e8b6101c00151600001513389888a6040516118d596959493929190614f2f565b60405180910390a18773ffffffffffffffffffffffffffffffffffffffff166347635dac336040518263ffffffff1660e01b81526004016119169190614f97565b600060405180830381600087803b15801561193057600080fd5b505af1158015611944573d6000803e3d6000fd5b505050505050505050505050505050505061195d612470565b50565b8061196a90613d72565b806020015161197c8260000151610764565b146119bc576040517f08c379a00000000000000000000000000000000000000000000000000000000081526004016119b390613dd1565b60405180910390fd5b6119d7816000015160000151826020015183604001516122aa565b611a16576040517f08c379a0000000000000000000000000000000000000000000000000000000008152600401611a0d90613e3d565b60405180910390fd5b81808060000190611a279190613e6c565b6000016020810190611a39919061514c565b73ffffffffffffffffffffffffffffffffffffffff163373ffffffffffffffffffffffffffffffffffffffff1614611aa6576040517f08c379a0000000000000000000000000000000000000000000000000000000008152600401611a9d906151c5565b60405180910390fd5b7fffffffffffffffffffffffffffffffffffffffffffffffffffffffffffffffff6001600085602001358152602001908152602001600020819055507fc954dbcaf38dbaf01d8ac7f2d37afc45123081ade8ccf1efd7f23db2cfb62cb58360200135604051611b15919061394f565b60405180910390a1505050565b611b2a61225d565b80611b3490613d72565b8060200151611b468260000151610764565b14611b86576040517f08c379a0000000000000000000000000000000000000000000000000000000008152600401611b7d90613dd1565b60405180910390fd5b611ba1816000015160000151826020015183604001516122aa565b611be0576040517f08c379a0000000000000000000000000000000000000000000000000000000008152600401611bd790613e3d565b60405180910390fd5b600080611c0a848060000190611bf69190613e6c565b8060200190611c059190613e94565b610721565b8080601f016020809104026020016040519081016040528093929190818152602001838380828437600081840152601f19601f820116905080830192505050505050509150915060016002811115611c6557611c64613ef7565b5b60ff168260f81c60ff1614611caf576040517f08c379a0000000000000000000000000000000000000000000000000000000008152600401611ca690615231565b60405180910390fd5b848060000190611cbf9190615251565b6000016020810190611cd1919061514c565b73ffffffffffffffffffffffffffffffffffffffff1663b102bfbe868060000190611cfc9190615251565b8060200190611d0b9190613e94565b6040518363ffffffff1660e01b8152600401611d28929190615279565b602060405180830381865afa158015611d45573d6000803e3d6000fd5b505050506040513d601f19601f82011682018060405250810190611d6991906143db565b73ffffffffffffffffffffffffffffffffffffffff163373ffffffffffffffffffffffffffffffffffffffff1614611dd6576040517f08c379a0000000000000000000000000000000000000000000000000000000008152600401611dcd906152e9565b60405180910390fd5b600081806020019051810190611dec9190615971565b90508060e001516000015173ffffffffffffffffffffffffffffffffffffffff1663b102bfbe8260e00151602001516040518263ffffffff1660e01b8152600401611e379190613b64565b602060405180830381865afa158015611e54573d6000803e3d6000fd5b505050506040513d601f19601f82011682018060405250810190611e7891906143db565b73ffffffffffffffffffffffffffffffffffffffff16858060000190611e9e9190613e6c565b6000016020810190611eb0919061514c565b73ffffffffffffffffffffffffffffffffffffffff1614611f06576040517f08c379a0000000000000000000000000000000000000000000000000000000008152600401611efd90615a2c565b60405180910390fd5b60008160800151511115611fa5573373ffffffffffffffffffffffffffffffffffffffff168160800151876040013581518110611f4657611f4561471c565b5b602002602001015173ffffffffffffffffffffffffffffffffffffffff1614611fa4576040517f08c379a0000000000000000000000000000000000000000000000000000000008152600401611f9b90615a98565b60405180910390fd5b5b611faf86826126eb565b6000611fbb878361280d565b90506000670de0b6b3a76400008261016001516000015173ffffffffffffffffffffffffffffffffffffffff1663f09f4079846101600151602001518561020001516040518363ffffffff1660e01b815260040161201a929190614aae565b6020604051808303816000875af1158015612039573d6000803e3d6000fd5b505050506040513d601f19601f8201168201806040525081019061205d9190614a81565b836000015161206c9190614b14565b6120769190614b85565b90506000670de0b6b3a76400008361018001516000015173ffffffffffffffffffffffffffffffffffffffff1663f09f4079856101800151602001518661020001516040518363ffffffff1660e01b81526004016120d5929190614aae565b6020604051808303816000875af11580156120f4573d6000803e3d6000fd5b505050506040513d601f19601f820116820180604052508101906121189190614a81565b84602001516121279190614b14565b6121319190614b85565b905060008460a00151156121705782670de0b6b3a764000083856121559190614bb6565b61215f9190614b14565b6121699190614b85565b9050612192565b82670de0b6b3a7640000836121859190614b14565b61218f9190614b85565b90505b83608001518110156121d9576040517f08c379a00000000000000000000000000000000000000000000000000000000081526004016121d090615b04565b60405180910390fd5b42846101e00181815250506121ed84612afd565b60006121f885612e79565b90507f21a6001862375a91bbf0eff278ae1eaee77323f67273ed674a16f9607888696f818b602001353360405161223193929190615b24565b60405180910390a150505050505050505061224a612470565b5050565b6000612258612f5d565b905090565b60028054036122a1576040517f08c379a000000000000000000000000000000000000000000000000000000000815260040161229890615bae565b60405180910390fd5b60028081905550565b60008060006122b98585613077565b91509150600060048111156122d1576122d0613ef7565b5b8160048111156122e4576122e3613ef7565b5b14801561231c57508573ffffffffffffffffffffffffffffffffffffffff168273ffffffffffffffffffffffffffffffffffffffff16145b1561232c57600192505050612469565b6000808773ffffffffffffffffffffffffffffffffffffffff16631626ba7e60e01b8888604051602401612361929190615bce565b604051602081830303815290604052907bffffffffffffffffffffffffffffffffffffffffffffffffffffffff19166020820180517bffffffffffffffffffffffffffffffffffffffffffffffffffffffff83818316178352505050506040516123cb9190615bfe565b600060405180830381855afa9150503d8060008114612406576040519150601f19603f3d011682016040523d82523d6000602084013e61240b565b606091505b509150915081801561241e575060208151145b80156124625750631626ba7e60e01b7bffffffffffffffffffffffffffffffffffffffffffffffffffffffff1916818060200190518101906124609190615c2a565b145b9450505050505b9392505050565b6001600281905550565b600061248d612487612f5d565b836130c8565b9050919050565b600080826101c001516000015190508260a00151836101e001516124b89190614bb6565b4211156124c95760019150506126e6565b60008173ffffffffffffffffffffffffffffffffffffffff1663edd9e4b5856040518263ffffffff1660e01b815260040161250491906146fa565b6020604051808303816000875af1158015612523573d6000803e3d6000fd5b505050506040513d601f19601f820116820180604052508101906125479190614a81565b905060008461012001516000015173ffffffffffffffffffffffffffffffffffffffff1663458a83c3866040518263ffffffff1660e01b815260040161258d91906146fa565b6020604051808303816000875af11580156125ac573d6000803e3d6000fd5b505050506040513d601f19601f820116820180604052508101906125d09190614a81565b905060008561016001516000015173ffffffffffffffffffffffffffffffffffffffff16632e820849876101600151602001518861020001516040518363ffffffff1660e01b8152600401612626929190614aae565b6020604051808303816000875af1158015612645573d6000803e3d6000fd5b505050506040513d601f19601f820116820180604052508101906126699190614a81565b9050600082670de0b6b3a76400008389600001516126879190614b14565b6126919190614b85565b61269b9190614bb6565b9050600081670de0b6b3a7640000866126b49190614b14565b6126be9190614b85565b905087608001518110156126db57600196505050505050506126e6565b600096505050505050505b919050565b806101a0015161274d578160e00160208101906127089190615c6c565b15612748576040517f08c379a000000000000000000000000000000000000000000000000000000000815260040161273f90615ce5565b60405180910390fd5b6127a0565b8160e00160208101906127609190615c6c565b61279f576040517f08c379a000000000000000000000000000000000000000000000000000000000815260040161279690615d51565b60405180910390fd5b5b80600001518260600135815181106127bb576127ba61471c565b5b602002602001015182602001351015612809576040517f08c379a000000000000000000000000000000000000000000000000000000000815260040161280090615dbd565b60405180910390fd5b5050565b612815613245565b8160c001518160a0018181525050816101000151816101200181905250816101200151816101400181905250816020015183606001358151811061285c5761285b61471c565b5b602002602001015181604001819052508161014001518360600135815181106128885761288761471c565b5b602002602001015181610160018190525081604001518360800135815181106128b4576128b361471c565b5b602002602001015181606001819052508161016001518360800135815181106128e0576128df61471c565b5b6020026020010151816101800181905250816060015183608001358151811061290c5761290b61471c565b5b60200260200101518160800181815250508161018001518360a00135815181106129395761293861471c565b5b6020026020010151816101a0019073ffffffffffffffffffffffffffffffffffffffff16908173ffffffffffffffffffffffffffffffffffffffff16815250508260200135816000018181525050828061010001906129989190615ddd565b60000135816020018181525050828060c001906129b59190613e94565b8080601f016020809104026020016040519081016040528093929190818152602001838380828437600081840152601f19601f82011690508083019250505050505050816102000181905250816101a0015115612ab0578160e001518160e00181905250828060000190612a299190615251565b612a3290615e71565b81610100018190525082806101000190612a4c9190615ddd565b8060200190612a5b9190613e94565b8080601f016020809104026020016040519081016040528093929190818152602001838380828437600081840152601f19601f82011690508083019250505050505050816101c0015160200181905250612af7565b828060000190612ac09190615251565b612ac990615e71565b8160e001819052508160e00151816101000181905250816101c0015160200151816101c00151602001819052505b92915050565b600080826101a0015173ffffffffffffffffffffffffffffffffffffffff166040516024016040516020818303038152906040527f64f2d4b9000000000000000000000000000000000000000000000000000000007bffffffffffffffffffffffffffffffffffffffffffffffffffffffff19166020820180517bffffffffffffffffffffffffffffffffffffffffffffffffffffffff8381831617835250505050604051612bac9190615bfe565b6000604051808303816000865af19150503d8060008114612be9576040519150601f19603f3d011682016040523d82523d6000602084013e612bee565b606091505b509150915081612c33576040517f08c379a0000000000000000000000000000000000000000000000000000000008152600401612c2a90615ef6565b60405180910390fd5b80806020019051810190612c479190615f54565b836101c001516000019073ffffffffffffffffffffffffffffffffffffffff16908173ffffffffffffffffffffffffffffffffffffffff16815250508260e001516000015173ffffffffffffffffffffffffffffffffffffffff1663a9d7d6c8846101c0015160000151856040015186600001518760e00151602001518861020001516040518663ffffffff1660e01b8152600401612cea959493929190615f81565b600060405180830381600087803b158015612d0457600080fd5b505af1158015612d18573d6000803e3d6000fd5b505050508261010001516000015173ffffffffffffffffffffffffffffffffffffffff1663a9d7d6c8846101c001516000015185606001518660200151876101000151602001518861020001516040518663ffffffff1660e01b8152600401612d85959493929190615f81565b600060405180830381600087803b158015612d9f57600080fd5b505af1158015612db3573d6000803e3d6000fd5b50505050826101c001516000015173ffffffffffffffffffffffffffffffffffffffff16635aa56409846040518263ffffffff1660e01b8152600401612df991906146fa565b600060405180830381600087803b158015612e1357600080fd5b505af1158015612e27573d6000803e3d6000fd5b50505050612e3483612494565b15612e74576040517f08c379a0000000000000000000000000000000000000000000000000000000008152600401612e6b90616035565b60405180910390fd5b505050565b612e8161330b565b3081600001516000019073ffffffffffffffffffffffffffffffffffffffff16908173ffffffffffffffffffffffffffffffffffffffff1681525050612efb600280811115612ed357612ed2613ef7565b5b60f81b83604051602001612ee791906146fa565b604051602081830303815290604052610842565b8160000151602001819052507fffffffffffffffffffffffffffffffffffffffffffffffffffffffffffffffff81600001516080018181525050612f428160000151610764565b816020018181525050612f5881602001516130fb565b919050565b60007f000000000000000000000000000000000000000000000000000000000000000073ffffffffffffffffffffffffffffffffffffffff163073ffffffffffffffffffffffffffffffffffffffff16148015612fd957507f000000000000000000000000000000000000000000000000000000000000000046145b15613006577f00000000000000000000000000000000000000000000000000000000000000009050613074565b6130717f00000000000000000000000000000000000000000000000000000000000000007f00000000000000000000000000000000000000000000000000000000000000007f0000000000000000000000000000000000000000000000000000000000000000613129565b90505b90565b60008060418351036130b85760008060006020860151925060408601519150606086015160001a90506130ac87828585613163565b945094505050506130c1565b60006002915091505b9250929050565b600082826040516020016130dd9291906160cd565b60405160208183030381529060405280519060200120905092915050565b600160008083815260200190815260200160002060006101000a81548160ff02191690831515021790555050565b60008383834630604051602001613144959493929190616104565b6040516020818303038152906040528051906020012090509392505050565b6000807f7fffffffffffffffffffffffffffffff5d576e7357a4501ddfe92f46681b20a08360001c111561319e57600060039150915061323c565b6000600187878787604051600081526020016040526040516131c39493929190616173565b6020604051602081039080840390855afa1580156131e5573d6000803e3d6000fd5b505050602060405103519050600073ffffffffffffffffffffffffffffffffffffffff168173ffffffffffffffffffffffffffffffffffffffff16036132335760006001925092505061323c565b80600092509250505b94509492505050565b60405180610220016040528060008152602001600081526020016060815260200160608152602001600081526020016000815260200160001515815260200161328c613335565b8152602001613299613335565b81526020016132a6613335565b81526020016132b3613335565b81526020016132c0613335565b81526020016132cd613335565b8152602001600073ffffffffffffffffffffffffffffffffffffffff1681526020016132f7613335565b815260200160008152602001606081525090565b604051806060016040528061331e613365565b815260200160008019168152602001606081525090565b6040518060400160405280600073ffffffffffffffffffffffffffffffffffffffff168152602001606081525090565b6040518060a00160405280600073ffffffffffffffffffffffffffffffffffffffff168152602001606081526020016000815260200160008152602001600081525090565b6000604051905090565b600080fd5b600080fd5b600080fd5b6000606082840312156133d9576133d86133be565b5b81905092915050565b6000602082840312156133f8576133f76133b4565b5b600082013567ffffffffffffffff811115613416576134156133b9565b5b613422848285016133c3565b91505092915050565b6000819050919050565b61343e8161342b565b811461344957600080fd5b50565b60008135905061345b81613435565b92915050565b600080fd5b600080fd5b6000601f19601f8301169050919050565b7f4e487b7100000000000000000000000000000000000000000000000000000000600052604160045260246000fd5b6134b48261346b565b810181811067ffffffffffffffff821117156134d3576134d261347c565b5b80604052505050565b60006134e66133aa565b90506134f282826134ab565b919050565b600067ffffffffffffffff8211156135125761351161347c565b5b61351b8261346b565b9050602081019050919050565b82818337600083830152505050565b600061354a613545846134f7565b6134dc565b90508281526020810184848401111561356657613565613466565b5b613571848285613528565b509392505050565b600082601f83011261358e5761358d613461565b5b813561359e848260208601613537565b91505092915050565b600080604083850312156135be576135bd6133b4565b5b60006135cc8582860161344c565b925050602083013567ffffffffffffffff8111156135ed576135ec6133b9565b5b6135f985828601613579565b9150509250929050565b60007fffffffff0000000000000000000000000000000000000000000000000000000082169050919050565b61363881613603565b82525050565b6000602082019050613653600083018461362f565b92915050565b600080fd5b600080fd5b60008083601f84011261367957613678613461565b5b8235905067ffffffffffffffff81111561369657613695613659565b5b6020830191508360018202830111156136b2576136b161365e565b5b9250929050565b600080602083850312156136d0576136cf6133b4565b5b600083013567ffffffffffffffff8111156136ee576136ed6133b9565b5b6136fa85828601613663565b92509250509250929050565b60007fff0000000000000000000000000000000000000000000000000000000000000082169050919050565b61373b81613706565b82525050565b600082825260208201905092915050565b600061375e8385613741565b935061376b838584613528565b6137748361346b565b840190509392505050565b60006040820190506137946000830186613732565b81810360208301526137a7818486613752565b9050949350505050565b600080fd5b600080fd5b600073ffffffffffffffffffffffffffffffffffffffff82169050919050565b60006137e6826137bb565b9050919050565b6137f6816137db565b811461380157600080fd5b50565b600081359050613813816137ed565b92915050565b6000819050919050565b61382c81613819565b811461383757600080fd5b50565b60008135905061384981613823565b92915050565b600060a08284031215613865576138646137b1565b5b61386f60a06134dc565b9050600061387f84828501613804565b600083015250602082013567ffffffffffffffff8111156138a3576138a26137b6565b5b6138af84828501613579565b60208301525060406138c38482850161383a565b60408301525060606138d78482850161383a565b60608301525060806138eb8482850161383a565b60808301525092915050565b60006020828403121561390d5761390c6133b4565b5b600082013567ffffffffffffffff81111561392b5761392a6133b9565b5b6139378482850161384f565b91505092915050565b6139498161342b565b82525050565b60006020820190506139646000830184613940565b92915050565b600081519050919050565b600082825260208201905092915050565b60005b838110156139a4578082015181840152602081019050613989565b60008484015250505050565b60006139bb8261396a565b6139c58185613975565b93506139d5818560208601613986565b6139de8161346b565b840191505092915050565b60006020820190508181036000830152613a0381846139b0565b905092915050565b613a1481613819565b82525050565b6000602082019050613a2f6000830184613a0b565b92915050565b600060208284031215613a4b57613a4a6133b4565b5b6000613a598482850161344c565b91505092915050565b60008115159050919050565b613a7781613a62565b82525050565b6000602082019050613a926000830184613a6e565b92915050565b613aa181613706565b8114613aac57600080fd5b50565b600081359050613abe81613a98565b92915050565b60008060408385031215613adb57613ada6133b4565b5b6000613ae985828601613aaf565b925050602083013567ffffffffffffffff811115613b0a57613b096133b9565b5b613b1685828601613579565b9150509250929050565b600081519050919050565b6000613b3682613b20565b613b408185613741565b9350613b50818560208601613986565b613b598161346b565b840191505092915050565b60006020820190508181036000830152613b7e8184613b2b565b905092915050565b600080600060608486031215613b9f57613b9e6133b4565b5b6000613bad86828701613804565b9350506020613bbe8682870161344c565b925050604084013567ffffffffffffffff811115613bdf57613bde6133b9565b5b613beb86828701613579565b9150509250925092565b600060608284031215613c0b57613c0a6137b1565b5b613c1560606134dc565b9050600082013567ffffffffffffffff811115613c3557613c346137b6565b5b613c418482850161384f565b6000830152506020613c558482850161344c565b602083015250604082013567ffffffffffffffff811115613c7957613c786137b6565b5b613c8584828501613579565b60408301525092915050565b600060208284031215613ca757613ca66133b4565b5b600082013567ffffffffffffffff811115613cc557613cc46133b9565b5b613cd184828501613bf5565b91505092915050565b60006101208284031215613cf157613cf06133be565b5b81905092915050565b60008060408385031215613d1157613d106133b4565b5b600083013567ffffffffffffffff811115613d2f57613d2e6133b9565b5b613d3b85828601613cda565b925050602083013567ffffffffffffffff811115613d5c57613d5b6133b9565b5b613d68858286016133c3565b9150509250929050565b6000613d7e3683613bf5565b9050919050565b7f54726163746f723a20696e76616c696420686173680000000000000000000000600082015250565b6000613dbb601583613975565b9150613dc682613d85565b602082019050919050565b60006020820190508181036000830152613dea81613dae565b9050919050565b7f54726163746f723a20696e76616c6964207369676e6174757265000000000000600082015250565b6000613e27601a83613975565b9150613e3282613df1565b602082019050919050565b60006020820190508181036000830152613e5681613e1a565b9050919050565b600080fd5b600080fd5b600080fd5b60008235600160a003833603038112613e8857613e87613e5d565b5b80830191505092915050565b60008083356001602003843603038112613eb157613eb0613e5d565b5b80840192508235915067ffffffffffffffff821115613ed357613ed2613e62565b5b602083019250600182023603831315613eef57613eee613e67565b5b509250929050565b7f4e487b7100000000000000000000000000000000000000000000000000000000600052602160045260246000fd5b7f756e77696e64506f736974696f6e3a20696e76616c696420646174612074797060008201527f6500000000000000000000000000000000000000000000000000000000000000602082015250565b6000613f82602183613975565b9150613f8d82613f26565b604082019050919050565b60006020820190508181036000830152613fb181613f75565b9050919050565b600081519050613fc781613823565b92915050565b6000613fe0613fdb846134f7565b6134dc565b905082815260208101848484011115613ffc57613ffb613466565b5b614007848285613986565b509392505050565b600082601f83011261402457614023613461565b5b8151614034848260208601613fcd565b91505092915050565b61404681613a62565b811461405157600080fd5b50565b6000815190506140638161403d565b92915050565b600081519050614078816137ed565b92915050565b600060408284031215614094576140936137b1565b5b61409e60406134dc565b905060006140ae84828501614069565b600083015250602082015167ffffffffffffffff8111156140d2576140d16137b6565b5b6140de8482850161400f565b60208301525092915050565b60006102208284031215614101576141006137b1565b5b61410c6102206134dc565b9050600061411c84828501613fb8565b600083015250602061413084828501613fb8565b602083015250604082015167ffffffffffffffff811115614154576141536137b6565b5b6141608482850161400f565b604083015250606082015167ffffffffffffffff811115614184576141836137b6565b5b6141908482850161400f565b60608301525060806141a484828501613fb8565b60808301525060a06141b884828501613fb8565b60a08301525060c06141cc84828501614054565b60c08301525060e082015167ffffffffffffffff8111156141f0576141ef6137b6565b5b6141fc8482850161407e565b60e08301525061010082015167ffffffffffffffff811115614221576142206137b6565b5b61422d8482850161407e565b6101008301525061012082015167ffffffffffffffff811115614253576142526137b6565b5b61425f8482850161407e565b6101208301525061014082015167ffffffffffffffff811115614285576142846137b6565b5b6142918482850161407e565b6101408301525061016082015167ffffffffffffffff8111156142b7576142b66137b6565b5b6142c38482850161407e565b6101608301525061018082015167ffffffffffffffff8111156142e9576142e86137b6565b5b6142f58482850161407e565b610180830152506101a061430b84828501614069565b6101a0830152506101c082015167ffffffffffffffff811115614331576143306137b6565b5b61433d8482850161407e565b6101c0830152506101e061435384828501613fb8565b6101e08301525061020082015167ffffffffffffffff811115614379576143786137b6565b5b6143858482850161400f565b6102008301525092915050565b6000602082840312156143a8576143a76133b4565b5b600082015167ffffffffffffffff8111156143c6576143c56133b9565b5b6143d2848285016140ea565b91505092915050565b6000602082840312156143f1576143f06133b4565b5b60006143ff84828501614069565b91505092915050565b7f6572726f723a2063616c6c6572206973206e6f742074686520626f72726f776560008201527f7200000000000000000000000000000000000000000000000000000000000000602082015250565b6000614464602183613975565b915061446f82614408565b604082019050919050565b6000602082019050818103600083015261449381614457565b9050919050565b6144a381613819565b82525050565b600082825260208201905092915050565b60006144c582613b20565b6144cf81856144a9565b93506144df818560208601613986565b6144e88161346b565b840191505092915050565b6144fc81613a62565b82525050565b61450b816137db565b82525050565b60006040830160008301516145296000860182614502565b506020830151848203602086015261454182826144ba565b9150508091505092915050565b600061022083016000830151614567600086018261449a565b50602083015161457a602086018261449a565b506040830151848203604086015261459282826144ba565b915050606083015184820360608601526145ac82826144ba565b91505060808301516145c1608086018261449a565b5060a08301516145d460a086018261449a565b5060c08301516145e760c08601826144f3565b5060e083015184820360e08601526145ff8282614511565b91505061010083015184820361010086015261461b8282614511565b9150506101208301518482036101208601526146378282614511565b9150506101408301518482036101408601526146538282614511565b91505061016083015184820361016086015261466f8282614511565b91505061018083015184820361018086015261468b8282614511565b9150506101a08301516146a26101a0860182614502565b506101c08301518482036101c08601526146bc8282614511565b9150506101e08301516146d36101e086018261449a565b506102008301518482036102008601526146ed82826144ba565b9150508091505092915050565b60006020820190508181036000830152614714818461454e565b905092915050565b7f4e487b7100000000000000000000000000000000000000000000000000000000600052603260045260246000fd5b600080fd5b600080fd5b600080858511156147695761476861474b565b5b8386111561477a57614779614750565b5b6001850283019150848603905094509492505050565b614799816137db565b82525050565b600060c0820190506147b46000830189613940565b6147c16020830188614790565b6147ce6040830187613940565b6147db6060830186613a0b565b6147e86080830185613a0b565b6147f560a0830184613a0b565b979650505050505050565b6000819050919050565b61481b61481682613706565b614800565b82525050565b600081905092915050565b600061483782613b20565b6148418185614821565b9350614851818560208601613986565b80840191505092915050565b6000614869828561480a565b600182019150614879828461482c565b91508190509392505050565b600060a08301600083015161489d6000860182614502565b50602083015184820360208601526148b582826144ba565b91505060408301516148ca604086018261449a565b5060608301516148dd606086018261449a565b5060808301516148f0608086018261449a565b508091505092915050565b6149048161342b565b82525050565b600060608301600083015184820360008601526149278282614885565b915050602083015161493c60208601826148fb565b506040830151848203604086015261495482826144ba565b9150508091505092915050565b6000602082019050818103600083015261497b818461490a565b905092915050565b7f4c6f616e20616c726561647920636c6f7365642e000000000000000000000000600082015250565b60006149b9601483613975565b91506149c482614983565b602082019050919050565b600060208201905081810360008301526149e8816149ac565b9050919050565b7f4c6f616e206973206e6f7420656c696769626c6520666f72206c69717569646160008201527f74696f6e00000000000000000000000000000000000000000000000000000000602082015250565b6000614a4b602483613975565b9150614a56826149ef565b604082019050919050565b60006020820190508181036000830152614a7a81614a3e565b9050919050565b600060208284031215614a9757614a966133b4565b5b6000614aa584828501613fb8565b91505092915050565b60006040820190508181036000830152614ac88185613b2b565b90508181036020830152614adc8184613b2b565b90509392505050565b7f4e487b7100000000000000000000000000000000000000000000000000000000600052601160045260246000fd5b6000614b1f82613819565b9150614b2a83613819565b9250828202614b3881613819565b91508282048414831517614b4f57614b4e614ae5565b5b5092915050565b7f4e487b7100000000000000000000000000000000000000000000000000000000600052601260045260246000fd5b6000614b9082613819565b9150614b9b83613819565b925082614bab57614baa614b56565b5b828204905092915050565b6000614bc182613819565b9150614bcc83613819565b9250828201905080821115614be457614be3614ae5565b5b92915050565b6000614bf582613819565b9150614c0083613819565b9250828203905081811115614c1857614c17614ae5565b5b92915050565b6000608082019050614c336000830187614790565b8181036020830152614c458186613b2b565b9050614c546040830185613a0b565b8181036060830152614c668184613b2b565b905095945050505050565b600080fd5b60008235600160a003833603038112614c9257614c91614c71565b5b82810191505092915050565b6000614cad6020840184613804565b905092915050565b600080fd5b600080fd5b60008083356001602003843603038112614cdc57614cdb614c71565b5b83810192508235915060208301925067ffffffffffffffff821115614d0457614d03614cb5565b5b600182023603831315614d1a57614d19614cba565b5b509250929050565b6000614d2e83856144a9565b9350614d3b838584613528565b614d448361346b565b840190509392505050565b6000614d5e602084018461383a565b905092915050565b600060a08301614d796000840184614c9e565b614d866000860182614502565b50614d946020840184614cbf565b8583036020870152614da7838284614d22565b92505050614db86040840184614d4f565b614dc5604086018261449a565b50614dd36060840184614d4f565b614de0606086018261449a565b50614dee6080840184614d4f565b614dfb608086018261449a565b508091505092915050565b6000614e15602084018461344c565b905092915050565b600060608301614e306000840184614c76565b8482036000860152614e428282614d66565b915050614e526020840184614e06565b614e5f60208601826148fb565b50614e6d6040840184614cbf565b8583036040870152614e80838284614d22565b925050508091505092915050565b60006060820190508181036000830152614ea88186614e1d565b9050614eb76020830185614790565b614ec46040830184614790565b949350505050565b60008160601b9050919050565b6000614ee482614ecc565b9050919050565b6000614ef682614ed9565b9050919050565b614f0e614f09826137db565b614eeb565b82525050565b6000614f208284614efd565b60148201915081905092915050565b600060c0820190508181036000830152614f498189614e1d565b9050614f586020830188614790565b614f656040830187614790565b614f726060830186613a0b565b614f7f6080830185613a0b565b614f8c60a0830184613a0b565b979650505050505050565b6000602082019050614fac6000830184614790565b92915050565b7f636c6f7365506f736974696f6e3a20496e76616c696420646174612074797065600082015250565b6000614fe8602083613975565b9150614ff382614fb2565b602082019050919050565b6000602082019050818103600083015261501781614fdb565b9050919050565b7f6572726f723a2043616c6c6572206973206e6f742074686520626f72726f776560008201527f7200000000000000000000000000000000000000000000000000000000000000602082015250565b600061507a602183613975565b91506150858261501e565b604082019050919050565b600060208201905081810360008301526150a98161506d565b9050919050565b600060408201905081810360008301526150ca818561454e565b90506150d96020830184613a0b565b9392505050565b7f4e6f7420656e6f75676820746f20636c6f736520746865206c6f616e00000000600082015250565b6000615116601c83613975565b9150615121826150e0565b602082019050919050565b6000602082019050818103600083015261514581615109565b9050919050565b600060208284031215615162576151616133b4565b5b600061517084828501613804565b91505092915050565b7f54726163746f723a20696e76616c69642073656e646572000000000000000000600082015250565b60006151af601783613975565b91506151ba82615179565b602082019050919050565b600060208201905081810360008301526151de816151a2565b9050919050565b7f426c75657072696e74206e6f7420616e204f7264657220747970650000000000600082015250565b600061521b601b83613975565b9150615226826151e5565b602082019050919050565b6000602082019050818103600083015261524a8161520e565b9050919050565b60008235600160400383360303811261526d5761526c613e5d565b5b80830191505092915050565b60006020820190508181036000830152615294818486613752565b90509392505050565b7f66696c6c4f726465723a2054616b657220213d206d73672e73656e6465720000600082015250565b60006152d3601e83613975565b91506152de8261529d565b602082019050919050565b60006020820190508181036000830152615302816152c6565b9050919050565b600067ffffffffffffffff8211156153245761532361347c565b5b602082029050602081019050919050565b600061534861534384615309565b6134dc565b9050808382526020820190506020840283018581111561536b5761536a61365e565b5b835b8181101561539457806153808882613fb8565b84526020840193505060208101905061536d565b5050509392505050565b600082601f8301126153b3576153b2613461565b5b81516153c3848260208601615335565b91505092915050565b600067ffffffffffffffff8211156153e7576153e661347c565b5b602082029050602081019050919050565b600061540b615406846153cc565b6134dc565b9050808382526020820190506020840283018581111561542e5761542d61365e565b5b835b8181101561547557805167ffffffffffffffff81111561545357615452613461565b5b808601615460898261400f565b85526020850194505050602081019050615430565b5050509392505050565b600082601f83011261549457615493613461565b5b81516154a48482602086016153f8565b91505092915050565b600067ffffffffffffffff8211156154c8576154c761347c565b5b602082029050602081019050919050565b60006154ec6154e7846154ad565b6134dc565b9050808382526020820190506020840283018581111561550f5761550e61365e565b5b835b8181101561553857806155248882614069565b845260208401935050602081019050615511565b5050509392505050565b600082601f83011261555757615556613461565b5b81516155678482602086016154d9565b91505092915050565b600067ffffffffffffffff82111561558b5761558a61347c565b5b602082029050602081019050919050565b60006155af6155aa84615570565b6134dc565b905080838252602082019050602084028301858111156155d2576155d161365e565b5b835b8181101561561957805167ffffffffffffffff8111156155f7576155f6613461565b5b808601615604898261407e565b855260208501945050506020810190506155d4565b5050509392505050565b600082601f83011261563857615637613461565b5b815161564884826020860161559c565b91505092915050565b600060408284031215615667576156666137b1565b5b61567160406134dc565b9050600061568184828501613fb8565b600083015250602082015167ffffffffffffffff8111156156a5576156a46137b6565b5b6156b18482850161400f565b60208301525092915050565b60006101e082840312156156d4576156d36137b1565b5b6156df6101e06134dc565b9050600082015167ffffffffffffffff8111156156ff576156fe6137b6565b5b61570b8482850161539e565b600083015250602082015167ffffffffffffffff81111561572f5761572e6137b6565b5b61573b8482850161547f565b602083015250604082015167ffffffffffffffff81111561575f5761575e6137b6565b5b61576b8482850161547f565b604083015250606082015167ffffffffffffffff81111561578f5761578e6137b6565b5b61579b8482850161539e565b606083015250608082015167ffffffffffffffff8111156157bf576157be6137b6565b5b6157cb84828501615542565b60808301525060a06157df84828501614054565b60a08301525060c06157f384828501613fb8565b60c08301525060e082015167ffffffffffffffff811115615817576158166137b6565b5b6158238482850161407e565b60e08301525061010082015167ffffffffffffffff811115615848576158476137b6565b5b6158548482850161407e565b6101008301525061012082015167ffffffffffffffff81111561587a576158796137b6565b5b6158868482850161407e565b6101208301525061014082015167ffffffffffffffff8111156158ac576158ab6137b6565b5b6158b884828501615623565b6101408301525061016082015167ffffffffffffffff8111156158de576158dd6137b6565b5b6158ea84828501615623565b6101608301525061018082015167ffffffffffffffff8111156159105761590f6137b6565b5b61591c84828501615542565b610180830152506101a061593284828501614054565b6101a0830152506101c082015167ffffffffffffffff811115615958576159576137b6565b5b61596484828501615651565b6101c08301525092915050565b600060208284031215615987576159866133b4565b5b600082015167ffffffffffffffff8111156159a5576159a46133b9565b5b6159b1848285016156bd565b91505092915050565b7f5075626c697368657220646f6573206e6f74206f776e206c656e64657220616360008201527f636f756e74200000000000000000000000000000000000000000000000000000602082015250565b6000615a16602683613975565b9150615a21826159ba565b604082019050919050565b60006020820190508181036000830152615a4581615a09565b9050919050565b7f426f6f6b6b65657065723a20496e76616c69642074616b657200000000000000600082015250565b6000615a82601983613975565b9150615a8d82615a4c565b602082019050919050565b60006020820190508181036000830152615ab181615a75565b9050919050565b7f6e6f7420656e6f75676820636f6c6c61746572616c0000000000000000000000600082015250565b6000615aee601583613975565b9150615af982615ab8565b602082019050919050565b60006020820190508181036000830152615b1d81615ae1565b9050919050565b60006060820190508181036000830152615b3e818661490a565b9050615b4d6020830185613940565b615b5a6040830184614790565b949350505050565b7f5265656e7472616e637947756172643a207265656e7472616e742063616c6c00600082015250565b6000615b98601f83613975565b9150615ba382615b62565b602082019050919050565b60006020820190508181036000830152615bc781615b8b565b9050919050565b6000604082019050615be36000830185613940565b8181036020830152615bf58184613b2b565b90509392505050565b6000615c0a828461482c565b915081905092915050565b600081519050615c2481613435565b92915050565b600060208284031215615c4057615c3f6133b4565b5b6000615c4e84828501615c15565b91505092915050565b600081359050615c668161403d565b92915050565b600060208284031215615c8257615c816133b4565b5b6000615c9084828501615c57565b91505092915050565b7f6f666665722066696c6c206f66206f6666657200000000000000000000000000600082015250565b6000615ccf601383613975565b9150615cda82615c99565b602082019050919050565b60006020820190508181036000830152615cfe81615cc2565b9050919050565b7f726571756573742066696c6c206f662072657175657374000000000000000000600082015250565b6000615d3b601783613975565b9150615d4682615d05565b602082019050919050565b60006020820190508181036000830152615d6a81615d2e565b9050919050565b7f6c6f616e416d6f756e7420746f6f20736d616c6c000000000000000000000000600082015250565b6000615da7601483613975565b9150615db282615d71565b602082019050919050565b60006020820190508181036000830152615dd681615d9a565b9050919050565b600082356001604003833603038112615df957615df8613e5d565b5b80830191505092915050565b600060408284031215615e1b57615e1a6137b1565b5b615e2560406134dc565b90506000615e3584828501613804565b600083015250602082013567ffffffffffffffff811115615e5957615e586137b6565b5b615e6584828501613579565b60208301525092915050565b6000615e7d3683615e05565b9050919050565b7f666163746f7279206572726f723a2063726561746520636c6f6e65206661696c60008201527f6564000000000000000000000000000000000000000000000000000000000000602082015250565b6000615ee0602283613975565b9150615eeb82615e84565b604082019050919050565b60006020820190508181036000830152615f0f81615ed3565b9050919050565b6000615f21826137bb565b9050919050565b615f3181615f16565b8114615f3c57600080fd5b50565b600081519050615f4e81615f28565b92915050565b600060208284031215615f6a57615f696133b4565b5b6000615f7884828501615f3f565b91505092915050565b600060a082019050615f966000830188614790565b8181036020830152615fa88187613b2b565b9050615fb76040830186613a0b565b8181036060830152615fc98185613b2b565b90508181036080830152615fdd8184613b2b565b90509695505050505050565b7f756e6865616c746879206465706c6f796d656e74000000000000000000000000600082015250565b600061601f601483613975565b915061602a82615fe9565b602082019050919050565b6000602082019050818103600083015261604e81616012565b9050919050565b600081905092915050565b7f1901000000000000000000000000000000000000000000000000000000000000600082015250565b6000616096600283616055565b91506160a182616060565b600282019050919050565b6000819050919050565b6160c76160c28261342b565b6160ac565b82525050565b60006160d882616089565b91506160e482856160b6565b6020820191506160f482846160b6565b6020820191508190509392505050565b600060a0820190506161196000830188613940565b6161266020830187613940565b6161336040830186613940565b6161406060830185613a0b565b61614d6080830184614790565b9695505050505050565b600060ff82169050919050565b61616d81616157565b82525050565b60006080820190506161886000830187613940565b6161956020830186616164565b6161a26040830185613940565b6161af6060830184613940565b9594505050505056fea2646970667358221220ac750a92e98236ae84e36469ca1020697811a9d636a41031e254a6ec473e4c0064736f6c63430008130033",
  "linkReferences": {},
  "deployedLinkReferences": {}
}