{
  "_format": "hh-sol-artifact-1",
  "contractName": "Bookkeeper",
  "sourceName": "src/Bookkeeper.sol",
  "abi": [
    {
      "inputs": [],
      "stateMutability": "nonpayable",
      "type": "constructor"
    },
    {
      "anonymous": false,
      "inputs": [
        {
          "indexed": false,
          "internalType": "bytes32",
          "name": "blueprintHash",
          "type": "bytes32"
        }
      ],
      "name": "DestroyedBlueprint",
      "type": "event"
    },
    {
      "anonymous": false,
      "inputs": [
        {
          "components": [
            {
              "components": [
                {
                  "internalType": "address",
                  "name": "publisher",
                  "type": "address"
                },
                {
                  "internalType": "bytes",
                  "name": "data",
                  "type": "bytes"
                },
                {
                  "internalType": "uint256",
                  "name": "maxNonce",
                  "type": "uint256"
                },
                {
                  "internalType": "uint256",
                  "name": "startTime",
                  "type": "uint256"
                },
                {
                  "internalType": "uint256",
                  "name": "endTime",
                  "type": "uint256"
                }
              ],
              "internalType": "struct Blueprint",
              "name": "blueprint",
              "type": "tuple"
            },
            {
              "internalType": "bytes32",
              "name": "blueprintHash",
              "type": "bytes32"
            },
            {
              "internalType": "bytes",
              "name": "signature",
              "type": "bytes"
            }
          ],
          "indexed": false,
          "internalType": "struct SignedBlueprint",
          "name": "agreement",
          "type": "tuple"
        },
        {
          "indexed": false,
          "internalType": "bytes32",
          "name": "orderBlueprintHash",
          "type": "bytes32"
        },
        {
          "indexed": false,
          "internalType": "address",
          "name": "taker",
          "type": "address"
        }
      ],
      "name": "OrderFilled",
      "type": "event"
    },
    {
      "anonymous": false,
      "inputs": [
        {
          "components": [
            {
              "components": [
                {
                  "internalType": "address",
                  "name": "publisher",
                  "type": "address"
                },
                {
                  "internalType": "bytes",
                  "name": "data",
                  "type": "bytes"
                },
                {
                  "internalType": "uint256",
                  "name": "maxNonce",
                  "type": "uint256"
                },
                {
                  "internalType": "uint256",
                  "name": "startTime",
                  "type": "uint256"
                },
                {
                  "internalType": "uint256",
                  "name": "endTime",
                  "type": "uint256"
                }
              ],
              "internalType": "struct Blueprint",
              "name": "blueprint",
              "type": "tuple"
            },
            {
              "internalType": "bytes32",
              "name": "blueprintHash",
              "type": "bytes32"
            },
            {
              "internalType": "bytes",
              "name": "signature",
              "type": "bytes"
            }
          ],
          "indexed": false,
          "internalType": "struct SignedBlueprint",
          "name": "agreement",
          "type": "tuple"
        },
        {
          "indexed": false,
          "internalType": "address",
          "name": "position",
          "type": "address"
        },
        {
          "indexed": false,
          "internalType": "address",
          "name": "closer",
          "type": "address"
        },
        {
          "indexed": false,
          "internalType": "uint256",
          "name": "closeValue",
          "type": "uint256"
        },
        {
          "indexed": false,
          "internalType": "uint256",
          "name": "loanOrcale",
          "type": "uint256"
        },
        {
          "indexed": false,
          "internalType": "uint256",
          "name": "assessorCost",
          "type": "uint256"
        }
      ],
      "name": "PositionClosed",
      "type": "event"
    },
    {
      "anonymous": false,
      "inputs": [
        {
          "components": [
            {
              "components": [
                {
                  "internalType": "address",
                  "name": "publisher",
                  "type": "address"
                },
                {
                  "internalType": "bytes",
                  "name": "data",
                  "type": "bytes"
                },
                {
                  "internalType": "uint256",
                  "name": "maxNonce",
                  "type": "uint256"
                },
                {
                  "internalType": "uint256",
                  "name": "startTime",
                  "type": "uint256"
                },
                {
                  "internalType": "uint256",
                  "name": "endTime",
                  "type": "uint256"
                }
              ],
              "internalType": "struct Blueprint",
              "name": "blueprint",
              "type": "tuple"
            },
            {
              "internalType": "bytes32",
              "name": "blueprintHash",
              "type": "bytes32"
            },
            {
              "internalType": "bytes",
              "name": "signature",
              "type": "bytes"
            }
          ],
          "indexed": false,
          "internalType": "struct SignedBlueprint",
          "name": "agreement",
          "type": "tuple"
        },
        {
          "indexed": false,
          "internalType": "address",
          "name": "position",
          "type": "address"
        },
        {
          "indexed": false,
          "internalType": "address",
          "name": "liquidator",
          "type": "address"
        }
      ],
      "name": "PositionLiquidated",
      "type": "event"
    },
    {
      "anonymous": false,
      "inputs": [
        {
          "components": [
            {
              "components": [
                {
                  "internalType": "address",
                  "name": "publisher",
                  "type": "address"
                },
                {
                  "internalType": "bytes",
                  "name": "data",
                  "type": "bytes"
                },
                {
                  "internalType": "uint256",
                  "name": "maxNonce",
                  "type": "uint256"
                },
                {
                  "internalType": "uint256",
                  "name": "startTime",
                  "type": "uint256"
                },
                {
                  "internalType": "uint256",
                  "name": "endTime",
                  "type": "uint256"
                }
              ],
              "internalType": "struct Blueprint",
              "name": "blueprint",
              "type": "tuple"
            },
            {
              "internalType": "bytes32",
              "name": "blueprintHash",
              "type": "bytes32"
            },
            {
              "internalType": "bytes",
              "name": "signature",
              "type": "bytes"
            }
          ],
          "indexed": false,
          "internalType": "struct SignedBlueprint",
          "name": "signedBlueprint",
          "type": "tuple"
        }
      ],
      "name": "PublishedBlueprint",
      "type": "event"
    },
    {
      "anonymous": false,
      "inputs": [
        {
          "indexed": true,
          "internalType": "address",
          "name": "operator",
          "type": "address"
        },
        {
          "indexed": false,
          "internalType": "bytes32",
          "name": "blueprintHash",
          "type": "bytes32"
        }
      ],
      "name": "UsedBlueprint",
      "type": "event"
    },
    {
      "inputs": [],
      "name": "BLUEPRINT_TYPEHASH",
      "outputs": [
        {
          "internalType": "bytes32",
          "name": "",
          "type": "bytes32"
        }
      ],
      "stateMutability": "view",
      "type": "function"
    },
    {
      "inputs": [],
      "name": "PROTOCOL_NAME",
      "outputs": [
        {
          "internalType": "string",
          "name": "",
          "type": "string"
        }
      ],
      "stateMutability": "view",
      "type": "function"
    },
    {
      "inputs": [],
      "name": "PROTOCOL_VERSION",
      "outputs": [
        {
          "internalType": "string",
          "name": "",
          "type": "string"
        }
      ],
      "stateMutability": "view",
      "type": "function"
    },
    {
      "inputs": [
        {
          "internalType": "bytes32",
          "name": "",
          "type": "bytes32"
        }
      ],
      "name": "agreementClosed",
      "outputs": [
        {
          "internalType": "bool",
          "name": "",
          "type": "bool"
        }
      ],
      "stateMutability": "view",
      "type": "function"
    },
    {
      "inputs": [
        {
          "components": [
            {
              "components": [
                {
                  "internalType": "address",
                  "name": "publisher",
                  "type": "address"
                },
                {
                  "internalType": "bytes",
                  "name": "data",
                  "type": "bytes"
                },
                {
                  "internalType": "uint256",
                  "name": "maxNonce",
                  "type": "uint256"
                },
                {
                  "internalType": "uint256",
                  "name": "startTime",
                  "type": "uint256"
                },
                {
                  "internalType": "uint256",
                  "name": "endTime",
                  "type": "uint256"
                }
              ],
              "internalType": "struct Blueprint",
              "name": "blueprint",
              "type": "tuple"
            },
            {
              "internalType": "bytes32",
              "name": "blueprintHash",
              "type": "bytes32"
            },
            {
              "internalType": "bytes",
              "name": "signature",
              "type": "bytes"
            }
          ],
          "internalType": "struct SignedBlueprint",
          "name": "agreementBlueprint",
          "type": "tuple"
        }
      ],
      "name": "closePosition",
      "outputs": [],
      "stateMutability": "nonpayable",
      "type": "function"
    },
    {
      "inputs": [
        {
          "components": [
            {
              "components": [
                {
                  "internalType": "address",
                  "name": "publisher",
                  "type": "address"
                },
                {
                  "internalType": "bytes",
                  "name": "data",
                  "type": "bytes"
                },
                {
                  "internalType": "uint256",
                  "name": "maxNonce",
                  "type": "uint256"
                },
                {
                  "internalType": "uint256",
                  "name": "startTime",
                  "type": "uint256"
                },
                {
                  "internalType": "uint256",
                  "name": "endTime",
                  "type": "uint256"
                }
              ],
              "internalType": "struct Blueprint",
              "name": "blueprint",
              "type": "tuple"
            },
            {
              "internalType": "bytes32",
              "name": "blueprintHash",
              "type": "bytes32"
            },
            {
              "internalType": "bytes",
              "name": "signature",
              "type": "bytes"
            }
          ],
          "internalType": "struct SignedBlueprint",
          "name": "signedBlueprint",
          "type": "tuple"
        }
      ],
      "name": "destroyBlueprint",
      "outputs": [],
      "stateMutability": "nonpayable",
      "type": "function"
    },
    {
      "inputs": [],
      "name": "domainSeparator",
      "outputs": [
        {
          "internalType": "bytes32",
          "name": "",
          "type": "bytes32"
        }
      ],
      "stateMutability": "view",
      "type": "function"
    },
    {
      "inputs": [
        {
          "components": [
            {
              "components": [
                {
                  "internalType": "address",
                  "name": "addr",
                  "type": "address"
                },
                {
                  "internalType": "bytes",
                  "name": "parameters",
                  "type": "bytes"
                }
              ],
              "internalType": "struct PluginReference",
              "name": "account",
              "type": "tuple"
            },
            {
              "internalType": "uint256",
              "name": "loanAmount",
              "type": "uint256"
            },
            {
              "internalType": "uint256",
              "name": "takerIdx",
              "type": "uint256"
            },
            {
              "internalType": "uint256",
              "name": "loanAssetIdx",
              "type": "uint256"
            },
            {
              "internalType": "uint256",
              "name": "collAssetIdx",
              "type": "uint256"
            },
            {
              "internalType": "uint256",
              "name": "factoryIdx",
              "type": "uint256"
            },
            {
              "internalType": "bool",
              "name": "isOfferFill",
              "type": "bool"
            },
            {
              "components": [
                {
                  "internalType": "uint256",
                  "name": "initCollateralRatio",
                  "type": "uint256"
                },
                {
                  "internalType": "bytes",
                  "name": "positionParameters",
                  "type": "bytes"
                }
              ],
              "internalType": "struct BorrowerConfig",
              "name": "borrowerConfig",
              "type": "tuple"
            }
          ],
          "internalType": "struct Fill",
          "name": "fill",
          "type": "tuple"
        },
        {
          "components": [
            {
              "components": [
                {
                  "internalType": "address",
                  "name": "publisher",
                  "type": "address"
                },
                {
                  "internalType": "bytes",
                  "name": "data",
                  "type": "bytes"
                },
                {
                  "internalType": "uint256",
                  "name": "maxNonce",
                  "type": "uint256"
                },
                {
                  "internalType": "uint256",
                  "name": "startTime",
                  "type": "uint256"
                },
                {
                  "internalType": "uint256",
                  "name": "endTime",
                  "type": "uint256"
                }
              ],
              "internalType": "struct Blueprint",
              "name": "blueprint",
              "type": "tuple"
            },
            {
              "internalType": "bytes32",
              "name": "blueprintHash",
              "type": "bytes32"
            },
            {
              "internalType": "bytes",
              "name": "signature",
              "type": "bytes"
            }
          ],
          "internalType": "struct SignedBlueprint",
          "name": "orderBlueprint",
          "type": "tuple"
        }
      ],
      "name": "fillOrder",
      "outputs": [],
      "stateMutability": "nonpayable",
      "type": "function"
    },
    {
      "inputs": [
        {
          "components": [
            {
              "internalType": "address",
              "name": "publisher",
              "type": "address"
            },
            {
              "internalType": "bytes",
              "name": "data",
              "type": "bytes"
            },
            {
              "internalType": "uint256",
              "name": "maxNonce",
              "type": "uint256"
            },
            {
              "internalType": "uint256",
              "name": "startTime",
              "type": "uint256"
            },
            {
              "internalType": "uint256",
              "name": "endTime",
              "type": "uint256"
            }
          ],
          "internalType": "struct Blueprint",
          "name": "blueprint",
          "type": "tuple"
        }
      ],
      "name": "getBlueprintHash",
      "outputs": [
        {
          "internalType": "bytes32",
          "name": "",
          "type": "bytes32"
        }
      ],
      "stateMutability": "view",
      "type": "function"
    },
    {
      "inputs": [],
      "name": "getChainId",
      "outputs": [
        {
          "internalType": "uint256",
          "name": "",
          "type": "uint256"
        }
      ],
      "stateMutability": "view",
      "type": "function"
    },
    {
      "inputs": [
        {
          "internalType": "bytes32",
          "name": "blueprintHash",
          "type": "bytes32"
        },
        {
          "internalType": "bytes",
          "name": "",
          "type": "bytes"
        }
      ],
      "name": "isValidSignature",
      "outputs": [
        {
          "internalType": "bytes4",
          "name": "magicValue",
          "type": "bytes4"
        }
      ],
      "stateMutability": "view",
      "type": "function"
    },
    {
      "inputs": [
        {
          "internalType": "address",
          "name": "signer",
          "type": "address"
        },
        {
          "internalType": "bytes32",
          "name": "hash",
          "type": "bytes32"
        },
        {
          "internalType": "bytes",
          "name": "signature",
          "type": "bytes"
        }
      ],
      "name": "isValidSignatureNow",
      "outputs": [
        {
          "internalType": "bool",
          "name": "",
          "type": "bool"
        }
      ],
      "stateMutability": "view",
      "type": "function"
    },
    {
      "inputs": [
        {
          "internalType": "bytes32",
          "name": "",
          "type": "bytes32"
        }
      ],
      "name": "liquidationLock",
      "outputs": [
        {
          "internalType": "bool",
          "name": "",
          "type": "bool"
        }
      ],
      "stateMutability": "view",
      "type": "function"
    },
    {
      "inputs": [
        {
          "internalType": "bytes1",
          "name": "dataType",
          "type": "bytes1"
        },
        {
          "internalType": "bytes",
          "name": "data",
          "type": "bytes"
        }
      ],
      "name": "packDataField",
      "outputs": [
        {
          "internalType": "bytes",
          "name": "",
          "type": "bytes"
        }
      ],
      "stateMutability": "pure",
      "type": "function"
    },
    {
      "inputs": [
        {
          "components": [
            {
              "components": [
                {
                  "internalType": "address",
                  "name": "publisher",
                  "type": "address"
                },
                {
                  "internalType": "bytes",
                  "name": "data",
                  "type": "bytes"
                },
                {
                  "internalType": "uint256",
                  "name": "maxNonce",
                  "type": "uint256"
                },
                {
                  "internalType": "uint256",
                  "name": "startTime",
                  "type": "uint256"
                },
                {
                  "internalType": "uint256",
                  "name": "endTime",
                  "type": "uint256"
                }
              ],
              "internalType": "struct Blueprint",
              "name": "blueprint",
              "type": "tuple"
            },
            {
              "internalType": "bytes32",
              "name": "blueprintHash",
              "type": "bytes32"
            },
            {
              "internalType": "bytes",
              "name": "signature",
              "type": "bytes"
            }
          ],
          "internalType": "struct SignedBlueprint",
          "name": "signedBlueprint",
          "type": "tuple"
        }
      ],
      "name": "publishBlueprint",
      "outputs": [],
      "stateMutability": "nonpayable",
      "type": "function"
    },
    {
      "inputs": [
        {
          "components": [
            {
              "components": [
                {
                  "internalType": "address",
                  "name": "publisher",
                  "type": "address"
                },
                {
                  "internalType": "bytes",
                  "name": "data",
                  "type": "bytes"
                },
                {
                  "internalType": "uint256",
                  "name": "maxNonce",
                  "type": "uint256"
                },
                {
                  "internalType": "uint256",
                  "name": "startTime",
                  "type": "uint256"
                },
                {
                  "internalType": "uint256",
                  "name": "endTime",
                  "type": "uint256"
                }
              ],
              "internalType": "struct Blueprint",
              "name": "blueprint",
              "type": "tuple"
            },
            {
              "internalType": "bytes32",
              "name": "blueprintHash",
              "type": "bytes32"
            },
            {
              "internalType": "bytes",
              "name": "signature",
              "type": "bytes"
            }
          ],
          "internalType": "struct SignedBlueprint",
          "name": "agreementBlueprint",
          "type": "tuple"
        }
      ],
      "name": "triggerLiquidation",
      "outputs": [],
      "stateMutability": "nonpayable",
      "type": "function"
    },
    {
      "inputs": [
        {
          "internalType": "bytes",
          "name": "data",
          "type": "bytes"
        }
      ],
      "name": "unpackDataField",
      "outputs": [
        {
          "internalType": "bytes1",
          "name": "",
          "type": "bytes1"
        },
        {
          "internalType": "bytes",
          "name": "",
          "type": "bytes"
        }
      ],
      "stateMutability": "pure",
      "type": "function"
    }
  ],
  "bytecode": "0x6101406040523480156200001257600080fd5b506040518060400160405280600681526020017f706861726f7300000000000000000000000000000000000000000000000000008152506040518060400160405280600581526020017f302e322e300000000000000000000000000000000000000000000000000000008152508181818160008280519060200120905060008280519060200120905060007f8b73c3c69bb8fe3d512ecc4cf759cc79239f7b179b0ffacaa9a75d522b39400f90508260e081815250508161010081815250504660a08181525050620000ec8184846200014760201b60201c565b608081815250503073ffffffffffffffffffffffffffffffffffffffff1660c08173ffffffffffffffffffffffffffffffffffffffff168152505080610120818152505050505050505050505060016002819055506200025b565b6000838383463060405160200162000164959493929190620001fe565b6040516020818303038152906040528051906020012090509392505050565b6000819050919050565b620001988162000183565b82525050565b6000819050919050565b620001b3816200019e565b82525050565b600073ffffffffffffffffffffffffffffffffffffffff82169050919050565b6000620001e682620001b9565b9050919050565b620001f881620001d9565b82525050565b600060a0820190506200021560008301886200018d565b6200022460208301876200018d565b6200023360408301866200018d565b620002426060830185620001a8565b620002516080830184620001ed565b9695505050505050565b60805160a05160c05160e0516101005161012051615965620002ab60003960006128530152600061289501526000612874015260006127a9015260006127ff0152600061282801526159656000f3fe608060405234801561001057600080fd5b506004361061010b5760003560e01c806372735806116100a2578063beaede8811610071578063beaede88146102f4578063c8dbcd5514610312578063cd514e181461032e578063e7dca7d21461034a578063f698da25146103665761010b565b8063727358061461026e5780639d9830271461028a578063a513069d146102ba578063aa3aa460146102d65761010b565b80633408e470116100de5780633408e470146101c05780636853de03146101de5780636a445ba91461020e5780636ccea6521461023e5761010b565b80631626ba7e1461011057806319affdf6146101405780631ed64552146101725780632860ff75146101a2575b600080fd5b61012a60048036038101906101259190612d95565b610384565b6040516101379190612e2c565b60405180910390f35b61015a60048036038101906101559190612ea7565b6103cb565b60405161016993929190612f6d565b60405180910390f35b61018c600480360381019061018791906130e5565b61040e565b604051610199919061313d565b60405180910390f35b6101aa61048b565b6040516101b791906131d7565b60405180910390f35b6101c86104c4565b6040516101d59190613208565b60405180910390f35b6101f860048036038101906101f39190613223565b6104cc565b604051610205919061326b565b60405180910390f35b610228600480360381019061022391906132b2565b6104ec565b6040516102359190613352565b60405180910390f35b61025860048036038101906102539190613374565b610518565b604051610265919061326b565b60405180910390f35b6102886004803603810190610283919061347f565b61052e565b005b6102a4600480360381019061029f9190613223565b610616565b6040516102b1919061326b565b60405180910390f35b6102d460048036038101906102cf91906134ec565b610636565b005b6102de610923565b6040516102eb91906131d7565b60405180910390f35b6102fc61095c565b604051610309919061313d565b60405180910390f35b61032c60048036038101906103279190613555565b610980565b005b610348600480360381019061034391906134ec565b611220565b005b610364600480360381019061035f91906134ec565b611529565b005b61036e6116eb565b60405161037b919061313d565b60405180910390f35b600080600084815260200190815260200160002060009054906101000a900460ff16156103ba57631626ba7e60e01b90506103c5565b63ffffffff60e01b90505b92915050565b6000366000848460008181106103e4576103e36135cd565b5b9050013560f81c60f81b8585600190809261040193929190613606565b9250925092509250925092565b60006104847fabb38f99128910356202f56a25bd1c0cbc076ddee0387a6ff4671f05fabedcd1836000015184602001518051906020012085604001518660600151876080015160405160200161046996959493929190613650565b604051602081830303815290604052805190602001206116fa565b9050919050565b6040518060400160405280600681526020017f706861726f73000000000000000000000000000000000000000000000000000081525081565b600046905090565b60036020528060005260406000206000915054906101000a900460ff1681565b6060828260405160200161050192919061370e565b604051602081830303815290604052905092915050565b6000610525848484611714565b90509392505050565b808060200151610541826000015161040e565b14610581576040517f08c379a000000000000000000000000000000000000000000000000000000000815260040161057890613782565b60405180910390fd5b61059c81600001516000015182602001518360400151611714565b6105db576040517f08c379a00000000000000000000000000000000000000000000000000000000081526004016105d2906137ee565b60405180910390fd5b7fe88b49ce78855e321e33f58c41af6039301a3ff5454da2b09ddb1be1d9a525d48260405161060a9190613952565b60405180910390a15050565b60046020528060005260406000206000915054906101000a900460ff1681565b61063e6118da565b8061064890613974565b806020015161065a826000015161040e565b1461069a576040517f08c379a000000000000000000000000000000000000000000000000000000000815260040161069190613782565b60405180910390fd5b6106b581600001516000015182602001518360400151611714565b6106f4576040517f08c379a00000000000000000000000000000000000000000000000000000000081526004016106eb906137ee565b60405180910390fd5b600061071d8380600001906107099190613996565b806020019061071891906139be565b6103cb565b8080601f016020809104026020016040519081016040528093929190818152602001838380828437600081840152601f19601f820116905080830192505050505050509150506000818060200190518101906107799190613dc9565b905060008160405160200161078e9190613fee565b6040516020818303038152906040528051906020012090506003600082815260200190815260200160002060009054906101000a900460ff1615610807576040517f08c379a00000000000000000000000000000000000000000000000000000000081526004016107fe9061405c565b60405180910390fd5b61081082611927565b61084f576040517f08c379a0000000000000000000000000000000000000000000000000000000008152600401610846906140ee565b60405180910390fd5b8161014001516000015173ffffffffffffffffffffffffffffffffffffffff16631a11dee933846040518363ffffffff1660e01b815260040161089392919061410e565b600060405180830381600087803b1580156108ad57600080fd5b505af11580156108c1573d6000803e3d6000fd5b505050506108d0858333611b9d565b7f904c358bc985322bfcccbbb99273cfee6c2cd56dc2d328bbd37b458efa2d9ff185836101c00151600001513360405161090c9392919061435b565b60405180910390a150505050610920611ffe565b50565b6040518060400160405280600581526020017f302e322e3000000000000000000000000000000000000000000000000000000081525081565b7fabb38f99128910356202f56a25bd1c0cbc076ddee0387a6ff4671f05fabedcd181565b6109886118da565b8061099290613974565b80602001516109a4826000015161040e565b146109e4576040517f08c379a00000000000000000000000000000000000000000000000000000000081526004016109db90613782565b60405180910390fd5b6109ff81600001516000015182602001518360400151611714565b610a3e576040517f08c379a0000000000000000000000000000000000000000000000000000000008152600401610a35906137ee565b60405180910390fd5b600080610a68848060000190610a549190613996565b8060200190610a6391906139be565b6103cb565b8080601f016020809104026020016040519081016040528093929190818152602001838380828437600081840152601f19601f820116905080830192505050505050509150915060016002811115610ac357610ac2614399565b5b60ff168260f81c60ff1614610b0d576040517f08c379a0000000000000000000000000000000000000000000000000000000008152600401610b0490614414565b60405180910390fd5b848060000190610b1d9190614434565b6000016020810190610b2f919061445c565b73ffffffffffffffffffffffffffffffffffffffff1663b102bfbe868060000190610b5a9190614434565b8060200190610b6991906139be565b6040518363ffffffff1660e01b8152600401610b86929190614489565b602060405180830381865afa158015610ba3573d6000803e3d6000fd5b505050506040513d601f19601f82011682018060405250810190610bc791906144ad565b73ffffffffffffffffffffffffffffffffffffffff163373ffffffffffffffffffffffffffffffffffffffff1614610c34576040517f08c379a0000000000000000000000000000000000000000000000000000000008152600401610c2b90614526565b60405180910390fd5b600081806020019051810190610c4a9190614bae565b90508060e001516000015173ffffffffffffffffffffffffffffffffffffffff1663b102bfbe8260e00151602001516040518263ffffffff1660e01b8152600401610c959190613352565b602060405180830381865afa158015610cb2573d6000803e3d6000fd5b505050506040513d601f19601f82011682018060405250810190610cd691906144ad565b73ffffffffffffffffffffffffffffffffffffffff16858060000190610cfc9190613996565b6000016020810190610d0e919061445c565b73ffffffffffffffffffffffffffffffffffffffff1614610d64576040517f08c379a0000000000000000000000000000000000000000000000000000000008152600401610d5b90614c43565b60405180910390fd5b60008160800151511115610e03573373ffffffffffffffffffffffffffffffffffffffff168160800151876040013581518110610da457610da36135cd565b5b602002602001015173ffffffffffffffffffffffffffffffffffffffff1614610e02576040517f08c379a0000000000000000000000000000000000000000000000000000000008152600401610df990614caf565b60405180910390fd5b5b610e0d8682612008565b6000610e1987836121bf565b90506000670de0b6b3a76400008261016001516000015173ffffffffffffffffffffffffffffffffffffffff16639569eb8f846101600151602001516040518263ffffffff1660e01b8152600401610e719190613352565b602060405180830381865afa158015610e8e573d6000803e3d6000fd5b505050506040513d601f19601f82011682018060405250810190610eb29190614ccf565b8360000151610ec19190614d2b565b610ecb9190614d9c565b905060008260c0015115610fac576000846101a00151610ef457846101c0015160000151610f09565b898060e00190610f049190614dcd565b600001355b9050846101a0015115610f4a578460e001518460e00181905250898060000190610f339190614434565b610f3c90614e61565b846101000181905250610f7a565b898060000190610f5a9190614434565b610f6390614e61565b8460e001819052508460e001518461010001819052505b670de0b6b3a76400008082610f8f9190614e74565b84610f9a9190614d2b565b610fa49190614d9c565b915050611070565b6000846101a00151610fc757846101c0015160000151610fdc565b898060e00190610fd79190614dcd565b600001355b9050846101a001511561101d578460e001518460e001819052508980600001906110069190614434565b61100f90614e61565b84610100018190525061104d565b89806000019061102d9190614434565b61103690614e61565b8460e001819052508460e001518461010001819052505b670de0b6b3a764000081846110629190614d2b565b61106c9190614d9c565b9150505b836101a0015161108957836101c00151602001516110ec565b888060e001906110999190614dcd565b80602001906110a891906139be565b8080601f016020809104026020016040519081016040528093929190818152602001838380828437600081840152601f19601f820116905080830192505050505050505b836101c00151602001819052508261018001516000015173ffffffffffffffffffffffffffffffffffffffff16639569eb8f846101800151602001516040518263ffffffff1660e01b81526004016111449190613352565b602060405180830381865afa158015611161573d6000803e3d6000fd5b505050506040513d601f19601f820116820180604052508101906111859190614ccf565b670de0b6b3a7640000826111999190614d2b565b6111a39190614d9c565b83602001818152505042836101e00181815250506111c083612353565b60006111cb846126c1565b90507f21a6001862375a91bbf0eff278ae1eaee77323f67273ed674a16f9607888696f818a602001353360405161120493929190614ea8565b60405180910390a1505050505050505061121c611ffe565b5050565b6112286118da565b8061123290613974565b8060200151611244826000015161040e565b14611284576040517f08c379a000000000000000000000000000000000000000000000000000000000815260040161127b90613782565b60405180910390fd5b61129f81600001516000015182602001518360400151611714565b6112de576040517f08c379a00000000000000000000000000000000000000000000000000000000081526004016112d5906137ee565b60405180910390fd5b6000806113088480600001906112f49190613996565b806020019061130391906139be565b6103cb565b8080601f016020809104026020016040519081016040528093929190818152602001838380828437600081840152601f19601f820116905080830192505050505050509150915060028081111561136257611361614399565b5b60f81b7effffffffffffffffffffffffffffffffffffffffffffffffffffffffffffff1916827effffffffffffffffffffffffffffffffffffffffffffffffffffffffffffff1916146113ea576040517f08c379a00000000000000000000000000000000000000000000000000000000081526004016113e190614f32565b60405180910390fd5b6000818060200190518101906114009190613dc9565b905060008161010001516000015173ffffffffffffffffffffffffffffffffffffffff1663b102bfbe836101000151602001516040518263ffffffff1660e01b815260040161144f9190613352565b602060405180830381865afa15801561146c573d6000803e3d6000fd5b505050506040513d601f19601f8201168201806040525081019061149091906144ad565b73ffffffffffffffffffffffffffffffffffffffff163373ffffffffffffffffffffffffffffffffffffffff161490508061150e576114ce82611927565b61150d576040517f08c379a000000000000000000000000000000000000000000000000000000000815260040161150490614fea565b60405180910390fd5b5b611519868333611b9d565b5050505050611526611ffe565b50565b8061153390613974565b8060200151611545826000015161040e565b14611585576040517f08c379a000000000000000000000000000000000000000000000000000000000815260040161157c90613782565b60405180910390fd5b6115a081600001516000015182602001518360400151611714565b6115df576040517f08c379a00000000000000000000000000000000000000000000000000000000081526004016115d6906137ee565b60405180910390fd5b818080600001906115f09190613996565b6000016020810190611602919061445c565b73ffffffffffffffffffffffffffffffffffffffff163373ffffffffffffffffffffffffffffffffffffffff161461166f576040517f08c379a000000000000000000000000000000000000000000000000000000000815260040161166690615056565b60405180910390fd5b7fffffffffffffffffffffffffffffffffffffffffffffffffffffffffffffffff6001600085602001358152602001908152602001600020819055507fc954dbcaf38dbaf01d8ac7f2d37afc45123081ade8ccf1efd7f23db2cfb62cb583602001356040516116de919061313d565b60405180910390a1505050565b60006116f56127a5565b905090565b600061170d6117076127a5565b836128bf565b9050919050565b600080600061172385856128f2565b915091506000600481111561173b5761173a614399565b5b81600481111561174e5761174d614399565b5b14801561178657508573ffffffffffffffffffffffffffffffffffffffff168273ffffffffffffffffffffffffffffffffffffffff16145b15611796576001925050506118d3565b6000808773ffffffffffffffffffffffffffffffffffffffff16631626ba7e60e01b88886040516024016117cb929190615076565b604051602081830303815290604052907bffffffffffffffffffffffffffffffffffffffffffffffffffffffff19166020820180517bffffffffffffffffffffffffffffffffffffffffffffffffffffffff838183161783525050505060405161183591906150a6565b600060405180830381855afa9150503d8060008114611870576040519150601f19603f3d011682016040523d82523d6000602084013e611875565b606091505b5091509150818015611888575060208151145b80156118cc5750631626ba7e60e01b7bffffffffffffffffffffffffffffffffffffffffffffffffffffffff1916818060200190518101906118ca91906150d2565b145b9450505050505b9392505050565b600280540361191e576040517f08c379a00000000000000000000000000000000000000000000000000000000081526004016119159061514b565b60405180910390fd5b60028081905550565b600080826101c001516000015190508260a00151836101e0015161194b919061516b565b42111561195c576001915050611b98565b60008173ffffffffffffffffffffffffffffffffffffffff1663528f5b91856040518263ffffffff1660e01b81526004016119979190613fee565b602060405180830381865afa1580156119b4573d6000803e3d6000fd5b505050506040513d601f19601f820116820180604052508101906119d89190614ccf565b905060008461012001516000015173ffffffffffffffffffffffffffffffffffffffff1663a6d79fe8866040518263ffffffff1660e01b8152600401611a1e9190613fee565b602060405180830381865afa158015611a3b573d6000803e3d6000fd5b505050506040513d601f19601f82011682018060405250810190611a5f9190614ccf565b905060008561016001516000015173ffffffffffffffffffffffffffffffffffffffff1663f667ef9a876101600151602001516040518263ffffffff1660e01b8152600401611aae9190613352565b602060405180830381865afa158015611acb573d6000803e3d6000fd5b505050506040513d601f19601f82011682018060405250810190611aef9190614ccf565b9050600082670de0b6b3a7640000838960000151611b0d9190614d2b565b611b179190614d9c565b611b21919061516b565b9050600081670de0b6b3a764000086611b3a9190614d2b565b611b449190614d9c565b90508760800151811015611b8d576040517f08c379a0000000000000000000000000000000000000000000000000000000008152600401611b8490615211565b60405180910390fd5b600096505050505050505b919050565b6000826101c0015160000151905060008360e0015160000151905060008273ffffffffffffffffffffffffffffffffffffffff1663528f5b91866040518263ffffffff1660e01b8152600401611bf39190613fee565b602060405180830381865afa158015611c10573d6000803e3d6000fd5b505050506040513d601f19601f82011682018060405250810190611c349190614ccf565b905060008561012001516000015173ffffffffffffffffffffffffffffffffffffffff1663a6d79fe8876040518263ffffffff1660e01b8152600401611c7a9190613fee565b602060405180830381865afa158015611c97573d6000803e3d6000fd5b505050506040513d601f19601f82011682018060405250810190611cbb9190614ccf565b905060008661016001516000015173ffffffffffffffffffffffffffffffffffffffff1663f667ef9a886101600151602001516040518263ffffffff1660e01b8152600401611d0a9190613352565b602060405180830381865afa158015611d27573d6000803e3d6000fd5b505050506040513d601f19601f82011682018060405250810190611d4b9190614ccf565b905060008473ffffffffffffffffffffffffffffffffffffffff1663890811ae89604001518a60e00151602001516040518363ffffffff1660e01b8152600401611d96929190615231565b602060405180830381865afa158015611db3573d6000803e3d6000fd5b505050506040513d601f19601f82011682018060405250810190611dd79190614ccf565b90508573ffffffffffffffffffffffffffffffffffffffff16632930afea888a6040518363ffffffff1660e01b8152600401611e1492919061410e565b600060405180830381600087803b158015611e2e57600080fd5b505af1158015611e42573d6000803e3d6000fd5b5050505060008573ffffffffffffffffffffffffffffffffffffffff1663890811ae8a604001518b60e00151602001516040518363ffffffff1660e01b8152600401611e8f929190615231565b602060405180830381865afa158015611eac573d6000803e3d6000fd5b505050506040513d601f19601f82011682018060405250810190611ed09190614ccf565b905082670de0b6b3a764000085611ee79190614d2b565b611ef19190614d9c565b8960000151611f00919061516b565b8282611f0c9190614e74565b1015611f4d576040517f08c379a0000000000000000000000000000000000000000000000000000000008152600401611f44906152b4565b60405180910390fd5b6001600360008b6101c0015160000151604051602001611f6d919061531c565b60405160208183030381529060405280519060200120815260200190815260200160002060006101000a81548160ff0219169083151502179055507f40246ab0a03d0d296b9e8cee5ae45cd5f94640ea0834ea9a8f0cd50e445e77e58a8a6101c001516000015133888789604051611fea96959493929190615337565b60405180910390a150505050505050505050565b6001600281905550565b612010612a8d565b816101a0015161207a578260c001602081019061202d91906153b4565b1561206d576040517f08c379a00000000000000000000000000000000000000000000000000000000081526004016120649061542d565b60405180910390fd5b816101c0015190506120e8565b8260c001602081019061208d91906153b4565b6120cc576040517f08c379a00000000000000000000000000000000000000000000000000000000081526004016120c390615499565b60405180910390fd5b828060e001906120dc9190614dcd565b6120e590615525565b90505b8160000151836060013581518110612103576121026135cd565b5b602002602001015183602001351015612151576040517f08c379a000000000000000000000000000000000000000000000000000000000815260040161214890615584565b60405180910390fd5b816060015183608001358151811061216c5761216b6135cd565b5b6020026020010151816000015110156121ba576040517f08c379a00000000000000000000000000000000000000000000000000000000081526004016121b1906155f0565b60405180910390fd5b505050565b6121c7612aa7565b8160c001518160a00181815250508161010001518161012001819052508161012001518161014001819052508160a001518160c00190151590811515815250508160200151836060013581518110612222576122216135cd565b5b6020026020010151816040018190525081610140015183606001358151811061224e5761224d6135cd565b5b6020026020010151816101600181905250816040015183608001358151811061227a576122796135cd565b5b602002602001015181606001819052508161016001518360800135815181106122a6576122a56135cd565b5b602002602001015181610180018190525081606001518360800135815181106122d2576122d16135cd565b5b60200260200101518160800181815250508161018001518360a00135815181106122ff576122fe6135cd565b5b6020026020010151816101a0019073ffffffffffffffffffffffffffffffffffffffff16908173ffffffffffffffffffffffffffffffffffffffff1681525050826020013581600001818152505092915050565b600080826101a0015173ffffffffffffffffffffffffffffffffffffffff166040516024016040516020818303038152906040527f64f2d4b9000000000000000000000000000000000000000000000000000000007bffffffffffffffffffffffffffffffffffffffffffffffffffffffff19166020820180517bffffffffffffffffffffffffffffffffffffffffffffffffffffffff838183161783525050505060405161240291906150a6565b6000604051808303816000865af19150503d806000811461243f576040519150601f19603f3d011682016040523d82523d6000602084013e612444565b606091505b509150915081612489576040517f08c379a000000000000000000000000000000000000000000000000000000000815260040161248090615682565b60405180910390fd5b8080602001905181019061249d91906156e0565b836101c001516000019073ffffffffffffffffffffffffffffffffffffffff16908173ffffffffffffffffffffffffffffffffffffffff16815250508260e001516000015173ffffffffffffffffffffffffffffffffffffffff16634e7f0304846101c0015160000151856040015186600001518760e00151602001516040518563ffffffff1660e01b8152600401612539949392919061570d565b600060405180830381600087803b15801561255357600080fd5b505af1158015612567573d6000803e3d6000fd5b505050508261010001516000015173ffffffffffffffffffffffffffffffffffffffff16634e7f0304846101c001516000015185606001518660200151876101000151602001516040518563ffffffff1660e01b81526004016125cd949392919061570d565b600060405180830381600087803b1580156125e757600080fd5b505af11580156125fb573d6000803e3d6000fd5b50505050826101c001516000015173ffffffffffffffffffffffffffffffffffffffff1663a1d9bb24846040518263ffffffff1660e01b81526004016126419190613fee565b600060405180830381600087803b15801561265b57600080fd5b505af115801561266f573d6000803e3d6000fd5b5050505061267c83611927565b156126bc576040517f08c379a00000000000000000000000000000000000000000000000000000000081526004016126b3906157ac565b60405180910390fd5b505050565b6126c9612b66565b3081600001516000019073ffffffffffffffffffffffffffffffffffffffff16908173ffffffffffffffffffffffffffffffffffffffff168152505061274360028081111561271b5761271a614399565b5b60f81b8360405160200161272f9190613fee565b6040516020818303038152906040526104ec565b8160000151602001819052507fffffffffffffffffffffffffffffffffffffffffffffffffffffffffffffffff8160000151608001818152505061278a816000015161040e565b8160200181815250506127a08160200151612943565b919050565b60007f000000000000000000000000000000000000000000000000000000000000000073ffffffffffffffffffffffffffffffffffffffff163073ffffffffffffffffffffffffffffffffffffffff1614801561282157507f000000000000000000000000000000000000000000000000000000000000000046145b1561284e577f000000000000000000000000000000000000000000000000000000000000000090506128bc565b6128b97f00000000000000000000000000000000000000000000000000000000000000007f00000000000000000000000000000000000000000000000000000000000000007f0000000000000000000000000000000000000000000000000000000000000000612971565b90505b90565b600082826040516020016128d4929190615844565b60405160208183030381529060405280519060200120905092915050565b60008060418351036129335760008060006020860151925060408601519150606086015160001a9050612927878285856129ab565b9450945050505061293c565b60006002915091505b9250929050565b600160008083815260200190815260200160002060006101000a81548160ff02191690831515021790555050565b6000838383463060405160200161298c95949392919061587b565b6040516020818303038152906040528051906020012090509392505050565b6000807f7fffffffffffffffffffffffffffffff5d576e7357a4501ddfe92f46681b20a08360001c11156129e6576000600391509150612a84565b600060018787878760405160008152602001604052604051612a0b94939291906158ea565b6020604051602081039080840390855afa158015612a2d573d6000803e3d6000fd5b505050602060405103519050600073ffffffffffffffffffffffffffffffffffffffff168173ffffffffffffffffffffffffffffffffffffffff1603612a7b57600060019250925050612a84565b80600092509250505b94509492505050565b604051806040016040528060008152602001606081525090565b604051806102000160405280600081526020016000815260200160608152602001606081526020016000815260200160008152602001600015158152602001612aee612b90565b8152602001612afb612b90565b8152602001612b08612b90565b8152602001612b15612b90565b8152602001612b22612b90565b8152602001612b2f612b90565b8152602001600073ffffffffffffffffffffffffffffffffffffffff168152602001612b59612b90565b8152602001600081525090565b6040518060600160405280612b79612bc0565b815260200160008019168152602001606081525090565b6040518060400160405280600073ffffffffffffffffffffffffffffffffffffffff168152602001606081525090565b6040518060a00160405280600073ffffffffffffffffffffffffffffffffffffffff168152602001606081526020016000815260200160008152602001600081525090565b6000604051905090565b600080fd5b600080fd5b6000819050919050565b612c2c81612c19565b8114612c3757600080fd5b50565b600081359050612c4981612c23565b92915050565b600080fd5b600080fd5b6000601f19601f8301169050919050565b7f4e487b7100000000000000000000000000000000000000000000000000000000600052604160045260246000fd5b612ca282612c59565b810181811067ffffffffffffffff82111715612cc157612cc0612c6a565b5b80604052505050565b6000612cd4612c05565b9050612ce08282612c99565b919050565b600067ffffffffffffffff821115612d0057612cff612c6a565b5b612d0982612c59565b9050602081019050919050565b82818337600083830152505050565b6000612d38612d3384612ce5565b612cca565b905082815260208101848484011115612d5457612d53612c54565b5b612d5f848285612d16565b509392505050565b600082601f830112612d7c57612d7b612c4f565b5b8135612d8c848260208601612d25565b91505092915050565b60008060408385031215612dac57612dab612c0f565b5b6000612dba85828601612c3a565b925050602083013567ffffffffffffffff811115612ddb57612dda612c14565b5b612de785828601612d67565b9150509250929050565b60007fffffffff0000000000000000000000000000000000000000000000000000000082169050919050565b612e2681612df1565b82525050565b6000602082019050612e416000830184612e1d565b92915050565b600080fd5b600080fd5b60008083601f840112612e6757612e66612c4f565b5b8235905067ffffffffffffffff811115612e8457612e83612e47565b5b602083019150836001820283011115612ea057612e9f612e4c565b5b9250929050565b60008060208385031215612ebe57612ebd612c0f565b5b600083013567ffffffffffffffff811115612edc57612edb612c14565b5b612ee885828601612e51565b92509250509250929050565b60007fff0000000000000000000000000000000000000000000000000000000000000082169050919050565b612f2981612ef4565b82525050565b600082825260208201905092915050565b6000612f4c8385612f2f565b9350612f59838584612d16565b612f6283612c59565b840190509392505050565b6000604082019050612f826000830186612f20565b8181036020830152612f95818486612f40565b9050949350505050565b600080fd5b600080fd5b600073ffffffffffffffffffffffffffffffffffffffff82169050919050565b6000612fd482612fa9565b9050919050565b612fe481612fc9565b8114612fef57600080fd5b50565b60008135905061300181612fdb565b92915050565b6000819050919050565b61301a81613007565b811461302557600080fd5b50565b60008135905061303781613011565b92915050565b600060a0828403121561305357613052612f9f565b5b61305d60a0612cca565b9050600061306d84828501612ff2565b600083015250602082013567ffffffffffffffff81111561309157613090612fa4565b5b61309d84828501612d67565b60208301525060406130b184828501613028565b60408301525060606130c584828501613028565b60608301525060806130d984828501613028565b60808301525092915050565b6000602082840312156130fb576130fa612c0f565b5b600082013567ffffffffffffffff81111561311957613118612c14565b5b6131258482850161303d565b91505092915050565b61313781612c19565b82525050565b6000602082019050613152600083018461312e565b92915050565b600081519050919050565b600082825260208201905092915050565b60005b83811015613192578082015181840152602081019050613177565b60008484015250505050565b60006131a982613158565b6131b38185613163565b93506131c3818560208601613174565b6131cc81612c59565b840191505092915050565b600060208201905081810360008301526131f1818461319e565b905092915050565b61320281613007565b82525050565b600060208201905061321d60008301846131f9565b92915050565b60006020828403121561323957613238612c0f565b5b600061324784828501612c3a565b91505092915050565b60008115159050919050565b61326581613250565b82525050565b6000602082019050613280600083018461325c565b92915050565b61328f81612ef4565b811461329a57600080fd5b50565b6000813590506132ac81613286565b92915050565b600080604083850312156132c9576132c8612c0f565b5b60006132d78582860161329d565b925050602083013567ffffffffffffffff8111156132f8576132f7612c14565b5b61330485828601612d67565b9150509250929050565b600081519050919050565b60006133248261330e565b61332e8185612f2f565b935061333e818560208601613174565b61334781612c59565b840191505092915050565b6000602082019050818103600083015261336c8184613319565b905092915050565b60008060006060848603121561338d5761338c612c0f565b5b600061339b86828701612ff2565b93505060206133ac86828701612c3a565b925050604084013567ffffffffffffffff8111156133cd576133cc612c14565b5b6133d986828701612d67565b9150509250925092565b6000606082840312156133f9576133f8612f9f565b5b6134036060612cca565b9050600082013567ffffffffffffffff81111561342357613422612fa4565b5b61342f8482850161303d565b600083015250602061344384828501612c3a565b602083015250604082013567ffffffffffffffff81111561346757613466612fa4565b5b61347384828501612d67565b60408301525092915050565b60006020828403121561349557613494612c0f565b5b600082013567ffffffffffffffff8111156134b3576134b2612c14565b5b6134bf848285016133e3565b91505092915050565b600080fd5b6000606082840312156134e3576134e26134c8565b5b81905092915050565b60006020828403121561350257613501612c0f565b5b600082013567ffffffffffffffff8111156135205761351f612c14565b5b61352c848285016134cd565b91505092915050565b6000610100828403121561354c5761354b6134c8565b5b81905092915050565b6000806040838503121561356c5761356b612c0f565b5b600083013567ffffffffffffffff81111561358a57613589612c14565b5b61359685828601613535565b925050602083013567ffffffffffffffff8111156135b7576135b6612c14565b5b6135c3858286016134cd565b9150509250929050565b7f4e487b7100000000000000000000000000000000000000000000000000000000600052603260045260246000fd5b600080fd5b600080fd5b6000808585111561361a576136196135fc565b5b8386111561362b5761362a613601565b5b6001850283019150848603905094509492505050565b61364a81612fc9565b82525050565b600060c082019050613665600083018961312e565b6136726020830188613641565b61367f604083018761312e565b61368c60608301866131f9565b61369960808301856131f9565b6136a660a08301846131f9565b979650505050505050565b6000819050919050565b6136cc6136c782612ef4565b6136b1565b82525050565b600081905092915050565b60006136e88261330e565b6136f281856136d2565b9350613702818560208601613174565b80840191505092915050565b600061371a82856136bb565b60018201915061372a82846136dd565b91508190509392505050565b7f54726163746f723a20696e76616c696420686173680000000000000000000000600082015250565b600061376c601583613163565b915061377782613736565b602082019050919050565b6000602082019050818103600083015261379b8161375f565b9050919050565b7f54726163746f723a20696e76616c6964207369676e6174757265000000000000600082015250565b60006137d8601a83613163565b91506137e3826137a2565b602082019050919050565b60006020820190508181036000830152613807816137cb565b9050919050565b61381781612fc9565b82525050565b600082825260208201905092915050565b60006138398261330e565b613843818561381d565b9350613853818560208601613174565b61385c81612c59565b840191505092915050565b61387081613007565b82525050565b600060a08301600083015161388e600086018261380e565b50602083015184820360208601526138a6828261382e565b91505060408301516138bb6040860182613867565b5060608301516138ce6060860182613867565b5060808301516138e16080860182613867565b508091505092915050565b6138f581612c19565b82525050565b600060608301600083015184820360008601526139188282613876565b915050602083015161392d60208601826138ec565b5060408301518482036040860152613945828261382e565b9150508091505092915050565b6000602082019050818103600083015261396c81846138fb565b905092915050565b600061398036836133e3565b9050919050565b600080fd5b600080fd5b600080fd5b60008235600160a0038336030381126139b2576139b1613987565b5b80830191505092915050565b600080833560016020038436030381126139db576139da613987565b5b80840192508235915067ffffffffffffffff8211156139fd576139fc61398c565b5b602083019250600182023603831315613a1957613a18613991565b5b509250929050565b600081519050613a3081613011565b92915050565b6000613a49613a4484612ce5565b612cca565b905082815260208101848484011115613a6557613a64612c54565b5b613a70848285613174565b509392505050565b600082601f830112613a8d57613a8c612c4f565b5b8151613a9d848260208601613a36565b91505092915050565b613aaf81613250565b8114613aba57600080fd5b50565b600081519050613acc81613aa6565b92915050565b600081519050613ae181612fdb565b92915050565b600060408284031215613afd57613afc612f9f565b5b613b076040612cca565b90506000613b1784828501613ad2565b600083015250602082015167ffffffffffffffff811115613b3b57613b3a612fa4565b5b613b4784828501613a78565b60208301525092915050565b60006102008284031215613b6a57613b69612f9f565b5b613b75610200612cca565b90506000613b8584828501613a21565b6000830152506020613b9984828501613a21565b602083015250604082015167ffffffffffffffff811115613bbd57613bbc612fa4565b5b613bc984828501613a78565b604083015250606082015167ffffffffffffffff811115613bed57613bec612fa4565b5b613bf984828501613a78565b6060830152506080613c0d84828501613a21565b60808301525060a0613c2184828501613a21565b60a08301525060c0613c3584828501613abd565b60c08301525060e082015167ffffffffffffffff811115613c5957613c58612fa4565b5b613c6584828501613ae7565b60e08301525061010082015167ffffffffffffffff811115613c8a57613c89612fa4565b5b613c9684828501613ae7565b6101008301525061012082015167ffffffffffffffff811115613cbc57613cbb612fa4565b5b613cc884828501613ae7565b6101208301525061014082015167ffffffffffffffff811115613cee57613ced612fa4565b5b613cfa84828501613ae7565b6101408301525061016082015167ffffffffffffffff811115613d2057613d1f612fa4565b5b613d2c84828501613ae7565b6101608301525061018082015167ffffffffffffffff811115613d5257613d51612fa4565b5b613d5e84828501613ae7565b610180830152506101a0613d7484828501613ad2565b6101a0830152506101c082015167ffffffffffffffff811115613d9a57613d99612fa4565b5b613da684828501613ae7565b6101c0830152506101e0613dbc84828501613a21565b6101e08301525092915050565b600060208284031215613ddf57613dde612c0f565b5b600082015167ffffffffffffffff811115613dfd57613dfc612c14565b5b613e0984828501613b53565b91505092915050565b613e1b81613250565b82525050565b6000604083016000830151613e39600086018261380e565b5060208301518482036020860152613e51828261382e565b9150508091505092915050565b600061020083016000830151613e776000860182613867565b506020830151613e8a6020860182613867565b5060408301518482036040860152613ea2828261382e565b91505060608301518482036060860152613ebc828261382e565b9150506080830151613ed16080860182613867565b5060a0830151613ee460a0860182613867565b5060c0830151613ef760c0860182613e12565b5060e083015184820360e0860152613f0f8282613e21565b915050610100830151848203610100860152613f2b8282613e21565b915050610120830151848203610120860152613f478282613e21565b915050610140830151848203610140860152613f638282613e21565b915050610160830151848203610160860152613f7f8282613e21565b915050610180830151848203610180860152613f9b8282613e21565b9150506101a0830151613fb26101a086018261380e565b506101c08301518482036101c0860152613fcc8282613e21565b9150506101e0830151613fe36101e0860182613867565b508091505092915050565b600060208201905081810360008301526140088184613e5e565b905092915050565b7f4c6f616e20616c726561647920636c6f7365642e000000000000000000000000600082015250565b6000614046601483613163565b915061405182614010565b602082019050919050565b6000602082019050818103600083015261407581614039565b9050919050565b7f4c6f616e206973206e6f7420656c696769626c6520666f72206c69717569646160008201527f74696f6e00000000000000000000000000000000000000000000000000000000602082015250565b60006140d8602483613163565b91506140e38261407c565b604082019050919050565b60006020820190508181036000830152614107816140cb565b9050919050565b60006040820190506141236000830185613641565b81810360208301526141358184613e5e565b90509392505050565b600080fd5b60008235600160a00383360303811261415f5761415e61413e565b5b82810191505092915050565b600061417a6020840184612ff2565b905092915050565b600080fd5b600080fd5b600080833560016020038436030381126141a9576141a861413e565b5b83810192508235915060208301925067ffffffffffffffff8211156141d1576141d0614182565b5b6001820236038313156141e7576141e6614187565b5b509250929050565b60006141fb838561381d565b9350614208838584612d16565b61421183612c59565b840190509392505050565b600061422b6020840184613028565b905092915050565b600060a08301614246600084018461416b565b614253600086018261380e565b50614261602084018461418c565b85830360208701526142748382846141ef565b92505050614285604084018461421c565b6142926040860182613867565b506142a0606084018461421c565b6142ad6060860182613867565b506142bb608084018461421c565b6142c86080860182613867565b508091505092915050565b60006142e26020840184612c3a565b905092915050565b6000606083016142fd6000840184614143565b848203600086015261430f8282614233565b91505061431f60208401846142d3565b61432c60208601826138ec565b5061433a604084018461418c565b858303604087015261434d8382846141ef565b925050508091505092915050565b6000606082019050818103600083015261437581866142ea565b90506143846020830185613641565b6143916040830184613641565b949350505050565b7f4e487b7100000000000000000000000000000000000000000000000000000000600052602160045260246000fd5b7f424b44544d4d0000000000000000000000000000000000000000000000000000600082015250565b60006143fe600683613163565b9150614409826143c8565b602082019050919050565b6000602082019050818103600083015261442d816143f1565b9050919050565b6000823560016040038336030381126144505761444f613987565b5b80830191505092915050565b60006020828403121561447257614471612c0f565b5b600061448084828501612ff2565b91505092915050565b600060208201905081810360008301526144a4818486612f40565b90509392505050565b6000602082840312156144c3576144c2612c0f565b5b60006144d184828501613ad2565b91505092915050565b7f66696c6c4f726465723a2054616b657220213d206d73672e73656e6465720000600082015250565b6000614510601e83613163565b915061451b826144da565b602082019050919050565b6000602082019050818103600083015261453f81614503565b9050919050565b600067ffffffffffffffff82111561456157614560612c6a565b5b602082029050602081019050919050565b600061458561458084614546565b612cca565b905080838252602082019050602084028301858111156145a8576145a7612e4c565b5b835b818110156145d157806145bd8882613a21565b8452602084019350506020810190506145aa565b5050509392505050565b600082601f8301126145f0576145ef612c4f565b5b8151614600848260208601614572565b91505092915050565b600067ffffffffffffffff82111561462457614623612c6a565b5b602082029050602081019050919050565b600061464861464384614609565b612cca565b9050808382526020820190506020840283018581111561466b5761466a612e4c565b5b835b818110156146b257805167ffffffffffffffff8111156146905761468f612c4f565b5b80860161469d8982613a78565b8552602085019450505060208101905061466d565b5050509392505050565b600082601f8301126146d1576146d0612c4f565b5b81516146e1848260208601614635565b91505092915050565b600067ffffffffffffffff82111561470557614704612c6a565b5b602082029050602081019050919050565b6000614729614724846146ea565b612cca565b9050808382526020820190506020840283018581111561474c5761474b612e4c565b5b835b8181101561477557806147618882613ad2565b84526020840193505060208101905061474e565b5050509392505050565b600082601f83011261479457614793612c4f565b5b81516147a4848260208601614716565b91505092915050565b600067ffffffffffffffff8211156147c8576147c7612c6a565b5b602082029050602081019050919050565b60006147ec6147e7846147ad565b612cca565b9050808382526020820190506020840283018581111561480f5761480e612e4c565b5b835b8181101561485657805167ffffffffffffffff81111561483457614833612c4f565b5b8086016148418982613ae7565b85526020850194505050602081019050614811565b5050509392505050565b600082601f83011261487557614874612c4f565b5b81516148858482602086016147d9565b91505092915050565b6000604082840312156148a4576148a3612f9f565b5b6148ae6040612cca565b905060006148be84828501613a21565b600083015250602082015167ffffffffffffffff8111156148e2576148e1612fa4565b5b6148ee84828501613a78565b60208301525092915050565b60006101e0828403121561491157614910612f9f565b5b61491c6101e0612cca565b9050600082015167ffffffffffffffff81111561493c5761493b612fa4565b5b614948848285016145db565b600083015250602082015167ffffffffffffffff81111561496c5761496b612fa4565b5b614978848285016146bc565b602083015250604082015167ffffffffffffffff81111561499c5761499b612fa4565b5b6149a8848285016146bc565b604083015250606082015167ffffffffffffffff8111156149cc576149cb612fa4565b5b6149d8848285016145db565b606083015250608082015167ffffffffffffffff8111156149fc576149fb612fa4565b5b614a088482850161477f565b60808301525060a0614a1c84828501613abd565b60a08301525060c0614a3084828501613a21565b60c08301525060e082015167ffffffffffffffff811115614a5457614a53612fa4565b5b614a6084828501613ae7565b60e08301525061010082015167ffffffffffffffff811115614a8557614a84612fa4565b5b614a9184828501613ae7565b6101008301525061012082015167ffffffffffffffff811115614ab757614ab6612fa4565b5b614ac384828501613ae7565b6101208301525061014082015167ffffffffffffffff811115614ae957614ae8612fa4565b5b614af584828501614860565b6101408301525061016082015167ffffffffffffffff811115614b1b57614b1a612fa4565b5b614b2784828501614860565b6101608301525061018082015167ffffffffffffffff811115614b4d57614b4c612fa4565b5b614b598482850161477f565b610180830152506101a0614b6f84828501613abd565b6101a0830152506101c082015167ffffffffffffffff811115614b9557614b94612fa4565b5b614ba18482850161488e565b6101c08301525092915050565b600060208284031215614bc457614bc3612c0f565b5b600082015167ffffffffffffffff811115614be257614be1612c14565b5b614bee848285016148fa565b91505092915050565b7f424b504f4d4d0000000000000000000000000000000000000000000000000000600082015250565b6000614c2d600683613163565b9150614c3882614bf7565b602082019050919050565b60006020820190508181036000830152614c5c81614c20565b9050919050565b7f426f6f6b6b65657065723a20496e76616c69642074616b657200000000000000600082015250565b6000614c99601983613163565b9150614ca482614c63565b602082019050919050565b60006020820190508181036000830152614cc881614c8c565b9050919050565b600060208284031215614ce557614ce4612c0f565b5b6000614cf384828501613a21565b91505092915050565b7f4e487b7100000000000000000000000000000000000000000000000000000000600052601160045260246000fd5b6000614d3682613007565b9150614d4183613007565b9250828202614d4f81613007565b91508282048414831517614d6657614d65614cfc565b5b5092915050565b7f4e487b7100000000000000000000000000000000000000000000000000000000600052601260045260246000fd5b6000614da782613007565b9150614db283613007565b925082614dc257614dc1614d6d565b5b828204905092915050565b600082356001604003833603038112614de957614de8613987565b5b80830191505092915050565b600060408284031215614e0b57614e0a612f9f565b5b614e156040612cca565b90506000614e2584828501612ff2565b600083015250602082013567ffffffffffffffff811115614e4957614e48612fa4565b5b614e5584828501612d67565b60208301525092915050565b6000614e6d3683614df5565b9050919050565b6000614e7f82613007565b9150614e8a83613007565b9250828203905081811115614ea257614ea1614cfc565b5b92915050565b60006060820190508181036000830152614ec281866138fb565b9050614ed1602083018561312e565b614ede6040830184613641565b949350505050565b7f636c6f7365506f736974696f6e3a20496e76616c696420646174612074797065600082015250565b6000614f1c602083613163565b9150614f2782614ee6565b602082019050919050565b60006020820190508181036000830152614f4b81614f0f565b9050919050565b7f6572726f723a205468652061677265656d656e74206973206e6f74206c69717560008201527f6964617461626c65206e6f72206973207468652063616c6c657220746865206260208201527f6f72726f77657200000000000000000000000000000000000000000000000000604082015250565b6000614fd4604783613163565b9150614fdf82614f52565b606082019050919050565b6000602082019050818103600083015261500381614fc7565b9050919050565b7f54726163746f723a20696e76616c69642073656e646572000000000000000000600082015250565b6000615040601783613163565b915061504b8261500a565b602082019050919050565b6000602082019050818103600083015261506f81615033565b9050919050565b600060408201905061508b600083018561312e565b818103602083015261509d8184613319565b90509392505050565b60006150b282846136dd565b915081905092915050565b6000815190506150cc81612c23565b92915050565b6000602082840312156150e8576150e7612c0f565b5b60006150f6848285016150bd565b91505092915050565b7f5265656e7472616e637947756172643a207265656e7472616e742063616c6c00600082015250565b6000615135601f83613163565b9150615140826150ff565b602082019050919050565b6000602082019050818103600083015261516481615128565b9050919050565b600061517682613007565b915061518183613007565b925082820190508082111561519957615198614cfc565b5b92915050565b7f436f6c6c61746572616c20726174696f2069732062656c6f77206d696e696d7560008201527f6d00000000000000000000000000000000000000000000000000000000000000602082015250565b60006151fb602183613163565b91506152068261519f565b604082019050919050565b6000602082019050818103600083015261522a816151ee565b9050919050565b6000604082019050818103600083015261524b8185613319565b9050818103602083015261525f8184613319565b90509392505050565b7f4e6f7420656e6f75676820746f20636c6f736520746865206c6f616e00000000600082015250565b600061529e601c83613163565b91506152a982615268565b602082019050919050565b600060208201905081810360008301526152cd81615291565b9050919050565b60008160601b9050919050565b60006152ec826152d4565b9050919050565b60006152fe826152e1565b9050919050565b61531661531182612fc9565b6152f3565b82525050565b60006153288284615305565b60148201915081905092915050565b600060c082019050818103600083015261535181896142ea565b90506153606020830188613641565b61536d6040830187613641565b61537a60608301866131f9565b61538760808301856131f9565b61539460a08301846131f9565b979650505050505050565b6000813590506153ae81613aa6565b92915050565b6000602082840312156153ca576153c9612c0f565b5b60006153d88482850161539f565b91505092915050565b7f6f666665722066696c6c206f66206f6666657200000000000000000000000000600082015250565b6000615417601383613163565b9150615422826153e1565b602082019050919050565b600060208201905081810360008301526154468161540a565b9050919050565b7f726571756573742066696c6c206f662072657175657374000000000000000000600082015250565b6000615483601783613163565b915061548e8261544d565b602082019050919050565b600060208201905081810360008301526154b281615476565b9050919050565b6000604082840312156154cf576154ce612f9f565b5b6154d96040612cca565b905060006154e984828501613028565b600083015250602082013567ffffffffffffffff81111561550d5761550c612fa4565b5b61551984828501612d67565b60208301525092915050565b600061553136836154b9565b9050919050565b7f6c6f616e416d6f756e7420746f6f20736d616c6c000000000000000000000000600082015250565b600061556e601483613163565b915061557982615538565b602082019050919050565b6000602082019050818103600083015261559d81615561565b9050919050565b7f696e6974436f6c6c61746572616c526174696f20746f6f20736d616c6c000000600082015250565b60006155da601d83613163565b91506155e5826155a4565b602082019050919050565b60006020820190508181036000830152615609816155cd565b9050919050565b7f666163746f7279206572726f723a2063726561746520636c6f6e65206661696c60008201527f6564000000000000000000000000000000000000000000000000000000000000602082015250565b600061566c602283613163565b915061567782615610565b604082019050919050565b6000602082019050818103600083015261569b8161565f565b9050919050565b60006156ad82612fa9565b9050919050565b6156bd816156a2565b81146156c857600080fd5b50565b6000815190506156da816156b4565b92915050565b6000602082840312156156f6576156f5612c0f565b5b6000615704848285016156cb565b91505092915050565b60006080820190506157226000830187613641565b81810360208301526157348186613319565b905061574360408301856131f9565b81810360608301526157558184613319565b905095945050505050565b7f756e6865616c746879206465706c6f796d656e74000000000000000000000000600082015250565b6000615796601483613163565b91506157a182615760565b602082019050919050565b600060208201905081810360008301526157c581615789565b9050919050565b600081905092915050565b7f1901000000000000000000000000000000000000000000000000000000000000600082015250565b600061580d6002836157cc565b9150615818826157d7565b600282019050919050565b6000819050919050565b61583e61583982612c19565b615823565b82525050565b600061584f82615800565b915061585b828561582d565b60208201915061586b828461582d565b6020820191508190509392505050565b600060a082019050615890600083018861312e565b61589d602083018761312e565b6158aa604083018661312e565b6158b760608301856131f9565b6158c46080830184613641565b9695505050505050565b600060ff82169050919050565b6158e4816158ce565b82525050565b60006080820190506158ff600083018761312e565b61590c60208301866158db565b615919604083018561312e565b615926606083018461312e565b9594505050505056fea26469706673582212201113ffdd923ed8b49d637f9cfe0613679c9fe77651dcce2445a001c4f863219264736f6c63430008130033",
  "linkReferences": {},
  "deployedLinkReferences": {}
}