{
  "_format": "hh-sol-artifact-1",
  "contractName": "Bookkeeper",
  "sourceName": "src/Bookkeeper.sol",
  "abi": [
    {
      "inputs": [],
      "stateMutability": "nonpayable",
      "type": "constructor"
    },
    {
      "anonymous": false,
      "inputs": [
        {
          "indexed": false,
          "internalType": "bytes32",
          "name": "blueprintHash",
          "type": "bytes32"
        }
      ],
      "name": "DestroyedBlueprint",
      "type": "event"
    },
    {
      "anonymous": false,
      "inputs": [
        {
          "components": [
            {
              "components": [
                {
                  "internalType": "address",
                  "name": "publisher",
                  "type": "address"
                },
                {
                  "internalType": "bytes",
                  "name": "data",
                  "type": "bytes"
                },
                {
                  "internalType": "uint256",
                  "name": "maxNonce",
                  "type": "uint256"
                },
                {
                  "internalType": "uint256",
                  "name": "startTime",
                  "type": "uint256"
                },
                {
                  "internalType": "uint256",
                  "name": "endTime",
                  "type": "uint256"
                }
              ],
              "internalType": "struct Blueprint",
              "name": "blueprint",
              "type": "tuple"
            },
            {
              "internalType": "bytes32",
              "name": "blueprintHash",
              "type": "bytes32"
            },
            {
              "internalType": "bytes",
              "name": "signature",
              "type": "bytes"
            }
          ],
          "indexed": false,
          "internalType": "struct SignedBlueprint",
          "name": "agreement",
          "type": "tuple"
        },
        {
          "indexed": false,
          "internalType": "bytes32",
          "name": "orderBlueprintHash",
          "type": "bytes32"
        },
        {
          "indexed": false,
          "internalType": "address",
          "name": "taker",
          "type": "address"
        }
      ],
      "name": "OrderFilled",
      "type": "event"
    },
    {
      "anonymous": false,
      "inputs": [
        {
          "components": [
            {
              "components": [
                {
                  "internalType": "address",
                  "name": "publisher",
                  "type": "address"
                },
                {
                  "internalType": "bytes",
                  "name": "data",
                  "type": "bytes"
                },
                {
                  "internalType": "uint256",
                  "name": "maxNonce",
                  "type": "uint256"
                },
                {
                  "internalType": "uint256",
                  "name": "startTime",
                  "type": "uint256"
                },
                {
                  "internalType": "uint256",
                  "name": "endTime",
                  "type": "uint256"
                }
              ],
              "internalType": "struct Blueprint",
              "name": "blueprint",
              "type": "tuple"
            },
            {
              "internalType": "bytes32",
              "name": "blueprintHash",
              "type": "bytes32"
            },
            {
              "internalType": "bytes",
              "name": "signature",
              "type": "bytes"
            }
          ],
          "indexed": false,
          "internalType": "struct SignedBlueprint",
          "name": "agreement",
          "type": "tuple"
        },
        {
          "indexed": false,
          "internalType": "address",
          "name": "position",
          "type": "address"
        },
        {
          "indexed": false,
          "internalType": "address",
          "name": "closer",
          "type": "address"
        },
        {
          "indexed": false,
          "internalType": "uint256",
          "name": "closeValue",
          "type": "uint256"
        },
        {
          "indexed": false,
          "internalType": "uint256",
          "name": "loanOrcale",
          "type": "uint256"
        },
        {
          "indexed": false,
          "internalType": "uint256",
          "name": "assessorCost",
          "type": "uint256"
        }
      ],
      "name": "PositionClosed",
      "type": "event"
    },
    {
      "anonymous": false,
      "inputs": [
        {
          "components": [
            {
              "components": [
                {
                  "internalType": "address",
                  "name": "publisher",
                  "type": "address"
                },
                {
                  "internalType": "bytes",
                  "name": "data",
                  "type": "bytes"
                },
                {
                  "internalType": "uint256",
                  "name": "maxNonce",
                  "type": "uint256"
                },
                {
                  "internalType": "uint256",
                  "name": "startTime",
                  "type": "uint256"
                },
                {
                  "internalType": "uint256",
                  "name": "endTime",
                  "type": "uint256"
                }
              ],
              "internalType": "struct Blueprint",
              "name": "blueprint",
              "type": "tuple"
            },
            {
              "internalType": "bytes32",
              "name": "blueprintHash",
              "type": "bytes32"
            },
            {
              "internalType": "bytes",
              "name": "signature",
              "type": "bytes"
            }
          ],
          "indexed": false,
          "internalType": "struct SignedBlueprint",
          "name": "agreement",
          "type": "tuple"
        },
        {
          "indexed": false,
          "internalType": "address",
          "name": "position",
          "type": "address"
        },
        {
          "indexed": false,
          "internalType": "address",
          "name": "liquidator",
          "type": "address"
        }
      ],
      "name": "PositionLiquidated",
      "type": "event"
    },
    {
      "anonymous": false,
      "inputs": [
        {
          "components": [
            {
              "components": [
                {
                  "internalType": "address",
                  "name": "publisher",
                  "type": "address"
                },
                {
                  "internalType": "bytes",
                  "name": "data",
                  "type": "bytes"
                },
                {
                  "internalType": "uint256",
                  "name": "maxNonce",
                  "type": "uint256"
                },
                {
                  "internalType": "uint256",
                  "name": "startTime",
                  "type": "uint256"
                },
                {
                  "internalType": "uint256",
                  "name": "endTime",
                  "type": "uint256"
                }
              ],
              "internalType": "struct Blueprint",
              "name": "blueprint",
              "type": "tuple"
            },
            {
              "internalType": "bytes32",
              "name": "blueprintHash",
              "type": "bytes32"
            },
            {
              "internalType": "bytes",
              "name": "signature",
              "type": "bytes"
            }
          ],
          "indexed": false,
          "internalType": "struct SignedBlueprint",
          "name": "signedBlueprint",
          "type": "tuple"
        }
      ],
      "name": "PublishedBlueprint",
      "type": "event"
    },
    {
      "anonymous": false,
      "inputs": [
        {
          "indexed": true,
          "internalType": "address",
          "name": "operator",
          "type": "address"
        },
        {
          "indexed": false,
          "internalType": "bytes32",
          "name": "blueprintHash",
          "type": "bytes32"
        }
      ],
      "name": "UsedBlueprint",
      "type": "event"
    },
    {
      "inputs": [],
      "name": "BLUEPRINT_TYPEHASH",
      "outputs": [
        {
          "internalType": "bytes32",
          "name": "",
          "type": "bytes32"
        }
      ],
      "stateMutability": "view",
      "type": "function"
    },
    {
      "inputs": [],
      "name": "PROTOCOL_NAME",
      "outputs": [
        {
          "internalType": "string",
          "name": "",
          "type": "string"
        }
      ],
      "stateMutability": "view",
      "type": "function"
    },
    {
      "inputs": [],
      "name": "PROTOCOL_VERSION",
      "outputs": [
        {
          "internalType": "string",
          "name": "",
          "type": "string"
        }
      ],
      "stateMutability": "view",
      "type": "function"
    },
    {
      "inputs": [
        {
          "internalType": "bytes32",
          "name": "",
          "type": "bytes32"
        }
      ],
      "name": "agreementClosed",
      "outputs": [
        {
          "internalType": "bool",
          "name": "",
          "type": "bool"
        }
      ],
      "stateMutability": "view",
      "type": "function"
    },
    {
      "inputs": [
        {
          "components": [
            {
              "components": [
                {
                  "internalType": "address",
                  "name": "publisher",
                  "type": "address"
                },
                {
                  "internalType": "bytes",
                  "name": "data",
                  "type": "bytes"
                },
                {
                  "internalType": "uint256",
                  "name": "maxNonce",
                  "type": "uint256"
                },
                {
                  "internalType": "uint256",
                  "name": "startTime",
                  "type": "uint256"
                },
                {
                  "internalType": "uint256",
                  "name": "endTime",
                  "type": "uint256"
                }
              ],
              "internalType": "struct Blueprint",
              "name": "blueprint",
              "type": "tuple"
            },
            {
              "internalType": "bytes32",
              "name": "blueprintHash",
              "type": "bytes32"
            },
            {
              "internalType": "bytes",
              "name": "signature",
              "type": "bytes"
            }
          ],
          "internalType": "struct SignedBlueprint",
          "name": "agreementBlueprint",
          "type": "tuple"
        }
      ],
      "name": "closePosition",
      "outputs": [],
      "stateMutability": "nonpayable",
      "type": "function"
    },
    {
      "inputs": [
        {
          "components": [
            {
              "components": [
                {
                  "internalType": "address",
                  "name": "publisher",
                  "type": "address"
                },
                {
                  "internalType": "bytes",
                  "name": "data",
                  "type": "bytes"
                },
                {
                  "internalType": "uint256",
                  "name": "maxNonce",
                  "type": "uint256"
                },
                {
                  "internalType": "uint256",
                  "name": "startTime",
                  "type": "uint256"
                },
                {
                  "internalType": "uint256",
                  "name": "endTime",
                  "type": "uint256"
                }
              ],
              "internalType": "struct Blueprint",
              "name": "blueprint",
              "type": "tuple"
            },
            {
              "internalType": "bytes32",
              "name": "blueprintHash",
              "type": "bytes32"
            },
            {
              "internalType": "bytes",
              "name": "signature",
              "type": "bytes"
            }
          ],
          "internalType": "struct SignedBlueprint",
          "name": "signedBlueprint",
          "type": "tuple"
        }
      ],
      "name": "destroyBlueprint",
      "outputs": [],
      "stateMutability": "nonpayable",
      "type": "function"
    },
    {
      "inputs": [],
      "name": "domainSeparator",
      "outputs": [
        {
          "internalType": "bytes32",
          "name": "",
          "type": "bytes32"
        }
      ],
      "stateMutability": "view",
      "type": "function"
    },
    {
      "inputs": [
        {
          "components": [
            {
              "components": [
                {
                  "internalType": "address",
                  "name": "addr",
                  "type": "address"
                },
                {
                  "internalType": "bytes",
                  "name": "parameters",
                  "type": "bytes"
                }
              ],
              "internalType": "struct PluginReference",
              "name": "account",
              "type": "tuple"
            },
            {
              "internalType": "uint256",
              "name": "loanAmount",
              "type": "uint256"
            },
            {
              "internalType": "uint256",
              "name": "takerIdx",
              "type": "uint256"
            },
            {
              "internalType": "uint256",
              "name": "loanAssetIdx",
              "type": "uint256"
            },
            {
              "internalType": "uint256",
              "name": "collAssetIdx",
              "type": "uint256"
            },
            {
              "internalType": "uint256",
              "name": "factoryIdx",
              "type": "uint256"
            },
            {
              "internalType": "bytes",
              "name": "fillerData",
              "type": "bytes"
            },
            {
              "internalType": "bool",
              "name": "isOfferFill",
              "type": "bool"
            },
            {
              "components": [
                {
                  "internalType": "uint256",
                  "name": "collAmount",
                  "type": "uint256"
                },
                {
                  "internalType": "bytes",
                  "name": "positionParameters",
                  "type": "bytes"
                }
              ],
              "internalType": "struct BorrowerConfig",
              "name": "borrowerConfig",
              "type": "tuple"
            }
          ],
          "internalType": "struct Fill",
          "name": "fill",
          "type": "tuple"
        },
        {
          "components": [
            {
              "components": [
                {
                  "internalType": "address",
                  "name": "publisher",
                  "type": "address"
                },
                {
                  "internalType": "bytes",
                  "name": "data",
                  "type": "bytes"
                },
                {
                  "internalType": "uint256",
                  "name": "maxNonce",
                  "type": "uint256"
                },
                {
                  "internalType": "uint256",
                  "name": "startTime",
                  "type": "uint256"
                },
                {
                  "internalType": "uint256",
                  "name": "endTime",
                  "type": "uint256"
                }
              ],
              "internalType": "struct Blueprint",
              "name": "blueprint",
              "type": "tuple"
            },
            {
              "internalType": "bytes32",
              "name": "blueprintHash",
              "type": "bytes32"
            },
            {
              "internalType": "bytes",
              "name": "signature",
              "type": "bytes"
            }
          ],
          "internalType": "struct SignedBlueprint",
          "name": "orderBlueprint",
          "type": "tuple"
        }
      ],
      "name": "fillOrder",
      "outputs": [],
      "stateMutability": "nonpayable",
      "type": "function"
    },
    {
      "inputs": [
        {
          "components": [
            {
              "internalType": "address",
              "name": "publisher",
              "type": "address"
            },
            {
              "internalType": "bytes",
              "name": "data",
              "type": "bytes"
            },
            {
              "internalType": "uint256",
              "name": "maxNonce",
              "type": "uint256"
            },
            {
              "internalType": "uint256",
              "name": "startTime",
              "type": "uint256"
            },
            {
              "internalType": "uint256",
              "name": "endTime",
              "type": "uint256"
            }
          ],
          "internalType": "struct Blueprint",
          "name": "blueprint",
          "type": "tuple"
        }
      ],
      "name": "getBlueprintHash",
      "outputs": [
        {
          "internalType": "bytes32",
          "name": "",
          "type": "bytes32"
        }
      ],
      "stateMutability": "view",
      "type": "function"
    },
    {
      "inputs": [],
      "name": "getChainId",
      "outputs": [
        {
          "internalType": "uint256",
          "name": "",
          "type": "uint256"
        }
      ],
      "stateMutability": "view",
      "type": "function"
    },
    {
      "inputs": [
        {
          "internalType": "bytes32",
          "name": "blueprintHash",
          "type": "bytes32"
        },
        {
          "internalType": "bytes",
          "name": "",
          "type": "bytes"
        }
      ],
      "name": "isValidSignature",
      "outputs": [
        {
          "internalType": "bytes4",
          "name": "magicValue",
          "type": "bytes4"
        }
      ],
      "stateMutability": "view",
      "type": "function"
    },
    {
      "inputs": [
        {
          "internalType": "address",
          "name": "signer",
          "type": "address"
        },
        {
          "internalType": "bytes32",
          "name": "hash",
          "type": "bytes32"
        },
        {
          "internalType": "bytes",
          "name": "signature",
          "type": "bytes"
        }
      ],
      "name": "isValidSignatureNow",
      "outputs": [
        {
          "internalType": "bool",
          "name": "",
          "type": "bool"
        }
      ],
      "stateMutability": "view",
      "type": "function"
    },
    {
      "inputs": [
        {
          "internalType": "bytes1",
          "name": "dataType",
          "type": "bytes1"
        },
        {
          "internalType": "bytes",
          "name": "data",
          "type": "bytes"
        }
      ],
      "name": "packDataField",
      "outputs": [
        {
          "internalType": "bytes",
          "name": "",
          "type": "bytes"
        }
      ],
      "stateMutability": "pure",
      "type": "function"
    },
    {
      "inputs": [
        {
          "components": [
            {
              "components": [
                {
                  "internalType": "address",
                  "name": "publisher",
                  "type": "address"
                },
                {
                  "internalType": "bytes",
                  "name": "data",
                  "type": "bytes"
                },
                {
                  "internalType": "uint256",
                  "name": "maxNonce",
                  "type": "uint256"
                },
                {
                  "internalType": "uint256",
                  "name": "startTime",
                  "type": "uint256"
                },
                {
                  "internalType": "uint256",
                  "name": "endTime",
                  "type": "uint256"
                }
              ],
              "internalType": "struct Blueprint",
              "name": "blueprint",
              "type": "tuple"
            },
            {
              "internalType": "bytes32",
              "name": "blueprintHash",
              "type": "bytes32"
            },
            {
              "internalType": "bytes",
              "name": "signature",
              "type": "bytes"
            }
          ],
          "internalType": "struct SignedBlueprint",
          "name": "signedBlueprint",
          "type": "tuple"
        }
      ],
      "name": "publishBlueprint",
      "outputs": [],
      "stateMutability": "nonpayable",
      "type": "function"
    },
    {
      "inputs": [
        {
          "components": [
            {
              "components": [
                {
                  "internalType": "address",
                  "name": "publisher",
                  "type": "address"
                },
                {
                  "internalType": "bytes",
                  "name": "data",
                  "type": "bytes"
                },
                {
                  "internalType": "uint256",
                  "name": "maxNonce",
                  "type": "uint256"
                },
                {
                  "internalType": "uint256",
                  "name": "startTime",
                  "type": "uint256"
                },
                {
                  "internalType": "uint256",
                  "name": "endTime",
                  "type": "uint256"
                }
              ],
              "internalType": "struct Blueprint",
              "name": "blueprint",
              "type": "tuple"
            },
            {
              "internalType": "bytes32",
              "name": "blueprintHash",
              "type": "bytes32"
            },
            {
              "internalType": "bytes",
              "name": "signature",
              "type": "bytes"
            }
          ],
          "internalType": "struct SignedBlueprint",
          "name": "agreementBlueprint",
          "type": "tuple"
        },
        {
          "internalType": "bytes",
          "name": "liquidatorLogic",
          "type": "bytes"
        }
      ],
      "name": "triggerLiquidation",
      "outputs": [],
      "stateMutability": "nonpayable",
      "type": "function"
    },
    {
      "inputs": [
        {
          "internalType": "bytes",
          "name": "data",
          "type": "bytes"
        }
      ],
      "name": "unpackDataField",
      "outputs": [
        {
          "internalType": "bytes1",
          "name": "",
          "type": "bytes1"
        },
        {
          "internalType": "bytes",
          "name": "",
          "type": "bytes"
        }
      ],
      "stateMutability": "pure",
      "type": "function"
    },
    {
      "inputs": [
        {
          "components": [
            {
              "components": [
                {
                  "internalType": "address",
                  "name": "publisher",
                  "type": "address"
                },
                {
                  "internalType": "bytes",
                  "name": "data",
                  "type": "bytes"
                },
                {
                  "internalType": "uint256",
                  "name": "maxNonce",
                  "type": "uint256"
                },
                {
                  "internalType": "uint256",
                  "name": "startTime",
                  "type": "uint256"
                },
                {
                  "internalType": "uint256",
                  "name": "endTime",
                  "type": "uint256"
                }
              ],
              "internalType": "struct Blueprint",
              "name": "blueprint",
              "type": "tuple"
            },
            {
              "internalType": "bytes32",
              "name": "blueprintHash",
              "type": "bytes32"
            },
            {
              "internalType": "bytes",
              "name": "signature",
              "type": "bytes"
            }
          ],
          "internalType": "struct SignedBlueprint",
          "name": "agreementBlueprint",
          "type": "tuple"
        }
      ],
      "name": "unwindPosition",
      "outputs": [],
      "stateMutability": "nonpayable",
      "type": "function"
    }
  ],
  "bytecode": "0x6101406040523480156200001257600080fd5b506040518060400160405280600681526020017f706861726f7300000000000000000000000000000000000000000000000000008152506040518060400160405280600581526020017f302e322e300000000000000000000000000000000000000000000000000000008152508181818160008280519060200120905060008280519060200120905060007f8b73c3c69bb8fe3d512ecc4cf759cc79239f7b179b0ffacaa9a75d522b39400f90508260e081815250508161010081815250504660a08181525050620000ec8184846200014760201b60201c565b608081815250503073ffffffffffffffffffffffffffffffffffffffff1660c08173ffffffffffffffffffffffffffffffffffffffff168152505080610120818152505050505050505050505060016002819055506200025b565b6000838383463060405160200162000164959493929190620001fe565b6040516020818303038152906040528051906020012090509392505050565b6000819050919050565b620001988162000183565b82525050565b6000819050919050565b620001b3816200019e565b82525050565b600073ffffffffffffffffffffffffffffffffffffffff82169050919050565b6000620001e682620001b9565b9050919050565b620001f881620001d9565b82525050565b600060a0820190506200021560008301886200018d565b6200022460208301876200018d565b6200023360408301866200018d565b620002426060830185620001a8565b620002516080830184620001ed565b9695505050505050565b60805160a05160c05160e0516101005161012051616703620002ab600039600061334a0152600061338c0152600061336b015260006132a0015260006132f60152600061331f01526167036000f3fe608060405234801561001057600080fd5b506004361061010b5760003560e01c80636a445ba9116100a2578063beaede8811610071578063beaede88146102e0578063cd514e18146102fe578063e7dca7d21461031a578063ee47838814610336578063f698da25146103525761010b565b80636a445ba9146102465780636ccea6521461027657806372735806146102a6578063aa3aa460146102c25761010b565b80631ed64552116100de5780631ed64552146101aa5780632860ff75146101da5780633408e470146101f85780636853de03146102165761010b565b80630a189403146101105780630dec6bed1461012c5780631626ba7e1461014857806319affdf614610178575b600080fd5b61012a600480360381019061012591906137c3565b610370565b005b6101466004803603810190610141919061383f565b6107a2565b005b610162600480360381019061015d91906139ff565b610b06565b60405161016f9190613a96565b60405180910390f35b610192600480360381019061018d9190613ab1565b610b4d565b6040516101a193929190613b77565b60405180910390f35b6101c460048036038101906101bf9190613cef565b610b90565b6040516101d19190613d47565b60405180910390f35b6101e2610c0d565b6040516101ef9190613de1565b60405180910390f35b610200610c46565b60405161020d9190613e12565b60405180910390f35b610230600480360381019061022b9190613e2d565b610c4e565b60405161023d9190613e75565b60405180910390f35b610260600480360381019061025b9190613ebc565b610c6e565b60405161026d9190613f5c565b60405180910390f35b610290600480360381019061028b9190613f7e565b610c9a565b60405161029d9190613e75565b60405180910390f35b6102c060048036038101906102bb9190614089565b610cb0565b005b6102ca610d98565b6040516102d79190613de1565b60405180910390f35b6102e8610dd1565b6040516102f59190613d47565b60405180910390f35b6103186004803603810190610313919061383f565b610df5565b005b610334600480360381019061032f919061383f565b6115cd565b005b610350600480360381019061034b91906140f2565b61178f565b005b61035a611ebb565b6040516103679190613d47565b60405180910390f35b610378611eca565b826103829061416a565b80602001516103948260000151610b90565b146103d4576040517f08c379a00000000000000000000000000000000000000000000000000000000081526004016103cb906141c9565b60405180910390fd5b6103ef81600001516000015182602001518360400151611f17565b61042e576040517f08c379a000000000000000000000000000000000000000000000000000000000815260040161042590614235565b60405180910390fd5b60006104578580600001906104439190614264565b8060200190610452919061428c565b610b4d565b8080601f016020809104026020016040519081016040528093929190818152602001838380828437600081840152601f19601f820116905080830192505050505050509150506000818060200190518101906104b391906146c9565b90506000816101c0015160000151905060008260e00151600001519050600083610100015160000151905060036000856101c00151600001516040516020016104fc919061475a565b60405160208183030381529060405280519060200120815260200190815260200160002060009054906101000a900460ff161561056e576040517f08c379a0000000000000000000000000000000000000000000000000000000008152600401610565906147c1565b60405180910390fd5b8361010001516000015173ffffffffffffffffffffffffffffffffffffffff1663b102bfbe856101000151602001516040518263ffffffff1660e01b81526004016105b99190613f5c565b602060405180830381865afa1580156105d6573d6000803e3d6000fd5b505050506040513d601f19601f820116820180604052508101906105fa91906147e1565b73ffffffffffffffffffffffffffffffffffffffff163373ffffffffffffffffffffffffffffffffffffffff1614806106385750610637846120dd565b5b610677576040517f08c379a000000000000000000000000000000000000000000000000000000000815260040161066e90614880565b60405180910390fd5b610685848484848c8c612334565b7f904c358bc985322bfcccbbb99273cfee6c2cd56dc2d328bbd37b458efa2d9ff189856101c0015160000151336040516106c193929190614b0a565b60405180910390a1600160036000866101c00151600001516040516020016106e9919061475a565b60405160208183030381529060405280519060200120815260200190815260200160002060006101000a81548160ff0219169083151502179055508273ffffffffffffffffffffffffffffffffffffffff166347635dac336040518263ffffffff1660e01b815260040161075d9190614b48565b600060405180830381600087803b15801561077757600080fd5b505af115801561078b573d6000803e3d6000fd5b5050505050505050505061079d612a06565b505050565b6107aa611eca565b806107b49061416a565b80602001516107c68260000151610b90565b14610806576040517f08c379a00000000000000000000000000000000000000000000000000000000081526004016107fd906141c9565b60405180910390fd5b61082181600001516000015182602001518360400151611f17565b610860576040517f08c379a000000000000000000000000000000000000000000000000000000000815260040161085790614235565b60405180910390fd5b60008061088a8480600001906108769190614264565b8060200190610885919061428c565b610b4d565b8080601f016020809104026020016040519081016040528093929190818152602001838380828437600081840152601f19601f82011690508083019250505050505050915091506002808111156108e4576108e3614b63565b5b60f81b7effffffffffffffffffffffffffffffffffffffffffffffffffffffffffffff1916827effffffffffffffffffffffffffffffffffffffffffffffffffffffffffffff19161461096c576040517f08c379a000000000000000000000000000000000000000000000000000000000815260040161096390614c04565b60405180910390fd5b60008180602001905181019061098291906146c9565b905060008161010001516000015173ffffffffffffffffffffffffffffffffffffffff1663b102bfbe836101000151602001516040518263ffffffff1660e01b81526004016109d19190613f5c565b602060405180830381865afa1580156109ee573d6000803e3d6000fd5b505050506040513d601f19601f82011682018060405250810190610a1291906147e1565b73ffffffffffffffffffffffffffffffffffffffff163373ffffffffffffffffffffffffffffffffffffffff1614905080610a82576040517f08c379a0000000000000000000000000000000000000000000000000000000008152600401610a7990614c96565b60405180910390fd5b816101c001516000015173ffffffffffffffffffffffffffffffffffffffff16638f9acff3836040518263ffffffff1660e01b8152600401610ac49190614ee7565b600060405180830381600087803b158015610ade57600080fd5b505af1158015610af2573d6000803e3d6000fd5b505050505050505050610b03612a06565b50565b600080600084815260200190815260200160002060009054906101000a900460ff1615610b3c57631626ba7e60e01b9050610b47565b63ffffffff60e01b90505b92915050565b600036600084846000818110610b6657610b65614f09565b5b9050013560f81c60f81b85856001908092610b8393929190614f42565b9250925092509250925092565b6000610c067fabb38f99128910356202f56a25bd1c0cbc076ddee0387a6ff4671f05fabedcd18360000151846020015180519060200120856040015186606001518760800151604051602001610beb96959493929190614f7d565b60405160208183030381529060405280519060200120612a10565b9050919050565b6040518060400160405280600681526020017f706861726f73000000000000000000000000000000000000000000000000000081525081565b600046905090565b60036020528060005260406000206000915054906101000a900460ff1681565b60608282604051602001610c8392919061503b565b604051602081830303815290604052905092915050565b6000610ca7848484611f17565b90509392505050565b808060200151610cc38260000151610b90565b14610d03576040517f08c379a0000000000000000000000000000000000000000000000000000000008152600401610cfa906141c9565b60405180910390fd5b610d1e81600001516000015182602001518360400151611f17565b610d5d576040517f08c379a0000000000000000000000000000000000000000000000000000000008152600401610d5490614235565b60405180910390fd5b7fe88b49ce78855e321e33f58c41af6039301a3ff5454da2b09ddb1be1d9a525d482604051610d8c9190615130565b60405180910390a15050565b6040518060400160405280600581526020017f302e322e3000000000000000000000000000000000000000000000000000000081525081565b7fabb38f99128910356202f56a25bd1c0cbc076ddee0387a6ff4671f05fabedcd181565b610dfd611eca565b80610e079061416a565b8060200151610e198260000151610b90565b14610e59576040517f08c379a0000000000000000000000000000000000000000000000000000000008152600401610e50906141c9565b60405180910390fd5b610e7481600001516000015182602001518360400151611f17565b610eb3576040517f08c379a0000000000000000000000000000000000000000000000000000000008152600401610eaa90614235565b60405180910390fd5b600080610edd848060000190610ec99190614264565b8060200190610ed8919061428c565b610b4d565b8080601f016020809104026020016040519081016040528093929190818152602001838380828437600081840152601f19601f8201169050808301925050505050505091509150600280811115610f3757610f36614b63565b5b60f81b7effffffffffffffffffffffffffffffffffffffffffffffffffffffffffffff1916827effffffffffffffffffffffffffffffffffffffffffffffffffffffffffffff191614610fbf576040517f08c379a0000000000000000000000000000000000000000000000000000000008152600401610fb69061519e565b60405180910390fd5b600081806020019051810190610fd591906146c9565b905060008161010001516000015173ffffffffffffffffffffffffffffffffffffffff1663b102bfbe836101000151602001516040518263ffffffff1660e01b81526004016110249190613f5c565b602060405180830381865afa158015611041573d6000803e3d6000fd5b505050506040513d601f19601f8201168201806040525081019061106591906147e1565b73ffffffffffffffffffffffffffffffffffffffff163373ffffffffffffffffffffffffffffffffffffffff16149050806110d5576040517f08c379a00000000000000000000000000000000000000000000000000000000081526004016110cc90615230565b60405180910390fd5b6000826101c0015160000151905060008360e0015160000151905060008273ffffffffffffffffffffffffffffffffffffffff1663edd9e4b5866040518263ffffffff1660e01b815260040161112b9190614ee7565b6020604051808303816000875af115801561114a573d6000803e3d6000fd5b505050506040513d601f19601f8201168201806040525081019061116e9190615250565b905060008561012001516000015173ffffffffffffffffffffffffffffffffffffffff1663458a83c3876040518263ffffffff1660e01b81526004016111b49190614ee7565b6020604051808303816000875af11580156111d3573d6000803e3d6000fd5b505050506040513d601f19601f820116820180604052508101906111f79190615250565b905060008661016001516000015173ffffffffffffffffffffffffffffffffffffffff16632e820849886101600151602001518961020001516040518363ffffffff1660e01b815260040161124d92919061527d565b6020604051808303816000875af115801561126c573d6000803e3d6000fd5b505050506040513d601f19601f820116820180604052508101906112909190615250565b905060008473ffffffffffffffffffffffffffffffffffffffff1663f8ec009689604001518a60e00151602001518b61020001516040518463ffffffff1660e01b81526004016112e2939291906152b4565b602060405180830381865afa1580156112ff573d6000803e3d6000fd5b505050506040513d601f19601f820116820180604052508101906113239190615250565b9050600082670de0b6b3a76400008561133c919061532f565b61134691906153a0565b896000015161135591906153d1565b90508673ffffffffffffffffffffffffffffffffffffffff16636c3fc8318a836040518363ffffffff1660e01b8152600401611392929190615405565b600060405180830381600087803b1580156113ac57600080fd5b505af11580156113c0573d6000803e3d6000fd5b5050505060008673ffffffffffffffffffffffffffffffffffffffff1663f8ec00968b604001518c60e00151602001518d61020001516040518463ffffffff1660e01b8152600401611414939291906152b4565b602060405180830381865afa158015611431573d6000803e3d6000fd5b505050506040513d601f19601f820116820180604052508101906114559190615250565b90508183826114649190615435565b10156114a5576040517f08c379a000000000000000000000000000000000000000000000000000000000815260040161149c906154b5565b60405180910390fd5b6001600360008c6101c00151600001516040516020016114c5919061475a565b60405160208183030381529060405280519060200120815260200190815260200160002060006101000a81548160ff0219169083151502179055507f40246ab0a03d0d296b9e8cee5ae45cd5f94640ea0834ea9a8f0cd50e445e77e58e8b6101c00151600001513389888a604051611542969594939291906154d5565b60405180910390a18773ffffffffffffffffffffffffffffffffffffffff166347635dac336040518263ffffffff1660e01b81526004016115839190614b48565b600060405180830381600087803b15801561159d57600080fd5b505af11580156115b1573d6000803e3d6000fd5b50505050505050505050505050505050506115ca612a06565b50565b806115d79061416a565b80602001516115e98260000151610b90565b14611629576040517f08c379a0000000000000000000000000000000000000000000000000000000008152600401611620906141c9565b60405180910390fd5b61164481600001516000015182602001518360400151611f17565b611683576040517f08c379a000000000000000000000000000000000000000000000000000000000815260040161167a90614235565b60405180910390fd5b818080600001906116949190614264565b60000160208101906116a6919061553d565b73ffffffffffffffffffffffffffffffffffffffff163373ffffffffffffffffffffffffffffffffffffffff1614611713576040517f08c379a000000000000000000000000000000000000000000000000000000000815260040161170a906155b6565b60405180910390fd5b7fffffffffffffffffffffffffffffffffffffffffffffffffffffffffffffffff6001600085602001358152602001908152602001600020819055507fc954dbcaf38dbaf01d8ac7f2d37afc45123081ade8ccf1efd7f23db2cfb62cb583602001356040516117829190613d47565b60405180910390a1505050565b611797611eca565b806117a19061416a565b80602001516117b38260000151610b90565b146117f3576040517f08c379a00000000000000000000000000000000000000000000000000000000081526004016117ea906141c9565b60405180910390fd5b61180e81600001516000015182602001518360400151611f17565b61184d576040517f08c379a000000000000000000000000000000000000000000000000000000000815260040161184490614235565b60405180910390fd5b6000806118778480600001906118639190614264565b8060200190611872919061428c565b610b4d565b8080601f016020809104026020016040519081016040528093929190818152602001838380828437600081840152601f19601f8201169050808301925050505050505091509150600160028111156118d2576118d1614b63565b5b60ff168260f81c60ff161461191c576040517f08c379a000000000000000000000000000000000000000000000000000000000815260040161191390615622565b60405180910390fd5b84806000019061192c9190615642565b600001602081019061193e919061553d565b73ffffffffffffffffffffffffffffffffffffffff1663b102bfbe8680600001906119699190615642565b8060200190611978919061428c565b6040518363ffffffff1660e01b815260040161199592919061566a565b602060405180830381865afa1580156119b2573d6000803e3d6000fd5b505050506040513d601f19601f820116820180604052508101906119d691906147e1565b73ffffffffffffffffffffffffffffffffffffffff163373ffffffffffffffffffffffffffffffffffffffff1614611a43576040517f08c379a0000000000000000000000000000000000000000000000000000000008152600401611a3a906156da565b60405180910390fd5b600081806020019051810190611a599190615d62565b90508060e001516000015173ffffffffffffffffffffffffffffffffffffffff1663b102bfbe8260e00151602001516040518263ffffffff1660e01b8152600401611aa49190613f5c565b602060405180830381865afa158015611ac1573d6000803e3d6000fd5b505050506040513d601f19601f82011682018060405250810190611ae591906147e1565b73ffffffffffffffffffffffffffffffffffffffff16858060000190611b0b9190614264565b6000016020810190611b1d919061553d565b73ffffffffffffffffffffffffffffffffffffffff1614611b73576040517f08c379a0000000000000000000000000000000000000000000000000000000008152600401611b6a90615e1d565b60405180910390fd5b60008160800151511115611c12573373ffffffffffffffffffffffffffffffffffffffff168160800151876040013581518110611bb357611bb2614f09565b5b602002602001015173ffffffffffffffffffffffffffffffffffffffff1614611c11576040517f08c379a0000000000000000000000000000000000000000000000000000000008152600401611c0890615e89565b60405180910390fd5b5b611c1c8682612a2a565b6000611c288783612b4c565b90506000670de0b6b3a76400008261016001516000015173ffffffffffffffffffffffffffffffffffffffff1663f09f4079846101600151602001518561020001516040518363ffffffff1660e01b8152600401611c8792919061527d565b6020604051808303816000875af1158015611ca6573d6000803e3d6000fd5b505050506040513d601f19601f82011682018060405250810190611cca9190615250565b8360000151611cd9919061532f565b611ce391906153a0565b90506000670de0b6b3a76400008361018001516000015173ffffffffffffffffffffffffffffffffffffffff1663f09f4079856101800151602001518661020001516040518363ffffffff1660e01b8152600401611d4292919061527d565b6020604051808303816000875af1158015611d61573d6000803e3d6000fd5b505050506040513d601f19601f82011682018060405250810190611d859190615250565b8460200151611d94919061532f565b611d9e91906153a0565b905060008460a0015115611ddd5782670de0b6b3a76400008385611dc291906153d1565b611dcc919061532f565b611dd691906153a0565b9050611dff565b82670de0b6b3a764000083611df2919061532f565b611dfc91906153a0565b90505b8360800151811015611e46576040517f08c379a0000000000000000000000000000000000000000000000000000000008152600401611e3d90615ef5565b60405180910390fd5b42846101e0018181525050611e5a84612e3c565b6000611e65856131b8565b90507f21a6001862375a91bbf0eff278ae1eaee77323f67273ed674a16f9607888696f818b6020013533604051611e9e93929190615f15565b60405180910390a1505050505050505050611eb7612a06565b5050565b6000611ec561329c565b905090565b6002805403611f0e576040517f08c379a0000000000000000000000000000000000000000000000000000000008152600401611f0590615f9f565b60405180910390fd5b60028081905550565b6000806000611f2685856133b6565b9150915060006004811115611f3e57611f3d614b63565b5b816004811115611f5157611f50614b63565b5b148015611f8957508573ffffffffffffffffffffffffffffffffffffffff168273ffffffffffffffffffffffffffffffffffffffff16145b15611f99576001925050506120d6565b6000808773ffffffffffffffffffffffffffffffffffffffff16631626ba7e60e01b8888604051602401611fce929190615fbf565b604051602081830303815290604052907bffffffffffffffffffffffffffffffffffffffffffffffffffffffff19166020820180517bffffffffffffffffffffffffffffffffffffffffffffffffffffffff83818316178352505050506040516120389190615fef565b600060405180830381855afa9150503d8060008114612073576040519150601f19603f3d011682016040523d82523d6000602084013e612078565b606091505b509150915081801561208b575060208151145b80156120cf5750631626ba7e60e01b7bffffffffffffffffffffffffffffffffffffffffffffffffffffffff1916818060200190518101906120cd919061601b565b145b9450505050505b9392505050565b600080826101c001516000015190508260a00151836101e0015161210191906153d1565b42111561211257600191505061232f565b60008173ffffffffffffffffffffffffffffffffffffffff1663edd9e4b5856040518263ffffffff1660e01b815260040161214d9190614ee7565b6020604051808303816000875af115801561216c573d6000803e3d6000fd5b505050506040513d601f19601f820116820180604052508101906121909190615250565b905060008461012001516000015173ffffffffffffffffffffffffffffffffffffffff1663458a83c3866040518263ffffffff1660e01b81526004016121d69190614ee7565b6020604051808303816000875af11580156121f5573d6000803e3d6000fd5b505050506040513d601f19601f820116820180604052508101906122199190615250565b905060008561016001516000015173ffffffffffffffffffffffffffffffffffffffff16632e820849876101600151602001518861020001516040518363ffffffff1660e01b815260040161226f92919061527d565b6020604051808303816000875af115801561228e573d6000803e3d6000fd5b505050506040513d601f19601f820116820180604052508101906122b29190615250565b9050600082670de0b6b3a76400008389600001516122d0919061532f565b6122da91906153a0565b6122e491906153d1565b9050600081670de0b6b3a7640000866122fd919061532f565b61230791906153a0565b90508760800151811015612324576001965050505050505061232f565b600096505050505050505b919050565b61233c613584565b8661016001516000015173ffffffffffffffffffffffffffffffffffffffff16632e820849886101600151602001518961020001516040518363ffffffff1660e01b815260040161238e92919061527d565b6020604051808303816000875af11580156123ad573d6000803e3d6000fd5b505050506040513d601f19601f820116820180604052508101906123d19190615250565b8160000181815250508661018001516000015173ffffffffffffffffffffffffffffffffffffffff16632e820849886101800151602001518961020001516040518363ffffffff1660e01b815260040161242c92919061527d565b6020604051808303816000875af115801561244b573d6000803e3d6000fd5b505050506040513d601f19601f8201168201806040525081019061246f9190615250565b8160200181815250508060000151670de0b6b3a76400008861012001516000015173ffffffffffffffffffffffffffffffffffffffff1663458a83c38a6040518263ffffffff1660e01b81526004016124c89190614ee7565b6020604051808303816000875af11580156124e7573d6000803e3d6000fd5b505050506040513d601f19601f8201168201806040525081019061250b9190615250565b612515919061532f565b61251f91906153a0565b876000015161252e91906153d1565b8160400181815250508661014001516000015173ffffffffffffffffffffffffffffffffffffffff1663020bd279886040518263ffffffff1660e01b81526004016125799190614ee7565b6020604051808303816000875af1158015612598573d6000803e3d6000fd5b505050506040513d601f19601f820116820180604052508101906125bc9190615250565b8160600181815250508060200151670de0b6b3a7640000826060015183604001518973ffffffffffffffffffffffffffffffffffffffff1663edd9e4b58c6040518263ffffffff1660e01b81526004016126169190614ee7565b6020604051808303816000875af1158015612635573d6000803e3d6000fd5b505050506040513d601f19601f820116820180604052508101906126599190615250565b6126639190615435565b61266d9190615435565b612677919061532f565b61268191906153a0565b8160800181815250508473ffffffffffffffffffffffffffffffffffffffff1663f8ec009688604001518960e00151602001518a61020001516040518463ffffffff1660e01b81526004016126d8939291906152b4565b602060405180830381865afa1580156126f5573d6000803e3d6000fd5b505050506040513d601f19601f820116820180604052508101906127199190615250565b8160a00181815250508373ffffffffffffffffffffffffffffffffffffffff1663f8ec00968860600151896101000151602001518a61020001516040518463ffffffff1660e01b8152600401612771939291906152b4565b602060405180830381865afa15801561278e573d6000803e3d6000fd5b505050506040513d601f19601f820116820180604052508101906127b29190615250565b8160c00181815250508573ffffffffffffffffffffffffffffffffffffffff1663be52bce784846040518363ffffffff1660e01b81526004016127f692919061566a565b600060405180830381600087803b15801561281057600080fd5b505af1158015612824573d6000803e3d6000fd5b5050505060008573ffffffffffffffffffffffffffffffffffffffff1663f8ec009689604001518a60e00151602001518b61020001516040518463ffffffff1660e01b8152600401612878939291906152b4565b602060405180830381865afa158015612895573d6000803e3d6000fd5b505050506040513d601f19601f820116820180604052508101906128b99190615250565b905060008573ffffffffffffffffffffffffffffffffffffffff1663f8ec00968a606001518b6101000151602001518c61020001516040518463ffffffff1660e01b815260040161290c939291906152b4565b602060405180830381865afa158015612929573d6000803e3d6000fd5b505050506040513d601f19601f8201168201806040525081019061294d9190615250565b905082604001518360a00151836129649190615435565b10156129a5576040517f08c379a000000000000000000000000000000000000000000000000000000000815260040161299c906160ba565b60405180910390fd5b82608001518360c00151826129ba9190615435565b10156129fb576040517f08c379a00000000000000000000000000000000000000000000000000000000081526004016129f29061614c565b60405180910390fd5b505050505050505050565b6001600281905550565b6000612a23612a1d61329c565b83613407565b9050919050565b806101a00151612a8c578160e0016020810190612a479190616181565b15612a87576040517f08c379a0000000000000000000000000000000000000000000000000000000008152600401612a7e906161fa565b60405180910390fd5b612adf565b8160e0016020810190612a9f9190616181565b612ade576040517f08c379a0000000000000000000000000000000000000000000000000000000008152600401612ad590616266565b60405180910390fd5b5b8060000151826060013581518110612afa57612af9614f09565b5b602002602001015182602001351015612b48576040517f08c379a0000000000000000000000000000000000000000000000000000000008152600401612b3f906162d2565b60405180910390fd5b5050565b612b546135c1565b8160c001518160a00181815250508161010001518161012001819052508161012001518161014001819052508160200151836060013581518110612b9b57612b9a614f09565b5b60200260200101518160400181905250816101400151836060013581518110612bc757612bc6614f09565b5b60200260200101518161016001819052508160400151836080013581518110612bf357612bf2614f09565b5b60200260200101518160600181905250816101600151836080013581518110612c1f57612c1e614f09565b5b60200260200101518161018001819052508160600151836080013581518110612c4b57612c4a614f09565b5b60200260200101518160800181815250508161018001518360a0013581518110612c7857612c77614f09565b5b6020026020010151816101a0019073ffffffffffffffffffffffffffffffffffffffff16908173ffffffffffffffffffffffffffffffffffffffff1681525050826020013581600001818152505082806101000190612cd791906162f2565b60000135816020018181525050828060c00190612cf4919061428c565b8080601f016020809104026020016040519081016040528093929190818152602001838380828437600081840152601f19601f82011690508083019250505050505050816102000181905250816101a0015115612def578160e001518160e00181905250828060000190612d689190615642565b612d7190616386565b81610100018190525082806101000190612d8b91906162f2565b8060200190612d9a919061428c565b8080601f016020809104026020016040519081016040528093929190818152602001838380828437600081840152601f19601f82011690508083019250505050505050816101c0015160200181905250612e36565b828060000190612dff9190615642565b612e0890616386565b8160e001819052508160e00151816101000181905250816101c0015160200151816101c00151602001819052505b92915050565b600080826101a0015173ffffffffffffffffffffffffffffffffffffffff166040516024016040516020818303038152906040527f64f2d4b9000000000000000000000000000000000000000000000000000000007bffffffffffffffffffffffffffffffffffffffffffffffffffffffff19166020820180517bffffffffffffffffffffffffffffffffffffffffffffffffffffffff8381831617835250505050604051612eeb9190615fef565b6000604051808303816000865af19150503d8060008114612f28576040519150601f19603f3d011682016040523d82523d6000602084013e612f2d565b606091505b509150915081612f72576040517f08c379a0000000000000000000000000000000000000000000000000000000008152600401612f699061640b565b60405180910390fd5b80806020019051810190612f869190616469565b836101c001516000019073ffffffffffffffffffffffffffffffffffffffff16908173ffffffffffffffffffffffffffffffffffffffff16815250508260e001516000015173ffffffffffffffffffffffffffffffffffffffff1663a9d7d6c8846101c0015160000151856040015186600001518760e00151602001518861020001516040518663ffffffff1660e01b8152600401613029959493929190616496565b600060405180830381600087803b15801561304357600080fd5b505af1158015613057573d6000803e3d6000fd5b505050508261010001516000015173ffffffffffffffffffffffffffffffffffffffff1663a9d7d6c8846101c001516000015185606001518660200151876101000151602001518861020001516040518663ffffffff1660e01b81526004016130c4959493929190616496565b600060405180830381600087803b1580156130de57600080fd5b505af11580156130f2573d6000803e3d6000fd5b50505050826101c001516000015173ffffffffffffffffffffffffffffffffffffffff16635aa56409846040518263ffffffff1660e01b81526004016131389190614ee7565b600060405180830381600087803b15801561315257600080fd5b505af1158015613166573d6000803e3d6000fd5b50505050613173836120dd565b156131b3576040517f08c379a00000000000000000000000000000000000000000000000000000000081526004016131aa9061654a565b60405180910390fd5b505050565b6131c0613687565b3081600001516000019073ffffffffffffffffffffffffffffffffffffffff16908173ffffffffffffffffffffffffffffffffffffffff168152505061323a60028081111561321257613211614b63565b5b60f81b836040516020016132269190614ee7565b604051602081830303815290604052610c6e565b8160000151602001819052507fffffffffffffffffffffffffffffffffffffffffffffffffffffffffffffffff816000015160800181815250506132818160000151610b90565b816020018181525050613297816020015161343a565b919050565b60007f000000000000000000000000000000000000000000000000000000000000000073ffffffffffffffffffffffffffffffffffffffff163073ffffffffffffffffffffffffffffffffffffffff1614801561331857507f000000000000000000000000000000000000000000000000000000000000000046145b15613345577f000000000000000000000000000000000000000000000000000000000000000090506133b3565b6133b07f00000000000000000000000000000000000000000000000000000000000000007f00000000000000000000000000000000000000000000000000000000000000007f0000000000000000000000000000000000000000000000000000000000000000613468565b90505b90565b60008060418351036133f75760008060006020860151925060408601519150606086015160001a90506133eb878285856134a2565b94509450505050613400565b60006002915091505b9250929050565b6000828260405160200161341c9291906165e2565b60405160208183030381529060405280519060200120905092915050565b600160008083815260200190815260200160002060006101000a81548160ff02191690831515021790555050565b60008383834630604051602001613483959493929190616619565b6040516020818303038152906040528051906020012090509392505050565b6000807f7fffffffffffffffffffffffffffffff5d576e7357a4501ddfe92f46681b20a08360001c11156134dd57600060039150915061357b565b6000600187878787604051600081526020016040526040516135029493929190616688565b6020604051602081039080840390855afa158015613524573d6000803e3d6000fd5b505050602060405103519050600073ffffffffffffffffffffffffffffffffffffffff168173ffffffffffffffffffffffffffffffffffffffff16036135725760006001925092505061357b565b80600092509250505b94509492505050565b6040518060e00160405280600081526020016000815260200160008152602001600081526020016000815260200160008152602001600081525090565b6040518061022001604052806000815260200160008152602001606081526020016060815260200160008152602001600081526020016000151581526020016136086136b1565b81526020016136156136b1565b81526020016136226136b1565b815260200161362f6136b1565b815260200161363c6136b1565b81526020016136496136b1565b8152602001600073ffffffffffffffffffffffffffffffffffffffff1681526020016136736136b1565b815260200160008152602001606081525090565b604051806060016040528061369a6136e1565b815260200160008019168152602001606081525090565b6040518060400160405280600073ffffffffffffffffffffffffffffffffffffffff168152602001606081525090565b6040518060a00160405280600073ffffffffffffffffffffffffffffffffffffffff168152602001606081526020016000815260200160008152602001600081525090565b6000604051905090565b600080fd5b600080fd5b600080fd5b6000606082840312156137555761375461373a565b5b81905092915050565b600080fd5b600080fd5b600080fd5b60008083601f8401126137835761378261375e565b5b8235905067ffffffffffffffff8111156137a05761379f613763565b5b6020830191508360018202830111156137bc576137bb613768565b5b9250929050565b6000806000604084860312156137dc576137db613730565b5b600084013567ffffffffffffffff8111156137fa576137f9613735565b5b6138068682870161373f565b935050602084013567ffffffffffffffff81111561382757613826613735565b5b6138338682870161376d565b92509250509250925092565b60006020828403121561385557613854613730565b5b600082013567ffffffffffffffff81111561387357613872613735565b5b61387f8482850161373f565b91505092915050565b6000819050919050565b61389b81613888565b81146138a657600080fd5b50565b6000813590506138b881613892565b92915050565b600080fd5b6000601f19601f8301169050919050565b7f4e487b7100000000000000000000000000000000000000000000000000000000600052604160045260246000fd5b61390c826138c3565b810181811067ffffffffffffffff8211171561392b5761392a6138d4565b5b80604052505050565b600061393e613726565b905061394a8282613903565b919050565b600067ffffffffffffffff82111561396a576139696138d4565b5b613973826138c3565b9050602081019050919050565b82818337600083830152505050565b60006139a261399d8461394f565b613934565b9050828152602081018484840111156139be576139bd6138be565b5b6139c9848285613980565b509392505050565b600082601f8301126139e6576139e561375e565b5b81356139f684826020860161398f565b91505092915050565b60008060408385031215613a1657613a15613730565b5b6000613a24858286016138a9565b925050602083013567ffffffffffffffff811115613a4557613a44613735565b5b613a51858286016139d1565b9150509250929050565b60007fffffffff0000000000000000000000000000000000000000000000000000000082169050919050565b613a9081613a5b565b82525050565b6000602082019050613aab6000830184613a87565b92915050565b60008060208385031215613ac857613ac7613730565b5b600083013567ffffffffffffffff811115613ae657613ae5613735565b5b613af28582860161376d565b92509250509250929050565b60007fff0000000000000000000000000000000000000000000000000000000000000082169050919050565b613b3381613afe565b82525050565b600082825260208201905092915050565b6000613b568385613b39565b9350613b63838584613980565b613b6c836138c3565b840190509392505050565b6000604082019050613b8c6000830186613b2a565b8181036020830152613b9f818486613b4a565b9050949350505050565b600080fd5b600080fd5b600073ffffffffffffffffffffffffffffffffffffffff82169050919050565b6000613bde82613bb3565b9050919050565b613bee81613bd3565b8114613bf957600080fd5b50565b600081359050613c0b81613be5565b92915050565b6000819050919050565b613c2481613c11565b8114613c2f57600080fd5b50565b600081359050613c4181613c1b565b92915050565b600060a08284031215613c5d57613c5c613ba9565b5b613c6760a0613934565b90506000613c7784828501613bfc565b600083015250602082013567ffffffffffffffff811115613c9b57613c9a613bae565b5b613ca7848285016139d1565b6020830152506040613cbb84828501613c32565b6040830152506060613ccf84828501613c32565b6060830152506080613ce384828501613c32565b60808301525092915050565b600060208284031215613d0557613d04613730565b5b600082013567ffffffffffffffff811115613d2357613d22613735565b5b613d2f84828501613c47565b91505092915050565b613d4181613888565b82525050565b6000602082019050613d5c6000830184613d38565b92915050565b600081519050919050565b600082825260208201905092915050565b60005b83811015613d9c578082015181840152602081019050613d81565b60008484015250505050565b6000613db382613d62565b613dbd8185613d6d565b9350613dcd818560208601613d7e565b613dd6816138c3565b840191505092915050565b60006020820190508181036000830152613dfb8184613da8565b905092915050565b613e0c81613c11565b82525050565b6000602082019050613e276000830184613e03565b92915050565b600060208284031215613e4357613e42613730565b5b6000613e51848285016138a9565b91505092915050565b60008115159050919050565b613e6f81613e5a565b82525050565b6000602082019050613e8a6000830184613e66565b92915050565b613e9981613afe565b8114613ea457600080fd5b50565b600081359050613eb681613e90565b92915050565b60008060408385031215613ed357613ed2613730565b5b6000613ee185828601613ea7565b925050602083013567ffffffffffffffff811115613f0257613f01613735565b5b613f0e858286016139d1565b9150509250929050565b600081519050919050565b6000613f2e82613f18565b613f388185613b39565b9350613f48818560208601613d7e565b613f51816138c3565b840191505092915050565b60006020820190508181036000830152613f768184613f23565b905092915050565b600080600060608486031215613f9757613f96613730565b5b6000613fa586828701613bfc565b9350506020613fb6868287016138a9565b925050604084013567ffffffffffffffff811115613fd757613fd6613735565b5b613fe3868287016139d1565b9150509250925092565b60006060828403121561400357614002613ba9565b5b61400d6060613934565b9050600082013567ffffffffffffffff81111561402d5761402c613bae565b5b61403984828501613c47565b600083015250602061404d848285016138a9565b602083015250604082013567ffffffffffffffff81111561407157614070613bae565b5b61407d848285016139d1565b60408301525092915050565b60006020828403121561409f5761409e613730565b5b600082013567ffffffffffffffff8111156140bd576140bc613735565b5b6140c984828501613fed565b91505092915050565b600061012082840312156140e9576140e861373a565b5b81905092915050565b6000806040838503121561410957614108613730565b5b600083013567ffffffffffffffff81111561412757614126613735565b5b614133858286016140d2565b925050602083013567ffffffffffffffff81111561415457614153613735565b5b6141608582860161373f565b9150509250929050565b60006141763683613fed565b9050919050565b7f54726163746f723a20696e76616c696420686173680000000000000000000000600082015250565b60006141b3601583613d6d565b91506141be8261417d565b602082019050919050565b600060208201905081810360008301526141e2816141a6565b9050919050565b7f54726163746f723a20696e76616c6964207369676e6174757265000000000000600082015250565b600061421f601a83613d6d565b915061422a826141e9565b602082019050919050565b6000602082019050818103600083015261424e81614212565b9050919050565b600080fd5b600080fd5b600080fd5b60008235600160a0038336030381126142805761427f614255565b5b80830191505092915050565b600080833560016020038436030381126142a9576142a8614255565b5b80840192508235915067ffffffffffffffff8211156142cb576142ca61425a565b5b6020830192506001820236038313156142e7576142e661425f565b5b509250929050565b6000815190506142fe81613c1b565b92915050565b60006143176143128461394f565b613934565b905082815260208101848484011115614333576143326138be565b5b61433e848285613d7e565b509392505050565b600082601f83011261435b5761435a61375e565b5b815161436b848260208601614304565b91505092915050565b61437d81613e5a565b811461438857600080fd5b50565b60008151905061439a81614374565b92915050565b6000815190506143af81613be5565b92915050565b6000604082840312156143cb576143ca613ba9565b5b6143d56040613934565b905060006143e5848285016143a0565b600083015250602082015167ffffffffffffffff81111561440957614408613bae565b5b61441584828501614346565b60208301525092915050565b6000610220828403121561443857614437613ba9565b5b614443610220613934565b90506000614453848285016142ef565b6000830152506020614467848285016142ef565b602083015250604082015167ffffffffffffffff81111561448b5761448a613bae565b5b61449784828501614346565b604083015250606082015167ffffffffffffffff8111156144bb576144ba613bae565b5b6144c784828501614346565b60608301525060806144db848285016142ef565b60808301525060a06144ef848285016142ef565b60a08301525060c06145038482850161438b565b60c08301525060e082015167ffffffffffffffff81111561452757614526613bae565b5b614533848285016143b5565b60e08301525061010082015167ffffffffffffffff81111561455857614557613bae565b5b614564848285016143b5565b6101008301525061012082015167ffffffffffffffff81111561458a57614589613bae565b5b614596848285016143b5565b6101208301525061014082015167ffffffffffffffff8111156145bc576145bb613bae565b5b6145c8848285016143b5565b6101408301525061016082015167ffffffffffffffff8111156145ee576145ed613bae565b5b6145fa848285016143b5565b6101608301525061018082015167ffffffffffffffff8111156146205761461f613bae565b5b61462c848285016143b5565b610180830152506101a0614642848285016143a0565b6101a0830152506101c082015167ffffffffffffffff81111561466857614667613bae565b5b614674848285016143b5565b6101c0830152506101e061468a848285016142ef565b6101e08301525061020082015167ffffffffffffffff8111156146b0576146af613bae565b5b6146bc84828501614346565b6102008301525092915050565b6000602082840312156146df576146de613730565b5b600082015167ffffffffffffffff8111156146fd576146fc613735565b5b61470984828501614421565b91505092915050565b60008160601b9050919050565b600061472a82614712565b9050919050565b600061473c8261471f565b9050919050565b61475461474f82613bd3565b614731565b82525050565b60006147668284614743565b60148201915081905092915050565b7f4c6f616e20616c726561647920636c6f7365642e000000000000000000000000600082015250565b60006147ab601483613d6d565b91506147b682614775565b602082019050919050565b600060208201905081810360008301526147da8161479e565b9050919050565b6000602082840312156147f7576147f6613730565b5b6000614805848285016143a0565b91505092915050565b7f4e6f7420626f72726f77657220616e64206c6f616e206973206e6f74206c697160008201527f756964617461626c650000000000000000000000000000000000000000000000602082015250565b600061486a602983613d6d565b91506148758261480e565b604082019050919050565b600060208201905081810360008301526148998161485d565b9050919050565b600080fd5b60008235600160a0038336030381126148c1576148c06148a0565b5b82810191505092915050565b60006148dc6020840184613bfc565b905092915050565b6148ed81613bd3565b82525050565b600080fd5b600080fd5b6000808335600160200384360303811261491a576149196148a0565b5b83810192508235915060208301925067ffffffffffffffff821115614942576149416148f3565b5b600182023603831315614958576149576148f8565b5b509250929050565b600082825260208201905092915050565b600061497d8385614960565b935061498a838584613980565b614993836138c3565b840190509392505050565b60006149ad6020840184613c32565b905092915050565b6149be81613c11565b82525050565b600060a083016149d760008401846148cd565b6149e460008601826148e4565b506149f260208401846148fd565b8583036020870152614a05838284614971565b92505050614a16604084018461499e565b614a2360408601826149b5565b50614a31606084018461499e565b614a3e60608601826149b5565b50614a4c608084018461499e565b614a5960808601826149b5565b508091505092915050565b6000614a7360208401846138a9565b905092915050565b614a8481613888565b82525050565b600060608301614a9d60008401846148a5565b8482036000860152614aaf82826149c4565b915050614abf6020840184614a64565b614acc6020860182614a7b565b50614ada60408401846148fd565b8583036040870152614aed838284614971565b925050508091505092915050565b614b0481613bd3565b82525050565b60006060820190508181036000830152614b248186614a8a565b9050614b336020830185614afb565b614b406040830184614afb565b949350505050565b6000602082019050614b5d6000830184614afb565b92915050565b7f4e487b7100000000000000000000000000000000000000000000000000000000600052602160045260246000fd5b7f756e77696e64506f736974696f6e3a20696e76616c696420646174612074797060008201527f6500000000000000000000000000000000000000000000000000000000000000602082015250565b6000614bee602183613d6d565b9150614bf982614b92565b604082019050919050565b60006020820190508181036000830152614c1d81614be1565b9050919050565b7f6572726f723a2063616c6c6572206973206e6f742074686520626f72726f776560008201527f7200000000000000000000000000000000000000000000000000000000000000602082015250565b6000614c80602183613d6d565b9150614c8b82614c24565b604082019050919050565b60006020820190508181036000830152614caf81614c73565b9050919050565b6000614cc182613f18565b614ccb8185614960565b9350614cdb818560208601613d7e565b614ce4816138c3565b840191505092915050565b614cf881613e5a565b82525050565b6000604083016000830151614d1660008601826148e4565b5060208301518482036020860152614d2e8282614cb6565b9150508091505092915050565b600061022083016000830151614d5460008601826149b5565b506020830151614d6760208601826149b5565b5060408301518482036040860152614d7f8282614cb6565b91505060608301518482036060860152614d998282614cb6565b9150506080830151614dae60808601826149b5565b5060a0830151614dc160a08601826149b5565b5060c0830151614dd460c0860182614cef565b5060e083015184820360e0860152614dec8282614cfe565b915050610100830151848203610100860152614e088282614cfe565b915050610120830151848203610120860152614e248282614cfe565b915050610140830151848203610140860152614e408282614cfe565b915050610160830151848203610160860152614e5c8282614cfe565b915050610180830151848203610180860152614e788282614cfe565b9150506101a0830151614e8f6101a08601826148e4565b506101c08301518482036101c0860152614ea98282614cfe565b9150506101e0830151614ec06101e08601826149b5565b50610200830151848203610200860152614eda8282614cb6565b9150508091505092915050565b60006020820190508181036000830152614f018184614d3b565b905092915050565b7f4e487b7100000000000000000000000000000000000000000000000000000000600052603260045260246000fd5b600080fd5b600080fd5b60008085851115614f5657614f55614f38565b5b83861115614f6757614f66614f3d565b5b6001850283019150848603905094509492505050565b600060c082019050614f926000830189613d38565b614f9f6020830188614afb565b614fac6040830187613d38565b614fb96060830186613e03565b614fc66080830185613e03565b614fd360a0830184613e03565b979650505050505050565b6000819050919050565b614ff9614ff482613afe565b614fde565b82525050565b600081905092915050565b600061501582613f18565b61501f8185614fff565b935061502f818560208601613d7e565b80840191505092915050565b60006150478285614fe8565b600182019150615057828461500a565b91508190509392505050565b600060a08301600083015161507b60008601826148e4565b50602083015184820360208601526150938282614cb6565b91505060408301516150a860408601826149b5565b5060608301516150bb60608601826149b5565b5060808301516150ce60808601826149b5565b508091505092915050565b600060608301600083015184820360008601526150f68282615063565b915050602083015161510b6020860182614a7b565b50604083015184820360408601526151238282614cb6565b9150508091505092915050565b6000602082019050818103600083015261514a81846150d9565b905092915050565b7f636c6f7365506f736974696f6e3a20496e76616c696420646174612074797065600082015250565b6000615188602083613d6d565b915061519382615152565b602082019050919050565b600060208201905081810360008301526151b78161517b565b9050919050565b7f6572726f723a2043616c6c6572206973206e6f742074686520626f72726f776560008201527f7200000000000000000000000000000000000000000000000000000000000000602082015250565b600061521a602183613d6d565b9150615225826151be565b604082019050919050565b600060208201905081810360008301526152498161520d565b9050919050565b60006020828403121561526657615265613730565b5b6000615274848285016142ef565b91505092915050565b600060408201905081810360008301526152978185613f23565b905081810360208301526152ab8184613f23565b90509392505050565b600060608201905081810360008301526152ce8186613f23565b905081810360208301526152e28185613f23565b905081810360408301526152f68184613f23565b9050949350505050565b7f4e487b7100000000000000000000000000000000000000000000000000000000600052601160045260246000fd5b600061533a82613c11565b915061534583613c11565b925082820261535381613c11565b9150828204841483151761536a57615369615300565b5b5092915050565b7f4e487b7100000000000000000000000000000000000000000000000000000000600052601260045260246000fd5b60006153ab82613c11565b91506153b683613c11565b9250826153c6576153c5615371565b5b828204905092915050565b60006153dc82613c11565b91506153e783613c11565b92508282019050808211156153ff576153fe615300565b5b92915050565b6000604082019050818103600083015261541f8185614d3b565b905061542e6020830184613e03565b9392505050565b600061544082613c11565b915061544b83613c11565b925082820390508181111561546357615462615300565b5b92915050565b7f4e6f7420656e6f75676820746f20636c6f736520746865206c6f616e00000000600082015250565b600061549f601c83613d6d565b91506154aa82615469565b602082019050919050565b600060208201905081810360008301526154ce81615492565b9050919050565b600060c08201905081810360008301526154ef8189614a8a565b90506154fe6020830188614afb565b61550b6040830187614afb565b6155186060830186613e03565b6155256080830185613e03565b61553260a0830184613e03565b979650505050505050565b60006020828403121561555357615552613730565b5b600061556184828501613bfc565b91505092915050565b7f54726163746f723a20696e76616c69642073656e646572000000000000000000600082015250565b60006155a0601783613d6d565b91506155ab8261556a565b602082019050919050565b600060208201905081810360008301526155cf81615593565b9050919050565b7f426c75657072696e74206e6f7420616e204f7264657220747970650000000000600082015250565b600061560c601b83613d6d565b9150615617826155d6565b602082019050919050565b6000602082019050818103600083015261563b816155ff565b9050919050565b60008235600160400383360303811261565e5761565d614255565b5b80830191505092915050565b60006020820190508181036000830152615685818486613b4a565b90509392505050565b7f66696c6c4f726465723a2054616b657220213d206d73672e73656e6465720000600082015250565b60006156c4601e83613d6d565b91506156cf8261568e565b602082019050919050565b600060208201905081810360008301526156f3816156b7565b9050919050565b600067ffffffffffffffff821115615715576157146138d4565b5b602082029050602081019050919050565b6000615739615734846156fa565b613934565b9050808382526020820190506020840283018581111561575c5761575b613768565b5b835b81811015615785578061577188826142ef565b84526020840193505060208101905061575e565b5050509392505050565b600082601f8301126157a4576157a361375e565b5b81516157b4848260208601615726565b91505092915050565b600067ffffffffffffffff8211156157d8576157d76138d4565b5b602082029050602081019050919050565b60006157fc6157f7846157bd565b613934565b9050808382526020820190506020840283018581111561581f5761581e613768565b5b835b8181101561586657805167ffffffffffffffff8111156158445761584361375e565b5b8086016158518982614346565b85526020850194505050602081019050615821565b5050509392505050565b600082601f8301126158855761588461375e565b5b81516158958482602086016157e9565b91505092915050565b600067ffffffffffffffff8211156158b9576158b86138d4565b5b602082029050602081019050919050565b60006158dd6158d88461589e565b613934565b90508083825260208201905060208402830185811115615900576158ff613768565b5b835b81811015615929578061591588826143a0565b845260208401935050602081019050615902565b5050509392505050565b600082601f8301126159485761594761375e565b5b81516159588482602086016158ca565b91505092915050565b600067ffffffffffffffff82111561597c5761597b6138d4565b5b602082029050602081019050919050565b60006159a061599b84615961565b613934565b905080838252602082019050602084028301858111156159c3576159c2613768565b5b835b81811015615a0a57805167ffffffffffffffff8111156159e8576159e761375e565b5b8086016159f589826143b5565b855260208501945050506020810190506159c5565b5050509392505050565b600082601f830112615a2957615a2861375e565b5b8151615a3984826020860161598d565b91505092915050565b600060408284031215615a5857615a57613ba9565b5b615a626040613934565b90506000615a72848285016142ef565b600083015250602082015167ffffffffffffffff811115615a9657615a95613bae565b5b615aa284828501614346565b60208301525092915050565b60006101e08284031215615ac557615ac4613ba9565b5b615ad06101e0613934565b9050600082015167ffffffffffffffff811115615af057615aef613bae565b5b615afc8482850161578f565b600083015250602082015167ffffffffffffffff811115615b2057615b1f613bae565b5b615b2c84828501615870565b602083015250604082015167ffffffffffffffff811115615b5057615b4f613bae565b5b615b5c84828501615870565b604083015250606082015167ffffffffffffffff811115615b8057615b7f613bae565b5b615b8c8482850161578f565b606083015250608082015167ffffffffffffffff811115615bb057615baf613bae565b5b615bbc84828501615933565b60808301525060a0615bd08482850161438b565b60a08301525060c0615be4848285016142ef565b60c08301525060e082015167ffffffffffffffff811115615c0857615c07613bae565b5b615c14848285016143b5565b60e08301525061010082015167ffffffffffffffff811115615c3957615c38613bae565b5b615c45848285016143b5565b6101008301525061012082015167ffffffffffffffff811115615c6b57615c6a613bae565b5b615c77848285016143b5565b6101208301525061014082015167ffffffffffffffff811115615c9d57615c9c613bae565b5b615ca984828501615a14565b6101408301525061016082015167ffffffffffffffff811115615ccf57615cce613bae565b5b615cdb84828501615a14565b6101608301525061018082015167ffffffffffffffff811115615d0157615d00613bae565b5b615d0d84828501615933565b610180830152506101a0615d238482850161438b565b6101a0830152506101c082015167ffffffffffffffff811115615d4957615d48613bae565b5b615d5584828501615a42565b6101c08301525092915050565b600060208284031215615d7857615d77613730565b5b600082015167ffffffffffffffff811115615d9657615d95613735565b5b615da284828501615aae565b91505092915050565b7f5075626c697368657220646f6573206e6f74206f776e206c656e64657220616360008201527f636f756e74200000000000000000000000000000000000000000000000000000602082015250565b6000615e07602683613d6d565b9150615e1282615dab565b604082019050919050565b60006020820190508181036000830152615e3681615dfa565b9050919050565b7f426f6f6b6b65657065723a20496e76616c69642074616b657200000000000000600082015250565b6000615e73601983613d6d565b9150615e7e82615e3d565b602082019050919050565b60006020820190508181036000830152615ea281615e66565b9050919050565b7f6e6f7420656e6f75676820636f6c6c61746572616c0000000000000000000000600082015250565b6000615edf601583613d6d565b9150615eea82615ea9565b602082019050919050565b60006020820190508181036000830152615f0e81615ed2565b9050919050565b60006060820190508181036000830152615f2f81866150d9565b9050615f3e6020830185613d38565b615f4b6040830184614afb565b949350505050565b7f5265656e7472616e637947756172643a207265656e7472616e742063616c6c00600082015250565b6000615f89601f83613d6d565b9150615f9482615f53565b602082019050919050565b60006020820190508181036000830152615fb881615f7c565b9050919050565b6000604082019050615fd46000830185613d38565b8181036020830152615fe68184613f23565b90509392505050565b6000615ffb828461500a565b915081905092915050565b60008151905061601581613892565b92915050565b60006020828403121561603157616030613730565b5b600061603f84828501616006565b91505092915050565b7f4c656e646572206e6f74207061696420656e6f75676820746f20636c6f73652060008201527f6c6f616e00000000000000000000000000000000000000000000000000000000602082015250565b60006160a4602483613d6d565b91506160af82616048565b604082019050919050565b600060208201905081810360008301526160d381616097565b9050919050565b7f426f72726f776572206e6f74207061696420656e6f75676820746f20636c6f7360008201527f65206c6f616e0000000000000000000000000000000000000000000000000000602082015250565b6000616136602683613d6d565b9150616141826160da565b604082019050919050565b6000602082019050818103600083015261616581616129565b9050919050565b60008135905061617b81614374565b92915050565b60006020828403121561619757616196613730565b5b60006161a58482850161616c565b91505092915050565b7f6f666665722066696c6c206f66206f6666657200000000000000000000000000600082015250565b60006161e4601383613d6d565b91506161ef826161ae565b602082019050919050565b60006020820190508181036000830152616213816161d7565b9050919050565b7f726571756573742066696c6c206f662072657175657374000000000000000000600082015250565b6000616250601783613d6d565b915061625b8261621a565b602082019050919050565b6000602082019050818103600083015261627f81616243565b9050919050565b7f6c6f616e416d6f756e7420746f6f20736d616c6c000000000000000000000000600082015250565b60006162bc601483613d6d565b91506162c782616286565b602082019050919050565b600060208201905081810360008301526162eb816162af565b9050919050565b60008235600160400383360303811261630e5761630d614255565b5b80830191505092915050565b6000604082840312156163305761632f613ba9565b5b61633a6040613934565b9050600061634a84828501613bfc565b600083015250602082013567ffffffffffffffff81111561636e5761636d613bae565b5b61637a848285016139d1565b60208301525092915050565b6000616392368361631a565b9050919050565b7f666163746f7279206572726f723a2063726561746520636c6f6e65206661696c60008201527f6564000000000000000000000000000000000000000000000000000000000000602082015250565b60006163f5602283613d6d565b915061640082616399565b604082019050919050565b60006020820190508181036000830152616424816163e8565b9050919050565b600061643682613bb3565b9050919050565b6164468161642b565b811461645157600080fd5b50565b6000815190506164638161643d565b92915050565b60006020828403121561647f5761647e613730565b5b600061648d84828501616454565b91505092915050565b600060a0820190506164ab6000830188614afb565b81810360208301526164bd8187613f23565b90506164cc6040830186613e03565b81810360608301526164de8185613f23565b905081810360808301526164f28184613f23565b90509695505050505050565b7f756e6865616c746879206465706c6f796d656e74000000000000000000000000600082015250565b6000616534601483613d6d565b915061653f826164fe565b602082019050919050565b6000602082019050818103600083015261656381616527565b9050919050565b600081905092915050565b7f1901000000000000000000000000000000000000000000000000000000000000600082015250565b60006165ab60028361656a565b91506165b682616575565b600282019050919050565b6000819050919050565b6165dc6165d782613888565b6165c1565b82525050565b60006165ed8261659e565b91506165f982856165cb565b60208201915061660982846165cb565b6020820191508190509392505050565b600060a08201905061662e6000830188613d38565b61663b6020830187613d38565b6166486040830186613d38565b6166556060830185613e03565b6166626080830184614afb565b9695505050505050565b600060ff82169050919050565b6166828161666c565b82525050565b600060808201905061669d6000830187613d38565b6166aa6020830186616679565b6166b76040830185613d38565b6166c46060830184613d38565b9594505050505056fea264697066735822122042c3b613d65e604cb382834099665121066403093e3f78541f773db583ebea4364736f6c63430008130033",
  "linkReferences": {},
  "deployedLinkReferences": {}
}