{
  "_format": "hh-sol-artifact-1",
  "contractName": "BeanstalkSiloFactory",
  "sourceName": "src/plugins/position/implementations/BeanstalkSilo.sol",
  "abi": [
    {
      "inputs": [
        {
          "internalType": "address",
          "name": "protocolAddr",
          "type": "address"
        }
      ],
      "stateMutability": "nonpayable",
      "type": "constructor"
    },
    {
      "anonymous": false,
      "inputs": [
        {
          "indexed": false,
          "internalType": "address",
          "name": "clone",
          "type": "address"
        }
      ],
      "name": "CloneCreated",
      "type": "event"
    },
    {
      "anonymous": false,
      "inputs": [
        {
          "indexed": false,
          "internalType": "address",
          "name": "previousController",
          "type": "address"
        },
        {
          "indexed": false,
          "internalType": "address",
          "name": "newController",
          "type": "address"
        }
      ],
      "name": "ControlTransferred",
      "type": "event"
    },
    {
      "anonymous": false,
      "inputs": [
        {
          "indexed": false,
          "internalType": "uint8",
          "name": "version",
          "type": "uint8"
        }
      ],
      "name": "Initialized",
      "type": "event"
    },
    {
      "anonymous": false,
      "inputs": [
        {
          "indexed": true,
          "internalType": "bytes32",
          "name": "role",
          "type": "bytes32"
        },
        {
          "indexed": true,
          "internalType": "bytes32",
          "name": "previousAdminRole",
          "type": "bytes32"
        },
        {
          "indexed": true,
          "internalType": "bytes32",
          "name": "newAdminRole",
          "type": "bytes32"
        }
      ],
      "name": "RoleAdminChanged",
      "type": "event"
    },
    {
      "anonymous": false,
      "inputs": [
        {
          "indexed": true,
          "internalType": "bytes32",
          "name": "role",
          "type": "bytes32"
        },
        {
          "indexed": true,
          "internalType": "address",
          "name": "account",
          "type": "address"
        },
        {
          "indexed": true,
          "internalType": "address",
          "name": "sender",
          "type": "address"
        }
      ],
      "name": "RoleGranted",
      "type": "event"
    },
    {
      "anonymous": false,
      "inputs": [
        {
          "indexed": true,
          "internalType": "bytes32",
          "name": "role",
          "type": "bytes32"
        },
        {
          "indexed": true,
          "internalType": "address",
          "name": "account",
          "type": "address"
        },
        {
          "indexed": true,
          "internalType": "address",
          "name": "sender",
          "type": "address"
        }
      ],
      "name": "RoleRevoked",
      "type": "event"
    },
    {
      "inputs": [],
      "name": "BOOKKEEPER_ADDRESS",
      "outputs": [
        {
          "internalType": "address",
          "name": "",
          "type": "address"
        }
      ],
      "stateMutability": "view",
      "type": "function"
    },
    {
      "inputs": [],
      "name": "DEFAULT_ADMIN_ROLE",
      "outputs": [
        {
          "internalType": "bytes32",
          "name": "",
          "type": "bytes32"
        }
      ],
      "stateMutability": "view",
      "type": "function"
    },
    {
      "inputs": [],
      "name": "FACTORY_ADDRESS",
      "outputs": [
        {
          "internalType": "address",
          "name": "",
          "type": "address"
        }
      ],
      "stateMutability": "view",
      "type": "function"
    },
    {
      "inputs": [
        {
          "components": [
            {
              "internalType": "uint256",
              "name": "loanAmount",
              "type": "uint256"
            },
            {
              "internalType": "uint256",
              "name": "collAmount",
              "type": "uint256"
            },
            {
              "internalType": "bytes",
              "name": "loanAsset",
              "type": "bytes"
            },
            {
              "internalType": "bytes",
              "name": "collAsset",
              "type": "bytes"
            },
            {
              "internalType": "uint256",
              "name": "minCollateralRatio",
              "type": "uint256"
            },
            {
              "internalType": "uint256",
              "name": "maxDuration",
              "type": "uint256"
            },
            {
              "internalType": "bool",
              "name": "isLeverage",
              "type": "bool"
            },
            {
              "components": [
                {
                  "internalType": "address",
                  "name": "addr",
                  "type": "address"
                },
                {
                  "internalType": "bytes",
                  "name": "parameters",
                  "type": "bytes"
                }
              ],
              "internalType": "struct PluginReference",
              "name": "lenderAccount",
              "type": "tuple"
            },
            {
              "components": [
                {
                  "internalType": "address",
                  "name": "addr",
                  "type": "address"
                },
                {
                  "internalType": "bytes",
                  "name": "parameters",
                  "type": "bytes"
                }
              ],
              "internalType": "struct PluginReference",
              "name": "borrowerAccount",
              "type": "tuple"
            },
            {
              "components": [
                {
                  "internalType": "address",
                  "name": "addr",
                  "type": "address"
                },
                {
                  "internalType": "bytes",
                  "name": "parameters",
                  "type": "bytes"
                }
              ],
              "internalType": "struct PluginReference",
              "name": "assessor",
              "type": "tuple"
            },
            {
              "components": [
                {
                  "internalType": "address",
                  "name": "addr",
                  "type": "address"
                },
                {
                  "internalType": "bytes",
                  "name": "parameters",
                  "type": "bytes"
                }
              ],
              "internalType": "struct PluginReference",
              "name": "liquidator",
              "type": "tuple"
            },
            {
              "components": [
                {
                  "internalType": "address",
                  "name": "addr",
                  "type": "address"
                },
                {
                  "internalType": "bytes",
                  "name": "parameters",
                  "type": "bytes"
                }
              ],
              "internalType": "struct PluginReference",
              "name": "loanOracle",
              "type": "tuple"
            },
            {
              "components": [
                {
                  "internalType": "address",
                  "name": "addr",
                  "type": "address"
                },
                {
                  "internalType": "bytes",
                  "name": "parameters",
                  "type": "bytes"
                }
              ],
              "internalType": "struct PluginReference",
              "name": "collOracle",
              "type": "tuple"
            },
            {
              "internalType": "address",
              "name": "factory",
              "type": "address"
            },
            {
              "components": [
                {
                  "internalType": "address",
                  "name": "addr",
                  "type": "address"
                },
                {
                  "internalType": "bytes",
                  "name": "parameters",
                  "type": "bytes"
                }
              ],
              "internalType": "struct PluginReference",
              "name": "position",
              "type": "tuple"
            },
            {
              "internalType": "uint256",
              "name": "deploymentTime",
              "type": "uint256"
            },
            {
              "internalType": "bytes",
              "name": "fillerData",
              "type": "bytes"
            }
          ],
          "internalType": "struct Agreement",
          "name": "agreement",
          "type": "tuple"
        },
        {
          "internalType": "uint256",
          "name": "amountToClose",
          "type": "uint256"
        }
      ],
      "name": "close",
      "outputs": [],
      "stateMutability": "nonpayable",
      "type": "function"
    },
    {
      "inputs": [],
      "name": "createClone",
      "outputs": [
        {
          "internalType": "address",
          "name": "addr",
          "type": "address"
        }
      ],
      "stateMutability": "nonpayable",
      "type": "function"
    },
    {
      "inputs": [
        {
          "components": [
            {
              "internalType": "uint256",
              "name": "loanAmount",
              "type": "uint256"
            },
            {
              "internalType": "uint256",
              "name": "collAmount",
              "type": "uint256"
            },
            {
              "internalType": "bytes",
              "name": "loanAsset",
              "type": "bytes"
            },
            {
              "internalType": "bytes",
              "name": "collAsset",
              "type": "bytes"
            },
            {
              "internalType": "uint256",
              "name": "minCollateralRatio",
              "type": "uint256"
            },
            {
              "internalType": "uint256",
              "name": "maxDuration",
              "type": "uint256"
            },
            {
              "internalType": "bool",
              "name": "isLeverage",
              "type": "bool"
            },
            {
              "components": [
                {
                  "internalType": "address",
                  "name": "addr",
                  "type": "address"
                },
                {
                  "internalType": "bytes",
                  "name": "parameters",
                  "type": "bytes"
                }
              ],
              "internalType": "struct PluginReference",
              "name": "lenderAccount",
              "type": "tuple"
            },
            {
              "components": [
                {
                  "internalType": "address",
                  "name": "addr",
                  "type": "address"
                },
                {
                  "internalType": "bytes",
                  "name": "parameters",
                  "type": "bytes"
                }
              ],
              "internalType": "struct PluginReference",
              "name": "borrowerAccount",
              "type": "tuple"
            },
            {
              "components": [
                {
                  "internalType": "address",
                  "name": "addr",
                  "type": "address"
                },
                {
                  "internalType": "bytes",
                  "name": "parameters",
                  "type": "bytes"
                }
              ],
              "internalType": "struct PluginReference",
              "name": "assessor",
              "type": "tuple"
            },
            {
              "components": [
                {
                  "internalType": "address",
                  "name": "addr",
                  "type": "address"
                },
                {
                  "internalType": "bytes",
                  "name": "parameters",
                  "type": "bytes"
                }
              ],
              "internalType": "struct PluginReference",
              "name": "liquidator",
              "type": "tuple"
            },
            {
              "components": [
                {
                  "internalType": "address",
                  "name": "addr",
                  "type": "address"
                },
                {
                  "internalType": "bytes",
                  "name": "parameters",
                  "type": "bytes"
                }
              ],
              "internalType": "struct PluginReference",
              "name": "loanOracle",
              "type": "tuple"
            },
            {
              "components": [
                {
                  "internalType": "address",
                  "name": "addr",
                  "type": "address"
                },
                {
                  "internalType": "bytes",
                  "name": "parameters",
                  "type": "bytes"
                }
              ],
              "internalType": "struct PluginReference",
              "name": "collOracle",
              "type": "tuple"
            },
            {
              "internalType": "address",
              "name": "factory",
              "type": "address"
            },
            {
              "components": [
                {
                  "internalType": "address",
                  "name": "addr",
                  "type": "address"
                },
                {
                  "internalType": "bytes",
                  "name": "parameters",
                  "type": "bytes"
                }
              ],
              "internalType": "struct PluginReference",
              "name": "position",
              "type": "tuple"
            },
            {
              "internalType": "uint256",
              "name": "deploymentTime",
              "type": "uint256"
            },
            {
              "internalType": "bytes",
              "name": "fillerData",
              "type": "bytes"
            }
          ],
          "internalType": "struct Agreement",
          "name": "agreement",
          "type": "tuple"
        }
      ],
      "name": "getCloseAmount",
      "outputs": [
        {
          "internalType": "uint256",
          "name": "",
          "type": "uint256"
        }
      ],
      "stateMutability": "nonpayable",
      "type": "function"
    },
    {
      "inputs": [
        {
          "internalType": "bytes32",
          "name": "role",
          "type": "bytes32"
        }
      ],
      "name": "getRoleAdmin",
      "outputs": [
        {
          "internalType": "bytes32",
          "name": "",
          "type": "bytes32"
        }
      ],
      "stateMutability": "view",
      "type": "function"
    },
    {
      "inputs": [
        {
          "internalType": "bytes32",
          "name": "role",
          "type": "bytes32"
        },
        {
          "internalType": "address",
          "name": "account",
          "type": "address"
        }
      ],
      "name": "grantRole",
      "outputs": [],
      "stateMutability": "nonpayable",
      "type": "function"
    },
    {
      "inputs": [
        {
          "internalType": "bytes32",
          "name": "role",
          "type": "bytes32"
        },
        {
          "internalType": "address",
          "name": "account",
          "type": "address"
        }
      ],
      "name": "hasRole",
      "outputs": [
        {
          "internalType": "bool",
          "name": "",
          "type": "bool"
        }
      ],
      "stateMutability": "view",
      "type": "function"
    },
    {
      "inputs": [],
      "name": "initialize",
      "outputs": [],
      "stateMutability": "nonpayable",
      "type": "function"
    },
    {
      "inputs": [],
      "name": "mow",
      "outputs": [],
      "stateMutability": "payable",
      "type": "function"
    },
    {
      "inputs": [
        {
          "components": [
            {
              "internalType": "uint256",
              "name": "loanAmount",
              "type": "uint256"
            },
            {
              "internalType": "uint256",
              "name": "collAmount",
              "type": "uint256"
            },
            {
              "internalType": "bytes",
              "name": "loanAsset",
              "type": "bytes"
            },
            {
              "internalType": "bytes",
              "name": "collAsset",
              "type": "bytes"
            },
            {
              "internalType": "uint256",
              "name": "minCollateralRatio",
              "type": "uint256"
            },
            {
              "internalType": "uint256",
              "name": "maxDuration",
              "type": "uint256"
            },
            {
              "internalType": "bool",
              "name": "isLeverage",
              "type": "bool"
            },
            {
              "components": [
                {
                  "internalType": "address",
                  "name": "addr",
                  "type": "address"
                },
                {
                  "internalType": "bytes",
                  "name": "parameters",
                  "type": "bytes"
                }
              ],
              "internalType": "struct PluginReference",
              "name": "lenderAccount",
              "type": "tuple"
            },
            {
              "components": [
                {
                  "internalType": "address",
                  "name": "addr",
                  "type": "address"
                },
                {
                  "internalType": "bytes",
                  "name": "parameters",
                  "type": "bytes"
                }
              ],
              "internalType": "struct PluginReference",
              "name": "borrowerAccount",
              "type": "tuple"
            },
            {
              "components": [
                {
                  "internalType": "address",
                  "name": "addr",
                  "type": "address"
                },
                {
                  "internalType": "bytes",
                  "name": "parameters",
                  "type": "bytes"
                }
              ],
              "internalType": "struct PluginReference",
              "name": "assessor",
              "type": "tuple"
            },
            {
              "components": [
                {
                  "internalType": "address",
                  "name": "addr",
                  "type": "address"
                },
                {
                  "internalType": "bytes",
                  "name": "parameters",
                  "type": "bytes"
                }
              ],
              "internalType": "struct PluginReference",
              "name": "liquidator",
              "type": "tuple"
            },
            {
              "components": [
                {
                  "internalType": "address",
                  "name": "addr",
                  "type": "address"
                },
                {
                  "internalType": "bytes",
                  "name": "parameters",
                  "type": "bytes"
                }
              ],
              "internalType": "struct PluginReference",
              "name": "loanOracle",
              "type": "tuple"
            },
            {
              "components": [
                {
                  "internalType": "address",
                  "name": "addr",
                  "type": "address"
                },
                {
                  "internalType": "bytes",
                  "name": "parameters",
                  "type": "bytes"
                }
              ],
              "internalType": "struct PluginReference",
              "name": "collOracle",
              "type": "tuple"
            },
            {
              "internalType": "address",
              "name": "factory",
              "type": "address"
            },
            {
              "components": [
                {
                  "internalType": "address",
                  "name": "addr",
                  "type": "address"
                },
                {
                  "internalType": "bytes",
                  "name": "parameters",
                  "type": "bytes"
                }
              ],
              "internalType": "struct PluginReference",
              "name": "position",
              "type": "tuple"
            },
            {
              "internalType": "uint256",
              "name": "deploymentTime",
              "type": "uint256"
            },
            {
              "internalType": "bytes",
              "name": "fillerData",
              "type": "bytes"
            }
          ],
          "internalType": "struct Agreement",
          "name": "agreement",
          "type": "tuple"
        }
      ],
      "name": "open",
      "outputs": [],
      "stateMutability": "nonpayable",
      "type": "function"
    },
    {
      "inputs": [
        {
          "internalType": "address payable",
          "name": "destination",
          "type": "address"
        },
        {
          "internalType": "bytes",
          "name": "data",
          "type": "bytes"
        },
        {
          "internalType": "bool",
          "name": "delegateCall",
          "type": "bool"
        }
      ],
      "name": "passThrough",
      "outputs": [
        {
          "internalType": "bool",
          "name": "",
          "type": "bool"
        },
        {
          "internalType": "bytes",
          "name": "",
          "type": "bytes"
        }
      ],
      "stateMutability": "payable",
      "type": "function"
    },
    {
      "inputs": [],
      "name": "plant",
      "outputs": [],
      "stateMutability": "payable",
      "type": "function"
    },
    {
      "inputs": [
        {
          "internalType": "bytes32",
          "name": "role",
          "type": "bytes32"
        },
        {
          "internalType": "address",
          "name": "account",
          "type": "address"
        }
      ],
      "name": "renounceRole",
      "outputs": [],
      "stateMutability": "nonpayable",
      "type": "function"
    },
    {
      "inputs": [
        {
          "internalType": "bytes32",
          "name": "role",
          "type": "bytes32"
        },
        {
          "internalType": "address",
          "name": "account",
          "type": "address"
        }
      ],
      "name": "revokeRole",
      "outputs": [],
      "stateMutability": "nonpayable",
      "type": "function"
    },
    {
      "inputs": [
        {
          "internalType": "bytes4",
          "name": "interfaceId",
          "type": "bytes4"
        }
      ],
      "name": "supportsInterface",
      "outputs": [
        {
          "internalType": "bool",
          "name": "",
          "type": "bool"
        }
      ],
      "stateMutability": "view",
      "type": "function"
    },
    {
      "inputs": [
        {
          "internalType": "address",
          "name": "controller",
          "type": "address"
        }
      ],
      "name": "transferContract",
      "outputs": [],
      "stateMutability": "nonpayable",
      "type": "function"
    },
    {
      "inputs": [
        {
          "components": [
            {
              "internalType": "uint256",
              "name": "loanAmount",
              "type": "uint256"
            },
            {
              "internalType": "uint256",
              "name": "collAmount",
              "type": "uint256"
            },
            {
              "internalType": "bytes",
              "name": "loanAsset",
              "type": "bytes"
            },
            {
              "internalType": "bytes",
              "name": "collAsset",
              "type": "bytes"
            },
            {
              "internalType": "uint256",
              "name": "minCollateralRatio",
              "type": "uint256"
            },
            {
              "internalType": "uint256",
              "name": "maxDuration",
              "type": "uint256"
            },
            {
              "internalType": "bool",
              "name": "isLeverage",
              "type": "bool"
            },
            {
              "components": [
                {
                  "internalType": "address",
                  "name": "addr",
                  "type": "address"
                },
                {
                  "internalType": "bytes",
                  "name": "parameters",
                  "type": "bytes"
                }
              ],
              "internalType": "struct PluginReference",
              "name": "lenderAccount",
              "type": "tuple"
            },
            {
              "components": [
                {
                  "internalType": "address",
                  "name": "addr",
                  "type": "address"
                },
                {
                  "internalType": "bytes",
                  "name": "parameters",
                  "type": "bytes"
                }
              ],
              "internalType": "struct PluginReference",
              "name": "borrowerAccount",
              "type": "tuple"
            },
            {
              "components": [
                {
                  "internalType": "address",
                  "name": "addr",
                  "type": "address"
                },
                {
                  "internalType": "bytes",
                  "name": "parameters",
                  "type": "bytes"
                }
              ],
              "internalType": "struct PluginReference",
              "name": "assessor",
              "type": "tuple"
            },
            {
              "components": [
                {
                  "internalType": "address",
                  "name": "addr",
                  "type": "address"
                },
                {
                  "internalType": "bytes",
                  "name": "parameters",
                  "type": "bytes"
                }
              ],
              "internalType": "struct PluginReference",
              "name": "liquidator",
              "type": "tuple"
            },
            {
              "components": [
                {
                  "internalType": "address",
                  "name": "addr",
                  "type": "address"
                },
                {
                  "internalType": "bytes",
                  "name": "parameters",
                  "type": "bytes"
                }
              ],
              "internalType": "struct PluginReference",
              "name": "loanOracle",
              "type": "tuple"
            },
            {
              "components": [
                {
                  "internalType": "address",
                  "name": "addr",
                  "type": "address"
                },
                {
                  "internalType": "bytes",
                  "name": "parameters",
                  "type": "bytes"
                }
              ],
              "internalType": "struct PluginReference",
              "name": "collOracle",
              "type": "tuple"
            },
            {
              "internalType": "address",
              "name": "factory",
              "type": "address"
            },
            {
              "components": [
                {
                  "internalType": "address",
                  "name": "addr",
                  "type": "address"
                },
                {
                  "internalType": "bytes",
                  "name": "parameters",
                  "type": "bytes"
                }
              ],
              "internalType": "struct PluginReference",
              "name": "position",
              "type": "tuple"
            },
            {
              "internalType": "uint256",
              "name": "deploymentTime",
              "type": "uint256"
            },
            {
              "internalType": "bytes",
              "name": "fillerData",
              "type": "bytes"
            }
          ],
          "internalType": "struct Agreement",
          "name": "agreement",
          "type": "tuple"
        }
      ],
      "name": "unwind",
      "outputs": [],
      "stateMutability": "nonpayable",
      "type": "function"
    },
    {
      "stateMutability": "payable",
      "type": "receive"
    }
  ],
  "bytecode": "0x60c06040523480156200001157600080fd5b5060405162003e7f38038062003e7f833981810160405281019062000037919062000398565b808062000049620000ee60201b60201c565b8073ffffffffffffffffffffffffffffffffffffffff1660808173ffffffffffffffffffffffffffffffffffffffff16815250503073ffffffffffffffffffffffffffffffffffffffff1660a08173ffffffffffffffffffffffffffffffffffffffff1681525050620000e57f03c7040f8e5b938f657d4600d08b1b77f390141994844cbb34ff043f26ac6cd7608051620001b560201b60201c565b505050620004ae565b60018054906101000a900460ff16156200013f576040517f08c379a0000000000000000000000000000000000000000000000000000000008152600401620001369062000451565b60405180910390fd5b60ff8016600160009054906101000a900460ff1660ff1614620001b35760ff600160006101000a81548160ff021916908360ff1602179055507f7f26b83ff96e1f2b6a682f133852f6798a09c465da95921460cefb384740249860ff604051620001aa919062000491565b60405180910390a15b565b620001c78282620001cb60201b60201c565b5050565b620001dd8282620002bc60201b60201c565b620002b857600160008084815260200190815260200160002060000160008373ffffffffffffffffffffffffffffffffffffffff1673ffffffffffffffffffffffffffffffffffffffff16815260200190815260200160002060006101000a81548160ff0219169083151502179055506200025d6200032660201b60201c565b73ffffffffffffffffffffffffffffffffffffffff168173ffffffffffffffffffffffffffffffffffffffff16837f2f8788117e7eff1d82e926ec794901d17c78024a50270940304540a733656f0d60405160405180910390a45b5050565b600080600084815260200190815260200160002060000160008373ffffffffffffffffffffffffffffffffffffffff1673ffffffffffffffffffffffffffffffffffffffff16815260200190815260200160002060009054906101000a900460ff16905092915050565b600033905090565b600080fd5b600073ffffffffffffffffffffffffffffffffffffffff82169050919050565b6000620003608262000333565b9050919050565b620003728162000353565b81146200037e57600080fd5b50565b600081519050620003928162000367565b92915050565b600060208284031215620003b157620003b06200032e565b5b6000620003c18482850162000381565b91505092915050565b600082825260208201905092915050565b7f496e697469616c697a61626c653a20636f6e747261637420697320696e69746960008201527f616c697a696e6700000000000000000000000000000000000000000000000000602082015250565b600062000439602783620003ca565b91506200044682620003db565b604082019050919050565b600060208201905081810360008301526200046c816200042a565b9050919050565b600060ff82169050919050565b6200048b8162000473565b82525050565b6000602082019050620004a8600083018462000480565b92915050565b60805160a0516139656200051a6000396000818161057e015281816106700152818161071a0152818161094801528181610b5a01528181610be801528181610cff01528181610d2301528181610f0701526110b5015260008181610c7d0152610e3c01526139656000f3fe6080604052600436106101185760003560e01c80638129fc1c116100a0578063a299292511610064578063a299292514610373578063a5ba5a221461039e578063b9fdc2a2146103a8578063d547741f146103d9578063edd9e4b5146104025761011f565b80638129fc1c146102a05780638823151b146102b75780638f9acff3146102e257806391d148541461030b578063a217fddf146103485761011f565b806347635dac116100e757806347635dac146101f05780635aa564091461021957806364f2d4b9146102425780636c3fc8311461026d578063779b3c5c146102965761011f565b806301ffc9a714610124578063248a9ca3146101615780632f2ff15d1461019e57806336568abe146101c75761011f565b3661011f57005b600080fd5b34801561013057600080fd5b5061014b600480360381019061014691906120eb565b61043f565b6040516101589190612133565b60405180910390f35b34801561016d57600080fd5b5061018860048036038101906101839190612184565b6104b9565b60405161019591906121c0565b60405180910390f35b3480156101aa57600080fd5b506101c560048036038101906101c09190612239565b6104d8565b005b3480156101d357600080fd5b506101ee60048036038101906101e99190612239565b6104f9565b005b3480156101fc57600080fd5b5061021760048036038101906102129190612279565b61057c565b005b34801561022557600080fd5b50610240600480360381019061023b91906122cb565b61066e565b005b34801561024e57600080fd5b50610257610716565b6040516102649190612323565b60405180910390f35b34801561027957600080fd5b50610294600480360381019061028f9190612374565b610946565b005b61029e6109f0565b005b3480156102ac57600080fd5b506102b5610a7e565b005b3480156102c357600080fd5b506102cc610cfd565b6040516102d99190612323565b60405180910390f35b3480156102ee57600080fd5b50610309600480360381019061030491906122cb565b610d21565b005b34801561031757600080fd5b50610332600480360381019061032d9190612239565b610dc9565b60405161033f9190612133565b60405180910390f35b34801561035457600080fd5b5061035d610e33565b60405161036a91906121c0565b60405180910390f35b34801561037f57600080fd5b50610388610e3a565b6040516103959190612323565b60405180910390f35b6103a6610e5e565b005b6103c260048036038101906103bd919061249f565b610f01565b6040516103d09291906125a3565b60405180910390f35b3480156103e557600080fd5b5061040060048036038101906103fb9190612239565b611090565b005b34801561040e57600080fd5b5061042960048036038101906104249190612a21565b6110b1565b6040516104369190612a79565b60405180910390f35b60007f7965db0b000000000000000000000000000000000000000000000000000000007bffffffffffffffffffffffffffffffffffffffffffffffffffffffff1916827bffffffffffffffffffffffffffffffffffffffffffffffffffffffff191614806104b257506104b182611151565b5b9050919050565b6000806000838152602001908152602001600020600101549050919050565b6104e1826104b9565b6104ea816111bb565b6104f483836111cf565b505050565b6105016112af565b73ffffffffffffffffffffffffffffffffffffffff168173ffffffffffffffffffffffffffffffffffffffff161461056e576040517f08c379a000000000000000000000000000000000000000000000000000000000815260040161056590612b17565b60405180910390fd5b61057882826112b7565b5050565b7f000000000000000000000000000000000000000000000000000000000000000073ffffffffffffffffffffffffffffffffffffffff163073ffffffffffffffffffffffffffffffffffffffff160361060a576040517f08c379a000000000000000000000000000000000000000000000000000000000815260040161060190612b83565b60405180910390fd5b6000801b610617816111bb565b6106246000801b836104d8565b6106316000801b336104f9565b7fa06677f7b64342b4bcbde423684dbdb5356acfe41ad0285b6ecbe6dc4bf427f23383604051610662929190612ba3565b60405180910390a15050565b7f000000000000000000000000000000000000000000000000000000000000000073ffffffffffffffffffffffffffffffffffffffff163073ffffffffffffffffffffffffffffffffffffffff16036106fc576040517f08c379a00000000000000000000000000000000000000000000000000000000081526004016106f390612b83565b60405180910390fd5b6000801b610709816111bb565b61071282611398565b5050565b60007f000000000000000000000000000000000000000000000000000000000000000073ffffffffffffffffffffffffffffffffffffffff163073ffffffffffffffffffffffffffffffffffffffff16146107a6576040517f08c379a000000000000000000000000000000000000000000000000000000000815260040161079d90612c18565b60405180910390fd5b7f03c7040f8e5b938f657d4600d08b1b77f390141994844cbb34ff043f26ac6cd76107d0816111bb565b6107d930611712565b915060008273ffffffffffffffffffffffffffffffffffffffff166040516024016040516020818303038152906040527f8129fc1c000000000000000000000000000000000000000000000000000000007bffffffffffffffffffffffffffffffffffffffffffffffffffffffff19166020820180517bffffffffffffffffffffffffffffffffffffffffffffffffffffffff83818316178352505050506040516108849190612c74565b6000604051808303816000865af19150503d80600081146108c1576040519150601f19603f3d011682016040523d82523d6000602084013e6108c6565b606091505b505090508061090a576040517f08c379a000000000000000000000000000000000000000000000000000000000815260040161090190612cd7565b60405180910390fd5b7fbe2f3d28fdeb5839123d65fd47ec2f5915c715d2b527b9e229123706fdecfc85836040516109399190612323565b60405180910390a1505090565b7f000000000000000000000000000000000000000000000000000000000000000073ffffffffffffffffffffffffffffffffffffffff163073ffffffffffffffffffffffffffffffffffffffff16036109d4576040517f08c379a00000000000000000000000000000000000000000000000000000000081526004016109cb90612b83565b60405180910390fd5b6000801b6109e1816111bb565b6109eb83836117cc565b505050565b600073c1e088fc1323b20bcbee9bd1b9fc9546db5624c590508073ffffffffffffffffffffffffffffffffffffffff1663779b3c5c6040518163ffffffff1660e01b815260040160408051808303816000875af1158015610a55573d6000803e3d6000fd5b505050506040513d601f19601f82011682018060405250810190610a799190612d45565b505050565b600060018054906101000a900460ff16159050808015610aaf575060018060009054906101000a900460ff1660ff16105b80610add5750610abe30611965565b158015610adc575060018060009054906101000a900460ff1660ff16145b5b610b1c576040517f08c379a0000000000000000000000000000000000000000000000000000000008152600401610b1390612df7565b60405180910390fd5b60018060006101000a81548160ff021916908360ff1602179055508015610b585760018060016101000a81548160ff0219169083151502179055505b7f000000000000000000000000000000000000000000000000000000000000000073ffffffffffffffffffffffffffffffffffffffff163073ffffffffffffffffffffffffffffffffffffffff1603610be6576040517f08c379a0000000000000000000000000000000000000000000000000000000008152600401610bdd90612b83565b60405180910390fd5b7f000000000000000000000000000000000000000000000000000000000000000073ffffffffffffffffffffffffffffffffffffffff163373ffffffffffffffffffffffffffffffffffffffff1614610c74576040517f08c379a0000000000000000000000000000000000000000000000000000000008152600401610c6b90612e63565b60405180910390fd5b610ca16000801b7f0000000000000000000000000000000000000000000000000000000000000000611988565b8015610cfa5760006001806101000a81548160ff0219169083151502179055507f7f26b83ff96e1f2b6a682f133852f6798a09c465da95921460cefb38474024986001604051610cf19190612ed5565b60405180910390a15b50565b7f000000000000000000000000000000000000000000000000000000000000000081565b7f000000000000000000000000000000000000000000000000000000000000000073ffffffffffffffffffffffffffffffffffffffff163073ffffffffffffffffffffffffffffffffffffffff1603610daf576040517f08c379a0000000000000000000000000000000000000000000000000000000008152600401610da690612b83565b60405180910390fd5b6000801b610dbc816111bb565b610dc582611996565b5050565b600080600084815260200190815260200160002060000160008373ffffffffffffffffffffffffffffffffffffffff1673ffffffffffffffffffffffffffffffffffffffff16815260200190815260200160002060009054906101000a900460ff16905092915050565b6000801b81565b7f000000000000000000000000000000000000000000000000000000000000000081565b600073bea0e11282e2bb5893bece110cf199501e872bad9050600073c1e088fc1323b20bcbee9bd1b9fc9546db5624c590508073ffffffffffffffffffffffffffffffffffffffff1663150d517333846040518363ffffffff1660e01b8152600401610ecb929190612ba3565b600060405180830381600087803b158015610ee557600080fd5b505af1158015610ef9573d6000803e3d6000fd5b505050505050565b600060607f000000000000000000000000000000000000000000000000000000000000000073ffffffffffffffffffffffffffffffffffffffff163073ffffffffffffffffffffffffffffffffffffffff1603610f93576040517f08c379a0000000000000000000000000000000000000000000000000000000008152600401610f8a90612b83565b60405180910390fd5b6000801b610fa0816111bb565b83611019578673ffffffffffffffffffffffffffffffffffffffff16348787604051610fcd929190612f15565b60006040518083038185875af1925050503d806000811461100a576040519150601f19603f3d011682016040523d82523d6000602084013e61100f565b606091505b5092509250611086565b8673ffffffffffffffffffffffffffffffffffffffff168686604051611040929190612f15565b600060405180830381855af49150503d806000811461107b576040519150601f19603f3d011682016040523d82523d6000602084013e611080565b606091505b50925092505b5094509492505050565b611099826104b9565b6110a2816111bb565b6110ac83836112b7565b505050565b60007f000000000000000000000000000000000000000000000000000000000000000073ffffffffffffffffffffffffffffffffffffffff163073ffffffffffffffffffffffffffffffffffffffff1603611141576040517f08c379a000000000000000000000000000000000000000000000000000000000815260040161113890612b83565b60405180910390fd5b61114a82611b1a565b9050919050565b60007f01ffc9a7000000000000000000000000000000000000000000000000000000007bffffffffffffffffffffffffffffffffffffffffffffffffffffffff1916827bffffffffffffffffffffffffffffffffffffffffffffffffffffffff1916149050919050565b6111cc816111c76112af565b611d91565b50565b6111d98282610dc9565b6112ab57600160008084815260200190815260200160002060000160008373ffffffffffffffffffffffffffffffffffffffff1673ffffffffffffffffffffffffffffffffffffffff16815260200190815260200160002060006101000a81548160ff0219169083151502179055506112506112af565b73ffffffffffffffffffffffffffffffffffffffff168173ffffffffffffffffffffffffffffffffffffffff16837f2f8788117e7eff1d82e926ec794901d17c78024a50270940304540a733656f0d60405160405180910390a45b5050565b600033905090565b6112c18282610dc9565b1561139457600080600084815260200190815260200160002060000160008373ffffffffffffffffffffffffffffffffffffffff1673ffffffffffffffffffffffffffffffffffffffff16815260200190815260200160002060006101000a81548160ff0219169083151502179055506113396112af565b73ffffffffffffffffffffffffffffffffffffffff168173ffffffffffffffffffffffffffffffffffffffff16837ff6391f5c32d9c69d2a47ea670b442974b53935d1edc7fd64eb21e047a839171b60405160405180910390a45b5050565b600073bea0e11282e2bb5893bece110cf199501e872bad9050600073c1e088fc1323b20bcbee9bd1b9fc9546db5624c590506000836020013584600001356113e09190612f5d565b9050600073c02aaa39b223fe8d0a0e5c4f27ead9083c756cc290508073ffffffffffffffffffffffffffffffffffffffff1663095ea7b385846040518363ffffffff1660e01b8152600401611436929190612f91565b6020604051808303816000875af1158015611455573d6000803e3d6000fd5b505050506040513d601f19601f820116820180604052508101906114799190612fcf565b506000600267ffffffffffffffff811115611497576114966125d8565b5b6040519080825280602002602001820160405280156114c55781602001602082028036833780820191505090505b5090506000816000815181106114de576114dd612ffc565b5b60200260200101818152505082816001815181106114ff576114fe612ffc565b5b60200260200101818152505060008573ffffffffffffffffffffffffffffffffffffffff1663cb9c78448360008a806101c0019061153d919061303a565b600001602081019061154f9190612279565b60024261155c9190613062565b6040518563ffffffff1660e01b815260040161157b949392919061319d565b6020604051808303816000875af115801561159a573d6000803e3d6000fd5b505050506040513d601f19601f820116820180604052508101906115be91906131e9565b905060008690508073ffffffffffffffffffffffffffffffffffffffff1663095ea7b387846040518363ffffffff1660e01b8152600401611600929190612f91565b6020604051808303816000875af115801561161f573d6000803e3d6000fd5b505050506040513d601f19601f820116820180604052508101906116439190612fcf565b508573ffffffffffffffffffffffffffffffffffffffff1663f19ed6be888460006040518463ffffffff1660e01b81526004016116829392919061328d565b6060604051808303816000875af11580156116a1573d6000803e3d6000fd5b505050506040513d601f19601f820116820180604052508101906116c591906132c4565b9091509050600360008291906101000a8154816bffffffffffffffffffffffff0219169083600b0b6bffffffffffffffffffffffff16021790555050816002819055505050505050505050565b6000763d602d80600a3d3981f3363d3d373d3d3d363d730000008260601b60e81c176000526e5af43d82803e903d91602b57fd5bf38260781b17602052603760096000f09050600073ffffffffffffffffffffffffffffffffffffffff168173ffffffffffffffffffffffffffffffffffffffff16036117c7576040517f08c379a00000000000000000000000000000000000000000000000000000000081526004016117be90613363565b60405180910390fd5b919050565b60008280604001906117de9190613383565b8101906117eb9190613462565b9050600081600001519050600083111561195f578073ffffffffffffffffffffffffffffffffffffffff1663095ea7b3858060e0019061182b919061303a565b600001602081019061183d9190612279565b856040518363ffffffff1660e01b815260040161185b929190612f91565b6020604051808303816000875af115801561187a573d6000803e3d6000fd5b505050506040513d601f19601f8201168201806040525081019061189e9190612fcf565b50838060e001906118af919061303a565b60000160208101906118c19190612279565b73ffffffffffffffffffffffffffffffffffffffff166306b1c4c98580604001906118ec9190613383565b86888060e001906118fd919061303a565b806020019061190c9190613383565b6040518663ffffffff1660e01b815260040161192c9594939291906134bc565b600060405180830381600087803b15801561194657600080fd5b505af115801561195a573d6000803e3d6000fd5b505050505b50505050565b6000808273ffffffffffffffffffffffffffffffffffffffff163b119050919050565b61199282826111cf565b5050565b600073c1e088fc1323b20bcbee9bd1b9fc9546db5624c59050600073bea0e11282e2bb5893bece110cf199501e872bad90508173ffffffffffffffffffffffffffffffffffffffff1663e348f82b82600360009054906101000a9004600b0b60025460006040518563ffffffff1660e01b8152600401611a19949392919061355c565b600060405180830381600087803b158015611a3357600080fd5b505af1158015611a47573d6000803e3d6000fd5b505050508073ffffffffffffffffffffffffffffffffffffffff16635fe192c660025473c02aaa39b223fe8d0a0e5c4f27ead9083c756cc2600087806101c00190611a92919061303a565b6000016020810190611aa49190612279565b600242611ab19190613062565b6040518663ffffffff1660e01b8152600401611ad19594939291906135f6565b6020604051808303816000875af1158015611af0573d6000803e3d6000fd5b505050506040513d601f19601f82011682018060405250810190611b1491906131e9565b50505050565b60008073bea0e11282e2bb5893bece110cf199501e872bad9050600073c1e088fc1323b20bcbee9bd1b9fc9546db5624c59050600073ccc52959fbc0859321e78216c374911be3c50eb6905060008273ffffffffffffffffffffffffffffffffffffffff16633e465a2e876101c00151600001516040518263ffffffff1660e01b8152600401611baa9190612323565b602060405180830381865afa158015611bc7573d6000803e3d6000fd5b505050506040513d601f19601f82011682018060405250810190611beb91906131e9565b905060008373ffffffffffffffffffffffffffffffffffffffff1663c84c7727866002546040518363ffffffff1660e01b8152600401611c2c929190612f91565b602060405180830381865afa158015611c49573d6000803e3d6000fd5b505050506040513d601f19601f82011682018060405250810190611c6d91906131e9565b90506000620f4240670de0b6b3a76400008385611c8a9190612f5d565b611c949190613062565b611c9e9190613678565b905060006040518060200160405280600160ff168152509050600081604051602001611cca91906136d4565b60405160208183030381529060405290506000670de0b6b3a7640000848873ffffffffffffffffffffffffffffffffffffffff1663f09f4079858f61020001516040518363ffffffff1660e01b8152600401611d279291906136ef565b6020604051808303816000875af1158015611d46573d6000803e3d6000fd5b505050506040513d601f19601f82011682018060405250810190611d6a91906131e9565b611d749190613062565b611d7e9190613678565b9050809950505050505050505050919050565b611d9b8282610dc9565b611e1257611da881611e16565b611db68360001c6020611e43565b604051602001611dc7929190613805565b6040516020818303038152906040526040517f08c379a0000000000000000000000000000000000000000000000000000000008152600401611e099190613878565b60405180910390fd5b5050565b6060611e3c8273ffffffffffffffffffffffffffffffffffffffff16601460ff16611e43565b9050919050565b606060006002836002611e569190613062565b611e609190612f5d565b67ffffffffffffffff811115611e7957611e786125d8565b5b6040519080825280601f01601f191660200182016040528015611eab5781602001600182028036833780820191505090505b5090507f300000000000000000000000000000000000000000000000000000000000000081600081518110611ee357611ee2612ffc565b5b60200101907effffffffffffffffffffffffffffffffffffffffffffffffffffffffffffff1916908160001a9053507f780000000000000000000000000000000000000000000000000000000000000081600181518110611f4757611f46612ffc565b5b60200101907effffffffffffffffffffffffffffffffffffffffffffffffffffffffffffff1916908160001a90535060006001846002611f879190613062565b611f919190612f5d565b90505b6001811115612031577f3031323334353637383961626364656600000000000000000000000000000000600f861660108110611fd357611fd2612ffc565b5b1a60f81b828281518110611fea57611fe9612ffc565b5b60200101907effffffffffffffffffffffffffffffffffffffffffffffffffffffffffffff1916908160001a905350600485901c94508061202a9061389a565b9050611f94565b5060008414612075576040517f08c379a000000000000000000000000000000000000000000000000000000000815260040161206c9061390f565b60405180910390fd5b8091505092915050565b6000604051905090565b600080fd5b600080fd5b60007fffffffff0000000000000000000000000000000000000000000000000000000082169050919050565b6120c881612093565b81146120d357600080fd5b50565b6000813590506120e5816120bf565b92915050565b60006020828403121561210157612100612089565b5b600061210f848285016120d6565b91505092915050565b60008115159050919050565b61212d81612118565b82525050565b60006020820190506121486000830184612124565b92915050565b6000819050919050565b6121618161214e565b811461216c57600080fd5b50565b60008135905061217e81612158565b92915050565b60006020828403121561219a57612199612089565b5b60006121a88482850161216f565b91505092915050565b6121ba8161214e565b82525050565b60006020820190506121d560008301846121b1565b92915050565b600073ffffffffffffffffffffffffffffffffffffffff82169050919050565b6000612206826121db565b9050919050565b612216816121fb565b811461222157600080fd5b50565b6000813590506122338161220d565b92915050565b600080604083850312156122505761224f612089565b5b600061225e8582860161216f565b925050602061226f85828601612224565b9150509250929050565b60006020828403121561228f5761228e612089565b5b600061229d84828501612224565b91505092915050565b600080fd5b600061022082840312156122c2576122c16122a6565b5b81905092915050565b6000602082840312156122e1576122e0612089565b5b600082013567ffffffffffffffff8111156122ff576122fe61208e565b5b61230b848285016122ab565b91505092915050565b61231d816121fb565b82525050565b60006020820190506123386000830184612314565b92915050565b6000819050919050565b6123518161233e565b811461235c57600080fd5b50565b60008135905061236e81612348565b92915050565b6000806040838503121561238b5761238a612089565b5b600083013567ffffffffffffffff8111156123a9576123a861208e565b5b6123b5858286016122ab565b92505060206123c68582860161235f565b9150509250929050565b60006123db826121db565b9050919050565b6123eb816123d0565b81146123f657600080fd5b50565b600081359050612408816123e2565b92915050565b600080fd5b600080fd5b600080fd5b60008083601f8401126124335761243261240e565b5b8235905067ffffffffffffffff8111156124505761244f612413565b5b60208301915083600182028301111561246c5761246b612418565b5b9250929050565b61247c81612118565b811461248757600080fd5b50565b60008135905061249981612473565b92915050565b600080600080606085870312156124b9576124b8612089565b5b60006124c7878288016123f9565b945050602085013567ffffffffffffffff8111156124e8576124e761208e565b5b6124f48782880161241d565b935093505060406125078782880161248a565b91505092959194509250565b600081519050919050565b600082825260208201905092915050565b60005b8381101561254d578082015181840152602081019050612532565b60008484015250505050565b6000601f19601f8301169050919050565b600061257582612513565b61257f818561251e565b935061258f81856020860161252f565b61259881612559565b840191505092915050565b60006040820190506125b86000830185612124565b81810360208301526125ca818461256a565b90509392505050565b600080fd5b7f4e487b7100000000000000000000000000000000000000000000000000000000600052604160045260246000fd5b61261082612559565b810181811067ffffffffffffffff8211171561262f5761262e6125d8565b5b80604052505050565b600061264261207f565b905061264e8282612607565b919050565b600080fd5b600080fd5b600067ffffffffffffffff821115612678576126776125d8565b5b61268182612559565b9050602081019050919050565b82818337600083830152505050565b60006126b06126ab8461265d565b612638565b9050828152602081018484840111156126cc576126cb612658565b5b6126d784828561268e565b509392505050565b600082601f8301126126f4576126f361240e565b5b813561270484826020860161269d565b91505092915050565b600060408284031215612723576127226125d3565b5b61272d6040612638565b9050600061273d84828501612224565b600083015250602082013567ffffffffffffffff81111561276157612760612653565b5b61276d848285016126df565b60208301525092915050565b600061022082840312156127905761278f6125d3565b5b61279b610220612638565b905060006127ab8482850161235f565b60008301525060206127bf8482850161235f565b602083015250604082013567ffffffffffffffff8111156127e3576127e2612653565b5b6127ef848285016126df565b604083015250606082013567ffffffffffffffff81111561281357612812612653565b5b61281f848285016126df565b60608301525060806128338482850161235f565b60808301525060a06128478482850161235f565b60a08301525060c061285b8482850161248a565b60c08301525060e082013567ffffffffffffffff81111561287f5761287e612653565b5b61288b8482850161270d565b60e08301525061010082013567ffffffffffffffff8111156128b0576128af612653565b5b6128bc8482850161270d565b6101008301525061012082013567ffffffffffffffff8111156128e2576128e1612653565b5b6128ee8482850161270d565b6101208301525061014082013567ffffffffffffffff81111561291457612913612653565b5b6129208482850161270d565b6101408301525061016082013567ffffffffffffffff81111561294657612945612653565b5b6129528482850161270d565b6101608301525061018082013567ffffffffffffffff81111561297857612977612653565b5b6129848482850161270d565b610180830152506101a061299a84828501612224565b6101a0830152506101c082013567ffffffffffffffff8111156129c0576129bf612653565b5b6129cc8482850161270d565b6101c0830152506101e06129e28482850161235f565b6101e08301525061020082013567ffffffffffffffff811115612a0857612a07612653565b5b612a14848285016126df565b6102008301525092915050565b600060208284031215612a3757612a36612089565b5b600082013567ffffffffffffffff811115612a5557612a5461208e565b5b612a6184828501612779565b91505092915050565b612a738161233e565b82525050565b6000602082019050612a8e6000830184612a6a565b92915050565b600082825260208201905092915050565b7f416363657373436f6e74726f6c3a2063616e206f6e6c792072656e6f756e636560008201527f20726f6c657320666f722073656c660000000000000000000000000000000000602082015250565b6000612b01602f83612a94565b9150612b0c82612aa5565b604082019050919050565b60006020820190508181036000830152612b3081612af4565b9050919050565b7f65786563206e6f7420616c6c6f77656420696e20696d706c0000000000000000600082015250565b6000612b6d601883612a94565b9150612b7882612b37565b602082019050919050565b60006020820190508181036000830152612b9c81612b60565b9050919050565b6000604082019050612bb86000830185612314565b612bc56020830184612314565b9392505050565b7f65786563206e6f7420616c6c6f77656420696e2070726f787900000000000000600082015250565b6000612c02601983612a94565b9150612c0d82612bcc565b602082019050919050565b60006020820190508181036000830152612c3181612bf5565b9050919050565b600081905092915050565b6000612c4e82612513565b612c588185612c38565b9350612c6881856020860161252f565b80840191505092915050565b6000612c808284612c43565b915081905092915050565b7f637265617465436c6f6e653a20696e697469616c697a65206661696c00000000600082015250565b6000612cc1601c83612a94565b9150612ccc82612c8b565b602082019050919050565b60006020820190508181036000830152612cf081612cb4565b9050919050565b600081519050612d0681612348565b92915050565b600081600b0b9050919050565b612d2281612d0c565b8114612d2d57600080fd5b50565b600081519050612d3f81612d19565b92915050565b60008060408385031215612d5c57612d5b612089565b5b6000612d6a85828601612cf7565b9250506020612d7b85828601612d30565b9150509250929050565b7f496e697469616c697a61626c653a20636f6e747261637420697320616c72656160008201527f647920696e697469616c697a6564000000000000000000000000000000000000602082015250565b6000612de1602e83612a94565b9150612dec82612d85565b604082019050919050565b60006020820190508181036000830152612e1081612dd4565b9050919050565b7f73656e64657220213d20696d706c20636f6e7472616374000000000000000000600082015250565b6000612e4d601783612a94565b9150612e5882612e17565b602082019050919050565b60006020820190508181036000830152612e7c81612e40565b9050919050565b6000819050919050565b600060ff82169050919050565b6000819050919050565b6000612ebf612eba612eb584612e83565b612e9a565b612e8d565b9050919050565b612ecf81612ea4565b82525050565b6000602082019050612eea6000830184612ec6565b92915050565b6000612efc8385612c38565b9350612f0983858461268e565b82840190509392505050565b6000612f22828486612ef0565b91508190509392505050565b7f4e487b7100000000000000000000000000000000000000000000000000000000600052601160045260246000fd5b6000612f688261233e565b9150612f738361233e565b9250828201905080821115612f8b57612f8a612f2e565b5b92915050565b6000604082019050612fa66000830185612314565b612fb36020830184612a6a565b9392505050565b600081519050612fc981612473565b92915050565b600060208284031215612fe557612fe4612089565b5b6000612ff384828501612fba565b91505092915050565b7f4e487b7100000000000000000000000000000000000000000000000000000000600052603260045260246000fd5b600080fd5b600080fd5b600080fd5b6000823560016040038336030381126130565761305561302b565b5b80830191505092915050565b600061306d8261233e565b91506130788361233e565b92508282026130868161233e565b9150828204841483151761309d5761309c612f2e565b5b5092915050565b600081519050919050565b600082825260208201905092915050565b6000819050602082019050919050565b6130d98161233e565b82525050565b60006130eb83836130d0565b60208301905092915050565b6000602082019050919050565b600061310f826130a4565b61311981856130af565b9350613124836130c0565b8060005b8381101561315557815161313c88826130df565b9750613147836130f7565b925050600181019050613128565b5085935050505092915050565b6000819050919050565b600061318761318261317d84613162565b612e9a565b61233e565b9050919050565b6131978161316c565b82525050565b600060808201905081810360008301526131b78187613104565b90506131c6602083018661318e565b6131d36040830185612314565b6131e06060830184612a6a565b95945050505050565b6000602082840312156131ff576131fe612089565b5b600061320d84828501612cf7565b91505092915050565b7f4e487b7100000000000000000000000000000000000000000000000000000000600052602160045260246000fd5b6004811061325657613255613216565b5b50565b600081905061326782613245565b919050565b600061327782613259565b9050919050565b6132878161326c565b82525050565b60006060820190506132a26000830186612314565b6132af6020830185612a6a565b6132bc604083018461327e565b949350505050565b6000806000606084860312156132dd576132dc612089565b5b60006132eb86828701612cf7565b93505060206132fc86828701612cf7565b925050604061330d86828701612d30565b9150509250925092565b7f455243313136373a20637265617465206661696c656400000000000000000000600082015250565b600061334d601683612a94565b915061335882613317565b602082019050919050565b6000602082019050818103600083015261337c81613340565b9050919050565b600080833560016020038436030381126133a05761339f61302b565b5b80840192508235915067ffffffffffffffff8211156133c2576133c1613030565b5b6020830192506001820236038313156133de576133dd613035565b5b509250929050565b6133ef81612e8d565b81146133fa57600080fd5b50565b60008135905061340c816133e6565b92915050565b600060408284031215613428576134276125d3565b5b6134326040612638565b9050600061344284828501612224565b6000830152506020613456848285016133fd565b60208301525092915050565b60006040828403121561347857613477612089565b5b600061348684828501613412565b91505092915050565b600061349b838561251e565b93506134a883858461268e565b6134b183612559565b840190509392505050565b600060608201905081810360008301526134d781878961348f565b90506134e66020830186612a6a565b81810360408301526134f981848661348f565b90509695505050505050565b61350e81612d0c565b82525050565b6002811061352557613524613216565b5b50565b600081905061353682613514565b919050565b600061354682613528565b9050919050565b6135568161353b565b82525050565b60006080820190506135716000830187612314565b61357e6020830186613505565b61358b6040830185612a6a565b613598606083018461354d565b95945050505050565b60006135bc6135b76135b2846121db565b612e9a565b6121db565b9050919050565b60006135ce826135a1565b9050919050565b60006135e0826135c3565b9050919050565b6135f0816135d5565b82525050565b600060a08201905061360b6000830188612a6a565b61361860208301876135e7565b613625604083018661318e565b6136326060830185612314565b61363f6080830184612a6a565b9695505050505050565b7f4e487b7100000000000000000000000000000000000000000000000000000000600052601260045260246000fd5b60006136838261233e565b915061368e8361233e565b92508261369e5761369d613649565b5b828204905092915050565b6136b281612e8d565b82525050565b6020820160008201516136ce60008501826136a9565b50505050565b60006020820190506136e960008301846136b8565b92915050565b60006040820190508181036000830152613709818561256a565b9050818103602083015261371d818461256a565b90509392505050565b600081905092915050565b7f416363657373436f6e74726f6c3a206163636f756e7420000000000000000000600082015250565b6000613767601783613726565b915061377282613731565b601782019050919050565b600081519050919050565b60006137938261377d565b61379d8185613726565b93506137ad81856020860161252f565b80840191505092915050565b7f206973206d697373696e6720726f6c6520000000000000000000000000000000600082015250565b60006137ef601183613726565b91506137fa826137b9565b601182019050919050565b60006138108261375a565b915061381c8285613788565b9150613827826137e2565b91506138338284613788565b91508190509392505050565b600061384a8261377d565b6138548185612a94565b935061386481856020860161252f565b61386d81612559565b840191505092915050565b60006020820190508181036000830152613892818461383f565b905092915050565b60006138a58261233e565b9150600082036138b8576138b7612f2e565b5b600182039050919050565b7f537472696e67733a20686578206c656e67746820696e73756666696369656e74600082015250565b60006138f9602083612a94565b9150613904826138c3565b602082019050919050565b60006020820190508181036000830152613928816138ec565b905091905056fea2646970667358221220c513d4754c9b862741205a42401731acf7da4db7be41829d882b44588e07467564736f6c63430008130033",
  "linkReferences": {},
  "deployedLinkReferences": {}
}