{
  "_format": "hh-sol-artifact-1",
  "contractName": "BeanstalkSiloFactory",
  "sourceName": "src/plugins/position/implementations/BeanstalkSilo.sol",
  "abi": [
    {
      "inputs": [
        {
          "internalType": "address",
          "name": "protocolAddr",
          "type": "address"
        }
      ],
      "stateMutability": "nonpayable",
      "type": "constructor"
    },
    {
      "anonymous": false,
      "inputs": [
        {
          "indexed": false,
          "internalType": "address",
          "name": "clone",
          "type": "address"
        }
      ],
      "name": "CloneCreated",
      "type": "event"
    },
    {
      "anonymous": false,
      "inputs": [
        {
          "indexed": false,
          "internalType": "address",
          "name": "previousController",
          "type": "address"
        },
        {
          "indexed": false,
          "internalType": "address",
          "name": "newController",
          "type": "address"
        }
      ],
      "name": "ControlTransferred",
      "type": "event"
    },
    {
      "anonymous": false,
      "inputs": [
        {
          "indexed": false,
          "internalType": "uint8",
          "name": "version",
          "type": "uint8"
        }
      ],
      "name": "Initialized",
      "type": "event"
    },
    {
      "anonymous": false,
      "inputs": [
        {
          "indexed": true,
          "internalType": "bytes32",
          "name": "role",
          "type": "bytes32"
        },
        {
          "indexed": true,
          "internalType": "bytes32",
          "name": "previousAdminRole",
          "type": "bytes32"
        },
        {
          "indexed": true,
          "internalType": "bytes32",
          "name": "newAdminRole",
          "type": "bytes32"
        }
      ],
      "name": "RoleAdminChanged",
      "type": "event"
    },
    {
      "anonymous": false,
      "inputs": [
        {
          "indexed": true,
          "internalType": "bytes32",
          "name": "role",
          "type": "bytes32"
        },
        {
          "indexed": true,
          "internalType": "address",
          "name": "account",
          "type": "address"
        },
        {
          "indexed": true,
          "internalType": "address",
          "name": "sender",
          "type": "address"
        }
      ],
      "name": "RoleGranted",
      "type": "event"
    },
    {
      "anonymous": false,
      "inputs": [
        {
          "indexed": true,
          "internalType": "bytes32",
          "name": "role",
          "type": "bytes32"
        },
        {
          "indexed": true,
          "internalType": "address",
          "name": "account",
          "type": "address"
        },
        {
          "indexed": true,
          "internalType": "address",
          "name": "sender",
          "type": "address"
        }
      ],
      "name": "RoleRevoked",
      "type": "event"
    },
    {
      "inputs": [],
      "name": "BOOKKEEPER_ADDRESS",
      "outputs": [
        {
          "internalType": "address",
          "name": "",
          "type": "address"
        }
      ],
      "stateMutability": "view",
      "type": "function"
    },
    {
      "inputs": [],
      "name": "DEFAULT_ADMIN_ROLE",
      "outputs": [
        {
          "internalType": "bytes32",
          "name": "",
          "type": "bytes32"
        }
      ],
      "stateMutability": "view",
      "type": "function"
    },
    {
      "inputs": [],
      "name": "FACTORY_ADDRESS",
      "outputs": [
        {
          "internalType": "address",
          "name": "",
          "type": "address"
        }
      ],
      "stateMutability": "view",
      "type": "function"
    },
    {
      "inputs": [
        {
          "components": [
            {
              "internalType": "uint256",
              "name": "loanAmount",
              "type": "uint256"
            },
            {
              "internalType": "uint256",
              "name": "collAmount",
              "type": "uint256"
            },
            {
              "internalType": "bytes",
              "name": "loanAsset",
              "type": "bytes"
            },
            {
              "internalType": "bytes",
              "name": "collAsset",
              "type": "bytes"
            },
            {
              "internalType": "uint256",
              "name": "minCollateralRatio",
              "type": "uint256"
            },
            {
              "internalType": "uint256",
              "name": "maxDuration",
              "type": "uint256"
            },
            {
              "internalType": "bool",
              "name": "isLeverage",
              "type": "bool"
            },
            {
              "components": [
                {
                  "internalType": "address",
                  "name": "addr",
                  "type": "address"
                },
                {
                  "internalType": "bytes",
                  "name": "parameters",
                  "type": "bytes"
                }
              ],
              "internalType": "struct PluginReference",
              "name": "lenderAccount",
              "type": "tuple"
            },
            {
              "components": [
                {
                  "internalType": "address",
                  "name": "addr",
                  "type": "address"
                },
                {
                  "internalType": "bytes",
                  "name": "parameters",
                  "type": "bytes"
                }
              ],
              "internalType": "struct PluginReference",
              "name": "borrowerAccount",
              "type": "tuple"
            },
            {
              "components": [
                {
                  "internalType": "address",
                  "name": "addr",
                  "type": "address"
                },
                {
                  "internalType": "bytes",
                  "name": "parameters",
                  "type": "bytes"
                }
              ],
              "internalType": "struct PluginReference",
              "name": "assessor",
              "type": "tuple"
            },
            {
              "components": [
                {
                  "internalType": "address",
                  "name": "addr",
                  "type": "address"
                },
                {
                  "internalType": "bytes",
                  "name": "parameters",
                  "type": "bytes"
                }
              ],
              "internalType": "struct PluginReference",
              "name": "liquidator",
              "type": "tuple"
            },
            {
              "components": [
                {
                  "internalType": "address",
                  "name": "addr",
                  "type": "address"
                },
                {
                  "internalType": "bytes",
                  "name": "parameters",
                  "type": "bytes"
                }
              ],
              "internalType": "struct PluginReference",
              "name": "loanOracle",
              "type": "tuple"
            },
            {
              "components": [
                {
                  "internalType": "address",
                  "name": "addr",
                  "type": "address"
                },
                {
                  "internalType": "bytes",
                  "name": "parameters",
                  "type": "bytes"
                }
              ],
              "internalType": "struct PluginReference",
              "name": "collOracle",
              "type": "tuple"
            },
            {
              "internalType": "address",
              "name": "factory",
              "type": "address"
            },
            {
              "components": [
                {
                  "internalType": "address",
                  "name": "addr",
                  "type": "address"
                },
                {
                  "internalType": "bytes",
                  "name": "parameters",
                  "type": "bytes"
                }
              ],
              "internalType": "struct PluginReference",
              "name": "position",
              "type": "tuple"
            },
            {
              "internalType": "uint256",
              "name": "deploymentTime",
              "type": "uint256"
            },
            {
              "internalType": "bytes",
              "name": "fillerData",
              "type": "bytes"
            }
          ],
          "internalType": "struct Agreement",
          "name": "agreement",
          "type": "tuple"
        },
        {
          "internalType": "uint256",
          "name": "amountToClose",
          "type": "uint256"
        }
      ],
      "name": "close",
      "outputs": [],
      "stateMutability": "nonpayable",
      "type": "function"
    },
    {
      "inputs": [],
      "name": "createClone",
      "outputs": [
        {
          "internalType": "address",
          "name": "addr",
          "type": "address"
        }
      ],
      "stateMutability": "nonpayable",
      "type": "function"
    },
    {
      "inputs": [
        {
          "components": [
            {
              "internalType": "uint256",
              "name": "loanAmount",
              "type": "uint256"
            },
            {
              "internalType": "uint256",
              "name": "collAmount",
              "type": "uint256"
            },
            {
              "internalType": "bytes",
              "name": "loanAsset",
              "type": "bytes"
            },
            {
              "internalType": "bytes",
              "name": "collAsset",
              "type": "bytes"
            },
            {
              "internalType": "uint256",
              "name": "minCollateralRatio",
              "type": "uint256"
            },
            {
              "internalType": "uint256",
              "name": "maxDuration",
              "type": "uint256"
            },
            {
              "internalType": "bool",
              "name": "isLeverage",
              "type": "bool"
            },
            {
              "components": [
                {
                  "internalType": "address",
                  "name": "addr",
                  "type": "address"
                },
                {
                  "internalType": "bytes",
                  "name": "parameters",
                  "type": "bytes"
                }
              ],
              "internalType": "struct PluginReference",
              "name": "lenderAccount",
              "type": "tuple"
            },
            {
              "components": [
                {
                  "internalType": "address",
                  "name": "addr",
                  "type": "address"
                },
                {
                  "internalType": "bytes",
                  "name": "parameters",
                  "type": "bytes"
                }
              ],
              "internalType": "struct PluginReference",
              "name": "borrowerAccount",
              "type": "tuple"
            },
            {
              "components": [
                {
                  "internalType": "address",
                  "name": "addr",
                  "type": "address"
                },
                {
                  "internalType": "bytes",
                  "name": "parameters",
                  "type": "bytes"
                }
              ],
              "internalType": "struct PluginReference",
              "name": "assessor",
              "type": "tuple"
            },
            {
              "components": [
                {
                  "internalType": "address",
                  "name": "addr",
                  "type": "address"
                },
                {
                  "internalType": "bytes",
                  "name": "parameters",
                  "type": "bytes"
                }
              ],
              "internalType": "struct PluginReference",
              "name": "liquidator",
              "type": "tuple"
            },
            {
              "components": [
                {
                  "internalType": "address",
                  "name": "addr",
                  "type": "address"
                },
                {
                  "internalType": "bytes",
                  "name": "parameters",
                  "type": "bytes"
                }
              ],
              "internalType": "struct PluginReference",
              "name": "loanOracle",
              "type": "tuple"
            },
            {
              "components": [
                {
                  "internalType": "address",
                  "name": "addr",
                  "type": "address"
                },
                {
                  "internalType": "bytes",
                  "name": "parameters",
                  "type": "bytes"
                }
              ],
              "internalType": "struct PluginReference",
              "name": "collOracle",
              "type": "tuple"
            },
            {
              "internalType": "address",
              "name": "factory",
              "type": "address"
            },
            {
              "components": [
                {
                  "internalType": "address",
                  "name": "addr",
                  "type": "address"
                },
                {
                  "internalType": "bytes",
                  "name": "parameters",
                  "type": "bytes"
                }
              ],
              "internalType": "struct PluginReference",
              "name": "position",
              "type": "tuple"
            },
            {
              "internalType": "uint256",
              "name": "deploymentTime",
              "type": "uint256"
            },
            {
              "internalType": "bytes",
              "name": "fillerData",
              "type": "bytes"
            }
          ],
          "internalType": "struct Agreement",
          "name": "agreement",
          "type": "tuple"
        }
      ],
      "name": "getCloseAmount",
      "outputs": [
        {
          "internalType": "uint256",
          "name": "",
          "type": "uint256"
        }
      ],
      "stateMutability": "nonpayable",
      "type": "function"
    },
    {
      "inputs": [
        {
          "internalType": "bytes32",
          "name": "role",
          "type": "bytes32"
        }
      ],
      "name": "getRoleAdmin",
      "outputs": [
        {
          "internalType": "bytes32",
          "name": "",
          "type": "bytes32"
        }
      ],
      "stateMutability": "view",
      "type": "function"
    },
    {
      "inputs": [
        {
          "internalType": "bytes32",
          "name": "role",
          "type": "bytes32"
        },
        {
          "internalType": "address",
          "name": "account",
          "type": "address"
        }
      ],
      "name": "grantRole",
      "outputs": [],
      "stateMutability": "nonpayable",
      "type": "function"
    },
    {
      "inputs": [
        {
          "internalType": "bytes32",
          "name": "role",
          "type": "bytes32"
        },
        {
          "internalType": "address",
          "name": "account",
          "type": "address"
        }
      ],
      "name": "hasRole",
      "outputs": [
        {
          "internalType": "bool",
          "name": "",
          "type": "bool"
        }
      ],
      "stateMutability": "view",
      "type": "function"
    },
    {
      "inputs": [],
      "name": "initialize",
      "outputs": [],
      "stateMutability": "nonpayable",
      "type": "function"
    },
    {
      "inputs": [],
      "name": "mow",
      "outputs": [],
      "stateMutability": "payable",
      "type": "function"
    },
    {
      "inputs": [
        {
          "components": [
            {
              "internalType": "uint256",
              "name": "loanAmount",
              "type": "uint256"
            },
            {
              "internalType": "uint256",
              "name": "collAmount",
              "type": "uint256"
            },
            {
              "internalType": "bytes",
              "name": "loanAsset",
              "type": "bytes"
            },
            {
              "internalType": "bytes",
              "name": "collAsset",
              "type": "bytes"
            },
            {
              "internalType": "uint256",
              "name": "minCollateralRatio",
              "type": "uint256"
            },
            {
              "internalType": "uint256",
              "name": "maxDuration",
              "type": "uint256"
            },
            {
              "internalType": "bool",
              "name": "isLeverage",
              "type": "bool"
            },
            {
              "components": [
                {
                  "internalType": "address",
                  "name": "addr",
                  "type": "address"
                },
                {
                  "internalType": "bytes",
                  "name": "parameters",
                  "type": "bytes"
                }
              ],
              "internalType": "struct PluginReference",
              "name": "lenderAccount",
              "type": "tuple"
            },
            {
              "components": [
                {
                  "internalType": "address",
                  "name": "addr",
                  "type": "address"
                },
                {
                  "internalType": "bytes",
                  "name": "parameters",
                  "type": "bytes"
                }
              ],
              "internalType": "struct PluginReference",
              "name": "borrowerAccount",
              "type": "tuple"
            },
            {
              "components": [
                {
                  "internalType": "address",
                  "name": "addr",
                  "type": "address"
                },
                {
                  "internalType": "bytes",
                  "name": "parameters",
                  "type": "bytes"
                }
              ],
              "internalType": "struct PluginReference",
              "name": "assessor",
              "type": "tuple"
            },
            {
              "components": [
                {
                  "internalType": "address",
                  "name": "addr",
                  "type": "address"
                },
                {
                  "internalType": "bytes",
                  "name": "parameters",
                  "type": "bytes"
                }
              ],
              "internalType": "struct PluginReference",
              "name": "liquidator",
              "type": "tuple"
            },
            {
              "components": [
                {
                  "internalType": "address",
                  "name": "addr",
                  "type": "address"
                },
                {
                  "internalType": "bytes",
                  "name": "parameters",
                  "type": "bytes"
                }
              ],
              "internalType": "struct PluginReference",
              "name": "loanOracle",
              "type": "tuple"
            },
            {
              "components": [
                {
                  "internalType": "address",
                  "name": "addr",
                  "type": "address"
                },
                {
                  "internalType": "bytes",
                  "name": "parameters",
                  "type": "bytes"
                }
              ],
              "internalType": "struct PluginReference",
              "name": "collOracle",
              "type": "tuple"
            },
            {
              "internalType": "address",
              "name": "factory",
              "type": "address"
            },
            {
              "components": [
                {
                  "internalType": "address",
                  "name": "addr",
                  "type": "address"
                },
                {
                  "internalType": "bytes",
                  "name": "parameters",
                  "type": "bytes"
                }
              ],
              "internalType": "struct PluginReference",
              "name": "position",
              "type": "tuple"
            },
            {
              "internalType": "uint256",
              "name": "deploymentTime",
              "type": "uint256"
            },
            {
              "internalType": "bytes",
              "name": "fillerData",
              "type": "bytes"
            }
          ],
          "internalType": "struct Agreement",
          "name": "agreement",
          "type": "tuple"
        }
      ],
      "name": "open",
      "outputs": [],
      "stateMutability": "nonpayable",
      "type": "function"
    },
    {
      "inputs": [
        {
          "internalType": "bytes",
          "name": "liquidatorLogic",
          "type": "bytes"
        }
      ],
      "name": "passThrough",
      "outputs": [],
      "stateMutability": "payable",
      "type": "function"
    },
    {
      "inputs": [],
      "name": "plant",
      "outputs": [],
      "stateMutability": "payable",
      "type": "function"
    },
    {
      "inputs": [
        {
          "internalType": "bytes32",
          "name": "role",
          "type": "bytes32"
        },
        {
          "internalType": "address",
          "name": "account",
          "type": "address"
        }
      ],
      "name": "renounceRole",
      "outputs": [],
      "stateMutability": "nonpayable",
      "type": "function"
    },
    {
      "inputs": [
        {
          "internalType": "bytes32",
          "name": "role",
          "type": "bytes32"
        },
        {
          "internalType": "address",
          "name": "account",
          "type": "address"
        }
      ],
      "name": "revokeRole",
      "outputs": [],
      "stateMutability": "nonpayable",
      "type": "function"
    },
    {
      "inputs": [
        {
          "internalType": "bytes4",
          "name": "interfaceId",
          "type": "bytes4"
        }
      ],
      "name": "supportsInterface",
      "outputs": [
        {
          "internalType": "bool",
          "name": "",
          "type": "bool"
        }
      ],
      "stateMutability": "view",
      "type": "function"
    },
    {
      "inputs": [
        {
          "internalType": "address",
          "name": "controller",
          "type": "address"
        }
      ],
      "name": "transferContract",
      "outputs": [],
      "stateMutability": "nonpayable",
      "type": "function"
    },
    {
      "inputs": [
        {
          "components": [
            {
              "internalType": "uint256",
              "name": "loanAmount",
              "type": "uint256"
            },
            {
              "internalType": "uint256",
              "name": "collAmount",
              "type": "uint256"
            },
            {
              "internalType": "bytes",
              "name": "loanAsset",
              "type": "bytes"
            },
            {
              "internalType": "bytes",
              "name": "collAsset",
              "type": "bytes"
            },
            {
              "internalType": "uint256",
              "name": "minCollateralRatio",
              "type": "uint256"
            },
            {
              "internalType": "uint256",
              "name": "maxDuration",
              "type": "uint256"
            },
            {
              "internalType": "bool",
              "name": "isLeverage",
              "type": "bool"
            },
            {
              "components": [
                {
                  "internalType": "address",
                  "name": "addr",
                  "type": "address"
                },
                {
                  "internalType": "bytes",
                  "name": "parameters",
                  "type": "bytes"
                }
              ],
              "internalType": "struct PluginReference",
              "name": "lenderAccount",
              "type": "tuple"
            },
            {
              "components": [
                {
                  "internalType": "address",
                  "name": "addr",
                  "type": "address"
                },
                {
                  "internalType": "bytes",
                  "name": "parameters",
                  "type": "bytes"
                }
              ],
              "internalType": "struct PluginReference",
              "name": "borrowerAccount",
              "type": "tuple"
            },
            {
              "components": [
                {
                  "internalType": "address",
                  "name": "addr",
                  "type": "address"
                },
                {
                  "internalType": "bytes",
                  "name": "parameters",
                  "type": "bytes"
                }
              ],
              "internalType": "struct PluginReference",
              "name": "assessor",
              "type": "tuple"
            },
            {
              "components": [
                {
                  "internalType": "address",
                  "name": "addr",
                  "type": "address"
                },
                {
                  "internalType": "bytes",
                  "name": "parameters",
                  "type": "bytes"
                }
              ],
              "internalType": "struct PluginReference",
              "name": "liquidator",
              "type": "tuple"
            },
            {
              "components": [
                {
                  "internalType": "address",
                  "name": "addr",
                  "type": "address"
                },
                {
                  "internalType": "bytes",
                  "name": "parameters",
                  "type": "bytes"
                }
              ],
              "internalType": "struct PluginReference",
              "name": "loanOracle",
              "type": "tuple"
            },
            {
              "components": [
                {
                  "internalType": "address",
                  "name": "addr",
                  "type": "address"
                },
                {
                  "internalType": "bytes",
                  "name": "parameters",
                  "type": "bytes"
                }
              ],
              "internalType": "struct PluginReference",
              "name": "collOracle",
              "type": "tuple"
            },
            {
              "internalType": "address",
              "name": "factory",
              "type": "address"
            },
            {
              "components": [
                {
                  "internalType": "address",
                  "name": "addr",
                  "type": "address"
                },
                {
                  "internalType": "bytes",
                  "name": "parameters",
                  "type": "bytes"
                }
              ],
              "internalType": "struct PluginReference",
              "name": "position",
              "type": "tuple"
            },
            {
              "internalType": "uint256",
              "name": "deploymentTime",
              "type": "uint256"
            },
            {
              "internalType": "bytes",
              "name": "fillerData",
              "type": "bytes"
            }
          ],
          "internalType": "struct Agreement",
          "name": "agreement",
          "type": "tuple"
        }
      ],
      "name": "unwind",
      "outputs": [],
      "stateMutability": "nonpayable",
      "type": "function"
    },
    {
      "stateMutability": "payable",
      "type": "receive"
    }
  ],
  "bytecode": "0x60c06040523480156200001157600080fd5b50604051620043a2380380620043a2833981810160405281019062000037919062000398565b808062000049620000ee60201b60201c565b8073ffffffffffffffffffffffffffffffffffffffff1660808173ffffffffffffffffffffffffffffffffffffffff16815250503073ffffffffffffffffffffffffffffffffffffffff1660a08173ffffffffffffffffffffffffffffffffffffffff1681525050620000e57f03c7040f8e5b938f657d4600d08b1b77f390141994844cbb34ff043f26ac6cd7608051620001b560201b60201c565b505050620004ae565b60018054906101000a900460ff16156200013f576040517f08c379a0000000000000000000000000000000000000000000000000000000008152600401620001369062000451565b60405180910390fd5b60ff8016600160009054906101000a900460ff1660ff1614620001b35760ff600160006101000a81548160ff021916908360ff1602179055507f7f26b83ff96e1f2b6a682f133852f6798a09c465da95921460cefb384740249860ff604051620001aa919062000491565b60405180910390a15b565b620001c78282620001cb60201b60201c565b5050565b620001dd8282620002bc60201b60201c565b620002b857600160008084815260200190815260200160002060000160008373ffffffffffffffffffffffffffffffffffffffff1673ffffffffffffffffffffffffffffffffffffffff16815260200190815260200160002060006101000a81548160ff0219169083151502179055506200025d6200032660201b60201c565b73ffffffffffffffffffffffffffffffffffffffff168173ffffffffffffffffffffffffffffffffffffffff16837f2f8788117e7eff1d82e926ec794901d17c78024a50270940304540a733656f0d60405160405180910390a45b5050565b600080600084815260200190815260200160002060000160008373ffffffffffffffffffffffffffffffffffffffff1673ffffffffffffffffffffffffffffffffffffffff16815260200190815260200160002060009054906101000a900460ff16905092915050565b600033905090565b600080fd5b600073ffffffffffffffffffffffffffffffffffffffff82169050919050565b6000620003608262000333565b9050919050565b620003728162000353565b81146200037e57600080fd5b50565b600081519050620003928162000367565b92915050565b600060208284031215620003b157620003b06200032e565b5b6000620003c18482850162000381565b91505092915050565b600082825260208201905092915050565b7f496e697469616c697a61626c653a20636f6e747261637420697320696e69746960008201527f616c697a696e6700000000000000000000000000000000000000000000000000602082015250565b600062000439602783620003ca565b91506200044682620003db565b604082019050919050565b600060208201905081810360008301526200046c816200042a565b9050919050565b600060ff82169050919050565b6200048b8162000473565b82525050565b6000602082019050620004a8600083018462000480565b92915050565b60805160a051613e886200051a600039600081816105690152818161065b015281816107050152818161093301528181610b4501528181610bd301528181610cea01528181610d0e01528181610eee01526111e5015260008181610c680152610e270152613e886000f3fe6080604052600436106101185760003560e01c80638129fc1c116100a0578063a299292511610064578063a299292514610373578063a5ba5a221461039e578063be52bce7146103a8578063d547741f146103c4578063edd9e4b5146103ed5761011f565b80638129fc1c146102a05780638823151b146102b75780638f9acff3146102e257806391d148541461030b578063a217fddf146103485761011f565b806347635dac116100e757806347635dac146101f05780635aa564091461021957806364f2d4b9146102425780636c3fc8311461026d578063779b3c5c146102965761011f565b806301ffc9a714610124578063248a9ca3146101615780632f2ff15d1461019e57806336568abe146101c75761011f565b3661011f57005b600080fd5b34801561013057600080fd5b5061014b6004803603810190610146919061221b565b61042a565b6040516101589190612263565b60405180910390f35b34801561016d57600080fd5b50610188600480360381019061018391906122b4565b6104a4565b60405161019591906122f0565b60405180910390f35b3480156101aa57600080fd5b506101c560048036038101906101c09190612369565b6104c3565b005b3480156101d357600080fd5b506101ee60048036038101906101e99190612369565b6104e4565b005b3480156101fc57600080fd5b50610217600480360381019061021291906123a9565b610567565b005b34801561022557600080fd5b50610240600480360381019061023b91906123fb565b610659565b005b34801561024e57600080fd5b50610257610701565b6040516102649190612453565b60405180910390f35b34801561027957600080fd5b50610294600480360381019061028f91906124a4565b610931565b005b61029e6109db565b005b3480156102ac57600080fd5b506102b5610a69565b005b3480156102c357600080fd5b506102cc610ce8565b6040516102d99190612453565b60405180910390f35b3480156102ee57600080fd5b50610309600480360381019061030491906123fb565b610d0c565b005b34801561031757600080fd5b50610332600480360381019061032d9190612369565b610db4565b60405161033f9190612263565b60405180910390f35b34801561035457600080fd5b5061035d610e1e565b60405161036a91906122f0565b60405180910390f35b34801561037f57600080fd5b50610388610e25565b6040516103959190612453565b60405180910390f35b6103a6610e49565b005b6103c260048036038101906103bd9190612565565b610eec565b005b3480156103d057600080fd5b506103eb60048036038101906103e69190612369565b6111c0565b005b3480156103f957600080fd5b50610414600480360381019061040f9190612a3d565b6111e1565b6040516104219190612a95565b60405180910390f35b60007f7965db0b000000000000000000000000000000000000000000000000000000007bffffffffffffffffffffffffffffffffffffffffffffffffffffffff1916827bffffffffffffffffffffffffffffffffffffffffffffffffffffffff1916148061049d575061049c82611281565b5b9050919050565b6000806000838152602001908152602001600020600101549050919050565b6104cc826104a4565b6104d5816112eb565b6104df83836112ff565b505050565b6104ec6113df565b73ffffffffffffffffffffffffffffffffffffffff168173ffffffffffffffffffffffffffffffffffffffff1614610559576040517f08c379a000000000000000000000000000000000000000000000000000000000815260040161055090612b33565b60405180910390fd5b61056382826113e7565b5050565b7f000000000000000000000000000000000000000000000000000000000000000073ffffffffffffffffffffffffffffffffffffffff163073ffffffffffffffffffffffffffffffffffffffff16036105f5576040517f08c379a00000000000000000000000000000000000000000000000000000000081526004016105ec90612b9f565b60405180910390fd5b6000801b610602816112eb565b61060f6000801b836104c3565b61061c6000801b336104e4565b7fa06677f7b64342b4bcbde423684dbdb5356acfe41ad0285b6ecbe6dc4bf427f2338360405161064d929190612bbf565b60405180910390a15050565b7f000000000000000000000000000000000000000000000000000000000000000073ffffffffffffffffffffffffffffffffffffffff163073ffffffffffffffffffffffffffffffffffffffff16036106e7576040517f08c379a00000000000000000000000000000000000000000000000000000000081526004016106de90612b9f565b60405180910390fd5b6000801b6106f4816112eb565b6106fd826114c8565b5050565b60007f000000000000000000000000000000000000000000000000000000000000000073ffffffffffffffffffffffffffffffffffffffff163073ffffffffffffffffffffffffffffffffffffffff1614610791576040517f08c379a000000000000000000000000000000000000000000000000000000000815260040161078890612c34565b60405180910390fd5b7f03c7040f8e5b938f657d4600d08b1b77f390141994844cbb34ff043f26ac6cd76107bb816112eb565b6107c430611842565b915060008273ffffffffffffffffffffffffffffffffffffffff166040516024016040516020818303038152906040527f8129fc1c000000000000000000000000000000000000000000000000000000007bffffffffffffffffffffffffffffffffffffffffffffffffffffffff19166020820180517bffffffffffffffffffffffffffffffffffffffffffffffffffffffff838183161783525050505060405161086f9190612cc5565b6000604051808303816000865af19150503d80600081146108ac576040519150601f19603f3d011682016040523d82523d6000602084013e6108b1565b606091505b50509050806108f5576040517f08c379a00000000000000000000000000000000000000000000000000000000081526004016108ec90612d28565b60405180910390fd5b7fbe2f3d28fdeb5839123d65fd47ec2f5915c715d2b527b9e229123706fdecfc85836040516109249190612453565b60405180910390a1505090565b7f000000000000000000000000000000000000000000000000000000000000000073ffffffffffffffffffffffffffffffffffffffff163073ffffffffffffffffffffffffffffffffffffffff16036109bf576040517f08c379a00000000000000000000000000000000000000000000000000000000081526004016109b690612b9f565b60405180910390fd5b6000801b6109cc816112eb565b6109d683836118fc565b505050565b600073c1e088fc1323b20bcbee9bd1b9fc9546db5624c590508073ffffffffffffffffffffffffffffffffffffffff1663779b3c5c6040518163ffffffff1660e01b815260040160408051808303816000875af1158015610a40573d6000803e3d6000fd5b505050506040513d601f19601f82011682018060405250810190610a649190612d96565b505050565b600060018054906101000a900460ff16159050808015610a9a575060018060009054906101000a900460ff1660ff16105b80610ac85750610aa930611a95565b158015610ac7575060018060009054906101000a900460ff1660ff16145b5b610b07576040517f08c379a0000000000000000000000000000000000000000000000000000000008152600401610afe90612e48565b60405180910390fd5b60018060006101000a81548160ff021916908360ff1602179055508015610b435760018060016101000a81548160ff0219169083151502179055505b7f000000000000000000000000000000000000000000000000000000000000000073ffffffffffffffffffffffffffffffffffffffff163073ffffffffffffffffffffffffffffffffffffffff1603610bd1576040517f08c379a0000000000000000000000000000000000000000000000000000000008152600401610bc890612b9f565b60405180910390fd5b7f000000000000000000000000000000000000000000000000000000000000000073ffffffffffffffffffffffffffffffffffffffff163373ffffffffffffffffffffffffffffffffffffffff1614610c5f576040517f08c379a0000000000000000000000000000000000000000000000000000000008152600401610c5690612eb4565b60405180910390fd5b610c8c6000801b7f0000000000000000000000000000000000000000000000000000000000000000611ab8565b8015610ce55760006001806101000a81548160ff0219169083151502179055507f7f26b83ff96e1f2b6a682f133852f6798a09c465da95921460cefb38474024986001604051610cdc9190612f26565b60405180910390a15b50565b7f000000000000000000000000000000000000000000000000000000000000000081565b7f000000000000000000000000000000000000000000000000000000000000000073ffffffffffffffffffffffffffffffffffffffff163073ffffffffffffffffffffffffffffffffffffffff1603610d9a576040517f08c379a0000000000000000000000000000000000000000000000000000000008152600401610d9190612b9f565b60405180910390fd5b6000801b610da7816112eb565b610db082611ac6565b5050565b600080600084815260200190815260200160002060000160008373ffffffffffffffffffffffffffffffffffffffff1673ffffffffffffffffffffffffffffffffffffffff16815260200190815260200160002060009054906101000a900460ff16905092915050565b6000801b81565b7f000000000000000000000000000000000000000000000000000000000000000081565b600073bea0e11282e2bb5893bece110cf199501e872bad9050600073c1e088fc1323b20bcbee9bd1b9fc9546db5624c590508073ffffffffffffffffffffffffffffffffffffffff1663150d517333846040518363ffffffff1660e01b8152600401610eb6929190612bbf565b600060405180830381600087803b158015610ed057600080fd5b505af1158015610ee4573d6000803e3d6000fd5b505050505050565b7f000000000000000000000000000000000000000000000000000000000000000073ffffffffffffffffffffffffffffffffffffffff163073ffffffffffffffffffffffffffffffffffffffff1603610f7a576040517f08c379a0000000000000000000000000000000000000000000000000000000008152600401610f7190612b9f565b60405180910390fd5b6000801b610f87816112eb565b60008383810190610f98919061329e565b905060005b8160000151518110156111b95781604001518181518110610fc157610fc06132e7565b5b60200260200101516110bd57600082600001518281518110610fe657610fe56132e7565b5b602002602001015173ffffffffffffffffffffffffffffffffffffffff16348460200151848151811061101c5761101b6132e7565b5b60200260200101516040516110319190612cc5565b60006040518083038185875af1925050503d806000811461106e576040519150601f19603f3d011682016040523d82523d6000602084013e611073565b606091505b50509050806110b7576040517f08c379a00000000000000000000000000000000000000000000000000000000081526004016110ae90613362565b60405180910390fd5b506111a6565b6000826000015182815181106110d6576110d56132e7565b5b602002602001015173ffffffffffffffffffffffffffffffffffffffff168360200151838151811061110b5761110a6132e7565b5b60200260200101516040516111209190612cc5565b600060405180830381855af49150503d806000811461115b576040519150601f19603f3d011682016040523d82523d6000602084013e611160565b606091505b50509050806111a4576040517f08c379a000000000000000000000000000000000000000000000000000000000815260040161119b906133ce565b60405180910390fd5b505b80806111b19061341d565b915050610f9d565b5050505050565b6111c9826104a4565b6111d2816112eb565b6111dc83836113e7565b505050565b60007f000000000000000000000000000000000000000000000000000000000000000073ffffffffffffffffffffffffffffffffffffffff163073ffffffffffffffffffffffffffffffffffffffff1603611271576040517f08c379a000000000000000000000000000000000000000000000000000000000815260040161126890612b9f565b60405180910390fd5b61127a82611c4a565b9050919050565b60007f01ffc9a7000000000000000000000000000000000000000000000000000000007bffffffffffffffffffffffffffffffffffffffffffffffffffffffff1916827bffffffffffffffffffffffffffffffffffffffffffffffffffffffff1916149050919050565b6112fc816112f76113df565b611ec1565b50565b6113098282610db4565b6113db57600160008084815260200190815260200160002060000160008373ffffffffffffffffffffffffffffffffffffffff1673ffffffffffffffffffffffffffffffffffffffff16815260200190815260200160002060006101000a81548160ff0219169083151502179055506113806113df565b73ffffffffffffffffffffffffffffffffffffffff168173ffffffffffffffffffffffffffffffffffffffff16837f2f8788117e7eff1d82e926ec794901d17c78024a50270940304540a733656f0d60405160405180910390a45b5050565b600033905090565b6113f18282610db4565b156114c457600080600084815260200190815260200160002060000160008373ffffffffffffffffffffffffffffffffffffffff1673ffffffffffffffffffffffffffffffffffffffff16815260200190815260200160002060006101000a81548160ff0219169083151502179055506114696113df565b73ffffffffffffffffffffffffffffffffffffffff168173ffffffffffffffffffffffffffffffffffffffff16837ff6391f5c32d9c69d2a47ea670b442974b53935d1edc7fd64eb21e047a839171b60405160405180910390a45b5050565b600073bea0e11282e2bb5893bece110cf199501e872bad9050600073c1e088fc1323b20bcbee9bd1b9fc9546db5624c590506000836020013584600001356115109190613465565b90506000737b79995e5f793a07bc00c21412e50ecae098e7f990508073ffffffffffffffffffffffffffffffffffffffff1663095ea7b385846040518363ffffffff1660e01b8152600401611566929190613499565b6020604051808303816000875af1158015611585573d6000803e3d6000fd5b505050506040513d601f19601f820116820180604052508101906115a991906134d7565b506000600267ffffffffffffffff8111156115c7576115c66125c8565b5b6040519080825280602002602001820160405280156115f55781602001602082028036833780820191505090505b50905060008160008151811061160e5761160d6132e7565b5b602002602001018181525050828160018151811061162f5761162e6132e7565b5b60200260200101818152505060008573ffffffffffffffffffffffffffffffffffffffff1663cb9c78448360008a806101c0019061166d9190613513565b600001602081019061167f91906123a9565b60024261168c919061353b565b6040518563ffffffff1660e01b81526004016116ab9493929190613676565b6020604051808303816000875af11580156116ca573d6000803e3d6000fd5b505050506040513d601f19601f820116820180604052508101906116ee91906136c2565b905060008690508073ffffffffffffffffffffffffffffffffffffffff1663095ea7b387846040518363ffffffff1660e01b8152600401611730929190613499565b6020604051808303816000875af115801561174f573d6000803e3d6000fd5b505050506040513d601f19601f8201168201806040525081019061177391906134d7565b508573ffffffffffffffffffffffffffffffffffffffff1663f19ed6be888460006040518463ffffffff1660e01b81526004016117b293929190613766565b6060604051808303816000875af11580156117d1573d6000803e3d6000fd5b505050506040513d601f19601f820116820180604052508101906117f5919061379d565b9091509050600360008291906101000a8154816bffffffffffffffffffffffff0219169083600b0b6bffffffffffffffffffffffff16021790555050816002819055505050505050505050565b6000763d602d80600a3d3981f3363d3d373d3d3d363d730000008260601b60e81c176000526e5af43d82803e903d91602b57fd5bf38260781b17602052603760096000f09050600073ffffffffffffffffffffffffffffffffffffffff168173ffffffffffffffffffffffffffffffffffffffff16036118f7576040517f08c379a00000000000000000000000000000000000000000000000000000000081526004016118ee9061383c565b60405180910390fd5b919050565b600082806040019061190e919061385c565b81019061191b919061393b565b90506000816000015190506000831115611a8f578073ffffffffffffffffffffffffffffffffffffffff1663095ea7b3858060e0019061195b9190613513565b600001602081019061196d91906123a9565b856040518363ffffffff1660e01b815260040161198b929190613499565b6020604051808303816000875af11580156119aa573d6000803e3d6000fd5b505050506040513d601f19601f820116820180604052508101906119ce91906134d7565b50838060e001906119df9190613513565b60000160208101906119f191906123a9565b73ffffffffffffffffffffffffffffffffffffffff166306b1c4c9858060400190611a1c919061385c565b86888060e00190611a2d9190613513565b8060200190611a3c919061385c565b6040518663ffffffff1660e01b8152600401611a5c9594939291906139a6565b600060405180830381600087803b158015611a7657600080fd5b505af1158015611a8a573d6000803e3d6000fd5b505050505b50505050565b6000808273ffffffffffffffffffffffffffffffffffffffff163b119050919050565b611ac282826112ff565b5050565b600073c1e088fc1323b20bcbee9bd1b9fc9546db5624c59050600073bea0e11282e2bb5893bece110cf199501e872bad90508173ffffffffffffffffffffffffffffffffffffffff1663e348f82b82600360009054906101000a9004600b0b60025460006040518563ffffffff1660e01b8152600401611b499493929190613a46565b600060405180830381600087803b158015611b6357600080fd5b505af1158015611b77573d6000803e3d6000fd5b505050508073ffffffffffffffffffffffffffffffffffffffff16635fe192c6600254737b79995e5f793a07bc00c21412e50ecae098e7f9600087806101c00190611bc29190613513565b6000016020810190611bd491906123a9565b600242611be1919061353b565b6040518663ffffffff1660e01b8152600401611c01959493929190613ae0565b6020604051808303816000875af1158015611c20573d6000803e3d6000fd5b505050506040513d601f19601f82011682018060405250810190611c4491906136c2565b50505050565b60008073bea0e11282e2bb5893bece110cf199501e872bad9050600073c1e088fc1323b20bcbee9bd1b9fc9546db5624c59050600073ccc52959fbc0859321e78216c374911be3c50eb6905060008273ffffffffffffffffffffffffffffffffffffffff16633e465a2e876101c00151600001516040518263ffffffff1660e01b8152600401611cda9190612453565b602060405180830381865afa158015611cf7573d6000803e3d6000fd5b505050506040513d601f19601f82011682018060405250810190611d1b91906136c2565b905060008373ffffffffffffffffffffffffffffffffffffffff1663c84c7727866002546040518363ffffffff1660e01b8152600401611d5c929190613499565b602060405180830381865afa158015611d79573d6000803e3d6000fd5b505050506040513d601f19601f82011682018060405250810190611d9d91906136c2565b90506000620f4240670de0b6b3a76400008385611dba9190613465565b611dc4919061353b565b611dce9190613b62565b905060006040518060200160405280600160ff168152509050600081604051602001611dfa9190613bbe565b60405160208183030381529060405290506000670de0b6b3a7640000848873ffffffffffffffffffffffffffffffffffffffff1663f09f4079858f61020001516040518363ffffffff1660e01b8152600401611e57929190613c12565b6020604051808303816000875af1158015611e76573d6000803e3d6000fd5b505050506040513d601f19601f82011682018060405250810190611e9a91906136c2565b611ea4919061353b565b611eae9190613b62565b9050809950505050505050505050919050565b611ecb8282610db4565b611f4257611ed881611f46565b611ee68360001c6020611f73565b604051602001611ef7929190613d28565b6040516020818303038152906040526040517f08c379a0000000000000000000000000000000000000000000000000000000008152600401611f399190613d9b565b60405180910390fd5b5050565b6060611f6c8273ffffffffffffffffffffffffffffffffffffffff16601460ff16611f73565b9050919050565b606060006002836002611f86919061353b565b611f909190613465565b67ffffffffffffffff811115611fa957611fa86125c8565b5b6040519080825280601f01601f191660200182016040528015611fdb5781602001600182028036833780820191505090505b5090507f300000000000000000000000000000000000000000000000000000000000000081600081518110612013576120126132e7565b5b60200101907effffffffffffffffffffffffffffffffffffffffffffffffffffffffffffff1916908160001a9053507f780000000000000000000000000000000000000000000000000000000000000081600181518110612077576120766132e7565b5b60200101907effffffffffffffffffffffffffffffffffffffffffffffffffffffffffffff1916908160001a905350600060018460026120b7919061353b565b6120c19190613465565b90505b6001811115612161577f3031323334353637383961626364656600000000000000000000000000000000600f861660108110612103576121026132e7565b5b1a60f81b82828151811061211a576121196132e7565b5b60200101907effffffffffffffffffffffffffffffffffffffffffffffffffffffffffffff1916908160001a905350600485901c94508061215a90613dbd565b90506120c4565b50600084146121a5576040517f08c379a000000000000000000000000000000000000000000000000000000000815260040161219c90613e32565b60405180910390fd5b8091505092915050565b6000604051905090565b600080fd5b600080fd5b60007fffffffff0000000000000000000000000000000000000000000000000000000082169050919050565b6121f8816121c3565b811461220357600080fd5b50565b600081359050612215816121ef565b92915050565b600060208284031215612231576122306121b9565b5b600061223f84828501612206565b91505092915050565b60008115159050919050565b61225d81612248565b82525050565b60006020820190506122786000830184612254565b92915050565b6000819050919050565b6122918161227e565b811461229c57600080fd5b50565b6000813590506122ae81612288565b92915050565b6000602082840312156122ca576122c96121b9565b5b60006122d88482850161229f565b91505092915050565b6122ea8161227e565b82525050565b600060208201905061230560008301846122e1565b92915050565b600073ffffffffffffffffffffffffffffffffffffffff82169050919050565b60006123368261230b565b9050919050565b6123468161232b565b811461235157600080fd5b50565b6000813590506123638161233d565b92915050565b600080604083850312156123805761237f6121b9565b5b600061238e8582860161229f565b925050602061239f85828601612354565b9150509250929050565b6000602082840312156123bf576123be6121b9565b5b60006123cd84828501612354565b91505092915050565b600080fd5b600061022082840312156123f2576123f16123d6565b5b81905092915050565b600060208284031215612411576124106121b9565b5b600082013567ffffffffffffffff81111561242f5761242e6121be565b5b61243b848285016123db565b91505092915050565b61244d8161232b565b82525050565b60006020820190506124686000830184612444565b92915050565b6000819050919050565b6124818161246e565b811461248c57600080fd5b50565b60008135905061249e81612478565b92915050565b600080604083850312156124bb576124ba6121b9565b5b600083013567ffffffffffffffff8111156124d9576124d86121be565b5b6124e5858286016123db565b92505060206124f68582860161248f565b9150509250929050565b600080fd5b600080fd5b600080fd5b60008083601f84011261252557612524612500565b5b8235905067ffffffffffffffff81111561254257612541612505565b5b60208301915083600182028301111561255e5761255d61250a565b5b9250929050565b6000806020838503121561257c5761257b6121b9565b5b600083013567ffffffffffffffff81111561259a576125996121be565b5b6125a68582860161250f565b92509250509250929050565b600080fd5b6000601f19601f8301169050919050565b7f4e487b7100000000000000000000000000000000000000000000000000000000600052604160045260246000fd5b612600826125b7565b810181811067ffffffffffffffff8211171561261f5761261e6125c8565b5b80604052505050565b60006126326121af565b905061263e82826125f7565b919050565b600080fd5b600080fd5b600067ffffffffffffffff821115612668576126676125c8565b5b612671826125b7565b9050602081019050919050565b82818337600083830152505050565b60006126a061269b8461264d565b612628565b9050828152602081018484840111156126bc576126bb612648565b5b6126c784828561267e565b509392505050565b600082601f8301126126e4576126e3612500565b5b81356126f484826020860161268d565b91505092915050565b61270681612248565b811461271157600080fd5b50565b600081359050612723816126fd565b92915050565b60006040828403121561273f5761273e6125b2565b5b6127496040612628565b9050600061275984828501612354565b600083015250602082013567ffffffffffffffff81111561277d5761277c612643565b5b612789848285016126cf565b60208301525092915050565b600061022082840312156127ac576127ab6125b2565b5b6127b7610220612628565b905060006127c78482850161248f565b60008301525060206127db8482850161248f565b602083015250604082013567ffffffffffffffff8111156127ff576127fe612643565b5b61280b848285016126cf565b604083015250606082013567ffffffffffffffff81111561282f5761282e612643565b5b61283b848285016126cf565b606083015250608061284f8482850161248f565b60808301525060a06128638482850161248f565b60a08301525060c061287784828501612714565b60c08301525060e082013567ffffffffffffffff81111561289b5761289a612643565b5b6128a784828501612729565b60e08301525061010082013567ffffffffffffffff8111156128cc576128cb612643565b5b6128d884828501612729565b6101008301525061012082013567ffffffffffffffff8111156128fe576128fd612643565b5b61290a84828501612729565b6101208301525061014082013567ffffffffffffffff8111156129305761292f612643565b5b61293c84828501612729565b6101408301525061016082013567ffffffffffffffff81111561296257612961612643565b5b61296e84828501612729565b6101608301525061018082013567ffffffffffffffff81111561299457612993612643565b5b6129a084828501612729565b610180830152506101a06129b684828501612354565b6101a0830152506101c082013567ffffffffffffffff8111156129dc576129db612643565b5b6129e884828501612729565b6101c0830152506101e06129fe8482850161248f565b6101e08301525061020082013567ffffffffffffffff811115612a2457612a23612643565b5b612a30848285016126cf565b6102008301525092915050565b600060208284031215612a5357612a526121b9565b5b600082013567ffffffffffffffff811115612a7157612a706121be565b5b612a7d84828501612795565b91505092915050565b612a8f8161246e565b82525050565b6000602082019050612aaa6000830184612a86565b92915050565b600082825260208201905092915050565b7f416363657373436f6e74726f6c3a2063616e206f6e6c792072656e6f756e636560008201527f20726f6c657320666f722073656c660000000000000000000000000000000000602082015250565b6000612b1d602f83612ab0565b9150612b2882612ac1565b604082019050919050565b60006020820190508181036000830152612b4c81612b10565b9050919050565b7f65786563206e6f7420616c6c6f77656420696e20696d706c0000000000000000600082015250565b6000612b89601883612ab0565b9150612b9482612b53565b602082019050919050565b60006020820190508181036000830152612bb881612b7c565b9050919050565b6000604082019050612bd46000830185612444565b612be16020830184612444565b9392505050565b7f65786563206e6f7420616c6c6f77656420696e2070726f787900000000000000600082015250565b6000612c1e601983612ab0565b9150612c2982612be8565b602082019050919050565b60006020820190508181036000830152612c4d81612c11565b9050919050565b600081519050919050565b600081905092915050565b60005b83811015612c88578082015181840152602081019050612c6d565b60008484015250505050565b6000612c9f82612c54565b612ca98185612c5f565b9350612cb9818560208601612c6a565b80840191505092915050565b6000612cd18284612c94565b915081905092915050565b7f637265617465436c6f6e653a20696e697469616c697a65206661696c00000000600082015250565b6000612d12601c83612ab0565b9150612d1d82612cdc565b602082019050919050565b60006020820190508181036000830152612d4181612d05565b9050919050565b600081519050612d5781612478565b92915050565b600081600b0b9050919050565b612d7381612d5d565b8114612d7e57600080fd5b50565b600081519050612d9081612d6a565b92915050565b60008060408385031215612dad57612dac6121b9565b5b6000612dbb85828601612d48565b9250506020612dcc85828601612d81565b9150509250929050565b7f496e697469616c697a61626c653a20636f6e747261637420697320616c72656160008201527f647920696e697469616c697a6564000000000000000000000000000000000000602082015250565b6000612e32602e83612ab0565b9150612e3d82612dd6565b604082019050919050565b60006020820190508181036000830152612e6181612e25565b9050919050565b7f73656e64657220213d20696d706c20636f6e7472616374000000000000000000600082015250565b6000612e9e601783612ab0565b9150612ea982612e68565b602082019050919050565b60006020820190508181036000830152612ecd81612e91565b9050919050565b6000819050919050565b600060ff82169050919050565b6000819050919050565b6000612f10612f0b612f0684612ed4565b612eeb565b612ede565b9050919050565b612f2081612ef5565b82525050565b6000602082019050612f3b6000830184612f17565b92915050565b600067ffffffffffffffff821115612f5c57612f5b6125c8565b5b602082029050602081019050919050565b6000612f788261230b565b9050919050565b612f8881612f6d565b8114612f9357600080fd5b50565b600081359050612fa581612f7f565b92915050565b6000612fbe612fb984612f41565b612628565b90508083825260208201905060208402830185811115612fe157612fe061250a565b5b835b8181101561300a5780612ff68882612f96565b845260208401935050602081019050612fe3565b5050509392505050565b600082601f83011261302957613028612500565b5b8135613039848260208601612fab565b91505092915050565b600067ffffffffffffffff82111561305d5761305c6125c8565b5b602082029050602081019050919050565b600061308161307c84613042565b612628565b905080838252602082019050602084028301858111156130a4576130a361250a565b5b835b818110156130eb57803567ffffffffffffffff8111156130c9576130c8612500565b5b8086016130d689826126cf565b855260208501945050506020810190506130a6565b5050509392505050565b600082601f83011261310a57613109612500565b5b813561311a84826020860161306e565b91505092915050565b600067ffffffffffffffff82111561313e5761313d6125c8565b5b602082029050602081019050919050565b600061316261315d84613123565b612628565b905080838252602082019050602084028301858111156131855761318461250a565b5b835b818110156131ae578061319a8882612714565b845260208401935050602081019050613187565b5050509392505050565b600082601f8301126131cd576131cc612500565b5b81356131dd84826020860161314f565b91505092915050565b6000606082840312156131fc576131fb6125b2565b5b6132066060612628565b9050600082013567ffffffffffffffff81111561322657613225612643565b5b61323284828501613014565b600083015250602082013567ffffffffffffffff81111561325657613255612643565b5b613262848285016130f5565b602083015250604082013567ffffffffffffffff81111561328657613285612643565b5b613292848285016131b8565b60408301525092915050565b6000602082840312156132b4576132b36121b9565b5b600082013567ffffffffffffffff8111156132d2576132d16121be565b5b6132de848285016131e6565b91505092915050565b7f4e487b7100000000000000000000000000000000000000000000000000000000600052603260045260246000fd5b7f43616c6c206661696c6564000000000000000000000000000000000000000000600082015250565b600061334c600b83612ab0565b915061335782613316565b602082019050919050565b6000602082019050818103600083015261337b8161333f565b9050919050565b7f44656c656761746543616c6c206661696c656400000000000000000000000000600082015250565b60006133b8601383612ab0565b91506133c382613382565b602082019050919050565b600060208201905081810360008301526133e7816133ab565b9050919050565b7f4e487b7100000000000000000000000000000000000000000000000000000000600052601160045260246000fd5b60006134288261246e565b91507fffffffffffffffffffffffffffffffffffffffffffffffffffffffffffffffff820361345a576134596133ee565b5b600182019050919050565b60006134708261246e565b915061347b8361246e565b9250828201905080821115613493576134926133ee565b5b92915050565b60006040820190506134ae6000830185612444565b6134bb6020830184612a86565b9392505050565b6000815190506134d1816126fd565b92915050565b6000602082840312156134ed576134ec6121b9565b5b60006134fb848285016134c2565b91505092915050565b600080fd5b600080fd5b600080fd5b60008235600160400383360303811261352f5761352e613504565b5b80830191505092915050565b60006135468261246e565b91506135518361246e565b925082820261355f8161246e565b91508282048414831517613576576135756133ee565b5b5092915050565b600081519050919050565b600082825260208201905092915050565b6000819050602082019050919050565b6135b28161246e565b82525050565b60006135c483836135a9565b60208301905092915050565b6000602082019050919050565b60006135e88261357d565b6135f28185613588565b93506135fd83613599565b8060005b8381101561362e57815161361588826135b8565b9750613620836135d0565b925050600181019050613601565b5085935050505092915050565b6000819050919050565b600061366061365b6136568461363b565b612eeb565b61246e565b9050919050565b61367081613645565b82525050565b6000608082019050818103600083015261369081876135dd565b905061369f6020830186613667565b6136ac6040830185612444565b6136b96060830184612a86565b95945050505050565b6000602082840312156136d8576136d76121b9565b5b60006136e684828501612d48565b91505092915050565b7f4e487b7100000000000000000000000000000000000000000000000000000000600052602160045260246000fd5b6004811061372f5761372e6136ef565b5b50565b60008190506137408261371e565b919050565b600061375082613732565b9050919050565b61376081613745565b82525050565b600060608201905061377b6000830186612444565b6137886020830185612a86565b6137956040830184613757565b949350505050565b6000806000606084860312156137b6576137b56121b9565b5b60006137c486828701612d48565b93505060206137d586828701612d48565b92505060406137e686828701612d81565b9150509250925092565b7f455243313136373a20637265617465206661696c656400000000000000000000600082015250565b6000613826601683612ab0565b9150613831826137f0565b602082019050919050565b6000602082019050818103600083015261385581613819565b9050919050565b6000808335600160200384360303811261387957613878613504565b5b80840192508235915067ffffffffffffffff82111561389b5761389a613509565b5b6020830192506001820236038313156138b7576138b661350e565b5b509250929050565b6138c881612ede565b81146138d357600080fd5b50565b6000813590506138e5816138bf565b92915050565b600060408284031215613901576139006125b2565b5b61390b6040612628565b9050600061391b84828501612354565b600083015250602061392f848285016138d6565b60208301525092915050565b600060408284031215613951576139506121b9565b5b600061395f848285016138eb565b91505092915050565b600082825260208201905092915050565b60006139858385613968565b935061399283858461267e565b61399b836125b7565b840190509392505050565b600060608201905081810360008301526139c1818789613979565b90506139d06020830186612a86565b81810360408301526139e3818486613979565b90509695505050505050565b6139f881612d5d565b82525050565b60028110613a0f57613a0e6136ef565b5b50565b6000819050613a20826139fe565b919050565b6000613a3082613a12565b9050919050565b613a4081613a25565b82525050565b6000608082019050613a5b6000830187612444565b613a6860208301866139ef565b613a756040830185612a86565b613a826060830184613a37565b95945050505050565b6000613aa6613aa1613a9c8461230b565b612eeb565b61230b565b9050919050565b6000613ab882613a8b565b9050919050565b6000613aca82613aad565b9050919050565b613ada81613abf565b82525050565b600060a082019050613af56000830188612a86565b613b026020830187613ad1565b613b0f6040830186613667565b613b1c6060830185612444565b613b296080830184612a86565b9695505050505050565b7f4e487b7100000000000000000000000000000000000000000000000000000000600052601260045260246000fd5b6000613b6d8261246e565b9150613b788361246e565b925082613b8857613b87613b33565b5b828204905092915050565b613b9c81612ede565b82525050565b602082016000820151613bb86000850182613b93565b50505050565b6000602082019050613bd36000830184613ba2565b92915050565b6000613be482612c54565b613bee8185613968565b9350613bfe818560208601612c6a565b613c07816125b7565b840191505092915050565b60006040820190508181036000830152613c2c8185613bd9565b90508181036020830152613c408184613bd9565b90509392505050565b600081905092915050565b7f416363657373436f6e74726f6c3a206163636f756e7420000000000000000000600082015250565b6000613c8a601783613c49565b9150613c9582613c54565b601782019050919050565b600081519050919050565b6000613cb682613ca0565b613cc08185613c49565b9350613cd0818560208601612c6a565b80840191505092915050565b7f206973206d697373696e6720726f6c6520000000000000000000000000000000600082015250565b6000613d12601183613c49565b9150613d1d82613cdc565b601182019050919050565b6000613d3382613c7d565b9150613d3f8285613cab565b9150613d4a82613d05565b9150613d568284613cab565b91508190509392505050565b6000613d6d82613ca0565b613d778185612ab0565b9350613d87818560208601612c6a565b613d90816125b7565b840191505092915050565b60006020820190508181036000830152613db58184613d62565b905092915050565b6000613dc88261246e565b915060008203613ddb57613dda6133ee565b5b600182039050919050565b7f537472696e67733a20686578206c656e67746820696e73756666696369656e74600082015250565b6000613e1c602083612ab0565b9150613e2782613de6565b602082019050919050565b60006020820190508181036000830152613e4b81613e0f565b905091905056fea26469706673582212208a17f18b3b9d3f4f32bf51156aa2690bc264184980a34994d3047ca86bf1e9c964736f6c63430008130033",
  "linkReferences": {},
  "deployedLinkReferences": {}
}