{
  "_format": "hh-sol-artifact-1",
  "contractName": "BeanstalkSiloFactory",
  "sourceName": "src/plugins/position/implementations/BeanstalkSilo.sol",
  "abi": [
    {
      "inputs": [
        {
          "internalType": "address",
          "name": "protocolAddr",
          "type": "address"
        }
      ],
      "stateMutability": "nonpayable",
      "type": "constructor"
    },
    {
      "anonymous": false,
      "inputs": [
        {
          "indexed": false,
          "internalType": "address",
          "name": "clone",
          "type": "address"
        }
      ],
      "name": "CloneCreated",
      "type": "event"
    },
    {
      "anonymous": false,
      "inputs": [
        {
          "indexed": false,
          "internalType": "address",
          "name": "previousController",
          "type": "address"
        },
        {
          "indexed": false,
          "internalType": "address",
          "name": "newController",
          "type": "address"
        }
      ],
      "name": "ControlTransferred",
      "type": "event"
    },
    {
      "anonymous": false,
      "inputs": [
        {
          "indexed": false,
          "internalType": "uint8",
          "name": "version",
          "type": "uint8"
        }
      ],
      "name": "Initialized",
      "type": "event"
    },
    {
      "anonymous": false,
      "inputs": [
        {
          "indexed": true,
          "internalType": "bytes32",
          "name": "role",
          "type": "bytes32"
        },
        {
          "indexed": true,
          "internalType": "bytes32",
          "name": "previousAdminRole",
          "type": "bytes32"
        },
        {
          "indexed": true,
          "internalType": "bytes32",
          "name": "newAdminRole",
          "type": "bytes32"
        }
      ],
      "name": "RoleAdminChanged",
      "type": "event"
    },
    {
      "anonymous": false,
      "inputs": [
        {
          "indexed": true,
          "internalType": "bytes32",
          "name": "role",
          "type": "bytes32"
        },
        {
          "indexed": true,
          "internalType": "address",
          "name": "account",
          "type": "address"
        },
        {
          "indexed": true,
          "internalType": "address",
          "name": "sender",
          "type": "address"
        }
      ],
      "name": "RoleGranted",
      "type": "event"
    },
    {
      "anonymous": false,
      "inputs": [
        {
          "indexed": true,
          "internalType": "bytes32",
          "name": "role",
          "type": "bytes32"
        },
        {
          "indexed": true,
          "internalType": "address",
          "name": "account",
          "type": "address"
        },
        {
          "indexed": true,
          "internalType": "address",
          "name": "sender",
          "type": "address"
        }
      ],
      "name": "RoleRevoked",
      "type": "event"
    },
    {
      "inputs": [],
      "name": "BOOKKEEPER_ADDRESS",
      "outputs": [
        {
          "internalType": "address",
          "name": "",
          "type": "address"
        }
      ],
      "stateMutability": "view",
      "type": "function"
    },
    {
      "inputs": [],
      "name": "DEFAULT_ADMIN_ROLE",
      "outputs": [
        {
          "internalType": "bytes32",
          "name": "",
          "type": "bytes32"
        }
      ],
      "stateMutability": "view",
      "type": "function"
    },
    {
      "inputs": [],
      "name": "FACTORY_ADDRESS",
      "outputs": [
        {
          "internalType": "address",
          "name": "",
          "type": "address"
        }
      ],
      "stateMutability": "view",
      "type": "function"
    },
    {
      "inputs": [
        {
          "internalType": "address",
          "name": "sender",
          "type": "address"
        },
        {
          "components": [
            {
              "internalType": "uint256",
              "name": "loanAmount",
              "type": "uint256"
            },
            {
              "internalType": "uint256",
              "name": "collAmount",
              "type": "uint256"
            },
            {
              "internalType": "bytes",
              "name": "loanAsset",
              "type": "bytes"
            },
            {
              "internalType": "bytes",
              "name": "collAsset",
              "type": "bytes"
            },
            {
              "internalType": "uint256",
              "name": "minCollateralRatio",
              "type": "uint256"
            },
            {
              "internalType": "uint256",
              "name": "maxDuration",
              "type": "uint256"
            },
            {
              "internalType": "bool",
              "name": "isLeverage",
              "type": "bool"
            },
            {
              "components": [
                {
                  "internalType": "address",
                  "name": "addr",
                  "type": "address"
                },
                {
                  "internalType": "bytes",
                  "name": "parameters",
                  "type": "bytes"
                }
              ],
              "internalType": "struct PluginReference",
              "name": "lenderAccount",
              "type": "tuple"
            },
            {
              "components": [
                {
                  "internalType": "address",
                  "name": "addr",
                  "type": "address"
                },
                {
                  "internalType": "bytes",
                  "name": "parameters",
                  "type": "bytes"
                }
              ],
              "internalType": "struct PluginReference",
              "name": "borrowerAccount",
              "type": "tuple"
            },
            {
              "components": [
                {
                  "internalType": "address",
                  "name": "addr",
                  "type": "address"
                },
                {
                  "internalType": "bytes",
                  "name": "parameters",
                  "type": "bytes"
                }
              ],
              "internalType": "struct PluginReference",
              "name": "assessor",
              "type": "tuple"
            },
            {
              "components": [
                {
                  "internalType": "address",
                  "name": "addr",
                  "type": "address"
                },
                {
                  "internalType": "bytes",
                  "name": "parameters",
                  "type": "bytes"
                }
              ],
              "internalType": "struct PluginReference",
              "name": "liquidator",
              "type": "tuple"
            },
            {
              "components": [
                {
                  "internalType": "address",
                  "name": "addr",
                  "type": "address"
                },
                {
                  "internalType": "bytes",
                  "name": "parameters",
                  "type": "bytes"
                }
              ],
              "internalType": "struct PluginReference",
              "name": "loanOracle",
              "type": "tuple"
            },
            {
              "components": [
                {
                  "internalType": "address",
                  "name": "addr",
                  "type": "address"
                },
                {
                  "internalType": "bytes",
                  "name": "parameters",
                  "type": "bytes"
                }
              ],
              "internalType": "struct PluginReference",
              "name": "collOracle",
              "type": "tuple"
            },
            {
              "internalType": "address",
              "name": "factory",
              "type": "address"
            },
            {
              "components": [
                {
                  "internalType": "address",
                  "name": "addr",
                  "type": "address"
                },
                {
                  "internalType": "bytes",
                  "name": "parameters",
                  "type": "bytes"
                }
              ],
              "internalType": "struct PluginReference",
              "name": "position",
              "type": "tuple"
            },
            {
              "internalType": "uint256",
              "name": "deploymentTime",
              "type": "uint256"
            }
          ],
          "internalType": "struct Agreement",
          "name": "agreement",
          "type": "tuple"
        }
      ],
      "name": "close",
      "outputs": [],
      "stateMutability": "nonpayable",
      "type": "function"
    },
    {
      "inputs": [],
      "name": "createClone",
      "outputs": [
        {
          "internalType": "address",
          "name": "addr",
          "type": "address"
        }
      ],
      "stateMutability": "nonpayable",
      "type": "function"
    },
    {
      "inputs": [
        {
          "components": [
            {
              "internalType": "uint256",
              "name": "loanAmount",
              "type": "uint256"
            },
            {
              "internalType": "uint256",
              "name": "collAmount",
              "type": "uint256"
            },
            {
              "internalType": "bytes",
              "name": "loanAsset",
              "type": "bytes"
            },
            {
              "internalType": "bytes",
              "name": "collAsset",
              "type": "bytes"
            },
            {
              "internalType": "uint256",
              "name": "minCollateralRatio",
              "type": "uint256"
            },
            {
              "internalType": "uint256",
              "name": "maxDuration",
              "type": "uint256"
            },
            {
              "internalType": "bool",
              "name": "isLeverage",
              "type": "bool"
            },
            {
              "components": [
                {
                  "internalType": "address",
                  "name": "addr",
                  "type": "address"
                },
                {
                  "internalType": "bytes",
                  "name": "parameters",
                  "type": "bytes"
                }
              ],
              "internalType": "struct PluginReference",
              "name": "lenderAccount",
              "type": "tuple"
            },
            {
              "components": [
                {
                  "internalType": "address",
                  "name": "addr",
                  "type": "address"
                },
                {
                  "internalType": "bytes",
                  "name": "parameters",
                  "type": "bytes"
                }
              ],
              "internalType": "struct PluginReference",
              "name": "borrowerAccount",
              "type": "tuple"
            },
            {
              "components": [
                {
                  "internalType": "address",
                  "name": "addr",
                  "type": "address"
                },
                {
                  "internalType": "bytes",
                  "name": "parameters",
                  "type": "bytes"
                }
              ],
              "internalType": "struct PluginReference",
              "name": "assessor",
              "type": "tuple"
            },
            {
              "components": [
                {
                  "internalType": "address",
                  "name": "addr",
                  "type": "address"
                },
                {
                  "internalType": "bytes",
                  "name": "parameters",
                  "type": "bytes"
                }
              ],
              "internalType": "struct PluginReference",
              "name": "liquidator",
              "type": "tuple"
            },
            {
              "components": [
                {
                  "internalType": "address",
                  "name": "addr",
                  "type": "address"
                },
                {
                  "internalType": "bytes",
                  "name": "parameters",
                  "type": "bytes"
                }
              ],
              "internalType": "struct PluginReference",
              "name": "loanOracle",
              "type": "tuple"
            },
            {
              "components": [
                {
                  "internalType": "address",
                  "name": "addr",
                  "type": "address"
                },
                {
                  "internalType": "bytes",
                  "name": "parameters",
                  "type": "bytes"
                }
              ],
              "internalType": "struct PluginReference",
              "name": "collOracle",
              "type": "tuple"
            },
            {
              "internalType": "address",
              "name": "factory",
              "type": "address"
            },
            {
              "components": [
                {
                  "internalType": "address",
                  "name": "addr",
                  "type": "address"
                },
                {
                  "internalType": "bytes",
                  "name": "parameters",
                  "type": "bytes"
                }
              ],
              "internalType": "struct PluginReference",
              "name": "position",
              "type": "tuple"
            },
            {
              "internalType": "uint256",
              "name": "deploymentTime",
              "type": "uint256"
            }
          ],
          "internalType": "struct Agreement",
          "name": "agreement",
          "type": "tuple"
        }
      ],
      "name": "getCloseValue",
      "outputs": [
        {
          "internalType": "uint256",
          "name": "",
          "type": "uint256"
        }
      ],
      "stateMutability": "view",
      "type": "function"
    },
    {
      "inputs": [
        {
          "internalType": "bytes32",
          "name": "role",
          "type": "bytes32"
        }
      ],
      "name": "getRoleAdmin",
      "outputs": [
        {
          "internalType": "bytes32",
          "name": "",
          "type": "bytes32"
        }
      ],
      "stateMutability": "view",
      "type": "function"
    },
    {
      "inputs": [
        {
          "internalType": "bytes32",
          "name": "role",
          "type": "bytes32"
        },
        {
          "internalType": "address",
          "name": "account",
          "type": "address"
        }
      ],
      "name": "grantRole",
      "outputs": [],
      "stateMutability": "nonpayable",
      "type": "function"
    },
    {
      "inputs": [
        {
          "internalType": "bytes32",
          "name": "role",
          "type": "bytes32"
        },
        {
          "internalType": "address",
          "name": "account",
          "type": "address"
        }
      ],
      "name": "hasRole",
      "outputs": [
        {
          "internalType": "bool",
          "name": "",
          "type": "bool"
        }
      ],
      "stateMutability": "view",
      "type": "function"
    },
    {
      "inputs": [],
      "name": "initialize",
      "outputs": [],
      "stateMutability": "nonpayable",
      "type": "function"
    },
    {
      "inputs": [
        {
          "components": [
            {
              "internalType": "uint256",
              "name": "loanAmount",
              "type": "uint256"
            },
            {
              "internalType": "uint256",
              "name": "collAmount",
              "type": "uint256"
            },
            {
              "internalType": "bytes",
              "name": "loanAsset",
              "type": "bytes"
            },
            {
              "internalType": "bytes",
              "name": "collAsset",
              "type": "bytes"
            },
            {
              "internalType": "uint256",
              "name": "minCollateralRatio",
              "type": "uint256"
            },
            {
              "internalType": "uint256",
              "name": "maxDuration",
              "type": "uint256"
            },
            {
              "internalType": "bool",
              "name": "isLeverage",
              "type": "bool"
            },
            {
              "components": [
                {
                  "internalType": "address",
                  "name": "addr",
                  "type": "address"
                },
                {
                  "internalType": "bytes",
                  "name": "parameters",
                  "type": "bytes"
                }
              ],
              "internalType": "struct PluginReference",
              "name": "lenderAccount",
              "type": "tuple"
            },
            {
              "components": [
                {
                  "internalType": "address",
                  "name": "addr",
                  "type": "address"
                },
                {
                  "internalType": "bytes",
                  "name": "parameters",
                  "type": "bytes"
                }
              ],
              "internalType": "struct PluginReference",
              "name": "borrowerAccount",
              "type": "tuple"
            },
            {
              "components": [
                {
                  "internalType": "address",
                  "name": "addr",
                  "type": "address"
                },
                {
                  "internalType": "bytes",
                  "name": "parameters",
                  "type": "bytes"
                }
              ],
              "internalType": "struct PluginReference",
              "name": "assessor",
              "type": "tuple"
            },
            {
              "components": [
                {
                  "internalType": "address",
                  "name": "addr",
                  "type": "address"
                },
                {
                  "internalType": "bytes",
                  "name": "parameters",
                  "type": "bytes"
                }
              ],
              "internalType": "struct PluginReference",
              "name": "liquidator",
              "type": "tuple"
            },
            {
              "components": [
                {
                  "internalType": "address",
                  "name": "addr",
                  "type": "address"
                },
                {
                  "internalType": "bytes",
                  "name": "parameters",
                  "type": "bytes"
                }
              ],
              "internalType": "struct PluginReference",
              "name": "loanOracle",
              "type": "tuple"
            },
            {
              "components": [
                {
                  "internalType": "address",
                  "name": "addr",
                  "type": "address"
                },
                {
                  "internalType": "bytes",
                  "name": "parameters",
                  "type": "bytes"
                }
              ],
              "internalType": "struct PluginReference",
              "name": "collOracle",
              "type": "tuple"
            },
            {
              "internalType": "address",
              "name": "factory",
              "type": "address"
            },
            {
              "components": [
                {
                  "internalType": "address",
                  "name": "addr",
                  "type": "address"
                },
                {
                  "internalType": "bytes",
                  "name": "parameters",
                  "type": "bytes"
                }
              ],
              "internalType": "struct PluginReference",
              "name": "position",
              "type": "tuple"
            },
            {
              "internalType": "uint256",
              "name": "deploymentTime",
              "type": "uint256"
            }
          ],
          "internalType": "struct Agreement",
          "name": "agreement",
          "type": "tuple"
        }
      ],
      "name": "open",
      "outputs": [],
      "stateMutability": "nonpayable",
      "type": "function"
    },
    {
      "inputs": [
        {
          "internalType": "address payable",
          "name": "destination",
          "type": "address"
        },
        {
          "internalType": "bytes",
          "name": "data",
          "type": "bytes"
        },
        {
          "internalType": "bool",
          "name": "delegateCall",
          "type": "bool"
        }
      ],
      "name": "passThrough",
      "outputs": [
        {
          "internalType": "bool",
          "name": "",
          "type": "bool"
        },
        {
          "internalType": "bytes",
          "name": "",
          "type": "bytes"
        }
      ],
      "stateMutability": "payable",
      "type": "function"
    },
    {
      "inputs": [
        {
          "internalType": "bytes32",
          "name": "role",
          "type": "bytes32"
        },
        {
          "internalType": "address",
          "name": "account",
          "type": "address"
        }
      ],
      "name": "renounceRole",
      "outputs": [],
      "stateMutability": "nonpayable",
      "type": "function"
    },
    {
      "inputs": [
        {
          "internalType": "bytes32",
          "name": "role",
          "type": "bytes32"
        },
        {
          "internalType": "address",
          "name": "account",
          "type": "address"
        }
      ],
      "name": "revokeRole",
      "outputs": [],
      "stateMutability": "nonpayable",
      "type": "function"
    },
    {
      "inputs": [
        {
          "internalType": "bytes4",
          "name": "interfaceId",
          "type": "bytes4"
        }
      ],
      "name": "supportsInterface",
      "outputs": [
        {
          "internalType": "bool",
          "name": "",
          "type": "bool"
        }
      ],
      "stateMutability": "view",
      "type": "function"
    },
    {
      "inputs": [
        {
          "internalType": "address",
          "name": "controller",
          "type": "address"
        }
      ],
      "name": "transferContract",
      "outputs": [],
      "stateMutability": "nonpayable",
      "type": "function"
    },
    {
      "stateMutability": "payable",
      "type": "receive"
    }
  ],
  "bytecode": "0x60c06040523480156200001157600080fd5b506040516200304d3803806200304d833981810160405281019062000037919062000398565b808062000049620000ee60201b60201c565b8073ffffffffffffffffffffffffffffffffffffffff1660808173ffffffffffffffffffffffffffffffffffffffff16815250503073ffffffffffffffffffffffffffffffffffffffff1660a08173ffffffffffffffffffffffffffffffffffffffff1681525050620000e57f03c7040f8e5b938f657d4600d08b1b77f390141994844cbb34ff043f26ac6cd7608051620001b560201b60201c565b505050620004ae565b60018054906101000a900460ff16156200013f576040517f08c379a0000000000000000000000000000000000000000000000000000000008152600401620001369062000451565b60405180910390fd5b60ff8016600160009054906101000a900460ff1660ff1614620001b35760ff600160006101000a81548160ff021916908360ff1602179055507f7f26b83ff96e1f2b6a682f133852f6798a09c465da95921460cefb384740249860ff604051620001aa919062000491565b60405180910390a15b565b620001c78282620001cb60201b60201c565b5050565b620001dd8282620002bc60201b60201c565b620002b857600160008084815260200190815260200160002060000160008373ffffffffffffffffffffffffffffffffffffffff1673ffffffffffffffffffffffffffffffffffffffff16815260200190815260200160002060006101000a81548160ff0219169083151502179055506200025d6200032660201b60201c565b73ffffffffffffffffffffffffffffffffffffffff168173ffffffffffffffffffffffffffffffffffffffff16837f2f8788117e7eff1d82e926ec794901d17c78024a50270940304540a733656f0d60405160405180910390a45b5050565b600080600084815260200190815260200160002060000160008373ffffffffffffffffffffffffffffffffffffffff1673ffffffffffffffffffffffffffffffffffffffff16815260200190815260200160002060009054906101000a900460ff16905092915050565b600033905090565b600080fd5b600073ffffffffffffffffffffffffffffffffffffffff82169050919050565b6000620003608262000333565b9050919050565b620003728162000353565b81146200037e57600080fd5b50565b600081519050620003928162000367565b92915050565b600060208284031215620003b157620003b06200032e565b5b6000620003c18482850162000381565b91505092915050565b600082825260208201905092915050565b7f496e697469616c697a61626c653a20636f6e747261637420697320696e69746960008201527f616c697a696e6700000000000000000000000000000000000000000000000000602082015250565b600062000439602783620003ca565b91506200044682620003db565b604082019050919050565b600060208201905081810360008301526200046c816200042a565b9050919050565b600060ff82169050919050565b6200048b8162000473565b82525050565b6000602082019050620004a8600083018462000480565b92915050565b60805160a051612b3a620005136000396000818161047c015281816105ca015281816106be0152818161075e01528181610a6601528181610af401528181610c0b01528181610c990152610d70015260008181610b890152610d480152612b3a6000f3fe6080604052600436106100f75760003560e01c80638129fc1c1161008a578063a217fddf11610059578063a217fddf14610331578063a29929251461035c578063b9fdc2a214610387578063d547741f146103b8576100fe565b80638129fc1c146102895780638823151b146102a057806391d14854146102cb578063a1d9bb2414610308576100fe565b806336568abe116100c657806336568abe146101cf57806347635dac146101f8578063528f5b911461022157806364f2d4b91461025e576100fe565b806301ffc9a714610103578063248a9ca3146101405780632930afea1461017d5780632f2ff15d146101a6576100fe565b366100fe57005b600080fd5b34801561010f57600080fd5b5061012a600480360381019061012591906119c2565b6103e1565b6040516101379190611a0a565b60405180910390f35b34801561014c57600080fd5b5061016760048036038101906101629190611a5b565b61045b565b6040516101749190611a97565b60405180910390f35b34801561018957600080fd5b506101a4600480360381019061019f9190611b35565b61047a565b005b3480156101b257600080fd5b506101cd60048036038101906101c89190611b91565b610524565b005b3480156101db57600080fd5b506101f660048036038101906101f19190611b91565b610545565b005b34801561020457600080fd5b5061021f600480360381019061021a9190611bd1565b6105c8565b005b34801561022d57600080fd5b5061024860048036038101906102439190611bfe565b6106ba565b6040516102559190611c60565b60405180910390f35b34801561026a57600080fd5b5061027361075a565b6040516102809190611c8a565b60405180910390f35b34801561029557600080fd5b5061029e61098a565b005b3480156102ac57600080fd5b506102b5610c09565b6040516102c29190611c8a565b60405180910390f35b3480156102d757600080fd5b506102f260048036038101906102ed9190611b91565b610c2d565b6040516102ff9190611a0a565b60405180910390f35b34801561031457600080fd5b5061032f600480360381019061032a9190611bfe565b610c97565b005b34801561033d57600080fd5b50610346610d3f565b6040516103539190611a97565b60405180910390f35b34801561036857600080fd5b50610371610d46565b60405161037e9190611c8a565b60405180910390f35b6103a1600480360381019061039c9190611d74565b610d6a565b6040516103af929190611e78565b60405180910390f35b3480156103c457600080fd5b506103df60048036038101906103da9190611b91565b610ef9565b005b60007f7965db0b000000000000000000000000000000000000000000000000000000007bffffffffffffffffffffffffffffffffffffffffffffffffffffffff1916827bffffffffffffffffffffffffffffffffffffffffffffffffffffffff19161480610454575061045382610f1a565b5b9050919050565b6000806000838152602001908152602001600020600101549050919050565b7f000000000000000000000000000000000000000000000000000000000000000073ffffffffffffffffffffffffffffffffffffffff163073ffffffffffffffffffffffffffffffffffffffff1603610508576040517f08c379a00000000000000000000000000000000000000000000000000000000081526004016104ff90611f05565b60405180910390fd5b6000801b61051581610f84565b61051f8383610f98565b505050565b61052d8261045b565b61053681610f84565b6105408383610f9c565b505050565b61054d61107c565b73ffffffffffffffffffffffffffffffffffffffff168173ffffffffffffffffffffffffffffffffffffffff16146105ba576040517f08c379a00000000000000000000000000000000000000000000000000000000081526004016105b190611f97565b60405180910390fd5b6105c48282611084565b5050565b7f000000000000000000000000000000000000000000000000000000000000000073ffffffffffffffffffffffffffffffffffffffff163073ffffffffffffffffffffffffffffffffffffffff1603610656576040517f08c379a000000000000000000000000000000000000000000000000000000000815260040161064d90611f05565b60405180910390fd5b6000801b61066381610f84565b6106706000801b83610524565b61067d6000801b33610545565b7fa06677f7b64342b4bcbde423684dbdb5356acfe41ad0285b6ecbe6dc4bf427f233836040516106ae929190611fb7565b60405180910390a15050565b60007f000000000000000000000000000000000000000000000000000000000000000073ffffffffffffffffffffffffffffffffffffffff163073ffffffffffffffffffffffffffffffffffffffff160361074a576040517f08c379a000000000000000000000000000000000000000000000000000000000815260040161074190611f05565b60405180910390fd5b61075382611165565b9050919050565b60007f000000000000000000000000000000000000000000000000000000000000000073ffffffffffffffffffffffffffffffffffffffff163073ffffffffffffffffffffffffffffffffffffffff16146107ea576040517f08c379a00000000000000000000000000000000000000000000000000000000081526004016107e19061202c565b60405180910390fd5b7f03c7040f8e5b938f657d4600d08b1b77f390141994844cbb34ff043f26ac6cd761081481610f84565b61081d30611251565b915060008273ffffffffffffffffffffffffffffffffffffffff166040516024016040516020818303038152906040527f8129fc1c000000000000000000000000000000000000000000000000000000007bffffffffffffffffffffffffffffffffffffffffffffffffffffffff19166020820180517bffffffffffffffffffffffffffffffffffffffffffffffffffffffff83818316178352505050506040516108c89190612088565b6000604051808303816000865af19150503d8060008114610905576040519150601f19603f3d011682016040523d82523d6000602084013e61090a565b606091505b505090508061094e576040517f08c379a0000000000000000000000000000000000000000000000000000000008152600401610945906120eb565b60405180910390fd5b7fbe2f3d28fdeb5839123d65fd47ec2f5915c715d2b527b9e229123706fdecfc858360405161097d9190611c8a565b60405180910390a1505090565b600060018054906101000a900460ff161590508080156109bb575060018060009054906101000a900460ff1660ff16105b806109e957506109ca3061130b565b1580156109e8575060018060009054906101000a900460ff1660ff16145b5b610a28576040517f08c379a0000000000000000000000000000000000000000000000000000000008152600401610a1f9061217d565b60405180910390fd5b60018060006101000a81548160ff021916908360ff1602179055508015610a645760018060016101000a81548160ff0219169083151502179055505b7f000000000000000000000000000000000000000000000000000000000000000073ffffffffffffffffffffffffffffffffffffffff163073ffffffffffffffffffffffffffffffffffffffff1603610af2576040517f08c379a0000000000000000000000000000000000000000000000000000000008152600401610ae990611f05565b60405180910390fd5b7f000000000000000000000000000000000000000000000000000000000000000073ffffffffffffffffffffffffffffffffffffffff163373ffffffffffffffffffffffffffffffffffffffff1614610b80576040517f08c379a0000000000000000000000000000000000000000000000000000000008152600401610b77906121e9565b60405180910390fd5b610bad6000801b7f000000000000000000000000000000000000000000000000000000000000000061132e565b8015610c065760006001806101000a81548160ff0219169083151502179055507f7f26b83ff96e1f2b6a682f133852f6798a09c465da95921460cefb38474024986001604051610bfd919061225b565b60405180910390a15b50565b7f000000000000000000000000000000000000000000000000000000000000000081565b600080600084815260200190815260200160002060000160008373ffffffffffffffffffffffffffffffffffffffff1673ffffffffffffffffffffffffffffffffffffffff16815260200190815260200160002060009054906101000a900460ff16905092915050565b7f000000000000000000000000000000000000000000000000000000000000000073ffffffffffffffffffffffffffffffffffffffff163073ffffffffffffffffffffffffffffffffffffffff1603610d25576040517f08c379a0000000000000000000000000000000000000000000000000000000008152600401610d1c90611f05565b60405180910390fd5b6000801b610d3281610f84565b610d3b8261133c565b5050565b6000801b81565b7f000000000000000000000000000000000000000000000000000000000000000081565b600060607f000000000000000000000000000000000000000000000000000000000000000073ffffffffffffffffffffffffffffffffffffffff163073ffffffffffffffffffffffffffffffffffffffff1603610dfc576040517f08c379a0000000000000000000000000000000000000000000000000000000008152600401610df390611f05565b60405180910390fd5b6000801b610e0981610f84565b83610e82578673ffffffffffffffffffffffffffffffffffffffff16348787604051610e369291906122aa565b60006040518083038185875af1925050503d8060008114610e73576040519150601f19603f3d011682016040523d82523d6000602084013e610e78565b606091505b5092509250610eef565b8673ffffffffffffffffffffffffffffffffffffffff168686604051610ea99291906122aa565b600060405180830381855af49150503d8060008114610ee4576040519150601f19603f3d011682016040523d82523d6000602084013e610ee9565b606091505b50925092505b5094509492505050565b610f028261045b565b610f0b81610f84565b610f158383611084565b505050565b60007f01ffc9a7000000000000000000000000000000000000000000000000000000007bffffffffffffffffffffffffffffffffffffffffffffffffffffffff1916827bffffffffffffffffffffffffffffffffffffffffffffffffffffffff1916149050919050565b610f9581610f9061107c565b611672565b50565b5050565b610fa68282610c2d565b61107857600160008084815260200190815260200160002060000160008373ffffffffffffffffffffffffffffffffffffffff1673ffffffffffffffffffffffffffffffffffffffff16815260200190815260200160002060006101000a81548160ff02191690831515021790555061101d61107c565b73ffffffffffffffffffffffffffffffffffffffff168173ffffffffffffffffffffffffffffffffffffffff16837f2f8788117e7eff1d82e926ec794901d17c78024a50270940304540a733656f0d60405160405180910390a45b5050565b600033905090565b61108e8282610c2d565b1561116157600080600084815260200190815260200160002060000160008373ffffffffffffffffffffffffffffffffffffffff1673ffffffffffffffffffffffffffffffffffffffff16815260200190815260200160002060006101000a81548160ff02191690831515021790555061110661107c565b73ffffffffffffffffffffffffffffffffffffffff168173ffffffffffffffffffffffffffffffffffffffff16837ff6391f5c32d9c69d2a47ea670b442974b53935d1edc7fd64eb21e047a839171b60405160405180910390a45b5050565b600080670de0b6b3a76400008380610180019061118291906122d2565b60000160208101906111949190611bd1565b73ffffffffffffffffffffffffffffffffffffffff16639569eb8f858061018001906111c091906122d2565b80602001906111cf91906122fa565b6040518363ffffffff1660e01b81526004016111ec92919061238a565b602060405180830381865afa158015611209573d6000803e3d6000fd5b505050506040513d601f19601f8201168201806040525081019061122d91906123da565b846020013561123c9190612436565b61124691906124a7565b905080915050919050565b6000763d602d80600a3d3981f3363d3d373d3d3d363d730000008260601b60e81c176000526e5af43d82803e903d91602b57fd5bf38260781b17602052603760096000f09050600073ffffffffffffffffffffffffffffffffffffffff168173ffffffffffffffffffffffffffffffffffffffff1603611306576040517f08c379a00000000000000000000000000000000000000000000000000000000081526004016112fd90612524565b60405180910390fd5b919050565b6000808273ffffffffffffffffffffffffffffffffffffffff163b119050919050565b6113388282610f9c565b5050565b600073bea0e11282e2bb5893bece110cf199501e872bad9050600073f4b3629d1aa74ef8ab53cc22728896b960f3a74e9050600073c02aaa39b223fe8d0a0e5c4f27ead9083c756cc290508073ffffffffffffffffffffffffffffffffffffffff1663095ea7b384671bc16d674ec800006040518363ffffffff1660e01b81526004016113ca92919061257f565b6020604051808303816000875af11580156113e9573d6000803e3d6000fd5b505050506040513d601f19601f8201168201806040525081019061140d91906125bd565b506000600267ffffffffffffffff81111561142b5761142a6125ea565b5b6040519080825280602002602001820160405280156114595781602001602082028036833780820191505090505b50905060008160008151811061147257611471612619565b5b602002602001018181525050642e90edd0008160018151811061149857611497612619565b5b60200260200101818152505060008473ffffffffffffffffffffffffffffffffffffffff1663cb9c784483600089806101c001906114d691906122d2565b60000160208101906114e89190611bd1565b6002426114f59190612436565b6040518563ffffffff1660e01b81526004016115149493929190612741565b6020604051808303816000875af1158015611533573d6000803e3d6000fd5b505050506040513d601f19601f8201168201806040525081019061155791906123da565b905060008590508073ffffffffffffffffffffffffffffffffffffffff1663095ea7b386671bc16d674ec800006040518363ffffffff1660e01b81526004016115a192919061257f565b6020604051808303816000875af11580156115c0573d6000803e3d6000fd5b505050506040513d601f19601f820116820180604052508101906115e491906125bd565b508473ffffffffffffffffffffffffffffffffffffffff1663f19ed6be878460006040518463ffffffff1660e01b815260040161162393929190612804565b6060604051808303816000875af1158015611642573d6000803e3d6000fd5b505050506040513d601f19601f820116820180604052508101906116669190612874565b50505050505050505050565b61167c8282610c2d565b6116f357611689816116f7565b6116978360001c6020611724565b6040516020016116a89291906129a6565b6040516020818303038152906040526040517f08c379a00000000000000000000000000000000000000000000000000000000081526004016116ea9190612a19565b60405180910390fd5b5050565b606061171d8273ffffffffffffffffffffffffffffffffffffffff16601460ff16611724565b9050919050565b6060600060028360026117379190612436565b6117419190612a3b565b67ffffffffffffffff81111561175a576117596125ea565b5b6040519080825280601f01601f19166020018201604052801561178c5781602001600182028036833780820191505090505b5090507f3000000000000000000000000000000000000000000000000000000000000000816000815181106117c4576117c3612619565b5b60200101907effffffffffffffffffffffffffffffffffffffffffffffffffffffffffffff1916908160001a9053507f78000000000000000000000000000000000000000000000000000000000000008160018151811061182857611827612619565b5b60200101907effffffffffffffffffffffffffffffffffffffffffffffffffffffffffffff1916908160001a905350600060018460026118689190612436565b6118729190612a3b565b90505b6001811115611912577f3031323334353637383961626364656600000000000000000000000000000000600f8616601081106118b4576118b3612619565b5b1a60f81b8282815181106118cb576118ca612619565b5b60200101907effffffffffffffffffffffffffffffffffffffffffffffffffffffffffffff1916908160001a905350600485901c94508061190b90612a6f565b9050611875565b5060008414611956576040517f08c379a000000000000000000000000000000000000000000000000000000000815260040161194d90612ae4565b60405180910390fd5b8091505092915050565b600080fd5b600080fd5b60007fffffffff0000000000000000000000000000000000000000000000000000000082169050919050565b61199f8161196a565b81146119aa57600080fd5b50565b6000813590506119bc81611996565b92915050565b6000602082840312156119d8576119d7611960565b5b60006119e6848285016119ad565b91505092915050565b60008115159050919050565b611a04816119ef565b82525050565b6000602082019050611a1f60008301846119fb565b92915050565b6000819050919050565b611a3881611a25565b8114611a4357600080fd5b50565b600081359050611a5581611a2f565b92915050565b600060208284031215611a7157611a70611960565b5b6000611a7f84828501611a46565b91505092915050565b611a9181611a25565b82525050565b6000602082019050611aac6000830184611a88565b92915050565b600073ffffffffffffffffffffffffffffffffffffffff82169050919050565b6000611add82611ab2565b9050919050565b611aed81611ad2565b8114611af857600080fd5b50565b600081359050611b0a81611ae4565b92915050565b600080fd5b60006102008284031215611b2c57611b2b611b10565b5b81905092915050565b60008060408385031215611b4c57611b4b611960565b5b6000611b5a85828601611afb565b925050602083013567ffffffffffffffff811115611b7b57611b7a611965565b5b611b8785828601611b15565b9150509250929050565b60008060408385031215611ba857611ba7611960565b5b6000611bb685828601611a46565b9250506020611bc785828601611afb565b9150509250929050565b600060208284031215611be757611be6611960565b5b6000611bf584828501611afb565b91505092915050565b600060208284031215611c1457611c13611960565b5b600082013567ffffffffffffffff811115611c3257611c31611965565b5b611c3e84828501611b15565b91505092915050565b6000819050919050565b611c5a81611c47565b82525050565b6000602082019050611c756000830184611c51565b92915050565b611c8481611ad2565b82525050565b6000602082019050611c9f6000830184611c7b565b92915050565b6000611cb082611ab2565b9050919050565b611cc081611ca5565b8114611ccb57600080fd5b50565b600081359050611cdd81611cb7565b92915050565b600080fd5b600080fd5b600080fd5b60008083601f840112611d0857611d07611ce3565b5b8235905067ffffffffffffffff811115611d2557611d24611ce8565b5b602083019150836001820283011115611d4157611d40611ced565b5b9250929050565b611d51816119ef565b8114611d5c57600080fd5b50565b600081359050611d6e81611d48565b92915050565b60008060008060608587031215611d8e57611d8d611960565b5b6000611d9c87828801611cce565b945050602085013567ffffffffffffffff811115611dbd57611dbc611965565b5b611dc987828801611cf2565b93509350506040611ddc87828801611d5f565b91505092959194509250565b600081519050919050565b600082825260208201905092915050565b60005b83811015611e22578082015181840152602081019050611e07565b60008484015250505050565b6000601f19601f8301169050919050565b6000611e4a82611de8565b611e548185611df3565b9350611e64818560208601611e04565b611e6d81611e2e565b840191505092915050565b6000604082019050611e8d60008301856119fb565b8181036020830152611e9f8184611e3f565b90509392505050565b600082825260208201905092915050565b7f65786563206e6f7420616c6c6f77656420696e20696d706c0000000000000000600082015250565b6000611eef601883611ea8565b9150611efa82611eb9565b602082019050919050565b60006020820190508181036000830152611f1e81611ee2565b9050919050565b7f416363657373436f6e74726f6c3a2063616e206f6e6c792072656e6f756e636560008201527f20726f6c657320666f722073656c660000000000000000000000000000000000602082015250565b6000611f81602f83611ea8565b9150611f8c82611f25565b604082019050919050565b60006020820190508181036000830152611fb081611f74565b9050919050565b6000604082019050611fcc6000830185611c7b565b611fd96020830184611c7b565b9392505050565b7f65786563206e6f7420616c6c6f77656420696e2070726f787900000000000000600082015250565b6000612016601983611ea8565b915061202182611fe0565b602082019050919050565b6000602082019050818103600083015261204581612009565b9050919050565b600081905092915050565b600061206282611de8565b61206c818561204c565b935061207c818560208601611e04565b80840191505092915050565b60006120948284612057565b915081905092915050565b7f637265617465436c6f6e653a20696e697469616c697a65206661696c00000000600082015250565b60006120d5601c83611ea8565b91506120e08261209f565b602082019050919050565b60006020820190508181036000830152612104816120c8565b9050919050565b7f496e697469616c697a61626c653a20636f6e747261637420697320616c72656160008201527f647920696e697469616c697a6564000000000000000000000000000000000000602082015250565b6000612167602e83611ea8565b91506121728261210b565b604082019050919050565b600060208201905081810360008301526121968161215a565b9050919050565b7f73656e64657220213d20696d706c20636f6e7472616374000000000000000000600082015250565b60006121d3601783611ea8565b91506121de8261219d565b602082019050919050565b60006020820190508181036000830152612202816121c6565b9050919050565b6000819050919050565b600060ff82169050919050565b6000819050919050565b600061224561224061223b84612209565b612220565b612213565b9050919050565b6122558161222a565b82525050565b6000602082019050612270600083018461224c565b92915050565b82818337600083830152505050565b6000612291838561204c565b935061229e838584612276565b82840190509392505050565b60006122b7828486612285565b91508190509392505050565b600080fd5b600080fd5b600080fd5b6000823560016040038336030381126122ee576122ed6122c3565b5b80830191505092915050565b60008083356001602003843603038112612317576123166122c3565b5b80840192508235915067ffffffffffffffff821115612339576123386122c8565b5b602083019250600182023603831315612355576123546122cd565b5b509250929050565b60006123698385611df3565b9350612376838584612276565b61237f83611e2e565b840190509392505050565b600060208201905081810360008301526123a581848661235d565b90509392505050565b6123b781611c47565b81146123c257600080fd5b50565b6000815190506123d4816123ae565b92915050565b6000602082840312156123f0576123ef611960565b5b60006123fe848285016123c5565b91505092915050565b7f4e487b7100000000000000000000000000000000000000000000000000000000600052601160045260246000fd5b600061244182611c47565b915061244c83611c47565b925082820261245a81611c47565b9150828204841483151761247157612470612407565b5b5092915050565b7f4e487b7100000000000000000000000000000000000000000000000000000000600052601260045260246000fd5b60006124b282611c47565b91506124bd83611c47565b9250826124cd576124cc612478565b5b828204905092915050565b7f455243313136373a20637265617465206661696c656400000000000000000000600082015250565b600061250e601683611ea8565b9150612519826124d8565b602082019050919050565b6000602082019050818103600083015261253d81612501565b9050919050565b6000819050919050565b600061256961256461255f84612544565b612220565b611c47565b9050919050565b6125798161254e565b82525050565b60006040820190506125946000830185611c7b565b6125a16020830184612570565b9392505050565b6000815190506125b781611d48565b92915050565b6000602082840312156125d3576125d2611960565b5b60006125e1848285016125a8565b91505092915050565b7f4e487b7100000000000000000000000000000000000000000000000000000000600052604160045260246000fd5b7f4e487b7100000000000000000000000000000000000000000000000000000000600052603260045260246000fd5b600081519050919050565b600082825260208201905092915050565b6000819050602082019050919050565b61267d81611c47565b82525050565b600061268f8383612674565b60208301905092915050565b6000602082019050919050565b60006126b382612648565b6126bd8185612653565b93506126c883612664565b8060005b838110156126f95781516126e08882612683565b97506126eb8361269b565b9250506001810190506126cc565b5085935050505092915050565b6000819050919050565b600061272b61272661272184612706565b612220565b611c47565b9050919050565b61273b81612710565b82525050565b6000608082019050818103600083015261275b81876126a8565b905061276a6020830186612732565b6127776040830185611c7b565b6127846060830184611c51565b95945050505050565b7f4e487b7100000000000000000000000000000000000000000000000000000000600052602160045260246000fd5b600481106127cd576127cc61278d565b5b50565b60008190506127de826127bc565b919050565b60006127ee826127d0565b9050919050565b6127fe816127e3565b82525050565b60006060820190506128196000830186611c7b565b6128266020830185611c51565b61283360408301846127f5565b949350505050565b600081600b0b9050919050565b6128518161283b565b811461285c57600080fd5b50565b60008151905061286e81612848565b92915050565b60008060006060848603121561288d5761288c611960565b5b600061289b868287016123c5565b93505060206128ac868287016123c5565b92505060406128bd8682870161285f565b9150509250925092565b600081905092915050565b7f416363657373436f6e74726f6c3a206163636f756e7420000000000000000000600082015250565b60006129086017836128c7565b9150612913826128d2565b601782019050919050565b600081519050919050565b60006129348261291e565b61293e81856128c7565b935061294e818560208601611e04565b80840191505092915050565b7f206973206d697373696e6720726f6c6520000000000000000000000000000000600082015250565b60006129906011836128c7565b915061299b8261295a565b601182019050919050565b60006129b1826128fb565b91506129bd8285612929565b91506129c882612983565b91506129d48284612929565b91508190509392505050565b60006129eb8261291e565b6129f58185611ea8565b9350612a05818560208601611e04565b612a0e81611e2e565b840191505092915050565b60006020820190508181036000830152612a3381846129e0565b905092915050565b6000612a4682611c47565b9150612a5183611c47565b9250828201905080821115612a6957612a68612407565b5b92915050565b6000612a7a82611c47565b915060008203612a8d57612a8c612407565b5b600182039050919050565b7f537472696e67733a20686578206c656e67746820696e73756666696369656e74600082015250565b6000612ace602083611ea8565b9150612ad982612a98565b602082019050919050565b60006020820190508181036000830152612afd81612ac1565b905091905056fea264697066735822122000b0afd11735fac909360c26236c71437f2111f834b647a4b056300719653c5d64736f6c63430008130033",
  "linkReferences": {},
  "deployedLinkReferences": {}
}