{
  "_format": "hh-sol-artifact-1",
  "contractName": "BeanstalkSiloFactory",
  "sourceName": "src/plugins/position/implementations/BeanstalkSilo.sol",
  "abi": [
    {
      "inputs": [
        {
          "internalType": "address",
          "name": "protocolAddr",
          "type": "address"
        }
      ],
      "stateMutability": "nonpayable",
      "type": "constructor"
    },
    {
      "anonymous": false,
      "inputs": [
        {
          "indexed": false,
          "internalType": "address",
          "name": "clone",
          "type": "address"
        }
      ],
      "name": "CloneCreated",
      "type": "event"
    },
    {
      "anonymous": false,
      "inputs": [
        {
          "indexed": false,
          "internalType": "address",
          "name": "previousController",
          "type": "address"
        },
        {
          "indexed": false,
          "internalType": "address",
          "name": "newController",
          "type": "address"
        }
      ],
      "name": "ControlTransferred",
      "type": "event"
    },
    {
      "anonymous": false,
      "inputs": [
        {
          "indexed": false,
          "internalType": "uint8",
          "name": "version",
          "type": "uint8"
        }
      ],
      "name": "Initialized",
      "type": "event"
    },
    {
      "anonymous": false,
      "inputs": [
        {
          "indexed": true,
          "internalType": "bytes32",
          "name": "role",
          "type": "bytes32"
        },
        {
          "indexed": true,
          "internalType": "bytes32",
          "name": "previousAdminRole",
          "type": "bytes32"
        },
        {
          "indexed": true,
          "internalType": "bytes32",
          "name": "newAdminRole",
          "type": "bytes32"
        }
      ],
      "name": "RoleAdminChanged",
      "type": "event"
    },
    {
      "anonymous": false,
      "inputs": [
        {
          "indexed": true,
          "internalType": "bytes32",
          "name": "role",
          "type": "bytes32"
        },
        {
          "indexed": true,
          "internalType": "address",
          "name": "account",
          "type": "address"
        },
        {
          "indexed": true,
          "internalType": "address",
          "name": "sender",
          "type": "address"
        }
      ],
      "name": "RoleGranted",
      "type": "event"
    },
    {
      "anonymous": false,
      "inputs": [
        {
          "indexed": true,
          "internalType": "bytes32",
          "name": "role",
          "type": "bytes32"
        },
        {
          "indexed": true,
          "internalType": "address",
          "name": "account",
          "type": "address"
        },
        {
          "indexed": true,
          "internalType": "address",
          "name": "sender",
          "type": "address"
        }
      ],
      "name": "RoleRevoked",
      "type": "event"
    },
    {
      "inputs": [],
      "name": "BOOKKEEPER_ADDRESS",
      "outputs": [
        {
          "internalType": "address",
          "name": "",
          "type": "address"
        }
      ],
      "stateMutability": "view",
      "type": "function"
    },
    {
      "inputs": [],
      "name": "DEFAULT_ADMIN_ROLE",
      "outputs": [
        {
          "internalType": "bytes32",
          "name": "",
          "type": "bytes32"
        }
      ],
      "stateMutability": "view",
      "type": "function"
    },
    {
      "inputs": [],
      "name": "FACTORY_ADDRESS",
      "outputs": [
        {
          "internalType": "address",
          "name": "",
          "type": "address"
        }
      ],
      "stateMutability": "view",
      "type": "function"
    },
    {
      "inputs": [
        {
          "components": [
            {
              "internalType": "uint256",
              "name": "loanAmount",
              "type": "uint256"
            },
            {
              "internalType": "uint256",
              "name": "collAmount",
              "type": "uint256"
            },
            {
              "internalType": "bytes",
              "name": "loanAsset",
              "type": "bytes"
            },
            {
              "internalType": "bytes",
              "name": "collAsset",
              "type": "bytes"
            },
            {
              "internalType": "uint256",
              "name": "minCollateralRatio",
              "type": "uint256"
            },
            {
              "internalType": "uint256",
              "name": "maxDuration",
              "type": "uint256"
            },
            {
              "internalType": "bool",
              "name": "isLeverage",
              "type": "bool"
            },
            {
              "components": [
                {
                  "internalType": "address",
                  "name": "addr",
                  "type": "address"
                },
                {
                  "internalType": "bytes",
                  "name": "parameters",
                  "type": "bytes"
                }
              ],
              "internalType": "struct PluginReference",
              "name": "lenderAccount",
              "type": "tuple"
            },
            {
              "components": [
                {
                  "internalType": "address",
                  "name": "addr",
                  "type": "address"
                },
                {
                  "internalType": "bytes",
                  "name": "parameters",
                  "type": "bytes"
                }
              ],
              "internalType": "struct PluginReference",
              "name": "borrowerAccount",
              "type": "tuple"
            },
            {
              "components": [
                {
                  "internalType": "address",
                  "name": "addr",
                  "type": "address"
                },
                {
                  "internalType": "bytes",
                  "name": "parameters",
                  "type": "bytes"
                }
              ],
              "internalType": "struct PluginReference",
              "name": "assessor",
              "type": "tuple"
            },
            {
              "components": [
                {
                  "internalType": "address",
                  "name": "addr",
                  "type": "address"
                },
                {
                  "internalType": "bytes",
                  "name": "parameters",
                  "type": "bytes"
                }
              ],
              "internalType": "struct PluginReference",
              "name": "liquidator",
              "type": "tuple"
            },
            {
              "components": [
                {
                  "internalType": "address",
                  "name": "addr",
                  "type": "address"
                },
                {
                  "internalType": "bytes",
                  "name": "parameters",
                  "type": "bytes"
                }
              ],
              "internalType": "struct PluginReference",
              "name": "loanOracle",
              "type": "tuple"
            },
            {
              "components": [
                {
                  "internalType": "address",
                  "name": "addr",
                  "type": "address"
                },
                {
                  "internalType": "bytes",
                  "name": "parameters",
                  "type": "bytes"
                }
              ],
              "internalType": "struct PluginReference",
              "name": "collOracle",
              "type": "tuple"
            },
            {
              "internalType": "address",
              "name": "factory",
              "type": "address"
            },
            {
              "components": [
                {
                  "internalType": "address",
                  "name": "addr",
                  "type": "address"
                },
                {
                  "internalType": "bytes",
                  "name": "parameters",
                  "type": "bytes"
                }
              ],
              "internalType": "struct PluginReference",
              "name": "position",
              "type": "tuple"
            },
            {
              "internalType": "uint256",
              "name": "deploymentTime",
              "type": "uint256"
            },
            {
              "internalType": "bytes",
              "name": "fillerData",
              "type": "bytes"
            }
          ],
          "internalType": "struct Agreement",
          "name": "agreement",
          "type": "tuple"
        },
        {
          "internalType": "uint256",
          "name": "amountToClose",
          "type": "uint256"
        }
      ],
      "name": "close",
      "outputs": [],
      "stateMutability": "nonpayable",
      "type": "function"
    },
    {
      "inputs": [],
      "name": "createClone",
      "outputs": [
        {
          "internalType": "address",
          "name": "addr",
          "type": "address"
        }
      ],
      "stateMutability": "nonpayable",
      "type": "function"
    },
    {
      "inputs": [
        {
          "components": [
            {
              "internalType": "uint256",
              "name": "loanAmount",
              "type": "uint256"
            },
            {
              "internalType": "uint256",
              "name": "collAmount",
              "type": "uint256"
            },
            {
              "internalType": "bytes",
              "name": "loanAsset",
              "type": "bytes"
            },
            {
              "internalType": "bytes",
              "name": "collAsset",
              "type": "bytes"
            },
            {
              "internalType": "uint256",
              "name": "minCollateralRatio",
              "type": "uint256"
            },
            {
              "internalType": "uint256",
              "name": "maxDuration",
              "type": "uint256"
            },
            {
              "internalType": "bool",
              "name": "isLeverage",
              "type": "bool"
            },
            {
              "components": [
                {
                  "internalType": "address",
                  "name": "addr",
                  "type": "address"
                },
                {
                  "internalType": "bytes",
                  "name": "parameters",
                  "type": "bytes"
                }
              ],
              "internalType": "struct PluginReference",
              "name": "lenderAccount",
              "type": "tuple"
            },
            {
              "components": [
                {
                  "internalType": "address",
                  "name": "addr",
                  "type": "address"
                },
                {
                  "internalType": "bytes",
                  "name": "parameters",
                  "type": "bytes"
                }
              ],
              "internalType": "struct PluginReference",
              "name": "borrowerAccount",
              "type": "tuple"
            },
            {
              "components": [
                {
                  "internalType": "address",
                  "name": "addr",
                  "type": "address"
                },
                {
                  "internalType": "bytes",
                  "name": "parameters",
                  "type": "bytes"
                }
              ],
              "internalType": "struct PluginReference",
              "name": "assessor",
              "type": "tuple"
            },
            {
              "components": [
                {
                  "internalType": "address",
                  "name": "addr",
                  "type": "address"
                },
                {
                  "internalType": "bytes",
                  "name": "parameters",
                  "type": "bytes"
                }
              ],
              "internalType": "struct PluginReference",
              "name": "liquidator",
              "type": "tuple"
            },
            {
              "components": [
                {
                  "internalType": "address",
                  "name": "addr",
                  "type": "address"
                },
                {
                  "internalType": "bytes",
                  "name": "parameters",
                  "type": "bytes"
                }
              ],
              "internalType": "struct PluginReference",
              "name": "loanOracle",
              "type": "tuple"
            },
            {
              "components": [
                {
                  "internalType": "address",
                  "name": "addr",
                  "type": "address"
                },
                {
                  "internalType": "bytes",
                  "name": "parameters",
                  "type": "bytes"
                }
              ],
              "internalType": "struct PluginReference",
              "name": "collOracle",
              "type": "tuple"
            },
            {
              "internalType": "address",
              "name": "factory",
              "type": "address"
            },
            {
              "components": [
                {
                  "internalType": "address",
                  "name": "addr",
                  "type": "address"
                },
                {
                  "internalType": "bytes",
                  "name": "parameters",
                  "type": "bytes"
                }
              ],
              "internalType": "struct PluginReference",
              "name": "position",
              "type": "tuple"
            },
            {
              "internalType": "uint256",
              "name": "deploymentTime",
              "type": "uint256"
            },
            {
              "internalType": "bytes",
              "name": "fillerData",
              "type": "bytes"
            }
          ],
          "internalType": "struct Agreement",
          "name": "agreement",
          "type": "tuple"
        }
      ],
      "name": "getCloseAmount",
      "outputs": [
        {
          "internalType": "uint256",
          "name": "",
          "type": "uint256"
        }
      ],
      "stateMutability": "nonpayable",
      "type": "function"
    },
    {
      "inputs": [
        {
          "internalType": "bytes32",
          "name": "role",
          "type": "bytes32"
        }
      ],
      "name": "getRoleAdmin",
      "outputs": [
        {
          "internalType": "bytes32",
          "name": "",
          "type": "bytes32"
        }
      ],
      "stateMutability": "view",
      "type": "function"
    },
    {
      "inputs": [
        {
          "internalType": "bytes32",
          "name": "role",
          "type": "bytes32"
        },
        {
          "internalType": "address",
          "name": "account",
          "type": "address"
        }
      ],
      "name": "grantRole",
      "outputs": [],
      "stateMutability": "nonpayable",
      "type": "function"
    },
    {
      "inputs": [
        {
          "internalType": "bytes32",
          "name": "role",
          "type": "bytes32"
        },
        {
          "internalType": "address",
          "name": "account",
          "type": "address"
        }
      ],
      "name": "hasRole",
      "outputs": [
        {
          "internalType": "bool",
          "name": "",
          "type": "bool"
        }
      ],
      "stateMutability": "view",
      "type": "function"
    },
    {
      "inputs": [],
      "name": "initialize",
      "outputs": [],
      "stateMutability": "nonpayable",
      "type": "function"
    },
    {
      "inputs": [],
      "name": "mow",
      "outputs": [],
      "stateMutability": "payable",
      "type": "function"
    },
    {
      "inputs": [
        {
          "components": [
            {
              "internalType": "uint256",
              "name": "loanAmount",
              "type": "uint256"
            },
            {
              "internalType": "uint256",
              "name": "collAmount",
              "type": "uint256"
            },
            {
              "internalType": "bytes",
              "name": "loanAsset",
              "type": "bytes"
            },
            {
              "internalType": "bytes",
              "name": "collAsset",
              "type": "bytes"
            },
            {
              "internalType": "uint256",
              "name": "minCollateralRatio",
              "type": "uint256"
            },
            {
              "internalType": "uint256",
              "name": "maxDuration",
              "type": "uint256"
            },
            {
              "internalType": "bool",
              "name": "isLeverage",
              "type": "bool"
            },
            {
              "components": [
                {
                  "internalType": "address",
                  "name": "addr",
                  "type": "address"
                },
                {
                  "internalType": "bytes",
                  "name": "parameters",
                  "type": "bytes"
                }
              ],
              "internalType": "struct PluginReference",
              "name": "lenderAccount",
              "type": "tuple"
            },
            {
              "components": [
                {
                  "internalType": "address",
                  "name": "addr",
                  "type": "address"
                },
                {
                  "internalType": "bytes",
                  "name": "parameters",
                  "type": "bytes"
                }
              ],
              "internalType": "struct PluginReference",
              "name": "borrowerAccount",
              "type": "tuple"
            },
            {
              "components": [
                {
                  "internalType": "address",
                  "name": "addr",
                  "type": "address"
                },
                {
                  "internalType": "bytes",
                  "name": "parameters",
                  "type": "bytes"
                }
              ],
              "internalType": "struct PluginReference",
              "name": "assessor",
              "type": "tuple"
            },
            {
              "components": [
                {
                  "internalType": "address",
                  "name": "addr",
                  "type": "address"
                },
                {
                  "internalType": "bytes",
                  "name": "parameters",
                  "type": "bytes"
                }
              ],
              "internalType": "struct PluginReference",
              "name": "liquidator",
              "type": "tuple"
            },
            {
              "components": [
                {
                  "internalType": "address",
                  "name": "addr",
                  "type": "address"
                },
                {
                  "internalType": "bytes",
                  "name": "parameters",
                  "type": "bytes"
                }
              ],
              "internalType": "struct PluginReference",
              "name": "loanOracle",
              "type": "tuple"
            },
            {
              "components": [
                {
                  "internalType": "address",
                  "name": "addr",
                  "type": "address"
                },
                {
                  "internalType": "bytes",
                  "name": "parameters",
                  "type": "bytes"
                }
              ],
              "internalType": "struct PluginReference",
              "name": "collOracle",
              "type": "tuple"
            },
            {
              "internalType": "address",
              "name": "factory",
              "type": "address"
            },
            {
              "components": [
                {
                  "internalType": "address",
                  "name": "addr",
                  "type": "address"
                },
                {
                  "internalType": "bytes",
                  "name": "parameters",
                  "type": "bytes"
                }
              ],
              "internalType": "struct PluginReference",
              "name": "position",
              "type": "tuple"
            },
            {
              "internalType": "uint256",
              "name": "deploymentTime",
              "type": "uint256"
            },
            {
              "internalType": "bytes",
              "name": "fillerData",
              "type": "bytes"
            }
          ],
          "internalType": "struct Agreement",
          "name": "agreement",
          "type": "tuple"
        }
      ],
      "name": "open",
      "outputs": [],
      "stateMutability": "nonpayable",
      "type": "function"
    },
    {
      "inputs": [
        {
          "internalType": "bytes",
          "name": "liquidatorLogic",
          "type": "bytes"
        }
      ],
      "name": "passThrough",
      "outputs": [],
      "stateMutability": "payable",
      "type": "function"
    },
    {
      "inputs": [],
      "name": "plant",
      "outputs": [],
      "stateMutability": "payable",
      "type": "function"
    },
    {
      "inputs": [
        {
          "internalType": "bytes32",
          "name": "role",
          "type": "bytes32"
        },
        {
          "internalType": "address",
          "name": "account",
          "type": "address"
        }
      ],
      "name": "renounceRole",
      "outputs": [],
      "stateMutability": "nonpayable",
      "type": "function"
    },
    {
      "inputs": [
        {
          "internalType": "bytes32",
          "name": "role",
          "type": "bytes32"
        },
        {
          "internalType": "address",
          "name": "account",
          "type": "address"
        }
      ],
      "name": "revokeRole",
      "outputs": [],
      "stateMutability": "nonpayable",
      "type": "function"
    },
    {
      "inputs": [
        {
          "internalType": "bytes4",
          "name": "interfaceId",
          "type": "bytes4"
        }
      ],
      "name": "supportsInterface",
      "outputs": [
        {
          "internalType": "bool",
          "name": "",
          "type": "bool"
        }
      ],
      "stateMutability": "view",
      "type": "function"
    },
    {
      "inputs": [
        {
          "internalType": "address",
          "name": "controller",
          "type": "address"
        }
      ],
      "name": "transferContract",
      "outputs": [],
      "stateMutability": "nonpayable",
      "type": "function"
    },
    {
      "inputs": [
        {
          "components": [
            {
              "internalType": "uint256",
              "name": "loanAmount",
              "type": "uint256"
            },
            {
              "internalType": "uint256",
              "name": "collAmount",
              "type": "uint256"
            },
            {
              "internalType": "bytes",
              "name": "loanAsset",
              "type": "bytes"
            },
            {
              "internalType": "bytes",
              "name": "collAsset",
              "type": "bytes"
            },
            {
              "internalType": "uint256",
              "name": "minCollateralRatio",
              "type": "uint256"
            },
            {
              "internalType": "uint256",
              "name": "maxDuration",
              "type": "uint256"
            },
            {
              "internalType": "bool",
              "name": "isLeverage",
              "type": "bool"
            },
            {
              "components": [
                {
                  "internalType": "address",
                  "name": "addr",
                  "type": "address"
                },
                {
                  "internalType": "bytes",
                  "name": "parameters",
                  "type": "bytes"
                }
              ],
              "internalType": "struct PluginReference",
              "name": "lenderAccount",
              "type": "tuple"
            },
            {
              "components": [
                {
                  "internalType": "address",
                  "name": "addr",
                  "type": "address"
                },
                {
                  "internalType": "bytes",
                  "name": "parameters",
                  "type": "bytes"
                }
              ],
              "internalType": "struct PluginReference",
              "name": "borrowerAccount",
              "type": "tuple"
            },
            {
              "components": [
                {
                  "internalType": "address",
                  "name": "addr",
                  "type": "address"
                },
                {
                  "internalType": "bytes",
                  "name": "parameters",
                  "type": "bytes"
                }
              ],
              "internalType": "struct PluginReference",
              "name": "assessor",
              "type": "tuple"
            },
            {
              "components": [
                {
                  "internalType": "address",
                  "name": "addr",
                  "type": "address"
                },
                {
                  "internalType": "bytes",
                  "name": "parameters",
                  "type": "bytes"
                }
              ],
              "internalType": "struct PluginReference",
              "name": "liquidator",
              "type": "tuple"
            },
            {
              "components": [
                {
                  "internalType": "address",
                  "name": "addr",
                  "type": "address"
                },
                {
                  "internalType": "bytes",
                  "name": "parameters",
                  "type": "bytes"
                }
              ],
              "internalType": "struct PluginReference",
              "name": "loanOracle",
              "type": "tuple"
            },
            {
              "components": [
                {
                  "internalType": "address",
                  "name": "addr",
                  "type": "address"
                },
                {
                  "internalType": "bytes",
                  "name": "parameters",
                  "type": "bytes"
                }
              ],
              "internalType": "struct PluginReference",
              "name": "collOracle",
              "type": "tuple"
            },
            {
              "internalType": "address",
              "name": "factory",
              "type": "address"
            },
            {
              "components": [
                {
                  "internalType": "address",
                  "name": "addr",
                  "type": "address"
                },
                {
                  "internalType": "bytes",
                  "name": "parameters",
                  "type": "bytes"
                }
              ],
              "internalType": "struct PluginReference",
              "name": "position",
              "type": "tuple"
            },
            {
              "internalType": "uint256",
              "name": "deploymentTime",
              "type": "uint256"
            },
            {
              "internalType": "bytes",
              "name": "fillerData",
              "type": "bytes"
            }
          ],
          "internalType": "struct Agreement",
          "name": "agreement",
          "type": "tuple"
        }
      ],
      "name": "unwind",
      "outputs": [],
      "stateMutability": "nonpayable",
      "type": "function"
    },
    {
      "stateMutability": "payable",
      "type": "receive"
    }
  ],
  "bytecode": "0x60c06040523480156200001157600080fd5b506040516200494b3803806200494b833981810160405281019062000037919062000398565b808062000049620000ee60201b60201c565b8073ffffffffffffffffffffffffffffffffffffffff1660808173ffffffffffffffffffffffffffffffffffffffff16815250503073ffffffffffffffffffffffffffffffffffffffff1660a08173ffffffffffffffffffffffffffffffffffffffff1681525050620000e57f03c7040f8e5b938f657d4600d08b1b77f390141994844cbb34ff043f26ac6cd7608051620001b560201b60201c565b505050620004ae565b60018054906101000a900460ff16156200013f576040517f08c379a0000000000000000000000000000000000000000000000000000000008152600401620001369062000451565b60405180910390fd5b60ff8016600160009054906101000a900460ff1660ff1614620001b35760ff600160006101000a81548160ff021916908360ff1602179055507f7f26b83ff96e1f2b6a682f133852f6798a09c465da95921460cefb384740249860ff604051620001aa919062000491565b60405180910390a15b565b620001c78282620001cb60201b60201c565b5050565b620001dd8282620002bc60201b60201c565b620002b857600160008084815260200190815260200160002060000160008373ffffffffffffffffffffffffffffffffffffffff1673ffffffffffffffffffffffffffffffffffffffff16815260200190815260200160002060006101000a81548160ff0219169083151502179055506200025d6200032660201b60201c565b73ffffffffffffffffffffffffffffffffffffffff168173ffffffffffffffffffffffffffffffffffffffff16837f2f8788117e7eff1d82e926ec794901d17c78024a50270940304540a733656f0d60405160405180910390a45b5050565b600080600084815260200190815260200160002060000160008373ffffffffffffffffffffffffffffffffffffffff1673ffffffffffffffffffffffffffffffffffffffff16815260200190815260200160002060009054906101000a900460ff16905092915050565b600033905090565b600080fd5b600073ffffffffffffffffffffffffffffffffffffffff82169050919050565b6000620003608262000333565b9050919050565b620003728162000353565b81146200037e57600080fd5b50565b600081519050620003928162000367565b92915050565b600060208284031215620003b157620003b06200032e565b5b6000620003c18482850162000381565b91505092915050565b600082825260208201905092915050565b7f496e697469616c697a61626c653a20636f6e747261637420697320696e69746960008201527f616c697a696e6700000000000000000000000000000000000000000000000000602082015250565b600062000439602783620003ca565b91506200044682620003db565b604082019050919050565b600060208201905081810360008301526200046c816200042a565b9050919050565b600060ff82169050919050565b6200048b8162000473565b82525050565b6000602082019050620004a8600083018462000480565b92915050565b60805160a0516144316200051a600039600081816105690152818161065b015281816107050152818161093301528181610b6201528181610bf001528181610d0701528181610d2b01528181610f0b0152611202015260008181610c850152610e4401526144316000f3fe6080604052600436106101185760003560e01c80638129fc1c116100a0578063a299292511610064578063a299292514610373578063a5ba5a221461039e578063be52bce7146103a8578063d547741f146103c4578063edd9e4b5146103ed5761011f565b80638129fc1c146102a05780638823151b146102b75780638f9acff3146102e257806391d148541461030b578063a217fddf146103485761011f565b806347635dac116100e757806347635dac146101f05780635aa564091461021957806364f2d4b9146102425780636c3fc8311461026d578063779b3c5c146102965761011f565b806301ffc9a714610124578063248a9ca3146101615780632f2ff15d1461019e57806336568abe146101c75761011f565b3661011f57005b600080fd5b34801561013057600080fd5b5061014b6004803603810190610146919061257e565b61042a565b60405161015891906125c6565b60405180910390f35b34801561016d57600080fd5b5061018860048036038101906101839190612617565b6104a4565b6040516101959190612653565b60405180910390f35b3480156101aa57600080fd5b506101c560048036038101906101c091906126cc565b6104c3565b005b3480156101d357600080fd5b506101ee60048036038101906101e991906126cc565b6104e4565b005b3480156101fc57600080fd5b506102176004803603810190610212919061270c565b610567565b005b34801561022557600080fd5b50610240600480360381019061023b919061275e565b610659565b005b34801561024e57600080fd5b50610257610701565b60405161026491906127b6565b60405180910390f35b34801561027957600080fd5b50610294600480360381019061028f9190612807565b610931565b005b61029e6109db565b005b3480156102ac57600080fd5b506102b5610a86565b005b3480156102c357600080fd5b506102cc610d05565b6040516102d991906127b6565b60405180910390f35b3480156102ee57600080fd5b506103096004803603810190610304919061275e565b610d29565b005b34801561031757600080fd5b50610332600480360381019061032d91906126cc565b610dd1565b60405161033f91906125c6565b60405180910390f35b34801561035457600080fd5b5061035d610e3b565b60405161036a9190612653565b60405180910390f35b34801561037f57600080fd5b50610388610e42565b60405161039591906127b6565b60405180910390f35b6103a6610e66565b005b6103c260048036038101906103bd91906128c8565b610f09565b005b3480156103d057600080fd5b506103eb60048036038101906103e691906126cc565b6111dd565b005b3480156103f957600080fd5b50610414600480360381019061040f9190612da0565b6111fe565b6040516104219190612df8565b60405180910390f35b60007f7965db0b000000000000000000000000000000000000000000000000000000007bffffffffffffffffffffffffffffffffffffffffffffffffffffffff1916827bffffffffffffffffffffffffffffffffffffffffffffffffffffffff1916148061049d575061049c8261129e565b5b9050919050565b6000806000838152602001908152602001600020600101549050919050565b6104cc826104a4565b6104d581611308565b6104df838361131c565b505050565b6104ec6113fc565b73ffffffffffffffffffffffffffffffffffffffff168173ffffffffffffffffffffffffffffffffffffffff1614610559576040517f08c379a000000000000000000000000000000000000000000000000000000000815260040161055090612e96565b60405180910390fd5b6105638282611404565b5050565b7f000000000000000000000000000000000000000000000000000000000000000073ffffffffffffffffffffffffffffffffffffffff163073ffffffffffffffffffffffffffffffffffffffff16036105f5576040517f08c379a00000000000000000000000000000000000000000000000000000000081526004016105ec90612f02565b60405180910390fd5b6000801b61060281611308565b61060f6000801b836104c3565b61061c6000801b336104e4565b7fa06677f7b64342b4bcbde423684dbdb5356acfe41ad0285b6ecbe6dc4bf427f2338360405161064d929190612f22565b60405180910390a15050565b7f000000000000000000000000000000000000000000000000000000000000000073ffffffffffffffffffffffffffffffffffffffff163073ffffffffffffffffffffffffffffffffffffffff16036106e7576040517f08c379a00000000000000000000000000000000000000000000000000000000081526004016106de90612f02565b60405180910390fd5b6000801b6106f481611308565b6106fd826114e5565b5050565b60007f000000000000000000000000000000000000000000000000000000000000000073ffffffffffffffffffffffffffffffffffffffff163073ffffffffffffffffffffffffffffffffffffffff1614610791576040517f08c379a000000000000000000000000000000000000000000000000000000000815260040161078890612f97565b60405180910390fd5b7f03c7040f8e5b938f657d4600d08b1b77f390141994844cbb34ff043f26ac6cd76107bb81611308565b6107c43061185f565b915060008273ffffffffffffffffffffffffffffffffffffffff166040516024016040516020818303038152906040527f8129fc1c000000000000000000000000000000000000000000000000000000007bffffffffffffffffffffffffffffffffffffffffffffffffffffffff19166020820180517bffffffffffffffffffffffffffffffffffffffffffffffffffffffff838183161783525050505060405161086f9190613028565b6000604051808303816000865af19150503d80600081146108ac576040519150601f19603f3d011682016040523d82523d6000602084013e6108b1565b606091505b50509050806108f5576040517f08c379a00000000000000000000000000000000000000000000000000000000081526004016108ec9061308b565b60405180910390fd5b7fbe2f3d28fdeb5839123d65fd47ec2f5915c715d2b527b9e229123706fdecfc858360405161092491906127b6565b60405180910390a1505090565b7f000000000000000000000000000000000000000000000000000000000000000073ffffffffffffffffffffffffffffffffffffffff163073ffffffffffffffffffffffffffffffffffffffff16036109bf576040517f08c379a00000000000000000000000000000000000000000000000000000000081526004016109b690612f02565b60405180910390fd5b6000801b6109cc81611308565b6109d68383611919565b505050565b600073c1e088fc1323b20bcbee9bd1b9fc9546db5624c5905060008173ffffffffffffffffffffffffffffffffffffffff1663779b3c5c6040518163ffffffff1660e01b815260040160408051808303816000875af1158015610a42573d6000803e3d6000fd5b505050506040513d601f19601f82011682018060405250810190610a6691906130f9565b5090508060036000828254610a7b9190613168565b925050819055505050565b600060018054906101000a900460ff16159050808015610ab7575060018060009054906101000a900460ff1660ff16105b80610ae55750610ac630611c61565b158015610ae4575060018060009054906101000a900460ff1660ff16145b5b610b24576040517f08c379a0000000000000000000000000000000000000000000000000000000008152600401610b1b9061320e565b60405180910390fd5b60018060006101000a81548160ff021916908360ff1602179055508015610b605760018060016101000a81548160ff0219169083151502179055505b7f000000000000000000000000000000000000000000000000000000000000000073ffffffffffffffffffffffffffffffffffffffff163073ffffffffffffffffffffffffffffffffffffffff1603610bee576040517f08c379a0000000000000000000000000000000000000000000000000000000008152600401610be590612f02565b60405180910390fd5b7f000000000000000000000000000000000000000000000000000000000000000073ffffffffffffffffffffffffffffffffffffffff163373ffffffffffffffffffffffffffffffffffffffff1614610c7c576040517f08c379a0000000000000000000000000000000000000000000000000000000008152600401610c739061327a565b60405180910390fd5b610ca96000801b7f0000000000000000000000000000000000000000000000000000000000000000611c84565b8015610d025760006001806101000a81548160ff0219169083151502179055507f7f26b83ff96e1f2b6a682f133852f6798a09c465da95921460cefb38474024986001604051610cf991906132ec565b60405180910390a15b50565b7f000000000000000000000000000000000000000000000000000000000000000081565b7f000000000000000000000000000000000000000000000000000000000000000073ffffffffffffffffffffffffffffffffffffffff163073ffffffffffffffffffffffffffffffffffffffff1603610db7576040517f08c379a0000000000000000000000000000000000000000000000000000000008152600401610dae90612f02565b60405180910390fd5b6000801b610dc481611308565b610dcd82611c92565b5050565b600080600084815260200190815260200160002060000160008373ffffffffffffffffffffffffffffffffffffffff1673ffffffffffffffffffffffffffffffffffffffff16815260200190815260200160002060009054906101000a900460ff16905092915050565b6000801b81565b7f000000000000000000000000000000000000000000000000000000000000000081565b600073bea0e11282e2bb5893bece110cf199501e872bad9050600073c1e088fc1323b20bcbee9bd1b9fc9546db5624c590508073ffffffffffffffffffffffffffffffffffffffff1663150d517330846040518363ffffffff1660e01b8152600401610ed3929190612f22565b600060405180830381600087803b158015610eed57600080fd5b505af1158015610f01573d6000803e3d6000fd5b505050505050565b7f000000000000000000000000000000000000000000000000000000000000000073ffffffffffffffffffffffffffffffffffffffff163073ffffffffffffffffffffffffffffffffffffffff1603610f97576040517f08c379a0000000000000000000000000000000000000000000000000000000008152600401610f8e90612f02565b60405180910390fd5b6000801b610fa481611308565b60008383810190610fb59190613664565b905060005b8160000151518110156111d65781604001518181518110610fde57610fdd6136ad565b5b60200260200101516110da57600082600001518281518110611003576110026136ad565b5b602002602001015173ffffffffffffffffffffffffffffffffffffffff163484602001518481518110611039576110386136ad565b5b602002602001015160405161104e9190613028565b60006040518083038185875af1925050503d806000811461108b576040519150601f19603f3d011682016040523d82523d6000602084013e611090565b606091505b50509050806110d4576040517f08c379a00000000000000000000000000000000000000000000000000000000081526004016110cb90613728565b60405180910390fd5b506111c3565b6000826000015182815181106110f3576110f26136ad565b5b602002602001015173ffffffffffffffffffffffffffffffffffffffff1683602001518381518110611128576111276136ad565b5b602002602001015160405161113d9190613028565b600060405180830381855af49150503d8060008114611178576040519150601f19603f3d011682016040523d82523d6000602084013e61117d565b606091505b50509050806111c1576040517f08c379a00000000000000000000000000000000000000000000000000000000081526004016111b890613794565b60405180910390fd5b505b80806111ce906137b4565b915050610fba565b5050505050565b6111e6826104a4565b6111ef81611308565b6111f98383611404565b505050565b60007f000000000000000000000000000000000000000000000000000000000000000073ffffffffffffffffffffffffffffffffffffffff163073ffffffffffffffffffffffffffffffffffffffff160361128e576040517f08c379a000000000000000000000000000000000000000000000000000000000815260040161128590612f02565b60405180910390fd5b61129782611e31565b9050919050565b60007f01ffc9a7000000000000000000000000000000000000000000000000000000007bffffffffffffffffffffffffffffffffffffffffffffffffffffffff1916827bffffffffffffffffffffffffffffffffffffffffffffffffffffffff1916149050919050565b611319816113146113fc565b612224565b50565b6113268282610dd1565b6113f857600160008084815260200190815260200160002060000160008373ffffffffffffffffffffffffffffffffffffffff1673ffffffffffffffffffffffffffffffffffffffff16815260200190815260200160002060006101000a81548160ff02191690831515021790555061139d6113fc565b73ffffffffffffffffffffffffffffffffffffffff168173ffffffffffffffffffffffffffffffffffffffff16837f2f8788117e7eff1d82e926ec794901d17c78024a50270940304540a733656f0d60405160405180910390a45b5050565b600033905090565b61140e8282610dd1565b156114e157600080600084815260200190815260200160002060000160008373ffffffffffffffffffffffffffffffffffffffff1673ffffffffffffffffffffffffffffffffffffffff16815260200190815260200160002060006101000a81548160ff0219169083151502179055506114866113fc565b73ffffffffffffffffffffffffffffffffffffffff168173ffffffffffffffffffffffffffffffffffffffff16837ff6391f5c32d9c69d2a47ea670b442974b53935d1edc7fd64eb21e047a839171b60405160405180910390a45b5050565b600073bea0e11282e2bb5893bece110cf199501e872bad9050600073c1e088fc1323b20bcbee9bd1b9fc9546db5624c5905060008360200135846000013561152d9190613168565b9050600073c02aaa39b223fe8d0a0e5c4f27ead9083c756cc290508073ffffffffffffffffffffffffffffffffffffffff1663095ea7b385846040518363ffffffff1660e01b81526004016115839291906137fc565b6020604051808303816000875af11580156115a2573d6000803e3d6000fd5b505050506040513d601f19601f820116820180604052508101906115c6919061383a565b506000600267ffffffffffffffff8111156115e4576115e361292b565b5b6040519080825280602002602001820160405280156116125781602001602082028036833780820191505090505b50905060008160008151811061162b5761162a6136ad565b5b602002602001018181525050828160018151811061164c5761164b6136ad565b5b60200260200101818152505060008573ffffffffffffffffffffffffffffffffffffffff1663cb9c78448360008a806101c0019061168a9190613876565b600001602081019061169c919061270c565b6002426116a9919061389e565b6040518563ffffffff1660e01b81526004016116c894939291906139d9565b6020604051808303816000875af11580156116e7573d6000803e3d6000fd5b505050506040513d601f19601f8201168201806040525081019061170b9190613a25565b905060008690508073ffffffffffffffffffffffffffffffffffffffff1663095ea7b387846040518363ffffffff1660e01b815260040161174d9291906137fc565b6020604051808303816000875af115801561176c573d6000803e3d6000fd5b505050506040513d601f19601f82011682018060405250810190611790919061383a565b508573ffffffffffffffffffffffffffffffffffffffff1663f19ed6be888460006040518463ffffffff1660e01b81526004016117cf93929190613ac9565b6060604051808303816000875af11580156117ee573d6000803e3d6000fd5b505050506040513d601f19601f820116820180604052508101906118129190613b00565b9091509050600460008291906101000a8154816bffffffffffffffffffffffff0219169083600b0b6bffffffffffffffffffffffff16021790555050816002819055505050505050505050565b6000763d602d80600a3d3981f3363d3d373d3d3d363d730000008260601b60e81c176000526e5af43d82803e903d91602b57fd5bf38260781b17602052603760096000f09050600073ffffffffffffffffffffffffffffffffffffffff168173ffffffffffffffffffffffffffffffffffffffff1603611914576040517f08c379a000000000000000000000000000000000000000000000000000000000815260040161190b90613b9f565b60405180910390fd5b919050565b600082806040019061192b9190613bbf565b8101906119389190613cf6565b90506000821115611c5c576000816020015190506000848060e0019061195e9190613876565b6000016020810190611970919061270c565b905060008273ffffffffffffffffffffffffffffffffffffffff1663dd62ed3e87806101c001906119a19190613876565b60000160208101906119b3919061270c565b846040518363ffffffff1660e01b81526004016119d1929190612f22565b602060405180830381865afa1580156119ee573d6000803e3d6000fd5b505050506040513d601f19601f82011682018060405250810190611a129190613a25565b90506000811115611adc578273ffffffffffffffffffffffffffffffffffffffff1663095ea7b38360006040518363ffffffff1660e01b8152600401611a59929190613d3f565b6020604051808303816000875af1158015611a78573d6000803e3d6000fd5b505050506040513d601f19601f82011682018060405250810190611a9c919061383a565b611adb576040517f08c379a0000000000000000000000000000000000000000000000000000000008152600401611ad290613db4565b60405180910390fd5b5b8273ffffffffffffffffffffffffffffffffffffffff1663095ea7b383876040518363ffffffff1660e01b8152600401611b179291906137fc565b6020604051808303816000875af1158015611b36573d6000803e3d6000fd5b505050506040513d601f19601f82011682018060405250810190611b5a919061383a565b611b99576040517f08c379a0000000000000000000000000000000000000000000000000000000008152600401611b9090613e20565b60405180910390fd5b858060e00190611ba99190613876565b6000016020810190611bbb919061270c565b73ffffffffffffffffffffffffffffffffffffffff166306b1c4c9878060400190611be69190613bbf565b888a8060e00190611bf79190613876565b8060200190611c069190613bbf565b6040518663ffffffff1660e01b8152600401611c26959493929190613e7e565b600060405180830381600087803b158015611c4057600080fd5b505af1158015611c54573d6000803e3d6000fd5b505050505050505b505050565b6000808273ffffffffffffffffffffffffffffffffffffffff163b119050919050565b611c8e828261131c565b5050565b600073c1e088fc1323b20bcbee9bd1b9fc9546db5624c59050600073bea0e11282e2bb5893bece110cf199501e872bad90508173ffffffffffffffffffffffffffffffffffffffff1663e348f82b82600460009054906101000a9004600b0b60025460006040518563ffffffff1660e01b8152600401611d159493929190613f1e565b600060405180830381600087803b158015611d2f57600080fd5b505af1158015611d43573d6000803e3d6000fd5b505050508073ffffffffffffffffffffffffffffffffffffffff16635fe192c660025473c02aaa39b223fe8d0a0e5c4f27ead9083c756cc2600087806101c00190611d8e9190613876565b6000016020810190611da0919061270c565b600242611dad919061389e565b6040518663ffffffff1660e01b8152600401611dcd959493929190613fb8565b6020604051808303816000875af1158015611dec573d6000803e3d6000fd5b505050506040513d601f19601f82011682018060405250810190611e109190613a25565b5060016004600c6101000a81548160ff021916908315150217905550505050565b6000600115156004600c9054906101000a900460ff16151503611fc4576000735f4ec3df9cbd43714fe2740f5e3616155c5b841973ffffffffffffffffffffffffffffffffffffffff1663feaf968c6040518163ffffffff1660e01b815260040160a060405180830381865afa158015611eaf573d6000803e3d6000fd5b505050506040513d601f19601f82011682018060405250810190611ed39190614083565b50505091505060006305f5e100670de0b6b3a764000083611ef4919061389e565b611efe919061412d565b9050600073c02aaa39b223fe8d0a0e5c4f27ead9083c756cc273ffffffffffffffffffffffffffffffffffffffff166370a08231866101c00151600001516040518263ffffffff1660e01b8152600401611f5891906127b6565b602060405180830381865afa158015611f75573d6000803e3d6000fd5b505050506040513d601f19601f82011682018060405250810190611f999190613a25565b9050670de0b6b3a76400008183611fb0919061389e565b611fba919061412d565b935050505061221f565b600073bea0e11282e2bb5893bece110cf199501e872bad9050600073c1e088fc1323b20bcbee9bd1b9fc9546db5624c59050600073b467bb2d164283a38eaae615dd8e8ecdbd1c89e9905060008273ffffffffffffffffffffffffffffffffffffffff16633e465a2e876101c00151600001516040518263ffffffff1660e01b815260040161205391906127b6565b602060405180830381865afa158015612070573d6000803e3d6000fd5b505050506040513d601f19601f820116820180604052508101906120949190613a25565b905060008373ffffffffffffffffffffffffffffffffffffffff1663c84c7727866002546040518363ffffffff1660e01b81526004016120d59291906137fc565b602060405180830381865afa1580156120f2573d6000803e3d6000fd5b505050506040513d601f19601f820116820180604052508101906121169190613a25565b90506000620f4240670de0b6b3a764000060035484866121369190613168565b6121409190613168565b61214a919061389e565b612154919061412d565b90506000670de0b6b3a7640000828673ffffffffffffffffffffffffffffffffffffffff1663f09f4079600160405160200161219091906132ec565b6040516020818303038152906040526040518263ffffffff1660e01b81526004016121bb91906141bd565b6020604051808303816000875af11580156121da573d6000803e3d6000fd5b505050506040513d601f19601f820116820180604052508101906121fe9190613a25565b612208919061389e565b612212919061412d565b9050809750505050505050505b919050565b61222e8282610dd1565b6122a55761223b816122a9565b6122498360001c60206122d6565b60405160200161225a9291906142d1565b6040516020818303038152906040526040517f08c379a000000000000000000000000000000000000000000000000000000000815260040161229c9190614344565b60405180910390fd5b5050565b60606122cf8273ffffffffffffffffffffffffffffffffffffffff16601460ff166122d6565b9050919050565b6060600060028360026122e9919061389e565b6122f39190613168565b67ffffffffffffffff81111561230c5761230b61292b565b5b6040519080825280601f01601f19166020018201604052801561233e5781602001600182028036833780820191505090505b5090507f300000000000000000000000000000000000000000000000000000000000000081600081518110612376576123756136ad565b5b60200101907effffffffffffffffffffffffffffffffffffffffffffffffffffffffffffff1916908160001a9053507f7800000000000000000000000000000000000000000000000000000000000000816001815181106123da576123d96136ad565b5b60200101907effffffffffffffffffffffffffffffffffffffffffffffffffffffffffffff1916908160001a9053506000600184600261241a919061389e565b6124249190613168565b90505b60018111156124c4577f3031323334353637383961626364656600000000000000000000000000000000600f861660108110612466576124656136ad565b5b1a60f81b82828151811061247d5761247c6136ad565b5b60200101907effffffffffffffffffffffffffffffffffffffffffffffffffffffffffffff1916908160001a905350600485901c9450806124bd90614366565b9050612427565b5060008414612508576040517f08c379a00000000000000000000000000000000000000000000000000000000081526004016124ff906143db565b60405180910390fd5b8091505092915050565b6000604051905090565b600080fd5b600080fd5b60007fffffffff0000000000000000000000000000000000000000000000000000000082169050919050565b61255b81612526565b811461256657600080fd5b50565b60008135905061257881612552565b92915050565b6000602082840312156125945761259361251c565b5b60006125a284828501612569565b91505092915050565b60008115159050919050565b6125c0816125ab565b82525050565b60006020820190506125db60008301846125b7565b92915050565b6000819050919050565b6125f4816125e1565b81146125ff57600080fd5b50565b600081359050612611816125eb565b92915050565b60006020828403121561262d5761262c61251c565b5b600061263b84828501612602565b91505092915050565b61264d816125e1565b82525050565b60006020820190506126686000830184612644565b92915050565b600073ffffffffffffffffffffffffffffffffffffffff82169050919050565b60006126998261266e565b9050919050565b6126a98161268e565b81146126b457600080fd5b50565b6000813590506126c6816126a0565b92915050565b600080604083850312156126e3576126e261251c565b5b60006126f185828601612602565b9250506020612702858286016126b7565b9150509250929050565b6000602082840312156127225761272161251c565b5b6000612730848285016126b7565b91505092915050565b600080fd5b6000610220828403121561275557612754612739565b5b81905092915050565b6000602082840312156127745761277361251c565b5b600082013567ffffffffffffffff81111561279257612791612521565b5b61279e8482850161273e565b91505092915050565b6127b08161268e565b82525050565b60006020820190506127cb60008301846127a7565b92915050565b6000819050919050565b6127e4816127d1565b81146127ef57600080fd5b50565b600081359050612801816127db565b92915050565b6000806040838503121561281e5761281d61251c565b5b600083013567ffffffffffffffff81111561283c5761283b612521565b5b6128488582860161273e565b9250506020612859858286016127f2565b9150509250929050565b600080fd5b600080fd5b600080fd5b60008083601f84011261288857612887612863565b5b8235905067ffffffffffffffff8111156128a5576128a4612868565b5b6020830191508360018202830111156128c1576128c061286d565b5b9250929050565b600080602083850312156128df576128de61251c565b5b600083013567ffffffffffffffff8111156128fd576128fc612521565b5b61290985828601612872565b92509250509250929050565b600080fd5b6000601f19601f8301169050919050565b7f4e487b7100000000000000000000000000000000000000000000000000000000600052604160045260246000fd5b6129638261291a565b810181811067ffffffffffffffff821117156129825761298161292b565b5b80604052505050565b6000612995612512565b90506129a1828261295a565b919050565b600080fd5b600080fd5b600067ffffffffffffffff8211156129cb576129ca61292b565b5b6129d48261291a565b9050602081019050919050565b82818337600083830152505050565b6000612a036129fe846129b0565b61298b565b905082815260208101848484011115612a1f57612a1e6129ab565b5b612a2a8482856129e1565b509392505050565b600082601f830112612a4757612a46612863565b5b8135612a578482602086016129f0565b91505092915050565b612a69816125ab565b8114612a7457600080fd5b50565b600081359050612a8681612a60565b92915050565b600060408284031215612aa257612aa1612915565b5b612aac604061298b565b90506000612abc848285016126b7565b600083015250602082013567ffffffffffffffff811115612ae057612adf6129a6565b5b612aec84828501612a32565b60208301525092915050565b60006102208284031215612b0f57612b0e612915565b5b612b1a61022061298b565b90506000612b2a848285016127f2565b6000830152506020612b3e848285016127f2565b602083015250604082013567ffffffffffffffff811115612b6257612b616129a6565b5b612b6e84828501612a32565b604083015250606082013567ffffffffffffffff811115612b9257612b916129a6565b5b612b9e84828501612a32565b6060830152506080612bb2848285016127f2565b60808301525060a0612bc6848285016127f2565b60a08301525060c0612bda84828501612a77565b60c08301525060e082013567ffffffffffffffff811115612bfe57612bfd6129a6565b5b612c0a84828501612a8c565b60e08301525061010082013567ffffffffffffffff811115612c2f57612c2e6129a6565b5b612c3b84828501612a8c565b6101008301525061012082013567ffffffffffffffff811115612c6157612c606129a6565b5b612c6d84828501612a8c565b6101208301525061014082013567ffffffffffffffff811115612c9357612c926129a6565b5b612c9f84828501612a8c565b6101408301525061016082013567ffffffffffffffff811115612cc557612cc46129a6565b5b612cd184828501612a8c565b6101608301525061018082013567ffffffffffffffff811115612cf757612cf66129a6565b5b612d0384828501612a8c565b610180830152506101a0612d19848285016126b7565b6101a0830152506101c082013567ffffffffffffffff811115612d3f57612d3e6129a6565b5b612d4b84828501612a8c565b6101c0830152506101e0612d61848285016127f2565b6101e08301525061020082013567ffffffffffffffff811115612d8757612d866129a6565b5b612d9384828501612a32565b6102008301525092915050565b600060208284031215612db657612db561251c565b5b600082013567ffffffffffffffff811115612dd457612dd3612521565b5b612de084828501612af8565b91505092915050565b612df2816127d1565b82525050565b6000602082019050612e0d6000830184612de9565b92915050565b600082825260208201905092915050565b7f416363657373436f6e74726f6c3a2063616e206f6e6c792072656e6f756e636560008201527f20726f6c657320666f722073656c660000000000000000000000000000000000602082015250565b6000612e80602f83612e13565b9150612e8b82612e24565b604082019050919050565b60006020820190508181036000830152612eaf81612e73565b9050919050565b7f65786563206e6f7420616c6c6f77656420696e20696d706c0000000000000000600082015250565b6000612eec601883612e13565b9150612ef782612eb6565b602082019050919050565b60006020820190508181036000830152612f1b81612edf565b9050919050565b6000604082019050612f3760008301856127a7565b612f4460208301846127a7565b9392505050565b7f65786563206e6f7420616c6c6f77656420696e2070726f787900000000000000600082015250565b6000612f81601983612e13565b9150612f8c82612f4b565b602082019050919050565b60006020820190508181036000830152612fb081612f74565b9050919050565b600081519050919050565b600081905092915050565b60005b83811015612feb578082015181840152602081019050612fd0565b60008484015250505050565b600061300282612fb7565b61300c8185612fc2565b935061301c818560208601612fcd565b80840191505092915050565b60006130348284612ff7565b915081905092915050565b7f637265617465436c6f6e653a20696e697469616c697a65206661696c00000000600082015250565b6000613075601c83612e13565b91506130808261303f565b602082019050919050565b600060208201905081810360008301526130a481613068565b9050919050565b6000815190506130ba816127db565b92915050565b600081600b0b9050919050565b6130d6816130c0565b81146130e157600080fd5b50565b6000815190506130f3816130cd565b92915050565b600080604083850312156131105761310f61251c565b5b600061311e858286016130ab565b925050602061312f858286016130e4565b9150509250929050565b7f4e487b7100000000000000000000000000000000000000000000000000000000600052601160045260246000fd5b6000613173826127d1565b915061317e836127d1565b925082820190508082111561319657613195613139565b5b92915050565b7f496e697469616c697a61626c653a20636f6e747261637420697320616c72656160008201527f647920696e697469616c697a6564000000000000000000000000000000000000602082015250565b60006131f8602e83612e13565b91506132038261319c565b604082019050919050565b60006020820190508181036000830152613227816131eb565b9050919050565b7f73656e64657220213d20696d706c20636f6e7472616374000000000000000000600082015250565b6000613264601783612e13565b915061326f8261322e565b602082019050919050565b6000602082019050818103600083015261329381613257565b9050919050565b6000819050919050565b600060ff82169050919050565b6000819050919050565b60006132d66132d16132cc8461329a565b6132b1565b6132a4565b9050919050565b6132e6816132bb565b82525050565b600060208201905061330160008301846132dd565b92915050565b600067ffffffffffffffff8211156133225761332161292b565b5b602082029050602081019050919050565b600061333e8261266e565b9050919050565b61334e81613333565b811461335957600080fd5b50565b60008135905061336b81613345565b92915050565b600061338461337f84613307565b61298b565b905080838252602082019050602084028301858111156133a7576133a661286d565b5b835b818110156133d057806133bc888261335c565b8452602084019350506020810190506133a9565b5050509392505050565b600082601f8301126133ef576133ee612863565b5b81356133ff848260208601613371565b91505092915050565b600067ffffffffffffffff8211156134235761342261292b565b5b602082029050602081019050919050565b600061344761344284613408565b61298b565b9050808382526020820190506020840283018581111561346a5761346961286d565b5b835b818110156134b157803567ffffffffffffffff81111561348f5761348e612863565b5b80860161349c8982612a32565b8552602085019450505060208101905061346c565b5050509392505050565b600082601f8301126134d0576134cf612863565b5b81356134e0848260208601613434565b91505092915050565b600067ffffffffffffffff8211156135045761350361292b565b5b602082029050602081019050919050565b6000613528613523846134e9565b61298b565b9050808382526020820190506020840283018581111561354b5761354a61286d565b5b835b8181101561357457806135608882612a77565b84526020840193505060208101905061354d565b5050509392505050565b600082601f83011261359357613592612863565b5b81356135a3848260208601613515565b91505092915050565b6000606082840312156135c2576135c1612915565b5b6135cc606061298b565b9050600082013567ffffffffffffffff8111156135ec576135eb6129a6565b5b6135f8848285016133da565b600083015250602082013567ffffffffffffffff81111561361c5761361b6129a6565b5b613628848285016134bb565b602083015250604082013567ffffffffffffffff81111561364c5761364b6129a6565b5b6136588482850161357e565b60408301525092915050565b60006020828403121561367a5761367961251c565b5b600082013567ffffffffffffffff81111561369857613697612521565b5b6136a4848285016135ac565b91505092915050565b7f4e487b7100000000000000000000000000000000000000000000000000000000600052603260045260246000fd5b7f43616c6c206661696c6564000000000000000000000000000000000000000000600082015250565b6000613712600b83612e13565b915061371d826136dc565b602082019050919050565b6000602082019050818103600083015261374181613705565b9050919050565b7f44656c656761746543616c6c206661696c656400000000000000000000000000600082015250565b600061377e601383612e13565b915061378982613748565b602082019050919050565b600060208201905081810360008301526137ad81613771565b9050919050565b60006137bf826127d1565b91507fffffffffffffffffffffffffffffffffffffffffffffffffffffffffffffffff82036137f1576137f0613139565b5b600182019050919050565b600060408201905061381160008301856127a7565b61381e6020830184612de9565b9392505050565b60008151905061383481612a60565b92915050565b6000602082840312156138505761384f61251c565b5b600061385e84828501613825565b91505092915050565b600080fd5b600080fd5b600080fd5b60008235600160400383360303811261389257613891613867565b5b80830191505092915050565b60006138a9826127d1565b91506138b4836127d1565b92508282026138c2816127d1565b915082820484148315176138d9576138d8613139565b5b5092915050565b600081519050919050565b600082825260208201905092915050565b6000819050602082019050919050565b613915816127d1565b82525050565b6000613927838361390c565b60208301905092915050565b6000602082019050919050565b600061394b826138e0565b61395581856138eb565b9350613960836138fc565b8060005b83811015613991578151613978888261391b565b975061398383613933565b925050600181019050613964565b5085935050505092915050565b6000819050919050565b60006139c36139be6139b98461399e565b6132b1565b6127d1565b9050919050565b6139d3816139a8565b82525050565b600060808201905081810360008301526139f38187613940565b9050613a0260208301866139ca565b613a0f60408301856127a7565b613a1c6060830184612de9565b95945050505050565b600060208284031215613a3b57613a3a61251c565b5b6000613a49848285016130ab565b91505092915050565b7f4e487b7100000000000000000000000000000000000000000000000000000000600052602160045260246000fd5b60048110613a9257613a91613a52565b5b50565b6000819050613aa382613a81565b919050565b6000613ab382613a95565b9050919050565b613ac381613aa8565b82525050565b6000606082019050613ade60008301866127a7565b613aeb6020830185612de9565b613af86040830184613aba565b949350505050565b600080600060608486031215613b1957613b1861251c565b5b6000613b27868287016130ab565b9350506020613b38868287016130ab565b9250506040613b49868287016130e4565b9150509250925092565b7f455243313136373a20637265617465206661696c656400000000000000000000600082015250565b6000613b89601683612e13565b9150613b9482613b53565b602082019050919050565b60006020820190508181036000830152613bb881613b7c565b9050919050565b60008083356001602003843603038112613bdc57613bdb613867565b5b80840192508235915067ffffffffffffffff821115613bfe57613bfd61386c565b5b602083019250600182023603831315613c1a57613c19613871565b5b509250929050565b613c2b816132a4565b8114613c3657600080fd5b50565b600081359050613c4881613c22565b92915050565b600060a08284031215613c6457613c63612915565b5b613c6e60a061298b565b90506000613c7e84828501613c39565b6000830152506020613c92848285016126b7565b6020830152506040613ca684828501613c39565b6040830152506060613cba848285016127f2565b606083015250608082013567ffffffffffffffff811115613cde57613cdd6129a6565b5b613cea84828501612a32565b60808301525092915050565b600060208284031215613d0c57613d0b61251c565b5b600082013567ffffffffffffffff811115613d2a57613d29612521565b5b613d3684828501613c4e565b91505092915050565b6000604082019050613d5460008301856127a7565b613d6160208301846139ca565b9392505050565b7f526573657420616c6c6f77616e6365206661696c656400000000000000000000600082015250565b6000613d9e601683612e13565b9150613da982613d68565b602082019050919050565b60006020820190508181036000830152613dcd81613d91565b9050919050565b7f417070726f76616c206661696c65640000000000000000000000000000000000600082015250565b6000613e0a600f83612e13565b9150613e1582613dd4565b602082019050919050565b60006020820190508181036000830152613e3981613dfd565b9050919050565b600082825260208201905092915050565b6000613e5d8385613e40565b9350613e6a8385846129e1565b613e738361291a565b840190509392505050565b60006060820190508181036000830152613e99818789613e51565b9050613ea86020830186612de9565b8181036040830152613ebb818486613e51565b90509695505050505050565b613ed0816130c0565b82525050565b60028110613ee757613ee6613a52565b5b50565b6000819050613ef882613ed6565b919050565b6000613f0882613eea565b9050919050565b613f1881613efd565b82525050565b6000608082019050613f3360008301876127a7565b613f406020830186613ec7565b613f4d6040830185612de9565b613f5a6060830184613f0f565b95945050505050565b6000613f7e613f79613f748461266e565b6132b1565b61266e565b9050919050565b6000613f9082613f63565b9050919050565b6000613fa282613f85565b9050919050565b613fb281613f97565b82525050565b600060a082019050613fcd6000830188612de9565b613fda6020830187613fa9565b613fe760408301866139ca565b613ff460608301856127a7565b6140016080830184612de9565b9695505050505050565b600069ffffffffffffffffffff82169050919050565b61402a8161400b565b811461403557600080fd5b50565b60008151905061404781614021565b92915050565b6000819050919050565b6140608161404d565b811461406b57600080fd5b50565b60008151905061407d81614057565b92915050565b600080600080600060a0868803121561409f5761409e61251c565b5b60006140ad88828901614038565b95505060206140be8882890161406e565b94505060406140cf888289016130ab565b93505060606140e0888289016130ab565b92505060806140f188828901614038565b9150509295509295909350565b7f4e487b7100000000000000000000000000000000000000000000000000000000600052601260045260246000fd5b6000614138826127d1565b9150614143836127d1565b925082614153576141526140fe565b5b828204905092915050565b600061416982612fb7565b6141738185613e40565b9350614183818560208601612fcd565b61418c8161291a565b840191505092915050565b50565b60006141a7600083613e40565b91506141b282614197565b600082019050919050565b600060408201905081810360008301526141d7818461415e565b905081810360208301526141ea8161419a565b905092915050565b600081905092915050565b7f416363657373436f6e74726f6c3a206163636f756e7420000000000000000000600082015250565b60006142336017836141f2565b915061423e826141fd565b601782019050919050565b600081519050919050565b600061425f82614249565b61426981856141f2565b9350614279818560208601612fcd565b80840191505092915050565b7f206973206d697373696e6720726f6c6520000000000000000000000000000000600082015250565b60006142bb6011836141f2565b91506142c682614285565b601182019050919050565b60006142dc82614226565b91506142e88285614254565b91506142f3826142ae565b91506142ff8284614254565b91508190509392505050565b600061431682614249565b6143208185612e13565b9350614330818560208601612fcd565b6143398161291a565b840191505092915050565b6000602082019050818103600083015261435e818461430b565b905092915050565b6000614371826127d1565b91506000820361438457614383613139565b5b600182039050919050565b7f537472696e67733a20686578206c656e67746820696e73756666696369656e74600082015250565b60006143c5602083612e13565b91506143d08261438f565b602082019050919050565b600060208201905081810360008301526143f4816143b8565b905091905056fea264697066735822122068317f0df8e1d555592a5cb87b3cabc7b95a094fc10312dca935bcdc94f1c5ed64736f6c63430008130033",
  "linkReferences": {},
  "deployedLinkReferences": {}
}