{
  "_format": "hh-sol-artifact-1",
  "contractName": "BeanstalkSiloFactory",
  "sourceName": "src/plugins/position/implementations/BeanstalkSilo.sol",
  "abi": [
    {
      "inputs": [
        {
          "internalType": "address",
          "name": "protocolAddr",
          "type": "address"
        }
      ],
      "stateMutability": "nonpayable",
      "type": "constructor"
    },
    {
      "anonymous": false,
      "inputs": [
        {
          "indexed": false,
          "internalType": "address",
          "name": "clone",
          "type": "address"
        }
      ],
      "name": "CloneCreated",
      "type": "event"
    },
    {
      "anonymous": false,
      "inputs": [
        {
          "indexed": false,
          "internalType": "address",
          "name": "previousController",
          "type": "address"
        },
        {
          "indexed": false,
          "internalType": "address",
          "name": "newController",
          "type": "address"
        }
      ],
      "name": "ControlTransferred",
      "type": "event"
    },
    {
      "anonymous": false,
      "inputs": [
        {
          "indexed": false,
          "internalType": "uint8",
          "name": "version",
          "type": "uint8"
        }
      ],
      "name": "Initialized",
      "type": "event"
    },
    {
      "anonymous": false,
      "inputs": [
        {
          "indexed": true,
          "internalType": "bytes32",
          "name": "role",
          "type": "bytes32"
        },
        {
          "indexed": true,
          "internalType": "bytes32",
          "name": "previousAdminRole",
          "type": "bytes32"
        },
        {
          "indexed": true,
          "internalType": "bytes32",
          "name": "newAdminRole",
          "type": "bytes32"
        }
      ],
      "name": "RoleAdminChanged",
      "type": "event"
    },
    {
      "anonymous": false,
      "inputs": [
        {
          "indexed": true,
          "internalType": "bytes32",
          "name": "role",
          "type": "bytes32"
        },
        {
          "indexed": true,
          "internalType": "address",
          "name": "account",
          "type": "address"
        },
        {
          "indexed": true,
          "internalType": "address",
          "name": "sender",
          "type": "address"
        }
      ],
      "name": "RoleGranted",
      "type": "event"
    },
    {
      "anonymous": false,
      "inputs": [
        {
          "indexed": true,
          "internalType": "bytes32",
          "name": "role",
          "type": "bytes32"
        },
        {
          "indexed": true,
          "internalType": "address",
          "name": "account",
          "type": "address"
        },
        {
          "indexed": true,
          "internalType": "address",
          "name": "sender",
          "type": "address"
        }
      ],
      "name": "RoleRevoked",
      "type": "event"
    },
    {
      "inputs": [],
      "name": "BOOKKEEPER_ADDRESS",
      "outputs": [
        {
          "internalType": "address",
          "name": "",
          "type": "address"
        }
      ],
      "stateMutability": "view",
      "type": "function"
    },
    {
      "inputs": [],
      "name": "DEFAULT_ADMIN_ROLE",
      "outputs": [
        {
          "internalType": "bytes32",
          "name": "",
          "type": "bytes32"
        }
      ],
      "stateMutability": "view",
      "type": "function"
    },
    {
      "inputs": [],
      "name": "FACTORY_ADDRESS",
      "outputs": [
        {
          "internalType": "address",
          "name": "",
          "type": "address"
        }
      ],
      "stateMutability": "view",
      "type": "function"
    },
    {
      "inputs": [
        {
          "components": [
            {
              "internalType": "uint256",
              "name": "loanAmount",
              "type": "uint256"
            },
            {
              "internalType": "uint256",
              "name": "collAmount",
              "type": "uint256"
            },
            {
              "internalType": "bytes",
              "name": "loanAsset",
              "type": "bytes"
            },
            {
              "internalType": "bytes",
              "name": "collAsset",
              "type": "bytes"
            },
            {
              "internalType": "uint256",
              "name": "minCollateralRatio",
              "type": "uint256"
            },
            {
              "internalType": "uint256",
              "name": "maxDuration",
              "type": "uint256"
            },
            {
              "internalType": "bool",
              "name": "isLeverage",
              "type": "bool"
            },
            {
              "components": [
                {
                  "internalType": "address",
                  "name": "addr",
                  "type": "address"
                },
                {
                  "internalType": "bytes",
                  "name": "parameters",
                  "type": "bytes"
                }
              ],
              "internalType": "struct PluginReference",
              "name": "lenderAccount",
              "type": "tuple"
            },
            {
              "components": [
                {
                  "internalType": "address",
                  "name": "addr",
                  "type": "address"
                },
                {
                  "internalType": "bytes",
                  "name": "parameters",
                  "type": "bytes"
                }
              ],
              "internalType": "struct PluginReference",
              "name": "borrowerAccount",
              "type": "tuple"
            },
            {
              "components": [
                {
                  "internalType": "address",
                  "name": "addr",
                  "type": "address"
                },
                {
                  "internalType": "bytes",
                  "name": "parameters",
                  "type": "bytes"
                }
              ],
              "internalType": "struct PluginReference",
              "name": "assessor",
              "type": "tuple"
            },
            {
              "components": [
                {
                  "internalType": "address",
                  "name": "addr",
                  "type": "address"
                },
                {
                  "internalType": "bytes",
                  "name": "parameters",
                  "type": "bytes"
                }
              ],
              "internalType": "struct PluginReference",
              "name": "liquidator",
              "type": "tuple"
            },
            {
              "components": [
                {
                  "internalType": "address",
                  "name": "addr",
                  "type": "address"
                },
                {
                  "internalType": "bytes",
                  "name": "parameters",
                  "type": "bytes"
                }
              ],
              "internalType": "struct PluginReference",
              "name": "loanOracle",
              "type": "tuple"
            },
            {
              "components": [
                {
                  "internalType": "address",
                  "name": "addr",
                  "type": "address"
                },
                {
                  "internalType": "bytes",
                  "name": "parameters",
                  "type": "bytes"
                }
              ],
              "internalType": "struct PluginReference",
              "name": "collOracle",
              "type": "tuple"
            },
            {
              "internalType": "address",
              "name": "factory",
              "type": "address"
            },
            {
              "components": [
                {
                  "internalType": "address",
                  "name": "addr",
                  "type": "address"
                },
                {
                  "internalType": "bytes",
                  "name": "parameters",
                  "type": "bytes"
                }
              ],
              "internalType": "struct PluginReference",
              "name": "position",
              "type": "tuple"
            },
            {
              "internalType": "uint256",
              "name": "deploymentTime",
              "type": "uint256"
            }
          ],
          "internalType": "struct Agreement",
          "name": "agreement",
          "type": "tuple"
        },
        {
          "internalType": "uint256",
          "name": "amountToClose",
          "type": "uint256"
        }
      ],
      "name": "close",
      "outputs": [],
      "stateMutability": "nonpayable",
      "type": "function"
    },
    {
      "inputs": [],
      "name": "createClone",
      "outputs": [
        {
          "internalType": "address",
          "name": "addr",
          "type": "address"
        }
      ],
      "stateMutability": "nonpayable",
      "type": "function"
    },
    {
      "inputs": [
        {
          "components": [
            {
              "internalType": "uint256",
              "name": "loanAmount",
              "type": "uint256"
            },
            {
              "internalType": "uint256",
              "name": "collAmount",
              "type": "uint256"
            },
            {
              "internalType": "bytes",
              "name": "loanAsset",
              "type": "bytes"
            },
            {
              "internalType": "bytes",
              "name": "collAsset",
              "type": "bytes"
            },
            {
              "internalType": "uint256",
              "name": "minCollateralRatio",
              "type": "uint256"
            },
            {
              "internalType": "uint256",
              "name": "maxDuration",
              "type": "uint256"
            },
            {
              "internalType": "bool",
              "name": "isLeverage",
              "type": "bool"
            },
            {
              "components": [
                {
                  "internalType": "address",
                  "name": "addr",
                  "type": "address"
                },
                {
                  "internalType": "bytes",
                  "name": "parameters",
                  "type": "bytes"
                }
              ],
              "internalType": "struct PluginReference",
              "name": "lenderAccount",
              "type": "tuple"
            },
            {
              "components": [
                {
                  "internalType": "address",
                  "name": "addr",
                  "type": "address"
                },
                {
                  "internalType": "bytes",
                  "name": "parameters",
                  "type": "bytes"
                }
              ],
              "internalType": "struct PluginReference",
              "name": "borrowerAccount",
              "type": "tuple"
            },
            {
              "components": [
                {
                  "internalType": "address",
                  "name": "addr",
                  "type": "address"
                },
                {
                  "internalType": "bytes",
                  "name": "parameters",
                  "type": "bytes"
                }
              ],
              "internalType": "struct PluginReference",
              "name": "assessor",
              "type": "tuple"
            },
            {
              "components": [
                {
                  "internalType": "address",
                  "name": "addr",
                  "type": "address"
                },
                {
                  "internalType": "bytes",
                  "name": "parameters",
                  "type": "bytes"
                }
              ],
              "internalType": "struct PluginReference",
              "name": "liquidator",
              "type": "tuple"
            },
            {
              "components": [
                {
                  "internalType": "address",
                  "name": "addr",
                  "type": "address"
                },
                {
                  "internalType": "bytes",
                  "name": "parameters",
                  "type": "bytes"
                }
              ],
              "internalType": "struct PluginReference",
              "name": "loanOracle",
              "type": "tuple"
            },
            {
              "components": [
                {
                  "internalType": "address",
                  "name": "addr",
                  "type": "address"
                },
                {
                  "internalType": "bytes",
                  "name": "parameters",
                  "type": "bytes"
                }
              ],
              "internalType": "struct PluginReference",
              "name": "collOracle",
              "type": "tuple"
            },
            {
              "internalType": "address",
              "name": "factory",
              "type": "address"
            },
            {
              "components": [
                {
                  "internalType": "address",
                  "name": "addr",
                  "type": "address"
                },
                {
                  "internalType": "bytes",
                  "name": "parameters",
                  "type": "bytes"
                }
              ],
              "internalType": "struct PluginReference",
              "name": "position",
              "type": "tuple"
            },
            {
              "internalType": "uint256",
              "name": "deploymentTime",
              "type": "uint256"
            }
          ],
          "internalType": "struct Agreement",
          "name": "agreement",
          "type": "tuple"
        }
      ],
      "name": "getCloseAmount",
      "outputs": [
        {
          "internalType": "uint256",
          "name": "",
          "type": "uint256"
        }
      ],
      "stateMutability": "view",
      "type": "function"
    },
    {
      "inputs": [
        {
          "internalType": "bytes32",
          "name": "role",
          "type": "bytes32"
        }
      ],
      "name": "getRoleAdmin",
      "outputs": [
        {
          "internalType": "bytes32",
          "name": "",
          "type": "bytes32"
        }
      ],
      "stateMutability": "view",
      "type": "function"
    },
    {
      "inputs": [
        {
          "internalType": "bytes32",
          "name": "role",
          "type": "bytes32"
        },
        {
          "internalType": "address",
          "name": "account",
          "type": "address"
        }
      ],
      "name": "grantRole",
      "outputs": [],
      "stateMutability": "nonpayable",
      "type": "function"
    },
    {
      "inputs": [
        {
          "internalType": "bytes32",
          "name": "role",
          "type": "bytes32"
        },
        {
          "internalType": "address",
          "name": "account",
          "type": "address"
        }
      ],
      "name": "hasRole",
      "outputs": [
        {
          "internalType": "bool",
          "name": "",
          "type": "bool"
        }
      ],
      "stateMutability": "view",
      "type": "function"
    },
    {
      "inputs": [],
      "name": "initialize",
      "outputs": [],
      "stateMutability": "nonpayable",
      "type": "function"
    },
    {
      "inputs": [
        {
          "components": [
            {
              "internalType": "uint256",
              "name": "loanAmount",
              "type": "uint256"
            },
            {
              "internalType": "uint256",
              "name": "collAmount",
              "type": "uint256"
            },
            {
              "internalType": "bytes",
              "name": "loanAsset",
              "type": "bytes"
            },
            {
              "internalType": "bytes",
              "name": "collAsset",
              "type": "bytes"
            },
            {
              "internalType": "uint256",
              "name": "minCollateralRatio",
              "type": "uint256"
            },
            {
              "internalType": "uint256",
              "name": "maxDuration",
              "type": "uint256"
            },
            {
              "internalType": "bool",
              "name": "isLeverage",
              "type": "bool"
            },
            {
              "components": [
                {
                  "internalType": "address",
                  "name": "addr",
                  "type": "address"
                },
                {
                  "internalType": "bytes",
                  "name": "parameters",
                  "type": "bytes"
                }
              ],
              "internalType": "struct PluginReference",
              "name": "lenderAccount",
              "type": "tuple"
            },
            {
              "components": [
                {
                  "internalType": "address",
                  "name": "addr",
                  "type": "address"
                },
                {
                  "internalType": "bytes",
                  "name": "parameters",
                  "type": "bytes"
                }
              ],
              "internalType": "struct PluginReference",
              "name": "borrowerAccount",
              "type": "tuple"
            },
            {
              "components": [
                {
                  "internalType": "address",
                  "name": "addr",
                  "type": "address"
                },
                {
                  "internalType": "bytes",
                  "name": "parameters",
                  "type": "bytes"
                }
              ],
              "internalType": "struct PluginReference",
              "name": "assessor",
              "type": "tuple"
            },
            {
              "components": [
                {
                  "internalType": "address",
                  "name": "addr",
                  "type": "address"
                },
                {
                  "internalType": "bytes",
                  "name": "parameters",
                  "type": "bytes"
                }
              ],
              "internalType": "struct PluginReference",
              "name": "liquidator",
              "type": "tuple"
            },
            {
              "components": [
                {
                  "internalType": "address",
                  "name": "addr",
                  "type": "address"
                },
                {
                  "internalType": "bytes",
                  "name": "parameters",
                  "type": "bytes"
                }
              ],
              "internalType": "struct PluginReference",
              "name": "loanOracle",
              "type": "tuple"
            },
            {
              "components": [
                {
                  "internalType": "address",
                  "name": "addr",
                  "type": "address"
                },
                {
                  "internalType": "bytes",
                  "name": "parameters",
                  "type": "bytes"
                }
              ],
              "internalType": "struct PluginReference",
              "name": "collOracle",
              "type": "tuple"
            },
            {
              "internalType": "address",
              "name": "factory",
              "type": "address"
            },
            {
              "components": [
                {
                  "internalType": "address",
                  "name": "addr",
                  "type": "address"
                },
                {
                  "internalType": "bytes",
                  "name": "parameters",
                  "type": "bytes"
                }
              ],
              "internalType": "struct PluginReference",
              "name": "position",
              "type": "tuple"
            },
            {
              "internalType": "uint256",
              "name": "deploymentTime",
              "type": "uint256"
            }
          ],
          "internalType": "struct Agreement",
          "name": "agreement",
          "type": "tuple"
        }
      ],
      "name": "open",
      "outputs": [],
      "stateMutability": "nonpayable",
      "type": "function"
    },
    {
      "inputs": [
        {
          "internalType": "address payable",
          "name": "destination",
          "type": "address"
        },
        {
          "internalType": "bytes",
          "name": "data",
          "type": "bytes"
        },
        {
          "internalType": "bool",
          "name": "delegateCall",
          "type": "bool"
        }
      ],
      "name": "passThrough",
      "outputs": [
        {
          "internalType": "bool",
          "name": "",
          "type": "bool"
        },
        {
          "internalType": "bytes",
          "name": "",
          "type": "bytes"
        }
      ],
      "stateMutability": "payable",
      "type": "function"
    },
    {
      "inputs": [
        {
          "internalType": "bytes32",
          "name": "role",
          "type": "bytes32"
        },
        {
          "internalType": "address",
          "name": "account",
          "type": "address"
        }
      ],
      "name": "renounceRole",
      "outputs": [],
      "stateMutability": "nonpayable",
      "type": "function"
    },
    {
      "inputs": [
        {
          "internalType": "bytes32",
          "name": "role",
          "type": "bytes32"
        },
        {
          "internalType": "address",
          "name": "account",
          "type": "address"
        }
      ],
      "name": "revokeRole",
      "outputs": [],
      "stateMutability": "nonpayable",
      "type": "function"
    },
    {
      "inputs": [
        {
          "internalType": "bytes4",
          "name": "interfaceId",
          "type": "bytes4"
        }
      ],
      "name": "supportsInterface",
      "outputs": [
        {
          "internalType": "bool",
          "name": "",
          "type": "bool"
        }
      ],
      "stateMutability": "view",
      "type": "function"
    },
    {
      "inputs": [
        {
          "internalType": "address",
          "name": "controller",
          "type": "address"
        }
      ],
      "name": "transferContract",
      "outputs": [],
      "stateMutability": "nonpayable",
      "type": "function"
    },
    {
      "stateMutability": "payable",
      "type": "receive"
    }
  ],
  "bytecode": "0x60c06040523480156200001157600080fd5b506040516200306238038062003062833981810160405281019062000037919062000398565b808062000049620000ee60201b60201c565b8073ffffffffffffffffffffffffffffffffffffffff1660808173ffffffffffffffffffffffffffffffffffffffff16815250503073ffffffffffffffffffffffffffffffffffffffff1660a08173ffffffffffffffffffffffffffffffffffffffff1681525050620000e57f03c7040f8e5b938f657d4600d08b1b77f390141994844cbb34ff043f26ac6cd7608051620001b560201b60201c565b505050620004ae565b60018054906101000a900460ff16156200013f576040517f08c379a0000000000000000000000000000000000000000000000000000000008152600401620001369062000451565b60405180910390fd5b60ff8016600160009054906101000a900460ff1660ff1614620001b35760ff600160006101000a81548160ff021916908360ff1602179055507f7f26b83ff96e1f2b6a682f133852f6798a09c465da95921460cefb384740249860ff604051620001aa919062000491565b60405180910390a15b565b620001c78282620001cb60201b60201c565b5050565b620001dd8282620002bc60201b60201c565b620002b857600160008084815260200190815260200160002060000160008373ffffffffffffffffffffffffffffffffffffffff1673ffffffffffffffffffffffffffffffffffffffff16815260200190815260200160002060006101000a81548160ff0219169083151502179055506200025d6200032660201b60201c565b73ffffffffffffffffffffffffffffffffffffffff168173ffffffffffffffffffffffffffffffffffffffff16837f2f8788117e7eff1d82e926ec794901d17c78024a50270940304540a733656f0d60405160405180910390a45b5050565b600080600084815260200190815260200160002060000160008373ffffffffffffffffffffffffffffffffffffffff1673ffffffffffffffffffffffffffffffffffffffff16815260200190815260200160002060009054906101000a900460ff16905092915050565b600033905090565b600080fd5b600073ffffffffffffffffffffffffffffffffffffffff82169050919050565b6000620003608262000333565b9050919050565b620003728162000353565b81146200037e57600080fd5b50565b600081519050620003928162000367565b92915050565b600060208284031215620003b157620003b06200032e565b5b6000620003c18482850162000381565b91505092915050565b600082825260208201905092915050565b7f496e697469616c697a61626c653a20636f6e747261637420697320696e69746960008201527f616c697a696e6700000000000000000000000000000000000000000000000000602082015250565b600062000439602783620003ca565b91506200044682620003db565b604082019050919050565b600060208201905081810360008301526200046c816200042a565b9050919050565b600060ff82169050919050565b6200048b8162000473565b82525050565b6000602082019050620004a8600083018462000480565b92915050565b60805160a051612b4f6200051360003960008181610520015281816105ca015281816106be0152818161075e01528181610a6601528181610af401528181610c0b01528181610c990152610d70015260008181610b890152610d480152612b4f6000f3fe6080604052600436106100f75760003560e01c80638129fc1c1161008a578063a217fddf11610059578063a217fddf14610331578063a29929251461035c578063b9fdc2a214610387578063d547741f146103b8576100fe565b80638129fc1c146102895780638823151b146102a057806391d14854146102cb578063a1d9bb2414610308576100fe565b806338f92f6e116100c657806338f92f6e146101cf57806347635dac146101f85780634db379d21461022157806364f2d4b91461025e576100fe565b806301ffc9a714610103578063248a9ca3146101405780632f2ff15d1461017d57806336568abe146101a6576100fe565b366100fe57005b600080fd5b34801561010f57600080fd5b5061012a600480360381019061012591906119c2565b6103e1565b6040516101379190611a0a565b60405180910390f35b34801561014c57600080fd5b5061016760048036038101906101629190611a5b565b61045b565b6040516101749190611a97565b60405180910390f35b34801561018957600080fd5b506101a4600480360381019061019f9190611b10565b61047a565b005b3480156101b257600080fd5b506101cd60048036038101906101c89190611b10565b61049b565b005b3480156101db57600080fd5b506101f660048036038101906101f19190611bab565b61051e565b005b34801561020457600080fd5b5061021f600480360381019061021a9190611c07565b6105c8565b005b34801561022d57600080fd5b5061024860048036038101906102439190611c34565b6106ba565b6040516102559190611c8c565b60405180910390f35b34801561026a57600080fd5b5061027361075a565b6040516102809190611cb6565b60405180910390f35b34801561029557600080fd5b5061029e61098a565b005b3480156102ac57600080fd5b506102b5610c09565b6040516102c29190611cb6565b60405180910390f35b3480156102d757600080fd5b506102f260048036038101906102ed9190611b10565b610c2d565b6040516102ff9190611a0a565b60405180910390f35b34801561031457600080fd5b5061032f600480360381019061032a9190611c34565b610c97565b005b34801561033d57600080fd5b50610346610d3f565b6040516103539190611a97565b60405180910390f35b34801561036857600080fd5b50610371610d46565b60405161037e9190611cb6565b60405180910390f35b6103a1600480360381019061039c9190611da0565b610d6a565b6040516103af929190611ea4565b60405180910390f35b3480156103c457600080fd5b506103df60048036038101906103da9190611b10565b610ef9565b005b60007f7965db0b000000000000000000000000000000000000000000000000000000007bffffffffffffffffffffffffffffffffffffffffffffffffffffffff1916827bffffffffffffffffffffffffffffffffffffffffffffffffffffffff19161480610454575061045382610f1a565b5b9050919050565b6000806000838152602001908152602001600020600101549050919050565b6104838261045b565b61048c81610f84565b6104968383610f98565b505050565b6104a3611078565b73ffffffffffffffffffffffffffffffffffffffff168173ffffffffffffffffffffffffffffffffffffffff1614610510576040517f08c379a000000000000000000000000000000000000000000000000000000000815260040161050790611f57565b60405180910390fd5b61051a8282611080565b5050565b7f000000000000000000000000000000000000000000000000000000000000000073ffffffffffffffffffffffffffffffffffffffff163073ffffffffffffffffffffffffffffffffffffffff16036105ac576040517f08c379a00000000000000000000000000000000000000000000000000000000081526004016105a390611fc3565b60405180910390fd5b6000801b6105b981610f84565b6105c38383611161565b505050565b7f000000000000000000000000000000000000000000000000000000000000000073ffffffffffffffffffffffffffffffffffffffff163073ffffffffffffffffffffffffffffffffffffffff1603610656576040517f08c379a000000000000000000000000000000000000000000000000000000000815260040161064d90611fc3565b60405180910390fd5b6000801b61066381610f84565b6106706000801b8361047a565b61067d6000801b3361049b565b7fa06677f7b64342b4bcbde423684dbdb5356acfe41ad0285b6ecbe6dc4bf427f233836040516106ae929190611fe3565b60405180910390a15050565b60007f000000000000000000000000000000000000000000000000000000000000000073ffffffffffffffffffffffffffffffffffffffff163073ffffffffffffffffffffffffffffffffffffffff160361074a576040517f08c379a000000000000000000000000000000000000000000000000000000000815260040161074190611fc3565b60405180910390fd5b61075382611165565b9050919050565b60007f000000000000000000000000000000000000000000000000000000000000000073ffffffffffffffffffffffffffffffffffffffff163073ffffffffffffffffffffffffffffffffffffffff16146107ea576040517f08c379a00000000000000000000000000000000000000000000000000000000081526004016107e190612058565b60405180910390fd5b7f03c7040f8e5b938f657d4600d08b1b77f390141994844cbb34ff043f26ac6cd761081481610f84565b61081d30611251565b915060008273ffffffffffffffffffffffffffffffffffffffff166040516024016040516020818303038152906040527f8129fc1c000000000000000000000000000000000000000000000000000000007bffffffffffffffffffffffffffffffffffffffffffffffffffffffff19166020820180517bffffffffffffffffffffffffffffffffffffffffffffffffffffffff83818316178352505050506040516108c891906120b4565b6000604051808303816000865af19150503d8060008114610905576040519150601f19603f3d011682016040523d82523d6000602084013e61090a565b606091505b505090508061094e576040517f08c379a000000000000000000000000000000000000000000000000000000000815260040161094590612117565b60405180910390fd5b7fbe2f3d28fdeb5839123d65fd47ec2f5915c715d2b527b9e229123706fdecfc858360405161097d9190611cb6565b60405180910390a1505090565b600060018054906101000a900460ff161590508080156109bb575060018060009054906101000a900460ff1660ff16105b806109e957506109ca3061130b565b1580156109e8575060018060009054906101000a900460ff1660ff16145b5b610a28576040517f08c379a0000000000000000000000000000000000000000000000000000000008152600401610a1f906121a9565b60405180910390fd5b60018060006101000a81548160ff021916908360ff1602179055508015610a645760018060016101000a81548160ff0219169083151502179055505b7f000000000000000000000000000000000000000000000000000000000000000073ffffffffffffffffffffffffffffffffffffffff163073ffffffffffffffffffffffffffffffffffffffff1603610af2576040517f08c379a0000000000000000000000000000000000000000000000000000000008152600401610ae990611fc3565b60405180910390fd5b7f000000000000000000000000000000000000000000000000000000000000000073ffffffffffffffffffffffffffffffffffffffff163373ffffffffffffffffffffffffffffffffffffffff1614610b80576040517f08c379a0000000000000000000000000000000000000000000000000000000008152600401610b7790612215565b60405180910390fd5b610bad6000801b7f000000000000000000000000000000000000000000000000000000000000000061132e565b8015610c065760006001806101000a81548160ff0219169083151502179055507f7f26b83ff96e1f2b6a682f133852f6798a09c465da95921460cefb38474024986001604051610bfd9190612287565b60405180910390a15b50565b7f000000000000000000000000000000000000000000000000000000000000000081565b600080600084815260200190815260200160002060000160008373ffffffffffffffffffffffffffffffffffffffff1673ffffffffffffffffffffffffffffffffffffffff16815260200190815260200160002060009054906101000a900460ff16905092915050565b7f000000000000000000000000000000000000000000000000000000000000000073ffffffffffffffffffffffffffffffffffffffff163073ffffffffffffffffffffffffffffffffffffffff1603610d25576040517f08c379a0000000000000000000000000000000000000000000000000000000008152600401610d1c90611fc3565b60405180910390fd5b6000801b610d3281610f84565b610d3b8261133c565b5050565b6000801b81565b7f000000000000000000000000000000000000000000000000000000000000000081565b600060607f000000000000000000000000000000000000000000000000000000000000000073ffffffffffffffffffffffffffffffffffffffff163073ffffffffffffffffffffffffffffffffffffffff1603610dfc576040517f08c379a0000000000000000000000000000000000000000000000000000000008152600401610df390611fc3565b60405180910390fd5b6000801b610e0981610f84565b83610e82578673ffffffffffffffffffffffffffffffffffffffff16348787604051610e369291906122d6565b60006040518083038185875af1925050503d8060008114610e73576040519150601f19603f3d011682016040523d82523d6000602084013e610e78565b606091505b5092509250610eef565b8673ffffffffffffffffffffffffffffffffffffffff168686604051610ea99291906122d6565b600060405180830381855af49150503d8060008114610ee4576040519150601f19603f3d011682016040523d82523d6000602084013e610ee9565b606091505b50925092505b5094509492505050565b610f028261045b565b610f0b81610f84565b610f158383611080565b505050565b60007f01ffc9a7000000000000000000000000000000000000000000000000000000007bffffffffffffffffffffffffffffffffffffffffffffffffffffffff1916827bffffffffffffffffffffffffffffffffffffffffffffffffffffffff1916149050919050565b610f9581610f90611078565b611672565b50565b610fa28282610c2d565b61107457600160008084815260200190815260200160002060000160008373ffffffffffffffffffffffffffffffffffffffff1673ffffffffffffffffffffffffffffffffffffffff16815260200190815260200160002060006101000a81548160ff021916908315150217905550611019611078565b73ffffffffffffffffffffffffffffffffffffffff168173ffffffffffffffffffffffffffffffffffffffff16837f2f8788117e7eff1d82e926ec794901d17c78024a50270940304540a733656f0d60405160405180910390a45b5050565b600033905090565b61108a8282610c2d565b1561115d57600080600084815260200190815260200160002060000160008373ffffffffffffffffffffffffffffffffffffffff1673ffffffffffffffffffffffffffffffffffffffff16815260200190815260200160002060006101000a81548160ff021916908315150217905550611102611078565b73ffffffffffffffffffffffffffffffffffffffff168173ffffffffffffffffffffffffffffffffffffffff16837ff6391f5c32d9c69d2a47ea670b442974b53935d1edc7fd64eb21e047a839171b60405160405180910390a45b5050565b5050565b600080670de0b6b3a76400008380610180019061118291906122fe565b60000160208101906111949190611c07565b73ffffffffffffffffffffffffffffffffffffffff16639569eb8f858061018001906111c091906122fe565b80602001906111cf9190612326565b6040518363ffffffff1660e01b81526004016111ec9291906123b6565b602060405180830381865afa158015611209573d6000803e3d6000fd5b505050506040513d601f19601f8201168201806040525081019061122d91906123ef565b846020013561123c919061244b565b61124691906124bc565b905080915050919050565b6000763d602d80600a3d3981f3363d3d373d3d3d363d730000008260601b60e81c176000526e5af43d82803e903d91602b57fd5bf38260781b17602052603760096000f09050600073ffffffffffffffffffffffffffffffffffffffff168173ffffffffffffffffffffffffffffffffffffffff1603611306576040517f08c379a00000000000000000000000000000000000000000000000000000000081526004016112fd90612539565b60405180910390fd5b919050565b6000808273ffffffffffffffffffffffffffffffffffffffff163b119050919050565b6113388282610f98565b5050565b600073bea0e11282e2bb5893bece110cf199501e872bad9050600073c1e088fc1323b20bcbee9bd1b9fc9546db5624c59050600073c02aaa39b223fe8d0a0e5c4f27ead9083c756cc290508073ffffffffffffffffffffffffffffffffffffffff1663095ea7b384671bc16d674ec800006040518363ffffffff1660e01b81526004016113ca929190612594565b6020604051808303816000875af11580156113e9573d6000803e3d6000fd5b505050506040513d601f19601f8201168201806040525081019061140d91906125d2565b506000600267ffffffffffffffff81111561142b5761142a6125ff565b5b6040519080825280602002602001820160405280156114595781602001602082028036833780820191505090505b5090506000816000815181106114725761147161262e565b5b602002602001018181525050642e90edd000816001815181106114985761149761262e565b5b60200260200101818152505060008473ffffffffffffffffffffffffffffffffffffffff1663cb9c784483600089806101c001906114d691906122fe565b60000160208101906114e89190611c07565b6002426114f5919061244b565b6040518563ffffffff1660e01b81526004016115149493929190612756565b6020604051808303816000875af1158015611533573d6000803e3d6000fd5b505050506040513d601f19601f8201168201806040525081019061155791906123ef565b905060008590508073ffffffffffffffffffffffffffffffffffffffff1663095ea7b386671bc16d674ec800006040518363ffffffff1660e01b81526004016115a1929190612594565b6020604051808303816000875af11580156115c0573d6000803e3d6000fd5b505050506040513d601f19601f820116820180604052508101906115e491906125d2565b508473ffffffffffffffffffffffffffffffffffffffff1663f19ed6be878460006040518463ffffffff1660e01b815260040161162393929190612819565b6060604051808303816000875af1158015611642573d6000803e3d6000fd5b505050506040513d601f19601f820116820180604052508101906116669190612889565b50505050505050505050565b61167c8282610c2d565b6116f357611689816116f7565b6116978360001c6020611724565b6040516020016116a89291906129bb565b6040516020818303038152906040526040517f08c379a00000000000000000000000000000000000000000000000000000000081526004016116ea9190612a2e565b60405180910390fd5b5050565b606061171d8273ffffffffffffffffffffffffffffffffffffffff16601460ff16611724565b9050919050565b606060006002836002611737919061244b565b6117419190612a50565b67ffffffffffffffff81111561175a576117596125ff565b5b6040519080825280601f01601f19166020018201604052801561178c5781602001600182028036833780820191505090505b5090507f3000000000000000000000000000000000000000000000000000000000000000816000815181106117c4576117c361262e565b5b60200101907effffffffffffffffffffffffffffffffffffffffffffffffffffffffffffff1916908160001a9053507f7800000000000000000000000000000000000000000000000000000000000000816001815181106118285761182761262e565b5b60200101907effffffffffffffffffffffffffffffffffffffffffffffffffffffffffffff1916908160001a90535060006001846002611868919061244b565b6118729190612a50565b90505b6001811115611912577f3031323334353637383961626364656600000000000000000000000000000000600f8616601081106118b4576118b361262e565b5b1a60f81b8282815181106118cb576118ca61262e565b5b60200101907effffffffffffffffffffffffffffffffffffffffffffffffffffffffffffff1916908160001a905350600485901c94508061190b90612a84565b9050611875565b5060008414611956576040517f08c379a000000000000000000000000000000000000000000000000000000000815260040161194d90612af9565b60405180910390fd5b8091505092915050565b600080fd5b600080fd5b60007fffffffff0000000000000000000000000000000000000000000000000000000082169050919050565b61199f8161196a565b81146119aa57600080fd5b50565b6000813590506119bc81611996565b92915050565b6000602082840312156119d8576119d7611960565b5b60006119e6848285016119ad565b91505092915050565b60008115159050919050565b611a04816119ef565b82525050565b6000602082019050611a1f60008301846119fb565b92915050565b6000819050919050565b611a3881611a25565b8114611a4357600080fd5b50565b600081359050611a5581611a2f565b92915050565b600060208284031215611a7157611a70611960565b5b6000611a7f84828501611a46565b91505092915050565b611a9181611a25565b82525050565b6000602082019050611aac6000830184611a88565b92915050565b600073ffffffffffffffffffffffffffffffffffffffff82169050919050565b6000611add82611ab2565b9050919050565b611aed81611ad2565b8114611af857600080fd5b50565b600081359050611b0a81611ae4565b92915050565b60008060408385031215611b2757611b26611960565b5b6000611b3585828601611a46565b9250506020611b4685828601611afb565b9150509250929050565b600080fd5b60006102008284031215611b6c57611b6b611b50565b5b81905092915050565b6000819050919050565b611b8881611b75565b8114611b9357600080fd5b50565b600081359050611ba581611b7f565b92915050565b60008060408385031215611bc257611bc1611960565b5b600083013567ffffffffffffffff811115611be057611bdf611965565b5b611bec85828601611b55565b9250506020611bfd85828601611b96565b9150509250929050565b600060208284031215611c1d57611c1c611960565b5b6000611c2b84828501611afb565b91505092915050565b600060208284031215611c4a57611c49611960565b5b600082013567ffffffffffffffff811115611c6857611c67611965565b5b611c7484828501611b55565b91505092915050565b611c8681611b75565b82525050565b6000602082019050611ca16000830184611c7d565b92915050565b611cb081611ad2565b82525050565b6000602082019050611ccb6000830184611ca7565b92915050565b6000611cdc82611ab2565b9050919050565b611cec81611cd1565b8114611cf757600080fd5b50565b600081359050611d0981611ce3565b92915050565b600080fd5b600080fd5b600080fd5b60008083601f840112611d3457611d33611d0f565b5b8235905067ffffffffffffffff811115611d5157611d50611d14565b5b602083019150836001820283011115611d6d57611d6c611d19565b5b9250929050565b611d7d816119ef565b8114611d8857600080fd5b50565b600081359050611d9a81611d74565b92915050565b60008060008060608587031215611dba57611db9611960565b5b6000611dc887828801611cfa565b945050602085013567ffffffffffffffff811115611de957611de8611965565b5b611df587828801611d1e565b93509350506040611e0887828801611d8b565b91505092959194509250565b600081519050919050565b600082825260208201905092915050565b60005b83811015611e4e578082015181840152602081019050611e33565b60008484015250505050565b6000601f19601f8301169050919050565b6000611e7682611e14565b611e808185611e1f565b9350611e90818560208601611e30565b611e9981611e5a565b840191505092915050565b6000604082019050611eb960008301856119fb565b8181036020830152611ecb8184611e6b565b90509392505050565b600082825260208201905092915050565b7f416363657373436f6e74726f6c3a2063616e206f6e6c792072656e6f756e636560008201527f20726f6c657320666f722073656c660000000000000000000000000000000000602082015250565b6000611f41602f83611ed4565b9150611f4c82611ee5565b604082019050919050565b60006020820190508181036000830152611f7081611f34565b9050919050565b7f65786563206e6f7420616c6c6f77656420696e20696d706c0000000000000000600082015250565b6000611fad601883611ed4565b9150611fb882611f77565b602082019050919050565b60006020820190508181036000830152611fdc81611fa0565b9050919050565b6000604082019050611ff86000830185611ca7565b6120056020830184611ca7565b9392505050565b7f65786563206e6f7420616c6c6f77656420696e2070726f787900000000000000600082015250565b6000612042601983611ed4565b915061204d8261200c565b602082019050919050565b6000602082019050818103600083015261207181612035565b9050919050565b600081905092915050565b600061208e82611e14565b6120988185612078565b93506120a8818560208601611e30565b80840191505092915050565b60006120c08284612083565b915081905092915050565b7f637265617465436c6f6e653a20696e697469616c697a65206661696c00000000600082015250565b6000612101601c83611ed4565b915061210c826120cb565b602082019050919050565b60006020820190508181036000830152612130816120f4565b9050919050565b7f496e697469616c697a61626c653a20636f6e747261637420697320616c72656160008201527f647920696e697469616c697a6564000000000000000000000000000000000000602082015250565b6000612193602e83611ed4565b915061219e82612137565b604082019050919050565b600060208201905081810360008301526121c281612186565b9050919050565b7f73656e64657220213d20696d706c20636f6e7472616374000000000000000000600082015250565b60006121ff601783611ed4565b915061220a826121c9565b602082019050919050565b6000602082019050818103600083015261222e816121f2565b9050919050565b6000819050919050565b600060ff82169050919050565b6000819050919050565b600061227161226c61226784612235565b61224c565b61223f565b9050919050565b61228181612256565b82525050565b600060208201905061229c6000830184612278565b92915050565b82818337600083830152505050565b60006122bd8385612078565b93506122ca8385846122a2565b82840190509392505050565b60006122e38284866122b1565b91508190509392505050565b600080fd5b600080fd5b600080fd5b60008235600160400383360303811261231a576123196122ef565b5b80830191505092915050565b60008083356001602003843603038112612343576123426122ef565b5b80840192508235915067ffffffffffffffff821115612365576123646122f4565b5b602083019250600182023603831315612381576123806122f9565b5b509250929050565b60006123958385611e1f565b93506123a28385846122a2565b6123ab83611e5a565b840190509392505050565b600060208201905081810360008301526123d1818486612389565b90509392505050565b6000815190506123e981611b7f565b92915050565b60006020828403121561240557612404611960565b5b6000612413848285016123da565b91505092915050565b7f4e487b7100000000000000000000000000000000000000000000000000000000600052601160045260246000fd5b600061245682611b75565b915061246183611b75565b925082820261246f81611b75565b915082820484148315176124865761248561241c565b5b5092915050565b7f4e487b7100000000000000000000000000000000000000000000000000000000600052601260045260246000fd5b60006124c782611b75565b91506124d283611b75565b9250826124e2576124e161248d565b5b828204905092915050565b7f455243313136373a20637265617465206661696c656400000000000000000000600082015250565b6000612523601683611ed4565b915061252e826124ed565b602082019050919050565b6000602082019050818103600083015261255281612516565b9050919050565b6000819050919050565b600061257e61257961257484612559565b61224c565b611b75565b9050919050565b61258e81612563565b82525050565b60006040820190506125a96000830185611ca7565b6125b66020830184612585565b9392505050565b6000815190506125cc81611d74565b92915050565b6000602082840312156125e8576125e7611960565b5b60006125f6848285016125bd565b91505092915050565b7f4e487b7100000000000000000000000000000000000000000000000000000000600052604160045260246000fd5b7f4e487b7100000000000000000000000000000000000000000000000000000000600052603260045260246000fd5b600081519050919050565b600082825260208201905092915050565b6000819050602082019050919050565b61269281611b75565b82525050565b60006126a48383612689565b60208301905092915050565b6000602082019050919050565b60006126c88261265d565b6126d28185612668565b93506126dd83612679565b8060005b8381101561270e5781516126f58882612698565b9750612700836126b0565b9250506001810190506126e1565b5085935050505092915050565b6000819050919050565b600061274061273b6127368461271b565b61224c565b611b75565b9050919050565b61275081612725565b82525050565b6000608082019050818103600083015261277081876126bd565b905061277f6020830186612747565b61278c6040830185611ca7565b6127996060830184611c7d565b95945050505050565b7f4e487b7100000000000000000000000000000000000000000000000000000000600052602160045260246000fd5b600481106127e2576127e16127a2565b5b50565b60008190506127f3826127d1565b919050565b6000612803826127e5565b9050919050565b612813816127f8565b82525050565b600060608201905061282e6000830186611ca7565b61283b6020830185611c7d565b612848604083018461280a565b949350505050565b600081600b0b9050919050565b61286681612850565b811461287157600080fd5b50565b6000815190506128838161285d565b92915050565b6000806000606084860312156128a2576128a1611960565b5b60006128b0868287016123da565b93505060206128c1868287016123da565b92505060406128d286828701612874565b9150509250925092565b600081905092915050565b7f416363657373436f6e74726f6c3a206163636f756e7420000000000000000000600082015250565b600061291d6017836128dc565b9150612928826128e7565b601782019050919050565b600081519050919050565b600061294982612933565b61295381856128dc565b9350612963818560208601611e30565b80840191505092915050565b7f206973206d697373696e6720726f6c6520000000000000000000000000000000600082015250565b60006129a56011836128dc565b91506129b08261296f565b601182019050919050565b60006129c682612910565b91506129d2828561293e565b91506129dd82612998565b91506129e9828461293e565b91508190509392505050565b6000612a0082612933565b612a0a8185611ed4565b9350612a1a818560208601611e30565b612a2381611e5a565b840191505092915050565b60006020820190508181036000830152612a4881846129f5565b905092915050565b6000612a5b82611b75565b9150612a6683611b75565b9250828201905080821115612a7e57612a7d61241c565b5b92915050565b6000612a8f82611b75565b915060008203612aa257612aa161241c565b5b600182039050919050565b7f537472696e67733a20686578206c656e67746820696e73756666696369656e74600082015250565b6000612ae3602083611ed4565b9150612aee82612aad565b602082019050919050565b60006020820190508181036000830152612b1281612ad6565b905091905056fea26469706673582212205c03f00ef2b852ec2454bb6fb7659377409a0c095d75d85204b6ce00638f8ede64736f6c63430008130033",
  "linkReferences": {},
  "deployedLinkReferences": {}
}