{
  "_format": "hh-sol-artifact-1",
  "contractName": "BeanstalkSiloFactory",
  "sourceName": "src/plugins/position/implementations/BeanstalkSilo.sol",
  "abi": [
    {
      "inputs": [
        {
          "internalType": "address",
          "name": "protocolAddr",
          "type": "address"
        }
      ],
      "stateMutability": "nonpayable",
      "type": "constructor"
    },
    {
      "anonymous": false,
      "inputs": [
        {
          "indexed": false,
          "internalType": "address",
          "name": "clone",
          "type": "address"
        }
      ],
      "name": "CloneCreated",
      "type": "event"
    },
    {
      "anonymous": false,
      "inputs": [
        {
          "indexed": false,
          "internalType": "address",
          "name": "previousController",
          "type": "address"
        },
        {
          "indexed": false,
          "internalType": "address",
          "name": "newController",
          "type": "address"
        }
      ],
      "name": "ControlTransferred",
      "type": "event"
    },
    {
      "anonymous": false,
      "inputs": [
        {
          "indexed": false,
          "internalType": "uint8",
          "name": "version",
          "type": "uint8"
        }
      ],
      "name": "Initialized",
      "type": "event"
    },
    {
      "anonymous": false,
      "inputs": [
        {
          "indexed": true,
          "internalType": "bytes32",
          "name": "role",
          "type": "bytes32"
        },
        {
          "indexed": true,
          "internalType": "bytes32",
          "name": "previousAdminRole",
          "type": "bytes32"
        },
        {
          "indexed": true,
          "internalType": "bytes32",
          "name": "newAdminRole",
          "type": "bytes32"
        }
      ],
      "name": "RoleAdminChanged",
      "type": "event"
    },
    {
      "anonymous": false,
      "inputs": [
        {
          "indexed": true,
          "internalType": "bytes32",
          "name": "role",
          "type": "bytes32"
        },
        {
          "indexed": true,
          "internalType": "address",
          "name": "account",
          "type": "address"
        },
        {
          "indexed": true,
          "internalType": "address",
          "name": "sender",
          "type": "address"
        }
      ],
      "name": "RoleGranted",
      "type": "event"
    },
    {
      "anonymous": false,
      "inputs": [
        {
          "indexed": true,
          "internalType": "bytes32",
          "name": "role",
          "type": "bytes32"
        },
        {
          "indexed": true,
          "internalType": "address",
          "name": "account",
          "type": "address"
        },
        {
          "indexed": true,
          "internalType": "address",
          "name": "sender",
          "type": "address"
        }
      ],
      "name": "RoleRevoked",
      "type": "event"
    },
    {
      "inputs": [],
      "name": "BOOKKEEPER_ADDRESS",
      "outputs": [
        {
          "internalType": "address",
          "name": "",
          "type": "address"
        }
      ],
      "stateMutability": "view",
      "type": "function"
    },
    {
      "inputs": [],
      "name": "DEFAULT_ADMIN_ROLE",
      "outputs": [
        {
          "internalType": "bytes32",
          "name": "",
          "type": "bytes32"
        }
      ],
      "stateMutability": "view",
      "type": "function"
    },
    {
      "inputs": [],
      "name": "FACTORY_ADDRESS",
      "outputs": [
        {
          "internalType": "address",
          "name": "",
          "type": "address"
        }
      ],
      "stateMutability": "view",
      "type": "function"
    },
    {
      "inputs": [
        {
          "components": [
            {
              "internalType": "uint256",
              "name": "loanAmount",
              "type": "uint256"
            },
            {
              "internalType": "uint256",
              "name": "collAmount",
              "type": "uint256"
            },
            {
              "internalType": "bytes",
              "name": "loanAsset",
              "type": "bytes"
            },
            {
              "internalType": "bytes",
              "name": "collAsset",
              "type": "bytes"
            },
            {
              "internalType": "uint256",
              "name": "minCollateralRatio",
              "type": "uint256"
            },
            {
              "internalType": "uint256",
              "name": "maxDuration",
              "type": "uint256"
            },
            {
              "internalType": "bool",
              "name": "isLeverage",
              "type": "bool"
            },
            {
              "components": [
                {
                  "internalType": "address",
                  "name": "addr",
                  "type": "address"
                },
                {
                  "internalType": "bytes",
                  "name": "parameters",
                  "type": "bytes"
                }
              ],
              "internalType": "struct PluginReference",
              "name": "lenderAccount",
              "type": "tuple"
            },
            {
              "components": [
                {
                  "internalType": "address",
                  "name": "addr",
                  "type": "address"
                },
                {
                  "internalType": "bytes",
                  "name": "parameters",
                  "type": "bytes"
                }
              ],
              "internalType": "struct PluginReference",
              "name": "borrowerAccount",
              "type": "tuple"
            },
            {
              "components": [
                {
                  "internalType": "address",
                  "name": "addr",
                  "type": "address"
                },
                {
                  "internalType": "bytes",
                  "name": "parameters",
                  "type": "bytes"
                }
              ],
              "internalType": "struct PluginReference",
              "name": "assessor",
              "type": "tuple"
            },
            {
              "components": [
                {
                  "internalType": "address",
                  "name": "addr",
                  "type": "address"
                },
                {
                  "internalType": "bytes",
                  "name": "parameters",
                  "type": "bytes"
                }
              ],
              "internalType": "struct PluginReference",
              "name": "liquidator",
              "type": "tuple"
            },
            {
              "components": [
                {
                  "internalType": "address",
                  "name": "addr",
                  "type": "address"
                },
                {
                  "internalType": "bytes",
                  "name": "parameters",
                  "type": "bytes"
                }
              ],
              "internalType": "struct PluginReference",
              "name": "loanOracle",
              "type": "tuple"
            },
            {
              "components": [
                {
                  "internalType": "address",
                  "name": "addr",
                  "type": "address"
                },
                {
                  "internalType": "bytes",
                  "name": "parameters",
                  "type": "bytes"
                }
              ],
              "internalType": "struct PluginReference",
              "name": "collOracle",
              "type": "tuple"
            },
            {
              "internalType": "address",
              "name": "factory",
              "type": "address"
            },
            {
              "components": [
                {
                  "internalType": "address",
                  "name": "addr",
                  "type": "address"
                },
                {
                  "internalType": "bytes",
                  "name": "parameters",
                  "type": "bytes"
                }
              ],
              "internalType": "struct PluginReference",
              "name": "position",
              "type": "tuple"
            },
            {
              "internalType": "uint256",
              "name": "deploymentTime",
              "type": "uint256"
            }
          ],
          "internalType": "struct Agreement",
          "name": "agreement",
          "type": "tuple"
        },
        {
          "internalType": "uint256",
          "name": "amountToClose",
          "type": "uint256"
        }
      ],
      "name": "close",
      "outputs": [],
      "stateMutability": "nonpayable",
      "type": "function"
    },
    {
      "inputs": [],
      "name": "createClone",
      "outputs": [
        {
          "internalType": "address",
          "name": "addr",
          "type": "address"
        }
      ],
      "stateMutability": "nonpayable",
      "type": "function"
    },
    {
      "inputs": [
        {
          "components": [
            {
              "internalType": "uint256",
              "name": "loanAmount",
              "type": "uint256"
            },
            {
              "internalType": "uint256",
              "name": "collAmount",
              "type": "uint256"
            },
            {
              "internalType": "bytes",
              "name": "loanAsset",
              "type": "bytes"
            },
            {
              "internalType": "bytes",
              "name": "collAsset",
              "type": "bytes"
            },
            {
              "internalType": "uint256",
              "name": "minCollateralRatio",
              "type": "uint256"
            },
            {
              "internalType": "uint256",
              "name": "maxDuration",
              "type": "uint256"
            },
            {
              "internalType": "bool",
              "name": "isLeverage",
              "type": "bool"
            },
            {
              "components": [
                {
                  "internalType": "address",
                  "name": "addr",
                  "type": "address"
                },
                {
                  "internalType": "bytes",
                  "name": "parameters",
                  "type": "bytes"
                }
              ],
              "internalType": "struct PluginReference",
              "name": "lenderAccount",
              "type": "tuple"
            },
            {
              "components": [
                {
                  "internalType": "address",
                  "name": "addr",
                  "type": "address"
                },
                {
                  "internalType": "bytes",
                  "name": "parameters",
                  "type": "bytes"
                }
              ],
              "internalType": "struct PluginReference",
              "name": "borrowerAccount",
              "type": "tuple"
            },
            {
              "components": [
                {
                  "internalType": "address",
                  "name": "addr",
                  "type": "address"
                },
                {
                  "internalType": "bytes",
                  "name": "parameters",
                  "type": "bytes"
                }
              ],
              "internalType": "struct PluginReference",
              "name": "assessor",
              "type": "tuple"
            },
            {
              "components": [
                {
                  "internalType": "address",
                  "name": "addr",
                  "type": "address"
                },
                {
                  "internalType": "bytes",
                  "name": "parameters",
                  "type": "bytes"
                }
              ],
              "internalType": "struct PluginReference",
              "name": "liquidator",
              "type": "tuple"
            },
            {
              "components": [
                {
                  "internalType": "address",
                  "name": "addr",
                  "type": "address"
                },
                {
                  "internalType": "bytes",
                  "name": "parameters",
                  "type": "bytes"
                }
              ],
              "internalType": "struct PluginReference",
              "name": "loanOracle",
              "type": "tuple"
            },
            {
              "components": [
                {
                  "internalType": "address",
                  "name": "addr",
                  "type": "address"
                },
                {
                  "internalType": "bytes",
                  "name": "parameters",
                  "type": "bytes"
                }
              ],
              "internalType": "struct PluginReference",
              "name": "collOracle",
              "type": "tuple"
            },
            {
              "internalType": "address",
              "name": "factory",
              "type": "address"
            },
            {
              "components": [
                {
                  "internalType": "address",
                  "name": "addr",
                  "type": "address"
                },
                {
                  "internalType": "bytes",
                  "name": "parameters",
                  "type": "bytes"
                }
              ],
              "internalType": "struct PluginReference",
              "name": "position",
              "type": "tuple"
            },
            {
              "internalType": "uint256",
              "name": "deploymentTime",
              "type": "uint256"
            }
          ],
          "internalType": "struct Agreement",
          "name": "agreement",
          "type": "tuple"
        }
      ],
      "name": "getCloseAmount",
      "outputs": [
        {
          "internalType": "uint256",
          "name": "",
          "type": "uint256"
        }
      ],
      "stateMutability": "view",
      "type": "function"
    },
    {
      "inputs": [
        {
          "internalType": "bytes32",
          "name": "role",
          "type": "bytes32"
        }
      ],
      "name": "getRoleAdmin",
      "outputs": [
        {
          "internalType": "bytes32",
          "name": "",
          "type": "bytes32"
        }
      ],
      "stateMutability": "view",
      "type": "function"
    },
    {
      "inputs": [
        {
          "internalType": "bytes32",
          "name": "role",
          "type": "bytes32"
        },
        {
          "internalType": "address",
          "name": "account",
          "type": "address"
        }
      ],
      "name": "grantRole",
      "outputs": [],
      "stateMutability": "nonpayable",
      "type": "function"
    },
    {
      "inputs": [
        {
          "internalType": "bytes32",
          "name": "role",
          "type": "bytes32"
        },
        {
          "internalType": "address",
          "name": "account",
          "type": "address"
        }
      ],
      "name": "hasRole",
      "outputs": [
        {
          "internalType": "bool",
          "name": "",
          "type": "bool"
        }
      ],
      "stateMutability": "view",
      "type": "function"
    },
    {
      "inputs": [],
      "name": "initialize",
      "outputs": [],
      "stateMutability": "nonpayable",
      "type": "function"
    },
    {
      "inputs": [],
      "name": "mow",
      "outputs": [],
      "stateMutability": "payable",
      "type": "function"
    },
    {
      "inputs": [
        {
          "components": [
            {
              "internalType": "uint256",
              "name": "loanAmount",
              "type": "uint256"
            },
            {
              "internalType": "uint256",
              "name": "collAmount",
              "type": "uint256"
            },
            {
              "internalType": "bytes",
              "name": "loanAsset",
              "type": "bytes"
            },
            {
              "internalType": "bytes",
              "name": "collAsset",
              "type": "bytes"
            },
            {
              "internalType": "uint256",
              "name": "minCollateralRatio",
              "type": "uint256"
            },
            {
              "internalType": "uint256",
              "name": "maxDuration",
              "type": "uint256"
            },
            {
              "internalType": "bool",
              "name": "isLeverage",
              "type": "bool"
            },
            {
              "components": [
                {
                  "internalType": "address",
                  "name": "addr",
                  "type": "address"
                },
                {
                  "internalType": "bytes",
                  "name": "parameters",
                  "type": "bytes"
                }
              ],
              "internalType": "struct PluginReference",
              "name": "lenderAccount",
              "type": "tuple"
            },
            {
              "components": [
                {
                  "internalType": "address",
                  "name": "addr",
                  "type": "address"
                },
                {
                  "internalType": "bytes",
                  "name": "parameters",
                  "type": "bytes"
                }
              ],
              "internalType": "struct PluginReference",
              "name": "borrowerAccount",
              "type": "tuple"
            },
            {
              "components": [
                {
                  "internalType": "address",
                  "name": "addr",
                  "type": "address"
                },
                {
                  "internalType": "bytes",
                  "name": "parameters",
                  "type": "bytes"
                }
              ],
              "internalType": "struct PluginReference",
              "name": "assessor",
              "type": "tuple"
            },
            {
              "components": [
                {
                  "internalType": "address",
                  "name": "addr",
                  "type": "address"
                },
                {
                  "internalType": "bytes",
                  "name": "parameters",
                  "type": "bytes"
                }
              ],
              "internalType": "struct PluginReference",
              "name": "liquidator",
              "type": "tuple"
            },
            {
              "components": [
                {
                  "internalType": "address",
                  "name": "addr",
                  "type": "address"
                },
                {
                  "internalType": "bytes",
                  "name": "parameters",
                  "type": "bytes"
                }
              ],
              "internalType": "struct PluginReference",
              "name": "loanOracle",
              "type": "tuple"
            },
            {
              "components": [
                {
                  "internalType": "address",
                  "name": "addr",
                  "type": "address"
                },
                {
                  "internalType": "bytes",
                  "name": "parameters",
                  "type": "bytes"
                }
              ],
              "internalType": "struct PluginReference",
              "name": "collOracle",
              "type": "tuple"
            },
            {
              "internalType": "address",
              "name": "factory",
              "type": "address"
            },
            {
              "components": [
                {
                  "internalType": "address",
                  "name": "addr",
                  "type": "address"
                },
                {
                  "internalType": "bytes",
                  "name": "parameters",
                  "type": "bytes"
                }
              ],
              "internalType": "struct PluginReference",
              "name": "position",
              "type": "tuple"
            },
            {
              "internalType": "uint256",
              "name": "deploymentTime",
              "type": "uint256"
            }
          ],
          "internalType": "struct Agreement",
          "name": "agreement",
          "type": "tuple"
        }
      ],
      "name": "open",
      "outputs": [],
      "stateMutability": "nonpayable",
      "type": "function"
    },
    {
      "inputs": [
        {
          "internalType": "address payable",
          "name": "destination",
          "type": "address"
        },
        {
          "internalType": "bytes",
          "name": "data",
          "type": "bytes"
        },
        {
          "internalType": "bool",
          "name": "delegateCall",
          "type": "bool"
        }
      ],
      "name": "passThrough",
      "outputs": [
        {
          "internalType": "bool",
          "name": "",
          "type": "bool"
        },
        {
          "internalType": "bytes",
          "name": "",
          "type": "bytes"
        }
      ],
      "stateMutability": "payable",
      "type": "function"
    },
    {
      "inputs": [],
      "name": "plant",
      "outputs": [],
      "stateMutability": "payable",
      "type": "function"
    },
    {
      "inputs": [
        {
          "internalType": "bytes32",
          "name": "role",
          "type": "bytes32"
        },
        {
          "internalType": "address",
          "name": "account",
          "type": "address"
        }
      ],
      "name": "renounceRole",
      "outputs": [],
      "stateMutability": "nonpayable",
      "type": "function"
    },
    {
      "inputs": [
        {
          "internalType": "bytes32",
          "name": "role",
          "type": "bytes32"
        },
        {
          "internalType": "address",
          "name": "account",
          "type": "address"
        }
      ],
      "name": "revokeRole",
      "outputs": [],
      "stateMutability": "nonpayable",
      "type": "function"
    },
    {
      "inputs": [
        {
          "internalType": "bytes4",
          "name": "interfaceId",
          "type": "bytes4"
        }
      ],
      "name": "supportsInterface",
      "outputs": [
        {
          "internalType": "bool",
          "name": "",
          "type": "bool"
        }
      ],
      "stateMutability": "view",
      "type": "function"
    },
    {
      "inputs": [
        {
          "internalType": "address",
          "name": "controller",
          "type": "address"
        }
      ],
      "name": "transferContract",
      "outputs": [],
      "stateMutability": "nonpayable",
      "type": "function"
    },
    {
      "inputs": [
        {
          "components": [
            {
              "internalType": "uint256",
              "name": "loanAmount",
              "type": "uint256"
            },
            {
              "internalType": "uint256",
              "name": "collAmount",
              "type": "uint256"
            },
            {
              "internalType": "bytes",
              "name": "loanAsset",
              "type": "bytes"
            },
            {
              "internalType": "bytes",
              "name": "collAsset",
              "type": "bytes"
            },
            {
              "internalType": "uint256",
              "name": "minCollateralRatio",
              "type": "uint256"
            },
            {
              "internalType": "uint256",
              "name": "maxDuration",
              "type": "uint256"
            },
            {
              "internalType": "bool",
              "name": "isLeverage",
              "type": "bool"
            },
            {
              "components": [
                {
                  "internalType": "address",
                  "name": "addr",
                  "type": "address"
                },
                {
                  "internalType": "bytes",
                  "name": "parameters",
                  "type": "bytes"
                }
              ],
              "internalType": "struct PluginReference",
              "name": "lenderAccount",
              "type": "tuple"
            },
            {
              "components": [
                {
                  "internalType": "address",
                  "name": "addr",
                  "type": "address"
                },
                {
                  "internalType": "bytes",
                  "name": "parameters",
                  "type": "bytes"
                }
              ],
              "internalType": "struct PluginReference",
              "name": "borrowerAccount",
              "type": "tuple"
            },
            {
              "components": [
                {
                  "internalType": "address",
                  "name": "addr",
                  "type": "address"
                },
                {
                  "internalType": "bytes",
                  "name": "parameters",
                  "type": "bytes"
                }
              ],
              "internalType": "struct PluginReference",
              "name": "assessor",
              "type": "tuple"
            },
            {
              "components": [
                {
                  "internalType": "address",
                  "name": "addr",
                  "type": "address"
                },
                {
                  "internalType": "bytes",
                  "name": "parameters",
                  "type": "bytes"
                }
              ],
              "internalType": "struct PluginReference",
              "name": "liquidator",
              "type": "tuple"
            },
            {
              "components": [
                {
                  "internalType": "address",
                  "name": "addr",
                  "type": "address"
                },
                {
                  "internalType": "bytes",
                  "name": "parameters",
                  "type": "bytes"
                }
              ],
              "internalType": "struct PluginReference",
              "name": "loanOracle",
              "type": "tuple"
            },
            {
              "components": [
                {
                  "internalType": "address",
                  "name": "addr",
                  "type": "address"
                },
                {
                  "internalType": "bytes",
                  "name": "parameters",
                  "type": "bytes"
                }
              ],
              "internalType": "struct PluginReference",
              "name": "collOracle",
              "type": "tuple"
            },
            {
              "internalType": "address",
              "name": "factory",
              "type": "address"
            },
            {
              "components": [
                {
                  "internalType": "address",
                  "name": "addr",
                  "type": "address"
                },
                {
                  "internalType": "bytes",
                  "name": "parameters",
                  "type": "bytes"
                }
              ],
              "internalType": "struct PluginReference",
              "name": "position",
              "type": "tuple"
            },
            {
              "internalType": "uint256",
              "name": "deploymentTime",
              "type": "uint256"
            }
          ],
          "internalType": "struct Agreement",
          "name": "agreement",
          "type": "tuple"
        }
      ],
      "name": "unwind",
      "outputs": [],
      "stateMutability": "nonpayable",
      "type": "function"
    },
    {
      "stateMutability": "payable",
      "type": "receive"
    }
  ],
  "bytecode": "0x60c06040523480156200001157600080fd5b5060405162003a7238038062003a72833981810160405281019062000037919062000398565b808062000049620000ee60201b60201c565b8073ffffffffffffffffffffffffffffffffffffffff1660808173ffffffffffffffffffffffffffffffffffffffff16815250503073ffffffffffffffffffffffffffffffffffffffff1660a08173ffffffffffffffffffffffffffffffffffffffff1681525050620000e57f03c7040f8e5b938f657d4600d08b1b77f390141994844cbb34ff043f26ac6cd7608051620001b560201b60201c565b505050620004ae565b60018054906101000a900460ff16156200013f576040517f08c379a0000000000000000000000000000000000000000000000000000000008152600401620001369062000451565b60405180910390fd5b60ff8016600160009054906101000a900460ff1660ff1614620001b35760ff600160006101000a81548160ff021916908360ff1602179055507f7f26b83ff96e1f2b6a682f133852f6798a09c465da95921460cefb384740249860ff604051620001aa919062000491565b60405180910390a15b565b620001c78282620001cb60201b60201c565b5050565b620001dd8282620002bc60201b60201c565b620002b857600160008084815260200190815260200160002060000160008373ffffffffffffffffffffffffffffffffffffffff1673ffffffffffffffffffffffffffffffffffffffff16815260200190815260200160002060006101000a81548160ff0219169083151502179055506200025d6200032660201b60201c565b73ffffffffffffffffffffffffffffffffffffffff168173ffffffffffffffffffffffffffffffffffffffff16837f2f8788117e7eff1d82e926ec794901d17c78024a50270940304540a733656f0d60405160405180910390a45b5050565b600080600084815260200190815260200160002060000160008373ffffffffffffffffffffffffffffffffffffffff1673ffffffffffffffffffffffffffffffffffffffff16815260200190815260200160002060009054906101000a900460ff16905092915050565b600033905090565b600080fd5b600073ffffffffffffffffffffffffffffffffffffffff82169050919050565b6000620003608262000333565b9050919050565b620003728162000353565b81146200037e57600080fd5b50565b600081519050620003928162000367565b92915050565b600060208284031215620003b157620003b06200032e565b5b6000620003c18482850162000381565b91505092915050565b600082825260208201905092915050565b7f496e697469616c697a61626c653a20636f6e747261637420697320696e69746960008201527f616c697a696e6700000000000000000000000000000000000000000000000000602082015250565b600062000439602783620003ca565b91506200044682620003db565b604082019050919050565b600060208201905081810360008301526200046c816200042a565b9050919050565b600060ff82169050919050565b6200048b8162000473565b82525050565b6000602082019050620004a8600083018462000480565b92915050565b60805160a0516135586200051a6000396000818161057e015281816106280152818161071c015281816107bc01528181610b5201528181610be001528181610cf701528181610d9f01528181610e2d0152610fa7015260008181610c750152610edc01526135586000f3fe6080604052600436106101185760003560e01c80638129fc1c116100a0578063a217fddf11610064578063a217fddf14610385578063a2992925146103b0578063a5ba5a22146103db578063b9fdc2a2146103e5578063d547741f146104165761011f565b80638129fc1c146102b457806382be32c7146102cb5780638823151b146102f457806391d148541461031f578063a1d9bb241461035c5761011f565b806338f92f6e116100e757806338f92f6e146101f057806347635dac146102195780634db379d21461024257806364f2d4b91461027f578063779b3c5c146102aa5761011f565b806301ffc9a714610124578063248a9ca3146101615780632f2ff15d1461019e57806336568abe146101c75761011f565b3661011f57005b600080fd5b34801561013057600080fd5b5061014b600480360381019061014691906120fb565b61043f565b6040516101589190612143565b60405180910390f35b34801561016d57600080fd5b5061018860048036038101906101839190612194565b6104b9565b60405161019591906121d0565b60405180910390f35b3480156101aa57600080fd5b506101c560048036038101906101c09190612249565b6104d8565b005b3480156101d357600080fd5b506101ee60048036038101906101e99190612249565b6104f9565b005b3480156101fc57600080fd5b50610217600480360381019061021291906122e4565b61057c565b005b34801561022557600080fd5b50610240600480360381019061023b9190612340565b610626565b005b34801561024e57600080fd5b506102696004803603810190610264919061236d565b610718565b60405161027691906123c5565b60405180910390f35b34801561028b57600080fd5b506102946107b8565b6040516102a191906123ef565b60405180910390f35b6102b26109e8565b005b3480156102c057600080fd5b506102c9610a76565b005b3480156102d757600080fd5b506102f260048036038101906102ed919061236d565b610cf5565b005b34801561030057600080fd5b50610309610d9d565b60405161031691906123ef565b60405180910390f35b34801561032b57600080fd5b5061034660048036038101906103419190612249565b610dc1565b6040516103539190612143565b60405180910390f35b34801561036857600080fd5b50610383600480360381019061037e919061236d565b610e2b565b005b34801561039157600080fd5b5061039a610ed3565b6040516103a791906121d0565b60405180910390f35b3480156103bc57600080fd5b506103c5610eda565b6040516103d291906123ef565b60405180910390f35b6103e3610efe565b005b6103ff60048036038101906103fa91906124d9565b610fa1565b60405161040d9291906125dd565b60405180910390f35b34801561042257600080fd5b5061043d60048036038101906104389190612249565b611130565b005b60007f7965db0b000000000000000000000000000000000000000000000000000000007bffffffffffffffffffffffffffffffffffffffffffffffffffffffff1916827bffffffffffffffffffffffffffffffffffffffffffffffffffffffff191614806104b257506104b182611151565b5b9050919050565b6000806000838152602001908152602001600020600101549050919050565b6104e1826104b9565b6104ea816111bb565b6104f483836111cf565b505050565b6105016112af565b73ffffffffffffffffffffffffffffffffffffffff168173ffffffffffffffffffffffffffffffffffffffff161461056e576040517f08c379a000000000000000000000000000000000000000000000000000000000815260040161056590612690565b60405180910390fd5b61057882826112b7565b5050565b7f000000000000000000000000000000000000000000000000000000000000000073ffffffffffffffffffffffffffffffffffffffff163073ffffffffffffffffffffffffffffffffffffffff160361060a576040517f08c379a0000000000000000000000000000000000000000000000000000000008152600401610601906126fc565b60405180910390fd5b6000801b610617816111bb565b6106218383611398565b505050565b7f000000000000000000000000000000000000000000000000000000000000000073ffffffffffffffffffffffffffffffffffffffff163073ffffffffffffffffffffffffffffffffffffffff16036106b4576040517f08c379a00000000000000000000000000000000000000000000000000000000081526004016106ab906126fc565b60405180910390fd5b6000801b6106c1816111bb565b6106ce6000801b836104d8565b6106db6000801b336104f9565b7fa06677f7b64342b4bcbde423684dbdb5356acfe41ad0285b6ecbe6dc4bf427f2338360405161070c92919061271c565b60405180910390a15050565b60007f000000000000000000000000000000000000000000000000000000000000000073ffffffffffffffffffffffffffffffffffffffff163073ffffffffffffffffffffffffffffffffffffffff16036107a8576040517f08c379a000000000000000000000000000000000000000000000000000000000815260040161079f906126fc565b60405180910390fd5b6107b182611531565b9050919050565b60007f000000000000000000000000000000000000000000000000000000000000000073ffffffffffffffffffffffffffffffffffffffff163073ffffffffffffffffffffffffffffffffffffffff1614610848576040517f08c379a000000000000000000000000000000000000000000000000000000000815260040161083f90612791565b60405180910390fd5b7f03c7040f8e5b938f657d4600d08b1b77f390141994844cbb34ff043f26ac6cd7610872816111bb565b61087b306117b8565b915060008273ffffffffffffffffffffffffffffffffffffffff166040516024016040516020818303038152906040527f8129fc1c000000000000000000000000000000000000000000000000000000007bffffffffffffffffffffffffffffffffffffffffffffffffffffffff19166020820180517bffffffffffffffffffffffffffffffffffffffffffffffffffffffff838183161783525050505060405161092691906127ed565b6000604051808303816000865af19150503d8060008114610963576040519150601f19603f3d011682016040523d82523d6000602084013e610968565b606091505b50509050806109ac576040517f08c379a00000000000000000000000000000000000000000000000000000000081526004016109a390612850565b60405180910390fd5b7fbe2f3d28fdeb5839123d65fd47ec2f5915c715d2b527b9e229123706fdecfc85836040516109db91906123ef565b60405180910390a1505090565b600073c1e088fc1323b20bcbee9bd1b9fc9546db5624c590508073ffffffffffffffffffffffffffffffffffffffff1663779b3c5c6040518163ffffffff1660e01b815260040160408051808303816000875af1158015610a4d573d6000803e3d6000fd5b505050506040513d601f19601f82011682018060405250810190610a7191906128be565b505050565b600060018054906101000a900460ff16159050808015610aa7575060018060009054906101000a900460ff1660ff16105b80610ad55750610ab630611872565b158015610ad4575060018060009054906101000a900460ff1660ff16145b5b610b14576040517f08c379a0000000000000000000000000000000000000000000000000000000008152600401610b0b90612970565b60405180910390fd5b60018060006101000a81548160ff021916908360ff1602179055508015610b505760018060016101000a81548160ff0219169083151502179055505b7f000000000000000000000000000000000000000000000000000000000000000073ffffffffffffffffffffffffffffffffffffffff163073ffffffffffffffffffffffffffffffffffffffff1603610bde576040517f08c379a0000000000000000000000000000000000000000000000000000000008152600401610bd5906126fc565b60405180910390fd5b7f000000000000000000000000000000000000000000000000000000000000000073ffffffffffffffffffffffffffffffffffffffff163373ffffffffffffffffffffffffffffffffffffffff1614610c6c576040517f08c379a0000000000000000000000000000000000000000000000000000000008152600401610c63906129dc565b60405180910390fd5b610c996000801b7f0000000000000000000000000000000000000000000000000000000000000000611895565b8015610cf25760006001806101000a81548160ff0219169083151502179055507f7f26b83ff96e1f2b6a682f133852f6798a09c465da95921460cefb38474024986001604051610ce99190612a4e565b60405180910390a15b50565b7f000000000000000000000000000000000000000000000000000000000000000073ffffffffffffffffffffffffffffffffffffffff163073ffffffffffffffffffffffffffffffffffffffff1603610d83576040517f08c379a0000000000000000000000000000000000000000000000000000000008152600401610d7a906126fc565b60405180910390fd5b6000801b610d90816111bb565b610d99826118a3565b5050565b7f000000000000000000000000000000000000000000000000000000000000000081565b600080600084815260200190815260200160002060000160008373ffffffffffffffffffffffffffffffffffffffff1673ffffffffffffffffffffffffffffffffffffffff16815260200190815260200160002060009054906101000a900460ff16905092915050565b7f000000000000000000000000000000000000000000000000000000000000000073ffffffffffffffffffffffffffffffffffffffff163073ffffffffffffffffffffffffffffffffffffffff1603610eb9576040517f08c379a0000000000000000000000000000000000000000000000000000000008152600401610eb0906126fc565b60405180910390fd5b6000801b610ec6816111bb565b610ecf82611a27565b5050565b6000801b81565b7f000000000000000000000000000000000000000000000000000000000000000081565b600073bea0e11282e2bb5893bece110cf199501e872bad9050600073c1e088fc1323b20bcbee9bd1b9fc9546db5624c590508073ffffffffffffffffffffffffffffffffffffffff1663150d517333846040518363ffffffff1660e01b8152600401610f6b92919061271c565b600060405180830381600087803b158015610f8557600080fd5b505af1158015610f99573d6000803e3d6000fd5b505050505050565b600060607f000000000000000000000000000000000000000000000000000000000000000073ffffffffffffffffffffffffffffffffffffffff163073ffffffffffffffffffffffffffffffffffffffff1603611033576040517f08c379a000000000000000000000000000000000000000000000000000000000815260040161102a906126fc565b60405180910390fd5b6000801b611040816111bb565b836110b9578673ffffffffffffffffffffffffffffffffffffffff1634878760405161106d929190612a9d565b60006040518083038185875af1925050503d80600081146110aa576040519150601f19603f3d011682016040523d82523d6000602084013e6110af565b606091505b5092509250611126565b8673ffffffffffffffffffffffffffffffffffffffff1686866040516110e0929190612a9d565b600060405180830381855af49150503d806000811461111b576040519150601f19603f3d011682016040523d82523d6000602084013e611120565b606091505b50925092505b5094509492505050565b611139826104b9565b611142816111bb565b61114c83836112b7565b505050565b60007f01ffc9a7000000000000000000000000000000000000000000000000000000007bffffffffffffffffffffffffffffffffffffffffffffffffffffffff1916827bffffffffffffffffffffffffffffffffffffffffffffffffffffffff1916149050919050565b6111cc816111c76112af565b611da1565b50565b6111d98282610dc1565b6112ab57600160008084815260200190815260200160002060000160008373ffffffffffffffffffffffffffffffffffffffff1673ffffffffffffffffffffffffffffffffffffffff16815260200190815260200160002060006101000a81548160ff0219169083151502179055506112506112af565b73ffffffffffffffffffffffffffffffffffffffff168173ffffffffffffffffffffffffffffffffffffffff16837f2f8788117e7eff1d82e926ec794901d17c78024a50270940304540a733656f0d60405160405180910390a45b5050565b600033905090565b6112c18282610dc1565b1561139457600080600084815260200190815260200160002060000160008373ffffffffffffffffffffffffffffffffffffffff1673ffffffffffffffffffffffffffffffffffffffff16815260200190815260200160002060006101000a81548160ff0219169083151502179055506113396112af565b73ffffffffffffffffffffffffffffffffffffffff168173ffffffffffffffffffffffffffffffffffffffff16837ff6391f5c32d9c69d2a47ea670b442974b53935d1edc7fd64eb21e047a839171b60405160405180910390a45b5050565b60008280604001906113aa9190612ac5565b8101906113b79190612c24565b9050600081600001519050600083111561152b578073ffffffffffffffffffffffffffffffffffffffff1663095ea7b3858060e001906113f79190612c51565b60000160208101906114099190612340565b856040518363ffffffff1660e01b8152600401611427929190612c79565b6020604051808303816000875af1158015611446573d6000803e3d6000fd5b505050506040513d601f19601f8201168201806040525081019061146a9190612cb7565b50838060e0019061147b9190612c51565b600001602081019061148d9190612340565b73ffffffffffffffffffffffffffffffffffffffff166306b1c4c98580604001906114b89190612ac5565b86888060e001906114c99190612c51565b80602001906114d89190612ac5565b6040518663ffffffff1660e01b81526004016114f8959493929190612d11565b600060405180830381600087803b15801561151257600080fd5b505af1158015611526573d6000803e3d6000fd5b505050505b50505050565b60008073bea0e11282e2bb5893bece110cf199501e872bad9050600073c1e088fc1323b20bcbee9bd1b9fc9546db5624c59050600073ccc52959fbc0859321e78216c374911be3c50eb6905060008273ffffffffffffffffffffffffffffffffffffffff16633e465a2e87806101c001906115ac9190612c51565b60000160208101906115be9190612340565b6040518263ffffffff1660e01b81526004016115da91906123ef565b602060405180830381865afa1580156115f7573d6000803e3d6000fd5b505050506040513d601f19601f8201168201806040525081019061161b9190612d5a565b905060008373ffffffffffffffffffffffffffffffffffffffff1663c84c7727866002546040518363ffffffff1660e01b815260040161165c929190612c79565b602060405180830381865afa158015611679573d6000803e3d6000fd5b505050506040513d601f19601f8201168201806040525081019061169d9190612d5a565b90506000620f4240670de0b6b3a764000083856116ba9190612db6565b6116c49190612dea565b6116ce9190612e5b565b905060006040518060200160405280600160ff1681525090506000816040516020016116fa9190612eb7565b60405160208183030381529060405290506000670de0b6b3a7640000848873ffffffffffffffffffffffffffffffffffffffff16639569eb8f856040518263ffffffff1660e01b81526004016117509190612ed2565b602060405180830381865afa15801561176d573d6000803e3d6000fd5b505050506040513d601f19601f820116820180604052508101906117919190612d5a565b61179b9190612dea565b6117a59190612e5b565b9050809950505050505050505050919050565b6000763d602d80600a3d3981f3363d3d373d3d3d363d730000008260601b60e81c176000526e5af43d82803e903d91602b57fd5bf38260781b17602052603760096000f09050600073ffffffffffffffffffffffffffffffffffffffff168173ffffffffffffffffffffffffffffffffffffffff160361186d576040517f08c379a000000000000000000000000000000000000000000000000000000000815260040161186490612f40565b60405180910390fd5b919050565b6000808273ffffffffffffffffffffffffffffffffffffffff163b119050919050565b61189f82826111cf565b5050565b600073c1e088fc1323b20bcbee9bd1b9fc9546db5624c59050600073bea0e11282e2bb5893bece110cf199501e872bad90508173ffffffffffffffffffffffffffffffffffffffff1663e348f82b82600360009054906101000a9004600b0b60025460006040518563ffffffff1660e01b81526004016119269493929190612fe6565b600060405180830381600087803b15801561194057600080fd5b505af1158015611954573d6000803e3d6000fd5b505050508073ffffffffffffffffffffffffffffffffffffffff16635fe192c660025473c02aaa39b223fe8d0a0e5c4f27ead9083c756cc2600087806101c0019061199f9190612c51565b60000160208101906119b19190612340565b6002426119be9190612dea565b6040518663ffffffff1660e01b81526004016119de9594939291906130bb565b6020604051808303816000875af11580156119fd573d6000803e3d6000fd5b505050506040513d601f19601f82011682018060405250810190611a219190612d5a565b50505050565b600073bea0e11282e2bb5893bece110cf199501e872bad9050600073c1e088fc1323b20bcbee9bd1b9fc9546db5624c59050600083602001358460000135611a6f9190612db6565b9050600073c02aaa39b223fe8d0a0e5c4f27ead9083c756cc290508073ffffffffffffffffffffffffffffffffffffffff1663095ea7b385846040518363ffffffff1660e01b8152600401611ac5929190612c79565b6020604051808303816000875af1158015611ae4573d6000803e3d6000fd5b505050506040513d601f19601f82011682018060405250810190611b089190612cb7565b506000600267ffffffffffffffff811115611b2657611b25612b2d565b5b604051908082528060200260200182016040528015611b545781602001602082028036833780820191505090505b509050600081600081518110611b6d57611b6c61310e565b5b6020026020010181815250508281600181518110611b8e57611b8d61310e565b5b60200260200101818152505060008573ffffffffffffffffffffffffffffffffffffffff1663cb9c78448360008a806101c00190611bcc9190612c51565b6000016020810190611bde9190612340565b600242611beb9190612dea565b6040518563ffffffff1660e01b8152600401611c0a94939291906131fb565b6020604051808303816000875af1158015611c29573d6000803e3d6000fd5b505050506040513d601f19601f82011682018060405250810190611c4d9190612d5a565b905060008690508073ffffffffffffffffffffffffffffffffffffffff1663095ea7b387846040518363ffffffff1660e01b8152600401611c8f929190612c79565b6020604051808303816000875af1158015611cae573d6000803e3d6000fd5b505050506040513d601f19601f82011682018060405250810190611cd29190612cb7565b508573ffffffffffffffffffffffffffffffffffffffff1663f19ed6be888460006040518463ffffffff1660e01b8152600401611d119392919061328f565b6060604051808303816000875af1158015611d30573d6000803e3d6000fd5b505050506040513d601f19601f82011682018060405250810190611d5491906132c6565b9091509050600360008291906101000a8154816bffffffffffffffffffffffff0219169083600b0b6bffffffffffffffffffffffff16021790555050816002819055505050505050505050565b611dab8282610dc1565b611e2257611db881611e26565b611dc68360001c6020611e53565b604051602001611dd79291906133f8565b6040516020818303038152906040526040517f08c379a0000000000000000000000000000000000000000000000000000000008152600401611e19919061346b565b60405180910390fd5b5050565b6060611e4c8273ffffffffffffffffffffffffffffffffffffffff16601460ff16611e53565b9050919050565b606060006002836002611e669190612dea565b611e709190612db6565b67ffffffffffffffff811115611e8957611e88612b2d565b5b6040519080825280601f01601f191660200182016040528015611ebb5781602001600182028036833780820191505090505b5090507f300000000000000000000000000000000000000000000000000000000000000081600081518110611ef357611ef261310e565b5b60200101907effffffffffffffffffffffffffffffffffffffffffffffffffffffffffffff1916908160001a9053507f780000000000000000000000000000000000000000000000000000000000000081600181518110611f5757611f5661310e565b5b60200101907effffffffffffffffffffffffffffffffffffffffffffffffffffffffffffff1916908160001a90535060006001846002611f979190612dea565b611fa19190612db6565b90505b6001811115612041577f3031323334353637383961626364656600000000000000000000000000000000600f861660108110611fe357611fe261310e565b5b1a60f81b828281518110611ffa57611ff961310e565b5b60200101907effffffffffffffffffffffffffffffffffffffffffffffffffffffffffffff1916908160001a905350600485901c94508061203a9061348d565b9050611fa4565b5060008414612085576040517f08c379a000000000000000000000000000000000000000000000000000000000815260040161207c90613502565b60405180910390fd5b8091505092915050565b6000604051905090565b600080fd5b600080fd5b60007fffffffff0000000000000000000000000000000000000000000000000000000082169050919050565b6120d8816120a3565b81146120e357600080fd5b50565b6000813590506120f5816120cf565b92915050565b60006020828403121561211157612110612099565b5b600061211f848285016120e6565b91505092915050565b60008115159050919050565b61213d81612128565b82525050565b60006020820190506121586000830184612134565b92915050565b6000819050919050565b6121718161215e565b811461217c57600080fd5b50565b60008135905061218e81612168565b92915050565b6000602082840312156121aa576121a9612099565b5b60006121b88482850161217f565b91505092915050565b6121ca8161215e565b82525050565b60006020820190506121e560008301846121c1565b92915050565b600073ffffffffffffffffffffffffffffffffffffffff82169050919050565b6000612216826121eb565b9050919050565b6122268161220b565b811461223157600080fd5b50565b6000813590506122438161221d565b92915050565b600080604083850312156122605761225f612099565b5b600061226e8582860161217f565b925050602061227f85828601612234565b9150509250929050565b600080fd5b600061020082840312156122a5576122a4612289565b5b81905092915050565b6000819050919050565b6122c1816122ae565b81146122cc57600080fd5b50565b6000813590506122de816122b8565b92915050565b600080604083850312156122fb576122fa612099565b5b600083013567ffffffffffffffff8111156123195761231861209e565b5b6123258582860161228e565b9250506020612336858286016122cf565b9150509250929050565b60006020828403121561235657612355612099565b5b600061236484828501612234565b91505092915050565b60006020828403121561238357612382612099565b5b600082013567ffffffffffffffff8111156123a1576123a061209e565b5b6123ad8482850161228e565b91505092915050565b6123bf816122ae565b82525050565b60006020820190506123da60008301846123b6565b92915050565b6123e98161220b565b82525050565b600060208201905061240460008301846123e0565b92915050565b6000612415826121eb565b9050919050565b6124258161240a565b811461243057600080fd5b50565b6000813590506124428161241c565b92915050565b600080fd5b600080fd5b600080fd5b60008083601f84011261246d5761246c612448565b5b8235905067ffffffffffffffff81111561248a5761248961244d565b5b6020830191508360018202830111156124a6576124a5612452565b5b9250929050565b6124b681612128565b81146124c157600080fd5b50565b6000813590506124d3816124ad565b92915050565b600080600080606085870312156124f3576124f2612099565b5b600061250187828801612433565b945050602085013567ffffffffffffffff8111156125225761252161209e565b5b61252e87828801612457565b93509350506040612541878288016124c4565b91505092959194509250565b600081519050919050565b600082825260208201905092915050565b60005b8381101561258757808201518184015260208101905061256c565b60008484015250505050565b6000601f19601f8301169050919050565b60006125af8261254d565b6125b98185612558565b93506125c9818560208601612569565b6125d281612593565b840191505092915050565b60006040820190506125f26000830185612134565b818103602083015261260481846125a4565b90509392505050565b600082825260208201905092915050565b7f416363657373436f6e74726f6c3a2063616e206f6e6c792072656e6f756e636560008201527f20726f6c657320666f722073656c660000000000000000000000000000000000602082015250565b600061267a602f8361260d565b91506126858261261e565b604082019050919050565b600060208201905081810360008301526126a98161266d565b9050919050565b7f65786563206e6f7420616c6c6f77656420696e20696d706c0000000000000000600082015250565b60006126e660188361260d565b91506126f1826126b0565b602082019050919050565b60006020820190508181036000830152612715816126d9565b9050919050565b600060408201905061273160008301856123e0565b61273e60208301846123e0565b9392505050565b7f65786563206e6f7420616c6c6f77656420696e2070726f787900000000000000600082015250565b600061277b60198361260d565b915061278682612745565b602082019050919050565b600060208201905081810360008301526127aa8161276e565b9050919050565b600081905092915050565b60006127c78261254d565b6127d181856127b1565b93506127e1818560208601612569565b80840191505092915050565b60006127f982846127bc565b915081905092915050565b7f637265617465436c6f6e653a20696e697469616c697a65206661696c00000000600082015250565b600061283a601c8361260d565b915061284582612804565b602082019050919050565b600060208201905081810360008301526128698161282d565b9050919050565b60008151905061287f816122b8565b92915050565b600081600b0b9050919050565b61289b81612885565b81146128a657600080fd5b50565b6000815190506128b881612892565b92915050565b600080604083850312156128d5576128d4612099565b5b60006128e385828601612870565b92505060206128f4858286016128a9565b9150509250929050565b7f496e697469616c697a61626c653a20636f6e747261637420697320616c72656160008201527f647920696e697469616c697a6564000000000000000000000000000000000000602082015250565b600061295a602e8361260d565b9150612965826128fe565b604082019050919050565b600060208201905081810360008301526129898161294d565b9050919050565b7f73656e64657220213d20696d706c20636f6e7472616374000000000000000000600082015250565b60006129c660178361260d565b91506129d182612990565b602082019050919050565b600060208201905081810360008301526129f5816129b9565b9050919050565b6000819050919050565b600060ff82169050919050565b6000819050919050565b6000612a38612a33612a2e846129fc565b612a13565b612a06565b9050919050565b612a4881612a1d565b82525050565b6000602082019050612a636000830184612a3f565b92915050565b82818337600083830152505050565b6000612a8483856127b1565b9350612a91838584612a69565b82840190509392505050565b6000612aaa828486612a78565b91508190509392505050565b600080fd5b600080fd5b600080fd5b60008083356001602003843603038112612ae257612ae1612ab6565b5b80840192508235915067ffffffffffffffff821115612b0457612b03612abb565b5b602083019250600182023603831315612b2057612b1f612ac0565b5b509250929050565b600080fd5b7f4e487b7100000000000000000000000000000000000000000000000000000000600052604160045260246000fd5b612b6582612593565b810181811067ffffffffffffffff82111715612b8457612b83612b2d565b5b80604052505050565b6000612b9761208f565b9050612ba38282612b5c565b919050565b612bb181612a06565b8114612bbc57600080fd5b50565b600081359050612bce81612ba8565b92915050565b600060408284031215612bea57612be9612b28565b5b612bf46040612b8d565b90506000612c0484828501612234565b6000830152506020612c1884828501612bbf565b60208301525092915050565b600060408284031215612c3a57612c39612099565b5b6000612c4884828501612bd4565b91505092915050565b600082356001604003833603038112612c6d57612c6c612ab6565b5b80830191505092915050565b6000604082019050612c8e60008301856123e0565b612c9b60208301846123b6565b9392505050565b600081519050612cb1816124ad565b92915050565b600060208284031215612ccd57612ccc612099565b5b6000612cdb84828501612ca2565b91505092915050565b6000612cf08385612558565b9350612cfd838584612a69565b612d0683612593565b840190509392505050565b60006060820190508181036000830152612d2c818789612ce4565b9050612d3b60208301866123b6565b8181036040830152612d4e818486612ce4565b90509695505050505050565b600060208284031215612d7057612d6f612099565b5b6000612d7e84828501612870565b91505092915050565b7f4e487b7100000000000000000000000000000000000000000000000000000000600052601160045260246000fd5b6000612dc1826122ae565b9150612dcc836122ae565b9250828201905080821115612de457612de3612d87565b5b92915050565b6000612df5826122ae565b9150612e00836122ae565b9250828202612e0e816122ae565b91508282048414831517612e2557612e24612d87565b5b5092915050565b7f4e487b7100000000000000000000000000000000000000000000000000000000600052601260045260246000fd5b6000612e66826122ae565b9150612e71836122ae565b925082612e8157612e80612e2c565b5b828204905092915050565b612e9581612a06565b82525050565b602082016000820151612eb16000850182612e8c565b50505050565b6000602082019050612ecc6000830184612e9b565b92915050565b60006020820190508181036000830152612eec81846125a4565b905092915050565b7f455243313136373a20637265617465206661696c656400000000000000000000600082015250565b6000612f2a60168361260d565b9150612f3582612ef4565b602082019050919050565b60006020820190508181036000830152612f5981612f1d565b9050919050565b612f6981612885565b82525050565b7f4e487b7100000000000000000000000000000000000000000000000000000000600052602160045260246000fd5b60028110612faf57612fae612f6f565b5b50565b6000819050612fc082612f9e565b919050565b6000612fd082612fb2565b9050919050565b612fe081612fc5565b82525050565b6000608082019050612ffb60008301876123e0565b6130086020830186612f60565b61301560408301856123b6565b6130226060830184612fd7565b95945050505050565b600061304661304161303c846121eb565b612a13565b6121eb565b9050919050565b60006130588261302b565b9050919050565b600061306a8261304d565b9050919050565b61307a8161305f565b82525050565b6000819050919050565b60006130a56130a061309b84613080565b612a13565b6122ae565b9050919050565b6130b58161308a565b82525050565b600060a0820190506130d060008301886123b6565b6130dd6020830187613071565b6130ea60408301866130ac565b6130f760608301856123e0565b61310460808301846123b6565b9695505050505050565b7f4e487b7100000000000000000000000000000000000000000000000000000000600052603260045260246000fd5b600081519050919050565b600082825260208201905092915050565b6000819050602082019050919050565b613172816122ae565b82525050565b60006131848383613169565b60208301905092915050565b6000602082019050919050565b60006131a88261313d565b6131b28185613148565b93506131bd83613159565b8060005b838110156131ee5781516131d58882613178565b97506131e083613190565b9250506001810190506131c1565b5085935050505092915050565b60006080820190508181036000830152613215818761319d565b905061322460208301866130ac565b61323160408301856123e0565b61323e60608301846123b6565b95945050505050565b6004811061325857613257612f6f565b5b50565b600081905061326982613247565b919050565b60006132798261325b565b9050919050565b6132898161326e565b82525050565b60006060820190506132a460008301866123e0565b6132b160208301856123b6565b6132be6040830184613280565b949350505050565b6000806000606084860312156132df576132de612099565b5b60006132ed86828701612870565b93505060206132fe86828701612870565b925050604061330f868287016128a9565b9150509250925092565b600081905092915050565b7f416363657373436f6e74726f6c3a206163636f756e7420000000000000000000600082015250565b600061335a601783613319565b915061336582613324565b601782019050919050565b600081519050919050565b600061338682613370565b6133908185613319565b93506133a0818560208601612569565b80840191505092915050565b7f206973206d697373696e6720726f6c6520000000000000000000000000000000600082015250565b60006133e2601183613319565b91506133ed826133ac565b601182019050919050565b60006134038261334d565b915061340f828561337b565b915061341a826133d5565b9150613426828461337b565b91508190509392505050565b600061343d82613370565b613447818561260d565b9350613457818560208601612569565b61346081612593565b840191505092915050565b600060208201905081810360008301526134858184613432565b905092915050565b6000613498826122ae565b9150600082036134ab576134aa612d87565b5b600182039050919050565b7f537472696e67733a20686578206c656e67746820696e73756666696369656e74600082015250565b60006134ec60208361260d565b91506134f7826134b6565b602082019050919050565b6000602082019050818103600083015261351b816134df565b905091905056fea2646970667358221220e48163c371dd3fa3167395ae730c761c5b22f2f791b6028a69d3c95302b5b0c564736f6c63430008130033",
  "linkReferences": {},
  "deployedLinkReferences": {}
}