{
  "_format": "hh-sol-artifact-1",
  "contractName": "WalletFactory",
  "sourceName": "src/plugins/position/implementations/Wallet.sol",
  "abi": [
    {
      "inputs": [
        {
          "internalType": "address",
          "name": "protocolAddr",
          "type": "address"
        }
      ],
      "stateMutability": "nonpayable",
      "type": "constructor"
    },
    {
      "anonymous": false,
      "inputs": [
        {
          "indexed": false,
          "internalType": "address",
          "name": "clone",
          "type": "address"
        }
      ],
      "name": "CloneCreated",
      "type": "event"
    },
    {
      "anonymous": false,
      "inputs": [
        {
          "indexed": false,
          "internalType": "address",
          "name": "previousController",
          "type": "address"
        },
        {
          "indexed": false,
          "internalType": "address",
          "name": "newController",
          "type": "address"
        }
      ],
      "name": "ControlTransferred",
      "type": "event"
    },
    {
      "anonymous": false,
      "inputs": [
        {
          "indexed": false,
          "internalType": "uint8",
          "name": "version",
          "type": "uint8"
        }
      ],
      "name": "Initialized",
      "type": "event"
    },
    {
      "anonymous": false,
      "inputs": [
        {
          "indexed": true,
          "internalType": "bytes32",
          "name": "role",
          "type": "bytes32"
        },
        {
          "indexed": true,
          "internalType": "bytes32",
          "name": "previousAdminRole",
          "type": "bytes32"
        },
        {
          "indexed": true,
          "internalType": "bytes32",
          "name": "newAdminRole",
          "type": "bytes32"
        }
      ],
      "name": "RoleAdminChanged",
      "type": "event"
    },
    {
      "anonymous": false,
      "inputs": [
        {
          "indexed": true,
          "internalType": "bytes32",
          "name": "role",
          "type": "bytes32"
        },
        {
          "indexed": true,
          "internalType": "address",
          "name": "account",
          "type": "address"
        },
        {
          "indexed": true,
          "internalType": "address",
          "name": "sender",
          "type": "address"
        }
      ],
      "name": "RoleGranted",
      "type": "event"
    },
    {
      "anonymous": false,
      "inputs": [
        {
          "indexed": true,
          "internalType": "bytes32",
          "name": "role",
          "type": "bytes32"
        },
        {
          "indexed": true,
          "internalType": "address",
          "name": "account",
          "type": "address"
        },
        {
          "indexed": true,
          "internalType": "address",
          "name": "sender",
          "type": "address"
        }
      ],
      "name": "RoleRevoked",
      "type": "event"
    },
    {
      "inputs": [],
      "name": "BOOKKEEPER_ADDRESS",
      "outputs": [
        {
          "internalType": "address",
          "name": "",
          "type": "address"
        }
      ],
      "stateMutability": "view",
      "type": "function"
    },
    {
      "inputs": [],
      "name": "DEFAULT_ADMIN_ROLE",
      "outputs": [
        {
          "internalType": "bytes32",
          "name": "",
          "type": "bytes32"
        }
      ],
      "stateMutability": "view",
      "type": "function"
    },
    {
      "inputs": [],
      "name": "FACTORY_ADDRESS",
      "outputs": [
        {
          "internalType": "address",
          "name": "",
          "type": "address"
        }
      ],
      "stateMutability": "view",
      "type": "function"
    },
    {
      "inputs": [
        {
          "internalType": "address",
          "name": "sender",
          "type": "address"
        },
        {
          "components": [
            {
              "internalType": "uint256",
              "name": "loanAmount",
              "type": "uint256"
            },
            {
              "internalType": "uint256",
              "name": "collAmount",
              "type": "uint256"
            },
            {
              "internalType": "bytes",
              "name": "loanAsset",
              "type": "bytes"
            },
            {
              "internalType": "bytes",
              "name": "collAsset",
              "type": "bytes"
            },
            {
              "internalType": "uint256",
              "name": "minCollateralRatio",
              "type": "uint256"
            },
            {
              "internalType": "uint256",
              "name": "maxDuration",
              "type": "uint256"
            },
            {
              "internalType": "bool",
              "name": "isLeverage",
              "type": "bool"
            },
            {
              "components": [
                {
                  "internalType": "address",
                  "name": "addr",
                  "type": "address"
                },
                {
                  "internalType": "bytes",
                  "name": "parameters",
                  "type": "bytes"
                }
              ],
              "internalType": "struct PluginReference",
              "name": "lenderAccount",
              "type": "tuple"
            },
            {
              "components": [
                {
                  "internalType": "address",
                  "name": "addr",
                  "type": "address"
                },
                {
                  "internalType": "bytes",
                  "name": "parameters",
                  "type": "bytes"
                }
              ],
              "internalType": "struct PluginReference",
              "name": "borrowerAccount",
              "type": "tuple"
            },
            {
              "components": [
                {
                  "internalType": "address",
                  "name": "addr",
                  "type": "address"
                },
                {
                  "internalType": "bytes",
                  "name": "parameters",
                  "type": "bytes"
                }
              ],
              "internalType": "struct PluginReference",
              "name": "assessor",
              "type": "tuple"
            },
            {
              "components": [
                {
                  "internalType": "address",
                  "name": "addr",
                  "type": "address"
                },
                {
                  "internalType": "bytes",
                  "name": "parameters",
                  "type": "bytes"
                }
              ],
              "internalType": "struct PluginReference",
              "name": "liquidator",
              "type": "tuple"
            },
            {
              "components": [
                {
                  "internalType": "address",
                  "name": "addr",
                  "type": "address"
                },
                {
                  "internalType": "bytes",
                  "name": "parameters",
                  "type": "bytes"
                }
              ],
              "internalType": "struct PluginReference",
              "name": "loanOracle",
              "type": "tuple"
            },
            {
              "components": [
                {
                  "internalType": "address",
                  "name": "addr",
                  "type": "address"
                },
                {
                  "internalType": "bytes",
                  "name": "parameters",
                  "type": "bytes"
                }
              ],
              "internalType": "struct PluginReference",
              "name": "collOracle",
              "type": "tuple"
            },
            {
              "internalType": "address",
              "name": "factory",
              "type": "address"
            },
            {
              "components": [
                {
                  "internalType": "address",
                  "name": "addr",
                  "type": "address"
                },
                {
                  "internalType": "bytes",
                  "name": "parameters",
                  "type": "bytes"
                }
              ],
              "internalType": "struct PluginReference",
              "name": "position",
              "type": "tuple"
            },
            {
              "internalType": "uint256",
              "name": "deploymentTime",
              "type": "uint256"
            }
          ],
          "internalType": "struct Agreement",
          "name": "agreement",
          "type": "tuple"
        }
      ],
      "name": "close",
      "outputs": [],
      "stateMutability": "nonpayable",
      "type": "function"
    },
    {
      "inputs": [],
      "name": "createClone",
      "outputs": [
        {
          "internalType": "address",
          "name": "addr",
          "type": "address"
        }
      ],
      "stateMutability": "nonpayable",
      "type": "function"
    },
    {
      "inputs": [
        {
          "components": [
            {
              "internalType": "uint256",
              "name": "loanAmount",
              "type": "uint256"
            },
            {
              "internalType": "uint256",
              "name": "collAmount",
              "type": "uint256"
            },
            {
              "internalType": "bytes",
              "name": "loanAsset",
              "type": "bytes"
            },
            {
              "internalType": "bytes",
              "name": "collAsset",
              "type": "bytes"
            },
            {
              "internalType": "uint256",
              "name": "minCollateralRatio",
              "type": "uint256"
            },
            {
              "internalType": "uint256",
              "name": "maxDuration",
              "type": "uint256"
            },
            {
              "internalType": "bool",
              "name": "isLeverage",
              "type": "bool"
            },
            {
              "components": [
                {
                  "internalType": "address",
                  "name": "addr",
                  "type": "address"
                },
                {
                  "internalType": "bytes",
                  "name": "parameters",
                  "type": "bytes"
                }
              ],
              "internalType": "struct PluginReference",
              "name": "lenderAccount",
              "type": "tuple"
            },
            {
              "components": [
                {
                  "internalType": "address",
                  "name": "addr",
                  "type": "address"
                },
                {
                  "internalType": "bytes",
                  "name": "parameters",
                  "type": "bytes"
                }
              ],
              "internalType": "struct PluginReference",
              "name": "borrowerAccount",
              "type": "tuple"
            },
            {
              "components": [
                {
                  "internalType": "address",
                  "name": "addr",
                  "type": "address"
                },
                {
                  "internalType": "bytes",
                  "name": "parameters",
                  "type": "bytes"
                }
              ],
              "internalType": "struct PluginReference",
              "name": "assessor",
              "type": "tuple"
            },
            {
              "components": [
                {
                  "internalType": "address",
                  "name": "addr",
                  "type": "address"
                },
                {
                  "internalType": "bytes",
                  "name": "parameters",
                  "type": "bytes"
                }
              ],
              "internalType": "struct PluginReference",
              "name": "liquidator",
              "type": "tuple"
            },
            {
              "components": [
                {
                  "internalType": "address",
                  "name": "addr",
                  "type": "address"
                },
                {
                  "internalType": "bytes",
                  "name": "parameters",
                  "type": "bytes"
                }
              ],
              "internalType": "struct PluginReference",
              "name": "loanOracle",
              "type": "tuple"
            },
            {
              "components": [
                {
                  "internalType": "address",
                  "name": "addr",
                  "type": "address"
                },
                {
                  "internalType": "bytes",
                  "name": "parameters",
                  "type": "bytes"
                }
              ],
              "internalType": "struct PluginReference",
              "name": "collOracle",
              "type": "tuple"
            },
            {
              "internalType": "address",
              "name": "factory",
              "type": "address"
            },
            {
              "components": [
                {
                  "internalType": "address",
                  "name": "addr",
                  "type": "address"
                },
                {
                  "internalType": "bytes",
                  "name": "parameters",
                  "type": "bytes"
                }
              ],
              "internalType": "struct PluginReference",
              "name": "position",
              "type": "tuple"
            },
            {
              "internalType": "uint256",
              "name": "deploymentTime",
              "type": "uint256"
            }
          ],
          "internalType": "struct Agreement",
          "name": "agreement",
          "type": "tuple"
        }
      ],
      "name": "getCloseValue",
      "outputs": [
        {
          "internalType": "uint256",
          "name": "",
          "type": "uint256"
        }
      ],
      "stateMutability": "view",
      "type": "function"
    },
    {
      "inputs": [
        {
          "internalType": "bytes32",
          "name": "role",
          "type": "bytes32"
        }
      ],
      "name": "getRoleAdmin",
      "outputs": [
        {
          "internalType": "bytes32",
          "name": "",
          "type": "bytes32"
        }
      ],
      "stateMutability": "view",
      "type": "function"
    },
    {
      "inputs": [
        {
          "internalType": "bytes32",
          "name": "role",
          "type": "bytes32"
        },
        {
          "internalType": "address",
          "name": "account",
          "type": "address"
        }
      ],
      "name": "grantRole",
      "outputs": [],
      "stateMutability": "nonpayable",
      "type": "function"
    },
    {
      "inputs": [
        {
          "internalType": "bytes32",
          "name": "role",
          "type": "bytes32"
        },
        {
          "internalType": "address",
          "name": "account",
          "type": "address"
        }
      ],
      "name": "hasRole",
      "outputs": [
        {
          "internalType": "bool",
          "name": "",
          "type": "bool"
        }
      ],
      "stateMutability": "view",
      "type": "function"
    },
    {
      "inputs": [],
      "name": "initialize",
      "outputs": [],
      "stateMutability": "nonpayable",
      "type": "function"
    },
    {
      "inputs": [
        {
          "components": [
            {
              "internalType": "uint256",
              "name": "loanAmount",
              "type": "uint256"
            },
            {
              "internalType": "uint256",
              "name": "collAmount",
              "type": "uint256"
            },
            {
              "internalType": "bytes",
              "name": "loanAsset",
              "type": "bytes"
            },
            {
              "internalType": "bytes",
              "name": "collAsset",
              "type": "bytes"
            },
            {
              "internalType": "uint256",
              "name": "minCollateralRatio",
              "type": "uint256"
            },
            {
              "internalType": "uint256",
              "name": "maxDuration",
              "type": "uint256"
            },
            {
              "internalType": "bool",
              "name": "isLeverage",
              "type": "bool"
            },
            {
              "components": [
                {
                  "internalType": "address",
                  "name": "addr",
                  "type": "address"
                },
                {
                  "internalType": "bytes",
                  "name": "parameters",
                  "type": "bytes"
                }
              ],
              "internalType": "struct PluginReference",
              "name": "lenderAccount",
              "type": "tuple"
            },
            {
              "components": [
                {
                  "internalType": "address",
                  "name": "addr",
                  "type": "address"
                },
                {
                  "internalType": "bytes",
                  "name": "parameters",
                  "type": "bytes"
                }
              ],
              "internalType": "struct PluginReference",
              "name": "borrowerAccount",
              "type": "tuple"
            },
            {
              "components": [
                {
                  "internalType": "address",
                  "name": "addr",
                  "type": "address"
                },
                {
                  "internalType": "bytes",
                  "name": "parameters",
                  "type": "bytes"
                }
              ],
              "internalType": "struct PluginReference",
              "name": "assessor",
              "type": "tuple"
            },
            {
              "components": [
                {
                  "internalType": "address",
                  "name": "addr",
                  "type": "address"
                },
                {
                  "internalType": "bytes",
                  "name": "parameters",
                  "type": "bytes"
                }
              ],
              "internalType": "struct PluginReference",
              "name": "liquidator",
              "type": "tuple"
            },
            {
              "components": [
                {
                  "internalType": "address",
                  "name": "addr",
                  "type": "address"
                },
                {
                  "internalType": "bytes",
                  "name": "parameters",
                  "type": "bytes"
                }
              ],
              "internalType": "struct PluginReference",
              "name": "loanOracle",
              "type": "tuple"
            },
            {
              "components": [
                {
                  "internalType": "address",
                  "name": "addr",
                  "type": "address"
                },
                {
                  "internalType": "bytes",
                  "name": "parameters",
                  "type": "bytes"
                }
              ],
              "internalType": "struct PluginReference",
              "name": "collOracle",
              "type": "tuple"
            },
            {
              "internalType": "address",
              "name": "factory",
              "type": "address"
            },
            {
              "components": [
                {
                  "internalType": "address",
                  "name": "addr",
                  "type": "address"
                },
                {
                  "internalType": "bytes",
                  "name": "parameters",
                  "type": "bytes"
                }
              ],
              "internalType": "struct PluginReference",
              "name": "position",
              "type": "tuple"
            },
            {
              "internalType": "uint256",
              "name": "deploymentTime",
              "type": "uint256"
            }
          ],
          "internalType": "struct Agreement",
          "name": "agreement",
          "type": "tuple"
        }
      ],
      "name": "open",
      "outputs": [],
      "stateMutability": "nonpayable",
      "type": "function"
    },
    {
      "inputs": [
        {
          "internalType": "address payable",
          "name": "destination",
          "type": "address"
        },
        {
          "internalType": "bytes",
          "name": "data",
          "type": "bytes"
        },
        {
          "internalType": "bool",
          "name": "delegateCall",
          "type": "bool"
        }
      ],
      "name": "passThrough",
      "outputs": [
        {
          "internalType": "bool",
          "name": "",
          "type": "bool"
        },
        {
          "internalType": "bytes",
          "name": "",
          "type": "bytes"
        }
      ],
      "stateMutability": "payable",
      "type": "function"
    },
    {
      "inputs": [
        {
          "internalType": "bytes32",
          "name": "role",
          "type": "bytes32"
        },
        {
          "internalType": "address",
          "name": "account",
          "type": "address"
        }
      ],
      "name": "renounceRole",
      "outputs": [],
      "stateMutability": "nonpayable",
      "type": "function"
    },
    {
      "inputs": [
        {
          "internalType": "bytes32",
          "name": "role",
          "type": "bytes32"
        },
        {
          "internalType": "address",
          "name": "account",
          "type": "address"
        }
      ],
      "name": "revokeRole",
      "outputs": [],
      "stateMutability": "nonpayable",
      "type": "function"
    },
    {
      "inputs": [
        {
          "internalType": "bytes4",
          "name": "interfaceId",
          "type": "bytes4"
        }
      ],
      "name": "supportsInterface",
      "outputs": [
        {
          "internalType": "bool",
          "name": "",
          "type": "bool"
        }
      ],
      "stateMutability": "view",
      "type": "function"
    },
    {
      "inputs": [
        {
          "internalType": "address",
          "name": "controller",
          "type": "address"
        }
      ],
      "name": "transferContract",
      "outputs": [],
      "stateMutability": "nonpayable",
      "type": "function"
    },
    {
      "stateMutability": "payable",
      "type": "receive"
    }
  ],
  "bytecode": "0x60c06040523480156200001157600080fd5b506040516200383638038062003836833981810160405281019062000037919062000398565b808062000049620000ee60201b60201c565b8073ffffffffffffffffffffffffffffffffffffffff1660808173ffffffffffffffffffffffffffffffffffffffff16815250503073ffffffffffffffffffffffffffffffffffffffff1660a08173ffffffffffffffffffffffffffffffffffffffff1681525050620000e57f03c7040f8e5b938f657d4600d08b1b77f390141994844cbb34ff043f26ac6cd7608051620001b560201b60201c565b505050620004ae565b60018054906101000a900460ff16156200013f576040517f08c379a0000000000000000000000000000000000000000000000000000000008152600401620001369062000451565b60405180910390fd5b60ff8016600160009054906101000a900460ff1660ff1614620001b35760ff600160006101000a81548160ff021916908360ff1602179055507f7f26b83ff96e1f2b6a682f133852f6798a09c465da95921460cefb384740249860ff604051620001aa919062000491565b60405180910390a15b565b620001c78282620001cb60201b60201c565b5050565b620001dd8282620002bc60201b60201c565b620002b857600160008084815260200190815260200160002060000160008373ffffffffffffffffffffffffffffffffffffffff1673ffffffffffffffffffffffffffffffffffffffff16815260200190815260200160002060006101000a81548160ff0219169083151502179055506200025d6200032660201b60201c565b73ffffffffffffffffffffffffffffffffffffffff168173ffffffffffffffffffffffffffffffffffffffff16837f2f8788117e7eff1d82e926ec794901d17c78024a50270940304540a733656f0d60405160405180910390a45b5050565b600080600084815260200190815260200160002060000160008373ffffffffffffffffffffffffffffffffffffffff1673ffffffffffffffffffffffffffffffffffffffff16815260200190815260200160002060009054906101000a900460ff16905092915050565b600033905090565b600080fd5b600073ffffffffffffffffffffffffffffffffffffffff82169050919050565b6000620003608262000333565b9050919050565b620003728162000353565b81146200037e57600080fd5b50565b600081519050620003928162000367565b92915050565b600060208284031215620003b157620003b06200032e565b5b6000620003c18482850162000381565b91505092915050565b600082825260208201905092915050565b7f496e697469616c697a61626c653a20636f6e747261637420697320696e69746960008201527f616c697a696e6700000000000000000000000000000000000000000000000000602082015250565b600062000439602783620003ca565b91506200044682620003db565b604082019050919050565b600060208201905081810360008301526200046c816200042a565b9050919050565b600060ff82169050919050565b6200048b8162000473565b82525050565b6000602082019050620004a8600083018462000480565b92915050565b60805160a051613323620005136000396000818161047c015281816105ca015281816106be0152818161075e01528181610a6601528181610af401528181610c0b01528181610c990152610d70015260008181610b890152610d4801526133236000f3fe6080604052600436106100f75760003560e01c80638129fc1c1161008a578063a217fddf11610059578063a217fddf14610331578063a29929251461035c578063b9fdc2a214610387578063d547741f146103b8576100fe565b80638129fc1c146102895780638823151b146102a057806391d14854146102cb578063a1d9bb2414610308576100fe565b806336568abe116100c657806336568abe146101cf57806347635dac146101f8578063528f5b911461022157806364f2d4b91461025e576100fe565b806301ffc9a714610103578063248a9ca3146101405780632930afea1461017d5780632f2ff15d146101a6576100fe565b366100fe57005b600080fd5b34801561010f57600080fd5b5061012a60048036038101906101259190611c5c565b6103e1565b6040516101379190611ca4565b60405180910390f35b34801561014c57600080fd5b5061016760048036038101906101629190611cf5565b61045b565b6040516101749190611d31565b60405180910390f35b34801561018957600080fd5b506101a4600480360381019061019f9190611dcf565b61047a565b005b3480156101b257600080fd5b506101cd60048036038101906101c89190611e2b565b610524565b005b3480156101db57600080fd5b506101f660048036038101906101f19190611e2b565b610545565b005b34801561020457600080fd5b5061021f600480360381019061021a9190611e6b565b6105c8565b005b34801561022d57600080fd5b5061024860048036038101906102439190611e98565b6106ba565b6040516102559190611efa565b60405180910390f35b34801561026a57600080fd5b5061027361075a565b6040516102809190611f24565b60405180910390f35b34801561029557600080fd5b5061029e61098a565b005b3480156102ac57600080fd5b506102b5610c09565b6040516102c29190611f24565b60405180910390f35b3480156102d757600080fd5b506102f260048036038101906102ed9190611e2b565b610c2d565b6040516102ff9190611ca4565b60405180910390f35b34801561031457600080fd5b5061032f600480360381019061032a9190611e98565b610c97565b005b34801561033d57600080fd5b50610346610d3f565b6040516103539190611d31565b60405180910390f35b34801561036857600080fd5b50610371610d46565b60405161037e9190611f24565b60405180910390f35b6103a1600480360381019061039c919061200e565b610d6a565b6040516103af929190612112565b60405180910390f35b3480156103c457600080fd5b506103df60048036038101906103da9190611e2b565b610ef9565b005b60007f7965db0b000000000000000000000000000000000000000000000000000000007bffffffffffffffffffffffffffffffffffffffffffffffffffffffff1916827bffffffffffffffffffffffffffffffffffffffffffffffffffffffff19161480610454575061045382610f1a565b5b9050919050565b6000806000838152602001908152602001600020600101549050919050565b7f000000000000000000000000000000000000000000000000000000000000000073ffffffffffffffffffffffffffffffffffffffff163073ffffffffffffffffffffffffffffffffffffffff1603610508576040517f08c379a00000000000000000000000000000000000000000000000000000000081526004016104ff9061219f565b60405180910390fd5b6000801b61051581610f84565b61051f8383610f98565b505050565b61052d8261045b565b61053681610f84565b6105408383611494565b505050565b61054d611574565b73ffffffffffffffffffffffffffffffffffffffff168173ffffffffffffffffffffffffffffffffffffffff16146105ba576040517f08c379a00000000000000000000000000000000000000000000000000000000081526004016105b190612231565b60405180910390fd5b6105c4828261157c565b5050565b7f000000000000000000000000000000000000000000000000000000000000000073ffffffffffffffffffffffffffffffffffffffff163073ffffffffffffffffffffffffffffffffffffffff1603610656576040517f08c379a000000000000000000000000000000000000000000000000000000000815260040161064d9061219f565b60405180910390fd5b6000801b61066381610f84565b6106706000801b83610524565b61067d6000801b33610545565b7fa06677f7b64342b4bcbde423684dbdb5356acfe41ad0285b6ecbe6dc4bf427f233836040516106ae929190612251565b60405180910390a15050565b60007f000000000000000000000000000000000000000000000000000000000000000073ffffffffffffffffffffffffffffffffffffffff163073ffffffffffffffffffffffffffffffffffffffff160361074a576040517f08c379a00000000000000000000000000000000000000000000000000000000081526004016107419061219f565b60405180910390fd5b6107538261165d565b9050919050565b60007f000000000000000000000000000000000000000000000000000000000000000073ffffffffffffffffffffffffffffffffffffffff163073ffffffffffffffffffffffffffffffffffffffff16146107ea576040517f08c379a00000000000000000000000000000000000000000000000000000000081526004016107e1906122c6565b60405180910390fd5b7f03c7040f8e5b938f657d4600d08b1b77f390141994844cbb34ff043f26ac6cd761081481610f84565b61081d30611749565b915060008273ffffffffffffffffffffffffffffffffffffffff166040516024016040516020818303038152906040527f8129fc1c000000000000000000000000000000000000000000000000000000007bffffffffffffffffffffffffffffffffffffffffffffffffffffffff19166020820180517bffffffffffffffffffffffffffffffffffffffffffffffffffffffff83818316178352505050506040516108c89190612322565b6000604051808303816000865af19150503d8060008114610905576040519150601f19603f3d011682016040523d82523d6000602084013e61090a565b606091505b505090508061094e576040517f08c379a000000000000000000000000000000000000000000000000000000000815260040161094590612385565b60405180910390fd5b7fbe2f3d28fdeb5839123d65fd47ec2f5915c715d2b527b9e229123706fdecfc858360405161097d9190611f24565b60405180910390a1505090565b600060018054906101000a900460ff161590508080156109bb575060018060009054906101000a900460ff1660ff16105b806109e957506109ca30611803565b1580156109e8575060018060009054906101000a900460ff1660ff16145b5b610a28576040517f08c379a0000000000000000000000000000000000000000000000000000000008152600401610a1f90612417565b60405180910390fd5b60018060006101000a81548160ff021916908360ff1602179055508015610a645760018060016101000a81548160ff0219169083151502179055505b7f000000000000000000000000000000000000000000000000000000000000000073ffffffffffffffffffffffffffffffffffffffff163073ffffffffffffffffffffffffffffffffffffffff1603610af2576040517f08c379a0000000000000000000000000000000000000000000000000000000008152600401610ae99061219f565b60405180910390fd5b7f000000000000000000000000000000000000000000000000000000000000000073ffffffffffffffffffffffffffffffffffffffff163373ffffffffffffffffffffffffffffffffffffffff1614610b80576040517f08c379a0000000000000000000000000000000000000000000000000000000008152600401610b7790612483565b60405180910390fd5b610bad6000801b7f0000000000000000000000000000000000000000000000000000000000000000611826565b8015610c065760006001806101000a81548160ff0219169083151502179055507f7f26b83ff96e1f2b6a682f133852f6798a09c465da95921460cefb38474024986001604051610bfd91906124f5565b60405180910390a15b50565b7f000000000000000000000000000000000000000000000000000000000000000081565b600080600084815260200190815260200160002060000160008373ffffffffffffffffffffffffffffffffffffffff1673ffffffffffffffffffffffffffffffffffffffff16815260200190815260200160002060009054906101000a900460ff16905092915050565b7f000000000000000000000000000000000000000000000000000000000000000073ffffffffffffffffffffffffffffffffffffffff163073ffffffffffffffffffffffffffffffffffffffff1603610d25576040517f08c379a0000000000000000000000000000000000000000000000000000000008152600401610d1c9061219f565b60405180910390fd5b6000801b610d3281610f84565b610d3b82611834565b5050565b6000801b81565b7f000000000000000000000000000000000000000000000000000000000000000081565b600060607f000000000000000000000000000000000000000000000000000000000000000073ffffffffffffffffffffffffffffffffffffffff163073ffffffffffffffffffffffffffffffffffffffff1603610dfc576040517f08c379a0000000000000000000000000000000000000000000000000000000008152600401610df39061219f565b60405180910390fd5b6000801b610e0981610f84565b83610e82578673ffffffffffffffffffffffffffffffffffffffff16348787604051610e36929190612544565b60006040518083038185875af1925050503d8060008114610e73576040519150601f19603f3d011682016040523d82523d6000602084013e610e78565b606091505b5092509250610eef565b8673ffffffffffffffffffffffffffffffffffffffff168686604051610ea9929190612544565b600060405180830381855af49150503d8060008114610ee4576040519150601f19603f3d011682016040523d82523d6000602084013e610ee9565b606091505b50925092505b5094509492505050565b610f028261045b565b610f0b81610f84565b610f15838361157c565b505050565b60007f01ffc9a7000000000000000000000000000000000000000000000000000000007bffffffffffffffffffffffffffffffffffffffffffffffffffffffff1916827bffffffffffffffffffffffffffffffffffffffffffffffffffffffff1916149050919050565b610f9581610f90611574565b611902565b50565b600081806101200190610fab919061256c565b6000016020810190610fbd9190611e6b565b73ffffffffffffffffffffffffffffffffffffffff1663a6d79fe8836040518263ffffffff1660e01b8152600401610ff5919061296d565b602060405180830381865afa158015611012573d6000803e3d6000fd5b505050506040513d601f19601f8201168201806040525081019061103691906129a4565b905060008280610160019061104b919061256c565b600001602081019061105d9190611e6b565b73ffffffffffffffffffffffffffffffffffffffff16639569eb8f84806101600190611089919061256c565b806020019061109891906129d1565b6040518363ffffffff1660e01b81526004016110b5929190612a61565b602060405180830381865afa1580156110d2573d6000803e3d6000fd5b505050506040513d601f19601f820116820180604052508101906110f691906129a4565b670de0b6b3a76400008361110a9190612ab4565b6111149190612b25565b83600001356111239190612b56565b9050600083806040019061113791906129d1565b8101906111449190612b8a565b9050600084806060019061115891906129d1565b8101906111659190612cb3565b90506000816000015190506000826020015160ff169050600084905060008173ffffffffffffffffffffffffffffffffffffffff166370a08231306040518263ffffffff1660e01b81526004016111bc9190611f24565b602060405180830381865afa1580156111d9573d6000803e3d6000fd5b505050506040513d601f19601f820116820180604052508101906111fd91906129a4565b9050808711156112805773__$0dbc1134add5307a68154fc29708de467d$__6308b047dc878c30858c6112309190612ce0565b6040518563ffffffff1660e01b815260040161124f9493929190612d32565b60006040518083038186803b15801561126757600080fd5b505af415801561127b573d6000803e3d6000fd5b505050505b60008711156113e9578173ffffffffffffffffffffffffffffffffffffffff1663095ea7b38a8060e001906112b5919061256c565b60000160208101906112c79190611e6b565b896040518363ffffffff1660e01b81526004016112e5929190612d77565b6020604051808303816000875af1158015611304573d6000803e3d6000fd5b505050506040513d601f19601f820116820180604052508101906113289190612db5565b50888060e00190611339919061256c565b600001602081019061134b9190611e6b565b73ffffffffffffffffffffffffffffffffffffffff166306b1c4c98a806040019061137691906129d1565b8a8d8060e00190611387919061256c565b806020019061139691906129d1565b6040518663ffffffff1660e01b81526004016113b6959493929190612de2565b600060405180830381600087803b1580156113d057600080fd5b505af11580156113e4573d6000803e3d6000fd5b505050505b6000670de0b6b3a764000084600a6114019190612f5e565b8b602001356114109190612ab4565b61141a9190612b25565b905073__$0dbc1134add5307a68154fc29708de467d$__63d4e3bdb6868d846040518463ffffffff1660e01b815260040161145793929190612fa9565b60006040518083038186803b15801561146f57600080fd5b505af4158015611483573d6000803e3d6000fd5b505050505050505050505050505050565b61149e8282610c2d565b61157057600160008084815260200190815260200160002060000160008373ffffffffffffffffffffffffffffffffffffffff1673ffffffffffffffffffffffffffffffffffffffff16815260200190815260200160002060006101000a81548160ff021916908315150217905550611515611574565b73ffffffffffffffffffffffffffffffffffffffff168173ffffffffffffffffffffffffffffffffffffffff16837f2f8788117e7eff1d82e926ec794901d17c78024a50270940304540a733656f0d60405160405180910390a45b5050565b600033905090565b6115868282610c2d565b1561165957600080600084815260200190815260200160002060000160008373ffffffffffffffffffffffffffffffffffffffff1673ffffffffffffffffffffffffffffffffffffffff16815260200190815260200160002060006101000a81548160ff0219169083151502179055506115fe611574565b73ffffffffffffffffffffffffffffffffffffffff168173ffffffffffffffffffffffffffffffffffffffff16837ff6391f5c32d9c69d2a47ea670b442974b53935d1edc7fd64eb21e047a839171b60405160405180910390a45b5050565b600080670de0b6b3a76400008380610180019061167a919061256c565b600001602081019061168c9190611e6b565b73ffffffffffffffffffffffffffffffffffffffff16639569eb8f858061018001906116b8919061256c565b80602001906116c791906129d1565b6040518363ffffffff1660e01b81526004016116e4929190612a61565b602060405180830381865afa158015611701573d6000803e3d6000fd5b505050506040513d601f19601f8201168201806040525081019061172591906129a4565b84602001356117349190612ab4565b61173e9190612b25565b905080915050919050565b6000763d602d80600a3d3981f3363d3d373d3d3d363d730000008260601b60e81c176000526e5af43d82803e903d91602b57fd5bf38260781b17602052603760096000f09050600073ffffffffffffffffffffffffffffffffffffffff168173ffffffffffffffffffffffffffffffffffffffff16036117fe576040517f08c379a00000000000000000000000000000000000000000000000000000000081526004016117f59061302c565b60405180910390fd5b919050565b6000808273ffffffffffffffffffffffffffffffffffffffff163b119050919050565b6118308282611494565b5050565b600081806101c00190611847919061256c565b806020019061185691906129d1565b8101906118639190613088565b9050600082806040019061187791906129d1565b8101906118849190612cb3565b905073__$0dbc1134add5307a68154fc29708de467d$__63d4e3bdb68260000151846000015186600001356040518463ffffffff1660e01b81526004016118cd93929190612fa9565b60006040518083038186803b1580156118e557600080fd5b505af41580156118f9573d6000803e3d6000fd5b50505050505050565b61190c8282610c2d565b6119835761191981611987565b6119278360001c60206119b4565b604051602001611938929190613194565b6040516020818303038152906040526040517f08c379a000000000000000000000000000000000000000000000000000000000815260040161197a9190613207565b60405180910390fd5b5050565b60606119ad8273ffffffffffffffffffffffffffffffffffffffff16601460ff166119b4565b9050919050565b6060600060028360026119c79190612ab4565b6119d19190612b56565b67ffffffffffffffff8111156119ea576119e9612bbc565b5b6040519080825280601f01601f191660200182016040528015611a1c5781602001600182028036833780820191505090505b5090507f300000000000000000000000000000000000000000000000000000000000000081600081518110611a5457611a53613229565b5b60200101907effffffffffffffffffffffffffffffffffffffffffffffffffffffffffffff1916908160001a9053507f780000000000000000000000000000000000000000000000000000000000000081600181518110611ab857611ab7613229565b5b60200101907effffffffffffffffffffffffffffffffffffffffffffffffffffffffffffff1916908160001a90535060006001846002611af89190612ab4565b611b029190612b56565b90505b6001811115611ba2577f3031323334353637383961626364656600000000000000000000000000000000600f861660108110611b4457611b43613229565b5b1a60f81b828281518110611b5b57611b5a613229565b5b60200101907effffffffffffffffffffffffffffffffffffffffffffffffffffffffffffff1916908160001a905350600485901c945080611b9b90613258565b9050611b05565b5060008414611be6576040517f08c379a0000000000000000000000000000000000000000000000000000000008152600401611bdd906132cd565b60405180910390fd5b8091505092915050565b6000604051905090565b600080fd5b600080fd5b60007fffffffff0000000000000000000000000000000000000000000000000000000082169050919050565b611c3981611c04565b8114611c4457600080fd5b50565b600081359050611c5681611c30565b92915050565b600060208284031215611c7257611c71611bfa565b5b6000611c8084828501611c47565b91505092915050565b60008115159050919050565b611c9e81611c89565b82525050565b6000602082019050611cb96000830184611c95565b92915050565b6000819050919050565b611cd281611cbf565b8114611cdd57600080fd5b50565b600081359050611cef81611cc9565b92915050565b600060208284031215611d0b57611d0a611bfa565b5b6000611d1984828501611ce0565b91505092915050565b611d2b81611cbf565b82525050565b6000602082019050611d466000830184611d22565b92915050565b600073ffffffffffffffffffffffffffffffffffffffff82169050919050565b6000611d7782611d4c565b9050919050565b611d8781611d6c565b8114611d9257600080fd5b50565b600081359050611da481611d7e565b92915050565b600080fd5b60006102008284031215611dc657611dc5611daa565b5b81905092915050565b60008060408385031215611de657611de5611bfa565b5b6000611df485828601611d95565b925050602083013567ffffffffffffffff811115611e1557611e14611bff565b5b611e2185828601611daf565b9150509250929050565b60008060408385031215611e4257611e41611bfa565b5b6000611e5085828601611ce0565b9250506020611e6185828601611d95565b9150509250929050565b600060208284031215611e8157611e80611bfa565b5b6000611e8f84828501611d95565b91505092915050565b600060208284031215611eae57611ead611bfa565b5b600082013567ffffffffffffffff811115611ecc57611ecb611bff565b5b611ed884828501611daf565b91505092915050565b6000819050919050565b611ef481611ee1565b82525050565b6000602082019050611f0f6000830184611eeb565b92915050565b611f1e81611d6c565b82525050565b6000602082019050611f396000830184611f15565b92915050565b6000611f4a82611d4c565b9050919050565b611f5a81611f3f565b8114611f6557600080fd5b50565b600081359050611f7781611f51565b92915050565b600080fd5b600080fd5b600080fd5b60008083601f840112611fa257611fa1611f7d565b5b8235905067ffffffffffffffff811115611fbf57611fbe611f82565b5b602083019150836001820283011115611fdb57611fda611f87565b5b9250929050565b611feb81611c89565b8114611ff657600080fd5b50565b60008135905061200881611fe2565b92915050565b6000806000806060858703121561202857612027611bfa565b5b600061203687828801611f68565b945050602085013567ffffffffffffffff81111561205757612056611bff565b5b61206387828801611f8c565b9350935050604061207687828801611ff9565b91505092959194509250565b600081519050919050565b600082825260208201905092915050565b60005b838110156120bc5780820151818401526020810190506120a1565b60008484015250505050565b6000601f19601f8301169050919050565b60006120e482612082565b6120ee818561208d565b93506120fe81856020860161209e565b612107816120c8565b840191505092915050565b60006040820190506121276000830185611c95565b818103602083015261213981846120d9565b90509392505050565b600082825260208201905092915050565b7f65786563206e6f7420616c6c6f77656420696e20696d706c0000000000000000600082015250565b6000612189601883612142565b915061219482612153565b602082019050919050565b600060208201905081810360008301526121b88161217c565b9050919050565b7f416363657373436f6e74726f6c3a2063616e206f6e6c792072656e6f756e636560008201527f20726f6c657320666f722073656c660000000000000000000000000000000000602082015250565b600061221b602f83612142565b9150612226826121bf565b604082019050919050565b6000602082019050818103600083015261224a8161220e565b9050919050565b60006040820190506122666000830185611f15565b6122736020830184611f15565b9392505050565b7f65786563206e6f7420616c6c6f77656420696e2070726f787900000000000000600082015250565b60006122b0601983612142565b91506122bb8261227a565b602082019050919050565b600060208201905081810360008301526122df816122a3565b9050919050565b600081905092915050565b60006122fc82612082565b61230681856122e6565b935061231681856020860161209e565b80840191505092915050565b600061232e82846122f1565b915081905092915050565b7f637265617465436c6f6e653a20696e697469616c697a65206661696c00000000600082015250565b600061236f601c83612142565b915061237a82612339565b602082019050919050565b6000602082019050818103600083015261239e81612362565b9050919050565b7f496e697469616c697a61626c653a20636f6e747261637420697320616c72656160008201527f647920696e697469616c697a6564000000000000000000000000000000000000602082015250565b6000612401602e83612142565b915061240c826123a5565b604082019050919050565b60006020820190508181036000830152612430816123f4565b9050919050565b7f73656e64657220213d20696d706c20636f6e7472616374000000000000000000600082015250565b600061246d601783612142565b915061247882612437565b602082019050919050565b6000602082019050818103600083015261249c81612460565b9050919050565b6000819050919050565b600060ff82169050919050565b6000819050919050565b60006124df6124da6124d5846124a3565b6124ba565b6124ad565b9050919050565b6124ef816124c4565b82525050565b600060208201905061250a60008301846124e6565b92915050565b82818337600083830152505050565b600061252b83856122e6565b9350612538838584612510565b82840190509392505050565b600061255182848661251f565b91508190509392505050565b600080fd5b600080fd5b600080fd5b6000823560016040038336030381126125885761258761255d565b5b80830191505092915050565b61259d81611ee1565b81146125a857600080fd5b50565b6000813590506125ba81612594565b92915050565b60006125cf60208401846125ab565b905092915050565b6125e081611ee1565b82525050565b600080fd5b600080fd5b600080fd5b60008083356001602003843603038112612612576126116125f0565b5b83810192508235915060208301925067ffffffffffffffff82111561263a576126396125e6565b5b6001820236038313156126505761264f6125eb565b5b509250929050565b600082825260208201905092915050565b60006126758385612658565b9350612682838584612510565b61268b836120c8565b840190509392505050565b60006126a56020840184611ff9565b905092915050565b6126b681611c89565b82525050565b6000823560016040038336030381126126d8576126d76125f0565b5b82810191505092915050565b60006126f36020840184611d95565b905092915050565b61270481611d6c565b82525050565b60006040830161271d60008401846126e4565b61272a60008601826126fb565b5061273860208401846125f5565b858303602087015261274b838284612669565b925050508091505092915050565b6000610200830161276d60008401846125c0565b61277a60008601826125d7565b5061278860208401846125c0565b61279560208601826125d7565b506127a360408401846125f5565b85830360408701526127b6838284612669565b925050506127c760608401846125f5565b85830360608701526127da838284612669565b925050506127eb60808401846125c0565b6127f860808601826125d7565b5061280660a08401846125c0565b61281360a08601826125d7565b5061282160c0840184612696565b61282e60c08601826126ad565b5061283c60e08401846126bc565b84820360e086015261284e828261270a565b91505061285f6101008401846126bc565b848203610100860152612872828261270a565b9150506128836101208401846126bc565b848203610120860152612896828261270a565b9150506128a76101408401846126bc565b8482036101408601526128ba828261270a565b9150506128cb6101608401846126bc565b8482036101608601526128de828261270a565b9150506128ef6101808401846126bc565b848203610180860152612902828261270a565b9150506129136101a08401846126e4565b6129216101a08601826126fb565b506129306101c08401846126bc565b8482036101c0860152612943828261270a565b9150506129546101e08401846125c0565b6129626101e08601826125d7565b508091505092915050565b600060208201905081810360008301526129878184612759565b905092915050565b60008151905061299e81612594565b92915050565b6000602082840312156129ba576129b9611bfa565b5b60006129c88482850161298f565b91505092915050565b600080833560016020038436030381126129ee576129ed61255d565b5b80840192508235915067ffffffffffffffff821115612a1057612a0f612562565b5b602083019250600182023603831315612a2c57612a2b612567565b5b509250929050565b6000612a40838561208d565b9350612a4d838584612510565b612a56836120c8565b840190509392505050565b60006020820190508181036000830152612a7c818486612a34565b90509392505050565b7f4e487b7100000000000000000000000000000000000000000000000000000000600052601160045260246000fd5b6000612abf82611ee1565b9150612aca83611ee1565b9250828202612ad881611ee1565b91508282048414831517612aef57612aee612a85565b5b5092915050565b7f4e487b7100000000000000000000000000000000000000000000000000000000600052601260045260246000fd5b6000612b3082611ee1565b9150612b3b83611ee1565b925082612b4b57612b4a612af6565b5b828204905092915050565b6000612b6182611ee1565b9150612b6c83611ee1565b9250828201905080821115612b8457612b83612a85565b5b92915050565b600060208284031215612ba057612b9f611bfa565b5b6000612bae84828501611f68565b91505092915050565b600080fd5b7f4e487b7100000000000000000000000000000000000000000000000000000000600052604160045260246000fd5b612bf4826120c8565b810181811067ffffffffffffffff82111715612c1357612c12612bbc565b5b80604052505050565b6000612c26611bf0565b9050612c328282612beb565b919050565b612c40816124ad565b8114612c4b57600080fd5b50565b600081359050612c5d81612c37565b92915050565b600060408284031215612c7957612c78612bb7565b5b612c836040612c1c565b90506000612c9384828501611d95565b6000830152506020612ca784828501612c4e565b60208301525092915050565b600060408284031215612cc957612cc8611bfa565b5b6000612cd784828501612c63565b91505092915050565b6000612ceb82611ee1565b9150612cf683611ee1565b9250828203905081811115612d0e57612d0d612a85565b5b92915050565b612d1d81611d6c565b82525050565b612d2c81611ee1565b82525050565b6000608082019050612d476000830187612d14565b612d546020830186612d14565b612d616040830185612d14565b612d6e6060830184612d23565b95945050505050565b6000604082019050612d8c6000830185611f15565b612d996020830184611eeb565b9392505050565b600081519050612daf81611fe2565b92915050565b600060208284031215612dcb57612dca611bfa565b5b6000612dd984828501612da0565b91505092915050565b60006060820190508181036000830152612dfd818789612a34565b9050612e0c6020830186611eeb565b8181036040830152612e1f818486612a34565b90509695505050505050565b60008160011c9050919050565b6000808291508390505b6001851115612e8257808604811115612e5e57612e5d612a85565b5b6001851615612e6d5780820291505b8081029050612e7b85612e2b565b9450612e42565b94509492505050565b600082612e9b5760019050612f57565b81612ea95760009050612f57565b8160018114612ebf5760028114612ec957612ef8565b6001915050612f57565b60ff841115612edb57612eda612a85565b5b8360020a915084821115612ef257612ef1612a85565b5b50612f57565b5060208310610133831016604e8410600b8410161715612f2d5782820a905083811115612f2857612f27612a85565b5b612f57565b612f3a8484846001612e38565b92509050818404811115612f5157612f50612a85565b5b81810290505b9392505050565b6000612f6982611ee1565b9150612f7483611ee1565b9250612fa17fffffffffffffffffffffffffffffffffffffffffffffffffffffffffffffffff8484612e8b565b905092915050565b6000606082019050612fbe6000830186612d14565b612fcb6020830185612d14565b612fd86040830184612d23565b949350505050565b7f455243313136373a20637265617465206661696c656400000000000000000000600082015250565b6000613016601683612142565b915061302182612fe0565b602082019050919050565b6000602082019050818103600083015261304581613009565b9050919050565b60006020828403121561306257613061612bb7565b5b61306c6020612c1c565b9050600061307c84828501611d95565b60008301525092915050565b60006020828403121561309e5761309d611bfa565b5b60006130ac8482850161304c565b91505092915050565b600081905092915050565b7f416363657373436f6e74726f6c3a206163636f756e7420000000000000000000600082015250565b60006130f66017836130b5565b9150613101826130c0565b601782019050919050565b600081519050919050565b60006131228261310c565b61312c81856130b5565b935061313c81856020860161209e565b80840191505092915050565b7f206973206d697373696e6720726f6c6520000000000000000000000000000000600082015250565b600061317e6011836130b5565b915061318982613148565b601182019050919050565b600061319f826130e9565b91506131ab8285613117565b91506131b682613171565b91506131c28284613117565b91508190509392505050565b60006131d98261310c565b6131e38185612142565b93506131f381856020860161209e565b6131fc816120c8565b840191505092915050565b6000602082019050818103600083015261322181846131ce565b905092915050565b7f4e487b7100000000000000000000000000000000000000000000000000000000600052603260045260246000fd5b600061326382611ee1565b91506000820361327657613275612a85565b5b600182039050919050565b7f537472696e67733a20686578206c656e67746820696e73756666696369656e74600082015250565b60006132b7602083612142565b91506132c282613281565b602082019050919050565b600060208201905081810360008301526132e6816132aa565b905091905056fea2646970667358221220a01cdf8db21c8a4691fb7f8a149ebfe04ea29a6e6d558ad45adb8972699b9a9864736f6c63430008130033",
  "linkReferences": {
    "src/libraries/LibUtilsPublic.sol": {
      "LibUtilsPublic": [
        {
          "length": 20,
          "start": 5916
        },
        {
          "length": 20,
          "start": 6449
        },
        {
          "length": 20,
          "start": 7579
        }
      ]
    }
  },
  "deployedLinkReferences": {
    "src/libraries/LibUtilsPublic.sol": {
      "LibUtilsPublic": [
        {
          "length": 20,
          "start": 4617
        },
        {
          "length": 20,
          "start": 5150
        },
        {
          "length": 20,
          "start": 6280
        }
      ]
    }
  }
}