{
  "_format": "hh-sol-artifact-1",
  "contractName": "WalletFactory",
  "sourceName": "src/plugins/position/implementations/Wallet.sol",
  "abi": [
    {
      "inputs": [
        {
          "internalType": "address",
          "name": "protocolAddr",
          "type": "address"
        }
      ],
      "stateMutability": "nonpayable",
      "type": "constructor"
    },
    {
      "anonymous": false,
      "inputs": [
        {
          "indexed": false,
          "internalType": "address",
          "name": "clone",
          "type": "address"
        }
      ],
      "name": "CloneCreated",
      "type": "event"
    },
    {
      "anonymous": false,
      "inputs": [
        {
          "indexed": false,
          "internalType": "address",
          "name": "previousController",
          "type": "address"
        },
        {
          "indexed": false,
          "internalType": "address",
          "name": "newController",
          "type": "address"
        }
      ],
      "name": "ControlTransferred",
      "type": "event"
    },
    {
      "anonymous": false,
      "inputs": [
        {
          "indexed": false,
          "internalType": "uint8",
          "name": "version",
          "type": "uint8"
        }
      ],
      "name": "Initialized",
      "type": "event"
    },
    {
      "anonymous": false,
      "inputs": [
        {
          "indexed": true,
          "internalType": "bytes32",
          "name": "role",
          "type": "bytes32"
        },
        {
          "indexed": true,
          "internalType": "bytes32",
          "name": "previousAdminRole",
          "type": "bytes32"
        },
        {
          "indexed": true,
          "internalType": "bytes32",
          "name": "newAdminRole",
          "type": "bytes32"
        }
      ],
      "name": "RoleAdminChanged",
      "type": "event"
    },
    {
      "anonymous": false,
      "inputs": [
        {
          "indexed": true,
          "internalType": "bytes32",
          "name": "role",
          "type": "bytes32"
        },
        {
          "indexed": true,
          "internalType": "address",
          "name": "account",
          "type": "address"
        },
        {
          "indexed": true,
          "internalType": "address",
          "name": "sender",
          "type": "address"
        }
      ],
      "name": "RoleGranted",
      "type": "event"
    },
    {
      "anonymous": false,
      "inputs": [
        {
          "indexed": true,
          "internalType": "bytes32",
          "name": "role",
          "type": "bytes32"
        },
        {
          "indexed": true,
          "internalType": "address",
          "name": "account",
          "type": "address"
        },
        {
          "indexed": true,
          "internalType": "address",
          "name": "sender",
          "type": "address"
        }
      ],
      "name": "RoleRevoked",
      "type": "event"
    },
    {
      "inputs": [],
      "name": "BOOKKEEPER_ADDRESS",
      "outputs": [
        {
          "internalType": "address",
          "name": "",
          "type": "address"
        }
      ],
      "stateMutability": "view",
      "type": "function"
    },
    {
      "inputs": [],
      "name": "DEFAULT_ADMIN_ROLE",
      "outputs": [
        {
          "internalType": "bytes32",
          "name": "",
          "type": "bytes32"
        }
      ],
      "stateMutability": "view",
      "type": "function"
    },
    {
      "inputs": [],
      "name": "FACTORY_ADDRESS",
      "outputs": [
        {
          "internalType": "address",
          "name": "",
          "type": "address"
        }
      ],
      "stateMutability": "view",
      "type": "function"
    },
    {
      "inputs": [
        {
          "components": [
            {
              "internalType": "uint256",
              "name": "loanAmount",
              "type": "uint256"
            },
            {
              "internalType": "uint256",
              "name": "collAmount",
              "type": "uint256"
            },
            {
              "internalType": "bytes",
              "name": "loanAsset",
              "type": "bytes"
            },
            {
              "internalType": "bytes",
              "name": "collAsset",
              "type": "bytes"
            },
            {
              "internalType": "uint256",
              "name": "minCollateralRatio",
              "type": "uint256"
            },
            {
              "internalType": "uint256",
              "name": "maxDuration",
              "type": "uint256"
            },
            {
              "internalType": "bool",
              "name": "isLeverage",
              "type": "bool"
            },
            {
              "components": [
                {
                  "internalType": "address",
                  "name": "addr",
                  "type": "address"
                },
                {
                  "internalType": "bytes",
                  "name": "parameters",
                  "type": "bytes"
                }
              ],
              "internalType": "struct PluginReference",
              "name": "lenderAccount",
              "type": "tuple"
            },
            {
              "components": [
                {
                  "internalType": "address",
                  "name": "addr",
                  "type": "address"
                },
                {
                  "internalType": "bytes",
                  "name": "parameters",
                  "type": "bytes"
                }
              ],
              "internalType": "struct PluginReference",
              "name": "borrowerAccount",
              "type": "tuple"
            },
            {
              "components": [
                {
                  "internalType": "address",
                  "name": "addr",
                  "type": "address"
                },
                {
                  "internalType": "bytes",
                  "name": "parameters",
                  "type": "bytes"
                }
              ],
              "internalType": "struct PluginReference",
              "name": "assessor",
              "type": "tuple"
            },
            {
              "components": [
                {
                  "internalType": "address",
                  "name": "addr",
                  "type": "address"
                },
                {
                  "internalType": "bytes",
                  "name": "parameters",
                  "type": "bytes"
                }
              ],
              "internalType": "struct PluginReference",
              "name": "liquidator",
              "type": "tuple"
            },
            {
              "components": [
                {
                  "internalType": "address",
                  "name": "addr",
                  "type": "address"
                },
                {
                  "internalType": "bytes",
                  "name": "parameters",
                  "type": "bytes"
                }
              ],
              "internalType": "struct PluginReference",
              "name": "loanOracle",
              "type": "tuple"
            },
            {
              "components": [
                {
                  "internalType": "address",
                  "name": "addr",
                  "type": "address"
                },
                {
                  "internalType": "bytes",
                  "name": "parameters",
                  "type": "bytes"
                }
              ],
              "internalType": "struct PluginReference",
              "name": "collOracle",
              "type": "tuple"
            },
            {
              "internalType": "address",
              "name": "factory",
              "type": "address"
            },
            {
              "components": [
                {
                  "internalType": "address",
                  "name": "addr",
                  "type": "address"
                },
                {
                  "internalType": "bytes",
                  "name": "parameters",
                  "type": "bytes"
                }
              ],
              "internalType": "struct PluginReference",
              "name": "position",
              "type": "tuple"
            },
            {
              "internalType": "uint256",
              "name": "deploymentTime",
              "type": "uint256"
            },
            {
              "internalType": "bytes",
              "name": "fillerData",
              "type": "bytes"
            }
          ],
          "internalType": "struct Agreement",
          "name": "agreement",
          "type": "tuple"
        },
        {
          "internalType": "uint256",
          "name": "amountToClose",
          "type": "uint256"
        }
      ],
      "name": "close",
      "outputs": [],
      "stateMutability": "nonpayable",
      "type": "function"
    },
    {
      "inputs": [],
      "name": "createClone",
      "outputs": [
        {
          "internalType": "address",
          "name": "addr",
          "type": "address"
        }
      ],
      "stateMutability": "nonpayable",
      "type": "function"
    },
    {
      "inputs": [
        {
          "components": [
            {
              "internalType": "uint256",
              "name": "loanAmount",
              "type": "uint256"
            },
            {
              "internalType": "uint256",
              "name": "collAmount",
              "type": "uint256"
            },
            {
              "internalType": "bytes",
              "name": "loanAsset",
              "type": "bytes"
            },
            {
              "internalType": "bytes",
              "name": "collAsset",
              "type": "bytes"
            },
            {
              "internalType": "uint256",
              "name": "minCollateralRatio",
              "type": "uint256"
            },
            {
              "internalType": "uint256",
              "name": "maxDuration",
              "type": "uint256"
            },
            {
              "internalType": "bool",
              "name": "isLeverage",
              "type": "bool"
            },
            {
              "components": [
                {
                  "internalType": "address",
                  "name": "addr",
                  "type": "address"
                },
                {
                  "internalType": "bytes",
                  "name": "parameters",
                  "type": "bytes"
                }
              ],
              "internalType": "struct PluginReference",
              "name": "lenderAccount",
              "type": "tuple"
            },
            {
              "components": [
                {
                  "internalType": "address",
                  "name": "addr",
                  "type": "address"
                },
                {
                  "internalType": "bytes",
                  "name": "parameters",
                  "type": "bytes"
                }
              ],
              "internalType": "struct PluginReference",
              "name": "borrowerAccount",
              "type": "tuple"
            },
            {
              "components": [
                {
                  "internalType": "address",
                  "name": "addr",
                  "type": "address"
                },
                {
                  "internalType": "bytes",
                  "name": "parameters",
                  "type": "bytes"
                }
              ],
              "internalType": "struct PluginReference",
              "name": "assessor",
              "type": "tuple"
            },
            {
              "components": [
                {
                  "internalType": "address",
                  "name": "addr",
                  "type": "address"
                },
                {
                  "internalType": "bytes",
                  "name": "parameters",
                  "type": "bytes"
                }
              ],
              "internalType": "struct PluginReference",
              "name": "liquidator",
              "type": "tuple"
            },
            {
              "components": [
                {
                  "internalType": "address",
                  "name": "addr",
                  "type": "address"
                },
                {
                  "internalType": "bytes",
                  "name": "parameters",
                  "type": "bytes"
                }
              ],
              "internalType": "struct PluginReference",
              "name": "loanOracle",
              "type": "tuple"
            },
            {
              "components": [
                {
                  "internalType": "address",
                  "name": "addr",
                  "type": "address"
                },
                {
                  "internalType": "bytes",
                  "name": "parameters",
                  "type": "bytes"
                }
              ],
              "internalType": "struct PluginReference",
              "name": "collOracle",
              "type": "tuple"
            },
            {
              "internalType": "address",
              "name": "factory",
              "type": "address"
            },
            {
              "components": [
                {
                  "internalType": "address",
                  "name": "addr",
                  "type": "address"
                },
                {
                  "internalType": "bytes",
                  "name": "parameters",
                  "type": "bytes"
                }
              ],
              "internalType": "struct PluginReference",
              "name": "position",
              "type": "tuple"
            },
            {
              "internalType": "uint256",
              "name": "deploymentTime",
              "type": "uint256"
            },
            {
              "internalType": "bytes",
              "name": "fillerData",
              "type": "bytes"
            }
          ],
          "internalType": "struct Agreement",
          "name": "agreement",
          "type": "tuple"
        }
      ],
      "name": "getCloseAmount",
      "outputs": [
        {
          "internalType": "uint256",
          "name": "",
          "type": "uint256"
        }
      ],
      "stateMutability": "nonpayable",
      "type": "function"
    },
    {
      "inputs": [
        {
          "internalType": "bytes32",
          "name": "role",
          "type": "bytes32"
        }
      ],
      "name": "getRoleAdmin",
      "outputs": [
        {
          "internalType": "bytes32",
          "name": "",
          "type": "bytes32"
        }
      ],
      "stateMutability": "view",
      "type": "function"
    },
    {
      "inputs": [
        {
          "internalType": "bytes32",
          "name": "role",
          "type": "bytes32"
        },
        {
          "internalType": "address",
          "name": "account",
          "type": "address"
        }
      ],
      "name": "grantRole",
      "outputs": [],
      "stateMutability": "nonpayable",
      "type": "function"
    },
    {
      "inputs": [
        {
          "internalType": "bytes32",
          "name": "role",
          "type": "bytes32"
        },
        {
          "internalType": "address",
          "name": "account",
          "type": "address"
        }
      ],
      "name": "hasRole",
      "outputs": [
        {
          "internalType": "bool",
          "name": "",
          "type": "bool"
        }
      ],
      "stateMutability": "view",
      "type": "function"
    },
    {
      "inputs": [],
      "name": "initialize",
      "outputs": [],
      "stateMutability": "nonpayable",
      "type": "function"
    },
    {
      "inputs": [
        {
          "components": [
            {
              "internalType": "uint256",
              "name": "loanAmount",
              "type": "uint256"
            },
            {
              "internalType": "uint256",
              "name": "collAmount",
              "type": "uint256"
            },
            {
              "internalType": "bytes",
              "name": "loanAsset",
              "type": "bytes"
            },
            {
              "internalType": "bytes",
              "name": "collAsset",
              "type": "bytes"
            },
            {
              "internalType": "uint256",
              "name": "minCollateralRatio",
              "type": "uint256"
            },
            {
              "internalType": "uint256",
              "name": "maxDuration",
              "type": "uint256"
            },
            {
              "internalType": "bool",
              "name": "isLeverage",
              "type": "bool"
            },
            {
              "components": [
                {
                  "internalType": "address",
                  "name": "addr",
                  "type": "address"
                },
                {
                  "internalType": "bytes",
                  "name": "parameters",
                  "type": "bytes"
                }
              ],
              "internalType": "struct PluginReference",
              "name": "lenderAccount",
              "type": "tuple"
            },
            {
              "components": [
                {
                  "internalType": "address",
                  "name": "addr",
                  "type": "address"
                },
                {
                  "internalType": "bytes",
                  "name": "parameters",
                  "type": "bytes"
                }
              ],
              "internalType": "struct PluginReference",
              "name": "borrowerAccount",
              "type": "tuple"
            },
            {
              "components": [
                {
                  "internalType": "address",
                  "name": "addr",
                  "type": "address"
                },
                {
                  "internalType": "bytes",
                  "name": "parameters",
                  "type": "bytes"
                }
              ],
              "internalType": "struct PluginReference",
              "name": "assessor",
              "type": "tuple"
            },
            {
              "components": [
                {
                  "internalType": "address",
                  "name": "addr",
                  "type": "address"
                },
                {
                  "internalType": "bytes",
                  "name": "parameters",
                  "type": "bytes"
                }
              ],
              "internalType": "struct PluginReference",
              "name": "liquidator",
              "type": "tuple"
            },
            {
              "components": [
                {
                  "internalType": "address",
                  "name": "addr",
                  "type": "address"
                },
                {
                  "internalType": "bytes",
                  "name": "parameters",
                  "type": "bytes"
                }
              ],
              "internalType": "struct PluginReference",
              "name": "loanOracle",
              "type": "tuple"
            },
            {
              "components": [
                {
                  "internalType": "address",
                  "name": "addr",
                  "type": "address"
                },
                {
                  "internalType": "bytes",
                  "name": "parameters",
                  "type": "bytes"
                }
              ],
              "internalType": "struct PluginReference",
              "name": "collOracle",
              "type": "tuple"
            },
            {
              "internalType": "address",
              "name": "factory",
              "type": "address"
            },
            {
              "components": [
                {
                  "internalType": "address",
                  "name": "addr",
                  "type": "address"
                },
                {
                  "internalType": "bytes",
                  "name": "parameters",
                  "type": "bytes"
                }
              ],
              "internalType": "struct PluginReference",
              "name": "position",
              "type": "tuple"
            },
            {
              "internalType": "uint256",
              "name": "deploymentTime",
              "type": "uint256"
            },
            {
              "internalType": "bytes",
              "name": "fillerData",
              "type": "bytes"
            }
          ],
          "internalType": "struct Agreement",
          "name": "agreement",
          "type": "tuple"
        }
      ],
      "name": "open",
      "outputs": [],
      "stateMutability": "nonpayable",
      "type": "function"
    },
    {
      "inputs": [
        {
          "internalType": "address payable",
          "name": "destination",
          "type": "address"
        },
        {
          "internalType": "bytes",
          "name": "data",
          "type": "bytes"
        },
        {
          "internalType": "bool",
          "name": "delegateCall",
          "type": "bool"
        }
      ],
      "name": "passThrough",
      "outputs": [
        {
          "internalType": "bool",
          "name": "",
          "type": "bool"
        },
        {
          "internalType": "bytes",
          "name": "",
          "type": "bytes"
        }
      ],
      "stateMutability": "payable",
      "type": "function"
    },
    {
      "inputs": [
        {
          "internalType": "bytes32",
          "name": "role",
          "type": "bytes32"
        },
        {
          "internalType": "address",
          "name": "account",
          "type": "address"
        }
      ],
      "name": "renounceRole",
      "outputs": [],
      "stateMutability": "nonpayable",
      "type": "function"
    },
    {
      "inputs": [
        {
          "internalType": "bytes32",
          "name": "role",
          "type": "bytes32"
        },
        {
          "internalType": "address",
          "name": "account",
          "type": "address"
        }
      ],
      "name": "revokeRole",
      "outputs": [],
      "stateMutability": "nonpayable",
      "type": "function"
    },
    {
      "inputs": [
        {
          "internalType": "bytes4",
          "name": "interfaceId",
          "type": "bytes4"
        }
      ],
      "name": "supportsInterface",
      "outputs": [
        {
          "internalType": "bool",
          "name": "",
          "type": "bool"
        }
      ],
      "stateMutability": "view",
      "type": "function"
    },
    {
      "inputs": [
        {
          "internalType": "address",
          "name": "controller",
          "type": "address"
        }
      ],
      "name": "transferContract",
      "outputs": [],
      "stateMutability": "nonpayable",
      "type": "function"
    },
    {
      "inputs": [
        {
          "components": [
            {
              "internalType": "uint256",
              "name": "loanAmount",
              "type": "uint256"
            },
            {
              "internalType": "uint256",
              "name": "collAmount",
              "type": "uint256"
            },
            {
              "internalType": "bytes",
              "name": "loanAsset",
              "type": "bytes"
            },
            {
              "internalType": "bytes",
              "name": "collAsset",
              "type": "bytes"
            },
            {
              "internalType": "uint256",
              "name": "minCollateralRatio",
              "type": "uint256"
            },
            {
              "internalType": "uint256",
              "name": "maxDuration",
              "type": "uint256"
            },
            {
              "internalType": "bool",
              "name": "isLeverage",
              "type": "bool"
            },
            {
              "components": [
                {
                  "internalType": "address",
                  "name": "addr",
                  "type": "address"
                },
                {
                  "internalType": "bytes",
                  "name": "parameters",
                  "type": "bytes"
                }
              ],
              "internalType": "struct PluginReference",
              "name": "lenderAccount",
              "type": "tuple"
            },
            {
              "components": [
                {
                  "internalType": "address",
                  "name": "addr",
                  "type": "address"
                },
                {
                  "internalType": "bytes",
                  "name": "parameters",
                  "type": "bytes"
                }
              ],
              "internalType": "struct PluginReference",
              "name": "borrowerAccount",
              "type": "tuple"
            },
            {
              "components": [
                {
                  "internalType": "address",
                  "name": "addr",
                  "type": "address"
                },
                {
                  "internalType": "bytes",
                  "name": "parameters",
                  "type": "bytes"
                }
              ],
              "internalType": "struct PluginReference",
              "name": "assessor",
              "type": "tuple"
            },
            {
              "components": [
                {
                  "internalType": "address",
                  "name": "addr",
                  "type": "address"
                },
                {
                  "internalType": "bytes",
                  "name": "parameters",
                  "type": "bytes"
                }
              ],
              "internalType": "struct PluginReference",
              "name": "liquidator",
              "type": "tuple"
            },
            {
              "components": [
                {
                  "internalType": "address",
                  "name": "addr",
                  "type": "address"
                },
                {
                  "internalType": "bytes",
                  "name": "parameters",
                  "type": "bytes"
                }
              ],
              "internalType": "struct PluginReference",
              "name": "loanOracle",
              "type": "tuple"
            },
            {
              "components": [
                {
                  "internalType": "address",
                  "name": "addr",
                  "type": "address"
                },
                {
                  "internalType": "bytes",
                  "name": "parameters",
                  "type": "bytes"
                }
              ],
              "internalType": "struct PluginReference",
              "name": "collOracle",
              "type": "tuple"
            },
            {
              "internalType": "address",
              "name": "factory",
              "type": "address"
            },
            {
              "components": [
                {
                  "internalType": "address",
                  "name": "addr",
                  "type": "address"
                },
                {
                  "internalType": "bytes",
                  "name": "parameters",
                  "type": "bytes"
                }
              ],
              "internalType": "struct PluginReference",
              "name": "position",
              "type": "tuple"
            },
            {
              "internalType": "uint256",
              "name": "deploymentTime",
              "type": "uint256"
            },
            {
              "internalType": "bytes",
              "name": "fillerData",
              "type": "bytes"
            }
          ],
          "internalType": "struct Agreement",
          "name": "agreement",
          "type": "tuple"
        }
      ],
      "name": "unwind",
      "outputs": [],
      "stateMutability": "nonpayable",
      "type": "function"
    },
    {
      "stateMutability": "payable",
      "type": "receive"
    }
  ],
  "bytecode": "0x60c06040523480156200001157600080fd5b50604051620044f4380380620044f4833981810160405281019062000037919062000398565b808062000049620000ee60201b60201c565b8073ffffffffffffffffffffffffffffffffffffffff1660808173ffffffffffffffffffffffffffffffffffffffff16815250503073ffffffffffffffffffffffffffffffffffffffff1660a08173ffffffffffffffffffffffffffffffffffffffff1681525050620000e57f03c7040f8e5b938f657d4600d08b1b77f390141994844cbb34ff043f26ac6cd7608051620001b560201b60201c565b505050620004ae565b60018054906101000a900460ff16156200013f576040517f08c379a0000000000000000000000000000000000000000000000000000000008152600401620001369062000451565b60405180910390fd5b60ff8016600160009054906101000a900460ff1660ff1614620001b35760ff600160006101000a81548160ff021916908360ff1602179055507f7f26b83ff96e1f2b6a682f133852f6798a09c465da95921460cefb384740249860ff604051620001aa919062000491565b60405180910390a15b565b620001c78282620001cb60201b60201c565b5050565b620001dd8282620002bc60201b60201c565b620002b857600160008084815260200190815260200160002060000160008373ffffffffffffffffffffffffffffffffffffffff1673ffffffffffffffffffffffffffffffffffffffff16815260200190815260200160002060006101000a81548160ff0219169083151502179055506200025d6200032660201b60201c565b73ffffffffffffffffffffffffffffffffffffffff168173ffffffffffffffffffffffffffffffffffffffff16837f2f8788117e7eff1d82e926ec794901d17c78024a50270940304540a733656f0d60405160405180910390a45b5050565b600080600084815260200190815260200160002060000160008373ffffffffffffffffffffffffffffffffffffffff1673ffffffffffffffffffffffffffffffffffffffff16815260200190815260200160002060009054906101000a900460ff16905092915050565b600033905090565b600080fd5b600073ffffffffffffffffffffffffffffffffffffffff82169050919050565b6000620003608262000333565b9050919050565b620003728162000353565b81146200037e57600080fd5b50565b600081519050620003928162000367565b92915050565b600060208284031215620003b157620003b06200032e565b5b6000620003c18482850162000381565b91505092915050565b600082825260208201905092915050565b7f496e697469616c697a61626c653a20636f6e747261637420697320696e69746960008201527f616c697a696e6700000000000000000000000000000000000000000000000000602082015250565b600062000439602783620003ca565b91506200044682620003db565b604082019050919050565b600060208201905081810360008301526200046c816200042a565b9050919050565b600060ff82169050919050565b6200048b8162000473565b82525050565b6000602082019050620004a8600083018462000480565b92915050565b60805160a051613fda6200051a6000396000818161055401528181610646015281816106f00152818161091e01528181610aa201528181610b3001528181610c4701528181610c6b01528181610dac0152610f5a015260008181610bc50152610d840152613fda6000f3fe6080604052600436106101025760003560e01c80638129fc1c11610095578063a217fddf11610064578063a217fddf14610328578063a299292514610353578063b9fdc2a21461037e578063d547741f146103af578063edd9e4b5146103d857610109565b80638129fc1c146102805780638823151b146102975780638f9acff3146102c257806391d14854146102eb57610109565b806347635dac116100d157806347635dac146101da5780635aa564091461020357806364f2d4b91461022c5780636c3fc8311461025757610109565b806301ffc9a71461010e578063248a9ca31461014b5780632f2ff15d1461018857806336568abe146101b157610109565b3661010957005b600080fd5b34801561011a57600080fd5b50610135600480360381019061013091906124ba565b610415565b6040516101429190612502565b60405180910390f35b34801561015757600080fd5b50610172600480360381019061016d9190612553565b61048f565b60405161017f919061258f565b60405180910390f35b34801561019457600080fd5b506101af60048036038101906101aa9190612608565b6104ae565b005b3480156101bd57600080fd5b506101d860048036038101906101d39190612608565b6104cf565b005b3480156101e657600080fd5b5061020160048036038101906101fc9190612648565b610552565b005b34801561020f57600080fd5b5061022a6004803603810190610225919061269a565b610644565b005b34801561023857600080fd5b506102416106ec565b60405161024e91906126f2565b60405180910390f35b34801561026357600080fd5b5061027e60048036038101906102799190612743565b61091c565b005b34801561028c57600080fd5b506102956109c6565b005b3480156102a357600080fd5b506102ac610c45565b6040516102b991906126f2565b60405180910390f35b3480156102ce57600080fd5b506102e960048036038101906102e4919061269a565b610c69565b005b3480156102f757600080fd5b50610312600480360381019061030d9190612608565b610d11565b60405161031f9190612502565b60405180910390f35b34801561033457600080fd5b5061033d610d7b565b60405161034a919061258f565b60405180910390f35b34801561035f57600080fd5b50610368610d82565b60405161037591906126f2565b60405180910390f35b6103986004803603810190610393919061286e565b610da6565b6040516103a6929190612972565b60405180910390f35b3480156103bb57600080fd5b506103d660048036038101906103d19190612608565b610f35565b005b3480156103e457600080fd5b506103ff60048036038101906103fa9190612df0565b610f56565b60405161040c9190612e48565b60405180910390f35b60007f7965db0b000000000000000000000000000000000000000000000000000000007bffffffffffffffffffffffffffffffffffffffffffffffffffffffff1916827bffffffffffffffffffffffffffffffffffffffffffffffffffffffff19161480610488575061048782610ff6565b5b9050919050565b6000806000838152602001908152602001600020600101549050919050565b6104b78261048f565b6104c081611060565b6104ca8383611074565b505050565b6104d7611154565b73ffffffffffffffffffffffffffffffffffffffff168173ffffffffffffffffffffffffffffffffffffffff1614610544576040517f08c379a000000000000000000000000000000000000000000000000000000000815260040161053b90612ee6565b60405180910390fd5b61054e828261115c565b5050565b7f000000000000000000000000000000000000000000000000000000000000000073ffffffffffffffffffffffffffffffffffffffff163073ffffffffffffffffffffffffffffffffffffffff16036105e0576040517f08c379a00000000000000000000000000000000000000000000000000000000081526004016105d790612f52565b60405180910390fd5b6000801b6105ed81611060565b6105fa6000801b836104ae565b6106076000801b336104cf565b7fa06677f7b64342b4bcbde423684dbdb5356acfe41ad0285b6ecbe6dc4bf427f23383604051610638929190612f72565b60405180910390a15050565b7f000000000000000000000000000000000000000000000000000000000000000073ffffffffffffffffffffffffffffffffffffffff163073ffffffffffffffffffffffffffffffffffffffff16036106d2576040517f08c379a00000000000000000000000000000000000000000000000000000000081526004016106c990612f52565b60405180910390fd5b6000801b6106df81611060565b6106e88261123d565b5050565b60007f000000000000000000000000000000000000000000000000000000000000000073ffffffffffffffffffffffffffffffffffffffff163073ffffffffffffffffffffffffffffffffffffffff161461077c576040517f08c379a000000000000000000000000000000000000000000000000000000000815260040161077390612fe7565b60405180910390fd5b7f03c7040f8e5b938f657d4600d08b1b77f390141994844cbb34ff043f26ac6cd76107a681611060565b6107af3061151c565b915060008273ffffffffffffffffffffffffffffffffffffffff166040516024016040516020818303038152906040527f8129fc1c000000000000000000000000000000000000000000000000000000007bffffffffffffffffffffffffffffffffffffffffffffffffffffffff19166020820180517bffffffffffffffffffffffffffffffffffffffffffffffffffffffff838183161783525050505060405161085a9190613043565b6000604051808303816000865af19150503d8060008114610897576040519150601f19603f3d011682016040523d82523d6000602084013e61089c565b606091505b50509050806108e0576040517f08c379a00000000000000000000000000000000000000000000000000000000081526004016108d7906130a6565b60405180910390fd5b7fbe2f3d28fdeb5839123d65fd47ec2f5915c715d2b527b9e229123706fdecfc858360405161090f91906126f2565b60405180910390a1505090565b7f000000000000000000000000000000000000000000000000000000000000000073ffffffffffffffffffffffffffffffffffffffff163073ffffffffffffffffffffffffffffffffffffffff16036109aa576040517f08c379a00000000000000000000000000000000000000000000000000000000081526004016109a190612f52565b60405180910390fd5b6000801b6109b781611060565b6109c183836115d6565b505050565b600060018054906101000a900460ff161590508080156109f7575060018060009054906101000a900460ff1660ff16105b80610a255750610a0630611c1b565b158015610a24575060018060009054906101000a900460ff1660ff16145b5b610a64576040517f08c379a0000000000000000000000000000000000000000000000000000000008152600401610a5b90613138565b60405180910390fd5b60018060006101000a81548160ff021916908360ff1602179055508015610aa05760018060016101000a81548160ff0219169083151502179055505b7f000000000000000000000000000000000000000000000000000000000000000073ffffffffffffffffffffffffffffffffffffffff163073ffffffffffffffffffffffffffffffffffffffff1603610b2e576040517f08c379a0000000000000000000000000000000000000000000000000000000008152600401610b2590612f52565b60405180910390fd5b7f000000000000000000000000000000000000000000000000000000000000000073ffffffffffffffffffffffffffffffffffffffff163373ffffffffffffffffffffffffffffffffffffffff1614610bbc576040517f08c379a0000000000000000000000000000000000000000000000000000000008152600401610bb3906131a4565b60405180910390fd5b610be96000801b7f0000000000000000000000000000000000000000000000000000000000000000611c3e565b8015610c425760006001806101000a81548160ff0219169083151502179055507f7f26b83ff96e1f2b6a682f133852f6798a09c465da95921460cefb38474024986001604051610c399190613216565b60405180910390a15b50565b7f000000000000000000000000000000000000000000000000000000000000000081565b7f000000000000000000000000000000000000000000000000000000000000000073ffffffffffffffffffffffffffffffffffffffff163073ffffffffffffffffffffffffffffffffffffffff1603610cf7576040517f08c379a0000000000000000000000000000000000000000000000000000000008152600401610cee90612f52565b60405180910390fd5b6000801b610d0481611060565b610d0d82611c4c565b5050565b600080600084815260200190815260200160002060000160008373ffffffffffffffffffffffffffffffffffffffff1673ffffffffffffffffffffffffffffffffffffffff16815260200190815260200160002060009054906101000a900460ff16905092915050565b6000801b81565b7f000000000000000000000000000000000000000000000000000000000000000081565b600060607f000000000000000000000000000000000000000000000000000000000000000073ffffffffffffffffffffffffffffffffffffffff163073ffffffffffffffffffffffffffffffffffffffff1603610e38576040517f08c379a0000000000000000000000000000000000000000000000000000000008152600401610e2f90612f52565b60405180910390fd5b6000801b610e4581611060565b83610ebe578673ffffffffffffffffffffffffffffffffffffffff16348787604051610e72929190613256565b60006040518083038185875af1925050503d8060008114610eaf576040519150601f19603f3d011682016040523d82523d6000602084013e610eb4565b606091505b5092509250610f2b565b8673ffffffffffffffffffffffffffffffffffffffff168686604051610ee5929190613256565b600060405180830381855af49150503d8060008114610f20576040519150601f19603f3d011682016040523d82523d6000602084013e610f25565b606091505b50925092505b5094509492505050565b610f3e8261048f565b610f4781611060565b610f51838361115c565b505050565b60007f000000000000000000000000000000000000000000000000000000000000000073ffffffffffffffffffffffffffffffffffffffff163073ffffffffffffffffffffffffffffffffffffffff1603610fe6576040517f08c379a0000000000000000000000000000000000000000000000000000000008152600401610fdd90612f52565b60405180910390fd5b610fef82611c4f565b9050919050565b60007f01ffc9a7000000000000000000000000000000000000000000000000000000007bffffffffffffffffffffffffffffffffffffffffffffffffffffffff1916827bffffffffffffffffffffffffffffffffffffffffffffffffffffffff1916149050919050565b6110718161106c611154565b612160565b50565b61107e8282610d11565b61115057600160008084815260200190815260200160002060000160008373ffffffffffffffffffffffffffffffffffffffff1673ffffffffffffffffffffffffffffffffffffffff16815260200190815260200160002060006101000a81548160ff0219169083151502179055506110f5611154565b73ffffffffffffffffffffffffffffffffffffffff168173ffffffffffffffffffffffffffffffffffffffff16837f2f8788117e7eff1d82e926ec794901d17c78024a50270940304540a733656f0d60405160405180910390a45b5050565b600033905090565b6111668282610d11565b1561123957600080600084815260200190815260200160002060000160008373ffffffffffffffffffffffffffffffffffffffff1673ffffffffffffffffffffffffffffffffffffffff16815260200190815260200160002060006101000a81548160ff0219169083151502179055506111de611154565b73ffffffffffffffffffffffffffffffffffffffff168173ffffffffffffffffffffffffffffffffffffffff16837ff6391f5c32d9c69d2a47ea670b442974b53935d1edc7fd64eb21e047a839171b60405160405180910390a45b5050565b600081806101000190611250919061327e565b806020019061125f91906132a6565b81019061126c9190613359565b9050600082806040019061128091906132a6565b81019061128d919061345a565b90506000838061020001906112a291906132a6565b8101906112af91906134df565b90506002826000015160ff1614806112ce57506003826000015160ff16145b80156112de575060008260600151145b156112f25780600001518260600181815250505b6000670de0b6b3a76400008360400151600a61130e919061366e565b866000013561131d91906136b9565b611327919061372a565b90506001836000015160ff16036113b05773__$0dbc1134add5307a68154fc29708de467d$__63d4e3bdb684602001518660000151846040518463ffffffff1660e01b815260040161137b93929190613779565b60006040518083038186803b15801561139357600080fd5b505af41580156113a7573d6000803e3d6000fd5b50505050611515565b6002836000015160ff16036114435773__$0dbc1134add5307a68154fc29708de467d$__63db25adcc8460200151308760000151876060015188608001516040518663ffffffff1660e01b815260040161140e9594939291906137fa565b60006040518083038186803b15801561142657600080fd5b505af415801561143a573d6000803e3d6000fd5b50505050611514565b6003836000015160ff16036114d85773__$0dbc1134add5307a68154fc29708de467d$__63ffc87727846020015130876000015187606001518689608001516040518763ffffffff1660e01b81526004016114a396959493929190613854565b60006040518083038186803b1580156114bb57600080fd5b505af41580156114cf573d6000803e3d6000fd5b50505050611513565b6040517f08c379a000000000000000000000000000000000000000000000000000000000815260040161150a90613908565b60405180910390fd5b5b5b5050505050565b6000763d602d80600a3d3981f3363d3d373d3d3d363d730000008260601b60e81c176000526e5af43d82803e903d91602b57fd5bf38260781b17602052603760096000f09050600073ffffffffffffffffffffffffffffffffffffffff168173ffffffffffffffffffffffffffffffffffffffff16036115d1576040517f08c379a00000000000000000000000000000000000000000000000000000000081526004016115c890613974565b60405180910390fd5b919050565b6000828061010001906115e9919061327e565b80602001906115f891906132a6565b8101906116059190613359565b905060008380610200019061161a91906132a6565b81019061162791906134df565b9050600084806040019061163b91906132a6565b810190611648919061345a565b90506002816000015160ff16148061166757506003816000015160ff16145b8015611677575060008160600151145b1561168b5781600001518160600181815250505b600085806060019061169d91906132a6565b8101906116aa919061345a565b90506002816000015160ff1614806116c957506003816000015160ff16145b80156116d9575060008160600151145b156116ed5782600001518160600181815250505b6001826000015160ff16036117a557816020015173ffffffffffffffffffffffffffffffffffffffff1663095ea7b3878060e0019061172c919061327e565b600001602081019061173e9190612648565b876040518363ffffffff1660e01b815260040161175c929190613994565b6020604051808303816000875af115801561177b573d6000803e3d6000fd5b505050506040513d601f19601f8201168201806040525081019061179f91906139d2565b50611930565b6002816000015160ff160361184c57806020015173ffffffffffffffffffffffffffffffffffffffff1663a22cb465878060e001906117e4919061327e565b60000160208101906117f69190612648565b60016040518363ffffffff1660e01b81526004016118159291906139ff565b600060405180830381600087803b15801561182f57600080fd5b505af1158015611843573d6000803e3d6000fd5b5050505061192f565b6003816000015160ff16036118f357806020015173ffffffffffffffffffffffffffffffffffffffff1663a22cb465878060e0019061188b919061327e565b600001602081019061189d9190612648565b60016040518363ffffffff1660e01b81526004016118bc9291906139ff565b600060405180830381600087803b1580156118d657600080fd5b505af11580156118ea573d6000803e3d6000fd5b5050505061192e565b6040517f08c379a000000000000000000000000000000000000000000000000000000000815260040161192590613908565b60405180910390fd5b5b5b858060e00190611940919061327e565b60000160208101906119529190612648565b73ffffffffffffffffffffffffffffffffffffffff166306b1c4c987806040019061197d91906132a6565b888a8060e0019061198e919061327e565b806020019061199d91906132a6565b6040518663ffffffff1660e01b81526004016119bd959493929190613a55565b600060405180830381600087803b1580156119d757600080fd5b505af11580156119eb573d6000803e3d6000fd5b505050506000670de0b6b3a76400008260400151600a611a0b919061366e565b8860200135611a1a91906136b9565b611a24919061372a565b90506001826000015160ff1603611aad5773__$0dbc1134add5307a68154fc29708de467d$__63d4e3bdb683602001518760000151846040518463ffffffff1660e01b8152600401611a7893929190613779565b60006040518083038186803b158015611a9057600080fd5b505af4158015611aa4573d6000803e3d6000fd5b50505050611c12565b6002826000015160ff1603611b405773__$0dbc1134add5307a68154fc29708de467d$__63db25adcc8360200151308860000151866060015187608001516040518663ffffffff1660e01b8152600401611b0b9594939291906137fa565b60006040518083038186803b158015611b2357600080fd5b505af4158015611b37573d6000803e3d6000fd5b50505050611c11565b6003826000015160ff1603611bd55773__$0dbc1134add5307a68154fc29708de467d$__63ffc87727836020015130886000015186606001518688608001516040518763ffffffff1660e01b8152600401611ba096959493929190613854565b60006040518083038186803b158015611bb857600080fd5b505af4158015611bcc573d6000803e3d6000fd5b50505050611c10565b6040517f08c379a0000000000000000000000000000000000000000000000000000000008152600401611c0790613908565b60405180910390fd5b5b5b50505050505050565b6000808273ffffffffffffffffffffffffffffffffffffffff163b119050919050565b611c488282611074565b5050565b50565b6000808260600151806020019051810190611c6a9190613bf5565b90506000836102000151806020019051810190611c879190613c7a565b90506002826000015160ff161480611ca657506003826000015160ff16145b8015611cb6575060008260600151145b15611cca5780600001518260600181815250505b60008260200151905060008360400151905060006001856000015160ff1603611e2a5760008373ffffffffffffffffffffffffffffffffffffffff166370a08231306040518263ffffffff1660e01b8152600401611d2891906126f2565b602060405180830381865afa158015611d45573d6000803e3d6000fd5b505050506040513d601f19601f82011682018060405250810190611d699190613ca7565b905082600a611d78919061366e565b8861018001516000015173ffffffffffffffffffffffffffffffffffffffff1663f09f40798a6101800151602001518b61020001516040518363ffffffff1660e01b8152600401611dca929190613cd4565b6020604051808303816000875af1158015611de9573d6000803e3d6000fd5b505050506040513d601f19601f82011682018060405250810190611e0d9190613ca7565b82611e1891906136b9565b611e22919061372a565b915050612153565b6002856000015160ff1603611fc157600080866020015173ffffffffffffffffffffffffffffffffffffffff16636352211e88606001516040518263ffffffff1660e01b8152600401611e7d9190612e48565b602060405180830381865afa158015611e9a573d6000803e3d6000fd5b505050506040513d601f19601f82011682018060405250810190611ebe9190613d0b565b90503073ffffffffffffffffffffffffffffffffffffffff168173ffffffffffffffffffffffffffffffffffffffff1603611efc5760019150611f01565b600091505b83600a611f0e919061366e565b8961018001516000015173ffffffffffffffffffffffffffffffffffffffff1663f09f40798b6101800151602001518c61020001516040518363ffffffff1660e01b8152600401611f60929190613cd4565b6020604051808303816000875af1158015611f7f573d6000803e3d6000fd5b505050506040513d601f19601f82011682018060405250810190611fa39190613ca7565b83611fae91906136b9565b611fb8919061372a565b92505050612152565b6003856000015160ff1603612116576000856020015173ffffffffffffffffffffffffffffffffffffffff1662fdd58e3088606001516040518363ffffffff1660e01b8152600401612014929190613994565b602060405180830381865afa158015612031573d6000803e3d6000fd5b505050506040513d601f19601f820116820180604052508101906120559190613ca7565b905082600a612064919061366e565b8861018001516000015173ffffffffffffffffffffffffffffffffffffffff1663f09f40798a6101800151602001518b61020001516040518363ffffffff1660e01b81526004016120b6929190613cd4565b6020604051808303816000875af11580156120d5573d6000803e3d6000fd5b505050506040513d601f19601f820116820180604052508101906120f99190613ca7565b8261210491906136b9565b61210e919061372a565b915050612151565b6040517f08c379a000000000000000000000000000000000000000000000000000000000815260040161214890613908565b60405180910390fd5b5b5b8095505050505050919050565b61216a8282610d11565b6121e157612177816121e5565b6121858360001c6020612212565b604051602001612196929190613e17565b6040516020818303038152906040526040517f08c379a00000000000000000000000000000000000000000000000000000000081526004016121d89190613e8a565b60405180910390fd5b5050565b606061220b8273ffffffffffffffffffffffffffffffffffffffff16601460ff16612212565b9050919050565b60606000600283600261222591906136b9565b61222f9190613eac565b67ffffffffffffffff811115612248576122476129a7565b5b6040519080825280601f01601f19166020018201604052801561227a5781602001600182028036833780820191505090505b5090507f3000000000000000000000000000000000000000000000000000000000000000816000815181106122b2576122b1613ee0565b5b60200101907effffffffffffffffffffffffffffffffffffffffffffffffffffffffffffff1916908160001a9053507f78000000000000000000000000000000000000000000000000000000000000008160018151811061231657612315613ee0565b5b60200101907effffffffffffffffffffffffffffffffffffffffffffffffffffffffffffff1916908160001a9053506000600184600261235691906136b9565b6123609190613eac565b90505b6001811115612400577f3031323334353637383961626364656600000000000000000000000000000000600f8616601081106123a2576123a1613ee0565b5b1a60f81b8282815181106123b9576123b8613ee0565b5b60200101907effffffffffffffffffffffffffffffffffffffffffffffffffffffffffffff1916908160001a905350600485901c9450806123f990613f0f565b9050612363565b5060008414612444576040517f08c379a000000000000000000000000000000000000000000000000000000000815260040161243b90613f84565b60405180910390fd5b8091505092915050565b6000604051905090565b600080fd5b600080fd5b60007fffffffff0000000000000000000000000000000000000000000000000000000082169050919050565b61249781612462565b81146124a257600080fd5b50565b6000813590506124b48161248e565b92915050565b6000602082840312156124d0576124cf612458565b5b60006124de848285016124a5565b91505092915050565b60008115159050919050565b6124fc816124e7565b82525050565b600060208201905061251760008301846124f3565b92915050565b6000819050919050565b6125308161251d565b811461253b57600080fd5b50565b60008135905061254d81612527565b92915050565b60006020828403121561256957612568612458565b5b60006125778482850161253e565b91505092915050565b6125898161251d565b82525050565b60006020820190506125a46000830184612580565b92915050565b600073ffffffffffffffffffffffffffffffffffffffff82169050919050565b60006125d5826125aa565b9050919050565b6125e5816125ca565b81146125f057600080fd5b50565b600081359050612602816125dc565b92915050565b6000806040838503121561261f5761261e612458565b5b600061262d8582860161253e565b925050602061263e858286016125f3565b9150509250929050565b60006020828403121561265e5761265d612458565b5b600061266c848285016125f3565b91505092915050565b600080fd5b6000610220828403121561269157612690612675565b5b81905092915050565b6000602082840312156126b0576126af612458565b5b600082013567ffffffffffffffff8111156126ce576126cd61245d565b5b6126da8482850161267a565b91505092915050565b6126ec816125ca565b82525050565b600060208201905061270760008301846126e3565b92915050565b6000819050919050565b6127208161270d565b811461272b57600080fd5b50565b60008135905061273d81612717565b92915050565b6000806040838503121561275a57612759612458565b5b600083013567ffffffffffffffff8111156127785761277761245d565b5b6127848582860161267a565b92505060206127958582860161272e565b9150509250929050565b60006127aa826125aa565b9050919050565b6127ba8161279f565b81146127c557600080fd5b50565b6000813590506127d7816127b1565b92915050565b600080fd5b600080fd5b600080fd5b60008083601f840112612802576128016127dd565b5b8235905067ffffffffffffffff81111561281f5761281e6127e2565b5b60208301915083600182028301111561283b5761283a6127e7565b5b9250929050565b61284b816124e7565b811461285657600080fd5b50565b60008135905061286881612842565b92915050565b6000806000806060858703121561288857612887612458565b5b6000612896878288016127c8565b945050602085013567ffffffffffffffff8111156128b7576128b661245d565b5b6128c3878288016127ec565b935093505060406128d687828801612859565b91505092959194509250565b600081519050919050565b600082825260208201905092915050565b60005b8381101561291c578082015181840152602081019050612901565b60008484015250505050565b6000601f19601f8301169050919050565b6000612944826128e2565b61294e81856128ed565b935061295e8185602086016128fe565b61296781612928565b840191505092915050565b600060408201905061298760008301856124f3565b81810360208301526129998184612939565b90509392505050565b600080fd5b7f4e487b7100000000000000000000000000000000000000000000000000000000600052604160045260246000fd5b6129df82612928565b810181811067ffffffffffffffff821117156129fe576129fd6129a7565b5b80604052505050565b6000612a1161244e565b9050612a1d82826129d6565b919050565b600080fd5b600080fd5b600067ffffffffffffffff821115612a4757612a466129a7565b5b612a5082612928565b9050602081019050919050565b82818337600083830152505050565b6000612a7f612a7a84612a2c565b612a07565b905082815260208101848484011115612a9b57612a9a612a27565b5b612aa6848285612a5d565b509392505050565b600082601f830112612ac357612ac26127dd565b5b8135612ad3848260208601612a6c565b91505092915050565b600060408284031215612af257612af16129a2565b5b612afc6040612a07565b90506000612b0c848285016125f3565b600083015250602082013567ffffffffffffffff811115612b3057612b2f612a22565b5b612b3c84828501612aae565b60208301525092915050565b60006102208284031215612b5f57612b5e6129a2565b5b612b6a610220612a07565b90506000612b7a8482850161272e565b6000830152506020612b8e8482850161272e565b602083015250604082013567ffffffffffffffff811115612bb257612bb1612a22565b5b612bbe84828501612aae565b604083015250606082013567ffffffffffffffff811115612be257612be1612a22565b5b612bee84828501612aae565b6060830152506080612c028482850161272e565b60808301525060a0612c168482850161272e565b60a08301525060c0612c2a84828501612859565b60c08301525060e082013567ffffffffffffffff811115612c4e57612c4d612a22565b5b612c5a84828501612adc565b60e08301525061010082013567ffffffffffffffff811115612c7f57612c7e612a22565b5b612c8b84828501612adc565b6101008301525061012082013567ffffffffffffffff811115612cb157612cb0612a22565b5b612cbd84828501612adc565b6101208301525061014082013567ffffffffffffffff811115612ce357612ce2612a22565b5b612cef84828501612adc565b6101408301525061016082013567ffffffffffffffff811115612d1557612d14612a22565b5b612d2184828501612adc565b6101608301525061018082013567ffffffffffffffff811115612d4757612d46612a22565b5b612d5384828501612adc565b610180830152506101a0612d69848285016125f3565b6101a0830152506101c082013567ffffffffffffffff811115612d8f57612d8e612a22565b5b612d9b84828501612adc565b6101c0830152506101e0612db18482850161272e565b6101e08301525061020082013567ffffffffffffffff811115612dd757612dd6612a22565b5b612de384828501612aae565b6102008301525092915050565b600060208284031215612e0657612e05612458565b5b600082013567ffffffffffffffff811115612e2457612e2361245d565b5b612e3084828501612b48565b91505092915050565b612e428161270d565b82525050565b6000602082019050612e5d6000830184612e39565b92915050565b600082825260208201905092915050565b7f416363657373436f6e74726f6c3a2063616e206f6e6c792072656e6f756e636560008201527f20726f6c657320666f722073656c660000000000000000000000000000000000602082015250565b6000612ed0602f83612e63565b9150612edb82612e74565b604082019050919050565b60006020820190508181036000830152612eff81612ec3565b9050919050565b7f65786563206e6f7420616c6c6f77656420696e20696d706c0000000000000000600082015250565b6000612f3c601883612e63565b9150612f4782612f06565b602082019050919050565b60006020820190508181036000830152612f6b81612f2f565b9050919050565b6000604082019050612f8760008301856126e3565b612f9460208301846126e3565b9392505050565b7f65786563206e6f7420616c6c6f77656420696e2070726f787900000000000000600082015250565b6000612fd1601983612e63565b9150612fdc82612f9b565b602082019050919050565b6000602082019050818103600083015261300081612fc4565b9050919050565b600081905092915050565b600061301d826128e2565b6130278185613007565b93506130378185602086016128fe565b80840191505092915050565b600061304f8284613012565b915081905092915050565b7f637265617465436c6f6e653a20696e697469616c697a65206661696c00000000600082015250565b6000613090601c83612e63565b915061309b8261305a565b602082019050919050565b600060208201905081810360008301526130bf81613083565b9050919050565b7f496e697469616c697a61626c653a20636f6e747261637420697320616c72656160008201527f647920696e697469616c697a6564000000000000000000000000000000000000602082015250565b6000613122602e83612e63565b915061312d826130c6565b604082019050919050565b6000602082019050818103600083015261315181613115565b9050919050565b7f73656e64657220213d20696d706c20636f6e7472616374000000000000000000600082015250565b600061318e601783612e63565b915061319982613158565b602082019050919050565b600060208201905081810360008301526131bd81613181565b9050919050565b6000819050919050565b600060ff82169050919050565b6000819050919050565b60006132006131fb6131f6846131c4565b6131db565b6131ce565b9050919050565b613210816131e5565b82525050565b600060208201905061322b6000830184613207565b92915050565b600061323d8385613007565b935061324a838584612a5d565b82840190509392505050565b6000613263828486613231565b91508190509392505050565b600080fd5b600080fd5b600080fd5b60008235600160400383360303811261329a5761329961326f565b5b80830191505092915050565b600080833560016020038436030381126132c3576132c261326f565b5b80840192508235915067ffffffffffffffff8211156132e5576132e4613274565b5b60208301925060018202360383131561330157613300613279565b5b509250929050565b60006040828403121561331f5761331e6129a2565b5b6133296040612a07565b90506000613339848285016125f3565b600083015250602061334d8482850161253e565b60208301525092915050565b60006040828403121561336f5761336e612458565b5b600061337d84828501613309565b91505092915050565b61338f816131ce565b811461339a57600080fd5b50565b6000813590506133ac81613386565b92915050565b600060a082840312156133c8576133c76129a2565b5b6133d260a0612a07565b905060006133e28482850161339d565b60008301525060206133f6848285016125f3565b602083015250604061340a8482850161339d565b604083015250606061341e8482850161272e565b606083015250608082013567ffffffffffffffff81111561344257613441612a22565b5b61344e84828501612aae565b60808301525092915050565b6000602082840312156134705761346f612458565b5b600082013567ffffffffffffffff81111561348e5761348d61245d565b5b61349a848285016133b2565b91505092915050565b6000602082840312156134b9576134b86129a2565b5b6134c36020612a07565b905060006134d38482850161272e565b60008301525092915050565b6000602082840312156134f5576134f4612458565b5b6000613503848285016134a3565b91505092915050565b7f4e487b7100000000000000000000000000000000000000000000000000000000600052601160045260246000fd5b60008160011c9050919050565b6000808291508390505b60018511156135925780860481111561356e5761356d61350c565b5b600185161561357d5780820291505b808102905061358b8561353b565b9450613552565b94509492505050565b6000826135ab5760019050613667565b816135b95760009050613667565b81600181146135cf57600281146135d957613608565b6001915050613667565b60ff8411156135eb576135ea61350c565b5b8360020a9150848211156136025761360161350c565b5b50613667565b5060208310610133831016604e8410600b841016171561363d5782820a9050838111156136385761363761350c565b5b613667565b61364a8484846001613548565b925090508184048111156136615761366061350c565b5b81810290505b9392505050565b60006136798261270d565b9150613684836131ce565b92506136b17fffffffffffffffffffffffffffffffffffffffffffffffffffffffffffffffff848461359b565b905092915050565b60006136c48261270d565b91506136cf8361270d565b92508282026136dd8161270d565b915082820484148315176136f4576136f361350c565b5b5092915050565b7f4e487b7100000000000000000000000000000000000000000000000000000000600052601260045260246000fd5b60006137358261270d565b91506137408361270d565b9250826137505761374f6136fb565b5b828204905092915050565b613764816125ca565b82525050565b6137738161270d565b82525050565b600060608201905061378e600083018661375b565b61379b602083018561375b565b6137a8604083018461376a565b949350505050565b600082825260208201905092915050565b60006137cc826128e2565b6137d681856137b0565b93506137e68185602086016128fe565b6137ef81612928565b840191505092915050565b600060a08201905061380f600083018861375b565b61381c602083018761375b565b613829604083018661375b565b613836606083018561376a565b818103608083015261384881846137c1565b90509695505050505050565b600060c082019050613869600083018961375b565b613876602083018861375b565b613883604083018761375b565b613890606083018661376a565b61389d608083018561376a565b81810360a08301526138af81846137c1565b9050979650505050505050565b7f556e737570706f72746564206173736574207374616e64617264000000000000600082015250565b60006138f2601a83612e63565b91506138fd826138bc565b602082019050919050565b60006020820190508181036000830152613921816138e5565b9050919050565b7f455243313136373a20637265617465206661696c656400000000000000000000600082015250565b600061395e601683612e63565b915061396982613928565b602082019050919050565b6000602082019050818103600083015261398d81613951565b9050919050565b60006040820190506139a960008301856126e3565b6139b66020830184612e39565b9392505050565b6000815190506139cc81612842565b92915050565b6000602082840312156139e8576139e7612458565b5b60006139f6848285016139bd565b91505092915050565b6000604082019050613a1460008301856126e3565b613a2160208301846124f3565b9392505050565b6000613a3483856128ed565b9350613a41838584612a5d565b613a4a83612928565b840190509392505050565b60006060820190508181036000830152613a70818789613a28565b9050613a7f6020830186612e39565b8181036040830152613a92818486613a28565b90509695505050505050565b600081519050613aad81613386565b92915050565b600081519050613ac2816125dc565b92915050565b600081519050613ad781612717565b92915050565b6000613af0613aeb84612a2c565b612a07565b905082815260208101848484011115613b0c57613b0b612a27565b5b613b178482856128fe565b509392505050565b600082601f830112613b3457613b336127dd565b5b8151613b44848260208601613add565b91505092915050565b600060a08284031215613b6357613b626129a2565b5b613b6d60a0612a07565b90506000613b7d84828501613a9e565b6000830152506020613b9184828501613ab3565b6020830152506040613ba584828501613a9e565b6040830152506060613bb984828501613ac8565b606083015250608082015167ffffffffffffffff811115613bdd57613bdc612a22565b5b613be984828501613b1f565b60808301525092915050565b600060208284031215613c0b57613c0a612458565b5b600082015167ffffffffffffffff811115613c2957613c2861245d565b5b613c3584828501613b4d565b91505092915050565b600060208284031215613c5457613c536129a2565b5b613c5e6020612a07565b90506000613c6e84828501613ac8565b60008301525092915050565b600060208284031215613c9057613c8f612458565b5b6000613c9e84828501613c3e565b91505092915050565b600060208284031215613cbd57613cbc612458565b5b6000613ccb84828501613ac8565b91505092915050565b60006040820190508181036000830152613cee8185612939565b90508181036020830152613d028184612939565b90509392505050565b600060208284031215613d2157613d20612458565b5b6000613d2f84828501613ab3565b91505092915050565b600081905092915050565b7f416363657373436f6e74726f6c3a206163636f756e7420000000000000000000600082015250565b6000613d79601783613d38565b9150613d8482613d43565b601782019050919050565b600081519050919050565b6000613da582613d8f565b613daf8185613d38565b9350613dbf8185602086016128fe565b80840191505092915050565b7f206973206d697373696e6720726f6c6520000000000000000000000000000000600082015250565b6000613e01601183613d38565b9150613e0c82613dcb565b601182019050919050565b6000613e2282613d6c565b9150613e2e8285613d9a565b9150613e3982613df4565b9150613e458284613d9a565b91508190509392505050565b6000613e5c82613d8f565b613e668185612e63565b9350613e768185602086016128fe565b613e7f81612928565b840191505092915050565b60006020820190508181036000830152613ea48184613e51565b905092915050565b6000613eb78261270d565b9150613ec28361270d565b9250828201905080821115613eda57613ed961350c565b5b92915050565b7f4e487b7100000000000000000000000000000000000000000000000000000000600052603260045260246000fd5b6000613f1a8261270d565b915060008203613f2d57613f2c61350c565b5b600182039050919050565b7f537472696e67733a20686578206c656e67746820696e73756666696369656e74600082015250565b6000613f6e602083612e63565b9150613f7982613f38565b602082019050919050565b60006020820190508181036000830152613f9d81613f61565b905091905056fea2646970667358221220e284424729b6cb08e98a13f15b3b0f7ababcc21f6d569431427532ef92c165f364736f6c63430008130033",
  "linkReferences": {
    "src/libraries/LibUtilsPublic.sol": {
      "LibUtilsPublic": [
        {
          "length": 20,
          "start": 6228
        },
        {
          "length": 20,
          "start": 6363
        },
        {
          "length": 20,
          "start": 6510
        },
        {
          "length": 20,
          "start": 8017
        },
        {
          "length": 20,
          "start": 8152
        },
        {
          "length": 20,
          "start": 8299
        }
      ]
    }
  },
  "deployedLinkReferences": {
    "src/libraries/LibUtilsPublic.sol": {
      "LibUtilsPublic": [
        {
          "length": 20,
          "start": 4922
        },
        {
          "length": 20,
          "start": 5057
        },
        {
          "length": 20,
          "start": 5204
        },
        {
          "length": 20,
          "start": 6711
        },
        {
          "length": 20,
          "start": 6846
        },
        {
          "length": 20,
          "start": 6993
        }
      ]
    }
  }
}