{
  "_format": "hh-sol-artifact-1",
  "contractName": "WalletFactory",
  "sourceName": "src/plugins/position/implementations/Wallet.sol",
  "abi": [
    {
      "inputs": [
        {
          "internalType": "address",
          "name": "protocolAddr",
          "type": "address"
        }
      ],
      "stateMutability": "nonpayable",
      "type": "constructor"
    },
    {
      "anonymous": false,
      "inputs": [
        {
          "indexed": false,
          "internalType": "address",
          "name": "clone",
          "type": "address"
        }
      ],
      "name": "CloneCreated",
      "type": "event"
    },
    {
      "anonymous": false,
      "inputs": [
        {
          "indexed": false,
          "internalType": "address",
          "name": "previousController",
          "type": "address"
        },
        {
          "indexed": false,
          "internalType": "address",
          "name": "newController",
          "type": "address"
        }
      ],
      "name": "ControlTransferred",
      "type": "event"
    },
    {
      "anonymous": false,
      "inputs": [
        {
          "indexed": false,
          "internalType": "uint8",
          "name": "version",
          "type": "uint8"
        }
      ],
      "name": "Initialized",
      "type": "event"
    },
    {
      "anonymous": false,
      "inputs": [
        {
          "indexed": true,
          "internalType": "bytes32",
          "name": "role",
          "type": "bytes32"
        },
        {
          "indexed": true,
          "internalType": "bytes32",
          "name": "previousAdminRole",
          "type": "bytes32"
        },
        {
          "indexed": true,
          "internalType": "bytes32",
          "name": "newAdminRole",
          "type": "bytes32"
        }
      ],
      "name": "RoleAdminChanged",
      "type": "event"
    },
    {
      "anonymous": false,
      "inputs": [
        {
          "indexed": true,
          "internalType": "bytes32",
          "name": "role",
          "type": "bytes32"
        },
        {
          "indexed": true,
          "internalType": "address",
          "name": "account",
          "type": "address"
        },
        {
          "indexed": true,
          "internalType": "address",
          "name": "sender",
          "type": "address"
        }
      ],
      "name": "RoleGranted",
      "type": "event"
    },
    {
      "anonymous": false,
      "inputs": [
        {
          "indexed": true,
          "internalType": "bytes32",
          "name": "role",
          "type": "bytes32"
        },
        {
          "indexed": true,
          "internalType": "address",
          "name": "account",
          "type": "address"
        },
        {
          "indexed": true,
          "internalType": "address",
          "name": "sender",
          "type": "address"
        }
      ],
      "name": "RoleRevoked",
      "type": "event"
    },
    {
      "inputs": [],
      "name": "BOOKKEEPER_ADDRESS",
      "outputs": [
        {
          "internalType": "address",
          "name": "",
          "type": "address"
        }
      ],
      "stateMutability": "view",
      "type": "function"
    },
    {
      "inputs": [],
      "name": "DEFAULT_ADMIN_ROLE",
      "outputs": [
        {
          "internalType": "bytes32",
          "name": "",
          "type": "bytes32"
        }
      ],
      "stateMutability": "view",
      "type": "function"
    },
    {
      "inputs": [],
      "name": "FACTORY_ADDRESS",
      "outputs": [
        {
          "internalType": "address",
          "name": "",
          "type": "address"
        }
      ],
      "stateMutability": "view",
      "type": "function"
    },
    {
      "inputs": [
        {
          "components": [
            {
              "internalType": "uint256",
              "name": "loanAmount",
              "type": "uint256"
            },
            {
              "internalType": "uint256",
              "name": "collAmount",
              "type": "uint256"
            },
            {
              "internalType": "bytes",
              "name": "loanAsset",
              "type": "bytes"
            },
            {
              "internalType": "bytes",
              "name": "collAsset",
              "type": "bytes"
            },
            {
              "internalType": "uint256",
              "name": "minCollateralRatio",
              "type": "uint256"
            },
            {
              "internalType": "uint256",
              "name": "maxDuration",
              "type": "uint256"
            },
            {
              "internalType": "bool",
              "name": "isLeverage",
              "type": "bool"
            },
            {
              "components": [
                {
                  "internalType": "address",
                  "name": "addr",
                  "type": "address"
                },
                {
                  "internalType": "bytes",
                  "name": "parameters",
                  "type": "bytes"
                }
              ],
              "internalType": "struct PluginReference",
              "name": "lenderAccount",
              "type": "tuple"
            },
            {
              "components": [
                {
                  "internalType": "address",
                  "name": "addr",
                  "type": "address"
                },
                {
                  "internalType": "bytes",
                  "name": "parameters",
                  "type": "bytes"
                }
              ],
              "internalType": "struct PluginReference",
              "name": "borrowerAccount",
              "type": "tuple"
            },
            {
              "components": [
                {
                  "internalType": "address",
                  "name": "addr",
                  "type": "address"
                },
                {
                  "internalType": "bytes",
                  "name": "parameters",
                  "type": "bytes"
                }
              ],
              "internalType": "struct PluginReference",
              "name": "assessor",
              "type": "tuple"
            },
            {
              "components": [
                {
                  "internalType": "address",
                  "name": "addr",
                  "type": "address"
                },
                {
                  "internalType": "bytes",
                  "name": "parameters",
                  "type": "bytes"
                }
              ],
              "internalType": "struct PluginReference",
              "name": "liquidator",
              "type": "tuple"
            },
            {
              "components": [
                {
                  "internalType": "address",
                  "name": "addr",
                  "type": "address"
                },
                {
                  "internalType": "bytes",
                  "name": "parameters",
                  "type": "bytes"
                }
              ],
              "internalType": "struct PluginReference",
              "name": "loanOracle",
              "type": "tuple"
            },
            {
              "components": [
                {
                  "internalType": "address",
                  "name": "addr",
                  "type": "address"
                },
                {
                  "internalType": "bytes",
                  "name": "parameters",
                  "type": "bytes"
                }
              ],
              "internalType": "struct PluginReference",
              "name": "collOracle",
              "type": "tuple"
            },
            {
              "internalType": "address",
              "name": "factory",
              "type": "address"
            },
            {
              "components": [
                {
                  "internalType": "address",
                  "name": "addr",
                  "type": "address"
                },
                {
                  "internalType": "bytes",
                  "name": "parameters",
                  "type": "bytes"
                }
              ],
              "internalType": "struct PluginReference",
              "name": "position",
              "type": "tuple"
            },
            {
              "internalType": "uint256",
              "name": "deploymentTime",
              "type": "uint256"
            },
            {
              "internalType": "bytes",
              "name": "fillerData",
              "type": "bytes"
            }
          ],
          "internalType": "struct Agreement",
          "name": "agreement",
          "type": "tuple"
        },
        {
          "internalType": "uint256",
          "name": "amountToClose",
          "type": "uint256"
        }
      ],
      "name": "close",
      "outputs": [],
      "stateMutability": "nonpayable",
      "type": "function"
    },
    {
      "inputs": [],
      "name": "createClone",
      "outputs": [
        {
          "internalType": "address",
          "name": "addr",
          "type": "address"
        }
      ],
      "stateMutability": "nonpayable",
      "type": "function"
    },
    {
      "inputs": [
        {
          "components": [
            {
              "internalType": "uint256",
              "name": "loanAmount",
              "type": "uint256"
            },
            {
              "internalType": "uint256",
              "name": "collAmount",
              "type": "uint256"
            },
            {
              "internalType": "bytes",
              "name": "loanAsset",
              "type": "bytes"
            },
            {
              "internalType": "bytes",
              "name": "collAsset",
              "type": "bytes"
            },
            {
              "internalType": "uint256",
              "name": "minCollateralRatio",
              "type": "uint256"
            },
            {
              "internalType": "uint256",
              "name": "maxDuration",
              "type": "uint256"
            },
            {
              "internalType": "bool",
              "name": "isLeverage",
              "type": "bool"
            },
            {
              "components": [
                {
                  "internalType": "address",
                  "name": "addr",
                  "type": "address"
                },
                {
                  "internalType": "bytes",
                  "name": "parameters",
                  "type": "bytes"
                }
              ],
              "internalType": "struct PluginReference",
              "name": "lenderAccount",
              "type": "tuple"
            },
            {
              "components": [
                {
                  "internalType": "address",
                  "name": "addr",
                  "type": "address"
                },
                {
                  "internalType": "bytes",
                  "name": "parameters",
                  "type": "bytes"
                }
              ],
              "internalType": "struct PluginReference",
              "name": "borrowerAccount",
              "type": "tuple"
            },
            {
              "components": [
                {
                  "internalType": "address",
                  "name": "addr",
                  "type": "address"
                },
                {
                  "internalType": "bytes",
                  "name": "parameters",
                  "type": "bytes"
                }
              ],
              "internalType": "struct PluginReference",
              "name": "assessor",
              "type": "tuple"
            },
            {
              "components": [
                {
                  "internalType": "address",
                  "name": "addr",
                  "type": "address"
                },
                {
                  "internalType": "bytes",
                  "name": "parameters",
                  "type": "bytes"
                }
              ],
              "internalType": "struct PluginReference",
              "name": "liquidator",
              "type": "tuple"
            },
            {
              "components": [
                {
                  "internalType": "address",
                  "name": "addr",
                  "type": "address"
                },
                {
                  "internalType": "bytes",
                  "name": "parameters",
                  "type": "bytes"
                }
              ],
              "internalType": "struct PluginReference",
              "name": "loanOracle",
              "type": "tuple"
            },
            {
              "components": [
                {
                  "internalType": "address",
                  "name": "addr",
                  "type": "address"
                },
                {
                  "internalType": "bytes",
                  "name": "parameters",
                  "type": "bytes"
                }
              ],
              "internalType": "struct PluginReference",
              "name": "collOracle",
              "type": "tuple"
            },
            {
              "internalType": "address",
              "name": "factory",
              "type": "address"
            },
            {
              "components": [
                {
                  "internalType": "address",
                  "name": "addr",
                  "type": "address"
                },
                {
                  "internalType": "bytes",
                  "name": "parameters",
                  "type": "bytes"
                }
              ],
              "internalType": "struct PluginReference",
              "name": "position",
              "type": "tuple"
            },
            {
              "internalType": "uint256",
              "name": "deploymentTime",
              "type": "uint256"
            },
            {
              "internalType": "bytes",
              "name": "fillerData",
              "type": "bytes"
            }
          ],
          "internalType": "struct Agreement",
          "name": "agreement",
          "type": "tuple"
        }
      ],
      "name": "getCloseAmount",
      "outputs": [
        {
          "internalType": "uint256",
          "name": "",
          "type": "uint256"
        }
      ],
      "stateMutability": "nonpayable",
      "type": "function"
    },
    {
      "inputs": [
        {
          "internalType": "bytes32",
          "name": "role",
          "type": "bytes32"
        }
      ],
      "name": "getRoleAdmin",
      "outputs": [
        {
          "internalType": "bytes32",
          "name": "",
          "type": "bytes32"
        }
      ],
      "stateMutability": "view",
      "type": "function"
    },
    {
      "inputs": [
        {
          "internalType": "bytes32",
          "name": "role",
          "type": "bytes32"
        },
        {
          "internalType": "address",
          "name": "account",
          "type": "address"
        }
      ],
      "name": "grantRole",
      "outputs": [],
      "stateMutability": "nonpayable",
      "type": "function"
    },
    {
      "inputs": [
        {
          "internalType": "bytes32",
          "name": "role",
          "type": "bytes32"
        },
        {
          "internalType": "address",
          "name": "account",
          "type": "address"
        }
      ],
      "name": "hasRole",
      "outputs": [
        {
          "internalType": "bool",
          "name": "",
          "type": "bool"
        }
      ],
      "stateMutability": "view",
      "type": "function"
    },
    {
      "inputs": [],
      "name": "initialize",
      "outputs": [],
      "stateMutability": "nonpayable",
      "type": "function"
    },
    {
      "inputs": [
        {
          "components": [
            {
              "internalType": "uint256",
              "name": "loanAmount",
              "type": "uint256"
            },
            {
              "internalType": "uint256",
              "name": "collAmount",
              "type": "uint256"
            },
            {
              "internalType": "bytes",
              "name": "loanAsset",
              "type": "bytes"
            },
            {
              "internalType": "bytes",
              "name": "collAsset",
              "type": "bytes"
            },
            {
              "internalType": "uint256",
              "name": "minCollateralRatio",
              "type": "uint256"
            },
            {
              "internalType": "uint256",
              "name": "maxDuration",
              "type": "uint256"
            },
            {
              "internalType": "bool",
              "name": "isLeverage",
              "type": "bool"
            },
            {
              "components": [
                {
                  "internalType": "address",
                  "name": "addr",
                  "type": "address"
                },
                {
                  "internalType": "bytes",
                  "name": "parameters",
                  "type": "bytes"
                }
              ],
              "internalType": "struct PluginReference",
              "name": "lenderAccount",
              "type": "tuple"
            },
            {
              "components": [
                {
                  "internalType": "address",
                  "name": "addr",
                  "type": "address"
                },
                {
                  "internalType": "bytes",
                  "name": "parameters",
                  "type": "bytes"
                }
              ],
              "internalType": "struct PluginReference",
              "name": "borrowerAccount",
              "type": "tuple"
            },
            {
              "components": [
                {
                  "internalType": "address",
                  "name": "addr",
                  "type": "address"
                },
                {
                  "internalType": "bytes",
                  "name": "parameters",
                  "type": "bytes"
                }
              ],
              "internalType": "struct PluginReference",
              "name": "assessor",
              "type": "tuple"
            },
            {
              "components": [
                {
                  "internalType": "address",
                  "name": "addr",
                  "type": "address"
                },
                {
                  "internalType": "bytes",
                  "name": "parameters",
                  "type": "bytes"
                }
              ],
              "internalType": "struct PluginReference",
              "name": "liquidator",
              "type": "tuple"
            },
            {
              "components": [
                {
                  "internalType": "address",
                  "name": "addr",
                  "type": "address"
                },
                {
                  "internalType": "bytes",
                  "name": "parameters",
                  "type": "bytes"
                }
              ],
              "internalType": "struct PluginReference",
              "name": "loanOracle",
              "type": "tuple"
            },
            {
              "components": [
                {
                  "internalType": "address",
                  "name": "addr",
                  "type": "address"
                },
                {
                  "internalType": "bytes",
                  "name": "parameters",
                  "type": "bytes"
                }
              ],
              "internalType": "struct PluginReference",
              "name": "collOracle",
              "type": "tuple"
            },
            {
              "internalType": "address",
              "name": "factory",
              "type": "address"
            },
            {
              "components": [
                {
                  "internalType": "address",
                  "name": "addr",
                  "type": "address"
                },
                {
                  "internalType": "bytes",
                  "name": "parameters",
                  "type": "bytes"
                }
              ],
              "internalType": "struct PluginReference",
              "name": "position",
              "type": "tuple"
            },
            {
              "internalType": "uint256",
              "name": "deploymentTime",
              "type": "uint256"
            },
            {
              "internalType": "bytes",
              "name": "fillerData",
              "type": "bytes"
            }
          ],
          "internalType": "struct Agreement",
          "name": "agreement",
          "type": "tuple"
        }
      ],
      "name": "open",
      "outputs": [],
      "stateMutability": "nonpayable",
      "type": "function"
    },
    {
      "inputs": [
        {
          "internalType": "address payable",
          "name": "destination",
          "type": "address"
        },
        {
          "internalType": "bytes",
          "name": "data",
          "type": "bytes"
        },
        {
          "internalType": "bool",
          "name": "delegateCall",
          "type": "bool"
        }
      ],
      "name": "passThrough",
      "outputs": [
        {
          "internalType": "bool",
          "name": "",
          "type": "bool"
        },
        {
          "internalType": "bytes",
          "name": "",
          "type": "bytes"
        }
      ],
      "stateMutability": "payable",
      "type": "function"
    },
    {
      "inputs": [
        {
          "internalType": "bytes32",
          "name": "role",
          "type": "bytes32"
        },
        {
          "internalType": "address",
          "name": "account",
          "type": "address"
        }
      ],
      "name": "renounceRole",
      "outputs": [],
      "stateMutability": "nonpayable",
      "type": "function"
    },
    {
      "inputs": [
        {
          "internalType": "bytes32",
          "name": "role",
          "type": "bytes32"
        },
        {
          "internalType": "address",
          "name": "account",
          "type": "address"
        }
      ],
      "name": "revokeRole",
      "outputs": [],
      "stateMutability": "nonpayable",
      "type": "function"
    },
    {
      "inputs": [
        {
          "internalType": "bytes4",
          "name": "interfaceId",
          "type": "bytes4"
        }
      ],
      "name": "supportsInterface",
      "outputs": [
        {
          "internalType": "bool",
          "name": "",
          "type": "bool"
        }
      ],
      "stateMutability": "view",
      "type": "function"
    },
    {
      "inputs": [
        {
          "internalType": "address",
          "name": "controller",
          "type": "address"
        }
      ],
      "name": "transferContract",
      "outputs": [],
      "stateMutability": "nonpayable",
      "type": "function"
    },
    {
      "inputs": [
        {
          "components": [
            {
              "internalType": "uint256",
              "name": "loanAmount",
              "type": "uint256"
            },
            {
              "internalType": "uint256",
              "name": "collAmount",
              "type": "uint256"
            },
            {
              "internalType": "bytes",
              "name": "loanAsset",
              "type": "bytes"
            },
            {
              "internalType": "bytes",
              "name": "collAsset",
              "type": "bytes"
            },
            {
              "internalType": "uint256",
              "name": "minCollateralRatio",
              "type": "uint256"
            },
            {
              "internalType": "uint256",
              "name": "maxDuration",
              "type": "uint256"
            },
            {
              "internalType": "bool",
              "name": "isLeverage",
              "type": "bool"
            },
            {
              "components": [
                {
                  "internalType": "address",
                  "name": "addr",
                  "type": "address"
                },
                {
                  "internalType": "bytes",
                  "name": "parameters",
                  "type": "bytes"
                }
              ],
              "internalType": "struct PluginReference",
              "name": "lenderAccount",
              "type": "tuple"
            },
            {
              "components": [
                {
                  "internalType": "address",
                  "name": "addr",
                  "type": "address"
                },
                {
                  "internalType": "bytes",
                  "name": "parameters",
                  "type": "bytes"
                }
              ],
              "internalType": "struct PluginReference",
              "name": "borrowerAccount",
              "type": "tuple"
            },
            {
              "components": [
                {
                  "internalType": "address",
                  "name": "addr",
                  "type": "address"
                },
                {
                  "internalType": "bytes",
                  "name": "parameters",
                  "type": "bytes"
                }
              ],
              "internalType": "struct PluginReference",
              "name": "assessor",
              "type": "tuple"
            },
            {
              "components": [
                {
                  "internalType": "address",
                  "name": "addr",
                  "type": "address"
                },
                {
                  "internalType": "bytes",
                  "name": "parameters",
                  "type": "bytes"
                }
              ],
              "internalType": "struct PluginReference",
              "name": "liquidator",
              "type": "tuple"
            },
            {
              "components": [
                {
                  "internalType": "address",
                  "name": "addr",
                  "type": "address"
                },
                {
                  "internalType": "bytes",
                  "name": "parameters",
                  "type": "bytes"
                }
              ],
              "internalType": "struct PluginReference",
              "name": "loanOracle",
              "type": "tuple"
            },
            {
              "components": [
                {
                  "internalType": "address",
                  "name": "addr",
                  "type": "address"
                },
                {
                  "internalType": "bytes",
                  "name": "parameters",
                  "type": "bytes"
                }
              ],
              "internalType": "struct PluginReference",
              "name": "collOracle",
              "type": "tuple"
            },
            {
              "internalType": "address",
              "name": "factory",
              "type": "address"
            },
            {
              "components": [
                {
                  "internalType": "address",
                  "name": "addr",
                  "type": "address"
                },
                {
                  "internalType": "bytes",
                  "name": "parameters",
                  "type": "bytes"
                }
              ],
              "internalType": "struct PluginReference",
              "name": "position",
              "type": "tuple"
            },
            {
              "internalType": "uint256",
              "name": "deploymentTime",
              "type": "uint256"
            },
            {
              "internalType": "bytes",
              "name": "fillerData",
              "type": "bytes"
            }
          ],
          "internalType": "struct Agreement",
          "name": "agreement",
          "type": "tuple"
        }
      ],
      "name": "unwind",
      "outputs": [],
      "stateMutability": "nonpayable",
      "type": "function"
    },
    {
      "stateMutability": "payable",
      "type": "receive"
    }
  ],
  "bytecode": "0x60c06040523480156200001157600080fd5b506040516200411c3803806200411c833981810160405281019062000037919062000398565b808062000049620000ee60201b60201c565b8073ffffffffffffffffffffffffffffffffffffffff1660808173ffffffffffffffffffffffffffffffffffffffff16815250503073ffffffffffffffffffffffffffffffffffffffff1660a08173ffffffffffffffffffffffffffffffffffffffff1681525050620000e57f03c7040f8e5b938f657d4600d08b1b77f390141994844cbb34ff043f26ac6cd7608051620001b560201b60201c565b505050620004ae565b60018054906101000a900460ff16156200013f576040517f08c379a0000000000000000000000000000000000000000000000000000000008152600401620001369062000451565b60405180910390fd5b60ff8016600160009054906101000a900460ff1660ff1614620001b35760ff600160006101000a81548160ff021916908360ff1602179055507f7f26b83ff96e1f2b6a682f133852f6798a09c465da95921460cefb384740249860ff604051620001aa919062000491565b60405180910390a15b565b620001c78282620001cb60201b60201c565b5050565b620001dd8282620002bc60201b60201c565b620002b857600160008084815260200190815260200160002060000160008373ffffffffffffffffffffffffffffffffffffffff1673ffffffffffffffffffffffffffffffffffffffff16815260200190815260200160002060006101000a81548160ff0219169083151502179055506200025d6200032660201b60201c565b73ffffffffffffffffffffffffffffffffffffffff168173ffffffffffffffffffffffffffffffffffffffff16837f2f8788117e7eff1d82e926ec794901d17c78024a50270940304540a733656f0d60405160405180910390a45b5050565b600080600084815260200190815260200160002060000160008373ffffffffffffffffffffffffffffffffffffffff1673ffffffffffffffffffffffffffffffffffffffff16815260200190815260200160002060009054906101000a900460ff16905092915050565b600033905090565b600080fd5b600073ffffffffffffffffffffffffffffffffffffffff82169050919050565b6000620003608262000333565b9050919050565b620003728162000353565b81146200037e57600080fd5b50565b600081519050620003928162000367565b92915050565b600060208284031215620003b157620003b06200032e565b5b6000620003c18482850162000381565b91505092915050565b600082825260208201905092915050565b7f496e697469616c697a61626c653a20636f6e747261637420697320696e69746960008201527f616c697a696e6700000000000000000000000000000000000000000000000000602082015250565b600062000439602783620003ca565b91506200044682620003db565b604082019050919050565b600060208201905081810360008301526200046c816200042a565b9050919050565b600060ff82169050919050565b6200048b8162000473565b82525050565b6000602082019050620004a8600083018462000480565b92915050565b60805160a051613c026200051a6000396000818161055401528181610646015281816106f00152818161091e01528181610aa201528181610b3001528181610c4701528181610c6b01528181610dac0152610f5a015260008181610bc50152610d840152613c026000f3fe6080604052600436106101025760003560e01c80638129fc1c11610095578063a217fddf11610064578063a217fddf14610328578063a299292514610353578063b9fdc2a21461037e578063d547741f146103af578063edd9e4b5146103d857610109565b80638129fc1c146102805780638823151b146102975780638f9acff3146102c257806391d14854146102eb57610109565b806347635dac116100d157806347635dac146101da5780635aa564091461020357806364f2d4b91461022c5780636c3fc8311461025757610109565b806301ffc9a71461010e578063248a9ca31461014b5780632f2ff15d1461018857806336568abe146101b157610109565b3661010957005b600080fd5b34801561011a57600080fd5b5061013560048036038101906101309190612174565b610415565b60405161014291906121bc565b60405180910390f35b34801561015757600080fd5b50610172600480360381019061016d919061220d565b61048f565b60405161017f9190612249565b60405180910390f35b34801561019457600080fd5b506101af60048036038101906101aa91906122c2565b6104ae565b005b3480156101bd57600080fd5b506101d860048036038101906101d391906122c2565b6104cf565b005b3480156101e657600080fd5b5061020160048036038101906101fc9190612302565b610552565b005b34801561020f57600080fd5b5061022a60048036038101906102259190612354565b610644565b005b34801561023857600080fd5b506102416106ec565b60405161024e91906123ac565b60405180910390f35b34801561026357600080fd5b5061027e600480360381019061027991906123fd565b61091c565b005b34801561028c57600080fd5b506102956109c6565b005b3480156102a357600080fd5b506102ac610c45565b6040516102b991906123ac565b60405180910390f35b3480156102ce57600080fd5b506102e960048036038101906102e49190612354565b610c69565b005b3480156102f757600080fd5b50610312600480360381019061030d91906122c2565b610d11565b60405161031f91906121bc565b60405180910390f35b34801561033457600080fd5b5061033d610d7b565b60405161034a9190612249565b60405180910390f35b34801561035f57600080fd5b50610368610d82565b60405161037591906123ac565b60405180910390f35b61039860048036038101906103939190612528565b610da6565b6040516103a692919061262c565b60405180910390f35b3480156103bb57600080fd5b506103d660048036038101906103d191906122c2565b610f35565b005b3480156103e457600080fd5b506103ff60048036038101906103fa9190612aaa565b610f56565b60405161040c9190612b02565b60405180910390f35b60007f7965db0b000000000000000000000000000000000000000000000000000000007bffffffffffffffffffffffffffffffffffffffffffffffffffffffff1916827bffffffffffffffffffffffffffffffffffffffffffffffffffffffff19161480610488575061048782610ff6565b5b9050919050565b6000806000838152602001908152602001600020600101549050919050565b6104b78261048f565b6104c081611060565b6104ca8383611074565b505050565b6104d7611154565b73ffffffffffffffffffffffffffffffffffffffff168173ffffffffffffffffffffffffffffffffffffffff1614610544576040517f08c379a000000000000000000000000000000000000000000000000000000000815260040161053b90612ba0565b60405180910390fd5b61054e828261115c565b5050565b7f000000000000000000000000000000000000000000000000000000000000000073ffffffffffffffffffffffffffffffffffffffff163073ffffffffffffffffffffffffffffffffffffffff16036105e0576040517f08c379a00000000000000000000000000000000000000000000000000000000081526004016105d790612c0c565b60405180910390fd5b6000801b6105ed81611060565b6105fa6000801b836104ae565b6106076000801b336104cf565b7fa06677f7b64342b4bcbde423684dbdb5356acfe41ad0285b6ecbe6dc4bf427f23383604051610638929190612c2c565b60405180910390a15050565b7f000000000000000000000000000000000000000000000000000000000000000073ffffffffffffffffffffffffffffffffffffffff163073ffffffffffffffffffffffffffffffffffffffff16036106d2576040517f08c379a00000000000000000000000000000000000000000000000000000000081526004016106c990612c0c565b60405180910390fd5b6000801b6106df81611060565b6106e88261123d565b5050565b60007f000000000000000000000000000000000000000000000000000000000000000073ffffffffffffffffffffffffffffffffffffffff163073ffffffffffffffffffffffffffffffffffffffff161461077c576040517f08c379a000000000000000000000000000000000000000000000000000000000815260040161077390612ca1565b60405180910390fd5b7f03c7040f8e5b938f657d4600d08b1b77f390141994844cbb34ff043f26ac6cd76107a681611060565b6107af306114b8565b915060008273ffffffffffffffffffffffffffffffffffffffff166040516024016040516020818303038152906040527f8129fc1c000000000000000000000000000000000000000000000000000000007bffffffffffffffffffffffffffffffffffffffffffffffffffffffff19166020820180517bffffffffffffffffffffffffffffffffffffffffffffffffffffffff838183161783525050505060405161085a9190612cfd565b6000604051808303816000865af19150503d8060008114610897576040519150601f19603f3d011682016040523d82523d6000602084013e61089c565b606091505b50509050806108e0576040517f08c379a00000000000000000000000000000000000000000000000000000000081526004016108d790612d60565b60405180910390fd5b7fbe2f3d28fdeb5839123d65fd47ec2f5915c715d2b527b9e229123706fdecfc858360405161090f91906123ac565b60405180910390a1505090565b7f000000000000000000000000000000000000000000000000000000000000000073ffffffffffffffffffffffffffffffffffffffff163073ffffffffffffffffffffffffffffffffffffffff16036109aa576040517f08c379a00000000000000000000000000000000000000000000000000000000081526004016109a190612c0c565b60405180910390fd5b6000801b6109b781611060565b6109c18383611572565b505050565b600060018054906101000a900460ff161590508080156109f7575060018060009054906101000a900460ff1660ff16105b80610a255750610a06306118d5565b158015610a24575060018060009054906101000a900460ff1660ff16145b5b610a64576040517f08c379a0000000000000000000000000000000000000000000000000000000008152600401610a5b90612df2565b60405180910390fd5b60018060006101000a81548160ff021916908360ff1602179055508015610aa05760018060016101000a81548160ff0219169083151502179055505b7f000000000000000000000000000000000000000000000000000000000000000073ffffffffffffffffffffffffffffffffffffffff163073ffffffffffffffffffffffffffffffffffffffff1603610b2e576040517f08c379a0000000000000000000000000000000000000000000000000000000008152600401610b2590612c0c565b60405180910390fd5b7f000000000000000000000000000000000000000000000000000000000000000073ffffffffffffffffffffffffffffffffffffffff163373ffffffffffffffffffffffffffffffffffffffff1614610bbc576040517f08c379a0000000000000000000000000000000000000000000000000000000008152600401610bb390612e5e565b60405180910390fd5b610be96000801b7f00000000000000000000000000000000000000000000000000000000000000006118f8565b8015610c425760006001806101000a81548160ff0219169083151502179055507f7f26b83ff96e1f2b6a682f133852f6798a09c465da95921460cefb38474024986001604051610c399190612ed0565b60405180910390a15b50565b7f000000000000000000000000000000000000000000000000000000000000000081565b7f000000000000000000000000000000000000000000000000000000000000000073ffffffffffffffffffffffffffffffffffffffff163073ffffffffffffffffffffffffffffffffffffffff1603610cf7576040517f08c379a0000000000000000000000000000000000000000000000000000000008152600401610cee90612c0c565b60405180910390fd5b6000801b610d0481611060565b610d0d82611906565b5050565b600080600084815260200190815260200160002060000160008373ffffffffffffffffffffffffffffffffffffffff1673ffffffffffffffffffffffffffffffffffffffff16815260200190815260200160002060009054906101000a900460ff16905092915050565b6000801b81565b7f000000000000000000000000000000000000000000000000000000000000000081565b600060607f000000000000000000000000000000000000000000000000000000000000000073ffffffffffffffffffffffffffffffffffffffff163073ffffffffffffffffffffffffffffffffffffffff1603610e38576040517f08c379a0000000000000000000000000000000000000000000000000000000008152600401610e2f90612c0c565b60405180910390fd5b6000801b610e4581611060565b83610ebe578673ffffffffffffffffffffffffffffffffffffffff16348787604051610e72929190612f10565b60006040518083038185875af1925050503d8060008114610eaf576040519150601f19603f3d011682016040523d82523d6000602084013e610eb4565b606091505b5092509250610f2b565b8673ffffffffffffffffffffffffffffffffffffffff168686604051610ee5929190612f10565b600060405180830381855af49150503d8060008114610f20576040519150601f19603f3d011682016040523d82523d6000602084013e610f25565b606091505b50925092505b5094509492505050565b610f3e8261048f565b610f4781611060565b610f51838361115c565b505050565b60007f000000000000000000000000000000000000000000000000000000000000000073ffffffffffffffffffffffffffffffffffffffff163073ffffffffffffffffffffffffffffffffffffffff1603610fe6576040517f08c379a0000000000000000000000000000000000000000000000000000000008152600401610fdd90612c0c565b60405180910390fd5b610fef82611909565b9050919050565b60007f01ffc9a7000000000000000000000000000000000000000000000000000000007bffffffffffffffffffffffffffffffffffffffffffffffffffffffff1916827bffffffffffffffffffffffffffffffffffffffffffffffffffffffff1916149050919050565b6110718161106c611154565b611e1a565b50565b61107e8282610d11565b61115057600160008084815260200190815260200160002060000160008373ffffffffffffffffffffffffffffffffffffffff1673ffffffffffffffffffffffffffffffffffffffff16815260200190815260200160002060006101000a81548160ff0219169083151502179055506110f5611154565b73ffffffffffffffffffffffffffffffffffffffff168173ffffffffffffffffffffffffffffffffffffffff16837f2f8788117e7eff1d82e926ec794901d17c78024a50270940304540a733656f0d60405160405180910390a45b5050565b600033905090565b6111668282610d11565b1561123957600080600084815260200190815260200160002060000160008373ffffffffffffffffffffffffffffffffffffffff1673ffffffffffffffffffffffffffffffffffffffff16815260200190815260200160002060006101000a81548160ff0219169083151502179055506111de611154565b73ffffffffffffffffffffffffffffffffffffffff168173ffffffffffffffffffffffffffffffffffffffff16837ff6391f5c32d9c69d2a47ea670b442974b53935d1edc7fd64eb21e047a839171b60405160405180910390a45b5050565b6000818061010001906112509190612f38565b806020019061125f9190612f60565b81019061126c9190613013565b905060008280604001906112809190612f60565b81019061128d9190613114565b90506000670de0b6b3a76400008260400151600a6112ab91906132bf565b85600001356112ba919061330a565b6112c4919061337b565b90506001826000015160ff160361134d5773__$0dbc1134add5307a68154fc29708de467d$__63d4e3bdb683602001518560000151846040518463ffffffff1660e01b8152600401611318939291906133ca565b60006040518083038186803b15801561133057600080fd5b505af4158015611344573d6000803e3d6000fd5b505050506114b2565b6002826000015160ff16036113e05773__$0dbc1134add5307a68154fc29708de467d$__63db25adcc8360200151308660000151866060015187608001516040518663ffffffff1660e01b81526004016113ab95949392919061344b565b60006040518083038186803b1580156113c357600080fd5b505af41580156113d7573d6000803e3d6000fd5b505050506114b1565b6003826000015160ff16036114755773__$0dbc1134add5307a68154fc29708de467d$__63ffc87727836020015130866000015186606001518688608001516040518763ffffffff1660e01b8152600401611440969594939291906134a5565b60006040518083038186803b15801561145857600080fd5b505af415801561146c573d6000803e3d6000fd5b505050506114b0565b6040517f08c379a00000000000000000000000000000000000000000000000000000000081526004016114a790613559565b60405180910390fd5b5b5b50505050565b6000763d602d80600a3d3981f3363d3d373d3d3d363d730000008260601b60e81c176000526e5af43d82803e903d91602b57fd5bf38260781b17602052603760096000f09050600073ffffffffffffffffffffffffffffffffffffffff168173ffffffffffffffffffffffffffffffffffffffff160361156d576040517f08c379a0000000000000000000000000000000000000000000000000000000008152600401611564906135c5565b60405180910390fd5b919050565b60008280604001906115849190612f60565b8101906115919190613114565b905060008380606001906115a59190612f60565b8101906115b29190613114565b9050600082602001519050600082602001519050600085111561172f578173ffffffffffffffffffffffffffffffffffffffff1663095ea7b3878060e001906115fb9190612f38565b600001602081019061160d9190612302565b876040518363ffffffff1660e01b815260040161162b9291906135e5565b6020604051808303816000875af115801561164a573d6000803e3d6000fd5b505050506040513d601f19601f8201168201806040525081019061166e9190613623565b50858060e0019061167f9190612f38565b60000160208101906116919190612302565b73ffffffffffffffffffffffffffffffffffffffff166306b1c4c98780604001906116bc9190612f60565b888a8060e001906116cd9190612f38565b80602001906116dc9190612f60565b6040518663ffffffff1660e01b81526004016116fc95949392919061367d565b600060405180830381600087803b15801561171657600080fd5b505af115801561172a573d6000803e3d6000fd5b505050505b6000670de0b6b3a76400008460400151600a61174b91906132bf565b886020013561175a919061330a565b611764919061337b565b90508173ffffffffffffffffffffffffffffffffffffffff1663095ea7b3888061010001906117939190612f38565b60000160208101906117a59190612302565b836040518363ffffffff1660e01b81526004016117c39291906135e5565b6020604051808303816000875af11580156117e2573d6000803e3d6000fd5b505050506040513d601f19601f820116820180604052508101906118069190613623565b50868061010001906118189190612f38565b600001602081019061182a9190612302565b73ffffffffffffffffffffffffffffffffffffffff166306b1c4c98880606001906118559190612f60565b8a602001358b80610100019061186b9190612f38565b806020019061187a9190612f60565b6040518663ffffffff1660e01b815260040161189a95949392919061367d565b600060405180830381600087803b1580156118b457600080fd5b505af11580156118c8573d6000803e3d6000fd5b5050505050505050505050565b6000808273ffffffffffffffffffffffffffffffffffffffff163b119050919050565b6119028282611074565b5050565b50565b6000808260600151806020019051810190611924919061381d565b9050600083610200015180602001905181019061194191906138a2565b90506002826000015160ff16148061196057506003826000015160ff16145b8015611970575060008260600151145b156119845780600001518260600181815250505b60008260200151905060008360400151905060006001856000015160ff1603611ae45760008373ffffffffffffffffffffffffffffffffffffffff166370a08231306040518263ffffffff1660e01b81526004016119e291906123ac565b602060405180830381865afa1580156119ff573d6000803e3d6000fd5b505050506040513d601f19601f82011682018060405250810190611a2391906138cf565b905082600a611a3291906132bf565b8861018001516000015173ffffffffffffffffffffffffffffffffffffffff1663f09f40798a6101800151602001518b61020001516040518363ffffffff1660e01b8152600401611a849291906138fc565b6020604051808303816000875af1158015611aa3573d6000803e3d6000fd5b505050506040513d601f19601f82011682018060405250810190611ac791906138cf565b82611ad2919061330a565b611adc919061337b565b915050611e0d565b6002856000015160ff1603611c7b57600080866020015173ffffffffffffffffffffffffffffffffffffffff16636352211e88606001516040518263ffffffff1660e01b8152600401611b379190612b02565b602060405180830381865afa158015611b54573d6000803e3d6000fd5b505050506040513d601f19601f82011682018060405250810190611b789190613933565b90503073ffffffffffffffffffffffffffffffffffffffff168173ffffffffffffffffffffffffffffffffffffffff1603611bb65760019150611bbb565b600091505b83600a611bc891906132bf565b8961018001516000015173ffffffffffffffffffffffffffffffffffffffff1663f09f40798b6101800151602001518c61020001516040518363ffffffff1660e01b8152600401611c1a9291906138fc565b6020604051808303816000875af1158015611c39573d6000803e3d6000fd5b505050506040513d601f19601f82011682018060405250810190611c5d91906138cf565b83611c68919061330a565b611c72919061337b565b92505050611e0c565b6003856000015160ff1603611dd0576000856020015173ffffffffffffffffffffffffffffffffffffffff1662fdd58e3088606001516040518363ffffffff1660e01b8152600401611cce9291906135e5565b602060405180830381865afa158015611ceb573d6000803e3d6000fd5b505050506040513d601f19601f82011682018060405250810190611d0f91906138cf565b905082600a611d1e91906132bf565b8861018001516000015173ffffffffffffffffffffffffffffffffffffffff1663f09f40798a6101800151602001518b61020001516040518363ffffffff1660e01b8152600401611d709291906138fc565b6020604051808303816000875af1158015611d8f573d6000803e3d6000fd5b505050506040513d601f19601f82011682018060405250810190611db391906138cf565b82611dbe919061330a565b611dc8919061337b565b915050611e0b565b6040517f08c379a0000000000000000000000000000000000000000000000000000000008152600401611e0290613559565b60405180910390fd5b5b5b8095505050505050919050565b611e248282610d11565b611e9b57611e3181611e9f565b611e3f8360001c6020611ecc565b604051602001611e50929190613a3f565b6040516020818303038152906040526040517f08c379a0000000000000000000000000000000000000000000000000000000008152600401611e929190613ab2565b60405180910390fd5b5050565b6060611ec58273ffffffffffffffffffffffffffffffffffffffff16601460ff16611ecc565b9050919050565b606060006002836002611edf919061330a565b611ee99190613ad4565b67ffffffffffffffff811115611f0257611f01612661565b5b6040519080825280601f01601f191660200182016040528015611f345781602001600182028036833780820191505090505b5090507f300000000000000000000000000000000000000000000000000000000000000081600081518110611f6c57611f6b613b08565b5b60200101907effffffffffffffffffffffffffffffffffffffffffffffffffffffffffffff1916908160001a9053507f780000000000000000000000000000000000000000000000000000000000000081600181518110611fd057611fcf613b08565b5b60200101907effffffffffffffffffffffffffffffffffffffffffffffffffffffffffffff1916908160001a90535060006001846002612010919061330a565b61201a9190613ad4565b90505b60018111156120ba577f3031323334353637383961626364656600000000000000000000000000000000600f86166010811061205c5761205b613b08565b5b1a60f81b82828151811061207357612072613b08565b5b60200101907effffffffffffffffffffffffffffffffffffffffffffffffffffffffffffff1916908160001a905350600485901c9450806120b390613b37565b905061201d565b50600084146120fe576040517f08c379a00000000000000000000000000000000000000000000000000000000081526004016120f590613bac565b60405180910390fd5b8091505092915050565b6000604051905090565b600080fd5b600080fd5b60007fffffffff0000000000000000000000000000000000000000000000000000000082169050919050565b6121518161211c565b811461215c57600080fd5b50565b60008135905061216e81612148565b92915050565b60006020828403121561218a57612189612112565b5b60006121988482850161215f565b91505092915050565b60008115159050919050565b6121b6816121a1565b82525050565b60006020820190506121d160008301846121ad565b92915050565b6000819050919050565b6121ea816121d7565b81146121f557600080fd5b50565b600081359050612207816121e1565b92915050565b60006020828403121561222357612222612112565b5b6000612231848285016121f8565b91505092915050565b612243816121d7565b82525050565b600060208201905061225e600083018461223a565b92915050565b600073ffffffffffffffffffffffffffffffffffffffff82169050919050565b600061228f82612264565b9050919050565b61229f81612284565b81146122aa57600080fd5b50565b6000813590506122bc81612296565b92915050565b600080604083850312156122d9576122d8612112565b5b60006122e7858286016121f8565b92505060206122f8858286016122ad565b9150509250929050565b60006020828403121561231857612317612112565b5b6000612326848285016122ad565b91505092915050565b600080fd5b6000610220828403121561234b5761234a61232f565b5b81905092915050565b60006020828403121561236a57612369612112565b5b600082013567ffffffffffffffff81111561238857612387612117565b5b61239484828501612334565b91505092915050565b6123a681612284565b82525050565b60006020820190506123c1600083018461239d565b92915050565b6000819050919050565b6123da816123c7565b81146123e557600080fd5b50565b6000813590506123f7816123d1565b92915050565b6000806040838503121561241457612413612112565b5b600083013567ffffffffffffffff81111561243257612431612117565b5b61243e85828601612334565b925050602061244f858286016123e8565b9150509250929050565b600061246482612264565b9050919050565b61247481612459565b811461247f57600080fd5b50565b6000813590506124918161246b565b92915050565b600080fd5b600080fd5b600080fd5b60008083601f8401126124bc576124bb612497565b5b8235905067ffffffffffffffff8111156124d9576124d861249c565b5b6020830191508360018202830111156124f5576124f46124a1565b5b9250929050565b612505816121a1565b811461251057600080fd5b50565b600081359050612522816124fc565b92915050565b6000806000806060858703121561254257612541612112565b5b600061255087828801612482565b945050602085013567ffffffffffffffff81111561257157612570612117565b5b61257d878288016124a6565b9350935050604061259087828801612513565b91505092959194509250565b600081519050919050565b600082825260208201905092915050565b60005b838110156125d65780820151818401526020810190506125bb565b60008484015250505050565b6000601f19601f8301169050919050565b60006125fe8261259c565b61260881856125a7565b93506126188185602086016125b8565b612621816125e2565b840191505092915050565b600060408201905061264160008301856121ad565b818103602083015261265381846125f3565b90509392505050565b600080fd5b7f4e487b7100000000000000000000000000000000000000000000000000000000600052604160045260246000fd5b612699826125e2565b810181811067ffffffffffffffff821117156126b8576126b7612661565b5b80604052505050565b60006126cb612108565b90506126d78282612690565b919050565b600080fd5b600080fd5b600067ffffffffffffffff82111561270157612700612661565b5b61270a826125e2565b9050602081019050919050565b82818337600083830152505050565b6000612739612734846126e6565b6126c1565b905082815260208101848484011115612755576127546126e1565b5b612760848285612717565b509392505050565b600082601f83011261277d5761277c612497565b5b813561278d848260208601612726565b91505092915050565b6000604082840312156127ac576127ab61265c565b5b6127b660406126c1565b905060006127c6848285016122ad565b600083015250602082013567ffffffffffffffff8111156127ea576127e96126dc565b5b6127f684828501612768565b60208301525092915050565b600061022082840312156128195761281861265c565b5b6128246102206126c1565b90506000612834848285016123e8565b6000830152506020612848848285016123e8565b602083015250604082013567ffffffffffffffff81111561286c5761286b6126dc565b5b61287884828501612768565b604083015250606082013567ffffffffffffffff81111561289c5761289b6126dc565b5b6128a884828501612768565b60608301525060806128bc848285016123e8565b60808301525060a06128d0848285016123e8565b60a08301525060c06128e484828501612513565b60c08301525060e082013567ffffffffffffffff811115612908576129076126dc565b5b61291484828501612796565b60e08301525061010082013567ffffffffffffffff811115612939576129386126dc565b5b61294584828501612796565b6101008301525061012082013567ffffffffffffffff81111561296b5761296a6126dc565b5b61297784828501612796565b6101208301525061014082013567ffffffffffffffff81111561299d5761299c6126dc565b5b6129a984828501612796565b6101408301525061016082013567ffffffffffffffff8111156129cf576129ce6126dc565b5b6129db84828501612796565b6101608301525061018082013567ffffffffffffffff811115612a0157612a006126dc565b5b612a0d84828501612796565b610180830152506101a0612a23848285016122ad565b6101a0830152506101c082013567ffffffffffffffff811115612a4957612a486126dc565b5b612a5584828501612796565b6101c0830152506101e0612a6b848285016123e8565b6101e08301525061020082013567ffffffffffffffff811115612a9157612a906126dc565b5b612a9d84828501612768565b6102008301525092915050565b600060208284031215612ac057612abf612112565b5b600082013567ffffffffffffffff811115612ade57612add612117565b5b612aea84828501612802565b91505092915050565b612afc816123c7565b82525050565b6000602082019050612b176000830184612af3565b92915050565b600082825260208201905092915050565b7f416363657373436f6e74726f6c3a2063616e206f6e6c792072656e6f756e636560008201527f20726f6c657320666f722073656c660000000000000000000000000000000000602082015250565b6000612b8a602f83612b1d565b9150612b9582612b2e565b604082019050919050565b60006020820190508181036000830152612bb981612b7d565b9050919050565b7f65786563206e6f7420616c6c6f77656420696e20696d706c0000000000000000600082015250565b6000612bf6601883612b1d565b9150612c0182612bc0565b602082019050919050565b60006020820190508181036000830152612c2581612be9565b9050919050565b6000604082019050612c41600083018561239d565b612c4e602083018461239d565b9392505050565b7f65786563206e6f7420616c6c6f77656420696e2070726f787900000000000000600082015250565b6000612c8b601983612b1d565b9150612c9682612c55565b602082019050919050565b60006020820190508181036000830152612cba81612c7e565b9050919050565b600081905092915050565b6000612cd78261259c565b612ce18185612cc1565b9350612cf18185602086016125b8565b80840191505092915050565b6000612d098284612ccc565b915081905092915050565b7f637265617465436c6f6e653a20696e697469616c697a65206661696c00000000600082015250565b6000612d4a601c83612b1d565b9150612d5582612d14565b602082019050919050565b60006020820190508181036000830152612d7981612d3d565b9050919050565b7f496e697469616c697a61626c653a20636f6e747261637420697320616c72656160008201527f647920696e697469616c697a6564000000000000000000000000000000000000602082015250565b6000612ddc602e83612b1d565b9150612de782612d80565b604082019050919050565b60006020820190508181036000830152612e0b81612dcf565b9050919050565b7f73656e64657220213d20696d706c20636f6e7472616374000000000000000000600082015250565b6000612e48601783612b1d565b9150612e5382612e12565b602082019050919050565b60006020820190508181036000830152612e7781612e3b565b9050919050565b6000819050919050565b600060ff82169050919050565b6000819050919050565b6000612eba612eb5612eb084612e7e565b612e95565b612e88565b9050919050565b612eca81612e9f565b82525050565b6000602082019050612ee56000830184612ec1565b92915050565b6000612ef78385612cc1565b9350612f04838584612717565b82840190509392505050565b6000612f1d828486612eeb565b91508190509392505050565b600080fd5b600080fd5b600080fd5b600082356001604003833603038112612f5457612f53612f29565b5b80830191505092915050565b60008083356001602003843603038112612f7d57612f7c612f29565b5b80840192508235915067ffffffffffffffff821115612f9f57612f9e612f2e565b5b602083019250600182023603831315612fbb57612fba612f33565b5b509250929050565b600060408284031215612fd957612fd861265c565b5b612fe360406126c1565b90506000612ff3848285016122ad565b6000830152506020613007848285016121f8565b60208301525092915050565b60006040828403121561302957613028612112565b5b600061303784828501612fc3565b91505092915050565b61304981612e88565b811461305457600080fd5b50565b60008135905061306681613040565b92915050565b600060a082840312156130825761308161265c565b5b61308c60a06126c1565b9050600061309c84828501613057565b60008301525060206130b0848285016122ad565b60208301525060406130c484828501613057565b60408301525060606130d8848285016123e8565b606083015250608082013567ffffffffffffffff8111156130fc576130fb6126dc565b5b61310884828501612768565b60808301525092915050565b60006020828403121561312a57613129612112565b5b600082013567ffffffffffffffff81111561314857613147612117565b5b6131548482850161306c565b91505092915050565b7f4e487b7100000000000000000000000000000000000000000000000000000000600052601160045260246000fd5b60008160011c9050919050565b6000808291508390505b60018511156131e3578086048111156131bf576131be61315d565b5b60018516156131ce5780820291505b80810290506131dc8561318c565b94506131a3565b94509492505050565b6000826131fc57600190506132b8565b8161320a57600090506132b8565b8160018114613220576002811461322a57613259565b60019150506132b8565b60ff84111561323c5761323b61315d565b5b8360020a9150848211156132535761325261315d565b5b506132b8565b5060208310610133831016604e8410600b841016171561328e5782820a9050838111156132895761328861315d565b5b6132b8565b61329b8484846001613199565b925090508184048111156132b2576132b161315d565b5b81810290505b9392505050565b60006132ca826123c7565b91506132d583612e88565b92506133027fffffffffffffffffffffffffffffffffffffffffffffffffffffffffffffffff84846131ec565b905092915050565b6000613315826123c7565b9150613320836123c7565b925082820261332e816123c7565b915082820484148315176133455761334461315d565b5b5092915050565b7f4e487b7100000000000000000000000000000000000000000000000000000000600052601260045260246000fd5b6000613386826123c7565b9150613391836123c7565b9250826133a1576133a061334c565b5b828204905092915050565b6133b581612284565b82525050565b6133c4816123c7565b82525050565b60006060820190506133df60008301866133ac565b6133ec60208301856133ac565b6133f960408301846133bb565b949350505050565b600082825260208201905092915050565b600061341d8261259c565b6134278185613401565b93506134378185602086016125b8565b613440816125e2565b840191505092915050565b600060a08201905061346060008301886133ac565b61346d60208301876133ac565b61347a60408301866133ac565b61348760608301856133bb565b81810360808301526134998184613412565b90509695505050505050565b600060c0820190506134ba60008301896133ac565b6134c760208301886133ac565b6134d460408301876133ac565b6134e160608301866133bb565b6134ee60808301856133bb565b81810360a08301526135008184613412565b9050979650505050505050565b7f556e737570706f72746564206173736574207374616e64617264000000000000600082015250565b6000613543601a83612b1d565b915061354e8261350d565b602082019050919050565b6000602082019050818103600083015261357281613536565b9050919050565b7f455243313136373a20637265617465206661696c656400000000000000000000600082015250565b60006135af601683612b1d565b91506135ba82613579565b602082019050919050565b600060208201905081810360008301526135de816135a2565b9050919050565b60006040820190506135fa600083018561239d565b6136076020830184612af3565b9392505050565b60008151905061361d816124fc565b92915050565b60006020828403121561363957613638612112565b5b60006136478482850161360e565b91505092915050565b600061365c83856125a7565b9350613669838584612717565b613672836125e2565b840190509392505050565b60006060820190508181036000830152613698818789613650565b90506136a76020830186612af3565b81810360408301526136ba818486613650565b90509695505050505050565b6000815190506136d581613040565b92915050565b6000815190506136ea81612296565b92915050565b6000815190506136ff816123d1565b92915050565b6000613718613713846126e6565b6126c1565b905082815260208101848484011115613734576137336126e1565b5b61373f8482856125b8565b509392505050565b600082601f83011261375c5761375b612497565b5b815161376c848260208601613705565b91505092915050565b600060a0828403121561378b5761378a61265c565b5b61379560a06126c1565b905060006137a5848285016136c6565b60008301525060206137b9848285016136db565b60208301525060406137cd848285016136c6565b60408301525060606137e1848285016136f0565b606083015250608082015167ffffffffffffffff811115613805576138046126dc565b5b61381184828501613747565b60808301525092915050565b60006020828403121561383357613832612112565b5b600082015167ffffffffffffffff81111561385157613850612117565b5b61385d84828501613775565b91505092915050565b60006020828403121561387c5761387b61265c565b5b61388660206126c1565b90506000613896848285016136f0565b60008301525092915050565b6000602082840312156138b8576138b7612112565b5b60006138c684828501613866565b91505092915050565b6000602082840312156138e5576138e4612112565b5b60006138f3848285016136f0565b91505092915050565b6000604082019050818103600083015261391681856125f3565b9050818103602083015261392a81846125f3565b90509392505050565b60006020828403121561394957613948612112565b5b6000613957848285016136db565b91505092915050565b600081905092915050565b7f416363657373436f6e74726f6c3a206163636f756e7420000000000000000000600082015250565b60006139a1601783613960565b91506139ac8261396b565b601782019050919050565b600081519050919050565b60006139cd826139b7565b6139d78185613960565b93506139e78185602086016125b8565b80840191505092915050565b7f206973206d697373696e6720726f6c6520000000000000000000000000000000600082015250565b6000613a29601183613960565b9150613a34826139f3565b601182019050919050565b6000613a4a82613994565b9150613a5682856139c2565b9150613a6182613a1c565b9150613a6d82846139c2565b91508190509392505050565b6000613a84826139b7565b613a8e8185612b1d565b9350613a9e8185602086016125b8565b613aa7816125e2565b840191505092915050565b60006020820190508181036000830152613acc8184613a79565b905092915050565b6000613adf826123c7565b9150613aea836123c7565b9250828201905080821115613b0257613b0161315d565b5b92915050565b7f4e487b7100000000000000000000000000000000000000000000000000000000600052603260045260246000fd5b6000613b42826123c7565b915060008203613b5557613b5461315d565b5b600182039050919050565b7f537472696e67733a20686578206c656e67746820696e73756666696369656e74600082015250565b6000613b96602083612b1d565b9150613ba182613b60565b602082019050919050565b60006020820190508181036000830152613bc581613b89565b905091905056fea26469706673582212207d8640c5e2a6c84ace809e88bca74fde986a61ada1e436262ba362dc8c3a366564736f6c63430008130033",
  "linkReferences": {
    "src/libraries/LibUtilsPublic.sol": {
      "LibUtilsPublic": [
        {
          "length": 20,
          "start": 6129
        },
        {
          "length": 20,
          "start": 6264
        },
        {
          "length": 20,
          "start": 6411
        }
      ]
    }
  },
  "deployedLinkReferences": {
    "src/libraries/LibUtilsPublic.sol": {
      "LibUtilsPublic": [
        {
          "length": 20,
          "start": 4823
        },
        {
          "length": 20,
          "start": 4958
        },
        {
          "length": 20,
          "start": 5105
        }
      ]
    }
  }
}