{
  "_format": "hh-sol-artifact-1",
  "contractName": "WalletFactory",
  "sourceName": "src/plugins/position/implementations/Wallet.sol",
  "abi": [
    {
      "inputs": [
        {
          "internalType": "address",
          "name": "protocolAddr",
          "type": "address"
        }
      ],
      "stateMutability": "nonpayable",
      "type": "constructor"
    },
    {
      "anonymous": false,
      "inputs": [
        {
          "indexed": false,
          "internalType": "address",
          "name": "clone",
          "type": "address"
        }
      ],
      "name": "CloneCreated",
      "type": "event"
    },
    {
      "anonymous": false,
      "inputs": [
        {
          "indexed": false,
          "internalType": "address",
          "name": "previousController",
          "type": "address"
        },
        {
          "indexed": false,
          "internalType": "address",
          "name": "newController",
          "type": "address"
        }
      ],
      "name": "ControlTransferred",
      "type": "event"
    },
    {
      "anonymous": false,
      "inputs": [
        {
          "indexed": false,
          "internalType": "uint8",
          "name": "version",
          "type": "uint8"
        }
      ],
      "name": "Initialized",
      "type": "event"
    },
    {
      "anonymous": false,
      "inputs": [
        {
          "indexed": true,
          "internalType": "bytes32",
          "name": "role",
          "type": "bytes32"
        },
        {
          "indexed": true,
          "internalType": "bytes32",
          "name": "previousAdminRole",
          "type": "bytes32"
        },
        {
          "indexed": true,
          "internalType": "bytes32",
          "name": "newAdminRole",
          "type": "bytes32"
        }
      ],
      "name": "RoleAdminChanged",
      "type": "event"
    },
    {
      "anonymous": false,
      "inputs": [
        {
          "indexed": true,
          "internalType": "bytes32",
          "name": "role",
          "type": "bytes32"
        },
        {
          "indexed": true,
          "internalType": "address",
          "name": "account",
          "type": "address"
        },
        {
          "indexed": true,
          "internalType": "address",
          "name": "sender",
          "type": "address"
        }
      ],
      "name": "RoleGranted",
      "type": "event"
    },
    {
      "anonymous": false,
      "inputs": [
        {
          "indexed": true,
          "internalType": "bytes32",
          "name": "role",
          "type": "bytes32"
        },
        {
          "indexed": true,
          "internalType": "address",
          "name": "account",
          "type": "address"
        },
        {
          "indexed": true,
          "internalType": "address",
          "name": "sender",
          "type": "address"
        }
      ],
      "name": "RoleRevoked",
      "type": "event"
    },
    {
      "inputs": [],
      "name": "BOOKKEEPER_ADDRESS",
      "outputs": [
        {
          "internalType": "address",
          "name": "",
          "type": "address"
        }
      ],
      "stateMutability": "view",
      "type": "function"
    },
    {
      "inputs": [],
      "name": "DEFAULT_ADMIN_ROLE",
      "outputs": [
        {
          "internalType": "bytes32",
          "name": "",
          "type": "bytes32"
        }
      ],
      "stateMutability": "view",
      "type": "function"
    },
    {
      "inputs": [],
      "name": "FACTORY_ADDRESS",
      "outputs": [
        {
          "internalType": "address",
          "name": "",
          "type": "address"
        }
      ],
      "stateMutability": "view",
      "type": "function"
    },
    {
      "inputs": [
        {
          "components": [
            {
              "internalType": "uint256",
              "name": "loanAmount",
              "type": "uint256"
            },
            {
              "internalType": "uint256",
              "name": "collAmount",
              "type": "uint256"
            },
            {
              "internalType": "bytes",
              "name": "loanAsset",
              "type": "bytes"
            },
            {
              "internalType": "bytes",
              "name": "collAsset",
              "type": "bytes"
            },
            {
              "internalType": "uint256",
              "name": "minCollateralRatio",
              "type": "uint256"
            },
            {
              "internalType": "uint256",
              "name": "maxDuration",
              "type": "uint256"
            },
            {
              "internalType": "bool",
              "name": "isLeverage",
              "type": "bool"
            },
            {
              "components": [
                {
                  "internalType": "address",
                  "name": "addr",
                  "type": "address"
                },
                {
                  "internalType": "bytes",
                  "name": "parameters",
                  "type": "bytes"
                }
              ],
              "internalType": "struct PluginReference",
              "name": "lenderAccount",
              "type": "tuple"
            },
            {
              "components": [
                {
                  "internalType": "address",
                  "name": "addr",
                  "type": "address"
                },
                {
                  "internalType": "bytes",
                  "name": "parameters",
                  "type": "bytes"
                }
              ],
              "internalType": "struct PluginReference",
              "name": "borrowerAccount",
              "type": "tuple"
            },
            {
              "components": [
                {
                  "internalType": "address",
                  "name": "addr",
                  "type": "address"
                },
                {
                  "internalType": "bytes",
                  "name": "parameters",
                  "type": "bytes"
                }
              ],
              "internalType": "struct PluginReference",
              "name": "assessor",
              "type": "tuple"
            },
            {
              "components": [
                {
                  "internalType": "address",
                  "name": "addr",
                  "type": "address"
                },
                {
                  "internalType": "bytes",
                  "name": "parameters",
                  "type": "bytes"
                }
              ],
              "internalType": "struct PluginReference",
              "name": "liquidator",
              "type": "tuple"
            },
            {
              "components": [
                {
                  "internalType": "address",
                  "name": "addr",
                  "type": "address"
                },
                {
                  "internalType": "bytes",
                  "name": "parameters",
                  "type": "bytes"
                }
              ],
              "internalType": "struct PluginReference",
              "name": "loanOracle",
              "type": "tuple"
            },
            {
              "components": [
                {
                  "internalType": "address",
                  "name": "addr",
                  "type": "address"
                },
                {
                  "internalType": "bytes",
                  "name": "parameters",
                  "type": "bytes"
                }
              ],
              "internalType": "struct PluginReference",
              "name": "collOracle",
              "type": "tuple"
            },
            {
              "internalType": "address",
              "name": "factory",
              "type": "address"
            },
            {
              "components": [
                {
                  "internalType": "address",
                  "name": "addr",
                  "type": "address"
                },
                {
                  "internalType": "bytes",
                  "name": "parameters",
                  "type": "bytes"
                }
              ],
              "internalType": "struct PluginReference",
              "name": "position",
              "type": "tuple"
            },
            {
              "internalType": "uint256",
              "name": "deploymentTime",
              "type": "uint256"
            },
            {
              "internalType": "bytes",
              "name": "fillerData",
              "type": "bytes"
            }
          ],
          "internalType": "struct Agreement",
          "name": "agreement",
          "type": "tuple"
        },
        {
          "internalType": "uint256",
          "name": "amountToClose",
          "type": "uint256"
        }
      ],
      "name": "close",
      "outputs": [],
      "stateMutability": "nonpayable",
      "type": "function"
    },
    {
      "inputs": [],
      "name": "createClone",
      "outputs": [
        {
          "internalType": "address",
          "name": "addr",
          "type": "address"
        }
      ],
      "stateMutability": "nonpayable",
      "type": "function"
    },
    {
      "inputs": [
        {
          "components": [
            {
              "internalType": "uint256",
              "name": "loanAmount",
              "type": "uint256"
            },
            {
              "internalType": "uint256",
              "name": "collAmount",
              "type": "uint256"
            },
            {
              "internalType": "bytes",
              "name": "loanAsset",
              "type": "bytes"
            },
            {
              "internalType": "bytes",
              "name": "collAsset",
              "type": "bytes"
            },
            {
              "internalType": "uint256",
              "name": "minCollateralRatio",
              "type": "uint256"
            },
            {
              "internalType": "uint256",
              "name": "maxDuration",
              "type": "uint256"
            },
            {
              "internalType": "bool",
              "name": "isLeverage",
              "type": "bool"
            },
            {
              "components": [
                {
                  "internalType": "address",
                  "name": "addr",
                  "type": "address"
                },
                {
                  "internalType": "bytes",
                  "name": "parameters",
                  "type": "bytes"
                }
              ],
              "internalType": "struct PluginReference",
              "name": "lenderAccount",
              "type": "tuple"
            },
            {
              "components": [
                {
                  "internalType": "address",
                  "name": "addr",
                  "type": "address"
                },
                {
                  "internalType": "bytes",
                  "name": "parameters",
                  "type": "bytes"
                }
              ],
              "internalType": "struct PluginReference",
              "name": "borrowerAccount",
              "type": "tuple"
            },
            {
              "components": [
                {
                  "internalType": "address",
                  "name": "addr",
                  "type": "address"
                },
                {
                  "internalType": "bytes",
                  "name": "parameters",
                  "type": "bytes"
                }
              ],
              "internalType": "struct PluginReference",
              "name": "assessor",
              "type": "tuple"
            },
            {
              "components": [
                {
                  "internalType": "address",
                  "name": "addr",
                  "type": "address"
                },
                {
                  "internalType": "bytes",
                  "name": "parameters",
                  "type": "bytes"
                }
              ],
              "internalType": "struct PluginReference",
              "name": "liquidator",
              "type": "tuple"
            },
            {
              "components": [
                {
                  "internalType": "address",
                  "name": "addr",
                  "type": "address"
                },
                {
                  "internalType": "bytes",
                  "name": "parameters",
                  "type": "bytes"
                }
              ],
              "internalType": "struct PluginReference",
              "name": "loanOracle",
              "type": "tuple"
            },
            {
              "components": [
                {
                  "internalType": "address",
                  "name": "addr",
                  "type": "address"
                },
                {
                  "internalType": "bytes",
                  "name": "parameters",
                  "type": "bytes"
                }
              ],
              "internalType": "struct PluginReference",
              "name": "collOracle",
              "type": "tuple"
            },
            {
              "internalType": "address",
              "name": "factory",
              "type": "address"
            },
            {
              "components": [
                {
                  "internalType": "address",
                  "name": "addr",
                  "type": "address"
                },
                {
                  "internalType": "bytes",
                  "name": "parameters",
                  "type": "bytes"
                }
              ],
              "internalType": "struct PluginReference",
              "name": "position",
              "type": "tuple"
            },
            {
              "internalType": "uint256",
              "name": "deploymentTime",
              "type": "uint256"
            },
            {
              "internalType": "bytes",
              "name": "fillerData",
              "type": "bytes"
            }
          ],
          "internalType": "struct Agreement",
          "name": "agreement",
          "type": "tuple"
        }
      ],
      "name": "getCloseAmount",
      "outputs": [
        {
          "internalType": "uint256",
          "name": "",
          "type": "uint256"
        }
      ],
      "stateMutability": "nonpayable",
      "type": "function"
    },
    {
      "inputs": [
        {
          "internalType": "bytes32",
          "name": "role",
          "type": "bytes32"
        }
      ],
      "name": "getRoleAdmin",
      "outputs": [
        {
          "internalType": "bytes32",
          "name": "",
          "type": "bytes32"
        }
      ],
      "stateMutability": "view",
      "type": "function"
    },
    {
      "inputs": [
        {
          "internalType": "bytes32",
          "name": "role",
          "type": "bytes32"
        },
        {
          "internalType": "address",
          "name": "account",
          "type": "address"
        }
      ],
      "name": "grantRole",
      "outputs": [],
      "stateMutability": "nonpayable",
      "type": "function"
    },
    {
      "inputs": [
        {
          "internalType": "bytes32",
          "name": "role",
          "type": "bytes32"
        },
        {
          "internalType": "address",
          "name": "account",
          "type": "address"
        }
      ],
      "name": "hasRole",
      "outputs": [
        {
          "internalType": "bool",
          "name": "",
          "type": "bool"
        }
      ],
      "stateMutability": "view",
      "type": "function"
    },
    {
      "inputs": [],
      "name": "initialize",
      "outputs": [],
      "stateMutability": "nonpayable",
      "type": "function"
    },
    {
      "inputs": [
        {
          "components": [
            {
              "internalType": "uint256",
              "name": "loanAmount",
              "type": "uint256"
            },
            {
              "internalType": "uint256",
              "name": "collAmount",
              "type": "uint256"
            },
            {
              "internalType": "bytes",
              "name": "loanAsset",
              "type": "bytes"
            },
            {
              "internalType": "bytes",
              "name": "collAsset",
              "type": "bytes"
            },
            {
              "internalType": "uint256",
              "name": "minCollateralRatio",
              "type": "uint256"
            },
            {
              "internalType": "uint256",
              "name": "maxDuration",
              "type": "uint256"
            },
            {
              "internalType": "bool",
              "name": "isLeverage",
              "type": "bool"
            },
            {
              "components": [
                {
                  "internalType": "address",
                  "name": "addr",
                  "type": "address"
                },
                {
                  "internalType": "bytes",
                  "name": "parameters",
                  "type": "bytes"
                }
              ],
              "internalType": "struct PluginReference",
              "name": "lenderAccount",
              "type": "tuple"
            },
            {
              "components": [
                {
                  "internalType": "address",
                  "name": "addr",
                  "type": "address"
                },
                {
                  "internalType": "bytes",
                  "name": "parameters",
                  "type": "bytes"
                }
              ],
              "internalType": "struct PluginReference",
              "name": "borrowerAccount",
              "type": "tuple"
            },
            {
              "components": [
                {
                  "internalType": "address",
                  "name": "addr",
                  "type": "address"
                },
                {
                  "internalType": "bytes",
                  "name": "parameters",
                  "type": "bytes"
                }
              ],
              "internalType": "struct PluginReference",
              "name": "assessor",
              "type": "tuple"
            },
            {
              "components": [
                {
                  "internalType": "address",
                  "name": "addr",
                  "type": "address"
                },
                {
                  "internalType": "bytes",
                  "name": "parameters",
                  "type": "bytes"
                }
              ],
              "internalType": "struct PluginReference",
              "name": "liquidator",
              "type": "tuple"
            },
            {
              "components": [
                {
                  "internalType": "address",
                  "name": "addr",
                  "type": "address"
                },
                {
                  "internalType": "bytes",
                  "name": "parameters",
                  "type": "bytes"
                }
              ],
              "internalType": "struct PluginReference",
              "name": "loanOracle",
              "type": "tuple"
            },
            {
              "components": [
                {
                  "internalType": "address",
                  "name": "addr",
                  "type": "address"
                },
                {
                  "internalType": "bytes",
                  "name": "parameters",
                  "type": "bytes"
                }
              ],
              "internalType": "struct PluginReference",
              "name": "collOracle",
              "type": "tuple"
            },
            {
              "internalType": "address",
              "name": "factory",
              "type": "address"
            },
            {
              "components": [
                {
                  "internalType": "address",
                  "name": "addr",
                  "type": "address"
                },
                {
                  "internalType": "bytes",
                  "name": "parameters",
                  "type": "bytes"
                }
              ],
              "internalType": "struct PluginReference",
              "name": "position",
              "type": "tuple"
            },
            {
              "internalType": "uint256",
              "name": "deploymentTime",
              "type": "uint256"
            },
            {
              "internalType": "bytes",
              "name": "fillerData",
              "type": "bytes"
            }
          ],
          "internalType": "struct Agreement",
          "name": "agreement",
          "type": "tuple"
        }
      ],
      "name": "open",
      "outputs": [],
      "stateMutability": "nonpayable",
      "type": "function"
    },
    {
      "inputs": [
        {
          "internalType": "bytes",
          "name": "liquidatorLogic",
          "type": "bytes"
        }
      ],
      "name": "passThrough",
      "outputs": [],
      "stateMutability": "payable",
      "type": "function"
    },
    {
      "inputs": [
        {
          "internalType": "bytes32",
          "name": "role",
          "type": "bytes32"
        },
        {
          "internalType": "address",
          "name": "account",
          "type": "address"
        }
      ],
      "name": "renounceRole",
      "outputs": [],
      "stateMutability": "nonpayable",
      "type": "function"
    },
    {
      "inputs": [
        {
          "internalType": "bytes32",
          "name": "role",
          "type": "bytes32"
        },
        {
          "internalType": "address",
          "name": "account",
          "type": "address"
        }
      ],
      "name": "revokeRole",
      "outputs": [],
      "stateMutability": "nonpayable",
      "type": "function"
    },
    {
      "inputs": [
        {
          "internalType": "bytes4",
          "name": "interfaceId",
          "type": "bytes4"
        }
      ],
      "name": "supportsInterface",
      "outputs": [
        {
          "internalType": "bool",
          "name": "",
          "type": "bool"
        }
      ],
      "stateMutability": "view",
      "type": "function"
    },
    {
      "inputs": [
        {
          "internalType": "address",
          "name": "controller",
          "type": "address"
        }
      ],
      "name": "transferContract",
      "outputs": [],
      "stateMutability": "nonpayable",
      "type": "function"
    },
    {
      "inputs": [
        {
          "components": [
            {
              "internalType": "uint256",
              "name": "loanAmount",
              "type": "uint256"
            },
            {
              "internalType": "uint256",
              "name": "collAmount",
              "type": "uint256"
            },
            {
              "internalType": "bytes",
              "name": "loanAsset",
              "type": "bytes"
            },
            {
              "internalType": "bytes",
              "name": "collAsset",
              "type": "bytes"
            },
            {
              "internalType": "uint256",
              "name": "minCollateralRatio",
              "type": "uint256"
            },
            {
              "internalType": "uint256",
              "name": "maxDuration",
              "type": "uint256"
            },
            {
              "internalType": "bool",
              "name": "isLeverage",
              "type": "bool"
            },
            {
              "components": [
                {
                  "internalType": "address",
                  "name": "addr",
                  "type": "address"
                },
                {
                  "internalType": "bytes",
                  "name": "parameters",
                  "type": "bytes"
                }
              ],
              "internalType": "struct PluginReference",
              "name": "lenderAccount",
              "type": "tuple"
            },
            {
              "components": [
                {
                  "internalType": "address",
                  "name": "addr",
                  "type": "address"
                },
                {
                  "internalType": "bytes",
                  "name": "parameters",
                  "type": "bytes"
                }
              ],
              "internalType": "struct PluginReference",
              "name": "borrowerAccount",
              "type": "tuple"
            },
            {
              "components": [
                {
                  "internalType": "address",
                  "name": "addr",
                  "type": "address"
                },
                {
                  "internalType": "bytes",
                  "name": "parameters",
                  "type": "bytes"
                }
              ],
              "internalType": "struct PluginReference",
              "name": "assessor",
              "type": "tuple"
            },
            {
              "components": [
                {
                  "internalType": "address",
                  "name": "addr",
                  "type": "address"
                },
                {
                  "internalType": "bytes",
                  "name": "parameters",
                  "type": "bytes"
                }
              ],
              "internalType": "struct PluginReference",
              "name": "liquidator",
              "type": "tuple"
            },
            {
              "components": [
                {
                  "internalType": "address",
                  "name": "addr",
                  "type": "address"
                },
                {
                  "internalType": "bytes",
                  "name": "parameters",
                  "type": "bytes"
                }
              ],
              "internalType": "struct PluginReference",
              "name": "loanOracle",
              "type": "tuple"
            },
            {
              "components": [
                {
                  "internalType": "address",
                  "name": "addr",
                  "type": "address"
                },
                {
                  "internalType": "bytes",
                  "name": "parameters",
                  "type": "bytes"
                }
              ],
              "internalType": "struct PluginReference",
              "name": "collOracle",
              "type": "tuple"
            },
            {
              "internalType": "address",
              "name": "factory",
              "type": "address"
            },
            {
              "components": [
                {
                  "internalType": "address",
                  "name": "addr",
                  "type": "address"
                },
                {
                  "internalType": "bytes",
                  "name": "parameters",
                  "type": "bytes"
                }
              ],
              "internalType": "struct PluginReference",
              "name": "position",
              "type": "tuple"
            },
            {
              "internalType": "uint256",
              "name": "deploymentTime",
              "type": "uint256"
            },
            {
              "internalType": "bytes",
              "name": "fillerData",
              "type": "bytes"
            }
          ],
          "internalType": "struct Agreement",
          "name": "agreement",
          "type": "tuple"
        }
      ],
      "name": "unwind",
      "outputs": [],
      "stateMutability": "nonpayable",
      "type": "function"
    },
    {
      "stateMutability": "payable",
      "type": "receive"
    }
  ],
  "bytecode": "0x60c06040523480156200001157600080fd5b5060405162002ed938038062002ed98339810160408190526200003491620001fa565b80806200004062000089565b6001600160a01b03811660808190523060a05262000080907f03c7040f8e5b938f657d4600d08b1b77f390141994844cbb34ff043f26ac6cd7906200014a565b5050506200022c565b600154610100900460ff1615620000f65760405162461bcd60e51b815260206004820152602760248201527f496e697469616c697a61626c653a20636f6e747261637420697320696e697469604482015266616c697a696e6760c81b606482015260840160405180910390fd5b60015460ff9081161462000148576001805460ff191660ff9081179091556040519081527f7f26b83ff96e1f2b6a682f133852f6798a09c465da95921460cefb38474024989060200160405180910390a15b565b6200015682826200015a565b5050565b6000828152602081815260408083206001600160a01b038516845290915290205460ff1662000156576000828152602081815260408083206001600160a01b03851684529091529020805460ff19166001179055620001b63390565b6001600160a01b0316816001600160a01b0316837f2f8788117e7eff1d82e926ec794901d17c78024a50270940304540a733656f0d60405160405180910390a45050565b6000602082840312156200020d57600080fd5b81516001600160a01b03811681146200022557600080fd5b9392505050565b60805160a051612c416200029860003960008181610287015281816104d7015281816105b00152818161063a0152818161082a0152818161097c015281816109f001528181610ada01528181610b580152610e2a0152600081816103340152610a640152612c416000f3fe6080604052600436106101125760003560e01c80638129fc1c116100a5578063a217fddf11610074578063be52bce711610059578063be52bce714610356578063d547741f14610369578063edd9e4b51461038957600080fd5b8063a217fddf1461030d578063a29929251461032257600080fd5b80638129fc1c146102605780638823151b146102755780638f9acff3146102a957806391d14854146102c957600080fd5b806347635dac116100e157806347635dac146101d35780635aa56409146101f357806364f2d4b9146102135780636c3fc8311461024057600080fd5b806301ffc9a71461011e578063248a9ca3146101535780632f2ff15d1461019157806336568abe146101b357600080fd5b3661011957005b600080fd5b34801561012a57600080fd5b5061013e610139366004611d8f565b6103a9565b60405190151581526020015b60405180910390f35b34801561015f57600080fd5b5061018361016e366004611db9565b60009081526020819052604090206001015490565b60405190815260200161014a565b34801561019d57600080fd5b506101b16101ac366004611df2565b610412565b005b3480156101bf57600080fd5b506101b16101ce366004611df2565b61043c565b3480156101df57600080fd5b506101b16101ee366004611e22565b6104cd565b3480156101ff57600080fd5b506101b161020e366004611e58565b6105a6565b34801561021f57600080fd5b5061022861062d565b6040516001600160a01b03909116815260200161014a565b34801561024c57600080fd5b506101b161025b366004611e95565b610820565b34801561026c57600080fd5b506101b16108a8565b34801561028157600080fd5b506102287f000000000000000000000000000000000000000000000000000000000000000081565b3480156102b557600080fd5b506101b16102c4366004611e58565b610ad0565b3480156102d557600080fd5b5061013e6102e4366004611df2565b6000918252602082815260408084206001600160a01b0393909316845291905290205460ff1690565b34801561031957600080fd5b50610183600081565b34801561032e57600080fd5b506102287f000000000000000000000000000000000000000000000000000000000000000081565b6101b1610364366004611eda565b610b4e565b34801561037557600080fd5b506101b1610384366004611df2565b610df9565b34801561039557600080fd5b506101836103a436600461213b565b610e1e565b60006001600160e01b031982167f7965db0b00000000000000000000000000000000000000000000000000000000148061040c57507f01ffc9a7000000000000000000000000000000000000000000000000000000006001600160e01b03198316145b92915050565b60008281526020819052604090206001015461042d81610ea1565b6104378383610eab565b505050565b6001600160a01b03811633146104bf5760405162461bcd60e51b815260206004820152602f60248201527f416363657373436f6e74726f6c3a2063616e206f6e6c792072656e6f756e636560448201527f20726f6c657320666f722073656c66000000000000000000000000000000000060648201526084015b60405180910390fd5b6104c98282610f49565b5050565b6001600160a01b037f00000000000000000000000000000000000000000000000000000000000000001630036105405760405162461bcd60e51b8152602060048201526018602482015277195e1958c81b9bdd08185b1b1bddd959081a5b881a5b5c1b60421b60448201526064016104b6565b600061054b81610ea1565b610556600083610412565b61056160003361043c565b604080513381526001600160a01b03841660208201527fa06677f7b64342b4bcbde423684dbdb5356acfe41ad0285b6ecbe6dc4bf427f2910160405180910390a15050565b6001600160a01b037f00000000000000000000000000000000000000000000000000000000000000001630036106195760405162461bcd60e51b8152602060048201526018602482015277195e1958c81b9bdd08185b1b1bddd959081a5b881a5b5c1b60421b60448201526064016104b6565b600061062481610ea1565b6104c982610fc8565b6000306001600160a01b037f000000000000000000000000000000000000000000000000000000000000000016146106a75760405162461bcd60e51b815260206004820152601960248201527f65786563206e6f7420616c6c6f77656420696e2070726f78790000000000000060448201526064016104b6565b7f03c7040f8e5b938f657d4600d08b1b77f390141994844cbb34ff043f26ac6cd76106d181610ea1565b6106da30611247565b60408051600481526024810182526020810180517bffffffffffffffffffffffffffffffffffffffffffffffffffffffff167f8129fc1c0000000000000000000000000000000000000000000000000000000017905290519193506000916001600160a01b0385169161074c91612378565b6000604051808303816000865af19150503d8060008114610789576040519150601f19603f3d011682016040523d82523d6000602084013e61078e565b606091505b50509050806107df5760405162461bcd60e51b815260206004820152601c60248201527f637265617465436c6f6e653a20696e697469616c697a65206661696c0000000060448201526064016104b6565b6040516001600160a01b03841681527fbe2f3d28fdeb5839123d65fd47ec2f5915c715d2b527b9e229123706fdecfc859060200160405180910390a1505090565b6001600160a01b037f00000000000000000000000000000000000000000000000000000000000000001630036108935760405162461bcd60e51b8152602060048201526018602482015277195e1958c81b9bdd08185b1b1bddd959081a5b881a5b5c1b60421b60448201526064016104b6565b600061089e81610ea1565b61043783836112e3565b600154610100900460ff16158080156108c557506001805460ff16105b806108de5750303b1580156108de57506001805460ff16145b6109505760405162461bcd60e51b815260206004820152602e60248201527f496e697469616c697a61626c653a20636f6e747261637420697320616c72656160448201527f647920696e697469616c697a656400000000000000000000000000000000000060648201526084016104b6565b6001805460ff1916811790558015610972576001805461ff0019166101001790555b6001600160a01b037f00000000000000000000000000000000000000000000000000000000000000001630036109e55760405162461bcd60e51b8152602060048201526018602482015277195e1958c81b9bdd08185b1b1bddd959081a5b881a5b5c1b60421b60448201526064016104b6565b336001600160a01b037f00000000000000000000000000000000000000000000000000000000000000001614610a5d5760405162461bcd60e51b815260206004820152601760248201527f73656e64657220213d20696d706c20636f6e747261637400000000000000000060448201526064016104b6565b610a8860007f000000000000000000000000000000000000000000000000000000000000000061179c565b8015610acd576001805461ff00191681556040519081527f7f26b83ff96e1f2b6a682f133852f6798a09c465da95921460cefb38474024989060200160405180910390a15b50565b6001600160a01b037f0000000000000000000000000000000000000000000000000000000000000000163003610b435760405162461bcd60e51b8152602060048201526018602482015277195e1958c81b9bdd08185b1b1bddd959081a5b881a5b5c1b60421b60448201526064016104b6565b60006104c981610ea1565b6001600160a01b037f0000000000000000000000000000000000000000000000000000000000000000163003610bc15760405162461bcd60e51b8152602060048201526018602482015277195e1958c81b9bdd08185b1b1bddd959081a5b881a5b5c1b60421b60448201526064016104b6565b6000610bcc81610ea1565b6000610bda838501856124a7565b905060005b815151811015610df25781604001518181518110610bff57610bff6125b8565b6020026020010151610cf957600082600001518281518110610c2357610c236125b8565b60200260200101516001600160a01b03163484602001518481518110610c4b57610c4b6125b8565b6020026020010151604051610c609190612378565b60006040518083038185875af1925050503d8060008114610c9d576040519150601f19603f3d011682016040523d82523d6000602084013e610ca2565b606091505b5050905080610cf35760405162461bcd60e51b815260206004820152600b60248201527f43616c6c206661696c656400000000000000000000000000000000000000000060448201526064016104b6565b50610de0565b600082600001518281518110610d1157610d116125b8565b60200260200101516001600160a01b031683602001518381518110610d3857610d386125b8565b6020026020010151604051610d4d9190612378565b600060405180830381855af49150503d8060008114610d88576040519150601f19603f3d011682016040523d82523d6000602084013e610d8d565b606091505b5050905080610dde5760405162461bcd60e51b815260206004820152601360248201527f44656c656761746543616c6c206661696c65640000000000000000000000000060448201526064016104b6565b505b80610dea816125e4565b915050610bdf565b5050505050565b600082815260208190526040902060010154610e1481610ea1565b6104378383610f49565b60006001600160a01b037f0000000000000000000000000000000000000000000000000000000000000000163003610e935760405162461bcd60e51b8152602060048201526018602482015277195e1958c81b9bdd08185b1b1bddd959081a5b881a5b5c1b60421b60448201526064016104b6565b61040c826117a6565b919050565b610acd8133611b22565b6000828152602081815260408083206001600160a01b038516845290915290205460ff166104c9576000828152602081815260408083206001600160a01b03851684529091529020805460ff19166001179055610f053390565b6001600160a01b0316816001600160a01b0316837f2f8788117e7eff1d82e926ec794901d17c78024a50270940304540a733656f0d60405160405180910390a45050565b6000828152602081815260408083206001600160a01b038516845290915290205460ff16156104c9576000828152602081815260408083206001600160a01b0385168085529252808320805460ff1916905551339285917ff6391f5c32d9c69d2a47ea670b442974b53935d1edc7fd64eb21e047a839171b9190a45050565b6000610fd86101008301836125fd565b610fe6906020810190612613565b810190610ff39190612661565b905060006110046040840184612613565b81019061101191906126aa565b90506000611023610200850185612613565b810190611030919061275a565b9050816000015160ff166002148061104f5750816000015160ff166003145b801561105d57506060820151155b1561106a57805160608301525b6000670de0b6b3a76400008360400151600a6110869190612862565b611091908735612871565b61109b9190612888565b835190915060ff166001036111315760208301518451604051636a71dedb60e11b81526001600160a01b039283166004820152911660248201526044810182905273__$0dbc1134add5307a68154fc29708de467d$__9063d4e3bdb6906064015b60006040518083038186803b15801561111457600080fd5b505af4158015611128573d6000803e3d6000fd5b50505050610df2565b825160ff1660020361118a5760208301518451606085015160808601516040516336c96b7360e21b815273__$0dbc1134add5307a68154fc29708de467d$__9463db25adcc946110fc94919330939192916004016128d6565b825160ff166003036111ff5760208301518451606085015160808601516040517fffc8772700000000000000000000000000000000000000000000000000000000815273__$0dbc1134add5307a68154fc29708de467d$__9463ffc87727946110fc949193309391929189919060040161291b565b60405162461bcd60e51b815260206004820152601a60248201527f556e737570706f72746564206173736574207374616e6461726400000000000060448201526064016104b6565b6000763d602d80600a3d3981f3363d3d373d3d3d363d730000008260601b60e81c176000526e5af43d82803e903d91602b57fd5bf38260781b17602052603760096000f090506001600160a01b038116610e9c5760405162461bcd60e51b815260206004820152601660248201527f455243313136373a20637265617465206661696c65640000000000000000000060448201526064016104b6565b60006112f36101008401846125fd565b611301906020810190612613565b81019061130e9190612661565b90506000611320610200850185612613565b81019061132d919061275a565b9050600061133e6040860186612613565b81019061134b91906126aa565b9050806000015160ff166002148061136a5750806000015160ff166003145b801561137857506060810151155b1561138557815160608201525b60006113946060870187612613565b8101906113a191906126aa565b9050806000015160ff16600214806113c05750806000015160ff166003145b80156113ce57506060810151155b156113db57825160608201525b815160ff1660010361148c5760208201516001600160a01b031663095ea7b361140760e08901896125fd565b611415906020810190611e22565b6040516001600160e01b031960e084901b1681526001600160a01b039091166004820152602481018890526044016020604051808303816000875af1158015611462573d6000803e3d6000fd5b505050506040513d601f19601f820116820180604052508101906114869190612967565b50611557565b805160ff1660020361152b5760208101516001600160a01b031663a22cb4656114b860e08901896125fd565b6114c6906020810190611e22565b6040516001600160e01b031960e084901b1681526001600160a01b03909116600482015260016024820152604401600060405180830381600087803b15801561150e57600080fd5b505af1158015611522573d6000803e3d6000fd5b50505050611557565b805160ff166003036111ff5760208101516001600160a01b031663a22cb4656114b860e08901896125fd565b61156460e08701876125fd565b611572906020810190611e22565b6001600160a01b03166306b1c4c961158d6040890189612613565b8861159b60e08c018c6125fd565b6115a9906020810190612613565b6040518663ffffffff1660e01b81526004016115c99594939291906129ad565b600060405180830381600087803b1580156115e357600080fd5b505af11580156115f7573d6000803e3d6000fd5b505050506000670de0b6b3a76400008260400151600a6116179190612862565b6116259060208a0135612871565b61162f9190612888565b825190915060ff166001036116c55760208201518551604051636a71dedb60e11b81526001600160a01b039283166004820152911660248201526044810182905273__$0dbc1134add5307a68154fc29708de467d$__9063d4e3bdb6906064015b60006040518083038186803b1580156116a857600080fd5b505af41580156116bc573d6000803e3d6000fd5b50505050611793565b815160ff1660020361171e5760208201518551606084015160808501516040516336c96b7360e21b815273__$0dbc1134add5307a68154fc29708de467d$__9463db25adcc9461169094919330939192916004016128d6565b815160ff166003036111ff5760208201518551606084015160808501516040517fffc8772700000000000000000000000000000000000000000000000000000000815273__$0dbc1134add5307a68154fc29708de467d$__9463ffc8772794611690949193309391929189919060040161291b565b50505050505050565b6104c98282610eab565b60008082606001518060200190518101906117c191906129da565b905060008361020001518060200190518101906117de9190612ac5565b9050816000015160ff16600214806117fd5750816000015160ff166003145b801561180b57506060820151155b1561181857805160608301525b60208201516040830151835160009060ff16600103611963576040517f70a082310000000000000000000000000000000000000000000000000000000081523060048201526000906001600160a01b038516906370a08231906024015b602060405180830381865afa158015611892573d6000803e3d6000fd5b505050506040513d601f19601f820116820180604052508101906118b69190612ae9565b90506118c383600a612862565b61018089015180516020909101516102008b015160405163f09f407960e01b81526001600160a01b039093169263f09f407992611904929091600401612b02565b6020604051808303816000875af1158015611923573d6000803e3d6000fd5b505050506040513d601f19601f820116820180604052508101906119479190612ae9565b6119519083612871565b61195b9190612888565b915050611b18565b845160ff16600203611ab55760008086602001516001600160a01b0316636352211e88606001516040518263ffffffff1660e01b81526004016119a891815260200190565b602060405180830381865afa1580156119c5573d6000803e3d6000fd5b505050506040513d601f19601f820116820180604052508101906119e99190612b30565b9050306001600160a01b03821603611a045760019150611a09565b600091505b611a1484600a612862565b6101808a015180516020909101516102008c015160405163f09f407960e01b81526001600160a01b039093169263f09f407992611a55929091600401612b02565b6020604051808303816000875af1158015611a74573d6000803e3d6000fd5b505050506040513d601f19601f82011682018060405250810190611a989190612ae9565b611aa29084612871565b611aac9190612888565b92505050611b18565b845160ff166003036111ff57602085015160608601516040517efdd58e00000000000000000000000000000000000000000000000000000000815230600482015260248101919091526000916001600160a01b03169062fdd58e90604401611875565b9695505050505050565b6000828152602081815260408083206001600160a01b038516845290915290205460ff166104c957611b5381611b95565b611b5e836020611ba7565b604051602001611b6f929190612b4d565b60408051601f198184030181529082905262461bcd60e51b82526104b691600401612bce565b606061040c6001600160a01b03831660145b60606000611bb6836002612871565b611bc1906002612be1565b67ffffffffffffffff811115611bd957611bd9611f4c565b6040519080825280601f01601f191660200182016040528015611c03576020820181803683370190505b5090507f300000000000000000000000000000000000000000000000000000000000000081600081518110611c3a57611c3a6125b8565b60200101906001600160f81b031916908160001a9053507f780000000000000000000000000000000000000000000000000000000000000081600181518110611c8557611c856125b8565b60200101906001600160f81b031916908160001a9053506000611ca9846002612871565b611cb4906001612be1565b90505b6001811115611d39577f303132333435363738396162636465660000000000000000000000000000000085600f1660108110611cf557611cf56125b8565b1a60f81b828281518110611d0b57611d0b6125b8565b60200101906001600160f81b031916908160001a90535060049490941c93611d3281612bf4565b9050611cb7565b508315611d885760405162461bcd60e51b815260206004820181905260248201527f537472696e67733a20686578206c656e67746820696e73756666696369656e7460448201526064016104b6565b9392505050565b600060208284031215611da157600080fd5b81356001600160e01b031981168114611d8857600080fd5b600060208284031215611dcb57600080fd5b5035919050565b6001600160a01b0381168114610acd57600080fd5b8035610e9c81611dd2565b60008060408385031215611e0557600080fd5b823591506020830135611e1781611dd2565b809150509250929050565b600060208284031215611e3457600080fd5b8135611d8881611dd2565b60006102208284031215611e5257600080fd5b50919050565b600060208284031215611e6a57600080fd5b813567ffffffffffffffff811115611e8157600080fd5b611e8d84828501611e3f565b949350505050565b60008060408385031215611ea857600080fd5b823567ffffffffffffffff811115611ebf57600080fd5b611ecb85828601611e3f565b95602094909401359450505050565b60008060208385031215611eed57600080fd5b823567ffffffffffffffff80821115611f0557600080fd5b818501915085601f830112611f1957600080fd5b813581811115611f2857600080fd5b866020828501011115611f3a57600080fd5b60209290920196919550909350505050565b634e487b7160e01b600052604160045260246000fd5b6040805190810167ffffffffffffffff81118282101715611f8557611f85611f4c565b60405290565b604051610220810167ffffffffffffffff81118282101715611f8557611f85611f4c565b6040516060810167ffffffffffffffff81118282101715611f8557611f85611f4c565b60405160a0810167ffffffffffffffff81118282101715611f8557611f85611f4c565b6040516020810167ffffffffffffffff81118282101715611f8557611f85611f4c565b604051601f8201601f1916810167ffffffffffffffff8111828210171561204157612041611f4c565b604052919050565b600067ffffffffffffffff82111561206357612063611f4c565b50601f01601f191660200190565b600082601f83011261208257600080fd5b813561209561209082612049565b612018565b8181528460208386010111156120aa57600080fd5b816020850160208301376000918101602001919091529392505050565b8015158114610acd57600080fd5b8035610e9c816120c7565b6000604082840312156120f257600080fd5b6120fa611f62565b9050813561210781611dd2565b8152602082013567ffffffffffffffff81111561212357600080fd5b61212f84828501612071565b60208301525092915050565b60006020828403121561214d57600080fd5b813567ffffffffffffffff8082111561216557600080fd5b90830190610220828603121561217a57600080fd5b612182611f8b565b82358152602083013560208201526040830135828111156121a257600080fd5b6121ae87828601612071565b6040830152506060830135828111156121c657600080fd5b6121d287828601612071565b6060830152506080830135608082015260a083013560a08201526121f860c084016120d5565b60c082015260e08301358281111561220f57600080fd5b61221b878286016120e0565b60e083015250610100808401358381111561223557600080fd5b612241888287016120e0565b828401525050610120808401358381111561225b57600080fd5b612267888287016120e0565b828401525050610140808401358381111561228157600080fd5b61228d888287016120e0565b82840152505061016080840135838111156122a757600080fd5b6122b3888287016120e0565b82840152505061018080840135838111156122cd57600080fd5b6122d9888287016120e0565b8284015250506101a06122ed818501611de7565b908201526101c0838101358381111561230557600080fd5b612311888287016120e0565b8284015250506101e0808401358183015250610200808401358381111561233757600080fd5b61234388828701612071565b918301919091525095945050505050565b60005b8381101561236f578181015183820152602001612357565b50506000910152565b6000825161238a818460208701612354565b9190910192915050565b600067ffffffffffffffff8211156123ae576123ae611f4c565b5060051b60200190565b600082601f8301126123c957600080fd5b813560206123d961209083612394565b82815260059290921b840181019181810190868411156123f857600080fd5b8286015b8481101561243857803567ffffffffffffffff81111561241c5760008081fd5b61242a8986838b0101612071565b8452509183019183016123fc565b509695505050505050565b600082601f83011261245457600080fd5b8135602061246461209083612394565b82815260059290921b8401810191818101908684111561248357600080fd5b8286015b8481101561243857803561249a816120c7565b8352918301918301612487565b600060208083850312156124ba57600080fd5b823567ffffffffffffffff808211156124d257600080fd5b90840190606082870312156124e657600080fd5b6124ee611faf565b8235828111156124fd57600080fd5b8301601f8101881361250e57600080fd5b803561251c61209082612394565b81815260059190911b8201860190868101908a83111561253b57600080fd5b928701925b8284101561256257833561255381611dd2565b82529287019290870190612540565b8452505050828401358281111561257857600080fd5b612584888286016123b8565b8583015250604083013593508184111561259d57600080fd5b6125a987858501612443565b60408201529695505050505050565b634e487b7160e01b600052603260045260246000fd5b634e487b7160e01b600052601160045260246000fd5b6000600182016125f6576125f66125ce565b5060010190565b60008235603e1983360301811261238a57600080fd5b6000808335601e1984360301811261262a57600080fd5b83018035915067ffffffffffffffff82111561264557600080fd5b60200191503681900382131561265a57600080fd5b9250929050565b60006040828403121561267357600080fd5b61267b611f62565b823561268681611dd2565b81526020928301359281019290925250919050565b60ff81168114610acd57600080fd5b6000602082840312156126bc57600080fd5b813567ffffffffffffffff808211156126d457600080fd5b9083019060a082860312156126e857600080fd5b6126f0611fd2565b82356126fb8161269b565b8152602083013561270b81611dd2565b6020820152604083013561271e8161269b565b60408201526060838101359082015260808301358281111561273f57600080fd5b61274b87828601612071565b60808301525095945050505050565b60006020828403121561276c57600080fd5b612774611ff5565b9135825250919050565b600181815b808511156127b957816000190482111561279f5761279f6125ce565b808516156127ac57918102915b93841c9390800290612783565b509250929050565b6000826127d05750600161040c565b816127dd5750600061040c565b81600181146127f357600281146127fd57612819565b600191505061040c565b60ff84111561280e5761280e6125ce565b50506001821b61040c565b5060208310610133831016604e8410600b841016171561283c575081810a61040c565b612846838361277e565b806000190482111561285a5761285a6125ce565b029392505050565b6000611d8860ff8416836127c1565b808202811582820484141761040c5761040c6125ce565b6000826128a557634e487b7160e01b600052601260045260246000fd5b500490565b600081518084526128c2816020860160208601612354565b601f01601f19169290920160200192915050565b60006001600160a01b038088168352808716602084015280861660408401525083606083015260a0608083015261291060a08301846128aa565b979650505050505050565b60006001600160a01b038089168352808816602084015280871660408401525084606083015283608083015260c060a083015261295b60c08301846128aa565b98975050505050505050565b60006020828403121561297957600080fd5b8151611d88816120c7565b81835281816020850137506000828201602090810191909152601f909101601f19169091010190565b6060815260006129c1606083018789612984565b856020840152828103604084015261295b818587612984565b600060208083850312156129ed57600080fd5b825167ffffffffffffffff80821115612a0557600080fd5b9084019060a08287031215612a1957600080fd5b612a21611fd2565b8251612a2c8161269b565b815282840151612a3b81611dd2565b818501526040830151612a4d8161269b565b604082015260608381015190820152608083015182811115612a6e57600080fd5b80840193505086601f840112612a8357600080fd5b82519150612a9361209083612049565b8281528785848601011115612aa757600080fd5b612ab683868301878701612354565b60808201529695505050505050565b600060208284031215612ad757600080fd5b612adf611ff5565b9151825250919050565b600060208284031215612afb57600080fd5b5051919050565b604081526000612b1560408301856128aa565b8281036020840152612b2781856128aa565b95945050505050565b600060208284031215612b4257600080fd5b8151611d8881611dd2565b7f416363657373436f6e74726f6c3a206163636f756e7420000000000000000000815260008351612b85816017850160208801612354565b7f206973206d697373696e6720726f6c65200000000000000000000000000000006017918401918201528351612bc2816028840160208801612354565b01602801949350505050565b602081526000611d8860208301846128aa565b8082018082111561040c5761040c6125ce565b600081612c0357612c036125ce565b50600019019056fea2646970667358221220c8266da8bd6b13f846b7fb1e874bb2c1038a79ed8f43a9c1e3078100e535438164736f6c63430008130033",
  "linkReferences": {
    "src/libraries/LibUtilsPublic.sol": {
      "LibUtilsPublic": [
        {
          "length": 20,
          "start": 4982
        },
        {
          "length": 20,
          "start": 5109
        },
        {
          "length": 20,
          "start": 5223
        },
        {
          "length": 20,
          "start": 6410
        },
        {
          "length": 20,
          "start": 6537
        },
        {
          "length": 20,
          "start": 6651
        }
      ]
    }
  },
  "deployedLinkReferences": {
    "src/libraries/LibUtilsPublic.sol": {
      "LibUtilsPublic": [
        {
          "length": 20,
          "start": 4318
        },
        {
          "length": 20,
          "start": 4445
        },
        {
          "length": 20,
          "start": 4559
        },
        {
          "length": 20,
          "start": 5746
        },
        {
          "length": 20,
          "start": 5873
        },
        {
          "length": 20,
          "start": 5987
        }
      ]
    }
  }
}