{
  "_format": "hh-sol-artifact-1",
  "contractName": "WalletFactory",
  "sourceName": "src/plugins/position/implementations/Wallet.sol",
  "abi": [
    {
      "inputs": [
        {
          "internalType": "address",
          "name": "protocolAddr",
          "type": "address"
        }
      ],
      "stateMutability": "nonpayable",
      "type": "constructor"
    },
    {
      "anonymous": false,
      "inputs": [
        {
          "indexed": false,
          "internalType": "address",
          "name": "clone",
          "type": "address"
        }
      ],
      "name": "CloneCreated",
      "type": "event"
    },
    {
      "anonymous": false,
      "inputs": [
        {
          "indexed": false,
          "internalType": "address",
          "name": "previousController",
          "type": "address"
        },
        {
          "indexed": false,
          "internalType": "address",
          "name": "newController",
          "type": "address"
        }
      ],
      "name": "ControlTransferred",
      "type": "event"
    },
    {
      "anonymous": false,
      "inputs": [
        {
          "indexed": false,
          "internalType": "uint8",
          "name": "version",
          "type": "uint8"
        }
      ],
      "name": "Initialized",
      "type": "event"
    },
    {
      "anonymous": false,
      "inputs": [
        {
          "indexed": true,
          "internalType": "bytes32",
          "name": "role",
          "type": "bytes32"
        },
        {
          "indexed": true,
          "internalType": "bytes32",
          "name": "previousAdminRole",
          "type": "bytes32"
        },
        {
          "indexed": true,
          "internalType": "bytes32",
          "name": "newAdminRole",
          "type": "bytes32"
        }
      ],
      "name": "RoleAdminChanged",
      "type": "event"
    },
    {
      "anonymous": false,
      "inputs": [
        {
          "indexed": true,
          "internalType": "bytes32",
          "name": "role",
          "type": "bytes32"
        },
        {
          "indexed": true,
          "internalType": "address",
          "name": "account",
          "type": "address"
        },
        {
          "indexed": true,
          "internalType": "address",
          "name": "sender",
          "type": "address"
        }
      ],
      "name": "RoleGranted",
      "type": "event"
    },
    {
      "anonymous": false,
      "inputs": [
        {
          "indexed": true,
          "internalType": "bytes32",
          "name": "role",
          "type": "bytes32"
        },
        {
          "indexed": true,
          "internalType": "address",
          "name": "account",
          "type": "address"
        },
        {
          "indexed": true,
          "internalType": "address",
          "name": "sender",
          "type": "address"
        }
      ],
      "name": "RoleRevoked",
      "type": "event"
    },
    {
      "inputs": [],
      "name": "BOOKKEEPER_ADDRESS",
      "outputs": [
        {
          "internalType": "address",
          "name": "",
          "type": "address"
        }
      ],
      "stateMutability": "view",
      "type": "function"
    },
    {
      "inputs": [],
      "name": "DEFAULT_ADMIN_ROLE",
      "outputs": [
        {
          "internalType": "bytes32",
          "name": "",
          "type": "bytes32"
        }
      ],
      "stateMutability": "view",
      "type": "function"
    },
    {
      "inputs": [],
      "name": "FACTORY_ADDRESS",
      "outputs": [
        {
          "internalType": "address",
          "name": "",
          "type": "address"
        }
      ],
      "stateMutability": "view",
      "type": "function"
    },
    {
      "inputs": [
        {
          "components": [
            {
              "internalType": "uint256",
              "name": "loanAmount",
              "type": "uint256"
            },
            {
              "internalType": "uint256",
              "name": "collAmount",
              "type": "uint256"
            },
            {
              "internalType": "bytes",
              "name": "loanAsset",
              "type": "bytes"
            },
            {
              "internalType": "bytes",
              "name": "collAsset",
              "type": "bytes"
            },
            {
              "internalType": "uint256",
              "name": "minCollateralRatio",
              "type": "uint256"
            },
            {
              "internalType": "uint256",
              "name": "maxDuration",
              "type": "uint256"
            },
            {
              "internalType": "bool",
              "name": "isLeverage",
              "type": "bool"
            },
            {
              "components": [
                {
                  "internalType": "address",
                  "name": "addr",
                  "type": "address"
                },
                {
                  "internalType": "bytes",
                  "name": "parameters",
                  "type": "bytes"
                }
              ],
              "internalType": "struct PluginReference",
              "name": "lenderAccount",
              "type": "tuple"
            },
            {
              "components": [
                {
                  "internalType": "address",
                  "name": "addr",
                  "type": "address"
                },
                {
                  "internalType": "bytes",
                  "name": "parameters",
                  "type": "bytes"
                }
              ],
              "internalType": "struct PluginReference",
              "name": "borrowerAccount",
              "type": "tuple"
            },
            {
              "components": [
                {
                  "internalType": "address",
                  "name": "addr",
                  "type": "address"
                },
                {
                  "internalType": "bytes",
                  "name": "parameters",
                  "type": "bytes"
                }
              ],
              "internalType": "struct PluginReference",
              "name": "assessor",
              "type": "tuple"
            },
            {
              "components": [
                {
                  "internalType": "address",
                  "name": "addr",
                  "type": "address"
                },
                {
                  "internalType": "bytes",
                  "name": "parameters",
                  "type": "bytes"
                }
              ],
              "internalType": "struct PluginReference",
              "name": "liquidator",
              "type": "tuple"
            },
            {
              "components": [
                {
                  "internalType": "address",
                  "name": "addr",
                  "type": "address"
                },
                {
                  "internalType": "bytes",
                  "name": "parameters",
                  "type": "bytes"
                }
              ],
              "internalType": "struct PluginReference",
              "name": "loanOracle",
              "type": "tuple"
            },
            {
              "components": [
                {
                  "internalType": "address",
                  "name": "addr",
                  "type": "address"
                },
                {
                  "internalType": "bytes",
                  "name": "parameters",
                  "type": "bytes"
                }
              ],
              "internalType": "struct PluginReference",
              "name": "collOracle",
              "type": "tuple"
            },
            {
              "internalType": "address",
              "name": "factory",
              "type": "address"
            },
            {
              "components": [
                {
                  "internalType": "address",
                  "name": "addr",
                  "type": "address"
                },
                {
                  "internalType": "bytes",
                  "name": "parameters",
                  "type": "bytes"
                }
              ],
              "internalType": "struct PluginReference",
              "name": "position",
              "type": "tuple"
            },
            {
              "internalType": "uint256",
              "name": "deploymentTime",
              "type": "uint256"
            }
          ],
          "internalType": "struct Agreement",
          "name": "agreement",
          "type": "tuple"
        },
        {
          "internalType": "uint256",
          "name": "amountToClose",
          "type": "uint256"
        }
      ],
      "name": "close",
      "outputs": [],
      "stateMutability": "nonpayable",
      "type": "function"
    },
    {
      "inputs": [],
      "name": "createClone",
      "outputs": [
        {
          "internalType": "address",
          "name": "addr",
          "type": "address"
        }
      ],
      "stateMutability": "nonpayable",
      "type": "function"
    },
    {
      "inputs": [
        {
          "components": [
            {
              "internalType": "uint256",
              "name": "loanAmount",
              "type": "uint256"
            },
            {
              "internalType": "uint256",
              "name": "collAmount",
              "type": "uint256"
            },
            {
              "internalType": "bytes",
              "name": "loanAsset",
              "type": "bytes"
            },
            {
              "internalType": "bytes",
              "name": "collAsset",
              "type": "bytes"
            },
            {
              "internalType": "uint256",
              "name": "minCollateralRatio",
              "type": "uint256"
            },
            {
              "internalType": "uint256",
              "name": "maxDuration",
              "type": "uint256"
            },
            {
              "internalType": "bool",
              "name": "isLeverage",
              "type": "bool"
            },
            {
              "components": [
                {
                  "internalType": "address",
                  "name": "addr",
                  "type": "address"
                },
                {
                  "internalType": "bytes",
                  "name": "parameters",
                  "type": "bytes"
                }
              ],
              "internalType": "struct PluginReference",
              "name": "lenderAccount",
              "type": "tuple"
            },
            {
              "components": [
                {
                  "internalType": "address",
                  "name": "addr",
                  "type": "address"
                },
                {
                  "internalType": "bytes",
                  "name": "parameters",
                  "type": "bytes"
                }
              ],
              "internalType": "struct PluginReference",
              "name": "borrowerAccount",
              "type": "tuple"
            },
            {
              "components": [
                {
                  "internalType": "address",
                  "name": "addr",
                  "type": "address"
                },
                {
                  "internalType": "bytes",
                  "name": "parameters",
                  "type": "bytes"
                }
              ],
              "internalType": "struct PluginReference",
              "name": "assessor",
              "type": "tuple"
            },
            {
              "components": [
                {
                  "internalType": "address",
                  "name": "addr",
                  "type": "address"
                },
                {
                  "internalType": "bytes",
                  "name": "parameters",
                  "type": "bytes"
                }
              ],
              "internalType": "struct PluginReference",
              "name": "liquidator",
              "type": "tuple"
            },
            {
              "components": [
                {
                  "internalType": "address",
                  "name": "addr",
                  "type": "address"
                },
                {
                  "internalType": "bytes",
                  "name": "parameters",
                  "type": "bytes"
                }
              ],
              "internalType": "struct PluginReference",
              "name": "loanOracle",
              "type": "tuple"
            },
            {
              "components": [
                {
                  "internalType": "address",
                  "name": "addr",
                  "type": "address"
                },
                {
                  "internalType": "bytes",
                  "name": "parameters",
                  "type": "bytes"
                }
              ],
              "internalType": "struct PluginReference",
              "name": "collOracle",
              "type": "tuple"
            },
            {
              "internalType": "address",
              "name": "factory",
              "type": "address"
            },
            {
              "components": [
                {
                  "internalType": "address",
                  "name": "addr",
                  "type": "address"
                },
                {
                  "internalType": "bytes",
                  "name": "parameters",
                  "type": "bytes"
                }
              ],
              "internalType": "struct PluginReference",
              "name": "position",
              "type": "tuple"
            },
            {
              "internalType": "uint256",
              "name": "deploymentTime",
              "type": "uint256"
            }
          ],
          "internalType": "struct Agreement",
          "name": "agreement",
          "type": "tuple"
        }
      ],
      "name": "getCloseAmount",
      "outputs": [
        {
          "internalType": "uint256",
          "name": "",
          "type": "uint256"
        }
      ],
      "stateMutability": "view",
      "type": "function"
    },
    {
      "inputs": [
        {
          "internalType": "bytes32",
          "name": "role",
          "type": "bytes32"
        }
      ],
      "name": "getRoleAdmin",
      "outputs": [
        {
          "internalType": "bytes32",
          "name": "",
          "type": "bytes32"
        }
      ],
      "stateMutability": "view",
      "type": "function"
    },
    {
      "inputs": [
        {
          "internalType": "bytes32",
          "name": "role",
          "type": "bytes32"
        },
        {
          "internalType": "address",
          "name": "account",
          "type": "address"
        }
      ],
      "name": "grantRole",
      "outputs": [],
      "stateMutability": "nonpayable",
      "type": "function"
    },
    {
      "inputs": [
        {
          "internalType": "bytes32",
          "name": "role",
          "type": "bytes32"
        },
        {
          "internalType": "address",
          "name": "account",
          "type": "address"
        }
      ],
      "name": "hasRole",
      "outputs": [
        {
          "internalType": "bool",
          "name": "",
          "type": "bool"
        }
      ],
      "stateMutability": "view",
      "type": "function"
    },
    {
      "inputs": [],
      "name": "initialize",
      "outputs": [],
      "stateMutability": "nonpayable",
      "type": "function"
    },
    {
      "inputs": [
        {
          "components": [
            {
              "internalType": "uint256",
              "name": "loanAmount",
              "type": "uint256"
            },
            {
              "internalType": "uint256",
              "name": "collAmount",
              "type": "uint256"
            },
            {
              "internalType": "bytes",
              "name": "loanAsset",
              "type": "bytes"
            },
            {
              "internalType": "bytes",
              "name": "collAsset",
              "type": "bytes"
            },
            {
              "internalType": "uint256",
              "name": "minCollateralRatio",
              "type": "uint256"
            },
            {
              "internalType": "uint256",
              "name": "maxDuration",
              "type": "uint256"
            },
            {
              "internalType": "bool",
              "name": "isLeverage",
              "type": "bool"
            },
            {
              "components": [
                {
                  "internalType": "address",
                  "name": "addr",
                  "type": "address"
                },
                {
                  "internalType": "bytes",
                  "name": "parameters",
                  "type": "bytes"
                }
              ],
              "internalType": "struct PluginReference",
              "name": "lenderAccount",
              "type": "tuple"
            },
            {
              "components": [
                {
                  "internalType": "address",
                  "name": "addr",
                  "type": "address"
                },
                {
                  "internalType": "bytes",
                  "name": "parameters",
                  "type": "bytes"
                }
              ],
              "internalType": "struct PluginReference",
              "name": "borrowerAccount",
              "type": "tuple"
            },
            {
              "components": [
                {
                  "internalType": "address",
                  "name": "addr",
                  "type": "address"
                },
                {
                  "internalType": "bytes",
                  "name": "parameters",
                  "type": "bytes"
                }
              ],
              "internalType": "struct PluginReference",
              "name": "assessor",
              "type": "tuple"
            },
            {
              "components": [
                {
                  "internalType": "address",
                  "name": "addr",
                  "type": "address"
                },
                {
                  "internalType": "bytes",
                  "name": "parameters",
                  "type": "bytes"
                }
              ],
              "internalType": "struct PluginReference",
              "name": "liquidator",
              "type": "tuple"
            },
            {
              "components": [
                {
                  "internalType": "address",
                  "name": "addr",
                  "type": "address"
                },
                {
                  "internalType": "bytes",
                  "name": "parameters",
                  "type": "bytes"
                }
              ],
              "internalType": "struct PluginReference",
              "name": "loanOracle",
              "type": "tuple"
            },
            {
              "components": [
                {
                  "internalType": "address",
                  "name": "addr",
                  "type": "address"
                },
                {
                  "internalType": "bytes",
                  "name": "parameters",
                  "type": "bytes"
                }
              ],
              "internalType": "struct PluginReference",
              "name": "collOracle",
              "type": "tuple"
            },
            {
              "internalType": "address",
              "name": "factory",
              "type": "address"
            },
            {
              "components": [
                {
                  "internalType": "address",
                  "name": "addr",
                  "type": "address"
                },
                {
                  "internalType": "bytes",
                  "name": "parameters",
                  "type": "bytes"
                }
              ],
              "internalType": "struct PluginReference",
              "name": "position",
              "type": "tuple"
            },
            {
              "internalType": "uint256",
              "name": "deploymentTime",
              "type": "uint256"
            }
          ],
          "internalType": "struct Agreement",
          "name": "agreement",
          "type": "tuple"
        }
      ],
      "name": "open",
      "outputs": [],
      "stateMutability": "nonpayable",
      "type": "function"
    },
    {
      "inputs": [
        {
          "internalType": "address payable",
          "name": "destination",
          "type": "address"
        },
        {
          "internalType": "bytes",
          "name": "data",
          "type": "bytes"
        },
        {
          "internalType": "bool",
          "name": "delegateCall",
          "type": "bool"
        }
      ],
      "name": "passThrough",
      "outputs": [
        {
          "internalType": "bool",
          "name": "",
          "type": "bool"
        },
        {
          "internalType": "bytes",
          "name": "",
          "type": "bytes"
        }
      ],
      "stateMutability": "payable",
      "type": "function"
    },
    {
      "inputs": [
        {
          "internalType": "bytes32",
          "name": "role",
          "type": "bytes32"
        },
        {
          "internalType": "address",
          "name": "account",
          "type": "address"
        }
      ],
      "name": "renounceRole",
      "outputs": [],
      "stateMutability": "nonpayable",
      "type": "function"
    },
    {
      "inputs": [
        {
          "internalType": "bytes32",
          "name": "role",
          "type": "bytes32"
        },
        {
          "internalType": "address",
          "name": "account",
          "type": "address"
        }
      ],
      "name": "revokeRole",
      "outputs": [],
      "stateMutability": "nonpayable",
      "type": "function"
    },
    {
      "inputs": [
        {
          "internalType": "bytes4",
          "name": "interfaceId",
          "type": "bytes4"
        }
      ],
      "name": "supportsInterface",
      "outputs": [
        {
          "internalType": "bool",
          "name": "",
          "type": "bool"
        }
      ],
      "stateMutability": "view",
      "type": "function"
    },
    {
      "inputs": [
        {
          "internalType": "address",
          "name": "controller",
          "type": "address"
        }
      ],
      "name": "transferContract",
      "outputs": [],
      "stateMutability": "nonpayable",
      "type": "function"
    },
    {
      "stateMutability": "payable",
      "type": "receive"
    }
  ],
  "bytecode": "0x60c06040523480156200001157600080fd5b50604051620032e3380380620032e3833981810160405281019062000037919062000398565b808062000049620000ee60201b60201c565b8073ffffffffffffffffffffffffffffffffffffffff1660808173ffffffffffffffffffffffffffffffffffffffff16815250503073ffffffffffffffffffffffffffffffffffffffff1660a08173ffffffffffffffffffffffffffffffffffffffff1681525050620000e57f03c7040f8e5b938f657d4600d08b1b77f390141994844cbb34ff043f26ac6cd7608051620001b560201b60201c565b505050620004ae565b60018054906101000a900460ff16156200013f576040517f08c379a0000000000000000000000000000000000000000000000000000000008152600401620001369062000451565b60405180910390fd5b60ff8016600160009054906101000a900460ff1660ff1614620001b35760ff600160006101000a81548160ff021916908360ff1602179055507f7f26b83ff96e1f2b6a682f133852f6798a09c465da95921460cefb384740249860ff604051620001aa919062000491565b60405180910390a15b565b620001c78282620001cb60201b60201c565b5050565b620001dd8282620002bc60201b60201c565b620002b857600160008084815260200190815260200160002060000160008373ffffffffffffffffffffffffffffffffffffffff1673ffffffffffffffffffffffffffffffffffffffff16815260200190815260200160002060006101000a81548160ff0219169083151502179055506200025d6200032660201b60201c565b73ffffffffffffffffffffffffffffffffffffffff168173ffffffffffffffffffffffffffffffffffffffff16837f2f8788117e7eff1d82e926ec794901d17c78024a50270940304540a733656f0d60405160405180910390a45b5050565b600080600084815260200190815260200160002060000160008373ffffffffffffffffffffffffffffffffffffffff1673ffffffffffffffffffffffffffffffffffffffff16815260200190815260200160002060009054906101000a900460ff16905092915050565b600033905090565b600080fd5b600073ffffffffffffffffffffffffffffffffffffffff82169050919050565b6000620003608262000333565b9050919050565b620003728162000353565b81146200037e57600080fd5b50565b600081519050620003928162000367565b92915050565b600060208284031215620003b157620003b06200032e565b5b6000620003c18482850162000381565b91505092915050565b600082825260208201905092915050565b7f496e697469616c697a61626c653a20636f6e747261637420697320696e69746960008201527f616c697a696e6700000000000000000000000000000000000000000000000000602082015250565b600062000439602783620003ca565b91506200044682620003db565b604082019050919050565b600060208201905081810360008301526200046c816200042a565b9050919050565b600060ff82169050919050565b6200048b8162000473565b82525050565b6000602082019050620004a8600083018462000480565b92915050565b60805160a051612dd06200051360003960008181610520015281816105ca015281816106be0152818161075e01528181610a6601528181610af401528181610c0b01528181610c990152610d70015260008181610b890152610d480152612dd06000f3fe6080604052600436106100f75760003560e01c80638129fc1c1161008a578063a217fddf11610059578063a217fddf14610331578063a29929251461035c578063b9fdc2a214610387578063d547741f146103b8576100fe565b80638129fc1c146102895780638823151b146102a057806391d14854146102cb578063a1d9bb2414610308576100fe565b806338f92f6e116100c657806338f92f6e146101cf57806347635dac146101f85780634db379d21461022157806364f2d4b91461025e576100fe565b806301ffc9a714610103578063248a9ca3146101405780632f2ff15d1461017d57806336568abe146101a6576100fe565b366100fe57005b600080fd5b34801561010f57600080fd5b5061012a60048036038101906101259190611b7e565b6103e1565b6040516101379190611bc6565b60405180910390f35b34801561014c57600080fd5b5061016760048036038101906101629190611c17565b61045b565b6040516101749190611c53565b60405180910390f35b34801561018957600080fd5b506101a4600480360381019061019f9190611ccc565b61047a565b005b3480156101b257600080fd5b506101cd60048036038101906101c89190611ccc565b61049b565b005b3480156101db57600080fd5b506101f660048036038101906101f19190611d67565b61051e565b005b34801561020457600080fd5b5061021f600480360381019061021a9190611dc3565b6105c8565b005b34801561022d57600080fd5b5061024860048036038101906102439190611df0565b6106ba565b6040516102559190611e48565b60405180910390f35b34801561026a57600080fd5b5061027361075a565b6040516102809190611e72565b60405180910390f35b34801561029557600080fd5b5061029e61098a565b005b3480156102ac57600080fd5b506102b5610c09565b6040516102c29190611e72565b60405180910390f35b3480156102d757600080fd5b506102f260048036038101906102ed9190611ccc565b610c2d565b6040516102ff9190611bc6565b60405180910390f35b34801561031457600080fd5b5061032f600480360381019061032a9190611df0565b610c97565b005b34801561033d57600080fd5b50610346610d3f565b6040516103539190611c53565b60405180910390f35b34801561036857600080fd5b50610371610d46565b60405161037e9190611e72565b60405180910390f35b6103a1600480360381019061039c9190611f5c565b610d6a565b6040516103af929190612060565b60405180910390f35b3480156103c457600080fd5b506103df60048036038101906103da9190611ccc565b610ef9565b005b60007f7965db0b000000000000000000000000000000000000000000000000000000007bffffffffffffffffffffffffffffffffffffffffffffffffffffffff1916827bffffffffffffffffffffffffffffffffffffffffffffffffffffffff19161480610454575061045382610f1a565b5b9050919050565b6000806000838152602001908152602001600020600101549050919050565b6104838261045b565b61048c81610f84565b6104968383610f98565b505050565b6104a3611078565b73ffffffffffffffffffffffffffffffffffffffff168173ffffffffffffffffffffffffffffffffffffffff1614610510576040517f08c379a000000000000000000000000000000000000000000000000000000000815260040161050790612113565b60405180910390fd5b61051a8282611080565b5050565b7f000000000000000000000000000000000000000000000000000000000000000073ffffffffffffffffffffffffffffffffffffffff163073ffffffffffffffffffffffffffffffffffffffff16036105ac576040517f08c379a00000000000000000000000000000000000000000000000000000000081526004016105a39061217f565b60405180910390fd5b6000801b6105b981610f84565b6105c38383611161565b505050565b7f000000000000000000000000000000000000000000000000000000000000000073ffffffffffffffffffffffffffffffffffffffff163073ffffffffffffffffffffffffffffffffffffffff1603610656576040517f08c379a000000000000000000000000000000000000000000000000000000000815260040161064d9061217f565b60405180910390fd5b6000801b61066381610f84565b6106706000801b8361047a565b61067d6000801b3361049b565b7fa06677f7b64342b4bcbde423684dbdb5356acfe41ad0285b6ecbe6dc4bf427f233836040516106ae92919061219f565b60405180910390a15050565b60007f000000000000000000000000000000000000000000000000000000000000000073ffffffffffffffffffffffffffffffffffffffff163073ffffffffffffffffffffffffffffffffffffffff160361074a576040517f08c379a00000000000000000000000000000000000000000000000000000000081526004016107419061217f565b60405180910390fd5b610753826114c4565b9050919050565b60007f000000000000000000000000000000000000000000000000000000000000000073ffffffffffffffffffffffffffffffffffffffff163073ffffffffffffffffffffffffffffffffffffffff16146107ea576040517f08c379a00000000000000000000000000000000000000000000000000000000081526004016107e190612214565b60405180910390fd5b7f03c7040f8e5b938f657d4600d08b1b77f390141994844cbb34ff043f26ac6cd761081481610f84565b61081d3061166b565b915060008273ffffffffffffffffffffffffffffffffffffffff166040516024016040516020818303038152906040527f8129fc1c000000000000000000000000000000000000000000000000000000007bffffffffffffffffffffffffffffffffffffffffffffffffffffffff19166020820180517bffffffffffffffffffffffffffffffffffffffffffffffffffffffff83818316178352505050506040516108c89190612270565b6000604051808303816000865af19150503d8060008114610905576040519150601f19603f3d011682016040523d82523d6000602084013e61090a565b606091505b505090508061094e576040517f08c379a0000000000000000000000000000000000000000000000000000000008152600401610945906122d3565b60405180910390fd5b7fbe2f3d28fdeb5839123d65fd47ec2f5915c715d2b527b9e229123706fdecfc858360405161097d9190611e72565b60405180910390a1505090565b600060018054906101000a900460ff161590508080156109bb575060018060009054906101000a900460ff1660ff16105b806109e957506109ca30611725565b1580156109e8575060018060009054906101000a900460ff1660ff16145b5b610a28576040517f08c379a0000000000000000000000000000000000000000000000000000000008152600401610a1f90612365565b60405180910390fd5b60018060006101000a81548160ff021916908360ff1602179055508015610a645760018060016101000a81548160ff0219169083151502179055505b7f000000000000000000000000000000000000000000000000000000000000000073ffffffffffffffffffffffffffffffffffffffff163073ffffffffffffffffffffffffffffffffffffffff1603610af2576040517f08c379a0000000000000000000000000000000000000000000000000000000008152600401610ae99061217f565b60405180910390fd5b7f000000000000000000000000000000000000000000000000000000000000000073ffffffffffffffffffffffffffffffffffffffff163373ffffffffffffffffffffffffffffffffffffffff1614610b80576040517f08c379a0000000000000000000000000000000000000000000000000000000008152600401610b77906123d1565b60405180910390fd5b610bad6000801b7f0000000000000000000000000000000000000000000000000000000000000000611748565b8015610c065760006001806101000a81548160ff0219169083151502179055507f7f26b83ff96e1f2b6a682f133852f6798a09c465da95921460cefb38474024986001604051610bfd9190612443565b60405180910390a15b50565b7f000000000000000000000000000000000000000000000000000000000000000081565b600080600084815260200190815260200160002060000160008373ffffffffffffffffffffffffffffffffffffffff1673ffffffffffffffffffffffffffffffffffffffff16815260200190815260200160002060009054906101000a900460ff16905092915050565b7f000000000000000000000000000000000000000000000000000000000000000073ffffffffffffffffffffffffffffffffffffffff163073ffffffffffffffffffffffffffffffffffffffff1603610d25576040517f08c379a0000000000000000000000000000000000000000000000000000000008152600401610d1c9061217f565b60405180910390fd5b6000801b610d3281610f84565b610d3b82611756565b5050565b6000801b81565b7f000000000000000000000000000000000000000000000000000000000000000081565b600060607f000000000000000000000000000000000000000000000000000000000000000073ffffffffffffffffffffffffffffffffffffffff163073ffffffffffffffffffffffffffffffffffffffff1603610dfc576040517f08c379a0000000000000000000000000000000000000000000000000000000008152600401610df39061217f565b60405180910390fd5b6000801b610e0981610f84565b83610e82578673ffffffffffffffffffffffffffffffffffffffff16348787604051610e36929190612492565b60006040518083038185875af1925050503d8060008114610e73576040519150601f19603f3d011682016040523d82523d6000602084013e610e78565b606091505b5092509250610eef565b8673ffffffffffffffffffffffffffffffffffffffff168686604051610ea9929190612492565b600060405180830381855af49150503d8060008114610ee4576040519150601f19603f3d011682016040523d82523d6000602084013e610ee9565b606091505b50925092505b5094509492505050565b610f028261045b565b610f0b81610f84565b610f158383611080565b505050565b60007f01ffc9a7000000000000000000000000000000000000000000000000000000007bffffffffffffffffffffffffffffffffffffffffffffffffffffffff1916827bffffffffffffffffffffffffffffffffffffffffffffffffffffffff1916149050919050565b610f9581610f90611078565b611824565b50565b610fa28282610c2d565b61107457600160008084815260200190815260200160002060000160008373ffffffffffffffffffffffffffffffffffffffff1673ffffffffffffffffffffffffffffffffffffffff16815260200190815260200160002060006101000a81548160ff021916908315150217905550611019611078565b73ffffffffffffffffffffffffffffffffffffffff168173ffffffffffffffffffffffffffffffffffffffff16837f2f8788117e7eff1d82e926ec794901d17c78024a50270940304540a733656f0d60405160405180910390a45b5050565b600033905090565b61108a8282610c2d565b1561115d57600080600084815260200190815260200160002060000160008373ffffffffffffffffffffffffffffffffffffffff1673ffffffffffffffffffffffffffffffffffffffff16815260200190815260200160002060006101000a81548160ff021916908315150217905550611102611078565b73ffffffffffffffffffffffffffffffffffffffff168173ffffffffffffffffffffffffffffffffffffffff16837ff6391f5c32d9c69d2a47ea670b442974b53935d1edc7fd64eb21e047a839171b60405160405180910390a45b5050565b600082806040019061117391906124ba565b8101906111809190612619565b9050600083806060019061119491906124ba565b8101906111a19190612619565b9050600082600001519050600082600001519050600085111561131e578173ffffffffffffffffffffffffffffffffffffffff1663095ea7b3878060e001906111ea9190612646565b60000160208101906111fc9190611dc3565b876040518363ffffffff1660e01b815260040161121a92919061266e565b6020604051808303816000875af1158015611239573d6000803e3d6000fd5b505050506040513d601f19601f8201168201806040525081019061125d91906126ac565b50858060e0019061126e9190612646565b60000160208101906112809190611dc3565b73ffffffffffffffffffffffffffffffffffffffff166306b1c4c98780604001906112ab91906124ba565b888a8060e001906112bc9190612646565b80602001906112cb91906124ba565b6040518663ffffffff1660e01b81526004016112eb959493929190612706565b600060405180830381600087803b15801561130557600080fd5b505af1158015611319573d6000803e3d6000fd5b505050505b6000670de0b6b3a76400008460200151600a61133a91906128b1565b886020013561134991906128fc565b611353919061296d565b90508173ffffffffffffffffffffffffffffffffffffffff1663095ea7b3888061010001906113829190612646565b60000160208101906113949190611dc3565b836040518363ffffffff1660e01b81526004016113b292919061266e565b6020604051808303816000875af11580156113d1573d6000803e3d6000fd5b505050506040513d601f19601f820116820180604052508101906113f591906126ac565b50868061010001906114079190612646565b60000160208101906114199190611dc3565b73ffffffffffffffffffffffffffffffffffffffff166306b1c4c988806060019061144491906124ba565b8a602001358b80610100019061145a9190612646565b806020019061146991906124ba565b6040518663ffffffff1660e01b8152600401611489959493929190612706565b600060405180830381600087803b1580156114a357600080fd5b505af11580156114b7573d6000803e3d6000fd5b5050505050505050505050565b6000808280606001906114d791906124ba565b8101906114e49190612619565b9050600081600001519050600082602001519050600082905060008173ffffffffffffffffffffffffffffffffffffffff166370a08231306040518263ffffffff1660e01b81526004016115389190611e72565b602060405180830381865afa158015611555573d6000803e3d6000fd5b505050506040513d601f19601f8201168201806040525081019061157991906129b3565b9050600083600a61158a91906128b1565b8880610180019061159b9190612646565b60000160208101906115ad9190611dc3565b73ffffffffffffffffffffffffffffffffffffffff16639569eb8f8a8061018001906115d99190612646565b80602001906115e891906124ba565b6040518363ffffffff1660e01b81526004016116059291906129e0565b602060405180830381865afa158015611622573d6000803e3d6000fd5b505050506040513d601f19601f8201168201806040525081019061164691906129b3565b8361165191906128fc565b61165b919061296d565b9050809650505050505050919050565b6000763d602d80600a3d3981f3363d3d373d3d3d363d730000008260601b60e81c176000526e5af43d82803e903d91602b57fd5bf38260781b17602052603760096000f09050600073ffffffffffffffffffffffffffffffffffffffff168173ffffffffffffffffffffffffffffffffffffffff1603611720576040517f08c379a000000000000000000000000000000000000000000000000000000000815260040161171790612a50565b60405180910390fd5b919050565b6000808273ffffffffffffffffffffffffffffffffffffffff163b119050919050565b6117528282610f98565b5050565b600081806101c001906117699190612646565b806020019061177891906124ba565b8101906117859190612aac565b9050600082806040019061179991906124ba565b8101906117a69190612619565b905073__$0dbc1134add5307a68154fc29708de467d$__63d4e3bdb68260000151846000015186600001356040518463ffffffff1660e01b81526004016117ef93929190612af7565b60006040518083038186803b15801561180757600080fd5b505af415801561181b573d6000803e3d6000fd5b50505050505050565b61182e8282610c2d565b6118a55761183b816118a9565b6118498360001c60206118d6565b60405160200161185a929190612c0d565b6040516020818303038152906040526040517f08c379a000000000000000000000000000000000000000000000000000000000815260040161189c9190612c80565b60405180910390fd5b5050565b60606118cf8273ffffffffffffffffffffffffffffffffffffffff16601460ff166118d6565b9050919050565b6060600060028360026118e991906128fc565b6118f39190612ca2565b67ffffffffffffffff81111561190c5761190b612522565b5b6040519080825280601f01601f19166020018201604052801561193e5781602001600182028036833780820191505090505b5090507f30000000000000000000000000000000000000000000000000000000000000008160008151811061197657611975612cd6565b5b60200101907effffffffffffffffffffffffffffffffffffffffffffffffffffffffffffff1916908160001a9053507f7800000000000000000000000000000000000000000000000000000000000000816001815181106119da576119d9612cd6565b5b60200101907effffffffffffffffffffffffffffffffffffffffffffffffffffffffffffff1916908160001a90535060006001846002611a1a91906128fc565b611a249190612ca2565b90505b6001811115611ac4577f3031323334353637383961626364656600000000000000000000000000000000600f861660108110611a6657611a65612cd6565b5b1a60f81b828281518110611a7d57611a7c612cd6565b5b60200101907effffffffffffffffffffffffffffffffffffffffffffffffffffffffffffff1916908160001a905350600485901c945080611abd90612d05565b9050611a27565b5060008414611b08576040517f08c379a0000000000000000000000000000000000000000000000000000000008152600401611aff90612d7a565b60405180910390fd5b8091505092915050565b6000604051905090565b600080fd5b600080fd5b60007fffffffff0000000000000000000000000000000000000000000000000000000082169050919050565b611b5b81611b26565b8114611b6657600080fd5b50565b600081359050611b7881611b52565b92915050565b600060208284031215611b9457611b93611b1c565b5b6000611ba284828501611b69565b91505092915050565b60008115159050919050565b611bc081611bab565b82525050565b6000602082019050611bdb6000830184611bb7565b92915050565b6000819050919050565b611bf481611be1565b8114611bff57600080fd5b50565b600081359050611c1181611beb565b92915050565b600060208284031215611c2d57611c2c611b1c565b5b6000611c3b84828501611c02565b91505092915050565b611c4d81611be1565b82525050565b6000602082019050611c686000830184611c44565b92915050565b600073ffffffffffffffffffffffffffffffffffffffff82169050919050565b6000611c9982611c6e565b9050919050565b611ca981611c8e565b8114611cb457600080fd5b50565b600081359050611cc681611ca0565b92915050565b60008060408385031215611ce357611ce2611b1c565b5b6000611cf185828601611c02565b9250506020611d0285828601611cb7565b9150509250929050565b600080fd5b60006102008284031215611d2857611d27611d0c565b5b81905092915050565b6000819050919050565b611d4481611d31565b8114611d4f57600080fd5b50565b600081359050611d6181611d3b565b92915050565b60008060408385031215611d7e57611d7d611b1c565b5b600083013567ffffffffffffffff811115611d9c57611d9b611b21565b5b611da885828601611d11565b9250506020611db985828601611d52565b9150509250929050565b600060208284031215611dd957611dd8611b1c565b5b6000611de784828501611cb7565b91505092915050565b600060208284031215611e0657611e05611b1c565b5b600082013567ffffffffffffffff811115611e2457611e23611b21565b5b611e3084828501611d11565b91505092915050565b611e4281611d31565b82525050565b6000602082019050611e5d6000830184611e39565b92915050565b611e6c81611c8e565b82525050565b6000602082019050611e876000830184611e63565b92915050565b6000611e9882611c6e565b9050919050565b611ea881611e8d565b8114611eb357600080fd5b50565b600081359050611ec581611e9f565b92915050565b600080fd5b600080fd5b600080fd5b60008083601f840112611ef057611eef611ecb565b5b8235905067ffffffffffffffff811115611f0d57611f0c611ed0565b5b602083019150836001820283011115611f2957611f28611ed5565b5b9250929050565b611f3981611bab565b8114611f4457600080fd5b50565b600081359050611f5681611f30565b92915050565b60008060008060608587031215611f7657611f75611b1c565b5b6000611f8487828801611eb6565b945050602085013567ffffffffffffffff811115611fa557611fa4611b21565b5b611fb187828801611eda565b93509350506040611fc487828801611f47565b91505092959194509250565b600081519050919050565b600082825260208201905092915050565b60005b8381101561200a578082015181840152602081019050611fef565b60008484015250505050565b6000601f19601f8301169050919050565b600061203282611fd0565b61203c8185611fdb565b935061204c818560208601611fec565b61205581612016565b840191505092915050565b60006040820190506120756000830185611bb7565b81810360208301526120878184612027565b90509392505050565b600082825260208201905092915050565b7f416363657373436f6e74726f6c3a2063616e206f6e6c792072656e6f756e636560008201527f20726f6c657320666f722073656c660000000000000000000000000000000000602082015250565b60006120fd602f83612090565b9150612108826120a1565b604082019050919050565b6000602082019050818103600083015261212c816120f0565b9050919050565b7f65786563206e6f7420616c6c6f77656420696e20696d706c0000000000000000600082015250565b6000612169601883612090565b915061217482612133565b602082019050919050565b600060208201905081810360008301526121988161215c565b9050919050565b60006040820190506121b46000830185611e63565b6121c16020830184611e63565b9392505050565b7f65786563206e6f7420616c6c6f77656420696e2070726f787900000000000000600082015250565b60006121fe601983612090565b9150612209826121c8565b602082019050919050565b6000602082019050818103600083015261222d816121f1565b9050919050565b600081905092915050565b600061224a82611fd0565b6122548185612234565b9350612264818560208601611fec565b80840191505092915050565b600061227c828461223f565b915081905092915050565b7f637265617465436c6f6e653a20696e697469616c697a65206661696c00000000600082015250565b60006122bd601c83612090565b91506122c882612287565b602082019050919050565b600060208201905081810360008301526122ec816122b0565b9050919050565b7f496e697469616c697a61626c653a20636f6e747261637420697320616c72656160008201527f647920696e697469616c697a6564000000000000000000000000000000000000602082015250565b600061234f602e83612090565b915061235a826122f3565b604082019050919050565b6000602082019050818103600083015261237e81612342565b9050919050565b7f73656e64657220213d20696d706c20636f6e7472616374000000000000000000600082015250565b60006123bb601783612090565b91506123c682612385565b602082019050919050565b600060208201905081810360008301526123ea816123ae565b9050919050565b6000819050919050565b600060ff82169050919050565b6000819050919050565b600061242d612428612423846123f1565b612408565b6123fb565b9050919050565b61243d81612412565b82525050565b60006020820190506124586000830184612434565b92915050565b82818337600083830152505050565b60006124798385612234565b935061248683858461245e565b82840190509392505050565b600061249f82848661246d565b91508190509392505050565b600080fd5b600080fd5b600080fd5b600080833560016020038436030381126124d7576124d66124ab565b5b80840192508235915067ffffffffffffffff8211156124f9576124f86124b0565b5b602083019250600182023603831315612515576125146124b5565b5b509250929050565b600080fd5b7f4e487b7100000000000000000000000000000000000000000000000000000000600052604160045260246000fd5b61255a82612016565b810181811067ffffffffffffffff8211171561257957612578612522565b5b80604052505050565b600061258c611b12565b90506125988282612551565b919050565b6125a6816123fb565b81146125b157600080fd5b50565b6000813590506125c38161259d565b92915050565b6000604082840312156125df576125de61251d565b5b6125e96040612582565b905060006125f984828501611cb7565b600083015250602061260d848285016125b4565b60208301525092915050565b60006040828403121561262f5761262e611b1c565b5b600061263d848285016125c9565b91505092915050565b600082356001604003833603038112612662576126616124ab565b5b80830191505092915050565b60006040820190506126836000830185611e63565b6126906020830184611e39565b9392505050565b6000815190506126a681611f30565b92915050565b6000602082840312156126c2576126c1611b1c565b5b60006126d084828501612697565b91505092915050565b60006126e58385611fdb565b93506126f283858461245e565b6126fb83612016565b840190509392505050565b600060608201905081810360008301526127218187896126d9565b90506127306020830186611e39565b81810360408301526127438184866126d9565b90509695505050505050565b7f4e487b7100000000000000000000000000000000000000000000000000000000600052601160045260246000fd5b60008160011c9050919050565b6000808291508390505b60018511156127d5578086048111156127b1576127b061274f565b5b60018516156127c05780820291505b80810290506127ce8561277e565b9450612795565b94509492505050565b6000826127ee57600190506128aa565b816127fc57600090506128aa565b8160018114612812576002811461281c5761284b565b60019150506128aa565b60ff84111561282e5761282d61274f565b5b8360020a9150848211156128455761284461274f565b5b506128aa565b5060208310610133831016604e8410600b84101617156128805782820a90508381111561287b5761287a61274f565b5b6128aa565b61288d848484600161278b565b925090508184048111156128a4576128a361274f565b5b81810290505b9392505050565b60006128bc82611d31565b91506128c7836123fb565b92506128f47fffffffffffffffffffffffffffffffffffffffffffffffffffffffffffffffff84846127de565b905092915050565b600061290782611d31565b915061291283611d31565b925082820261292081611d31565b915082820484148315176129375761293661274f565b5b5092915050565b7f4e487b7100000000000000000000000000000000000000000000000000000000600052601260045260246000fd5b600061297882611d31565b915061298383611d31565b9250826129935761299261293e565b5b828204905092915050565b6000815190506129ad81611d3b565b92915050565b6000602082840312156129c9576129c8611b1c565b5b60006129d78482850161299e565b91505092915050565b600060208201905081810360008301526129fb8184866126d9565b90509392505050565b7f455243313136373a20637265617465206661696c656400000000000000000000600082015250565b6000612a3a601683612090565b9150612a4582612a04565b602082019050919050565b60006020820190508181036000830152612a6981612a2d565b9050919050565b600060208284031215612a8657612a8561251d565b5b612a906020612582565b90506000612aa084828501611cb7565b60008301525092915050565b600060208284031215612ac257612ac1611b1c565b5b6000612ad084828501612a70565b91505092915050565b612ae281611c8e565b82525050565b612af181611d31565b82525050565b6000606082019050612b0c6000830186612ad9565b612b196020830185612ad9565b612b266040830184612ae8565b949350505050565b600081905092915050565b7f416363657373436f6e74726f6c3a206163636f756e7420000000000000000000600082015250565b6000612b6f601783612b2e565b9150612b7a82612b39565b601782019050919050565b600081519050919050565b6000612b9b82612b85565b612ba58185612b2e565b9350612bb5818560208601611fec565b80840191505092915050565b7f206973206d697373696e6720726f6c6520000000000000000000000000000000600082015250565b6000612bf7601183612b2e565b9150612c0282612bc1565b601182019050919050565b6000612c1882612b62565b9150612c248285612b90565b9150612c2f82612bea565b9150612c3b8284612b90565b91508190509392505050565b6000612c5282612b85565b612c5c8185612090565b9350612c6c818560208601611fec565b612c7581612016565b840191505092915050565b60006020820190508181036000830152612c9a8184612c47565b905092915050565b6000612cad82611d31565b9150612cb883611d31565b9250828201905080821115612cd057612ccf61274f565b5b92915050565b7f4e487b7100000000000000000000000000000000000000000000000000000000600052603260045260246000fd5b6000612d1082611d31565b915060008203612d2357612d2261274f565b5b600182039050919050565b7f537472696e67733a20686578206c656e67746820696e73756666696369656e74600082015250565b6000612d64602083612090565b9150612d6f82612d2e565b602082019050919050565b60006020820190508181036000830152612d9381612d57565b905091905056fea2646970667358221220acb8489250e59961fa89e2afc7333f79ad877cff3408088225bd1aec1a48432964736f6c63430008130033",
  "linkReferences": {
    "src/libraries/LibUtilsPublic.sol": {
      "LibUtilsPublic": [
        {
          "length": 20,
          "start": 7357
        }
      ]
    }
  },
  "deployedLinkReferences": {
    "src/libraries/LibUtilsPublic.sol": {
      "LibUtilsPublic": [
        {
          "length": 20,
          "start": 6058
        }
      ]
    }
  }
}