{
  "_format": "hh-sol-artifact-1",
  "contractName": "WalletFactory",
  "sourceName": "src/plugins/position/implementations/Wallet.sol",
  "abi": [
    {
      "inputs": [
        {
          "internalType": "address",
          "name": "protocolAddr",
          "type": "address"
        }
      ],
      "stateMutability": "nonpayable",
      "type": "constructor"
    },
    {
      "anonymous": false,
      "inputs": [
        {
          "indexed": false,
          "internalType": "address",
          "name": "clone",
          "type": "address"
        }
      ],
      "name": "CloneCreated",
      "type": "event"
    },
    {
      "anonymous": false,
      "inputs": [
        {
          "indexed": false,
          "internalType": "address",
          "name": "previousController",
          "type": "address"
        },
        {
          "indexed": false,
          "internalType": "address",
          "name": "newController",
          "type": "address"
        }
      ],
      "name": "ControlTransferred",
      "type": "event"
    },
    {
      "anonymous": false,
      "inputs": [
        {
          "indexed": false,
          "internalType": "uint8",
          "name": "version",
          "type": "uint8"
        }
      ],
      "name": "Initialized",
      "type": "event"
    },
    {
      "anonymous": false,
      "inputs": [
        {
          "indexed": true,
          "internalType": "bytes32",
          "name": "role",
          "type": "bytes32"
        },
        {
          "indexed": true,
          "internalType": "bytes32",
          "name": "previousAdminRole",
          "type": "bytes32"
        },
        {
          "indexed": true,
          "internalType": "bytes32",
          "name": "newAdminRole",
          "type": "bytes32"
        }
      ],
      "name": "RoleAdminChanged",
      "type": "event"
    },
    {
      "anonymous": false,
      "inputs": [
        {
          "indexed": true,
          "internalType": "bytes32",
          "name": "role",
          "type": "bytes32"
        },
        {
          "indexed": true,
          "internalType": "address",
          "name": "account",
          "type": "address"
        },
        {
          "indexed": true,
          "internalType": "address",
          "name": "sender",
          "type": "address"
        }
      ],
      "name": "RoleGranted",
      "type": "event"
    },
    {
      "anonymous": false,
      "inputs": [
        {
          "indexed": true,
          "internalType": "bytes32",
          "name": "role",
          "type": "bytes32"
        },
        {
          "indexed": true,
          "internalType": "address",
          "name": "account",
          "type": "address"
        },
        {
          "indexed": true,
          "internalType": "address",
          "name": "sender",
          "type": "address"
        }
      ],
      "name": "RoleRevoked",
      "type": "event"
    },
    {
      "inputs": [],
      "name": "BOOKKEEPER_ADDRESS",
      "outputs": [
        {
          "internalType": "address",
          "name": "",
          "type": "address"
        }
      ],
      "stateMutability": "view",
      "type": "function"
    },
    {
      "inputs": [],
      "name": "DEFAULT_ADMIN_ROLE",
      "outputs": [
        {
          "internalType": "bytes32",
          "name": "",
          "type": "bytes32"
        }
      ],
      "stateMutability": "view",
      "type": "function"
    },
    {
      "inputs": [],
      "name": "FACTORY_ADDRESS",
      "outputs": [
        {
          "internalType": "address",
          "name": "",
          "type": "address"
        }
      ],
      "stateMutability": "view",
      "type": "function"
    },
    {
      "inputs": [
        {
          "components": [
            {
              "internalType": "uint256",
              "name": "loanAmount",
              "type": "uint256"
            },
            {
              "internalType": "uint256",
              "name": "collAmount",
              "type": "uint256"
            },
            {
              "internalType": "bytes",
              "name": "loanAsset",
              "type": "bytes"
            },
            {
              "internalType": "bytes",
              "name": "collAsset",
              "type": "bytes"
            },
            {
              "internalType": "uint256",
              "name": "minCollateralRatio",
              "type": "uint256"
            },
            {
              "internalType": "uint256",
              "name": "maxDuration",
              "type": "uint256"
            },
            {
              "internalType": "bool",
              "name": "isLeverage",
              "type": "bool"
            },
            {
              "components": [
                {
                  "internalType": "address",
                  "name": "addr",
                  "type": "address"
                },
                {
                  "internalType": "bytes",
                  "name": "parameters",
                  "type": "bytes"
                }
              ],
              "internalType": "struct PluginReference",
              "name": "lenderAccount",
              "type": "tuple"
            },
            {
              "components": [
                {
                  "internalType": "address",
                  "name": "addr",
                  "type": "address"
                },
                {
                  "internalType": "bytes",
                  "name": "parameters",
                  "type": "bytes"
                }
              ],
              "internalType": "struct PluginReference",
              "name": "borrowerAccount",
              "type": "tuple"
            },
            {
              "components": [
                {
                  "internalType": "address",
                  "name": "addr",
                  "type": "address"
                },
                {
                  "internalType": "bytes",
                  "name": "parameters",
                  "type": "bytes"
                }
              ],
              "internalType": "struct PluginReference",
              "name": "assessor",
              "type": "tuple"
            },
            {
              "components": [
                {
                  "internalType": "address",
                  "name": "addr",
                  "type": "address"
                },
                {
                  "internalType": "bytes",
                  "name": "parameters",
                  "type": "bytes"
                }
              ],
              "internalType": "struct PluginReference",
              "name": "liquidator",
              "type": "tuple"
            },
            {
              "components": [
                {
                  "internalType": "address",
                  "name": "addr",
                  "type": "address"
                },
                {
                  "internalType": "bytes",
                  "name": "parameters",
                  "type": "bytes"
                }
              ],
              "internalType": "struct PluginReference",
              "name": "loanOracle",
              "type": "tuple"
            },
            {
              "components": [
                {
                  "internalType": "address",
                  "name": "addr",
                  "type": "address"
                },
                {
                  "internalType": "bytes",
                  "name": "parameters",
                  "type": "bytes"
                }
              ],
              "internalType": "struct PluginReference",
              "name": "collOracle",
              "type": "tuple"
            },
            {
              "internalType": "address",
              "name": "factory",
              "type": "address"
            },
            {
              "components": [
                {
                  "internalType": "address",
                  "name": "addr",
                  "type": "address"
                },
                {
                  "internalType": "bytes",
                  "name": "parameters",
                  "type": "bytes"
                }
              ],
              "internalType": "struct PluginReference",
              "name": "position",
              "type": "tuple"
            },
            {
              "internalType": "uint256",
              "name": "deploymentTime",
              "type": "uint256"
            },
            {
              "internalType": "bytes",
              "name": "fillerData",
              "type": "bytes"
            }
          ],
          "internalType": "struct Agreement",
          "name": "agreement",
          "type": "tuple"
        },
        {
          "internalType": "uint256",
          "name": "amountToClose",
          "type": "uint256"
        }
      ],
      "name": "close",
      "outputs": [],
      "stateMutability": "nonpayable",
      "type": "function"
    },
    {
      "inputs": [],
      "name": "createClone",
      "outputs": [
        {
          "internalType": "address",
          "name": "addr",
          "type": "address"
        }
      ],
      "stateMutability": "nonpayable",
      "type": "function"
    },
    {
      "inputs": [
        {
          "components": [
            {
              "internalType": "uint256",
              "name": "loanAmount",
              "type": "uint256"
            },
            {
              "internalType": "uint256",
              "name": "collAmount",
              "type": "uint256"
            },
            {
              "internalType": "bytes",
              "name": "loanAsset",
              "type": "bytes"
            },
            {
              "internalType": "bytes",
              "name": "collAsset",
              "type": "bytes"
            },
            {
              "internalType": "uint256",
              "name": "minCollateralRatio",
              "type": "uint256"
            },
            {
              "internalType": "uint256",
              "name": "maxDuration",
              "type": "uint256"
            },
            {
              "internalType": "bool",
              "name": "isLeverage",
              "type": "bool"
            },
            {
              "components": [
                {
                  "internalType": "address",
                  "name": "addr",
                  "type": "address"
                },
                {
                  "internalType": "bytes",
                  "name": "parameters",
                  "type": "bytes"
                }
              ],
              "internalType": "struct PluginReference",
              "name": "lenderAccount",
              "type": "tuple"
            },
            {
              "components": [
                {
                  "internalType": "address",
                  "name": "addr",
                  "type": "address"
                },
                {
                  "internalType": "bytes",
                  "name": "parameters",
                  "type": "bytes"
                }
              ],
              "internalType": "struct PluginReference",
              "name": "borrowerAccount",
              "type": "tuple"
            },
            {
              "components": [
                {
                  "internalType": "address",
                  "name": "addr",
                  "type": "address"
                },
                {
                  "internalType": "bytes",
                  "name": "parameters",
                  "type": "bytes"
                }
              ],
              "internalType": "struct PluginReference",
              "name": "assessor",
              "type": "tuple"
            },
            {
              "components": [
                {
                  "internalType": "address",
                  "name": "addr",
                  "type": "address"
                },
                {
                  "internalType": "bytes",
                  "name": "parameters",
                  "type": "bytes"
                }
              ],
              "internalType": "struct PluginReference",
              "name": "liquidator",
              "type": "tuple"
            },
            {
              "components": [
                {
                  "internalType": "address",
                  "name": "addr",
                  "type": "address"
                },
                {
                  "internalType": "bytes",
                  "name": "parameters",
                  "type": "bytes"
                }
              ],
              "internalType": "struct PluginReference",
              "name": "loanOracle",
              "type": "tuple"
            },
            {
              "components": [
                {
                  "internalType": "address",
                  "name": "addr",
                  "type": "address"
                },
                {
                  "internalType": "bytes",
                  "name": "parameters",
                  "type": "bytes"
                }
              ],
              "internalType": "struct PluginReference",
              "name": "collOracle",
              "type": "tuple"
            },
            {
              "internalType": "address",
              "name": "factory",
              "type": "address"
            },
            {
              "components": [
                {
                  "internalType": "address",
                  "name": "addr",
                  "type": "address"
                },
                {
                  "internalType": "bytes",
                  "name": "parameters",
                  "type": "bytes"
                }
              ],
              "internalType": "struct PluginReference",
              "name": "position",
              "type": "tuple"
            },
            {
              "internalType": "uint256",
              "name": "deploymentTime",
              "type": "uint256"
            },
            {
              "internalType": "bytes",
              "name": "fillerData",
              "type": "bytes"
            }
          ],
          "internalType": "struct Agreement",
          "name": "agreement",
          "type": "tuple"
        }
      ],
      "name": "getCloseAmount",
      "outputs": [
        {
          "internalType": "uint256",
          "name": "",
          "type": "uint256"
        }
      ],
      "stateMutability": "nonpayable",
      "type": "function"
    },
    {
      "inputs": [
        {
          "internalType": "bytes32",
          "name": "role",
          "type": "bytes32"
        }
      ],
      "name": "getRoleAdmin",
      "outputs": [
        {
          "internalType": "bytes32",
          "name": "",
          "type": "bytes32"
        }
      ],
      "stateMutability": "view",
      "type": "function"
    },
    {
      "inputs": [
        {
          "internalType": "bytes32",
          "name": "role",
          "type": "bytes32"
        },
        {
          "internalType": "address",
          "name": "account",
          "type": "address"
        }
      ],
      "name": "grantRole",
      "outputs": [],
      "stateMutability": "nonpayable",
      "type": "function"
    },
    {
      "inputs": [
        {
          "internalType": "bytes32",
          "name": "role",
          "type": "bytes32"
        },
        {
          "internalType": "address",
          "name": "account",
          "type": "address"
        }
      ],
      "name": "hasRole",
      "outputs": [
        {
          "internalType": "bool",
          "name": "",
          "type": "bool"
        }
      ],
      "stateMutability": "view",
      "type": "function"
    },
    {
      "inputs": [],
      "name": "initialize",
      "outputs": [],
      "stateMutability": "nonpayable",
      "type": "function"
    },
    {
      "inputs": [
        {
          "components": [
            {
              "internalType": "uint256",
              "name": "loanAmount",
              "type": "uint256"
            },
            {
              "internalType": "uint256",
              "name": "collAmount",
              "type": "uint256"
            },
            {
              "internalType": "bytes",
              "name": "loanAsset",
              "type": "bytes"
            },
            {
              "internalType": "bytes",
              "name": "collAsset",
              "type": "bytes"
            },
            {
              "internalType": "uint256",
              "name": "minCollateralRatio",
              "type": "uint256"
            },
            {
              "internalType": "uint256",
              "name": "maxDuration",
              "type": "uint256"
            },
            {
              "internalType": "bool",
              "name": "isLeverage",
              "type": "bool"
            },
            {
              "components": [
                {
                  "internalType": "address",
                  "name": "addr",
                  "type": "address"
                },
                {
                  "internalType": "bytes",
                  "name": "parameters",
                  "type": "bytes"
                }
              ],
              "internalType": "struct PluginReference",
              "name": "lenderAccount",
              "type": "tuple"
            },
            {
              "components": [
                {
                  "internalType": "address",
                  "name": "addr",
                  "type": "address"
                },
                {
                  "internalType": "bytes",
                  "name": "parameters",
                  "type": "bytes"
                }
              ],
              "internalType": "struct PluginReference",
              "name": "borrowerAccount",
              "type": "tuple"
            },
            {
              "components": [
                {
                  "internalType": "address",
                  "name": "addr",
                  "type": "address"
                },
                {
                  "internalType": "bytes",
                  "name": "parameters",
                  "type": "bytes"
                }
              ],
              "internalType": "struct PluginReference",
              "name": "assessor",
              "type": "tuple"
            },
            {
              "components": [
                {
                  "internalType": "address",
                  "name": "addr",
                  "type": "address"
                },
                {
                  "internalType": "bytes",
                  "name": "parameters",
                  "type": "bytes"
                }
              ],
              "internalType": "struct PluginReference",
              "name": "liquidator",
              "type": "tuple"
            },
            {
              "components": [
                {
                  "internalType": "address",
                  "name": "addr",
                  "type": "address"
                },
                {
                  "internalType": "bytes",
                  "name": "parameters",
                  "type": "bytes"
                }
              ],
              "internalType": "struct PluginReference",
              "name": "loanOracle",
              "type": "tuple"
            },
            {
              "components": [
                {
                  "internalType": "address",
                  "name": "addr",
                  "type": "address"
                },
                {
                  "internalType": "bytes",
                  "name": "parameters",
                  "type": "bytes"
                }
              ],
              "internalType": "struct PluginReference",
              "name": "collOracle",
              "type": "tuple"
            },
            {
              "internalType": "address",
              "name": "factory",
              "type": "address"
            },
            {
              "components": [
                {
                  "internalType": "address",
                  "name": "addr",
                  "type": "address"
                },
                {
                  "internalType": "bytes",
                  "name": "parameters",
                  "type": "bytes"
                }
              ],
              "internalType": "struct PluginReference",
              "name": "position",
              "type": "tuple"
            },
            {
              "internalType": "uint256",
              "name": "deploymentTime",
              "type": "uint256"
            },
            {
              "internalType": "bytes",
              "name": "fillerData",
              "type": "bytes"
            }
          ],
          "internalType": "struct Agreement",
          "name": "agreement",
          "type": "tuple"
        }
      ],
      "name": "open",
      "outputs": [],
      "stateMutability": "nonpayable",
      "type": "function"
    },
    {
      "inputs": [
        {
          "internalType": "bytes",
          "name": "liquidatorLogic",
          "type": "bytes"
        }
      ],
      "name": "passThrough",
      "outputs": [],
      "stateMutability": "payable",
      "type": "function"
    },
    {
      "inputs": [
        {
          "internalType": "bytes32",
          "name": "role",
          "type": "bytes32"
        },
        {
          "internalType": "address",
          "name": "account",
          "type": "address"
        }
      ],
      "name": "renounceRole",
      "outputs": [],
      "stateMutability": "nonpayable",
      "type": "function"
    },
    {
      "inputs": [
        {
          "internalType": "bytes32",
          "name": "role",
          "type": "bytes32"
        },
        {
          "internalType": "address",
          "name": "account",
          "type": "address"
        }
      ],
      "name": "revokeRole",
      "outputs": [],
      "stateMutability": "nonpayable",
      "type": "function"
    },
    {
      "inputs": [
        {
          "internalType": "bytes4",
          "name": "interfaceId",
          "type": "bytes4"
        }
      ],
      "name": "supportsInterface",
      "outputs": [
        {
          "internalType": "bool",
          "name": "",
          "type": "bool"
        }
      ],
      "stateMutability": "view",
      "type": "function"
    },
    {
      "inputs": [
        {
          "internalType": "address",
          "name": "controller",
          "type": "address"
        }
      ],
      "name": "transferContract",
      "outputs": [],
      "stateMutability": "nonpayable",
      "type": "function"
    },
    {
      "inputs": [
        {
          "components": [
            {
              "internalType": "uint256",
              "name": "loanAmount",
              "type": "uint256"
            },
            {
              "internalType": "uint256",
              "name": "collAmount",
              "type": "uint256"
            },
            {
              "internalType": "bytes",
              "name": "loanAsset",
              "type": "bytes"
            },
            {
              "internalType": "bytes",
              "name": "collAsset",
              "type": "bytes"
            },
            {
              "internalType": "uint256",
              "name": "minCollateralRatio",
              "type": "uint256"
            },
            {
              "internalType": "uint256",
              "name": "maxDuration",
              "type": "uint256"
            },
            {
              "internalType": "bool",
              "name": "isLeverage",
              "type": "bool"
            },
            {
              "components": [
                {
                  "internalType": "address",
                  "name": "addr",
                  "type": "address"
                },
                {
                  "internalType": "bytes",
                  "name": "parameters",
                  "type": "bytes"
                }
              ],
              "internalType": "struct PluginReference",
              "name": "lenderAccount",
              "type": "tuple"
            },
            {
              "components": [
                {
                  "internalType": "address",
                  "name": "addr",
                  "type": "address"
                },
                {
                  "internalType": "bytes",
                  "name": "parameters",
                  "type": "bytes"
                }
              ],
              "internalType": "struct PluginReference",
              "name": "borrowerAccount",
              "type": "tuple"
            },
            {
              "components": [
                {
                  "internalType": "address",
                  "name": "addr",
                  "type": "address"
                },
                {
                  "internalType": "bytes",
                  "name": "parameters",
                  "type": "bytes"
                }
              ],
              "internalType": "struct PluginReference",
              "name": "assessor",
              "type": "tuple"
            },
            {
              "components": [
                {
                  "internalType": "address",
                  "name": "addr",
                  "type": "address"
                },
                {
                  "internalType": "bytes",
                  "name": "parameters",
                  "type": "bytes"
                }
              ],
              "internalType": "struct PluginReference",
              "name": "liquidator",
              "type": "tuple"
            },
            {
              "components": [
                {
                  "internalType": "address",
                  "name": "addr",
                  "type": "address"
                },
                {
                  "internalType": "bytes",
                  "name": "parameters",
                  "type": "bytes"
                }
              ],
              "internalType": "struct PluginReference",
              "name": "loanOracle",
              "type": "tuple"
            },
            {
              "components": [
                {
                  "internalType": "address",
                  "name": "addr",
                  "type": "address"
                },
                {
                  "internalType": "bytes",
                  "name": "parameters",
                  "type": "bytes"
                }
              ],
              "internalType": "struct PluginReference",
              "name": "collOracle",
              "type": "tuple"
            },
            {
              "internalType": "address",
              "name": "factory",
              "type": "address"
            },
            {
              "components": [
                {
                  "internalType": "address",
                  "name": "addr",
                  "type": "address"
                },
                {
                  "internalType": "bytes",
                  "name": "parameters",
                  "type": "bytes"
                }
              ],
              "internalType": "struct PluginReference",
              "name": "position",
              "type": "tuple"
            },
            {
              "internalType": "uint256",
              "name": "deploymentTime",
              "type": "uint256"
            },
            {
              "internalType": "bytes",
              "name": "fillerData",
              "type": "bytes"
            }
          ],
          "internalType": "struct Agreement",
          "name": "agreement",
          "type": "tuple"
        }
      ],
      "name": "unwind",
      "outputs": [],
      "stateMutability": "nonpayable",
      "type": "function"
    },
    {
      "stateMutability": "payable",
      "type": "receive"
    }
  ],
  "bytecode": "0x60c06040523480156200001157600080fd5b5060405162004a1738038062004a17833981810160405281019062000037919062000398565b808062000049620000ee60201b60201c565b8073ffffffffffffffffffffffffffffffffffffffff1660808173ffffffffffffffffffffffffffffffffffffffff16815250503073ffffffffffffffffffffffffffffffffffffffff1660a08173ffffffffffffffffffffffffffffffffffffffff1681525050620000e57f03c7040f8e5b938f657d4600d08b1b77f390141994844cbb34ff043f26ac6cd7608051620001b560201b60201c565b505050620004ae565b60018054906101000a900460ff16156200013f576040517f08c379a0000000000000000000000000000000000000000000000000000000008152600401620001369062000451565b60405180910390fd5b60ff8016600160009054906101000a900460ff1660ff1614620001b35760ff600160006101000a81548160ff021916908360ff1602179055507f7f26b83ff96e1f2b6a682f133852f6798a09c465da95921460cefb384740249860ff604051620001aa919062000491565b60405180910390a15b565b620001c78282620001cb60201b60201c565b5050565b620001dd8282620002bc60201b60201c565b620002b857600160008084815260200190815260200160002060000160008373ffffffffffffffffffffffffffffffffffffffff1673ffffffffffffffffffffffffffffffffffffffff16815260200190815260200160002060006101000a81548160ff0219169083151502179055506200025d6200032660201b60201c565b73ffffffffffffffffffffffffffffffffffffffff168173ffffffffffffffffffffffffffffffffffffffff16837f2f8788117e7eff1d82e926ec794901d17c78024a50270940304540a733656f0d60405160405180910390a45b5050565b600080600084815260200190815260200160002060000160008373ffffffffffffffffffffffffffffffffffffffff1673ffffffffffffffffffffffffffffffffffffffff16815260200190815260200160002060009054906101000a900460ff16905092915050565b600033905090565b600080fd5b600073ffffffffffffffffffffffffffffffffffffffff82169050919050565b6000620003608262000333565b9050919050565b620003728162000353565b81146200037e57600080fd5b50565b600081519050620003928162000367565b92915050565b600060208284031215620003b157620003b06200032e565b5b6000620003c18482850162000381565b91505092915050565b600082825260208201905092915050565b7f496e697469616c697a61626c653a20636f6e747261637420697320696e69746960008201527f616c697a696e6700000000000000000000000000000000000000000000000000602082015250565b600062000439602783620003ca565b91506200044682620003db565b604082019050919050565b600060208201905081810360008301526200046c816200042a565b9050919050565b600060ff82169050919050565b6200048b8162000473565b82525050565b6000602082019050620004a8600083018462000480565b92915050565b60805160a0516144fd6200051a6000396000818161053f01528181610631015281816106db0152818161090901528181610a8d01528181610b1b01528181610c3201528181610c5601528181610d93015261108a015260008181610bb00152610d6f01526144fd6000f3fe6080604052600436106101025760003560e01c80638129fc1c11610095578063a217fddf11610064578063a217fddf14610328578063a299292514610353578063be52bce71461037e578063d547741f1461039a578063edd9e4b5146103c357610109565b80638129fc1c146102805780638823151b146102975780638f9acff3146102c257806391d14854146102eb57610109565b806347635dac116100d157806347635dac146101da5780635aa564091461020357806364f2d4b91461022c5780636c3fc8311461025757610109565b806301ffc9a71461010e578063248a9ca31461014b5780632f2ff15d1461018857806336568abe146101b157610109565b3661010957005b600080fd5b34801561011a57600080fd5b50610135600480360381019061013091906125ea565b610400565b6040516101429190612632565b60405180910390f35b34801561015757600080fd5b50610172600480360381019061016d9190612683565b61047a565b60405161017f91906126bf565b60405180910390f35b34801561019457600080fd5b506101af60048036038101906101aa9190612738565b610499565b005b3480156101bd57600080fd5b506101d860048036038101906101d39190612738565b6104ba565b005b3480156101e657600080fd5b5061020160048036038101906101fc9190612778565b61053d565b005b34801561020f57600080fd5b5061022a600480360381019061022591906127ca565b61062f565b005b34801561023857600080fd5b506102416106d7565b60405161024e9190612822565b60405180910390f35b34801561026357600080fd5b5061027e60048036038101906102799190612873565b610907565b005b34801561028c57600080fd5b506102956109b1565b005b3480156102a357600080fd5b506102ac610c30565b6040516102b99190612822565b60405180910390f35b3480156102ce57600080fd5b506102e960048036038101906102e491906127ca565b610c54565b005b3480156102f757600080fd5b50610312600480360381019061030d9190612738565b610cfc565b60405161031f9190612632565b60405180910390f35b34801561033457600080fd5b5061033d610d66565b60405161034a91906126bf565b60405180910390f35b34801561035f57600080fd5b50610368610d6d565b6040516103759190612822565b60405180910390f35b61039860048036038101906103939190612934565b610d91565b005b3480156103a657600080fd5b506103c160048036038101906103bc9190612738565b611065565b005b3480156103cf57600080fd5b506103ea60048036038101906103e59190612e0c565b611086565b6040516103f79190612e64565b60405180910390f35b60007f7965db0b000000000000000000000000000000000000000000000000000000007bffffffffffffffffffffffffffffffffffffffffffffffffffffffff1916827bffffffffffffffffffffffffffffffffffffffffffffffffffffffff19161480610473575061047282611126565b5b9050919050565b6000806000838152602001908152602001600020600101549050919050565b6104a28261047a565b6104ab81611190565b6104b583836111a4565b505050565b6104c2611284565b73ffffffffffffffffffffffffffffffffffffffff168173ffffffffffffffffffffffffffffffffffffffff161461052f576040517f08c379a000000000000000000000000000000000000000000000000000000000815260040161052690612f02565b60405180910390fd5b610539828261128c565b5050565b7f000000000000000000000000000000000000000000000000000000000000000073ffffffffffffffffffffffffffffffffffffffff163073ffffffffffffffffffffffffffffffffffffffff16036105cb576040517f08c379a00000000000000000000000000000000000000000000000000000000081526004016105c290612f6e565b60405180910390fd5b6000801b6105d881611190565b6105e56000801b83610499565b6105f26000801b336104ba565b7fa06677f7b64342b4bcbde423684dbdb5356acfe41ad0285b6ecbe6dc4bf427f23383604051610623929190612f8e565b60405180910390a15050565b7f000000000000000000000000000000000000000000000000000000000000000073ffffffffffffffffffffffffffffffffffffffff163073ffffffffffffffffffffffffffffffffffffffff16036106bd576040517f08c379a00000000000000000000000000000000000000000000000000000000081526004016106b490612f6e565b60405180910390fd5b6000801b6106ca81611190565b6106d38261136d565b5050565b60007f000000000000000000000000000000000000000000000000000000000000000073ffffffffffffffffffffffffffffffffffffffff163073ffffffffffffffffffffffffffffffffffffffff1614610767576040517f08c379a000000000000000000000000000000000000000000000000000000000815260040161075e90613003565b60405180910390fd5b7f03c7040f8e5b938f657d4600d08b1b77f390141994844cbb34ff043f26ac6cd761079181611190565b61079a3061164c565b915060008273ffffffffffffffffffffffffffffffffffffffff166040516024016040516020818303038152906040527f8129fc1c000000000000000000000000000000000000000000000000000000007bffffffffffffffffffffffffffffffffffffffffffffffffffffffff19166020820180517bffffffffffffffffffffffffffffffffffffffffffffffffffffffff83818316178352505050506040516108459190613094565b6000604051808303816000865af19150503d8060008114610882576040519150601f19603f3d011682016040523d82523d6000602084013e610887565b606091505b50509050806108cb576040517f08c379a00000000000000000000000000000000000000000000000000000000081526004016108c2906130f7565b60405180910390fd5b7fbe2f3d28fdeb5839123d65fd47ec2f5915c715d2b527b9e229123706fdecfc85836040516108fa9190612822565b60405180910390a1505090565b7f000000000000000000000000000000000000000000000000000000000000000073ffffffffffffffffffffffffffffffffffffffff163073ffffffffffffffffffffffffffffffffffffffff1603610995576040517f08c379a000000000000000000000000000000000000000000000000000000000815260040161098c90612f6e565b60405180910390fd5b6000801b6109a281611190565b6109ac8383611706565b505050565b600060018054906101000a900460ff161590508080156109e2575060018060009054906101000a900460ff1660ff16105b80610a1057506109f130611d4b565b158015610a0f575060018060009054906101000a900460ff1660ff16145b5b610a4f576040517f08c379a0000000000000000000000000000000000000000000000000000000008152600401610a4690613189565b60405180910390fd5b60018060006101000a81548160ff021916908360ff1602179055508015610a8b5760018060016101000a81548160ff0219169083151502179055505b7f000000000000000000000000000000000000000000000000000000000000000073ffffffffffffffffffffffffffffffffffffffff163073ffffffffffffffffffffffffffffffffffffffff1603610b19576040517f08c379a0000000000000000000000000000000000000000000000000000000008152600401610b1090612f6e565b60405180910390fd5b7f000000000000000000000000000000000000000000000000000000000000000073ffffffffffffffffffffffffffffffffffffffff163373ffffffffffffffffffffffffffffffffffffffff1614610ba7576040517f08c379a0000000000000000000000000000000000000000000000000000000008152600401610b9e906131f5565b60405180910390fd5b610bd46000801b7f0000000000000000000000000000000000000000000000000000000000000000611d6e565b8015610c2d5760006001806101000a81548160ff0219169083151502179055507f7f26b83ff96e1f2b6a682f133852f6798a09c465da95921460cefb38474024986001604051610c249190613267565b60405180910390a15b50565b7f000000000000000000000000000000000000000000000000000000000000000081565b7f000000000000000000000000000000000000000000000000000000000000000073ffffffffffffffffffffffffffffffffffffffff163073ffffffffffffffffffffffffffffffffffffffff1603610ce2576040517f08c379a0000000000000000000000000000000000000000000000000000000008152600401610cd990612f6e565b60405180910390fd5b6000801b610cef81611190565b610cf882611d7c565b5050565b600080600084815260200190815260200160002060000160008373ffffffffffffffffffffffffffffffffffffffff1673ffffffffffffffffffffffffffffffffffffffff16815260200190815260200160002060009054906101000a900460ff16905092915050565b6000801b81565b7f000000000000000000000000000000000000000000000000000000000000000081565b7f000000000000000000000000000000000000000000000000000000000000000073ffffffffffffffffffffffffffffffffffffffff163073ffffffffffffffffffffffffffffffffffffffff1603610e1f576040517f08c379a0000000000000000000000000000000000000000000000000000000008152600401610e1690612f6e565b60405180910390fd5b6000801b610e2c81611190565b60008383810190610e3d91906135df565b905060005b81600001515181101561105e5781604001518181518110610e6657610e65613628565b5b6020026020010151610f6257600082600001518281518110610e8b57610e8a613628565b5b602002602001015173ffffffffffffffffffffffffffffffffffffffff163484602001518481518110610ec157610ec0613628565b5b6020026020010151604051610ed69190613094565b60006040518083038185875af1925050503d8060008114610f13576040519150601f19603f3d011682016040523d82523d6000602084013e610f18565b606091505b5050905080610f5c576040517f08c379a0000000000000000000000000000000000000000000000000000000008152600401610f53906136a3565b60405180910390fd5b5061104b565b600082600001518281518110610f7b57610f7a613628565b5b602002602001015173ffffffffffffffffffffffffffffffffffffffff1683602001518381518110610fb057610faf613628565b5b6020026020010151604051610fc59190613094565b600060405180830381855af49150503d8060008114611000576040519150601f19603f3d011682016040523d82523d6000602084013e611005565b606091505b5050905080611049576040517f08c379a00000000000000000000000000000000000000000000000000000000081526004016110409061370f565b60405180910390fd5b505b80806110569061375e565b915050610e42565b5050505050565b61106e8261047a565b61107781611190565b611081838361128c565b505050565b60007f000000000000000000000000000000000000000000000000000000000000000073ffffffffffffffffffffffffffffffffffffffff163073ffffffffffffffffffffffffffffffffffffffff1603611116576040517f08c379a000000000000000000000000000000000000000000000000000000000815260040161110d90612f6e565b60405180910390fd5b61111f82611d7f565b9050919050565b60007f01ffc9a7000000000000000000000000000000000000000000000000000000007bffffffffffffffffffffffffffffffffffffffffffffffffffffffff1916827bffffffffffffffffffffffffffffffffffffffffffffffffffffffff1916149050919050565b6111a18161119c611284565b612290565b50565b6111ae8282610cfc565b61128057600160008084815260200190815260200160002060000160008373ffffffffffffffffffffffffffffffffffffffff1673ffffffffffffffffffffffffffffffffffffffff16815260200190815260200160002060006101000a81548160ff021916908315150217905550611225611284565b73ffffffffffffffffffffffffffffffffffffffff168173ffffffffffffffffffffffffffffffffffffffff16837f2f8788117e7eff1d82e926ec794901d17c78024a50270940304540a733656f0d60405160405180910390a45b5050565b600033905090565b6112968282610cfc565b1561136957600080600084815260200190815260200160002060000160008373ffffffffffffffffffffffffffffffffffffffff1673ffffffffffffffffffffffffffffffffffffffff16815260200190815260200160002060006101000a81548160ff02191690831515021790555061130e611284565b73ffffffffffffffffffffffffffffffffffffffff168173ffffffffffffffffffffffffffffffffffffffff16837ff6391f5c32d9c69d2a47ea670b442974b53935d1edc7fd64eb21e047a839171b60405160405180910390a45b5050565b60008180610100019061138091906137b5565b806020019061138f91906137dd565b81019061139c9190613890565b905060008280604001906113b091906137dd565b8101906113bd9190613991565b90506000838061020001906113d291906137dd565b8101906113df9190613a16565b90506002826000015160ff1614806113fe57506003826000015160ff16145b801561140e575060008260600151145b156114225780600001518260600181815250505b6000670de0b6b3a76400008360400151600a61143e9190613b76565b866000013561144d9190613bc1565b6114579190613c32565b90506001836000015160ff16036114e05773__$0dbc1134add5307a68154fc29708de467d$__63d4e3bdb684602001518660000151846040518463ffffffff1660e01b81526004016114ab93929190613c81565b60006040518083038186803b1580156114c357600080fd5b505af41580156114d7573d6000803e3d6000fd5b50505050611645565b6002836000015160ff16036115735773__$0dbc1134add5307a68154fc29708de467d$__63db25adcc8460200151308760000151876060015188608001516040518663ffffffff1660e01b815260040161153e959493929190613d02565b60006040518083038186803b15801561155657600080fd5b505af415801561156a573d6000803e3d6000fd5b50505050611644565b6003836000015160ff16036116085773__$0dbc1134add5307a68154fc29708de467d$__63ffc87727846020015130876000015187606001518689608001516040518763ffffffff1660e01b81526004016115d396959493929190613d5c565b60006040518083038186803b1580156115eb57600080fd5b505af41580156115ff573d6000803e3d6000fd5b50505050611643565b6040517f08c379a000000000000000000000000000000000000000000000000000000000815260040161163a90613e10565b60405180910390fd5b5b5b5050505050565b6000763d602d80600a3d3981f3363d3d373d3d3d363d730000008260601b60e81c176000526e5af43d82803e903d91602b57fd5bf38260781b17602052603760096000f09050600073ffffffffffffffffffffffffffffffffffffffff168173ffffffffffffffffffffffffffffffffffffffff1603611701576040517f08c379a00000000000000000000000000000000000000000000000000000000081526004016116f890613e7c565b60405180910390fd5b919050565b60008280610100019061171991906137b5565b806020019061172891906137dd565b8101906117359190613890565b905060008380610200019061174a91906137dd565b8101906117579190613a16565b9050600084806040019061176b91906137dd565b8101906117789190613991565b90506002816000015160ff16148061179757506003816000015160ff16145b80156117a7575060008160600151145b156117bb5781600001518160600181815250505b60008580606001906117cd91906137dd565b8101906117da9190613991565b90506002816000015160ff1614806117f957506003816000015160ff16145b8015611809575060008160600151145b1561181d5782600001518160600181815250505b6001826000015160ff16036118d557816020015173ffffffffffffffffffffffffffffffffffffffff1663095ea7b3878060e0019061185c91906137b5565b600001602081019061186e9190612778565b876040518363ffffffff1660e01b815260040161188c929190613e9c565b6020604051808303816000875af11580156118ab573d6000803e3d6000fd5b505050506040513d601f19601f820116820180604052508101906118cf9190613eda565b50611a60565b6002816000015160ff160361197c57806020015173ffffffffffffffffffffffffffffffffffffffff1663a22cb465878060e0019061191491906137b5565b60000160208101906119269190612778565b60016040518363ffffffff1660e01b8152600401611945929190613f07565b600060405180830381600087803b15801561195f57600080fd5b505af1158015611973573d6000803e3d6000fd5b50505050611a5f565b6003816000015160ff1603611a2357806020015173ffffffffffffffffffffffffffffffffffffffff1663a22cb465878060e001906119bb91906137b5565b60000160208101906119cd9190612778565b60016040518363ffffffff1660e01b81526004016119ec929190613f07565b600060405180830381600087803b158015611a0657600080fd5b505af1158015611a1a573d6000803e3d6000fd5b50505050611a5e565b6040517f08c379a0000000000000000000000000000000000000000000000000000000008152600401611a5590613e10565b60405180910390fd5b5b5b858060e00190611a7091906137b5565b6000016020810190611a829190612778565b73ffffffffffffffffffffffffffffffffffffffff166306b1c4c9878060400190611aad91906137dd565b888a8060e00190611abe91906137b5565b8060200190611acd91906137dd565b6040518663ffffffff1660e01b8152600401611aed959493929190613f6e565b600060405180830381600087803b158015611b0757600080fd5b505af1158015611b1b573d6000803e3d6000fd5b505050506000670de0b6b3a76400008260400151600a611b3b9190613b76565b8860200135611b4a9190613bc1565b611b549190613c32565b90506001826000015160ff1603611bdd5773__$0dbc1134add5307a68154fc29708de467d$__63d4e3bdb683602001518760000151846040518463ffffffff1660e01b8152600401611ba893929190613c81565b60006040518083038186803b158015611bc057600080fd5b505af4158015611bd4573d6000803e3d6000fd5b50505050611d42565b6002826000015160ff1603611c705773__$0dbc1134add5307a68154fc29708de467d$__63db25adcc8360200151308860000151866060015187608001516040518663ffffffff1660e01b8152600401611c3b959493929190613d02565b60006040518083038186803b158015611c5357600080fd5b505af4158015611c67573d6000803e3d6000fd5b50505050611d41565b6003826000015160ff1603611d055773__$0dbc1134add5307a68154fc29708de467d$__63ffc87727836020015130886000015186606001518688608001516040518763ffffffff1660e01b8152600401611cd096959493929190613d5c565b60006040518083038186803b158015611ce857600080fd5b505af4158015611cfc573d6000803e3d6000fd5b50505050611d40565b6040517f08c379a0000000000000000000000000000000000000000000000000000000008152600401611d3790613e10565b60405180910390fd5b5b5b50505050505050565b6000808273ffffffffffffffffffffffffffffffffffffffff163b119050919050565b611d7882826111a4565b5050565b50565b6000808260600151806020019051810190611d9a919061410e565b90506000836102000151806020019051810190611db79190614193565b90506002826000015160ff161480611dd657506003826000015160ff16145b8015611de6575060008260600151145b15611dfa5780600001518260600181815250505b60008260200151905060008360400151905060006001856000015160ff1603611f5a5760008373ffffffffffffffffffffffffffffffffffffffff166370a08231306040518263ffffffff1660e01b8152600401611e589190612822565b602060405180830381865afa158015611e75573d6000803e3d6000fd5b505050506040513d601f19601f82011682018060405250810190611e9991906141c0565b905082600a611ea89190613b76565b8861018001516000015173ffffffffffffffffffffffffffffffffffffffff1663f09f40798a6101800151602001518b61020001516040518363ffffffff1660e01b8152600401611efa929190614226565b6020604051808303816000875af1158015611f19573d6000803e3d6000fd5b505050506040513d601f19601f82011682018060405250810190611f3d91906141c0565b82611f489190613bc1565b611f529190613c32565b915050612283565b6002856000015160ff16036120f157600080866020015173ffffffffffffffffffffffffffffffffffffffff16636352211e88606001516040518263ffffffff1660e01b8152600401611fad9190612e64565b602060405180830381865afa158015611fca573d6000803e3d6000fd5b505050506040513d601f19601f82011682018060405250810190611fee919061425d565b90503073ffffffffffffffffffffffffffffffffffffffff168173ffffffffffffffffffffffffffffffffffffffff160361202c5760019150612031565b600091505b83600a61203e9190613b76565b8961018001516000015173ffffffffffffffffffffffffffffffffffffffff1663f09f40798b6101800151602001518c61020001516040518363ffffffff1660e01b8152600401612090929190614226565b6020604051808303816000875af11580156120af573d6000803e3d6000fd5b505050506040513d601f19601f820116820180604052508101906120d391906141c0565b836120de9190613bc1565b6120e89190613c32565b92505050612282565b6003856000015160ff1603612246576000856020015173ffffffffffffffffffffffffffffffffffffffff1662fdd58e3088606001516040518363ffffffff1660e01b8152600401612144929190613e9c565b602060405180830381865afa158015612161573d6000803e3d6000fd5b505050506040513d601f19601f8201168201806040525081019061218591906141c0565b905082600a6121949190613b76565b8861018001516000015173ffffffffffffffffffffffffffffffffffffffff1663f09f40798a6101800151602001518b61020001516040518363ffffffff1660e01b81526004016121e6929190614226565b6020604051808303816000875af1158015612205573d6000803e3d6000fd5b505050506040513d601f19601f8201168201806040525081019061222991906141c0565b826122349190613bc1565b61223e9190613c32565b915050612281565b6040517f08c379a000000000000000000000000000000000000000000000000000000000815260040161227890613e10565b60405180910390fd5b5b5b8095505050505050919050565b61229a8282610cfc565b612311576122a781612315565b6122b58360001c6020612342565b6040516020016122c6929190614369565b6040516020818303038152906040526040517f08c379a000000000000000000000000000000000000000000000000000000000815260040161230891906143dc565b60405180910390fd5b5050565b606061233b8273ffffffffffffffffffffffffffffffffffffffff16601460ff16612342565b9050919050565b6060600060028360026123559190613bc1565b61235f91906143fe565b67ffffffffffffffff81111561237857612377612997565b5b6040519080825280601f01601f1916602001820160405280156123aa5781602001600182028036833780820191505090505b5090507f3000000000000000000000000000000000000000000000000000000000000000816000815181106123e2576123e1613628565b5b60200101907effffffffffffffffffffffffffffffffffffffffffffffffffffffffffffff1916908160001a9053507f78000000000000000000000000000000000000000000000000000000000000008160018151811061244657612445613628565b5b60200101907effffffffffffffffffffffffffffffffffffffffffffffffffffffffffffff1916908160001a905350600060018460026124869190613bc1565b61249091906143fe565b90505b6001811115612530577f3031323334353637383961626364656600000000000000000000000000000000600f8616601081106124d2576124d1613628565b5b1a60f81b8282815181106124e9576124e8613628565b5b60200101907effffffffffffffffffffffffffffffffffffffffffffffffffffffffffffff1916908160001a905350600485901c94508061252990614432565b9050612493565b5060008414612574576040517f08c379a000000000000000000000000000000000000000000000000000000000815260040161256b906144a7565b60405180910390fd5b8091505092915050565b6000604051905090565b600080fd5b600080fd5b60007fffffffff0000000000000000000000000000000000000000000000000000000082169050919050565b6125c781612592565b81146125d257600080fd5b50565b6000813590506125e4816125be565b92915050565b600060208284031215612600576125ff612588565b5b600061260e848285016125d5565b91505092915050565b60008115159050919050565b61262c81612617565b82525050565b60006020820190506126476000830184612623565b92915050565b6000819050919050565b6126608161264d565b811461266b57600080fd5b50565b60008135905061267d81612657565b92915050565b60006020828403121561269957612698612588565b5b60006126a78482850161266e565b91505092915050565b6126b98161264d565b82525050565b60006020820190506126d460008301846126b0565b92915050565b600073ffffffffffffffffffffffffffffffffffffffff82169050919050565b6000612705826126da565b9050919050565b612715816126fa565b811461272057600080fd5b50565b6000813590506127328161270c565b92915050565b6000806040838503121561274f5761274e612588565b5b600061275d8582860161266e565b925050602061276e85828601612723565b9150509250929050565b60006020828403121561278e5761278d612588565b5b600061279c84828501612723565b91505092915050565b600080fd5b600061022082840312156127c1576127c06127a5565b5b81905092915050565b6000602082840312156127e0576127df612588565b5b600082013567ffffffffffffffff8111156127fe576127fd61258d565b5b61280a848285016127aa565b91505092915050565b61281c816126fa565b82525050565b60006020820190506128376000830184612813565b92915050565b6000819050919050565b6128508161283d565b811461285b57600080fd5b50565b60008135905061286d81612847565b92915050565b6000806040838503121561288a57612889612588565b5b600083013567ffffffffffffffff8111156128a8576128a761258d565b5b6128b4858286016127aa565b92505060206128c58582860161285e565b9150509250929050565b600080fd5b600080fd5b600080fd5b60008083601f8401126128f4576128f36128cf565b5b8235905067ffffffffffffffff811115612911576129106128d4565b5b60208301915083600182028301111561292d5761292c6128d9565b5b9250929050565b6000806020838503121561294b5761294a612588565b5b600083013567ffffffffffffffff8111156129695761296861258d565b5b612975858286016128de565b92509250509250929050565b600080fd5b6000601f19601f8301169050919050565b7f4e487b7100000000000000000000000000000000000000000000000000000000600052604160045260246000fd5b6129cf82612986565b810181811067ffffffffffffffff821117156129ee576129ed612997565b5b80604052505050565b6000612a0161257e565b9050612a0d82826129c6565b919050565b600080fd5b600080fd5b600067ffffffffffffffff821115612a3757612a36612997565b5b612a4082612986565b9050602081019050919050565b82818337600083830152505050565b6000612a6f612a6a84612a1c565b6129f7565b905082815260208101848484011115612a8b57612a8a612a17565b5b612a96848285612a4d565b509392505050565b600082601f830112612ab357612ab26128cf565b5b8135612ac3848260208601612a5c565b91505092915050565b612ad581612617565b8114612ae057600080fd5b50565b600081359050612af281612acc565b92915050565b600060408284031215612b0e57612b0d612981565b5b612b1860406129f7565b90506000612b2884828501612723565b600083015250602082013567ffffffffffffffff811115612b4c57612b4b612a12565b5b612b5884828501612a9e565b60208301525092915050565b60006102208284031215612b7b57612b7a612981565b5b612b866102206129f7565b90506000612b968482850161285e565b6000830152506020612baa8482850161285e565b602083015250604082013567ffffffffffffffff811115612bce57612bcd612a12565b5b612bda84828501612a9e565b604083015250606082013567ffffffffffffffff811115612bfe57612bfd612a12565b5b612c0a84828501612a9e565b6060830152506080612c1e8482850161285e565b60808301525060a0612c328482850161285e565b60a08301525060c0612c4684828501612ae3565b60c08301525060e082013567ffffffffffffffff811115612c6a57612c69612a12565b5b612c7684828501612af8565b60e08301525061010082013567ffffffffffffffff811115612c9b57612c9a612a12565b5b612ca784828501612af8565b6101008301525061012082013567ffffffffffffffff811115612ccd57612ccc612a12565b5b612cd984828501612af8565b6101208301525061014082013567ffffffffffffffff811115612cff57612cfe612a12565b5b612d0b84828501612af8565b6101408301525061016082013567ffffffffffffffff811115612d3157612d30612a12565b5b612d3d84828501612af8565b6101608301525061018082013567ffffffffffffffff811115612d6357612d62612a12565b5b612d6f84828501612af8565b610180830152506101a0612d8584828501612723565b6101a0830152506101c082013567ffffffffffffffff811115612dab57612daa612a12565b5b612db784828501612af8565b6101c0830152506101e0612dcd8482850161285e565b6101e08301525061020082013567ffffffffffffffff811115612df357612df2612a12565b5b612dff84828501612a9e565b6102008301525092915050565b600060208284031215612e2257612e21612588565b5b600082013567ffffffffffffffff811115612e4057612e3f61258d565b5b612e4c84828501612b64565b91505092915050565b612e5e8161283d565b82525050565b6000602082019050612e796000830184612e55565b92915050565b600082825260208201905092915050565b7f416363657373436f6e74726f6c3a2063616e206f6e6c792072656e6f756e636560008201527f20726f6c657320666f722073656c660000000000000000000000000000000000602082015250565b6000612eec602f83612e7f565b9150612ef782612e90565b604082019050919050565b60006020820190508181036000830152612f1b81612edf565b9050919050565b7f65786563206e6f7420616c6c6f77656420696e20696d706c0000000000000000600082015250565b6000612f58601883612e7f565b9150612f6382612f22565b602082019050919050565b60006020820190508181036000830152612f8781612f4b565b9050919050565b6000604082019050612fa36000830185612813565b612fb06020830184612813565b9392505050565b7f65786563206e6f7420616c6c6f77656420696e2070726f787900000000000000600082015250565b6000612fed601983612e7f565b9150612ff882612fb7565b602082019050919050565b6000602082019050818103600083015261301c81612fe0565b9050919050565b600081519050919050565b600081905092915050565b60005b8381101561305757808201518184015260208101905061303c565b60008484015250505050565b600061306e82613023565b613078818561302e565b9350613088818560208601613039565b80840191505092915050565b60006130a08284613063565b915081905092915050565b7f637265617465436c6f6e653a20696e697469616c697a65206661696c00000000600082015250565b60006130e1601c83612e7f565b91506130ec826130ab565b602082019050919050565b60006020820190508181036000830152613110816130d4565b9050919050565b7f496e697469616c697a61626c653a20636f6e747261637420697320616c72656160008201527f647920696e697469616c697a6564000000000000000000000000000000000000602082015250565b6000613173602e83612e7f565b915061317e82613117565b604082019050919050565b600060208201905081810360008301526131a281613166565b9050919050565b7f73656e64657220213d20696d706c20636f6e7472616374000000000000000000600082015250565b60006131df601783612e7f565b91506131ea826131a9565b602082019050919050565b6000602082019050818103600083015261320e816131d2565b9050919050565b6000819050919050565b600060ff82169050919050565b6000819050919050565b600061325161324c61324784613215565b61322c565b61321f565b9050919050565b61326181613236565b82525050565b600060208201905061327c6000830184613258565b92915050565b600067ffffffffffffffff82111561329d5761329c612997565b5b602082029050602081019050919050565b60006132b9826126da565b9050919050565b6132c9816132ae565b81146132d457600080fd5b50565b6000813590506132e6816132c0565b92915050565b60006132ff6132fa84613282565b6129f7565b90508083825260208201905060208402830185811115613322576133216128d9565b5b835b8181101561334b578061333788826132d7565b845260208401935050602081019050613324565b5050509392505050565b600082601f83011261336a576133696128cf565b5b813561337a8482602086016132ec565b91505092915050565b600067ffffffffffffffff82111561339e5761339d612997565b5b602082029050602081019050919050565b60006133c26133bd84613383565b6129f7565b905080838252602082019050602084028301858111156133e5576133e46128d9565b5b835b8181101561342c57803567ffffffffffffffff81111561340a576134096128cf565b5b8086016134178982612a9e565b855260208501945050506020810190506133e7565b5050509392505050565b600082601f83011261344b5761344a6128cf565b5b813561345b8482602086016133af565b91505092915050565b600067ffffffffffffffff82111561347f5761347e612997565b5b602082029050602081019050919050565b60006134a361349e84613464565b6129f7565b905080838252602082019050602084028301858111156134c6576134c56128d9565b5b835b818110156134ef57806134db8882612ae3565b8452602084019350506020810190506134c8565b5050509392505050565b600082601f83011261350e5761350d6128cf565b5b813561351e848260208601613490565b91505092915050565b60006060828403121561353d5761353c612981565b5b61354760606129f7565b9050600082013567ffffffffffffffff81111561356757613566612a12565b5b61357384828501613355565b600083015250602082013567ffffffffffffffff81111561359757613596612a12565b5b6135a384828501613436565b602083015250604082013567ffffffffffffffff8111156135c7576135c6612a12565b5b6135d3848285016134f9565b60408301525092915050565b6000602082840312156135f5576135f4612588565b5b600082013567ffffffffffffffff8111156136135761361261258d565b5b61361f84828501613527565b91505092915050565b7f4e487b7100000000000000000000000000000000000000000000000000000000600052603260045260246000fd5b7f43616c6c206661696c6564000000000000000000000000000000000000000000600082015250565b600061368d600b83612e7f565b915061369882613657565b602082019050919050565b600060208201905081810360008301526136bc81613680565b9050919050565b7f44656c656761746543616c6c206661696c656400000000000000000000000000600082015250565b60006136f9601383612e7f565b9150613704826136c3565b602082019050919050565b60006020820190508181036000830152613728816136ec565b9050919050565b7f4e487b7100000000000000000000000000000000000000000000000000000000600052601160045260246000fd5b60006137698261283d565b91507fffffffffffffffffffffffffffffffffffffffffffffffffffffffffffffffff820361379b5761379a61372f565b5b600182019050919050565b600080fd5b600080fd5b600080fd5b6000823560016040038336030381126137d1576137d06137a6565b5b80830191505092915050565b600080833560016020038436030381126137fa576137f96137a6565b5b80840192508235915067ffffffffffffffff82111561381c5761381b6137ab565b5b602083019250600182023603831315613838576138376137b0565b5b509250929050565b60006040828403121561385657613855612981565b5b61386060406129f7565b9050600061387084828501612723565b60008301525060206138848482850161266e565b60208301525092915050565b6000604082840312156138a6576138a5612588565b5b60006138b484828501613840565b91505092915050565b6138c68161321f565b81146138d157600080fd5b50565b6000813590506138e3816138bd565b92915050565b600060a082840312156138ff576138fe612981565b5b61390960a06129f7565b90506000613919848285016138d4565b600083015250602061392d84828501612723565b6020830152506040613941848285016138d4565b60408301525060606139558482850161285e565b606083015250608082013567ffffffffffffffff81111561397957613978612a12565b5b61398584828501612a9e565b60808301525092915050565b6000602082840312156139a7576139a6612588565b5b600082013567ffffffffffffffff8111156139c5576139c461258d565b5b6139d1848285016138e9565b91505092915050565b6000602082840312156139f0576139ef612981565b5b6139fa60206129f7565b90506000613a0a8482850161285e565b60008301525092915050565b600060208284031215613a2c57613a2b612588565b5b6000613a3a848285016139da565b91505092915050565b60008160011c9050919050565b6000808291508390505b6001851115613a9a57808604811115613a7657613a7561372f565b5b6001851615613a855780820291505b8081029050613a9385613a43565b9450613a5a565b94509492505050565b600082613ab35760019050613b6f565b81613ac15760009050613b6f565b8160018114613ad75760028114613ae157613b10565b6001915050613b6f565b60ff841115613af357613af261372f565b5b8360020a915084821115613b0a57613b0961372f565b5b50613b6f565b5060208310610133831016604e8410600b8410161715613b455782820a905083811115613b4057613b3f61372f565b5b613b6f565b613b528484846001613a50565b92509050818404811115613b6957613b6861372f565b5b81810290505b9392505050565b6000613b818261283d565b9150613b8c8361321f565b9250613bb97fffffffffffffffffffffffffffffffffffffffffffffffffffffffffffffffff8484613aa3565b905092915050565b6000613bcc8261283d565b9150613bd78361283d565b9250828202613be58161283d565b91508282048414831517613bfc57613bfb61372f565b5b5092915050565b7f4e487b7100000000000000000000000000000000000000000000000000000000600052601260045260246000fd5b6000613c3d8261283d565b9150613c488361283d565b925082613c5857613c57613c03565b5b828204905092915050565b613c6c816126fa565b82525050565b613c7b8161283d565b82525050565b6000606082019050613c966000830186613c63565b613ca36020830185613c63565b613cb06040830184613c72565b949350505050565b600082825260208201905092915050565b6000613cd482613023565b613cde8185613cb8565b9350613cee818560208601613039565b613cf781612986565b840191505092915050565b600060a082019050613d176000830188613c63565b613d246020830187613c63565b613d316040830186613c63565b613d3e6060830185613c72565b8181036080830152613d508184613cc9565b90509695505050505050565b600060c082019050613d716000830189613c63565b613d7e6020830188613c63565b613d8b6040830187613c63565b613d986060830186613c72565b613da56080830185613c72565b81810360a0830152613db78184613cc9565b9050979650505050505050565b7f556e737570706f72746564206173736574207374616e64617264000000000000600082015250565b6000613dfa601a83612e7f565b9150613e0582613dc4565b602082019050919050565b60006020820190508181036000830152613e2981613ded565b9050919050565b7f455243313136373a20637265617465206661696c656400000000000000000000600082015250565b6000613e66601683612e7f565b9150613e7182613e30565b602082019050919050565b60006020820190508181036000830152613e9581613e59565b9050919050565b6000604082019050613eb16000830185612813565b613ebe6020830184612e55565b9392505050565b600081519050613ed481612acc565b92915050565b600060208284031215613ef057613eef612588565b5b6000613efe84828501613ec5565b91505092915050565b6000604082019050613f1c6000830185612813565b613f296020830184612623565b9392505050565b600082825260208201905092915050565b6000613f4d8385613f30565b9350613f5a838584612a4d565b613f6383612986565b840190509392505050565b60006060820190508181036000830152613f89818789613f41565b9050613f986020830186612e55565b8181036040830152613fab818486613f41565b90509695505050505050565b600081519050613fc6816138bd565b92915050565b600081519050613fdb8161270c565b92915050565b600081519050613ff081612847565b92915050565b600061400961400484612a1c565b6129f7565b90508281526020810184848401111561402557614024612a17565b5b614030848285613039565b509392505050565b600082601f83011261404d5761404c6128cf565b5b815161405d848260208601613ff6565b91505092915050565b600060a0828403121561407c5761407b612981565b5b61408660a06129f7565b9050600061409684828501613fb7565b60008301525060206140aa84828501613fcc565b60208301525060406140be84828501613fb7565b60408301525060606140d284828501613fe1565b606083015250608082015167ffffffffffffffff8111156140f6576140f5612a12565b5b61410284828501614038565b60808301525092915050565b60006020828403121561412457614123612588565b5b600082015167ffffffffffffffff8111156141425761414161258d565b5b61414e84828501614066565b91505092915050565b60006020828403121561416d5761416c612981565b5b61417760206129f7565b9050600061418784828501613fe1565b60008301525092915050565b6000602082840312156141a9576141a8612588565b5b60006141b784828501614157565b91505092915050565b6000602082840312156141d6576141d5612588565b5b60006141e484828501613fe1565b91505092915050565b60006141f882613023565b6142028185613f30565b9350614212818560208601613039565b61421b81612986565b840191505092915050565b6000604082019050818103600083015261424081856141ed565b9050818103602083015261425481846141ed565b90509392505050565b60006020828403121561427357614272612588565b5b600061428184828501613fcc565b91505092915050565b600081905092915050565b7f416363657373436f6e74726f6c3a206163636f756e7420000000000000000000600082015250565b60006142cb60178361428a565b91506142d682614295565b601782019050919050565b600081519050919050565b60006142f7826142e1565b614301818561428a565b9350614311818560208601613039565b80840191505092915050565b7f206973206d697373696e6720726f6c6520000000000000000000000000000000600082015250565b600061435360118361428a565b915061435e8261431d565b601182019050919050565b6000614374826142be565b915061438082856142ec565b915061438b82614346565b915061439782846142ec565b91508190509392505050565b60006143ae826142e1565b6143b88185612e7f565b93506143c8818560208601613039565b6143d181612986565b840191505092915050565b600060208201905081810360008301526143f681846143a3565b905092915050565b60006144098261283d565b91506144148361283d565b925082820190508082111561442c5761442b61372f565b5b92915050565b600061443d8261283d565b9150600082036144505761444f61372f565b5b600182039050919050565b7f537472696e67733a20686578206c656e67746820696e73756666696369656e74600082015250565b6000614491602083612e7f565b915061449c8261445b565b602082019050919050565b600060208201905081810360008301526144c081614484565b905091905056fea26469706673582212208887be6bd339e5159cad7f5e47178e1cf544c758bb55e558c182e4b065ea139e64736f6c63430008130033",
  "linkReferences": {
    "src/libraries/LibUtilsPublic.sol": {
      "LibUtilsPublic": [
        {
          "length": 20,
          "start": 6532
        },
        {
          "length": 20,
          "start": 6667
        },
        {
          "length": 20,
          "start": 6814
        },
        {
          "length": 20,
          "start": 8321
        },
        {
          "length": 20,
          "start": 8456
        },
        {
          "length": 20,
          "start": 8603
        }
      ]
    }
  },
  "deployedLinkReferences": {
    "src/libraries/LibUtilsPublic.sol": {
      "LibUtilsPublic": [
        {
          "length": 20,
          "start": 5226
        },
        {
          "length": 20,
          "start": 5361
        },
        {
          "length": 20,
          "start": 5508
        },
        {
          "length": 20,
          "start": 7015
        },
        {
          "length": 20,
          "start": 7150
        },
        {
          "length": 20,
          "start": 7297
        }
      ]
    }
  }
}