{
  "_format": "hh-sol-artifact-1",
  "contractName": "SoloAccount",
  "sourceName": "src/plugins/account/implementations/SoloAccount.sol",
  "abi": [
    {
      "inputs": [
        {
          "internalType": "address",
          "name": "bookkeeperAddr",
          "type": "address"
        }
      ],
      "stateMutability": "nonpayable",
      "type": "constructor"
    },
    {
      "anonymous": false,
      "inputs": [
        {
          "indexed": false,
          "internalType": "bytes",
          "name": "assetData",
          "type": "bytes"
        },
        {
          "indexed": false,
          "internalType": "uint256",
          "name": "amount",
          "type": "uint256"
        },
        {
          "indexed": false,
          "internalType": "bytes",
          "name": "parameters",
          "type": "bytes"
        }
      ],
      "name": "LoadedFromPosition",
      "type": "event"
    },
    {
      "anonymous": false,
      "inputs": [
        {
          "indexed": false,
          "internalType": "bytes",
          "name": "assetData",
          "type": "bytes"
        },
        {
          "indexed": false,
          "internalType": "uint256",
          "name": "amount",
          "type": "uint256"
        },
        {
          "indexed": false,
          "internalType": "bytes",
          "name": "parameters",
          "type": "bytes"
        }
      ],
      "name": "LoadedFromUser",
      "type": "event"
    },
    {
      "anonymous": false,
      "inputs": [
        {
          "indexed": true,
          "internalType": "bytes32",
          "name": "role",
          "type": "bytes32"
        },
        {
          "indexed": true,
          "internalType": "bytes32",
          "name": "previousAdminRole",
          "type": "bytes32"
        },
        {
          "indexed": true,
          "internalType": "bytes32",
          "name": "newAdminRole",
          "type": "bytes32"
        }
      ],
      "name": "RoleAdminChanged",
      "type": "event"
    },
    {
      "anonymous": false,
      "inputs": [
        {
          "indexed": true,
          "internalType": "bytes32",
          "name": "role",
          "type": "bytes32"
        },
        {
          "indexed": true,
          "internalType": "address",
          "name": "account",
          "type": "address"
        },
        {
          "indexed": true,
          "internalType": "address",
          "name": "sender",
          "type": "address"
        }
      ],
      "name": "RoleGranted",
      "type": "event"
    },
    {
      "anonymous": false,
      "inputs": [
        {
          "indexed": true,
          "internalType": "bytes32",
          "name": "role",
          "type": "bytes32"
        },
        {
          "indexed": true,
          "internalType": "address",
          "name": "account",
          "type": "address"
        },
        {
          "indexed": true,
          "internalType": "address",
          "name": "sender",
          "type": "address"
        }
      ],
      "name": "RoleRevoked",
      "type": "event"
    },
    {
      "anonymous": false,
      "inputs": [
        {
          "indexed": false,
          "internalType": "address",
          "name": "position",
          "type": "address"
        },
        {
          "indexed": false,
          "internalType": "bytes",
          "name": "assetData",
          "type": "bytes"
        },
        {
          "indexed": false,
          "internalType": "uint256",
          "name": "amount",
          "type": "uint256"
        },
        {
          "indexed": false,
          "internalType": "bytes",
          "name": "parameters",
          "type": "bytes"
        }
      ],
      "name": "UnloadedToPosition",
      "type": "event"
    },
    {
      "anonymous": false,
      "inputs": [
        {
          "indexed": false,
          "internalType": "bytes",
          "name": "assetData",
          "type": "bytes"
        },
        {
          "indexed": false,
          "internalType": "uint256",
          "name": "amount",
          "type": "uint256"
        },
        {
          "indexed": false,
          "internalType": "bytes",
          "name": "parameters",
          "type": "bytes"
        }
      ],
      "name": "UnloadedToUser",
      "type": "event"
    },
    {
      "inputs": [],
      "name": "DEFAULT_ADMIN_ROLE",
      "outputs": [
        {
          "internalType": "bytes32",
          "name": "",
          "type": "bytes32"
        }
      ],
      "stateMutability": "view",
      "type": "function"
    },
    {
      "inputs": [
        {
          "internalType": "bytes",
          "name": "assetData",
          "type": "bytes"
        },
        {
          "internalType": "bytes",
          "name": "parameters",
          "type": "bytes"
        }
      ],
      "name": "getBalance",
      "outputs": [
        {
          "internalType": "uint256",
          "name": "amounts",
          "type": "uint256"
        }
      ],
      "stateMutability": "view",
      "type": "function"
    },
    {
      "inputs": [
        {
          "internalType": "bytes",
          "name": "parameters",
          "type": "bytes"
        }
      ],
      "name": "getOwner",
      "outputs": [
        {
          "internalType": "address",
          "name": "",
          "type": "address"
        }
      ],
      "stateMutability": "pure",
      "type": "function"
    },
    {
      "inputs": [
        {
          "internalType": "bytes32",
          "name": "role",
          "type": "bytes32"
        }
      ],
      "name": "getRoleAdmin",
      "outputs": [
        {
          "internalType": "bytes32",
          "name": "",
          "type": "bytes32"
        }
      ],
      "stateMutability": "view",
      "type": "function"
    },
    {
      "inputs": [
        {
          "internalType": "bytes32",
          "name": "role",
          "type": "bytes32"
        },
        {
          "internalType": "address",
          "name": "account",
          "type": "address"
        }
      ],
      "name": "grantRole",
      "outputs": [],
      "stateMutability": "nonpayable",
      "type": "function"
    },
    {
      "inputs": [
        {
          "internalType": "bytes32",
          "name": "role",
          "type": "bytes32"
        },
        {
          "internalType": "address",
          "name": "account",
          "type": "address"
        }
      ],
      "name": "hasRole",
      "outputs": [
        {
          "internalType": "bool",
          "name": "",
          "type": "bool"
        }
      ],
      "stateMutability": "view",
      "type": "function"
    },
    {
      "inputs": [
        {
          "internalType": "bytes",
          "name": "assetData",
          "type": "bytes"
        },
        {
          "internalType": "uint256",
          "name": "amount",
          "type": "uint256"
        },
        {
          "internalType": "bytes",
          "name": "parameters",
          "type": "bytes"
        }
      ],
      "name": "loadFromPosition",
      "outputs": [],
      "stateMutability": "payable",
      "type": "function"
    },
    {
      "inputs": [
        {
          "internalType": "bytes",
          "name": "assetData",
          "type": "bytes"
        },
        {
          "internalType": "uint256",
          "name": "amount",
          "type": "uint256"
        },
        {
          "internalType": "bytes",
          "name": "parameters",
          "type": "bytes"
        }
      ],
      "name": "loadFromUser",
      "outputs": [],
      "stateMutability": "payable",
      "type": "function"
    },
    {
      "inputs": [
        {
          "internalType": "bytes32",
          "name": "role",
          "type": "bytes32"
        },
        {
          "internalType": "address",
          "name": "account",
          "type": "address"
        }
      ],
      "name": "renounceRole",
      "outputs": [],
      "stateMutability": "nonpayable",
      "type": "function"
    },
    {
      "inputs": [
        {
          "internalType": "bytes32",
          "name": "role",
          "type": "bytes32"
        },
        {
          "internalType": "address",
          "name": "account",
          "type": "address"
        }
      ],
      "name": "revokeRole",
      "outputs": [],
      "stateMutability": "nonpayable",
      "type": "function"
    },
    {
      "inputs": [
        {
          "internalType": "bytes4",
          "name": "interfaceId",
          "type": "bytes4"
        }
      ],
      "name": "supportsInterface",
      "outputs": [
        {
          "internalType": "bool",
          "name": "",
          "type": "bool"
        }
      ],
      "stateMutability": "view",
      "type": "function"
    },
    {
      "inputs": [
        {
          "internalType": "address",
          "name": "position",
          "type": "address"
        },
        {
          "internalType": "bytes",
          "name": "assetData",
          "type": "bytes"
        },
        {
          "internalType": "uint256",
          "name": "amount",
          "type": "uint256"
        },
        {
          "internalType": "bytes",
          "name": "parameters",
          "type": "bytes"
        }
      ],
      "name": "unloadToPosition",
      "outputs": [],
      "stateMutability": "nonpayable",
      "type": "function"
    },
    {
      "inputs": [
        {
          "internalType": "bytes",
          "name": "assetData",
          "type": "bytes"
        },
        {
          "internalType": "uint256",
          "name": "amount",
          "type": "uint256"
        },
        {
          "internalType": "bytes",
          "name": "parameters",
          "type": "bytes"
        }
      ],
      "name": "unloadToUser",
      "outputs": [],
      "stateMutability": "nonpayable",
      "type": "function"
    }
  ],
  "bytecode": "0x60806040523480156200001157600080fd5b5060405162002a9738038062002a9783398181016040528101906200003791906200025c565b8060018081905550620000717f03c7040f8e5b938f657d4600d08b1b77f390141994844cbb34ff043f26ac6cd7826200007960201b60201c565b50506200028e565b6200008b82826200008f60201b60201c565b5050565b620000a182826200018060201b60201c565b6200017c57600160008084815260200190815260200160002060000160008373ffffffffffffffffffffffffffffffffffffffff1673ffffffffffffffffffffffffffffffffffffffff16815260200190815260200160002060006101000a81548160ff02191690831515021790555062000121620001ea60201b60201c565b73ffffffffffffffffffffffffffffffffffffffff168173ffffffffffffffffffffffffffffffffffffffff16837f2f8788117e7eff1d82e926ec794901d17c78024a50270940304540a733656f0d60405160405180910390a45b5050565b600080600084815260200190815260200160002060000160008373ffffffffffffffffffffffffffffffffffffffff1673ffffffffffffffffffffffffffffffffffffffff16815260200190815260200160002060009054906101000a900460ff16905092915050565b600033905090565b600080fd5b600073ffffffffffffffffffffffffffffffffffffffff82169050919050565b60006200022482620001f7565b9050919050565b620002368162000217565b81146200024257600080fd5b50565b60008151905062000256816200022b565b92915050565b600060208284031215620002755762000274620001f2565b5b6000620002858482850162000245565b91505092915050565b6127f9806200029e6000396000f3fe6080604052600436106100c25760003560e01c8063890811ae1161007f578063a217fddf11610059578063a217fddf1461027b578063b102bfbe146102a6578063d547741f146102e3578063d9a432ef1461030c576100c2565b8063890811ae146101d85780638fafb7001461021557806391d148541461023e576100c2565b806301ffc9a7146100c757806306b1c4c914610104578063248a9ca3146101205780632f2ff15d1461015d57806336568abe146101865780634e7f0304146101af575b600080fd5b3480156100d357600080fd5b506100ee60048036038101906100e9919061166e565b610328565b6040516100fb91906116b6565b60405180910390f35b61011e6004803603810190610119919061176c565b6103a2565b005b34801561012c57600080fd5b5061014760048036038101906101429190611837565b61048b565b6040516101549190611873565b60405180910390f35b34801561016957600080fd5b50610184600480360381019061017f91906118ec565b6104aa565b005b34801561019257600080fd5b506101ad60048036038101906101a891906118ec565b6104cb565b005b3480156101bb57600080fd5b506101d660048036038101906101d1919061192c565b61054e565b005b3480156101e457600080fd5b506101ff60048036038101906101fa91906119d3565b610656565b60405161020c9190611a63565b60405180910390f35b34801561022157600080fd5b5061023c6004803603810190610237919061176c565b6106c8565b005b34801561024a57600080fd5b50610265600480360381019061026091906118ec565b6107b1565b60405161027291906116b6565b60405180910390f35b34801561028757600080fd5b5061029061081b565b60405161029d9190611873565b60405180910390f35b3480156102b257600080fd5b506102cd60048036038101906102c89190611a7e565b610822565b6040516102da9190611ada565b60405180910390f35b3480156102ef57600080fd5b5061030a600480360381019061030591906118ec565b61083f565b005b6103266004803603810190610321919061176c565b610860565b005b60007f7965db0b000000000000000000000000000000000000000000000000000000007bffffffffffffffffffffffffffffffffffffffffffffffffffffffff1916827bffffffffffffffffffffffffffffffffffffffffffffffffffffffff1916148061039b575061039a82610949565b5b9050919050565b6103aa6109b3565b61043d85858080601f016020809104026020016040519081016040528093929190818152602001838380828437600081840152601f19601f820116905080830192505050505050508484848080601f016020809104026020016040519081016040528093929190818152602001838380828437600081840152601f19601f82011690508083019250505050505050610a02565b7f7c3c78fd4a06ac8330a3ce3a2f9c64f39339a7c1ac9885508640d1b6c9427f278585858585604051610474959493929190611b53565b60405180910390a1610484610a12565b5050505050565b6000806000838152602001908152602001600020600101549050919050565b6104b38261048b565b6104bc81610a1b565b6104c68383610a2f565b505050565b6104d3610b0f565b73ffffffffffffffffffffffffffffffffffffffff168173ffffffffffffffffffffffffffffffffffffffff1614610540576040517f08c379a000000000000000000000000000000000000000000000000000000000815260040161053790611c1f565b60405180910390fd5b61054a8282610b17565b5050565b7f03c7040f8e5b938f657d4600d08b1b77f390141994844cbb34ff043f26ac6cd761057881610a1b565b61060c8787878080601f016020809104026020016040519081016040528093929190818152602001838380828437600081840152601f19601f820116905080830192505050505050508686868080601f016020809104026020016040519081016040528093929190818152602001838380828437600081840152601f19601f82011690508083019250505050505050610bf8565b7f279591683e04c54d0e17da9e5c3c25afb5469d9001638b039efb5e09cda3987187878787878760405161064596959493929190611c3f565b60405180910390a150505050505050565b60008083838101906106689190611d66565b9050600061067e82600001518360200151610dc5565b905060026000828152602001908152602001600020600088886040516106a5929190611dc3565b604051809103902081526020019081526020016000205492505050949350505050565b6106d06109b3565b61076385858080601f016020809104026020016040519081016040528093929190818152602001838380828437600081840152601f19601f820116905080830192505050505050508484848080601f016020809104026020016040519081016040528093929190818152602001838380828437600081840152601f19601f82011690508083019250505050505050610df8565b7f41d028e5fc9bd316ca147f98f379362455cee71a79b44ff786d0c267ca77b151858585858560405161079a959493929190611b53565b60405180910390a16107aa610a12565b5050505050565b600080600084815260200190815260200160002060000160008373ffffffffffffffffffffffffffffffffffffffff1673ffffffffffffffffffffffffffffffffffffffff16815260200190815260200160002060009054906101000a900460ff16905092915050565b6000801b81565b600082828101906108339190611d66565b60000151905092915050565b6108488261048b565b61085181610a1b565b61085b8383610b17565b505050565b6108686109b3565b6108fb85858080601f016020809104026020016040519081016040528093929190818152602001838380828437600081840152601f19601f820116905080830192505050505050508484848080601f016020809104026020016040519081016040528093929190818152602001838380828437600081840152601f19601f820116905080830192505050505050506110ee565b7f6e81a423a18bac44b67cd32f701ebb3bd4d65142c25cad73fbf14f7dcb1abb5e8585858585604051610932959493929190611b53565b60405180910390a1610942610a12565b5050505050565b60007f01ffc9a7000000000000000000000000000000000000000000000000000000007bffffffffffffffffffffffffffffffffffffffffffffffffffffffff1916827bffffffffffffffffffffffffffffffffffffffffffffffffffffffff1916149050919050565b6002600154036109f8576040517f08c379a00000000000000000000000000000000000000000000000000000000081526004016109ef90611e28565b60405180910390fd5b6002600181905550565b610a0d8383836110fe565b505050565b60018081905550565b610a2c81610a27610b0f565b611314565b50565b610a3982826107b1565b610b0b57600160008084815260200190815260200160002060000160008373ffffffffffffffffffffffffffffffffffffffff1673ffffffffffffffffffffffffffffffffffffffff16815260200190815260200160002060006101000a81548160ff021916908315150217905550610ab0610b0f565b73ffffffffffffffffffffffffffffffffffffffff168173ffffffffffffffffffffffffffffffffffffffff16837f2f8788117e7eff1d82e926ec794901d17c78024a50270940304540a733656f0d60405160405180910390a45b5050565b600033905090565b610b2182826107b1565b15610bf457600080600084815260200190815260200160002060000160008373ffffffffffffffffffffffffffffffffffffffff1673ffffffffffffffffffffffffffffffffffffffff16815260200190815260200160002060006101000a81548160ff021916908315150217905550610b99610b0f565b73ffffffffffffffffffffffffffffffffffffffff168173ffffffffffffffffffffffffffffffffffffffff16837ff6391f5c32d9c69d2a47ea670b442974b53935d1edc7fd64eb21e047a839171b60405160405180910390a45b5050565b7f03c7040f8e5b938f657d4600d08b1b77f390141994844cbb34ff043f26ac6cd7610c2281610a1b565b600084806020019051810190610c389190611ee6565b9050600083806020019051810190610c509190611f78565b90506000610c6682600001518360200151610dc5565b90506000670de0b6b3a76400008460200151600a610c849190612107565b88610c8f9190612152565b610c9991906121c3565b9050806002600084815260200190815260200160002060008a805190602001208152602001908152602001600020541015610d09576040517f08c379a0000000000000000000000000000000000000000000000000000000008152600401610d0090612266565b60405180910390fd5b806002600084815260200190815260200160002060008a8051906020012081526020019081526020016000206000828254610d449190612286565b9250508190555073__$0dbc1134add5307a68154fc29708de467d$__63d4e3bdb685600001518b846040518463ffffffff1660e01b8152600401610d8a939291906122d8565b60006040518083038186803b158015610da257600080fd5b505af4158015610db6573d6000803e3d6000fd5b50505050505050505050505050565b60008282604051602001610dda929190612378565b60405160208183030381529060405280519060200120905092915050565b600083806020019051810190610e0e9190611ee6565b9050600082806020019051810190610e269190611f78565b9050806000015173ffffffffffffffffffffffffffffffffffffffff163373ffffffffffffffffffffffffffffffffffffffff1614610e9a576040517f08c379a0000000000000000000000000000000000000000000000000000000008152600401610e91906123f0565b60405180910390fd5b6000610eae82600001518360200151610dc5565b90508460026000838152602001908152602001600020600088805190602001208152602001908152602001600020541015610f1e576040517f08c379a0000000000000000000000000000000000000000000000000000000008152600401610f159061245c565b60405180910390fd5b84600260008381526020019081526020016000206000888051906020012081526020019081526020016000206000828254610f599190612286565b9250508190555073c02aaa39b223fe8d0a0e5c4f27ead9083c756cc273ffffffffffffffffffffffffffffffffffffffff16836000015173ffffffffffffffffffffffffffffffffffffffff16036110765773c02aaa39b223fe8d0a0e5c4f27ead9083c756cc273ffffffffffffffffffffffffffffffffffffffff16632e1a7d4d866040518263ffffffff1660e01b8152600401610ff89190611a63565b600060405180830381600087803b15801561101257600080fd5b505af1158015611026573d6000803e3d6000fd5b505050503373ffffffffffffffffffffffffffffffffffffffff166108fc869081150290604051600060405180830381858888f19350505050158015611070573d6000803e3d6000fd5b506110e6565b73__$0dbc1134add5307a68154fc29708de467d$__63d4e3bdb6846000015133886040518463ffffffff1660e01b81526004016110b5939291906122d8565b60006040518083038186803b1580156110cd57600080fd5b505af41580156110e1573d6000803e3d6000fd5b505050505b505050505050565b6110f98383836110fe565b505050565b6000838060200190518101906111149190611ee6565b905060008280602001905181019061112c9190611f78565b9050600061114282600001518360200151610dc5565b90508460026000838152602001908152602001600020600088805190602001208152602001908152602001600020600082825461117f919061247c565b9250508190555073c02aaa39b223fe8d0a0e5c4f27ead9083c756cc273ffffffffffffffffffffffffffffffffffffffff16836000015173ffffffffffffffffffffffffffffffffffffffff161480156111d95750600034115b1561129a57843414611220576040517f08c379a0000000000000000000000000000000000000000000000000000000008152600401611217906124fc565b60405180910390fd5b73c02aaa39b223fe8d0a0e5c4f27ead9083c756cc273ffffffffffffffffffffffffffffffffffffffff1663d0e30db0346040518263ffffffff1660e01b81526004016000604051808303818588803b15801561127c57600080fd5b505af1158015611290573d6000803e3d6000fd5b505050505061130c565b73__$0dbc1134add5307a68154fc29708de467d$__6308b047dc84600001513330896040518563ffffffff1660e01b81526004016112db949392919061251c565b60006040518083038186803b1580156112f357600080fd5b505af4158015611307573d6000803e3d6000fd5b505050505b505050505050565b61131e82826107b1565b6113955761132b81611399565b6113398360001c60206113c6565b60405160200161134a92919061266a565b6040516020818303038152906040526040517f08c379a000000000000000000000000000000000000000000000000000000000815260040161138c91906126dd565b60405180910390fd5b5050565b60606113bf8273ffffffffffffffffffffffffffffffffffffffff16601460ff166113c6565b9050919050565b6060600060028360026113d99190612152565b6113e3919061247c565b67ffffffffffffffff8111156113fc576113fb611c9b565b5b6040519080825280601f01601f19166020018201604052801561142e5781602001600182028036833780820191505090505b5090507f300000000000000000000000000000000000000000000000000000000000000081600081518110611466576114656126ff565b5b60200101907effffffffffffffffffffffffffffffffffffffffffffffffffffffffffffff1916908160001a9053507f7800000000000000000000000000000000000000000000000000000000000000816001815181106114ca576114c96126ff565b5b60200101907effffffffffffffffffffffffffffffffffffffffffffffffffffffffffffff1916908160001a9053506000600184600261150a9190612152565b611514919061247c565b90505b60018111156115b4577f3031323334353637383961626364656600000000000000000000000000000000600f861660108110611556576115556126ff565b5b1a60f81b82828151811061156d5761156c6126ff565b5b60200101907effffffffffffffffffffffffffffffffffffffffffffffffffffffffffffff1916908160001a905350600485901c9450806115ad9061272e565b9050611517565b50600084146115f8576040517f08c379a00000000000000000000000000000000000000000000000000000000081526004016115ef906127a3565b60405180910390fd5b8091505092915050565b6000604051905090565b600080fd5b600080fd5b60007fffffffff0000000000000000000000000000000000000000000000000000000082169050919050565b61164b81611616565b811461165657600080fd5b50565b60008135905061166881611642565b92915050565b6000602082840312156116845761168361160c565b5b600061169284828501611659565b91505092915050565b60008115159050919050565b6116b08161169b565b82525050565b60006020820190506116cb60008301846116a7565b92915050565b600080fd5b600080fd5b600080fd5b60008083601f8401126116f6576116f56116d1565b5b8235905067ffffffffffffffff811115611713576117126116d6565b5b60208301915083600182028301111561172f5761172e6116db565b5b9250929050565b6000819050919050565b61174981611736565b811461175457600080fd5b50565b60008135905061176681611740565b92915050565b6000806000806000606086880312156117885761178761160c565b5b600086013567ffffffffffffffff8111156117a6576117a5611611565b5b6117b2888289016116e0565b955095505060206117c588828901611757565b935050604086013567ffffffffffffffff8111156117e6576117e5611611565b5b6117f2888289016116e0565b92509250509295509295909350565b6000819050919050565b61181481611801565b811461181f57600080fd5b50565b6000813590506118318161180b565b92915050565b60006020828403121561184d5761184c61160c565b5b600061185b84828501611822565b91505092915050565b61186d81611801565b82525050565b60006020820190506118886000830184611864565b92915050565b600073ffffffffffffffffffffffffffffffffffffffff82169050919050565b60006118b98261188e565b9050919050565b6118c9816118ae565b81146118d457600080fd5b50565b6000813590506118e6816118c0565b92915050565b600080604083850312156119035761190261160c565b5b600061191185828601611822565b9250506020611922858286016118d7565b9150509250929050565b600080600080600080608087890312156119495761194861160c565b5b600061195789828a016118d7565b965050602087013567ffffffffffffffff81111561197857611977611611565b5b61198489828a016116e0565b9550955050604061199789828a01611757565b935050606087013567ffffffffffffffff8111156119b8576119b7611611565b5b6119c489828a016116e0565b92509250509295509295509295565b600080600080604085870312156119ed576119ec61160c565b5b600085013567ffffffffffffffff811115611a0b57611a0a611611565b5b611a17878288016116e0565b9450945050602085013567ffffffffffffffff811115611a3a57611a39611611565b5b611a46878288016116e0565b925092505092959194509250565b611a5d81611736565b82525050565b6000602082019050611a786000830184611a54565b92915050565b60008060208385031215611a9557611a9461160c565b5b600083013567ffffffffffffffff811115611ab357611ab2611611565b5b611abf858286016116e0565b92509250509250929050565b611ad4816118ae565b82525050565b6000602082019050611aef6000830184611acb565b92915050565b600082825260208201905092915050565b82818337600083830152505050565b6000601f19601f8301169050919050565b6000611b328385611af5565b9350611b3f838584611b06565b611b4883611b15565b840190509392505050565b60006060820190508181036000830152611b6e818789611b26565b9050611b7d6020830186611a54565b8181036040830152611b90818486611b26565b90509695505050505050565b600082825260208201905092915050565b7f416363657373436f6e74726f6c3a2063616e206f6e6c792072656e6f756e636560008201527f20726f6c657320666f722073656c660000000000000000000000000000000000602082015250565b6000611c09602f83611b9c565b9150611c1482611bad565b604082019050919050565b60006020820190508181036000830152611c3881611bfc565b9050919050565b6000608082019050611c546000830189611acb565b8181036020830152611c67818789611b26565b9050611c766040830186611a54565b8181036060830152611c89818486611b26565b9050979650505050505050565b600080fd5b7f4e487b7100000000000000000000000000000000000000000000000000000000600052604160045260246000fd5b611cd382611b15565b810181811067ffffffffffffffff82111715611cf257611cf1611c9b565b5b80604052505050565b6000611d05611602565b9050611d118282611cca565b919050565b600060408284031215611d2c57611d2b611c96565b5b611d366040611cfb565b90506000611d46848285016118d7565b6000830152506020611d5a84828501611822565b60208301525092915050565b600060408284031215611d7c57611d7b61160c565b5b6000611d8a84828501611d16565b91505092915050565b600081905092915050565b6000611daa8385611d93565b9350611db7838584611b06565b82840190509392505050565b6000611dd0828486611d9e565b91508190509392505050565b7f5265656e7472616e637947756172643a207265656e7472616e742063616c6c00600082015250565b6000611e12601f83611b9c565b9150611e1d82611ddc565b602082019050919050565b60006020820190508181036000830152611e4181611e05565b9050919050565b600081519050611e57816118c0565b92915050565b600060ff82169050919050565b611e7381611e5d565b8114611e7e57600080fd5b50565b600081519050611e9081611e6a565b92915050565b600060408284031215611eac57611eab611c96565b5b611eb66040611cfb565b90506000611ec684828501611e48565b6000830152506020611eda84828501611e81565b60208301525092915050565b600060408284031215611efc57611efb61160c565b5b6000611f0a84828501611e96565b91505092915050565b600081519050611f228161180b565b92915050565b600060408284031215611f3e57611f3d611c96565b5b611f486040611cfb565b90506000611f5884828501611e48565b6000830152506020611f6c84828501611f13565b60208301525092915050565b600060408284031215611f8e57611f8d61160c565b5b6000611f9c84828501611f28565b91505092915050565b7f4e487b7100000000000000000000000000000000000000000000000000000000600052601160045260246000fd5b60008160011c9050919050565b6000808291508390505b600185111561202b5780860481111561200757612006611fa5565b5b60018516156120165780820291505b808102905061202485611fd4565b9450611feb565b94509492505050565b6000826120445760019050612100565b816120525760009050612100565b81600181146120685760028114612072576120a1565b6001915050612100565b60ff84111561208457612083611fa5565b5b8360020a91508482111561209b5761209a611fa5565b5b50612100565b5060208310610133831016604e8410600b84101617156120d65782820a9050838111156120d1576120d0611fa5565b5b612100565b6120e38484846001611fe1565b925090508184048111156120fa576120f9611fa5565b5b81810290505b9392505050565b600061211282611736565b915061211d83611e5d565b925061214a7fffffffffffffffffffffffffffffffffffffffffffffffffffffffffffffffff8484612034565b905092915050565b600061215d82611736565b915061216883611736565b925082820261217681611736565b9150828204841483151761218d5761218c611fa5565b5b5092915050565b7f4e487b7100000000000000000000000000000000000000000000000000000000600052601260045260246000fd5b60006121ce82611736565b91506121d983611736565b9250826121e9576121e8612194565b5b828204905092915050565b7f5f756e6c6f6164546f506f736974696f6e3a2062616c616e636520746f6f206c60008201527f6f77000000000000000000000000000000000000000000000000000000000000602082015250565b6000612250602283611b9c565b915061225b826121f4565b604082019050919050565b6000602082019050818103600083015261227f81612243565b9050919050565b600061229182611736565b915061229c83611736565b92508282039050818111156122b4576122b3611fa5565b5b92915050565b6122c3816118ae565b82525050565b6122d281611736565b82525050565b60006060820190506122ed60008301866122ba565b6122fa60208301856122ba565b61230760408301846122c9565b949350505050565b60008160601b9050919050565b60006123278261230f565b9050919050565b60006123398261231c565b9050919050565b61235161234c826118ae565b61232e565b82525050565b6000819050919050565b61237261236d82611801565b612357565b82525050565b60006123848285612340565b6014820191506123948284612361565b6020820191508190509392505050565b7f756e6c6f61643a206e6f74206f776e6572000000000000000000000000000000600082015250565b60006123da601183611b9c565b91506123e5826123a4565b602082019050919050565b60006020820190508181036000830152612409816123cd565b9050919050565b7f5f756e6c6f6164546f557365723a2062616c616e636520746f6f206c6f770000600082015250565b6000612446601e83611b9c565b915061245182612410565b602082019050919050565b6000602082019050818103600083015261247581612439565b9050919050565b600061248782611736565b915061249283611736565b92508282019050808211156124aa576124a9611fa5565b5b92915050565b7f45544820616d6f756e74206d69736d6174636800000000000000000000000000600082015250565b60006124e6601383611b9c565b91506124f1826124b0565b602082019050919050565b60006020820190508181036000830152612515816124d9565b9050919050565b600060808201905061253160008301876122ba565b61253e60208301866122ba565b61254b60408301856122ba565b61255860608301846122c9565b95945050505050565b600081905092915050565b7f416363657373436f6e74726f6c3a206163636f756e7420000000000000000000600082015250565b60006125a2601783612561565b91506125ad8261256c565b601782019050919050565b600081519050919050565b60005b838110156125e15780820151818401526020810190506125c6565b60008484015250505050565b60006125f8826125b8565b6126028185612561565b93506126128185602086016125c3565b80840191505092915050565b7f206973206d697373696e6720726f6c6520000000000000000000000000000000600082015250565b6000612654601183612561565b915061265f8261261e565b601182019050919050565b600061267582612595565b915061268182856125ed565b915061268c82612647565b915061269882846125ed565b91508190509392505050565b60006126af826125b8565b6126b98185611b9c565b93506126c98185602086016125c3565b6126d281611b15565b840191505092915050565b600060208201905081810360008301526126f781846126a4565b905092915050565b7f4e487b7100000000000000000000000000000000000000000000000000000000600052603260045260246000fd5b600061273982611736565b91506000820361274c5761274b611fa5565b5b600182039050919050565b7f537472696e67733a20686578206c656e67746820696e73756666696369656e74600082015250565b600061278d602083611b9c565b915061279882612757565b602082019050919050565b600060208201905081810360008301526127bc81612780565b905091905056fea2646970667358221220340305ee58fdfcd7a84375defb358b0adb781de3011daedccf784fc8bb03897c64736f6c63430008130033",
  "linkReferences": {
    "src/libraries/LibUtilsPublic.sol": {
      "LibUtilsPublic": [
        {
          "length": 20,
          "start": 4075
        },
        {
          "length": 20,
          "start": 4886
        },
        {
          "length": 20,
          "start": 5434
        }
      ]
    }
  },
  "deployedLinkReferences": {
    "src/libraries/LibUtilsPublic.sol": {
      "LibUtilsPublic": [
        {
          "length": 20,
          "start": 3405
        },
        {
          "length": 20,
          "start": 4216
        },
        {
          "length": 20,
          "start": 4764
        }
      ]
    }
  }
}