{
  "_format": "hh-sol-artifact-1",
  "contractName": "SoloAccount",
  "sourceName": "src/plugins/account/implementations/SoloAccount.sol",
  "abi": [
    {
      "inputs": [
        {
          "internalType": "address",
          "name": "bookkeeperAddr",
          "type": "address"
        }
      ],
      "stateMutability": "nonpayable",
      "type": "constructor"
    },
    {
      "anonymous": false,
      "inputs": [
        {
          "indexed": false,
          "internalType": "address",
          "name": "liquidator",
          "type": "address"
        },
        {
          "indexed": false,
          "internalType": "bytes",
          "name": "assetData",
          "type": "bytes"
        },
        {
          "indexed": false,
          "internalType": "uint256",
          "name": "amount",
          "type": "uint256"
        },
        {
          "indexed": false,
          "internalType": "bytes",
          "name": "parameters",
          "type": "bytes"
        }
      ],
      "name": "LoadedFromLiquidator",
      "type": "event"
    },
    {
      "anonymous": false,
      "inputs": [
        {
          "indexed": false,
          "internalType": "bytes",
          "name": "assetData",
          "type": "bytes"
        },
        {
          "indexed": false,
          "internalType": "uint256",
          "name": "amount",
          "type": "uint256"
        },
        {
          "indexed": false,
          "internalType": "bytes",
          "name": "parameters",
          "type": "bytes"
        }
      ],
      "name": "LoadedFromPosition",
      "type": "event"
    },
    {
      "anonymous": false,
      "inputs": [
        {
          "indexed": false,
          "internalType": "bytes",
          "name": "assetData",
          "type": "bytes"
        },
        {
          "indexed": false,
          "internalType": "uint256",
          "name": "amount",
          "type": "uint256"
        },
        {
          "indexed": false,
          "internalType": "bytes",
          "name": "parameters",
          "type": "bytes"
        }
      ],
      "name": "LoadedFromUser",
      "type": "event"
    },
    {
      "anonymous": false,
      "inputs": [
        {
          "indexed": true,
          "internalType": "bytes32",
          "name": "role",
          "type": "bytes32"
        },
        {
          "indexed": true,
          "internalType": "bytes32",
          "name": "previousAdminRole",
          "type": "bytes32"
        },
        {
          "indexed": true,
          "internalType": "bytes32",
          "name": "newAdminRole",
          "type": "bytes32"
        }
      ],
      "name": "RoleAdminChanged",
      "type": "event"
    },
    {
      "anonymous": false,
      "inputs": [
        {
          "indexed": true,
          "internalType": "bytes32",
          "name": "role",
          "type": "bytes32"
        },
        {
          "indexed": true,
          "internalType": "address",
          "name": "account",
          "type": "address"
        },
        {
          "indexed": true,
          "internalType": "address",
          "name": "sender",
          "type": "address"
        }
      ],
      "name": "RoleGranted",
      "type": "event"
    },
    {
      "anonymous": false,
      "inputs": [
        {
          "indexed": true,
          "internalType": "bytes32",
          "name": "role",
          "type": "bytes32"
        },
        {
          "indexed": true,
          "internalType": "address",
          "name": "account",
          "type": "address"
        },
        {
          "indexed": true,
          "internalType": "address",
          "name": "sender",
          "type": "address"
        }
      ],
      "name": "RoleRevoked",
      "type": "event"
    },
    {
      "anonymous": false,
      "inputs": [
        {
          "indexed": false,
          "internalType": "address",
          "name": "position",
          "type": "address"
        },
        {
          "indexed": false,
          "internalType": "bytes",
          "name": "assetData",
          "type": "bytes"
        },
        {
          "indexed": false,
          "internalType": "uint256",
          "name": "amount",
          "type": "uint256"
        },
        {
          "indexed": false,
          "internalType": "bytes",
          "name": "parameters",
          "type": "bytes"
        }
      ],
      "name": "UnloadedToPosition",
      "type": "event"
    },
    {
      "anonymous": false,
      "inputs": [
        {
          "indexed": false,
          "internalType": "bytes",
          "name": "assetData",
          "type": "bytes"
        },
        {
          "indexed": false,
          "internalType": "uint256",
          "name": "amount",
          "type": "uint256"
        },
        {
          "indexed": false,
          "internalType": "bytes",
          "name": "parameters",
          "type": "bytes"
        }
      ],
      "name": "UnloadedToUser",
      "type": "event"
    },
    {
      "inputs": [],
      "name": "DEFAULT_ADMIN_ROLE",
      "outputs": [
        {
          "internalType": "bytes32",
          "name": "",
          "type": "bytes32"
        }
      ],
      "stateMutability": "view",
      "type": "function"
    },
    {
      "inputs": [
        {
          "internalType": "bytes",
          "name": "assetData",
          "type": "bytes"
        },
        {
          "internalType": "bytes",
          "name": "parameters",
          "type": "bytes"
        }
      ],
      "name": "getBalance",
      "outputs": [
        {
          "internalType": "uint256",
          "name": "amounts",
          "type": "uint256"
        }
      ],
      "stateMutability": "view",
      "type": "function"
    },
    {
      "inputs": [
        {
          "internalType": "bytes",
          "name": "parameters",
          "type": "bytes"
        }
      ],
      "name": "getOwner",
      "outputs": [
        {
          "internalType": "address",
          "name": "",
          "type": "address"
        }
      ],
      "stateMutability": "pure",
      "type": "function"
    },
    {
      "inputs": [
        {
          "internalType": "bytes32",
          "name": "role",
          "type": "bytes32"
        }
      ],
      "name": "getRoleAdmin",
      "outputs": [
        {
          "internalType": "bytes32",
          "name": "",
          "type": "bytes32"
        }
      ],
      "stateMutability": "view",
      "type": "function"
    },
    {
      "inputs": [
        {
          "internalType": "bytes32",
          "name": "role",
          "type": "bytes32"
        },
        {
          "internalType": "address",
          "name": "account",
          "type": "address"
        }
      ],
      "name": "grantRole",
      "outputs": [],
      "stateMutability": "nonpayable",
      "type": "function"
    },
    {
      "inputs": [
        {
          "internalType": "bytes32",
          "name": "role",
          "type": "bytes32"
        },
        {
          "internalType": "address",
          "name": "account",
          "type": "address"
        }
      ],
      "name": "hasRole",
      "outputs": [
        {
          "internalType": "bool",
          "name": "",
          "type": "bool"
        }
      ],
      "stateMutability": "view",
      "type": "function"
    },
    {
      "inputs": [
        {
          "internalType": "address",
          "name": "liquidator",
          "type": "address"
        },
        {
          "internalType": "bytes",
          "name": "assetData",
          "type": "bytes"
        },
        {
          "internalType": "uint256",
          "name": "amount",
          "type": "uint256"
        },
        {
          "internalType": "bytes",
          "name": "parameters",
          "type": "bytes"
        }
      ],
      "name": "loadFromLiquidator",
      "outputs": [],
      "stateMutability": "payable",
      "type": "function"
    },
    {
      "inputs": [
        {
          "internalType": "bytes",
          "name": "assetData",
          "type": "bytes"
        },
        {
          "internalType": "uint256",
          "name": "amount",
          "type": "uint256"
        },
        {
          "internalType": "bytes",
          "name": "parameters",
          "type": "bytes"
        }
      ],
      "name": "loadFromPosition",
      "outputs": [],
      "stateMutability": "payable",
      "type": "function"
    },
    {
      "inputs": [
        {
          "internalType": "bytes",
          "name": "assetData",
          "type": "bytes"
        },
        {
          "internalType": "uint256",
          "name": "amount",
          "type": "uint256"
        },
        {
          "internalType": "bytes",
          "name": "parameters",
          "type": "bytes"
        }
      ],
      "name": "loadFromUser",
      "outputs": [],
      "stateMutability": "payable",
      "type": "function"
    },
    {
      "inputs": [
        {
          "internalType": "bytes32",
          "name": "role",
          "type": "bytes32"
        },
        {
          "internalType": "address",
          "name": "account",
          "type": "address"
        }
      ],
      "name": "renounceRole",
      "outputs": [],
      "stateMutability": "nonpayable",
      "type": "function"
    },
    {
      "inputs": [
        {
          "internalType": "bytes32",
          "name": "role",
          "type": "bytes32"
        },
        {
          "internalType": "address",
          "name": "account",
          "type": "address"
        }
      ],
      "name": "revokeRole",
      "outputs": [],
      "stateMutability": "nonpayable",
      "type": "function"
    },
    {
      "inputs": [
        {
          "internalType": "bytes4",
          "name": "interfaceId",
          "type": "bytes4"
        }
      ],
      "name": "supportsInterface",
      "outputs": [
        {
          "internalType": "bool",
          "name": "",
          "type": "bool"
        }
      ],
      "stateMutability": "view",
      "type": "function"
    },
    {
      "inputs": [
        {
          "internalType": "address",
          "name": "position",
          "type": "address"
        },
        {
          "internalType": "bytes",
          "name": "assetData",
          "type": "bytes"
        },
        {
          "internalType": "uint256",
          "name": "amount",
          "type": "uint256"
        },
        {
          "internalType": "bytes",
          "name": "parameters",
          "type": "bytes"
        }
      ],
      "name": "unloadToPosition",
      "outputs": [],
      "stateMutability": "nonpayable",
      "type": "function"
    },
    {
      "inputs": [
        {
          "internalType": "bytes",
          "name": "assetData",
          "type": "bytes"
        },
        {
          "internalType": "uint256",
          "name": "amount",
          "type": "uint256"
        },
        {
          "internalType": "bytes",
          "name": "parameters",
          "type": "bytes"
        }
      ],
      "name": "unloadToUser",
      "outputs": [],
      "stateMutability": "nonpayable",
      "type": "function"
    }
  ],
  "bytecode": "0x60806040523480156200001157600080fd5b5060405162002d5938038062002d5983398181016040528101906200003791906200025c565b8060018081905550620000717f03c7040f8e5b938f657d4600d08b1b77f390141994844cbb34ff043f26ac6cd7826200007960201b60201c565b50506200028e565b6200008b82826200008f60201b60201c565b5050565b620000a182826200018060201b60201c565b6200017c57600160008084815260200190815260200160002060000160008373ffffffffffffffffffffffffffffffffffffffff1673ffffffffffffffffffffffffffffffffffffffff16815260200190815260200160002060006101000a81548160ff02191690831515021790555062000121620001ea60201b60201c565b73ffffffffffffffffffffffffffffffffffffffff168173ffffffffffffffffffffffffffffffffffffffff16837f2f8788117e7eff1d82e926ec794901d17c78024a50270940304540a733656f0d60405160405180910390a45b5050565b600080600084815260200190815260200160002060000160008373ffffffffffffffffffffffffffffffffffffffff1673ffffffffffffffffffffffffffffffffffffffff16815260200190815260200160002060009054906101000a900460ff16905092915050565b600033905090565b600080fd5b600073ffffffffffffffffffffffffffffffffffffffff82169050919050565b60006200022482620001f7565b9050919050565b620002368162000217565b81146200024257600080fd5b50565b60008151905062000256816200022b565b92915050565b600060208284031215620002755762000274620001f2565b5b6000620002858482850162000245565b91505092915050565b612abb806200029e6000396000f3fe6080604052600436106100dd5760003560e01c80638fafb7001161007f578063b102bfbe11610059578063b102bfbe146102c1578063d547741f146102fe578063d9a432ef14610327578063f5b093df14610343576100dd565b80638fafb7001461023057806391d1485414610259578063a217fddf14610296576100dd565b80632f2ff15d116100bb5780632f2ff15d1461017857806336568abe146101a15780634e7f0304146101ca578063890811ae146101f3576100dd565b806301ffc9a7146100e257806306b1c4c91461011f578063248a9ca31461013b575b600080fd5b3480156100ee57600080fd5b5061010960048036038101906101049190611930565b61035f565b6040516101169190611978565b60405180910390f35b61013960048036038101906101349190611a2e565b6103d9565b005b34801561014757600080fd5b50610162600480360381019061015d9190611af9565b6104c2565b60405161016f9190611b35565b60405180910390f35b34801561018457600080fd5b5061019f600480360381019061019a9190611bae565b6104e1565b005b3480156101ad57600080fd5b506101c860048036038101906101c39190611bae565b610502565b005b3480156101d657600080fd5b506101f160048036038101906101ec9190611bee565b610585565b005b3480156101ff57600080fd5b5061021a60048036038101906102159190611c95565b61068d565b6040516102279190611d25565b60405180910390f35b34801561023c57600080fd5b5061025760048036038101906102529190611a2e565b6106ff565b005b34801561026557600080fd5b50610280600480360381019061027b9190611bae565b6107e8565b60405161028d9190611978565b60405180910390f35b3480156102a257600080fd5b506102ab610852565b6040516102b89190611b35565b60405180910390f35b3480156102cd57600080fd5b506102e860048036038101906102e39190611d40565b610859565b6040516102f59190611d9c565b60405180910390f35b34801561030a57600080fd5b5061032560048036038101906103209190611bae565b610876565b005b610341600480360381019061033c9190611a2e565b610897565b005b61035d60048036038101906103589190611bee565b610980565b005b60007f7965db0b000000000000000000000000000000000000000000000000000000007bffffffffffffffffffffffffffffffffffffffffffffffffffffffff1916827bffffffffffffffffffffffffffffffffffffffffffffffffffffffff191614806103d257506103d182610a6d565b5b9050919050565b6103e1610ad7565b61047485858080601f016020809104026020016040519081016040528093929190818152602001838380828437600081840152601f19601f820116905080830192505050505050508484848080601f016020809104026020016040519081016040528093929190818152602001838380828437600081840152601f19601f82011690508083019250505050505050610b26565b7f7c3c78fd4a06ac8330a3ce3a2f9c64f39339a7c1ac9885508640d1b6c9427f2785858585856040516104ab959493929190611e15565b60405180910390a16104bb610b36565b5050505050565b6000806000838152602001908152602001600020600101549050919050565b6104ea826104c2565b6104f381610b3f565b6104fd8383610b53565b505050565b61050a610c33565b73ffffffffffffffffffffffffffffffffffffffff168173ffffffffffffffffffffffffffffffffffffffff1614610577576040517f08c379a000000000000000000000000000000000000000000000000000000000815260040161056e90611ee1565b60405180910390fd5b6105818282610c3b565b5050565b7f03c7040f8e5b938f657d4600d08b1b77f390141994844cbb34ff043f26ac6cd76105af81610b3f565b6106438787878080601f016020809104026020016040519081016040528093929190818152602001838380828437600081840152601f19601f820116905080830192505050505050508686868080601f016020809104026020016040519081016040528093929190818152602001838380828437600081840152601f19601f82011690508083019250505050505050610d1c565b7f279591683e04c54d0e17da9e5c3c25afb5469d9001638b039efb5e09cda3987187878787878760405161067c96959493929190611f01565b60405180910390a150505050505050565b600080838381019061069f9190612028565b905060006106b582600001518360200151610ee9565b905060026000828152602001908152602001600020600088886040516106dc929190612085565b604051809103902081526020019081526020016000205492505050949350505050565b610707610ad7565b61079a85858080601f016020809104026020016040519081016040528093929190818152602001838380828437600081840152601f19601f820116905080830192505050505050508484848080601f016020809104026020016040519081016040528093929190818152602001838380828437600081840152601f19601f82011690508083019250505050505050610f1c565b7f41d028e5fc9bd316ca147f98f379362455cee71a79b44ff786d0c267ca77b15185858585856040516107d1959493929190611e15565b60405180910390a16107e1610b36565b5050505050565b600080600084815260200190815260200160002060000160008373ffffffffffffffffffffffffffffffffffffffff1673ffffffffffffffffffffffffffffffffffffffff16815260200190815260200160002060009054906101000a900460ff16905092915050565b6000801b81565b6000828281019061086a9190612028565b60000151905092915050565b61087f826104c2565b61088881610b3f565b6108928383610c3b565b505050565b61089f610ad7565b61093285858080601f016020809104026020016040519081016040528093929190818152602001838380828437600081840152601f19601f820116905080830192505050505050508484848080601f016020809104026020016040519081016040528093929190818152602001838380828437600081840152601f19601f82011690508083019250505050505050611246565b7f6e81a423a18bac44b67cd32f701ebb3bd4d65142c25cad73fbf14f7dcb1abb5e8585858585604051610969959493929190611e15565b60405180910390a1610979610b36565b5050505050565b610988610ad7565b610a1c8686868080601f016020809104026020016040519081016040528093929190818152602001838380828437600081840152601f19601f820116905080830192505050505050508585858080601f016020809104026020016040519081016040528093929190818152602001838380828437600081840152601f19601f82011690508083019250505050505050611256565b7f70155a0401373719f8455cda76ebfb229341499db85af19e44ce0fd521b0de26868686868686604051610a5596959493929190611f01565b60405180910390a1610a65610b36565b505050505050565b60007f01ffc9a7000000000000000000000000000000000000000000000000000000007bffffffffffffffffffffffffffffffffffffffffffffffffffffffff1916827bffffffffffffffffffffffffffffffffffffffffffffffffffffffff1916149050919050565b600260015403610b1c576040517f08c379a0000000000000000000000000000000000000000000000000000000008152600401610b13906120ea565b60405180910390fd5b6002600181905550565b610b3183838361138c565b505050565b60018081905550565b610b5081610b4b610c33565b6115d6565b50565b610b5d82826107e8565b610c2f57600160008084815260200190815260200160002060000160008373ffffffffffffffffffffffffffffffffffffffff1673ffffffffffffffffffffffffffffffffffffffff16815260200190815260200160002060006101000a81548160ff021916908315150217905550610bd4610c33565b73ffffffffffffffffffffffffffffffffffffffff168173ffffffffffffffffffffffffffffffffffffffff16837f2f8788117e7eff1d82e926ec794901d17c78024a50270940304540a733656f0d60405160405180910390a45b5050565b600033905090565b610c4582826107e8565b15610d1857600080600084815260200190815260200160002060000160008373ffffffffffffffffffffffffffffffffffffffff1673ffffffffffffffffffffffffffffffffffffffff16815260200190815260200160002060006101000a81548160ff021916908315150217905550610cbd610c33565b73ffffffffffffffffffffffffffffffffffffffff168173ffffffffffffffffffffffffffffffffffffffff16837ff6391f5c32d9c69d2a47ea670b442974b53935d1edc7fd64eb21e047a839171b60405160405180910390a45b5050565b7f03c7040f8e5b938f657d4600d08b1b77f390141994844cbb34ff043f26ac6cd7610d4681610b3f565b600084806020019051810190610d5c91906121a8565b9050600083806020019051810190610d74919061223a565b90506000610d8a82600001518360200151610ee9565b90506000670de0b6b3a76400008460200151600a610da891906123c9565b88610db39190612414565b610dbd9190612485565b9050866002600084815260200190815260200160002060008a805190602001208152602001908152602001600020541015610e2d576040517f08c379a0000000000000000000000000000000000000000000000000000000008152600401610e2490612528565b60405180910390fd5b866002600084815260200190815260200160002060008a8051906020012081526020019081526020016000206000828254610e689190612548565b9250508190555073__$0dbc1134add5307a68154fc29708de467d$__63d4e3bdb685600001518b846040518463ffffffff1660e01b8152600401610eae9392919061259a565b60006040518083038186803b158015610ec657600080fd5b505af4158015610eda573d6000803e3d6000fd5b50505050505050505050505050565b60008282604051602001610efe92919061263a565b60405160208183030381529060405280519060200120905092915050565b600083806020019051810190610f3291906121a8565b9050600082806020019051810190610f4a919061223a565b9050806000015173ffffffffffffffffffffffffffffffffffffffff163373ffffffffffffffffffffffffffffffffffffffff1614610fbe576040517f08c379a0000000000000000000000000000000000000000000000000000000008152600401610fb5906126b2565b60405180910390fd5b6000610fd282600001518360200151610ee9565b90508460026000838152602001908152602001600020600088805190602001208152602001908152602001600020541015611042576040517f08c379a00000000000000000000000000000000000000000000000000000000081526004016110399061271e565b60405180910390fd5b8460026000838152602001908152602001600020600088805190602001208152602001908152602001600020600082825461107d9190612548565b925050819055506000670de0b6b3a76400008460200151600a6110a091906123c9565b876110ab9190612414565b6110b59190612485565b905073c02aaa39b223fe8d0a0e5c4f27ead9083c756cc273ffffffffffffffffffffffffffffffffffffffff16846000015173ffffffffffffffffffffffffffffffffffffffff16036111cd5773c02aaa39b223fe8d0a0e5c4f27ead9083c756cc273ffffffffffffffffffffffffffffffffffffffff16632e1a7d4d876040518263ffffffff1660e01b815260040161114f9190611d25565b600060405180830381600087803b15801561116957600080fd5b505af115801561117d573d6000803e3d6000fd5b505050503373ffffffffffffffffffffffffffffffffffffffff166108fc879081150290604051600060405180830381858888f193505050501580156111c7573d6000803e3d6000fd5b5061123d565b73__$0dbc1134add5307a68154fc29708de467d$__63d4e3bdb6856000015133846040518463ffffffff1660e01b815260040161120c9392919061259a565b60006040518083038186803b15801561122457600080fd5b505af4158015611238573d6000803e3d6000fd5b505050505b50505050505050565b61125183838361138c565b505050565b60008380602001905181019061126c91906121a8565b9050600082806020019051810190611284919061223a565b9050600061129a82600001518360200151610ee9565b9050846002600083815260200190815260200160002060008880519060200120815260200190815260200160002060008282546112d7919061273e565b925050819055506000670de0b6b3a76400008460200151600a6112fa91906123c9565b876113059190612414565b61130f9190612485565b905073__$0dbc1134add5307a68154fc29708de467d$__6308b047dc85600001518a30856040518563ffffffff1660e01b81526004016113529493929190612772565b60006040518083038186803b15801561136a57600080fd5b505af415801561137e573d6000803e3d6000fd5b505050505050505050505050565b6000838060200190518101906113a291906121a8565b90506000828060200190518101906113ba919061223a565b905060006113d082600001518360200151610ee9565b90508460026000838152602001908152602001600020600088805190602001208152602001908152602001600020600082825461140d919061273e565b925050819055506000670de0b6b3a76400008460200151600a61143091906123c9565b8761143b9190612414565b6114459190612485565b905073c02aaa39b223fe8d0a0e5c4f27ead9083c756cc273ffffffffffffffffffffffffffffffffffffffff16846000015173ffffffffffffffffffffffffffffffffffffffff1614801561149a5750600034115b1561155b578534146114e1576040517f08c379a00000000000000000000000000000000000000000000000000000000081526004016114d890612803565b60405180910390fd5b73c02aaa39b223fe8d0a0e5c4f27ead9083c756cc273ffffffffffffffffffffffffffffffffffffffff1663d0e30db0346040518263ffffffff1660e01b81526004016000604051808303818588803b15801561153d57600080fd5b505af1158015611551573d6000803e3d6000fd5b50505050506115cd565b73__$0dbc1134add5307a68154fc29708de467d$__6308b047dc85600001513330856040518563ffffffff1660e01b815260040161159c9493929190612772565b60006040518083038186803b1580156115b457600080fd5b505af41580156115c8573d6000803e3d6000fd5b505050505b50505050505050565b6115e082826107e8565b611657576115ed8161165b565b6115fb8360001c6020611688565b60405160200161160c92919061292c565b6040516020818303038152906040526040517f08c379a000000000000000000000000000000000000000000000000000000000815260040161164e919061299f565b60405180910390fd5b5050565b60606116818273ffffffffffffffffffffffffffffffffffffffff16601460ff16611688565b9050919050565b60606000600283600261169b9190612414565b6116a5919061273e565b67ffffffffffffffff8111156116be576116bd611f5d565b5b6040519080825280601f01601f1916602001820160405280156116f05781602001600182028036833780820191505090505b5090507f300000000000000000000000000000000000000000000000000000000000000081600081518110611728576117276129c1565b5b60200101907effffffffffffffffffffffffffffffffffffffffffffffffffffffffffffff1916908160001a9053507f78000000000000000000000000000000000000000000000000000000000000008160018151811061178c5761178b6129c1565b5b60200101907effffffffffffffffffffffffffffffffffffffffffffffffffffffffffffff1916908160001a905350600060018460026117cc9190612414565b6117d6919061273e565b90505b6001811115611876577f3031323334353637383961626364656600000000000000000000000000000000600f861660108110611818576118176129c1565b5b1a60f81b82828151811061182f5761182e6129c1565b5b60200101907effffffffffffffffffffffffffffffffffffffffffffffffffffffffffffff1916908160001a905350600485901c94508061186f906129f0565b90506117d9565b50600084146118ba576040517f08c379a00000000000000000000000000000000000000000000000000000000081526004016118b190612a65565b60405180910390fd5b8091505092915050565b6000604051905090565b600080fd5b600080fd5b60007fffffffff0000000000000000000000000000000000000000000000000000000082169050919050565b61190d816118d8565b811461191857600080fd5b50565b60008135905061192a81611904565b92915050565b600060208284031215611946576119456118ce565b5b60006119548482850161191b565b91505092915050565b60008115159050919050565b6119728161195d565b82525050565b600060208201905061198d6000830184611969565b92915050565b600080fd5b600080fd5b600080fd5b60008083601f8401126119b8576119b7611993565b5b8235905067ffffffffffffffff8111156119d5576119d4611998565b5b6020830191508360018202830111156119f1576119f061199d565b5b9250929050565b6000819050919050565b611a0b816119f8565b8114611a1657600080fd5b50565b600081359050611a2881611a02565b92915050565b600080600080600060608688031215611a4a57611a496118ce565b5b600086013567ffffffffffffffff811115611a6857611a676118d3565b5b611a74888289016119a2565b95509550506020611a8788828901611a19565b935050604086013567ffffffffffffffff811115611aa857611aa76118d3565b5b611ab4888289016119a2565b92509250509295509295909350565b6000819050919050565b611ad681611ac3565b8114611ae157600080fd5b50565b600081359050611af381611acd565b92915050565b600060208284031215611b0f57611b0e6118ce565b5b6000611b1d84828501611ae4565b91505092915050565b611b2f81611ac3565b82525050565b6000602082019050611b4a6000830184611b26565b92915050565b600073ffffffffffffffffffffffffffffffffffffffff82169050919050565b6000611b7b82611b50565b9050919050565b611b8b81611b70565b8114611b9657600080fd5b50565b600081359050611ba881611b82565b92915050565b60008060408385031215611bc557611bc46118ce565b5b6000611bd385828601611ae4565b9250506020611be485828601611b99565b9150509250929050565b60008060008060008060808789031215611c0b57611c0a6118ce565b5b6000611c1989828a01611b99565b965050602087013567ffffffffffffffff811115611c3a57611c396118d3565b5b611c4689828a016119a2565b95509550506040611c5989828a01611a19565b935050606087013567ffffffffffffffff811115611c7a57611c796118d3565b5b611c8689828a016119a2565b92509250509295509295509295565b60008060008060408587031215611caf57611cae6118ce565b5b600085013567ffffffffffffffff811115611ccd57611ccc6118d3565b5b611cd9878288016119a2565b9450945050602085013567ffffffffffffffff811115611cfc57611cfb6118d3565b5b611d08878288016119a2565b925092505092959194509250565b611d1f816119f8565b82525050565b6000602082019050611d3a6000830184611d16565b92915050565b60008060208385031215611d5757611d566118ce565b5b600083013567ffffffffffffffff811115611d7557611d746118d3565b5b611d81858286016119a2565b92509250509250929050565b611d9681611b70565b82525050565b6000602082019050611db16000830184611d8d565b92915050565b600082825260208201905092915050565b82818337600083830152505050565b6000601f19601f8301169050919050565b6000611df48385611db7565b9350611e01838584611dc8565b611e0a83611dd7565b840190509392505050565b60006060820190508181036000830152611e30818789611de8565b9050611e3f6020830186611d16565b8181036040830152611e52818486611de8565b90509695505050505050565b600082825260208201905092915050565b7f416363657373436f6e74726f6c3a2063616e206f6e6c792072656e6f756e636560008201527f20726f6c657320666f722073656c660000000000000000000000000000000000602082015250565b6000611ecb602f83611e5e565b9150611ed682611e6f565b604082019050919050565b60006020820190508181036000830152611efa81611ebe565b9050919050565b6000608082019050611f166000830189611d8d565b8181036020830152611f29818789611de8565b9050611f386040830186611d16565b8181036060830152611f4b818486611de8565b9050979650505050505050565b600080fd5b7f4e487b7100000000000000000000000000000000000000000000000000000000600052604160045260246000fd5b611f9582611dd7565b810181811067ffffffffffffffff82111715611fb457611fb3611f5d565b5b80604052505050565b6000611fc76118c4565b9050611fd38282611f8c565b919050565b600060408284031215611fee57611fed611f58565b5b611ff86040611fbd565b9050600061200884828501611b99565b600083015250602061201c84828501611ae4565b60208301525092915050565b60006040828403121561203e5761203d6118ce565b5b600061204c84828501611fd8565b91505092915050565b600081905092915050565b600061206c8385612055565b9350612079838584611dc8565b82840190509392505050565b6000612092828486612060565b91508190509392505050565b7f5265656e7472616e637947756172643a207265656e7472616e742063616c6c00600082015250565b60006120d4601f83611e5e565b91506120df8261209e565b602082019050919050565b60006020820190508181036000830152612103816120c7565b9050919050565b60008151905061211981611b82565b92915050565b600060ff82169050919050565b6121358161211f565b811461214057600080fd5b50565b6000815190506121528161212c565b92915050565b60006040828403121561216e5761216d611f58565b5b6121786040611fbd565b905060006121888482850161210a565b600083015250602061219c84828501612143565b60208301525092915050565b6000604082840312156121be576121bd6118ce565b5b60006121cc84828501612158565b91505092915050565b6000815190506121e481611acd565b92915050565b600060408284031215612200576121ff611f58565b5b61220a6040611fbd565b9050600061221a8482850161210a565b600083015250602061222e848285016121d5565b60208301525092915050565b6000604082840312156122505761224f6118ce565b5b600061225e848285016121ea565b91505092915050565b7f4e487b7100000000000000000000000000000000000000000000000000000000600052601160045260246000fd5b60008160011c9050919050565b6000808291508390505b60018511156122ed578086048111156122c9576122c8612267565b5b60018516156122d85780820291505b80810290506122e685612296565b94506122ad565b94509492505050565b60008261230657600190506123c2565b8161231457600090506123c2565b816001811461232a576002811461233457612363565b60019150506123c2565b60ff84111561234657612345612267565b5b8360020a91508482111561235d5761235c612267565b5b506123c2565b5060208310610133831016604e8410600b84101617156123985782820a90508381111561239357612392612267565b5b6123c2565b6123a584848460016122a3565b925090508184048111156123bc576123bb612267565b5b81810290505b9392505050565b60006123d4826119f8565b91506123df8361211f565b925061240c7fffffffffffffffffffffffffffffffffffffffffffffffffffffffffffffffff84846122f6565b905092915050565b600061241f826119f8565b915061242a836119f8565b9250828202612438816119f8565b9150828204841483151761244f5761244e612267565b5b5092915050565b7f4e487b7100000000000000000000000000000000000000000000000000000000600052601260045260246000fd5b6000612490826119f8565b915061249b836119f8565b9250826124ab576124aa612456565b5b828204905092915050565b7f5f756e6c6f6164546f506f736974696f6e3a2062616c616e636520746f6f206c60008201527f6f77000000000000000000000000000000000000000000000000000000000000602082015250565b6000612512602283611e5e565b915061251d826124b6565b604082019050919050565b6000602082019050818103600083015261254181612505565b9050919050565b6000612553826119f8565b915061255e836119f8565b925082820390508181111561257657612575612267565b5b92915050565b61258581611b70565b82525050565b612594816119f8565b82525050565b60006060820190506125af600083018661257c565b6125bc602083018561257c565b6125c9604083018461258b565b949350505050565b60008160601b9050919050565b60006125e9826125d1565b9050919050565b60006125fb826125de565b9050919050565b61261361260e82611b70565b6125f0565b82525050565b6000819050919050565b61263461262f82611ac3565b612619565b82525050565b60006126468285612602565b6014820191506126568284612623565b6020820191508190509392505050565b7f756e6c6f61643a206e6f74206f776e6572000000000000000000000000000000600082015250565b600061269c601183611e5e565b91506126a782612666565b602082019050919050565b600060208201905081810360008301526126cb8161268f565b9050919050565b7f5f756e6c6f6164546f557365723a2062616c616e636520746f6f206c6f770000600082015250565b6000612708601e83611e5e565b9150612713826126d2565b602082019050919050565b60006020820190508181036000830152612737816126fb565b9050919050565b6000612749826119f8565b9150612754836119f8565b925082820190508082111561276c5761276b612267565b5b92915050565b6000608082019050612787600083018761257c565b612794602083018661257c565b6127a1604083018561257c565b6127ae606083018461258b565b95945050505050565b7f45544820616d6f756e74206d69736d6174636800000000000000000000000000600082015250565b60006127ed601383611e5e565b91506127f8826127b7565b602082019050919050565b6000602082019050818103600083015261281c816127e0565b9050919050565b600081905092915050565b7f416363657373436f6e74726f6c3a206163636f756e7420000000000000000000600082015250565b6000612864601783612823565b915061286f8261282e565b601782019050919050565b600081519050919050565b60005b838110156128a3578082015181840152602081019050612888565b60008484015250505050565b60006128ba8261287a565b6128c48185612823565b93506128d4818560208601612885565b80840191505092915050565b7f206973206d697373696e6720726f6c6520000000000000000000000000000000600082015250565b6000612916601183612823565b9150612921826128e0565b601182019050919050565b600061293782612857565b915061294382856128af565b915061294e82612909565b915061295a82846128af565b91508190509392505050565b60006129718261287a565b61297b8185611e5e565b935061298b818560208601612885565b61299481611dd7565b840191505092915050565b600060208201905081810360008301526129b98184612966565b905092915050565b7f4e487b7100000000000000000000000000000000000000000000000000000000600052603260045260246000fd5b60006129fb826119f8565b915060008203612a0e57612a0d612267565b5b600182039050919050565b7f537472696e67733a20686578206c656e67746820696e73756666696369656e74600082015250565b6000612a4f602083611e5e565b9150612a5a82612a19565b602082019050919050565b60006020820190508181036000830152612a7e81612a42565b905091905056fea26469706673582212208710239a729aff3e3ac52cee9e11f111c6ed7dc0bab16698558d9b71143ebe4964736f6c63430008130033",
  "linkReferences": {
    "src/libraries/LibUtilsPublic.sol": {
      "LibUtilsPublic": [
        {
          "length": 20,
          "start": 4367
        },
        {
          "length": 20,
          "start": 5229
        },
        {
          "length": 20,
          "start": 5553
        },
        {
          "length": 20,
          "start": 6139
        }
      ]
    }
  },
  "deployedLinkReferences": {
    "src/libraries/LibUtilsPublic.sol": {
      "LibUtilsPublic": [
        {
          "length": 20,
          "start": 3697
        },
        {
          "length": 20,
          "start": 4559
        },
        {
          "length": 20,
          "start": 4883
        },
        {
          "length": 20,
          "start": 5469
        }
      ]
    }
  }
}