{
  "_format": "hh-sol-artifact-1",
  "contractName": "SoloAccount",
  "sourceName": "src/plugins/account/implementations/SoloAccount.sol",
  "abi": [
    {
      "inputs": [
        {
          "internalType": "address",
          "name": "bookkeeperAddr",
          "type": "address"
        }
      ],
      "stateMutability": "nonpayable",
      "type": "constructor"
    },
    {
      "anonymous": false,
      "inputs": [
        {
          "indexed": false,
          "internalType": "bytes",
          "name": "assetData",
          "type": "bytes"
        },
        {
          "indexed": false,
          "internalType": "uint256",
          "name": "amount",
          "type": "uint256"
        },
        {
          "indexed": false,
          "internalType": "bytes",
          "name": "parameters",
          "type": "bytes"
        }
      ],
      "name": "LoadedFromPosition",
      "type": "event"
    },
    {
      "anonymous": false,
      "inputs": [
        {
          "indexed": false,
          "internalType": "bytes",
          "name": "assetData",
          "type": "bytes"
        },
        {
          "indexed": false,
          "internalType": "uint256",
          "name": "amount",
          "type": "uint256"
        },
        {
          "indexed": false,
          "internalType": "bytes",
          "name": "parameters",
          "type": "bytes"
        }
      ],
      "name": "LoadedFromUser",
      "type": "event"
    },
    {
      "anonymous": false,
      "inputs": [
        {
          "indexed": true,
          "internalType": "bytes32",
          "name": "role",
          "type": "bytes32"
        },
        {
          "indexed": true,
          "internalType": "bytes32",
          "name": "previousAdminRole",
          "type": "bytes32"
        },
        {
          "indexed": true,
          "internalType": "bytes32",
          "name": "newAdminRole",
          "type": "bytes32"
        }
      ],
      "name": "RoleAdminChanged",
      "type": "event"
    },
    {
      "anonymous": false,
      "inputs": [
        {
          "indexed": true,
          "internalType": "bytes32",
          "name": "role",
          "type": "bytes32"
        },
        {
          "indexed": true,
          "internalType": "address",
          "name": "account",
          "type": "address"
        },
        {
          "indexed": true,
          "internalType": "address",
          "name": "sender",
          "type": "address"
        }
      ],
      "name": "RoleGranted",
      "type": "event"
    },
    {
      "anonymous": false,
      "inputs": [
        {
          "indexed": true,
          "internalType": "bytes32",
          "name": "role",
          "type": "bytes32"
        },
        {
          "indexed": true,
          "internalType": "address",
          "name": "account",
          "type": "address"
        },
        {
          "indexed": true,
          "internalType": "address",
          "name": "sender",
          "type": "address"
        }
      ],
      "name": "RoleRevoked",
      "type": "event"
    },
    {
      "anonymous": false,
      "inputs": [
        {
          "indexed": false,
          "internalType": "address",
          "name": "position",
          "type": "address"
        },
        {
          "indexed": false,
          "internalType": "bytes",
          "name": "assetData",
          "type": "bytes"
        },
        {
          "indexed": false,
          "internalType": "uint256",
          "name": "amount",
          "type": "uint256"
        },
        {
          "indexed": false,
          "internalType": "bytes",
          "name": "parameters",
          "type": "bytes"
        }
      ],
      "name": "UnloadedToPosition",
      "type": "event"
    },
    {
      "anonymous": false,
      "inputs": [
        {
          "indexed": false,
          "internalType": "bytes",
          "name": "assetData",
          "type": "bytes"
        },
        {
          "indexed": false,
          "internalType": "uint256",
          "name": "amount",
          "type": "uint256"
        },
        {
          "indexed": false,
          "internalType": "bytes",
          "name": "parameters",
          "type": "bytes"
        }
      ],
      "name": "UnloadedToUser",
      "type": "event"
    },
    {
      "inputs": [],
      "name": "DEFAULT_ADMIN_ROLE",
      "outputs": [
        {
          "internalType": "bytes32",
          "name": "",
          "type": "bytes32"
        }
      ],
      "stateMutability": "view",
      "type": "function"
    },
    {
      "inputs": [
        {
          "internalType": "bytes",
          "name": "assetData",
          "type": "bytes"
        },
        {
          "internalType": "bytes",
          "name": "parameters",
          "type": "bytes"
        }
      ],
      "name": "getBalance",
      "outputs": [
        {
          "internalType": "uint256",
          "name": "amounts",
          "type": "uint256"
        }
      ],
      "stateMutability": "view",
      "type": "function"
    },
    {
      "inputs": [
        {
          "internalType": "bytes",
          "name": "parameters",
          "type": "bytes"
        }
      ],
      "name": "getOwner",
      "outputs": [
        {
          "internalType": "address",
          "name": "",
          "type": "address"
        }
      ],
      "stateMutability": "pure",
      "type": "function"
    },
    {
      "inputs": [
        {
          "internalType": "bytes32",
          "name": "role",
          "type": "bytes32"
        }
      ],
      "name": "getRoleAdmin",
      "outputs": [
        {
          "internalType": "bytes32",
          "name": "",
          "type": "bytes32"
        }
      ],
      "stateMutability": "view",
      "type": "function"
    },
    {
      "inputs": [
        {
          "internalType": "bytes32",
          "name": "role",
          "type": "bytes32"
        },
        {
          "internalType": "address",
          "name": "account",
          "type": "address"
        }
      ],
      "name": "grantRole",
      "outputs": [],
      "stateMutability": "nonpayable",
      "type": "function"
    },
    {
      "inputs": [
        {
          "internalType": "bytes32",
          "name": "role",
          "type": "bytes32"
        },
        {
          "internalType": "address",
          "name": "account",
          "type": "address"
        }
      ],
      "name": "hasRole",
      "outputs": [
        {
          "internalType": "bool",
          "name": "",
          "type": "bool"
        }
      ],
      "stateMutability": "view",
      "type": "function"
    },
    {
      "inputs": [
        {
          "internalType": "bytes",
          "name": "assetData",
          "type": "bytes"
        },
        {
          "internalType": "uint256",
          "name": "amount",
          "type": "uint256"
        },
        {
          "internalType": "bytes",
          "name": "parameters",
          "type": "bytes"
        }
      ],
      "name": "loadFromPosition",
      "outputs": [],
      "stateMutability": "payable",
      "type": "function"
    },
    {
      "inputs": [
        {
          "internalType": "bytes",
          "name": "assetData",
          "type": "bytes"
        },
        {
          "internalType": "uint256",
          "name": "amount",
          "type": "uint256"
        },
        {
          "internalType": "bytes",
          "name": "parameters",
          "type": "bytes"
        }
      ],
      "name": "loadFromUser",
      "outputs": [],
      "stateMutability": "payable",
      "type": "function"
    },
    {
      "inputs": [
        {
          "internalType": "bytes32",
          "name": "role",
          "type": "bytes32"
        },
        {
          "internalType": "address",
          "name": "account",
          "type": "address"
        }
      ],
      "name": "renounceRole",
      "outputs": [],
      "stateMutability": "nonpayable",
      "type": "function"
    },
    {
      "inputs": [
        {
          "internalType": "bytes32",
          "name": "role",
          "type": "bytes32"
        },
        {
          "internalType": "address",
          "name": "account",
          "type": "address"
        }
      ],
      "name": "revokeRole",
      "outputs": [],
      "stateMutability": "nonpayable",
      "type": "function"
    },
    {
      "inputs": [
        {
          "internalType": "bytes4",
          "name": "interfaceId",
          "type": "bytes4"
        }
      ],
      "name": "supportsInterface",
      "outputs": [
        {
          "internalType": "bool",
          "name": "",
          "type": "bool"
        }
      ],
      "stateMutability": "view",
      "type": "function"
    },
    {
      "inputs": [
        {
          "internalType": "address",
          "name": "position",
          "type": "address"
        },
        {
          "internalType": "bytes",
          "name": "assetData",
          "type": "bytes"
        },
        {
          "internalType": "uint256",
          "name": "amount",
          "type": "uint256"
        },
        {
          "internalType": "bytes",
          "name": "parameters",
          "type": "bytes"
        }
      ],
      "name": "unloadToPosition",
      "outputs": [],
      "stateMutability": "nonpayable",
      "type": "function"
    },
    {
      "inputs": [
        {
          "internalType": "bytes",
          "name": "assetData",
          "type": "bytes"
        },
        {
          "internalType": "uint256",
          "name": "amount",
          "type": "uint256"
        },
        {
          "internalType": "bytes",
          "name": "parameters",
          "type": "bytes"
        }
      ],
      "name": "unloadToUser",
      "outputs": [],
      "stateMutability": "nonpayable",
      "type": "function"
    }
  ],
  "bytecode": "0x60806040523480156200001157600080fd5b5060405162002aff38038062002aff83398181016040528101906200003791906200025c565b8060018081905550620000717f03c7040f8e5b938f657d4600d08b1b77f390141994844cbb34ff043f26ac6cd7826200007960201b60201c565b50506200028e565b6200008b82826200008f60201b60201c565b5050565b620000a182826200018060201b60201c565b6200017c57600160008084815260200190815260200160002060000160008373ffffffffffffffffffffffffffffffffffffffff1673ffffffffffffffffffffffffffffffffffffffff16815260200190815260200160002060006101000a81548160ff02191690831515021790555062000121620001ea60201b60201c565b73ffffffffffffffffffffffffffffffffffffffff168173ffffffffffffffffffffffffffffffffffffffff16837f2f8788117e7eff1d82e926ec794901d17c78024a50270940304540a733656f0d60405160405180910390a45b5050565b600080600084815260200190815260200160002060000160008373ffffffffffffffffffffffffffffffffffffffff1673ffffffffffffffffffffffffffffffffffffffff16815260200190815260200160002060009054906101000a900460ff16905092915050565b600033905090565b600080fd5b600073ffffffffffffffffffffffffffffffffffffffff82169050919050565b60006200022482620001f7565b9050919050565b620002368162000217565b81146200024257600080fd5b50565b60008151905062000256816200022b565b92915050565b600060208284031215620002755762000274620001f2565b5b6000620002858482850162000245565b91505092915050565b612861806200029e6000396000f3fe6080604052600436106100c25760003560e01c8063890811ae1161007f578063a217fddf11610059578063a217fddf1461027b578063b102bfbe146102a6578063d547741f146102e3578063d9a432ef1461030c576100c2565b8063890811ae146101d85780638fafb7001461021557806391d148541461023e576100c2565b806301ffc9a7146100c757806306b1c4c914610104578063248a9ca3146101205780632f2ff15d1461015d57806336568abe146101865780634e7f0304146101af575b600080fd5b3480156100d357600080fd5b506100ee60048036038101906100e991906116d6565b610328565b6040516100fb919061171e565b60405180910390f35b61011e600480360381019061011991906117d4565b6103a2565b005b34801561012c57600080fd5b506101476004803603810190610142919061189f565b61048b565b60405161015491906118db565b60405180910390f35b34801561016957600080fd5b50610184600480360381019061017f9190611954565b6104aa565b005b34801561019257600080fd5b506101ad60048036038101906101a89190611954565b6104cb565b005b3480156101bb57600080fd5b506101d660048036038101906101d19190611994565b61054e565b005b3480156101e457600080fd5b506101ff60048036038101906101fa9190611a3b565b610656565b60405161020c9190611acb565b60405180910390f35b34801561022157600080fd5b5061023c600480360381019061023791906117d4565b6106c8565b005b34801561024a57600080fd5b5061026560048036038101906102609190611954565b6107b1565b604051610272919061171e565b60405180910390f35b34801561028757600080fd5b5061029061081b565b60405161029d91906118db565b60405180910390f35b3480156102b257600080fd5b506102cd60048036038101906102c89190611ae6565b610822565b6040516102da9190611b42565b60405180910390f35b3480156102ef57600080fd5b5061030a60048036038101906103059190611954565b61083f565b005b610326600480360381019061032191906117d4565b610860565b005b60007f7965db0b000000000000000000000000000000000000000000000000000000007bffffffffffffffffffffffffffffffffffffffffffffffffffffffff1916827bffffffffffffffffffffffffffffffffffffffffffffffffffffffff1916148061039b575061039a82610949565b5b9050919050565b6103aa6109b3565b61043d85858080601f016020809104026020016040519081016040528093929190818152602001838380828437600081840152601f19601f820116905080830192505050505050508484848080601f016020809104026020016040519081016040528093929190818152602001838380828437600081840152601f19601f82011690508083019250505050505050610a02565b7f7c3c78fd4a06ac8330a3ce3a2f9c64f39339a7c1ac9885508640d1b6c9427f278585858585604051610474959493929190611bbb565b60405180910390a1610484610a12565b5050505050565b6000806000838152602001908152602001600020600101549050919050565b6104b38261048b565b6104bc81610a1b565b6104c68383610a2f565b505050565b6104d3610b0f565b73ffffffffffffffffffffffffffffffffffffffff168173ffffffffffffffffffffffffffffffffffffffff1614610540576040517f08c379a000000000000000000000000000000000000000000000000000000000815260040161053790611c87565b60405180910390fd5b61054a8282610b17565b5050565b7f03c7040f8e5b938f657d4600d08b1b77f390141994844cbb34ff043f26ac6cd761057881610a1b565b61060c8787878080601f016020809104026020016040519081016040528093929190818152602001838380828437600081840152601f19601f820116905080830192505050505050508686868080601f016020809104026020016040519081016040528093929190818152602001838380828437600081840152601f19601f82011690508083019250505050505050610bf8565b7f279591683e04c54d0e17da9e5c3c25afb5469d9001638b039efb5e09cda3987187878787878760405161064596959493929190611ca7565b60405180910390a150505050505050565b60008083838101906106689190611dce565b9050600061067e82600001518360200151610dc5565b905060026000828152602001908152602001600020600088886040516106a5929190611e2b565b604051809103902081526020019081526020016000205492505050949350505050565b6106d06109b3565b61076385858080601f016020809104026020016040519081016040528093929190818152602001838380828437600081840152601f19601f820116905080830192505050505050508484848080601f016020809104026020016040519081016040528093929190818152602001838380828437600081840152601f19601f82011690508083019250505050505050610df8565b7f41d028e5fc9bd316ca147f98f379362455cee71a79b44ff786d0c267ca77b151858585858560405161079a959493929190611bbb565b60405180910390a16107aa610a12565b5050505050565b600080600084815260200190815260200160002060000160008373ffffffffffffffffffffffffffffffffffffffff1673ffffffffffffffffffffffffffffffffffffffff16815260200190815260200160002060009054906101000a900460ff16905092915050565b6000801b81565b600082828101906108339190611dce565b60000151905092915050565b6108488261048b565b61085181610a1b565b61085b8383610b17565b505050565b6108686109b3565b6108fb85858080601f016020809104026020016040519081016040528093929190818152602001838380828437600081840152601f19601f820116905080830192505050505050508484848080601f016020809104026020016040519081016040528093929190818152602001838380828437600081840152601f19601f82011690508083019250505050505050611122565b7f6e81a423a18bac44b67cd32f701ebb3bd4d65142c25cad73fbf14f7dcb1abb5e8585858585604051610932959493929190611bbb565b60405180910390a1610942610a12565b5050505050565b60007f01ffc9a7000000000000000000000000000000000000000000000000000000007bffffffffffffffffffffffffffffffffffffffffffffffffffffffff1916827bffffffffffffffffffffffffffffffffffffffffffffffffffffffff1916149050919050565b6002600154036109f8576040517f08c379a00000000000000000000000000000000000000000000000000000000081526004016109ef90611e90565b60405180910390fd5b6002600181905550565b610a0d838383611132565b505050565b60018081905550565b610a2c81610a27610b0f565b61137c565b50565b610a3982826107b1565b610b0b57600160008084815260200190815260200160002060000160008373ffffffffffffffffffffffffffffffffffffffff1673ffffffffffffffffffffffffffffffffffffffff16815260200190815260200160002060006101000a81548160ff021916908315150217905550610ab0610b0f565b73ffffffffffffffffffffffffffffffffffffffff168173ffffffffffffffffffffffffffffffffffffffff16837f2f8788117e7eff1d82e926ec794901d17c78024a50270940304540a733656f0d60405160405180910390a45b5050565b600033905090565b610b2182826107b1565b15610bf457600080600084815260200190815260200160002060000160008373ffffffffffffffffffffffffffffffffffffffff1673ffffffffffffffffffffffffffffffffffffffff16815260200190815260200160002060006101000a81548160ff021916908315150217905550610b99610b0f565b73ffffffffffffffffffffffffffffffffffffffff168173ffffffffffffffffffffffffffffffffffffffff16837ff6391f5c32d9c69d2a47ea670b442974b53935d1edc7fd64eb21e047a839171b60405160405180910390a45b5050565b7f03c7040f8e5b938f657d4600d08b1b77f390141994844cbb34ff043f26ac6cd7610c2281610a1b565b600084806020019051810190610c389190611f4e565b9050600083806020019051810190610c509190611fe0565b90506000610c6682600001518360200151610dc5565b90506000670de0b6b3a76400008460200151600a610c84919061216f565b88610c8f91906121ba565b610c99919061222b565b9050866002600084815260200190815260200160002060008a805190602001208152602001908152602001600020541015610d09576040517f08c379a0000000000000000000000000000000000000000000000000000000008152600401610d00906122ce565b60405180910390fd5b866002600084815260200190815260200160002060008a8051906020012081526020019081526020016000206000828254610d4491906122ee565b9250508190555073__$0dbc1134add5307a68154fc29708de467d$__63d4e3bdb685600001518b846040518463ffffffff1660e01b8152600401610d8a93929190612340565b60006040518083038186803b158015610da257600080fd5b505af4158015610db6573d6000803e3d6000fd5b50505050505050505050505050565b60008282604051602001610dda9291906123e0565b60405160208183030381529060405280519060200120905092915050565b600083806020019051810190610e0e9190611f4e565b9050600082806020019051810190610e269190611fe0565b9050806000015173ffffffffffffffffffffffffffffffffffffffff163373ffffffffffffffffffffffffffffffffffffffff1614610e9a576040517f08c379a0000000000000000000000000000000000000000000000000000000008152600401610e9190612458565b60405180910390fd5b6000610eae82600001518360200151610dc5565b90508460026000838152602001908152602001600020600088805190602001208152602001908152602001600020541015610f1e576040517f08c379a0000000000000000000000000000000000000000000000000000000008152600401610f15906124c4565b60405180910390fd5b84600260008381526020019081526020016000206000888051906020012081526020019081526020016000206000828254610f5991906122ee565b925050819055506000670de0b6b3a76400008460200151600a610f7c919061216f565b87610f8791906121ba565b610f91919061222b565b905073c02aaa39b223fe8d0a0e5c4f27ead9083c756cc273ffffffffffffffffffffffffffffffffffffffff16846000015173ffffffffffffffffffffffffffffffffffffffff16036110a95773c02aaa39b223fe8d0a0e5c4f27ead9083c756cc273ffffffffffffffffffffffffffffffffffffffff16632e1a7d4d876040518263ffffffff1660e01b815260040161102b9190611acb565b600060405180830381600087803b15801561104557600080fd5b505af1158015611059573d6000803e3d6000fd5b505050503373ffffffffffffffffffffffffffffffffffffffff166108fc879081150290604051600060405180830381858888f193505050501580156110a3573d6000803e3d6000fd5b50611119565b73__$0dbc1134add5307a68154fc29708de467d$__63d4e3bdb6856000015133846040518463ffffffff1660e01b81526004016110e893929190612340565b60006040518083038186803b15801561110057600080fd5b505af4158015611114573d6000803e3d6000fd5b505050505b50505050505050565b61112d838383611132565b505050565b6000838060200190518101906111489190611f4e565b90506000828060200190518101906111609190611fe0565b9050600061117682600001518360200151610dc5565b9050846002600083815260200190815260200160002060008880519060200120815260200190815260200160002060008282546111b391906124e4565b925050819055506000670de0b6b3a76400008460200151600a6111d6919061216f565b876111e191906121ba565b6111eb919061222b565b905073c02aaa39b223fe8d0a0e5c4f27ead9083c756cc273ffffffffffffffffffffffffffffffffffffffff16846000015173ffffffffffffffffffffffffffffffffffffffff161480156112405750600034115b1561130157853414611287576040517f08c379a000000000000000000000000000000000000000000000000000000000815260040161127e90612564565b60405180910390fd5b73c02aaa39b223fe8d0a0e5c4f27ead9083c756cc273ffffffffffffffffffffffffffffffffffffffff1663d0e30db0346040518263ffffffff1660e01b81526004016000604051808303818588803b1580156112e357600080fd5b505af11580156112f7573d6000803e3d6000fd5b5050505050611373565b73__$0dbc1134add5307a68154fc29708de467d$__6308b047dc85600001513330856040518563ffffffff1660e01b81526004016113429493929190612584565b60006040518083038186803b15801561135a57600080fd5b505af415801561136e573d6000803e3d6000fd5b505050505b50505050505050565b61138682826107b1565b6113fd5761139381611401565b6113a18360001c602061142e565b6040516020016113b29291906126d2565b6040516020818303038152906040526040517f08c379a00000000000000000000000000000000000000000000000000000000081526004016113f49190612745565b60405180910390fd5b5050565b60606114278273ffffffffffffffffffffffffffffffffffffffff16601460ff1661142e565b9050919050565b60606000600283600261144191906121ba565b61144b91906124e4565b67ffffffffffffffff81111561146457611463611d03565b5b6040519080825280601f01601f1916602001820160405280156114965781602001600182028036833780820191505090505b5090507f3000000000000000000000000000000000000000000000000000000000000000816000815181106114ce576114cd612767565b5b60200101907effffffffffffffffffffffffffffffffffffffffffffffffffffffffffffff1916908160001a9053507f78000000000000000000000000000000000000000000000000000000000000008160018151811061153257611531612767565b5b60200101907effffffffffffffffffffffffffffffffffffffffffffffffffffffffffffff1916908160001a9053506000600184600261157291906121ba565b61157c91906124e4565b90505b600181111561161c577f3031323334353637383961626364656600000000000000000000000000000000600f8616601081106115be576115bd612767565b5b1a60f81b8282815181106115d5576115d4612767565b5b60200101907effffffffffffffffffffffffffffffffffffffffffffffffffffffffffffff1916908160001a905350600485901c94508061161590612796565b905061157f565b5060008414611660576040517f08c379a00000000000000000000000000000000000000000000000000000000081526004016116579061280b565b60405180910390fd5b8091505092915050565b6000604051905090565b600080fd5b600080fd5b60007fffffffff0000000000000000000000000000000000000000000000000000000082169050919050565b6116b38161167e565b81146116be57600080fd5b50565b6000813590506116d0816116aa565b92915050565b6000602082840312156116ec576116eb611674565b5b60006116fa848285016116c1565b91505092915050565b60008115159050919050565b61171881611703565b82525050565b6000602082019050611733600083018461170f565b92915050565b600080fd5b600080fd5b600080fd5b60008083601f84011261175e5761175d611739565b5b8235905067ffffffffffffffff81111561177b5761177a61173e565b5b60208301915083600182028301111561179757611796611743565b5b9250929050565b6000819050919050565b6117b18161179e565b81146117bc57600080fd5b50565b6000813590506117ce816117a8565b92915050565b6000806000806000606086880312156117f0576117ef611674565b5b600086013567ffffffffffffffff81111561180e5761180d611679565b5b61181a88828901611748565b9550955050602061182d888289016117bf565b935050604086013567ffffffffffffffff81111561184e5761184d611679565b5b61185a88828901611748565b92509250509295509295909350565b6000819050919050565b61187c81611869565b811461188757600080fd5b50565b60008135905061189981611873565b92915050565b6000602082840312156118b5576118b4611674565b5b60006118c38482850161188a565b91505092915050565b6118d581611869565b82525050565b60006020820190506118f060008301846118cc565b92915050565b600073ffffffffffffffffffffffffffffffffffffffff82169050919050565b6000611921826118f6565b9050919050565b61193181611916565b811461193c57600080fd5b50565b60008135905061194e81611928565b92915050565b6000806040838503121561196b5761196a611674565b5b60006119798582860161188a565b925050602061198a8582860161193f565b9150509250929050565b600080600080600080608087890312156119b1576119b0611674565b5b60006119bf89828a0161193f565b965050602087013567ffffffffffffffff8111156119e0576119df611679565b5b6119ec89828a01611748565b955095505060406119ff89828a016117bf565b935050606087013567ffffffffffffffff811115611a2057611a1f611679565b5b611a2c89828a01611748565b92509250509295509295509295565b60008060008060408587031215611a5557611a54611674565b5b600085013567ffffffffffffffff811115611a7357611a72611679565b5b611a7f87828801611748565b9450945050602085013567ffffffffffffffff811115611aa257611aa1611679565b5b611aae87828801611748565b925092505092959194509250565b611ac58161179e565b82525050565b6000602082019050611ae06000830184611abc565b92915050565b60008060208385031215611afd57611afc611674565b5b600083013567ffffffffffffffff811115611b1b57611b1a611679565b5b611b2785828601611748565b92509250509250929050565b611b3c81611916565b82525050565b6000602082019050611b576000830184611b33565b92915050565b600082825260208201905092915050565b82818337600083830152505050565b6000601f19601f8301169050919050565b6000611b9a8385611b5d565b9350611ba7838584611b6e565b611bb083611b7d565b840190509392505050565b60006060820190508181036000830152611bd6818789611b8e565b9050611be56020830186611abc565b8181036040830152611bf8818486611b8e565b90509695505050505050565b600082825260208201905092915050565b7f416363657373436f6e74726f6c3a2063616e206f6e6c792072656e6f756e636560008201527f20726f6c657320666f722073656c660000000000000000000000000000000000602082015250565b6000611c71602f83611c04565b9150611c7c82611c15565b604082019050919050565b60006020820190508181036000830152611ca081611c64565b9050919050565b6000608082019050611cbc6000830189611b33565b8181036020830152611ccf818789611b8e565b9050611cde6040830186611abc565b8181036060830152611cf1818486611b8e565b9050979650505050505050565b600080fd5b7f4e487b7100000000000000000000000000000000000000000000000000000000600052604160045260246000fd5b611d3b82611b7d565b810181811067ffffffffffffffff82111715611d5a57611d59611d03565b5b80604052505050565b6000611d6d61166a565b9050611d798282611d32565b919050565b600060408284031215611d9457611d93611cfe565b5b611d9e6040611d63565b90506000611dae8482850161193f565b6000830152506020611dc28482850161188a565b60208301525092915050565b600060408284031215611de457611de3611674565b5b6000611df284828501611d7e565b91505092915050565b600081905092915050565b6000611e128385611dfb565b9350611e1f838584611b6e565b82840190509392505050565b6000611e38828486611e06565b91508190509392505050565b7f5265656e7472616e637947756172643a207265656e7472616e742063616c6c00600082015250565b6000611e7a601f83611c04565b9150611e8582611e44565b602082019050919050565b60006020820190508181036000830152611ea981611e6d565b9050919050565b600081519050611ebf81611928565b92915050565b600060ff82169050919050565b611edb81611ec5565b8114611ee657600080fd5b50565b600081519050611ef881611ed2565b92915050565b600060408284031215611f1457611f13611cfe565b5b611f1e6040611d63565b90506000611f2e84828501611eb0565b6000830152506020611f4284828501611ee9565b60208301525092915050565b600060408284031215611f6457611f63611674565b5b6000611f7284828501611efe565b91505092915050565b600081519050611f8a81611873565b92915050565b600060408284031215611fa657611fa5611cfe565b5b611fb06040611d63565b90506000611fc084828501611eb0565b6000830152506020611fd484828501611f7b565b60208301525092915050565b600060408284031215611ff657611ff5611674565b5b600061200484828501611f90565b91505092915050565b7f4e487b7100000000000000000000000000000000000000000000000000000000600052601160045260246000fd5b60008160011c9050919050565b6000808291508390505b60018511156120935780860481111561206f5761206e61200d565b5b600185161561207e5780820291505b808102905061208c8561203c565b9450612053565b94509492505050565b6000826120ac5760019050612168565b816120ba5760009050612168565b81600181146120d057600281146120da57612109565b6001915050612168565b60ff8411156120ec576120eb61200d565b5b8360020a9150848211156121035761210261200d565b5b50612168565b5060208310610133831016604e8410600b841016171561213e5782820a9050838111156121395761213861200d565b5b612168565b61214b8484846001612049565b925090508184048111156121625761216161200d565b5b81810290505b9392505050565b600061217a8261179e565b915061218583611ec5565b92506121b27fffffffffffffffffffffffffffffffffffffffffffffffffffffffffffffffff848461209c565b905092915050565b60006121c58261179e565b91506121d08361179e565b92508282026121de8161179e565b915082820484148315176121f5576121f461200d565b5b5092915050565b7f4e487b7100000000000000000000000000000000000000000000000000000000600052601260045260246000fd5b60006122368261179e565b91506122418361179e565b925082612251576122506121fc565b5b828204905092915050565b7f5f756e6c6f6164546f506f736974696f6e3a2062616c616e636520746f6f206c60008201527f6f77000000000000000000000000000000000000000000000000000000000000602082015250565b60006122b8602283611c04565b91506122c38261225c565b604082019050919050565b600060208201905081810360008301526122e7816122ab565b9050919050565b60006122f98261179e565b91506123048361179e565b925082820390508181111561231c5761231b61200d565b5b92915050565b61232b81611916565b82525050565b61233a8161179e565b82525050565b60006060820190506123556000830186612322565b6123626020830185612322565b61236f6040830184612331565b949350505050565b60008160601b9050919050565b600061238f82612377565b9050919050565b60006123a182612384565b9050919050565b6123b96123b482611916565b612396565b82525050565b6000819050919050565b6123da6123d582611869565b6123bf565b82525050565b60006123ec82856123a8565b6014820191506123fc82846123c9565b6020820191508190509392505050565b7f756e6c6f61643a206e6f74206f776e6572000000000000000000000000000000600082015250565b6000612442601183611c04565b915061244d8261240c565b602082019050919050565b6000602082019050818103600083015261247181612435565b9050919050565b7f5f756e6c6f6164546f557365723a2062616c616e636520746f6f206c6f770000600082015250565b60006124ae601e83611c04565b91506124b982612478565b602082019050919050565b600060208201905081810360008301526124dd816124a1565b9050919050565b60006124ef8261179e565b91506124fa8361179e565b92508282019050808211156125125761251161200d565b5b92915050565b7f45544820616d6f756e74206d69736d6174636800000000000000000000000000600082015250565b600061254e601383611c04565b915061255982612518565b602082019050919050565b6000602082019050818103600083015261257d81612541565b9050919050565b60006080820190506125996000830187612322565b6125a66020830186612322565b6125b36040830185612322565b6125c06060830184612331565b95945050505050565b600081905092915050565b7f416363657373436f6e74726f6c3a206163636f756e7420000000000000000000600082015250565b600061260a6017836125c9565b9150612615826125d4565b601782019050919050565b600081519050919050565b60005b8381101561264957808201518184015260208101905061262e565b60008484015250505050565b600061266082612620565b61266a81856125c9565b935061267a81856020860161262b565b80840191505092915050565b7f206973206d697373696e6720726f6c6520000000000000000000000000000000600082015250565b60006126bc6011836125c9565b91506126c782612686565b601182019050919050565b60006126dd826125fd565b91506126e98285612655565b91506126f4826126af565b91506127008284612655565b91508190509392505050565b600061271782612620565b6127218185611c04565b935061273181856020860161262b565b61273a81611b7d565b840191505092915050565b6000602082019050818103600083015261275f818461270c565b905092915050565b7f4e487b7100000000000000000000000000000000000000000000000000000000600052603260045260246000fd5b60006127a18261179e565b9150600082036127b4576127b361200d565b5b600182039050919050565b7f537472696e67733a20686578206c656e67746820696e73756666696369656e74600082015250565b60006127f5602083611c04565b9150612800826127bf565b602082019050919050565b60006020820190508181036000830152612824816127e8565b905091905056fea2646970667358221220e4bddf6e8b04665bf19c3f9178f6596c1eb39aebcdbfe3e817aac44c5fa7490764736f6c63430008130033",
  "linkReferences": {
    "src/libraries/LibUtilsPublic.sol": {
      "LibUtilsPublic": [
        {
          "length": 20,
          "start": 4075
        },
        {
          "length": 20,
          "start": 4937
        },
        {
          "length": 20,
          "start": 5537
        }
      ]
    }
  },
  "deployedLinkReferences": {
    "src/libraries/LibUtilsPublic.sol": {
      "LibUtilsPublic": [
        {
          "length": 20,
          "start": 3405
        },
        {
          "length": 20,
          "start": 4267
        },
        {
          "length": 20,
          "start": 4867
        }
      ]
    }
  }
}