{
  "_format": "hh-sol-artifact-1",
  "contractName": "StaticOracle",
  "sourceName": "src/plugins/oracle/implementations/StaticOracle.sol",
  "abi": [
    {
      "inputs": [
        {
          "internalType": "bytes",
          "name": "parameters",
          "type": "bytes"
        },
        {
          "internalType": "bytes",
          "name": "fillerData",
          "type": "bytes"
        }
      ],
      "name": "getClosePrice",
      "outputs": [
        {
          "internalType": "uint256",
          "name": "",
          "type": "uint256"
        }
      ],
      "stateMutability": "pure",
      "type": "function"
    },
    {
      "inputs": [
        {
          "internalType": "bytes",
          "name": "parameters",
          "type": "bytes"
        },
        {
          "internalType": "bytes",
          "name": "fillerData",
          "type": "bytes"
        }
      ],
      "name": "getOpenPrice",
      "outputs": [
        {
          "internalType": "uint256",
          "name": "",
          "type": "uint256"
        }
      ],
      "stateMutability": "pure",
      "type": "function"
    }
  ],
  "bytecode": "0x608060405234801561001057600080fd5b506101ce806100206000396000f3fe608060405234801561001057600080fd5b50600436106100365760003560e01c80632e8208491461003b578063f09f40791461003b575b600080fd5b61004e6100493660046100c3565b610060565b60405190815260200160405180910390f35b60008061006f8587018761012f565b519695505050505050565b60008083601f84011261008c57600080fd5b50813567ffffffffffffffff8111156100a457600080fd5b6020830191508360208285010111156100bc57600080fd5b9250929050565b600080600080604085870312156100d957600080fd5b843567ffffffffffffffff808211156100f157600080fd5b6100fd8883890161007a565b9096509450602087013591508082111561011657600080fd5b506101238782880161007a565b95989497509550505050565b60006020828403121561014157600080fd5b6040516020810181811067ffffffffffffffff8211171561018b577f4e487b7100000000000000000000000000000000000000000000000000000000600052604160045260246000fd5b604052913582525091905056fea2646970667358221220c3edbe511b4555dd15f2db877df16b2e9dd7aa7088e4e5b0bc983e10c5ec034464736f6c63430008130033",
  "linkReferences": {},
  "deployedLinkReferences": {}
}