{
  "_format": "hh-sol-artifact-1",
  "contractName": "StaticOracle",
  "sourceName": "src/plugins/oracle/implementations/StaticOracle.sol",
  "abi": [
    {
      "inputs": [
        {
          "internalType": "bytes",
          "name": "parameters",
          "type": "bytes"
        }
      ],
      "name": "getClosePrice",
      "outputs": [
        {
          "internalType": "uint256",
          "name": "",
          "type": "uint256"
        }
      ],
      "stateMutability": "pure",
      "type": "function"
    },
    {
      "inputs": [
        {
          "internalType": "bytes",
          "name": "parameters",
          "type": "bytes"
        }
      ],
      "name": "getOpenPrice",
      "outputs": [
        {
          "internalType": "uint256",
          "name": "",
          "type": "uint256"
        }
      ],
      "stateMutability": "pure",
      "type": "function"
    }
  ],
  "bytecode": "0x608060405234801561001057600080fd5b50610335806100206000396000f3fe608060405234801561001057600080fd5b50600436106100365760003560e01c80639569eb8f1461003b578063f667ef9a1461006b575b600080fd5b61005560048036038101906100509190610158565b61009b565b60405161006291906101be565b60405180910390f35b61008560048036038101906100809190610158565b6100bd565b60405161009291906101be565b60405180910390f35b60008083838101906100ad91906102d2565b9050806000015191505092915050565b60008083838101906100cf91906102d2565b9050806000015191505092915050565b6000604051905090565b600080fd5b600080fd5b600080fd5b600080fd5b600080fd5b60008083601f840112610118576101176100f3565b5b8235905067ffffffffffffffff811115610135576101346100f8565b5b602083019150836001820283011115610151576101506100fd565b5b9250929050565b6000806020838503121561016f5761016e6100e9565b5b600083013567ffffffffffffffff81111561018d5761018c6100ee565b5b61019985828601610102565b92509250509250929050565b6000819050919050565b6101b8816101a5565b82525050565b60006020820190506101d360008301846101af565b92915050565b600080fd5b6000601f19601f8301169050919050565b7f4e487b7100000000000000000000000000000000000000000000000000000000600052604160045260246000fd5b610227826101de565b810181811067ffffffffffffffff82111715610246576102456101ef565b5b80604052505050565b60006102596100df565b9050610265828261021e565b919050565b610273816101a5565b811461027e57600080fd5b50565b6000813590506102908161026a565b92915050565b6000602082840312156102ac576102ab6101d9565b5b6102b6602061024f565b905060006102c684828501610281565b60008301525092915050565b6000602082840312156102e8576102e76100e9565b5b60006102f684828501610296565b9150509291505056fea26469706673582212202f867a98b6eea2a58ae71857d8b7a95d2548788c7ba329363e42621de9bb3b2364736f6c63430008130033",
  "linkReferences": {},
  "deployedLinkReferences": {}
}