{
  "_format": "hh-sol-artifact-1",
  "contractName": "BeanOracle",
  "sourceName": "src/plugins/oracle/implementations/BeanOracle.sol",
  "abi": [
    {
      "inputs": [
        {
          "internalType": "bytes",
          "name": "parameters",
          "type": "bytes"
        },
        {
          "internalType": "bytes",
          "name": "fillerData",
          "type": "bytes"
        }
      ],
      "name": "getClosePrice",
      "outputs": [
        {
          "internalType": "uint256",
          "name": "",
          "type": "uint256"
        }
      ],
      "stateMutability": "view",
      "type": "function"
    },
    {
      "inputs": [
        {
          "internalType": "bytes",
          "name": "parameters",
          "type": "bytes"
        },
        {
          "internalType": "bytes",
          "name": "fillerData",
          "type": "bytes"
        }
      ],
      "name": "getOpenPrice",
      "outputs": [
        {
          "internalType": "uint256",
          "name": "",
          "type": "uint256"
        }
      ],
      "stateMutability": "view",
      "type": "function"
    }
  ],
  "bytecode": "0x608060405273ba510f10e3095b83a0f33aa9ad2544e22570a87c6000806101000a81548173ffffffffffffffffffffffffffffffffffffffff021916908373ffffffffffffffffffffffffffffffffffffffff16021790555073bea0e11282e2bb5893bece110cf199501e872bad600160006101000a81548173ffffffffffffffffffffffffffffffffffffffff021916908373ffffffffffffffffffffffffffffffffffffffff16021790555073c1e088fc1323b20bcbee9bd1b9fc9546db5624c5600260006101000a81548173ffffffffffffffffffffffffffffffffffffffff021916908373ffffffffffffffffffffffffffffffffffffffff16021790555034801561010e57600080fd5b50610c498061011e6000396000f3fe608060405234801561001057600080fd5b50600436106100365760003560e01c80632e8208491461003b578063f09f40791461006b575b600080fd5b6100556004803603810190610050919061059b565b61009b565b6040516100629190610635565b60405180910390f35b6100856004803603810190610080919061059b565b6100b1565b6040516100929190610635565b60405180910390f35b60006100a785856100c7565b9050949350505050565b60006100bd85856100c7565b9050949350505050565b60008083838101906100d99190610689565b905060008060009054906101000a900473ffffffffffffffffffffffffffffffffffffffff1673ffffffffffffffffffffffffffffffffffffffff16636de13cba600160009054906101000a900473ffffffffffffffffffffffffffffffffffffffff16600067ffffffffffffffff811115610158576101576106b6565b5b6040519080825280601f01601f19166020018201604052801561018a5781602001600182028036833780820191505090505b506040518363ffffffff1660e01b81526004016101a89291906107b6565b600060405180830381865afa1580156101c5573d6000803e3d6000fd5b505050506040513d6000823e3d601f19601f820116820180604052508101906101ee9190610921565b9050600080826001815181106102075761020661096a565b5b60200260200101516c0c9f2c9cd04674edea40000000846000815181106102315761023061096a565b5b602002602001015161024391906109c8565b61024d9190610a39565b91506000735f4ec3df9cbd43714fe2740f5e3616155c5b841973ffffffffffffffffffffffffffffffffffffffff1663feaf968c6040518163ffffffff1660e01b815260040160a060405180830381865afa1580156102b0573d6000803e3d6000fd5b505050506040513d601f19601f820116820180604052508101906102d49190610ae2565b50505091505060006305f5e100670de0b6b3a7640000836102f591906109c8565b6102ff9190610a39565b905083670de0b6b3a76400008261031691906109c8565b6103209190610a39565b925060018660ff160361033b5782965050505050505061051c565b60028660ff160361043a576000600260009054906101000a900473ffffffffffffffffffffffffffffffffffffffff1673ffffffffffffffffffffffffffffffffffffffff1663c84c7727600160009054906101000a900473ffffffffffffffffffffffffffffffffffffffff16670de0b6b3a76400006040518363ffffffff1660e01b81526004016103cf929190610ba2565b602060405180830381865afa1580156103ec573d6000803e3d6000fd5b505050506040513d601f19601f820116820180604052508101906104109190610bcb565b9050620f4240818561042291906109c8565b61042c9190610a39565b97505050505050505061051c565b60038660ff1603610515576000600260009054906101000a900473ffffffffffffffffffffffffffffffffffffffff1673ffffffffffffffffffffffffffffffffffffffff1663f984019b670de0b6b3a76400006040518263ffffffff1660e01b81526004016104aa9190610bf8565b602060405180830381865afa1580156104c7573d6000803e3d6000fd5b505050506040513d601f19601f820116820180604052508101906104eb9190610bcb565b9050620f424081856104fd91906109c8565b6105079190610a39565b97505050505050505061051c565b5050505050505b92915050565b6000604051905090565b600080fd5b600080fd5b600080fd5b600080fd5b600080fd5b60008083601f84011261055b5761055a610536565b5b8235905067ffffffffffffffff8111156105785761057761053b565b5b60208301915083600182028301111561059457610593610540565b5b9250929050565b600080600080604085870312156105b5576105b461052c565b5b600085013567ffffffffffffffff8111156105d3576105d2610531565b5b6105df87828801610545565b9450945050602085013567ffffffffffffffff81111561060257610601610531565b5b61060e87828801610545565b925092505092959194509250565b6000819050919050565b61062f8161061c565b82525050565b600060208201905061064a6000830184610626565b92915050565b600060ff82169050919050565b61066681610650565b811461067157600080fd5b50565b6000813590506106838161065d565b92915050565b60006020828403121561069f5761069e61052c565b5b60006106ad84828501610674565b91505092915050565b7f4e487b7100000000000000000000000000000000000000000000000000000000600052604160045260246000fd5b600073ffffffffffffffffffffffffffffffffffffffff82169050919050565b6000610710826106e5565b9050919050565b61072081610705565b82525050565b600081519050919050565b600082825260208201905092915050565b60005b83811015610760578082015181840152602081019050610745565b60008484015250505050565b6000601f19601f8301169050919050565b600061078882610726565b6107928185610731565b93506107a2818560208601610742565b6107ab8161076c565b840191505092915050565b60006040820190506107cb6000830185610717565b81810360208301526107dd818461077d565b90509392505050565b6107ef8261076c565b810181811067ffffffffffffffff8211171561080e5761080d6106b6565b5b80604052505050565b6000610821610522565b905061082d82826107e6565b919050565b600067ffffffffffffffff82111561084d5761084c6106b6565b5b602082029050602081019050919050565b6108678161061c565b811461087257600080fd5b50565b6000815190506108848161085e565b92915050565b600061089d61089884610832565b610817565b905080838252602082019050602084028301858111156108c0576108bf610540565b5b835b818110156108e957806108d58882610875565b8452602084019350506020810190506108c2565b5050509392505050565b600082601f83011261090857610907610536565b5b815161091884826020860161088a565b91505092915050565b6000602082840312156109375761093661052c565b5b600082015167ffffffffffffffff81111561095557610954610531565b5b610961848285016108f3565b91505092915050565b7f4e487b7100000000000000000000000000000000000000000000000000000000600052603260045260246000fd5b7f4e487b7100000000000000000000000000000000000000000000000000000000600052601160045260246000fd5b60006109d38261061c565b91506109de8361061c565b92508282026109ec8161061c565b91508282048414831517610a0357610a02610999565b5b5092915050565b7f4e487b7100000000000000000000000000000000000000000000000000000000600052601260045260246000fd5b6000610a448261061c565b9150610a4f8361061c565b925082610a5f57610a5e610a0a565b5b828204905092915050565b600069ffffffffffffffffffff82169050919050565b610a8981610a6a565b8114610a9457600080fd5b50565b600081519050610aa681610a80565b92915050565b6000819050919050565b610abf81610aac565b8114610aca57600080fd5b50565b600081519050610adc81610ab6565b92915050565b600080600080600060a08688031215610afe57610afd61052c565b5b6000610b0c88828901610a97565b9550506020610b1d88828901610acd565b9450506040610b2e88828901610875565b9350506060610b3f88828901610875565b9250506080610b5088828901610a97565b9150509295509295909350565b6000819050919050565b6000819050919050565b6000610b8c610b87610b8284610b5d565b610b67565b61061c565b9050919050565b610b9c81610b71565b82525050565b6000604082019050610bb76000830185610717565b610bc46020830184610b93565b9392505050565b600060208284031215610be157610be061052c565b5b6000610bef84828501610875565b91505092915050565b6000602082019050610c0d6000830184610b93565b9291505056fea26469706673582212207ce610438cdd721a01351713bd61bdbdb79fc70d2b97367e4ee2fa635a47dd3664736f6c63430008130033",
  "linkReferences": {},
  "deployedLinkReferences": {}
}