{
  "_format": "hh-sol-artifact-1",
  "contractName": "BeanOracle",
  "sourceName": "src/plugins/oracle/implementations/BeanOracle.sol",
  "abi": [
    {
      "inputs": [
        {
          "internalType": "bytes",
          "name": "parameters",
          "type": "bytes"
        }
      ],
      "name": "getClosePrice",
      "outputs": [
        {
          "internalType": "uint256",
          "name": "",
          "type": "uint256"
        }
      ],
      "stateMutability": "view",
      "type": "function"
    },
    {
      "inputs": [
        {
          "internalType": "bytes",
          "name": "parameters",
          "type": "bytes"
        }
      ],
      "name": "getOpenPrice",
      "outputs": [
        {
          "internalType": "uint256",
          "name": "",
          "type": "uint256"
        }
      ],
      "stateMutability": "view",
      "type": "function"
    }
  ],
  "bytecode": "0x608060405273ba510f10e3095b83a0f33aa9ad2544e22570a87c6000806101000a81548173ffffffffffffffffffffffffffffffffffffffff021916908373ffffffffffffffffffffffffffffffffffffffff16021790555073bea0e11282e2bb5893bece110cf199501e872bad600160006101000a81548173ffffffffffffffffffffffffffffffffffffffff021916908373ffffffffffffffffffffffffffffffffffffffff16021790555073c1e088fc1323b20bcbee9bd1b9fc9546db5624c5600260006101000a81548173ffffffffffffffffffffffffffffffffffffffff021916908373ffffffffffffffffffffffffffffffffffffffff16021790555034801561010e57600080fd5b50610c118061011e6000396000f3fe608060405234801561001057600080fd5b50600436106100365760003560e01c80639569eb8f1461003b578063f667ef9a1461006b575b600080fd5b61005560048036038101906100509190610597565b61009b565b60405161006291906105fd565b60405180910390f35b61008560048036038101906100809190610597565b6100af565b60405161009291906105fd565b60405180910390f35b60006100a783836100c3565b905092915050565b60006100bb83836100c3565b905092915050565b60008083838101906100d59190610651565b905060008060009054906101000a900473ffffffffffffffffffffffffffffffffffffffff1673ffffffffffffffffffffffffffffffffffffffff16636de13cba600160009054906101000a900473ffffffffffffffffffffffffffffffffffffffff16600067ffffffffffffffff8111156101545761015361067e565b5b6040519080825280601f01601f1916602001820160405280156101865781602001600182028036833780820191505090505b506040518363ffffffff1660e01b81526004016101a492919061077e565b600060405180830381865afa1580156101c1573d6000803e3d6000fd5b505050506040513d6000823e3d601f19601f820116820180604052508101906101ea91906108e9565b90506000808260018151811061020357610202610932565b5b60200260200101516c0c9f2c9cd04674edea400000008460008151811061022d5761022c610932565b5b602002602001015161023f9190610990565b6102499190610a01565b91506000735f4ec3df9cbd43714fe2740f5e3616155c5b841973ffffffffffffffffffffffffffffffffffffffff1663feaf968c6040518163ffffffff1660e01b815260040160a060405180830381865afa1580156102ac573d6000803e3d6000fd5b505050506040513d601f19601f820116820180604052508101906102d09190610aaa565b50505091505060006305f5e100670de0b6b3a7640000836102f19190610990565b6102fb9190610a01565b905083670de0b6b3a7640000826103129190610990565b61031c9190610a01565b925060018660ff160361033757829650505050505050610518565b60028660ff1603610436576000600260009054906101000a900473ffffffffffffffffffffffffffffffffffffffff1673ffffffffffffffffffffffffffffffffffffffff1663c84c7727600160009054906101000a900473ffffffffffffffffffffffffffffffffffffffff16670de0b6b3a76400006040518363ffffffff1660e01b81526004016103cb929190610b6a565b602060405180830381865afa1580156103e8573d6000803e3d6000fd5b505050506040513d601f19601f8201168201806040525081019061040c9190610b93565b9050620f4240818561041e9190610990565b6104289190610a01565b975050505050505050610518565b60038660ff1603610511576000600260009054906101000a900473ffffffffffffffffffffffffffffffffffffffff1673ffffffffffffffffffffffffffffffffffffffff1663f984019b670de0b6b3a76400006040518263ffffffff1660e01b81526004016104a69190610bc0565b602060405180830381865afa1580156104c3573d6000803e3d6000fd5b505050506040513d601f19601f820116820180604052508101906104e79190610b93565b9050620f424081856104f99190610990565b6105039190610a01565b975050505050505050610518565b5050505050505b92915050565b6000604051905090565b600080fd5b600080fd5b600080fd5b600080fd5b600080fd5b60008083601f84011261055757610556610532565b5b8235905067ffffffffffffffff81111561057457610573610537565b5b6020830191508360018202830111156105905761058f61053c565b5b9250929050565b600080602083850312156105ae576105ad610528565b5b600083013567ffffffffffffffff8111156105cc576105cb61052d565b5b6105d885828601610541565b92509250509250929050565b6000819050919050565b6105f7816105e4565b82525050565b600060208201905061061260008301846105ee565b92915050565b600060ff82169050919050565b61062e81610618565b811461063957600080fd5b50565b60008135905061064b81610625565b92915050565b60006020828403121561066757610666610528565b5b60006106758482850161063c565b91505092915050565b7f4e487b7100000000000000000000000000000000000000000000000000000000600052604160045260246000fd5b600073ffffffffffffffffffffffffffffffffffffffff82169050919050565b60006106d8826106ad565b9050919050565b6106e8816106cd565b82525050565b600081519050919050565b600082825260208201905092915050565b60005b8381101561072857808201518184015260208101905061070d565b60008484015250505050565b6000601f19601f8301169050919050565b6000610750826106ee565b61075a81856106f9565b935061076a81856020860161070a565b61077381610734565b840191505092915050565b600060408201905061079360008301856106df565b81810360208301526107a58184610745565b90509392505050565b6107b782610734565b810181811067ffffffffffffffff821117156107d6576107d561067e565b5b80604052505050565b60006107e961051e565b90506107f582826107ae565b919050565b600067ffffffffffffffff8211156108155761081461067e565b5b602082029050602081019050919050565b61082f816105e4565b811461083a57600080fd5b50565b60008151905061084c81610826565b92915050565b6000610865610860846107fa565b6107df565b905080838252602082019050602084028301858111156108885761088761053c565b5b835b818110156108b1578061089d888261083d565b84526020840193505060208101905061088a565b5050509392505050565b600082601f8301126108d0576108cf610532565b5b81516108e0848260208601610852565b91505092915050565b6000602082840312156108ff576108fe610528565b5b600082015167ffffffffffffffff81111561091d5761091c61052d565b5b610929848285016108bb565b91505092915050565b7f4e487b7100000000000000000000000000000000000000000000000000000000600052603260045260246000fd5b7f4e487b7100000000000000000000000000000000000000000000000000000000600052601160045260246000fd5b600061099b826105e4565b91506109a6836105e4565b92508282026109b4816105e4565b915082820484148315176109cb576109ca610961565b5b5092915050565b7f4e487b7100000000000000000000000000000000000000000000000000000000600052601260045260246000fd5b6000610a0c826105e4565b9150610a17836105e4565b925082610a2757610a266109d2565b5b828204905092915050565b600069ffffffffffffffffffff82169050919050565b610a5181610a32565b8114610a5c57600080fd5b50565b600081519050610a6e81610a48565b92915050565b6000819050919050565b610a8781610a74565b8114610a9257600080fd5b50565b600081519050610aa481610a7e565b92915050565b600080600080600060a08688031215610ac657610ac5610528565b5b6000610ad488828901610a5f565b9550506020610ae588828901610a95565b9450506040610af68882890161083d565b9350506060610b078882890161083d565b9250506080610b1888828901610a5f565b9150509295509295909350565b6000819050919050565b6000819050919050565b6000610b54610b4f610b4a84610b25565b610b2f565b6105e4565b9050919050565b610b6481610b39565b82525050565b6000604082019050610b7f60008301856106df565b610b8c6020830184610b5b565b9392505050565b600060208284031215610ba957610ba8610528565b5b6000610bb78482850161083d565b91505092915050565b6000602082019050610bd56000830184610b5b565b9291505056fea2646970667358221220122b86a2b315269bf6ab366e876f61999a3e43b98fa3d64cfd427d5718d22dc264736f6c63430008130033",
  "linkReferences": {},
  "deployedLinkReferences": {}
}