{
  "_format": "hh-sol-artifact-1",
  "contractName": "StandardAssessor",
  "sourceName": "src/plugins/assessor/implementations/StandardAssessor.sol",
  "abi": [
    {
      "inputs": [
        {
          "components": [
            {
              "internalType": "uint256",
              "name": "loanAmount",
              "type": "uint256"
            },
            {
              "internalType": "uint256",
              "name": "collAmount",
              "type": "uint256"
            },
            {
              "internalType": "bytes",
              "name": "loanAsset",
              "type": "bytes"
            },
            {
              "internalType": "bytes",
              "name": "collAsset",
              "type": "bytes"
            },
            {
              "internalType": "uint256",
              "name": "minCollateralRatio",
              "type": "uint256"
            },
            {
              "internalType": "uint256",
              "name": "maxDuration",
              "type": "uint256"
            },
            {
              "internalType": "bool",
              "name": "isLeverage",
              "type": "bool"
            },
            {
              "components": [
                {
                  "internalType": "address",
                  "name": "addr",
                  "type": "address"
                },
                {
                  "internalType": "bytes",
                  "name": "parameters",
                  "type": "bytes"
                }
              ],
              "internalType": "struct PluginReference",
              "name": "lenderAccount",
              "type": "tuple"
            },
            {
              "components": [
                {
                  "internalType": "address",
                  "name": "addr",
                  "type": "address"
                },
                {
                  "internalType": "bytes",
                  "name": "parameters",
                  "type": "bytes"
                }
              ],
              "internalType": "struct PluginReference",
              "name": "borrowerAccount",
              "type": "tuple"
            },
            {
              "components": [
                {
                  "internalType": "address",
                  "name": "addr",
                  "type": "address"
                },
                {
                  "internalType": "bytes",
                  "name": "parameters",
                  "type": "bytes"
                }
              ],
              "internalType": "struct PluginReference",
              "name": "assessor",
              "type": "tuple"
            },
            {
              "components": [
                {
                  "internalType": "address",
                  "name": "addr",
                  "type": "address"
                },
                {
                  "internalType": "bytes",
                  "name": "parameters",
                  "type": "bytes"
                }
              ],
              "internalType": "struct PluginReference",
              "name": "liquidator",
              "type": "tuple"
            },
            {
              "components": [
                {
                  "internalType": "address",
                  "name": "addr",
                  "type": "address"
                },
                {
                  "internalType": "bytes",
                  "name": "parameters",
                  "type": "bytes"
                }
              ],
              "internalType": "struct PluginReference",
              "name": "loanOracle",
              "type": "tuple"
            },
            {
              "components": [
                {
                  "internalType": "address",
                  "name": "addr",
                  "type": "address"
                },
                {
                  "internalType": "bytes",
                  "name": "parameters",
                  "type": "bytes"
                }
              ],
              "internalType": "struct PluginReference",
              "name": "collOracle",
              "type": "tuple"
            },
            {
              "internalType": "address",
              "name": "factory",
              "type": "address"
            },
            {
              "components": [
                {
                  "internalType": "address",
                  "name": "addr",
                  "type": "address"
                },
                {
                  "internalType": "bytes",
                  "name": "parameters",
                  "type": "bytes"
                }
              ],
              "internalType": "struct PluginReference",
              "name": "position",
              "type": "tuple"
            },
            {
              "internalType": "uint256",
              "name": "deploymentTime",
              "type": "uint256"
            }
          ],
          "internalType": "struct Agreement",
          "name": "agreement",
          "type": "tuple"
        }
      ],
      "name": "getCost",
      "outputs": [
        {
          "internalType": "uint256",
          "name": "amount",
          "type": "uint256"
        }
      ],
      "stateMutability": "view",
      "type": "function"
    }
  ],
  "bytecode": "0x608060405234801561001057600080fd5b50610d84806100206000396000f3fe608060405234801561001057600080fd5b506004361061002b5760003560e01c8063a6d79fe814610030575b600080fd5b61004a60048036038101906100459190610457565b610060565b60405161005791906104b9565b60405180910390f35b600061006b82610072565b9050919050565b6000808280610120019061008691906104e3565b8060200190610095919061050b565b8101906100a291906106a3565b90506000838061016001906100b791906104e3565b60000160208101906100c9919061072e565b73ffffffffffffffffffffffffffffffffffffffff16639569eb8f858061016001906100f591906104e3565b8060200190610104919061050b565b6040518363ffffffff1660e01b81526004016101219291906107a8565b602060405180830381865afa15801561013e573d6000803e3d6000fd5b505050506040513d601f19601f8201168201806040525081019061016291906107e1565b905060008480610160019061017791906104e3565b6000016020810190610189919061072e565b73ffffffffffffffffffffffffffffffffffffffff1663f667ef9a868061016001906101b591906104e3565b80602001906101c4919061050b565b6040518363ffffffff1660e01b81526004016101e19291906107a8565b602060405180830381865afa1580156101fe573d6000803e3d6000fd5b505050506040513d601f19601f8201168201806040525081019061022291906107e1565b905060008183116102335781610235565b825b9050600081670de0b6b3a764000088806101c0019061025491906104e3565b6000016020810190610266919061072e565b73ffffffffffffffffffffffffffffffffffffffff16634db379d28a6040518263ffffffff1660e01b815260040161029e9190610bf3565b602060405180830381865afa1580156102bb573d6000803e3d6000fd5b505050506040513d601f19601f820116820180604052508101906102df91906107e1565b6102e99190610c44565b6102f39190610cb5565b905060006064670de0b6b3a764000087602001516103119190610cb5565b89600001356103209190610c44565b61032a9190610cb5565b86600001516103399190610ce6565b905060006064670de0b6b3a764000088604001518b6101e001354261035e9190610d1a565b8c6000013561036d9190610c44565b6103779190610c44565b6103819190610cb5565b61038b9190610cb5565b90506000896000013582846103a09190610ce6565b6103aa9190610ce6565b905060008185116103bc5760006103e4565b6064896060015183876103cf9190610d1a565b6103d99190610c44565b6103e39190610cb5565b5b905060008184866103f59190610ce6565b6103ff9190610ce6565b9050868161040d9190610c44565b9a5050505050505050505050919050565b6000604051905090565b600080fd5b600080fd5b600080fd5b6000610200828403121561044e5761044d610432565b5b81905092915050565b60006020828403121561046d5761046c610428565b5b600082013567ffffffffffffffff81111561048b5761048a61042d565b5b61049784828501610437565b91505092915050565b6000819050919050565b6104b3816104a0565b82525050565b60006020820190506104ce60008301846104aa565b92915050565b600080fd5b600080fd5b600080fd5b6000823560016040038336030381126104ff576104fe6104d4565b5b80830191505092915050565b60008083356001602003843603038112610528576105276104d4565b5b80840192508235915067ffffffffffffffff82111561054a576105496104d9565b5b602083019250600182023603831315610566576105656104de565b5b509250929050565b600080fd5b6000601f19601f8301169050919050565b7f4e487b7100000000000000000000000000000000000000000000000000000000600052604160045260246000fd5b6105bc82610573565b810181811067ffffffffffffffff821117156105db576105da610584565b5b80604052505050565b60006105ee61041e565b90506105fa82826105b3565b919050565b610608816104a0565b811461061357600080fd5b50565b600081359050610625816105ff565b92915050565b6000608082840312156106415761064061056e565b5b61064b60806105e4565b9050600061065b84828501610616565b600083015250602061066f84828501610616565b602083015250604061068384828501610616565b604083015250606061069784828501610616565b60608301525092915050565b6000608082840312156106b9576106b8610428565b5b60006106c78482850161062b565b91505092915050565b600073ffffffffffffffffffffffffffffffffffffffff82169050919050565b60006106fb826106d0565b9050919050565b61070b816106f0565b811461071657600080fd5b50565b60008135905061072881610702565b92915050565b60006020828403121561074457610743610428565b5b600061075284828501610719565b91505092915050565b600082825260208201905092915050565b82818337600083830152505050565b6000610787838561075b565b935061079483858461076c565b61079d83610573565b840190509392505050565b600060208201905081810360008301526107c381848661077b565b90509392505050565b6000815190506107db816105ff565b92915050565b6000602082840312156107f7576107f6610428565b5b6000610805848285016107cc565b91505092915050565b600061081d6020840184610616565b905092915050565b61082e816104a0565b82525050565b600080fd5b600080fd5b600080fd5b600080833560016020038436030381126108605761085f61083e565b5b83810192508235915060208301925067ffffffffffffffff82111561088857610887610834565b5b60018202360383131561089e5761089d610839565b5b509250929050565b600082825260208201905092915050565b60006108c383856108a6565b93506108d083858461076c565b6108d983610573565b840190509392505050565b60008115159050919050565b6108f9816108e4565b811461090457600080fd5b50565b600081359050610916816108f0565b92915050565b600061092b6020840184610907565b905092915050565b61093c816108e4565b82525050565b60008235600160400383360303811261095e5761095d61083e565b5b82810191505092915050565b60006109796020840184610719565b905092915050565b61098a816106f0565b82525050565b6000604083016109a3600084018461096a565b6109b06000860182610981565b506109be6020840184610843565b85830360208701526109d18382846108b7565b925050508091505092915050565b600061020083016109f3600084018461080e565b610a006000860182610825565b50610a0e602084018461080e565b610a1b6020860182610825565b50610a296040840184610843565b8583036040870152610a3c8382846108b7565b92505050610a4d6060840184610843565b8583036060870152610a608382846108b7565b92505050610a71608084018461080e565b610a7e6080860182610825565b50610a8c60a084018461080e565b610a9960a0860182610825565b50610aa760c084018461091c565b610ab460c0860182610933565b50610ac260e0840184610942565b84820360e0860152610ad48282610990565b915050610ae5610100840184610942565b848203610100860152610af88282610990565b915050610b09610120840184610942565b848203610120860152610b1c8282610990565b915050610b2d610140840184610942565b848203610140860152610b408282610990565b915050610b51610160840184610942565b848203610160860152610b648282610990565b915050610b75610180840184610942565b848203610180860152610b888282610990565b915050610b996101a084018461096a565b610ba76101a0860182610981565b50610bb66101c0840184610942565b8482036101c0860152610bc98282610990565b915050610bda6101e084018461080e565b610be86101e0860182610825565b508091505092915050565b60006020820190508181036000830152610c0d81846109df565b905092915050565b7f4e487b7100000000000000000000000000000000000000000000000000000000600052601160045260246000fd5b6000610c4f826104a0565b9150610c5a836104a0565b9250828202610c68816104a0565b91508282048414831517610c7f57610c7e610c15565b5b5092915050565b7f4e487b7100000000000000000000000000000000000000000000000000000000600052601260045260246000fd5b6000610cc0826104a0565b9150610ccb836104a0565b925082610cdb57610cda610c86565b5b828204905092915050565b6000610cf1826104a0565b9150610cfc836104a0565b9250828201905080821115610d1457610d13610c15565b5b92915050565b6000610d25826104a0565b9150610d30836104a0565b9250828203905081811115610d4857610d47610c15565b5b9291505056fea2646970667358221220fd61520d89a695e4601869200dd15dfe1fd057a36b40114226007dbc9c262bd264736f6c63430008130033",
  "linkReferences": {},
  "deployedLinkReferences": {}
}