{
  "_format": "hh-sol-artifact-1",
  "contractName": "StandardAssessor",
  "sourceName": "src/plugins/assessor/implementations/StandardAssessor.sol",
  "abi": [
    {
      "inputs": [
        {
          "components": [
            {
              "internalType": "uint256",
              "name": "loanAmount",
              "type": "uint256"
            },
            {
              "internalType": "uint256",
              "name": "collAmount",
              "type": "uint256"
            },
            {
              "internalType": "bytes",
              "name": "loanAsset",
              "type": "bytes"
            },
            {
              "internalType": "bytes",
              "name": "collAsset",
              "type": "bytes"
            },
            {
              "internalType": "uint256",
              "name": "minCollateralRatio",
              "type": "uint256"
            },
            {
              "internalType": "uint256",
              "name": "maxDuration",
              "type": "uint256"
            },
            {
              "internalType": "bool",
              "name": "isLeverage",
              "type": "bool"
            },
            {
              "components": [
                {
                  "internalType": "address",
                  "name": "addr",
                  "type": "address"
                },
                {
                  "internalType": "bytes",
                  "name": "parameters",
                  "type": "bytes"
                }
              ],
              "internalType": "struct PluginReference",
              "name": "lenderAccount",
              "type": "tuple"
            },
            {
              "components": [
                {
                  "internalType": "address",
                  "name": "addr",
                  "type": "address"
                },
                {
                  "internalType": "bytes",
                  "name": "parameters",
                  "type": "bytes"
                }
              ],
              "internalType": "struct PluginReference",
              "name": "borrowerAccount",
              "type": "tuple"
            },
            {
              "components": [
                {
                  "internalType": "address",
                  "name": "addr",
                  "type": "address"
                },
                {
                  "internalType": "bytes",
                  "name": "parameters",
                  "type": "bytes"
                }
              ],
              "internalType": "struct PluginReference",
              "name": "assessor",
              "type": "tuple"
            },
            {
              "components": [
                {
                  "internalType": "address",
                  "name": "addr",
                  "type": "address"
                },
                {
                  "internalType": "bytes",
                  "name": "parameters",
                  "type": "bytes"
                }
              ],
              "internalType": "struct PluginReference",
              "name": "liquidator",
              "type": "tuple"
            },
            {
              "components": [
                {
                  "internalType": "address",
                  "name": "addr",
                  "type": "address"
                },
                {
                  "internalType": "bytes",
                  "name": "parameters",
                  "type": "bytes"
                }
              ],
              "internalType": "struct PluginReference",
              "name": "loanOracle",
              "type": "tuple"
            },
            {
              "components": [
                {
                  "internalType": "address",
                  "name": "addr",
                  "type": "address"
                },
                {
                  "internalType": "bytes",
                  "name": "parameters",
                  "type": "bytes"
                }
              ],
              "internalType": "struct PluginReference",
              "name": "collOracle",
              "type": "tuple"
            },
            {
              "internalType": "address",
              "name": "factory",
              "type": "address"
            },
            {
              "components": [
                {
                  "internalType": "address",
                  "name": "addr",
                  "type": "address"
                },
                {
                  "internalType": "bytes",
                  "name": "parameters",
                  "type": "bytes"
                }
              ],
              "internalType": "struct PluginReference",
              "name": "position",
              "type": "tuple"
            },
            {
              "internalType": "uint256",
              "name": "deploymentTime",
              "type": "uint256"
            },
            {
              "internalType": "bytes",
              "name": "fillerData",
              "type": "bytes"
            }
          ],
          "internalType": "struct Agreement",
          "name": "agreement",
          "type": "tuple"
        }
      ],
      "name": "getCost",
      "outputs": [
        {
          "internalType": "uint256",
          "name": "amount",
          "type": "uint256"
        }
      ],
      "stateMutability": "nonpayable",
      "type": "function"
    }
  ],
  "bytecode": "0x608060405234801561001057600080fd5b50610ded806100206000396000f3fe608060405234801561001057600080fd5b506004361061002b5760003560e01c8063458a83c314610030575b600080fd5b61004a60048036038101906100459190610483565b610060565b60405161005791906104e5565b60405180910390f35b600061006b82610072565b9050919050565b60008082806101200190610086919061050f565b80602001906100959190610537565b8101906100a291906106cf565b90506000838061016001906100b7919061050f565b60000160208101906100c9919061075a565b73ffffffffffffffffffffffffffffffffffffffff1663f09f4079858061016001906100f5919061050f565b80602001906101049190610537565b878061020001906101159190610537565b6040518563ffffffff1660e01b815260040161013494939291906107d4565b6020604051808303816000875af1158015610153573d6000803e3d6000fd5b505050506040513d601f19601f820116820180604052508101906101779190610824565b905060008480610160019061018c919061050f565b600001602081019061019e919061075a565b73ffffffffffffffffffffffffffffffffffffffff16632e820849868061016001906101ca919061050f565b80602001906101d99190610537565b888061020001906101ea9190610537565b6040518563ffffffff1660e01b815260040161020994939291906107d4565b6020604051808303816000875af1158015610228573d6000803e3d6000fd5b505050506040513d601f19601f8201168201806040525081019061024c9190610824565b9050600081831161025d578161025f565b825b9050600081670de0b6b3a764000088806101c0019061027e919061050f565b6000016020810190610290919061075a565b73ffffffffffffffffffffffffffffffffffffffff1663edd9e4b58a6040518263ffffffff1660e01b81526004016102c89190610c5c565b6020604051808303816000875af11580156102e7573d6000803e3d6000fd5b505050506040513d601f19601f8201168201806040525081019061030b9190610824565b6103159190610cad565b61031f9190610d1e565b905060006064670de0b6b3a7640000876020015161033d9190610d1e565b896000013561034c9190610cad565b6103569190610d1e565b86600001516103659190610d4f565b905060006064670de0b6b3a764000088604001518b6101e001354261038a9190610d83565b8c600001356103999190610cad565b6103a39190610cad565b6103ad9190610d1e565b6103b79190610d1e565b90506000896000013582846103cc9190610d4f565b6103d69190610d4f565b905060008185116103e8576000610410565b6064896060015183876103fb9190610d83565b6104059190610cad565b61040f9190610d1e565b5b905060008184866104219190610d4f565b61042b9190610d4f565b905086816104399190610cad565b9a5050505050505050505050919050565b6000604051905090565b600080fd5b600080fd5b600080fd5b6000610220828403121561047a5761047961045e565b5b81905092915050565b60006020828403121561049957610498610454565b5b600082013567ffffffffffffffff8111156104b7576104b6610459565b5b6104c384828501610463565b91505092915050565b6000819050919050565b6104df816104cc565b82525050565b60006020820190506104fa60008301846104d6565b92915050565b600080fd5b600080fd5b600080fd5b60008235600160400383360303811261052b5761052a610500565b5b80830191505092915050565b6000808335600160200384360303811261055457610553610500565b5b80840192508235915067ffffffffffffffff82111561057657610575610505565b5b6020830192506001820236038313156105925761059161050a565b5b509250929050565b600080fd5b6000601f19601f8301169050919050565b7f4e487b7100000000000000000000000000000000000000000000000000000000600052604160045260246000fd5b6105e88261059f565b810181811067ffffffffffffffff82111715610607576106066105b0565b5b80604052505050565b600061061a61044a565b905061062682826105df565b919050565b610634816104cc565b811461063f57600080fd5b50565b6000813590506106518161062b565b92915050565b60006080828403121561066d5761066c61059a565b5b6106776080610610565b9050600061068784828501610642565b600083015250602061069b84828501610642565b60208301525060406106af84828501610642565b60408301525060606106c384828501610642565b60608301525092915050565b6000608082840312156106e5576106e4610454565b5b60006106f384828501610657565b91505092915050565b600073ffffffffffffffffffffffffffffffffffffffff82169050919050565b6000610727826106fc565b9050919050565b6107378161071c565b811461074257600080fd5b50565b6000813590506107548161072e565b92915050565b6000602082840312156107705761076f610454565b5b600061077e84828501610745565b91505092915050565b600082825260208201905092915050565b82818337600083830152505050565b60006107b38385610787565b93506107c0838584610798565b6107c98361059f565b840190509392505050565b600060408201905081810360008301526107ef8186886107a7565b905081810360208301526108048184866107a7565b905095945050505050565b60008151905061081e8161062b565b92915050565b60006020828403121561083a57610839610454565b5b60006108488482850161080f565b91505092915050565b60006108606020840184610642565b905092915050565b610871816104cc565b82525050565b600080fd5b600080fd5b600080fd5b600080833560016020038436030381126108a3576108a2610881565b5b83810192508235915060208301925067ffffffffffffffff8211156108cb576108ca610877565b5b6001820236038313156108e1576108e061087c565b5b509250929050565b600082825260208201905092915050565b600061090683856108e9565b9350610913838584610798565b61091c8361059f565b840190509392505050565b60008115159050919050565b61093c81610927565b811461094757600080fd5b50565b60008135905061095981610933565b92915050565b600061096e602084018461094a565b905092915050565b61097f81610927565b82525050565b6000823560016040038336030381126109a1576109a0610881565b5b82810191505092915050565b60006109bc6020840184610745565b905092915050565b6109cd8161071c565b82525050565b6000604083016109e660008401846109ad565b6109f360008601826109c4565b50610a016020840184610886565b8583036020870152610a148382846108fa565b925050508091505092915050565b60006102208301610a366000840184610851565b610a436000860182610868565b50610a516020840184610851565b610a5e6020860182610868565b50610a6c6040840184610886565b8583036040870152610a7f8382846108fa565b92505050610a906060840184610886565b8583036060870152610aa38382846108fa565b92505050610ab46080840184610851565b610ac16080860182610868565b50610acf60a0840184610851565b610adc60a0860182610868565b50610aea60c084018461095f565b610af760c0860182610976565b50610b0560e0840184610985565b84820360e0860152610b1782826109d3565b915050610b28610100840184610985565b848203610100860152610b3b82826109d3565b915050610b4c610120840184610985565b848203610120860152610b5f82826109d3565b915050610b70610140840184610985565b848203610140860152610b8382826109d3565b915050610b94610160840184610985565b848203610160860152610ba782826109d3565b915050610bb8610180840184610985565b848203610180860152610bcb82826109d3565b915050610bdc6101a08401846109ad565b610bea6101a08601826109c4565b50610bf96101c0840184610985565b8482036101c0860152610c0c82826109d3565b915050610c1d6101e0840184610851565b610c2b6101e0860182610868565b50610c3a610200840184610886565b858303610200870152610c4e8382846108fa565b925050508091505092915050565b60006020820190508181036000830152610c768184610a22565b905092915050565b7f4e487b7100000000000000000000000000000000000000000000000000000000600052601160045260246000fd5b6000610cb8826104cc565b9150610cc3836104cc565b9250828202610cd1816104cc565b91508282048414831517610ce857610ce7610c7e565b5b5092915050565b7f4e487b7100000000000000000000000000000000000000000000000000000000600052601260045260246000fd5b6000610d29826104cc565b9150610d34836104cc565b925082610d4457610d43610cef565b5b828204905092915050565b6000610d5a826104cc565b9150610d65836104cc565b9250828201905080821115610d7d57610d7c610c7e565b5b92915050565b6000610d8e826104cc565b9150610d99836104cc565b9250828203905081811115610db157610db0610c7e565b5b9291505056fea2646970667358221220717c7b36adf8d088bc58b76084ba23e9b2ad236e0eaa768c0b8d52fc13cb480364736f6c63430008130033",
  "linkReferences": {},
  "deployedLinkReferences": {}
}