{
  "_format": "hh-sol-artifact-1",
  "contractName": "EIP712External",
  "sourceName": "@tractor/EIP712External.sol",
  "abi": [
    {
      "inputs": [
        {
          "internalType": "string",
          "name": "name",
          "type": "string"
        },
        {
          "internalType": "string",
          "name": "version",
          "type": "string"
        }
      ],
      "stateMutability": "nonpayable",
      "type": "constructor"
    },
    {
      "inputs": [],
      "name": "domainSeparator",
      "outputs": [
        {
          "internalType": "bytes32",
          "name": "",
          "type": "bytes32"
        }
      ],
      "stateMutability": "view",
      "type": "function"
    },
    {
      "inputs": [],
      "name": "getChainId",
      "outputs": [
        {
          "internalType": "uint256",
          "name": "",
          "type": "uint256"
        }
      ],
      "stateMutability": "view",
      "type": "function"
    },
    {
      "inputs": [
        {
          "internalType": "address",
          "name": "signer",
          "type": "address"
        },
        {
          "internalType": "bytes32",
          "name": "hash",
          "type": "bytes32"
        },
        {
          "internalType": "bytes",
          "name": "signature",
          "type": "bytes"
        }
      ],
      "name": "isValidSignatureNow",
      "outputs": [
        {
          "internalType": "bool",
          "name": "",
          "type": "bool"
        }
      ],
      "stateMutability": "view",
      "type": "function"
    }
  ],
  "bytecode": "0x61014060405234801561001157600080fd5b506040516108633803806108638339810160408190526100309161017f565b815160209283012081519183019190912060e08290526101008190524660a0818152604080517f8b73c3c69bb8fe3d512ecc4cf759cc79239f7b179b0ffacaa9a75d522b39400f818801819052818301969096526060810194909452608080850193909352308483018190528151808603909301835260c094850190915281519190950120905291909152610120526101e2565b634e487b7160e01b600052604160045260246000fd5b600082601f8301126100eb57600080fd5b81516001600160401b0380821115610105576101056100c4565b604051601f8301601f19908116603f0116810190828211818310171561012d5761012d6100c4565b8160405283815260209250868385880101111561014957600080fd5b600091505b8382101561016b578582018301518183018401529082019061014e565b600093810190920192909252949350505050565b6000806040838503121561019257600080fd5b82516001600160401b03808211156101a957600080fd5b6101b5868387016100da565b935060208501519150808211156101cb57600080fd5b506101d8858286016100da565b9150509250929050565b60805160a05160c05160e051610100516101205161063261023160003960006102be0152600061030d015260006102e8015260006102410152600061026b0152600061029501526106326000f3fe608060405234801561001057600080fd5b50600436106100415760003560e01c80633408e470146100465780636ccea6521461005b578063f698da251461007e575b600080fd5b465b6040519081526020015b60405180910390f35b61006e61006936600461047a565b610086565b6040519015158152602001610052565b61004861009d565b60006100938484846100ac565b90505b9392505050565b60006100a7610234565b905090565b60008060006100bb858561035b565b909250905060008160048111156100d4576100d4610553565b1480156100f25750856001600160a01b0316826001600160a01b0316145b1561010257600192505050610096565b600080876001600160a01b0316631626ba7e60e01b888860405160240161012a92919061058d565b60408051601f198184030181529181526020820180517bffffffffffffffffffffffffffffffffffffffffffffffffffffffff167fffffffff0000000000000000000000000000000000000000000000000000000090941693909317909252905161019591906105c7565b600060405180830381855afa9150503d80600081146101d0576040519150601f19603f3d011682016040523d82523d6000602084013e6101d5565b606091505b50915091508180156101e8575080516020145b8015610228575080517f1626ba7e000000000000000000000000000000000000000000000000000000009061022690830160209081019084016105e3565b145b98975050505050505050565b6000306001600160a01b037f00000000000000000000000000000000000000000000000000000000000000001614801561028d57507f000000000000000000000000000000000000000000000000000000000000000046145b156102b757507f000000000000000000000000000000000000000000000000000000000000000090565b50604080517f00000000000000000000000000000000000000000000000000000000000000006020808301919091527f0000000000000000000000000000000000000000000000000000000000000000828401527f000000000000000000000000000000000000000000000000000000000000000060608301524660808301523060a0808401919091528351808403909101815260c0909201909252805191012090565b60008082516041036103915760208301516040840151606085015160001a610385878285856103a0565b94509450505050610399565b506000905060025b9250929050565b6000807f7fffffffffffffffffffffffffffffff5d576e7357a4501ddfe92f46681b20a08311156103d7575060009050600361045b565b6040805160008082526020820180845289905260ff881692820192909252606081018690526080810185905260019060a0016020604051602081039080840390855afa15801561042b573d6000803e3d6000fd5b5050604051601f1901519150506001600160a01b0381166104545760006001925092505061045b565b9150600090505b94509492505050565b634e487b7160e01b600052604160045260246000fd5b60008060006060848603121561048f57600080fd5b83356001600160a01b03811681146104a657600080fd5b925060208401359150604084013567ffffffffffffffff808211156104ca57600080fd5b818601915086601f8301126104de57600080fd5b8135818111156104f0576104f0610464565b604051601f8201601f19908116603f0116810190838211818310171561051857610518610464565b8160405282815289602084870101111561053157600080fd5b8260208601602083013760006020848301015280955050505050509250925092565b634e487b7160e01b600052602160045260246000fd5b60005b8381101561058457818101518382015260200161056c565b50506000910152565b82815260406020820152600082518060408401526105b2816060850160208701610569565b601f01601f1916919091016060019392505050565b600082516105d9818460208701610569565b9190910192915050565b6000602082840312156105f557600080fd5b505191905056fea264697066735822122099f7db115e6ce87d9b48e226a3cca7fbc275ef9204b2ccc6a5105c2e54424a0564736f6c63430008130033",
  "linkReferences": {},
  "deployedLinkReferences": {}
}